:100000000C946F030C94E61E0C94BF1E0C94840891
:100010000C9484080C9484080C9497030C94970314
:100020000C9497030C9497030C9497030C949703E8
:100030000C9497030C9497030C9497030C949703D8
:100040000C94751E0C9497030C94111C0C94EB1BD0
:100050000C9497030C9497030C9497030C949703B8
:100060000C948E080C949703084AD73B3BCE016E44
:1000700084BCBFFDC12F3D6C74319ABD56833DDAFF
:100080003D00C77F11BED9E4BB4C3E916BAAAABE0E
:10009000000000803F05A84CCDB2D44EB93836A937
:1000A000020C50B9918688083CA6AAAA2ABE000074
:1000B00000803F0000000000003E5B4F5B3E3E6B57
:1000C0004F6B3E1C3E7C3E1C183C7E3C181C577DF2
:1000D000571C1C5E7F5E1C00183C1800FFE7C3E73E
:1000E000FF0018241800FFE7DBE7FF30483A060E50
:1000F0002629792926407F050507407F05253F5A97
:100100003CE73C5A7F3E1C1C08081C1C3E7F142206
:100110007F22145F5F005F5F06097F017F006689B1
:10012000956A606060606094A2FFA29408047E04F7
:100130000810207E201008082A1C08081C2A08081D
:100140001E101010100C1E0C1E0C30383E383006DD
:100150000E3E0E06000000000000005F00000007D9
:10016000000700147F147F14242A7F2A1223130807
:10017000646236495620500008070300001C2241E3
:10018000000041221C002A1C7F1C2A08083E080887
:100190000080703000080808080800006060002037
:1001A000100804023E5149453E00427F400072491A
:1001B0004949462141494D331814127F10274545BE
:1001C00045393C4A494931412111090736494949D4
:1001D00036464949291E0000140000004034000042
:1001E00000081422411414141414004122140802AB
:1001F000015909063E415D594E7C1211127C7F491E
:100200004949363E414141227F4141413E7F494972
:1002100049417F090909013E414151737F0808089E
:100220007F00417F41002040413F017F081422416F
:100230007F404040407F021C027F7F0408107F3EC9
:100240004141413E7F090909063E4151215E7F0936
:10025000192946264949493203017F01033F40409D
:10026000403F1F2040201F3F4038403F6314081488
:100270006303047804036159494D43007F414141C0
:100280000204081020004141417F040201020440A1
:1002900040404040000307080020545478407F2825
:1002A0004444383844444428384444287F3854541B
:1002B000541800087E090218A4A49C787F0804043E
:1002C0007800447D40002040403D007F10284400DD
:1002D00000417F40007C047804787C08040478386E
:1002E00044444438FC1824241818242418FC7C089E
:1002F000040408485454542404043F44243C40401B
:10030000207C1C2040201C3C4030403C44281028CD
:10031000444C9090907C4464544C44000836410016
:100320000000770000004136080002010204023C90
:100330002623263C1EA1A161123A4040207A38545F
:1003400054555921555579412254547842215554D8
:10035000784020545579400C1E527212395555552B
:1003600059395454545939555454580000457C4116
:100370000002457D420001457C407D1211127DF056
:10038000282528F07C545545002054547C547C0A80
:10039000097F4932494949323A4444443A324A4849
:1003A00048303A4141217A3A42402078009DA0A04D
:1003B0007D3D4242423D3D4040403D3C24FF24249F
:1003C000487E4943662B2FFC2F2BFF0929F620C0BE
:1003D000887E090320545479410000447D4130480F
:1003E000484A32384040227A007A0A0A727D0D1952
:1003F000317D2629292F28262929292630484D40B4
:1004000020380808080808080808382F10C8ACBAAF
:100410002F102834FA00007B000008142A1422222E
:10042000142A14085500550055AA55AA55AAFF5577
:10043000FF55FF000000FF00101010FF00141414FF
:10044000FF001010FF00FF1010F010F0141414FC47
:10045000001414F700FF0000FF00FF1414F404FC64
:10046000141417101F10101F101F1414141F001045
:100470001010F0000000001F101010101F101010BE
:1004800010F010000000FF101010101010101010CD
:10049000FF10000000FF140000FF00FF00001F100D
:1004A000170000FC04F414141710171414F404F4C7
:1004B0000000FF00F714141414141414F700F714B8
:1004C0001414171410101F101F141414F414101007
:1004D000F010F000001F101F0000001F14000000AB
:1004E000FC140000F010F01010FF10FF141414FFA3
:1004F000141010101F00000000F010FFFFFFFFFF9E
:10050000F0F0F0F0F0FFFFFF0000000000FFFF0F31
:100510000F0F0F0F3844443844FC4A4A4A347E02D5
:10052000020606027E027E02635549416338444456
:100530003C04407E201E2006027E020299A5E7A50B
:10054000991C2A492A1C4C7201724C304A4D4D307C
:100550003048784830BC625A463D3E494949007EA1
:100560000101017E2A2A2A2A2A44445F4444405138
:100570004A444040444A51400000FF0103E080FFEC
:10058000000008086B6B083612362436060F090F78
:1005900006000018180000001010003040FF010194
:1005A000001F01011E00191D1712003C3C3C3C00BD
:1005B0000000000000000100FF0032000100000107
:1005C00002000007030030100400000008000202CF
:1005D000090000000A0000000C0000000D000000EF
:1005E0000F000000100000001100070012000000C2
:1005F00013000000FF00C800100090161100270231
:10060000FF00320012001A00FF0032001300001831
:1006100029002A00FF0032003000000031000000F5
:1006200032000000350006023600080837000700D7
:1006300038000102390000003C0000003D000000CD
:100640002000000021000000500000005100EF00D9
:100650005200000053003F01600000A7610003004A
:100660006A00000090001000920000009300030058
:10067000950000119700000098000000070033016A
:1006800000000000230026002900000000080002EE
:100690000100000304070000000000000000010248
:1006A0000408102040800102040810200102040800
:1006B000102000000000250028002B000404040482
:1006C00004040404020202020202030303030303FC
:1006D00000000000240027002A000727EB20112437
:1006E0001FBECFEFD8E0DEBFCDBF25E0A0EDB1E06B
:1006F00001C01D92AE3DB207E1F711E0A0E0B1E00C
:10070000E2EBFFE502C005900D92A03DB107D9F7DD
:1007100013E0CEE6D3E004C02197FE010E94B12D84
:10072000CD36D107C9F70E94FA200C94CC2F0C9437
:1007300000002F923F924F925F926F927F928F9222
:100740009F92AF92BF92CF92DF92EF92FF920F9360
:100750001F93CF93DF93CDB7DEB76B970FB6F894A7
:10076000DEBF0FBECDBF4C015A8349831F830E836A
:10077000FD82EC82CB82DC0158964D915C915997B9
:100780004115510509F0A5C018968D919C911997B6
:10079000681779070CF05AC11A968D919C911B9796
:1007A000E981FA81E817F9070CF050C1D12CCB018F
:1007B0003B81F6E03F9F800D911D1124181619060C
:1007C0000CF044C1C60133E0880F991F3A95E1F758
:1007D00049815A81840F951F181619060CF036C1ED
:1007E00057968C91811103C0203B08F02F5F55E094
:1007F000259F900111247E876D875B01212CC90103
:10080000861B970B99878887A981BA811896BB8721
:10081000AA87B5E02B1641F0E885F985EA0DFB1DA6
:10082000EC54FF4F349001C0312C69807A80230151
:1008300030FE12C0D401ED91FC91BB81B13031F496
:100840000480F581E02D2E813F8118C00684F78554
:10085000E02DEE80FF801CC0EC81FD812E813F8168
:10086000E217F307E1F0D401ED91FC91BB81B130C7
:1008700051F40480F581E02D2C813D81A301B50167
:10088000C40109950CC00684F785E02DEC80FD803D
:1008900086019601A2016D857E85C4010995369475
:1008A000EFEF6E1A7E0A4C0C5D1C2A853B856216A2
:1008B000730609F0BDCF23943FEFA31AB30A4D8509
:1008C0005E854C0D5D1D5E874D8756E02512A1CFDC
:1008D000BDC0FA0134963491329785919491231BCF
:1008E000A7E02A9F800D911D1124FA0125913491D2
:1008F0003A8B298BFC0125903490FC01329634917F
:100900003887319644914C873196E491FC013596B5
:10091000A491319684915B81523050F06A2E0A2E58
:10092000000C7708E82F082E000CFF0BFB87EA87E6
:10093000FB81CF2ED12C6C9C90016D9C300D7C9C4A
:10094000300D1124A901460F571F588B4F871C8269
:10095000A12CEA2FAA0FFF0B3B016E0E7F1E5885BC
:10096000650F711DDB01AE0FBF1FBF8BAE8BE98121
:10097000FA81E80FF11D87FDFA95F98FE88F9C85C4
:10098000A91608F063C08A2D90E04A855B85480F60
:10099000591F4C9D90014D9D300D5C9D300D1124D3
:1009A000A981BA81A20FB31FBE87AD877B8E6A8EE5
:1009B0004F845888BC81B619BB8BE88DF98DE80F40
:1009C000F91FFD8BEC8B8B89FA8D8F0F2A8D3B8D58
:1009D0004E895F892417350799F1877041F4C10169
:1009E0000196E989FA89E20DF31DB4901C01B7FE66
:1009F0001EC0D401ED91FC91BB81B13061F4048043
:100A0000F581E02D2E813F814C895D896A8D7B8D3A
:100A1000C40109950CC00684F785E02DEE80FF80A7
:100A2000860196014D855E85B201C4010995BB0C16
:100A3000EA8DFB8D3196FB8FEA8F4C0C5D1CC3CF8A
:100A40005C818885580F5C83A39499CF6B960FB611
:100A5000F894DEBF0FBECDBFDF91CF911F910F91F4
:100A6000FF90EF90DF90CF90BF90AF909F908F90CE
:100A70007F906F905F904F903F902F900895AF922E
:100A8000BF92CF92EF92FF920F931F93CF93DF937A
:100A9000EC01262F888D998D009709F042C06A30AD
:100AA00069F42C898E859F8538E0239F800D911DE8
:100AB00011249F878E871D861C86ACC06D3009F47B
:100AC000A9C08E898823C1F03C898C859D8546E02C
:100AD000349F800D911D11244885598584179507F1
:100AE0005CF01D861C868E859F85E8E03E9F800D0C
:100AF000911D11249F878E87EA88FB8808891989B0
:100B00004E855F856C857D85CC88CE010E949903DA
:100B10002C898C859D85F6E02F9F800D911D1124D9
:100B200041C06A3079F41D861C862C89FC013696FA
:100B3000E4918E859F852E9F800D911D11249F87A6
:100B40008E8768C06D3009F465C0AC014C5F5F4FA3
:100B5000FA013491631708F45DC03196E491E61709
:100B600008F458C0FA014491362F341BFC01329628
:100B7000A590B490F7E03F9FA00CB11C1124F501A3
:100B8000329634913196E491332311F0E1110DC086
:100B9000F5013496E4912C898C859D85E29F800D2A
:100BA000911D11249D878C8735C0F50135964491A0
:100BB0005E89552311F16C89E32FF0E0E40FF11DFC
:100BC00047FDFA956E9FD0016F9FB00D11244C85A3
:100BD0005D854A0F5B1FE885F9854E175F076CF04E
:100BE0001D861C86FC013696E4918E859F856E9F3E
:100BF000800D911D11249F878E87EA88FB880889C4
:100C000019894E855F856C857D85CC88CE010E94D3
:100C10009903BECF81E090E0DF91CF911F910F91BA
:100C2000FF90EF90CF90BF90AF900895EF92FF921A
:100C30000F931F93DC01ED91FC9111971A960D9182
:100C40001C911B9718962D913C9119970684F78556
:100C5000E02D7B0140E050E060E070E009951F91DD
:100C60000F91FF90EF9008956F927F928F929F92D5
:100C7000AF92BF92CF92DF92EF92FF920F931F93AA
:100C8000CF93DF936C015A014801EB013B01620EE7
:100C9000731EC615D70574F4D601ED91FC9100843E
:100CA000F185E02D87019401A501BE01C6010995DA
:100CB0002196EFCFDF91CF911F910F91FF90EF9091
:100CC000DF90CF90BF90AF909F908F907F906F906C
:100CD0000895EF92FF920F931F93DC01ED91FC9129
:100CE000260F371F215031090680F781E02D78014A
:100CF0008A0109951F910F91FF90EF900895EF924F
:100D0000FF920F931F937801DC01ED91FC91240F6A
:100D1000351F8901015011090680F781E02D9B01E3
:100D200009951F910F91FF90EF9008956F927F9218
:100D30008F929F92AF92BF92CF92DF92EF92FF92EB
:100D40000F931F93CF93DF93EC014B015A0169017D
:100D50003801E881F9810284F385E02D8701099546
:100D6000E881F981A501460D571D415051090284C2
:100D7000F385E02D9601B401CE010995E881F98152
:100D80000084F185E02D9301A501B401CE01099500
:100D9000E881F981C80CD91CB60161507109008441
:100DA000F185E02D9301A501CE010995DF91CF9149
:100DB0001F910F91FF90EF90DF90CF90BF90AF9079
:100DC0009F908F907F906F9008952F923F924F92B7
:100DD0005F926F927F928F929F92AF92BF92CF92CB
:100DE000DF92EF92FF920F931F93CF93DF9300D088
:100DF0001F92CDB7DEB74C017B836A836A0159012C
:100E000017019801241B350B37FF03C0319521953D
:100E10003109C5014A815B81841B950B97FF03C093
:100E200091958195910951E059838217930714F0A8
:100E300019820BC09A2D8B2D5801092F182F9A81DA
:100E40008B81DB82CA82C92ED82E8A819B81A8160B
:100E5000B9065CF49C2D8D2D6801092F182F9A81FD
:100E60008B81BB82AA82A92EB82E2501AA81BB81C3
:100E70004A1A5B0A38016C187D0877FE03C071942A
:100E800061947108720157FE03C0BFEFEB1AFB0AB1
:100E9000F594E794C016D1061CF00FEF1FEF1FC0AA
:100EA00001E010E01CC0D401ED91FC91B9810480F7
:100EB000F581E02D9101BB23C1F04A815B81B60130
:100EC000C4010995E618F708F7FE04C0C00ED11E4C
:100ED000E40CF51CEA81FB813196FB83EA834A81AD
:100EE0005B81A416B506FCF604C0A6016A817B816D
:100EF000E7CF0F900F900F90DF91CF911F910F913F
:100F0000FF90EF90DF90CF90BF90AF909F908F9029
:100F10007F906F905F904F903F902F90089585ED58
:100F20008093BC008091BC0084FDFCCF10921E0217
:100F300008954091F801262F30E0240F311D213211
:100F40003105DCF420911E022430C9F4FC0180E05C
:100F500090E0861758F43091F8012191DC01AA52F3
:100F6000BE4FA30FB11D2C930196F3CF8091F801D2
:100F7000680F6093F80180E0089581E0089582E0B1
:100F8000089508958FEF9FEF08958FEF9FEF0895D5
:100F90008091D50190E09195819591090895CF9325
:100FA000DF9300D0CDB7DEB7CB01642F49835A83DE
:100FB0000E9499074981842F5A81952F0F900F9095
:100FC000DF91CF910895CF93DF931F92CDB7DEB716
:100FD000698361E0CE0101960E94990781E090E06B
:100FE0000F90DF91CF910895CF93DF93880F991FD2
:100FF000880F991F0397242F267030E03595279589
:10100000820F931F4170309100016091D301709164
:10101000D4012091D001E9E4F2E0ABE0B1E0C1916C
:10102000D1918C179D0729F46D917C911197342FE4
:1010300020E0129652E0E735F50789F7309300017A
:101040007093D4016093D3012093D001DF91CF91AD
:1010500008955F926F927F928F929F92AF92BF920C
:10106000CF92DF92EF92FF920F931F93CF93DF9374
:101070008C015B016A017901FC0184809580612CFF
:10108000712CCFEFDFEF46E0542E569CC001579CE9
:10109000900D11248A5F9A4FFC0124813581281517
:1010A000390549F4B8010E948A12892B21F4E30121
:1010B00031E1632E712CFFEF6F1A7F0A81E1681610
:1010C00071041CF3CE01880F991FFC01E755FD4FF9
:1010D000B182A082FC01E957FD4FD182C082FC01A0
:1010E000EB59FD4FF182E082DF91CF911F910F917B
:1010F000FF90EF90DF90CF90BF90AF909F908F9038
:101100007F906F905F9008951F920F920FB60F928D
:1011100011240F900FBE0F901F9018951F920F92E1
:101120000FB60F9211242F933F934F935F936F93BA
:101130007F938F939F93AF93BF93EF93FF93809190
:10114000B900887F803609F49CC068F5883209F4BC
:101150005BC090F4803109F454C038F4882309F45A
:10116000F6C0883009F44DC0F6C0883109F44CC08F
:10117000803209F45DC0EFC0803409F468C048F4DF
:10118000803309F455C0883309F0E5C080931D020F
:10119000D8C0803509F44FC0883509F45DC0883463
:1011A00009F0D9C0D6C0883909F4C7C0A8F4883777
:1011B00009F467C038F4883609F463C0803709F44D
:1011C00060C0C9C0883809F4B8C0803909F45FC06C
:1011D000803809F0C0C05BC0803B09F486C038F499
:1011E000803A09F466C0883A09F47FC0B4C0803CF4
:1011F00009F4A7C0883C09F4A4C0883B09F48AC05C
:10120000AAC08091430210C0909142028091410295
:10121000981770F5E091420281E08E0F80934202B0
:10122000F0E0EF5DFD4F80818093BB0085EC86C0D0
:1012300080931D028EC0E091420281E08E0F809368
:1012400042028091BB00F0E0EF5DFD4F8083909102
:101250004202809141026EC0E091420281E08E0F15
:10126000809342028091BB00F0E0EF5DFD4F8083F0
:101270008091200281116DC081E080931F0284EA79
:1012800061C083E080931E0210921C02CFCF809138
:101290001C02803208F051C0E0911C0281E08E0FE8
:1012A00080931C028091BB00F0E0E450FE4F8083ED
:1012B000BDCF85EC8093BC0010921E0280911C0271
:1012C000803230F4E0911C02F0E0E450FE4F1082D6
:1012D00060911C0270E0E091FA01F091FB018CEF4B
:1012E00091E0099510921C0236C084E080931E02A2
:1012F0001092F9011092F801E091F601F091F701D6
:1013000009958091F801811105C081E08093F80171
:101310001092D601E091F90181E08E0F8093F901DE
:10132000F0E0EA52FE4F80818093BB009091F9017A
:101330008091F801981708F479CF85E88093BC0074
:101340000AC085EC8093BC0010921E0204C010926B
:101350001D020E948F07FF91EF91BF91AF919F9166
:101360008F917F916F915F914F913F912F910F904E
:101370000FBE0F901F901895AF92BF92CF92DF9241
:10138000EF92FF920F931F93CF93DF9300D000D083
:10139000CDB7DEB78C015B01BA01550F880B990BF5
:1013A0000E94C3292BED3FE049E450E40E94222A29
:1013B00020E030E044E353E40E942C2C0E94472DAF
:1013C0009B01AC01B801110F880B990B29833A835B
:1013D0004B835C830E94C3296B017C01B501BB0C6C
:1013E000880B990B0E94C32929813A814B815C812A
:1013F0000E94222A9B01AC01C701B6010E94492B21
:101400000E949E2CCB010F900F900F900F90DF91B8
:10141000CF911F910F91FF90EF90DF90CF90BF90F1
:10142000AF900895AF92BF92CF92DF92EF92FF926A
:101430000F931F93CF93DF9300D000D0CDB7DEB7CB
:101440008C015B01BA01550F880B990B0E94C329CF
:101450002BED3FE049E450E40E94222A20E030E0F6
:1014600044E353E40E942C2C0E94272C9B01AC01E6
:10147000B801110F880B990B29833A834B835C8346
:101480000E94C3296B017C01B501BB0C880B990B31
:101490000E94C32929813A814B815C810E94222AC2
:1014A0009B01AC01C701B6010E94492B0E949E2CF2
:1014B000CB010F900F900F900F90DF91CF911F9164
:1014C0000F91FF90EF90DF90CF90BF90AF90089575
:1014D0004F925F926F927F928F929F92AF92BF9244
:1014E000CF92DF92EF92FF920F931F93CF93DF93F0
:1014F00000D000D000D0CDB7DEB73C0120917605FA
:1015000030917705C901859797FD03969595879545
:10151000959587959093640280936302109281055C
:101520001092800510927F0510927E0536E0A32E62
:1015300035E0B32E812C912C4EE0C42ED12C59E0F5
:10154000452E512C20916302309164026814790475
:1015500029F498E1E92E96ECF92E04C08FEEE82EDE
:101560008BE7F82E04E110E046E050E0B6018EE68D
:1015700095E00E943818B501CE0101960E945E20C8
:1015800021E030E046E050E0B601CE0101960E9435
:101590002908CE0101960E94FA12C6010296909384
:1015A0007B0580937A0550927D0540927C05F5017C
:1015B00044815581608171818EE695E00E943320DF
:1015C0008091860590918705892B49F080917C0553
:1015D00090917D05069790937D0580937C051092F0
:1015E000870510928605FFEF8F1A9F0A84E0881600
:1015F000910469F08091630290916402C80ED91E33
:1016000083E0C80ED11CE6E0AE0EB11C9BCF26963F
:101610000FB6F894DEBF0FBECDBFDF91CF911F9103
:101620000F91FF90EF90DF90CF90BF90AF909F9081
:101630008F907F906F905F904F9008952F923F9280
:101640004F925F926F927F928F929F92AF92BF92D2
:10165000CF92DF92EF92FF920F931F93CF93DF937E
:101660004C016B015A01E90127016090040570905B
:101670000505AC01B501C3010E94120A1C01E090EE
:101680000005F0900105A401B501C7010E94BC0945
:101690005C01A601BE01C3010E94120A4C01A60111
:1016A000BE01C7010E94BC09800F911FA501400F18
:1016B000511F72018C019401B1018EE695E00E94E8
:1016C000E506DF91CF911F910F91FF90EF90DF9092
:1016D000CF90BF90AF909F908F907F906F905F90D2
:1016E0004F903F902F9008952F923F924F925F928C
:1016F0006F927F928F929F92AF92BF92CF92DF9222
:10170000EF92FF920F931F93CF93DF93CDB7DEB786
:10171000A8970FB6F894DEBF0FBECDBF1C8A1B8AF8
:101720001E8A1D8A188E1F8A4AE0CE0101964C013E
:10173000BC0181E090E00E948729F4010190002023
:10174000E9F73197AF0148195909B401CE01439621
:101750000E94BA1282E090E09093CC028093CB0278
:10176000EBE0F1E0F8A3EF8FEF8DF8A161917191BB
:10177000F8A3EF8F072E000C880B990B0E94C3294A
:1017800020E030E048E455E40E942C2C20E030E0DA
:1017900044EB53E40E94222A9B01AC0160E070E01C
:1017A00084EB92E40E94482B2B013C0142E00E9412
:1017B0005C0F65E771E08BED93E00E948D20C30123
:1017C000B2010E949E2C69A37AA38BA39CA338E646
:1017D000C32EDD24D39489A19AA1C81AD90A40E165
:1017E000E42E44E8F42E0DEF1FEF25E530E04CE346
:1017F00050E0B601C6010E941E0B03E010E025E593
:1018000030E04CE350E0B601C6010E941E0BBE0161
:101810006D5E7F4FCE0149960E945E2042E0C3017B
:10182000B2010E945C0F65E771E08BED93E00E94CE
:101830008D20BE01675E7F4FC4010E945E20AD8097
:10184000BE8056E0252E55E0352E61010FEF1FEFCB
:10185000E12CF12CF601848195818A159B0539F4E0
:10186000B401C6010E948A12892B09F48701FFEF97
:10187000EF1AFF0A26E0C20ED11C81E1E816F1043E
:1018800049F7000F111FF801E755FD4FC080D180C7
:10189000C4010E94FA12BE01675E7F4FC4010E941C
:1018A0005E20ED80FE800FEF1FEFA12CB12CF10127
:1018B000848195818E159F0539F4B401C1010E9480
:1018C0008A12892B09F48501FFEFAF1ABF0A26E0BF
:1018D000220E311C81E1A816B10449F7000F111F37
:1018E000F801E957FD4FA080B180C4010E94FA12AF
:1018F000C114D10419F0A114B10431F549A15AA1C0
:1019000065E570E080910405909105050E94120A3A
:101910006C0149A15AA165E570E0809102059091A2
:1019200003050E94BC095C01BE01675E7F4FC401D4
:101930000E945E2022E030E0A501B601C4010E94B1
:101940002908C4010E94FA128091020590910305B2
:10195000B501681B790B072E000C880B990B0E94B0
:10196000C3299B01AC018091040590910505B60146
:10197000681B790B072E000C880B990B2DA33EA337
:101980004FA358A70E94C3292DA13EA14FA158A53E
:101990000E94C82B20EE3EE245E652E40E94222A35
:1019A0000E949E2C9B0177FF02C028593E4FC9011F
:1019B0006DE270E00E947A2D672B19F482EE9FEFA2
:1019C00002C081EF9FEF2501481A590A85EEE82EE3
:1019D0008FEAF82E04E010E02EE130E04EE150E016
:1019E000B201C6010F960E94850E760191E1E90EC3
:1019F000F11CE0916E05F0916F05A2014250510972
:101A00000284F385E02D00E010E024E130E0B7012E
:101A10008EE695E00995E0916E05F0916F05A201C3
:101A2000475E5F4F0284F385E02D24E130E0B7018B
:101A30008EE695E009953201E2E06E0E711CE091B0
:101A40006E05F0916F05B601635F7F4F0084F185ED
:101A5000E02D24E130E0A3018EE695E00995E091C8
:101A60006E05F0916F05B601685D7F4F0084F185CA
:101A7000E02D24E130E0A3018EE695E0099541E0F8
:101A8000B301C7010E94361086010C5D1F4F42E072
:101A9000B301C8010E943610F5E14F0E511C44E01D
:101AA000B201C8010E94361048E0B201C7010E948D
:101AB00036102AE0C20ED11CD0927B05C0927A0566
:101AC0008AE0A80EB11CB0927D05A0927C05109210
:101AD00081051092800510927F0510927E054D8D34
:101AE0005E8D698D7A8D8EE695E00E94332080911F
:101AF000860590918705892B49F080917C0590910E
:101B00007D05069790937D0580937C05109287054F
:101B100010928605CE0149960E94FA12EF8DF8A127
:101B2000E951F14009F020CECE0143960E94FA120D
:101B3000A8960FB6F894DEBF0FBECDBFDF91CF9150
:101B40001F910F91FF90EF90DF90CF90BF90AF90DB
:101B50009F908F907F906F905F904F903F902F90CD
:101B600008952F923F924F925F926F927F928F9241
:101B70009F92AF92BF92CF92DF92EF92FF920F931C
:101B80001F93CF93DF9300D000D000D0CDB7DEB746
:101B90005C014B015E834D83280181E090E03C01B4
:101BA000641A750ACA01919581959109AC01440F97
:101BB000551F5A8349831801CC24C394D12C522F2A
:101BC00051705B8322702C83C60101972D813E8169
:101BD000821793070CF080C077FC0CC08D819E812A
:101BE00001979E838D83E981FA813296FA83E98396
:101BF0006E0E7F1EC601880F991F0196680E791E12
:101C0000FB81FF2379F1E0916E05F0916F052D8145
:101C10003E81220F331F2F5F3F4F240D351D00845F
:101C2000F185E02D8701A4018D819E81481B590B10
:101C3000B6016A0D7B1D8EE695E00995E0916E0573
:101C4000F0916F050084F185E02D91012D5F3F4FEC
:101C5000A4014C195D096D817E816A0D7B1D8EE6A4
:101C600095E009959C81992381F1E0916E05F091B1
:101C70006F052D813E81220F331F2F5F3F4F240DB3
:101C8000351D0084F185E02D8701A4018D819E81A1
:101C9000481B590BB5016C197D098EE695E0099535
:101CA000E0916E05F0916F050084F185E02D9101C2
:101CB0002D5F3F4FA4014C195D09B5018D819E81B7
:101CC000681B790B8EE695E009959FEFC91AD90A32
:101CD000E2E02E0E311C78CF26960FB6F894DEBFC8
:101CE0000FBECDBFDF91CF911F910F91FF90EF906D
:101CF000DF90CF90BF90AF909F908F907F906F902C
:101D00005F904F903F902F9008952F923F924F9267
:101D10005F926F927F928F929F92AF92BF92CF927B
:101D2000DF92EF92FF920F931F93CF93DF9300D038
:101D300000D0CDB7DEB73C015B012A013C832B8389
:101D4000680188279927801B910B9C01220F331F64
:101D50003A8329831301200E311EE0916E05F09124
:101D60006F05240F351F0684F785E02D0B811C813C
:101D7000AB01B1018EE695E009952B813C8189810B
:101D80009A81280F391FD9011197BA83A983AC0C06
:101D9000BD1C640C751CC3018C199D098D0121E0CB
:101DA000A601B50101970E94B10D09811A8122E0B7
:101DB000A601B501C1010E94B10D0F900F900F90C7
:101DC0000F90DF91CF911F910F91FF90EF90DF90D7
:101DD000CF90BF90AF909F908F907F906F905F90CB
:101DE0004F903F902F900895AF92BF92CF92DF9285
:101DF000EF92FF920F931F93CF93DF936C015B01E0
:101E0000EA017901E0916E05F0916F059A01220FC8
:101E1000331F2F5F3F4FAB014C1B5D0B0084F185DF
:101E2000E02D8701B6018EE695E0099500E010E00F
:101E300023E0AE01B501C6010E94B10DDF91CF9143
:101E40001F910F91FF90EF90DF90CF90BF90AF90D8
:101E50000895EF92FF920F931F93CF93DF93EC01BE
:101E60007B01AC0161E370E0809104059091050570
:101E70000E94120A8C01AE0161E370E080910005BE
:101E8000909101050E94BC09970142E050E0BC011D
:101E9000C801DF91CF911F910F91FF90EF900C94AB
:101EA000F40EE091DB03F091DC030190F081E02D72
:101EB000682F8BED93E009944F925F926F927F921F
:101EC0008F929F92AF92BF92CF92DF92EF92FF924A
:101ED0006B017C01B42E9B01AC010E94532D882321
:101EE00019F064EC71E027C026013701E89477F817
:101EF0002FEF3FEF4FE75FE7C301B2010E94532D81
:101F000081110DC02FEF3FEF4FE75FE7C301B20133
:101F10000E94BC2918161CF468EC71E00CC02FEF6D
:101F20003FEF4FE75FE4C701B6010E943A2D181654
:101F300094F46CEC71E08BED93E0FF90EF90DF9008
:101F4000CF90BF90AF909F908F907F906F905F9059
:101F50004F900C948D202FEF3FEF4FE75FECC701C0
:101F6000B6010E94BC2987FDE4CF20E030E0A90142
:101F7000C701B6010E94BC2987FF09C08DE20E94FB
:101F8000510F4C01F7FAF094F7F8F09402C0812C4D
:101F9000912CA12C60E070E080E09FE3AB1441F055
:101FA00020E030E040E251E40E942C2CA394F6CFD4
:101FB0009B01AC01C701B6010E94492B2B013C01DA
:101FC0000E94A52C6B017C010E94C1299B01AC01E0
:101FD000C301B2010E94482B2B013C012AE0B7014A
:101FE000A6018BED93E00E94A2207C01E80CF91C75
:101FF000BB2029F08EE20E94510FE80EF91EDB2C67
:10200000DD2031F120E030E040E251E4C301B201D3
:102010000E94222A2B013C010E94A52C4B01A12CDD
:10202000B12C2AE0B501A4018BED93E00E94A2201F
:10203000E80EF91EC501B4010E94C1299B01AC0143
:10204000C301B2010E94482B2B013C01DA94D8CF86
:10205000C701FF90EF90DF90CF90BF90AF909F901F
:102060008F907F906F905F904F9008952F923F9246
:102070004F925F926F927F928F929F92AF92BF9298
:10208000CF92DF92EF92FF920F931F93CF93DF9344
:102090007C016B0166246394712C00E010E0C4E0C5
:1020A000D0E098EF892E99249A942DEFA22EBB248C
:1020B000BA94842F8470582E842F8270482E842FD7
:1020C0008870382E4170242E0F5F1F4F82E0680EFB
:1020D000711CA60CB71C552021F1E0916E05F09102
:1020E0006F050480F581E02D20E030E0A6014C0F63
:1020F0005D1FB701600F711F8EE695E00995E091B5
:102100006E05F0916F050480F581E02D20E030E050
:10211000A601400F511FB7016C0F7D1F8EE695E0A1
:102120000995442021F1E0916E05F0916F0504803E
:10213000F581E02D20E030E0A6014C1B5D0BB701DE
:10214000600F711F8EE695E00995E0916E05F091A4
:102150006F050480F581E02D20E030E0A601401BF2
:10216000510BB7016C0F7D1F8EE695E0099533206A
:1021700021F1E0916E05F0916F050480F581E02D6D
:1021800020E030E0A601400F511FB7016C1B7D0B12
:102190008EE695E00995E0916E05F0916F0504805B
:1021A000F581E02D20E030E0A6014C0F5D1FB70166
:1021B000601B710B8EE695E00995222021F1E091DC
:1021C0006E05F0916F050480F581E02D20E030E090
:1021D000A601401B510BB7016C1B7D0B8EE695E0F1
:1021E0000995E0916E05F0916F050480F581E02D71
:1021F00020E030E0A6014C1B5D0BB701601B710BAA
:102200008EE695E009950C171D074CF4B7FC5CCFE2
:10221000219782E0880E911CA80CB91C55CFDF9144
:10222000CF911F910F91FF90EF90DF90CF90BF90D3
:10223000AF909F908F907F906F905F904F903F9066
:102240002F9008950F931F93CF93DF938370809304
:10225000830520917205309173054091740550916A
:102260007505813059F0833049F03093770520931C
:102270007605509379054093780508C0509377050B
:10228000409376053093790520937805E091890590
:10229000F0918A05908180919505892380838091B2
:1022A0008805811129C0E0918305E150E33040F4B5
:1022B000F0E0EE0FFF1FE45EFE4F4081518102C04F
:1022C00040E350E163E070E08EE695E00E94131574
:1022D000009178051091790501501109209176053A
:1022E000309177052150310940E050E060E070E026
:1022F0008EE695E00E94DD15809188058130A1F47D
:10230000E0918305E150E33028F4F0E0E75EFE4F12
:10231000408101C040E066E18EE695E00E947D15B7
:102320008EE695E00E94B91580918805823051F5BE
:1023300080918305813059F040F0823021F0833064
:1023400039F4D8E205C0D8E403C0D8E801C0D8EE1B
:102350004D2F66E38EE695E00E947D15009178058D
:10236000109179050150110920917605309177057A
:102370002150310940E050E060E070E08EE695E0E9
:102380000E94DD1580918805833051F58091830589
:10239000813059F040F0823021F0833039F4C0E6CA
:1023A00005C0C0E003C0C0EC01C0C0EA4C2F66E32A
:1023B0008EE695E00E947D150091780510917905D3
:1023C000015011092091760530917705215031098E
:1023D00040E050E060E070E08EE695E00E94DD15A0
:1023E000DF91CF911F910F910895E0918905F091B0
:1023F0008A05908180919105892B8083E0918D05DC
:10240000F0918E05908180919305892B8083E091D6
:102410008F05F0919005908180919405892B8083A0
:1024200080919905882371F060E00E946C1C62E045
:1024300070E080E090E00E94141D61E080919905B9
:102440000E946C1CE0918905F0918A059081809131
:10245000950589238083E0918B05F0918C0590810F
:1024600080919605892380838BB183708BB985B168
:102470008C7F85B9E0918D05F0918E0590818091DA
:10248000970589238083E0918D05F0918E059081D9
:1024900080919305892B808383E0E0918D05F091F5
:1024A0008E0520819091970592239083E0918D0570
:1024B000F0918E05208190919305922B908381500D
:1024C00061F7E0918905F0918A05908180919105ED
:1024D000892B808308958091F70287FF0CC080913B
:1024E000E30290E09C0146E0220F331F4A95E1F79A
:1024F000822B932B089585FF09C08091EB0290E019
:10250000982F88272091EC02822B08958091DB027E
:1025100090E00895CF93DF93DC01ED91FC91EB0106
:10252000A881B981309711F01097C9F4109759F02C
:10253000EB012C813D81232B31F08C9190E0919522
:102540008195910914C0309781F0DC0114968D912A
:102550009C911597892B49F0808190E008C0BD01BE
:10256000CF01DF91CF910C94BC2F80E090E0DF9100
:10257000CF910895EF92FF920F931F93CF93DF9324
:10258000EC017B018A0188819981009729F02A81D9
:102590003B8124173507F8F4B8016F5F7F4F0E9425
:1025A000E42E009759F0998388831B830A832C813A
:1025B0003D81232B81F4FC0110820DC0888199811B
:1025C000009711F00E944C2E198218821D821C82E5
:1025D0001B821A8207C01D830C83B70188819981F1
:1025E0000E94C52FCE01DF91CF911F910F91FF90D7
:1025F000EF900895FC01808191810C944C2EAF9254
:10260000BF92CF92DF92EF92FF920F931F93CF93DF
:10261000DF93FC01A38DB48D9C9187A189238C93BA
:10262000A58DB68D9C9180A589238C93828D823057
:10263000B9F0811113C08BB183708BB985B18C7FD8
:1026400085B9A78DB0A19C9181A589238C93A78D75
:10265000B0A19C9185A1892B8C9309C0833039F45A
:102660008BB183708C628BB985B18C7F07C08BB1C5
:10267000837080628BB985B18C7F826085B9A78DAC
:10268000B0A19C9181A589238C93A78DB0A19C9129
:1026900085A1892B8C93A58DB68D9C9184A1892BC6
:1026A0008C938BB1972F9C7FB92E8370892B8BB91C
:1026B00085B1A72FA370AA2E8C7F8A2B85B9C78DD1
:1026C000D0A1988181A589238883C78DD0A19881C5
:1026D00085A1892B88838BB1C62FCC7F83708C2BEF
:1026E0008BB985B1D62FD3708C7F8D2B85B9078D93
:1026F00010A1D8019C9181A589238C93078D10A1ED
:10270000D8019C9185A1892B8C93215031094109D5
:10271000510969017A0186E0F694E794D794C79449
:102720008A95D1F7C601761348C1019708F465C0B0
:1027300060E1A78DB0A1CC9171A57C237C93A78D7E
:10274000B0A1CC9175A17C2B7C93A78DB0A1CC912D
:1027500071A57C237C93A78DB0A1CC9175A17C2B16
:102760007C93A78DB0A1CC9171A57C237C93A78D80
:10277000B0A1CC9175A17C2B7C93A78DB0A1CC91FD
:1027800071A57C237C93A78DB0A1CC9175A17C2BE6
:102790007C93A78DB0A1CC9171A57C237C93A78D50
:1027A000B0A1CC9175A17C2B7C93A78DB0A1CC91CD
:1027B00071A57C237C93A78DB0A1CC9175A17C2BB6
:1027C0007C93A78DB0A1CC9171A57C237C93A78D20
:1027D000B0A1CC9175A17C2B7C93A78DB0A1CC919D
:1027E00071A57C237C93A78DB0A1CC9175A17C2B86
:1027F0007C93615009F09DCF98CF2F732150C8F082
:10280000A78DB0A19C9181A589238C93A78DB0A1A0
:102810009C9185A1892B8C93A78DB0A19C9181A5BA
:1028200089238C93A78DB0A19C9185A1892B8C9332
:10283000E5CFA38DB48D9C9183A1892B8C93DF91DF
:10284000CF911F910F91FF90EF90DF90CF90BF90AD
:10285000AF9008956BB163706B296BB965B16C7FF4
:102860006A2965B9078D10A1D801FC9061A56F2177
:102870006C93078D10A1D801FC9065A16F296C9312
:102880006BB163706C2B6BB965B16C7F6D2B65B9E7
:10289000078D10A1D801FC9061A56F216C93078D65
:1028A00010A1D801FC9065A16F296C936BB1637086
:1028B0006B296BB965B16C7F6A2965B9078D10A169
:1028C000D801FC9061A56F216C93078D10A1D801F0
:1028D000FC9065A16F296C936BB163706C2B6BB925
:1028E00065B16C7F6D2B65B9078D10A1D801FC9087
:1028F00061A56F216C93078D10A1D801FC9065A193
:102900006F296C936BB163706B296BB965B16C7F88
:102910006A2965B9078D10A1D801FC9061A56F21C6
:102920006C93078D10A1D801FC9065A16F296C9361
:102930006BB163706C2B6BB965B16C7F6D2B65B936
:10294000078D10A1D801FC9061A56F216C93078DB4
:1029500010A1D801FC9065A16F296C936BB16370D5
:102960006B296BB965B16C7F6A2965B9078D10A1B8
:10297000D801FC9061A56F216C93078D10A1D8013F
:10298000FC9065A16F296C936BB163706C2B6BB974
:1029900065B16C7F6D2B65B9078D10A1D801FC90D6
:1029A00061A56F216C93078D10A1D801FC9065A1E2
:1029B0006F296C93715009F04DCF019710F070E1C1
:1029C00049CF2F73215008F434CF8BB183708B29FA
:1029D0008BB985B18C7F8A2985B9478D50A1DA01E1
:1029E0009C9181A589238C93478D50A1DA019C91FC
:1029F00085A1892B8C938BB183708C2B8BB985B17E
:102A00008C7F8D2B85B9478D50A1DA019C9181A5D2
:102A100089238C93478D50A1DA019C9185A1892B44
:102A20008C93D0CF0895FC01A58DB68D9C9180A587
:102A300089238C938BB1972F9C7F8370892B8BB9C3
:102A400085B173708C7F782B75B9A78DB0A19C91DF
:102A500081A589238C93A78DB0A19C9185A1892BF9
:102A60008C938BB1962F9C7F8370892B8BB985B10A
:102A700063708C7F682B65B9A78DB0A19C9181A5EF
:102A800089238C93A78DB0A19C9185A1892B8C93D0
:102A9000A58DB68D9C9184A1892B8C938BB1952F9C
:102AA0009C7F8370892B8BB985B153708C7F582B99
:102AB00055B9A78DB0A19C9181A589238C93A78D31
:102AC000B0A19C9185A1892B8C938BB1942F9C7F75
:102AD0008370892B8BB985B143708C7F482B45B9A6
:102AE000A78DB0A19C9181A589238C93A78DB0A1BE
:102AF0009C9185A1892B8C930895FC01A58DB68DA1
:102B00009C9180A589238C938BB1962F9C7F837099
:102B1000892B8BB985B163708C7F682B65B9A78DC4
:102B2000B0A19C9181A589238C93A78DB0A19C9184
:102B300085A1892B8C93A58DB68D9C9184A1892B21
:102B40008C938BB1942F9C7F8370892B8BB985B12B
:102B500043708C7F482B45B9A78DB0A19C9181A56E
:102B600089238C93A78DB0A19C9185A1892B8C93EF
:102B70000895CF93DF93EC01EB8DFC8D90818FA1B5
:102B800089238083288539852150310945E064E017
:102B9000CE010E94BD1F2A853B852150310949E0A5
:102BA00068E0CE010E94BD1FEB8DFC8D90818BA152
:102BB000892B8083DF91CF9108958F929F92AF925E
:102BC000BF92CF92DF92EF92FF920F931F93CF931A
:102BD000DF93EC017A016901EB8DFC8D30812FA12F
:102BE000232320832A8D21115EC02D89223089F074
:102BF000233021F1213081F52FEE30E0A901401B77
:102C0000510B5B0149018E189F08860164017B010D
:102C100013C02FEE30E0A9014C195D096901C61AF5
:102C2000D70A8FE391E09C01201B310B8C010E1918
:102C30001F09580146017901BA0110C02FE331E0A4
:102C4000A9014C195D095901A61AB70A4701680183
:102C50008501B7017A0102C05A014B01AB0160E561
:102C600070E0CE010E941315A60161E570E0CE016F
:102C70000E941315A70162E570E0CE010E941315B2
:102C8000A80163E570E0CE010E941315A40160E283
:102C900070E0CE010E941315A50161E270E0CE0143
:102CA0000E94131547C02130C1F49B0143E062E04C
:102CB0000E94BD1F970147E066E0CE010E94BD1F44
:102CC000960145E064E0CE010E94BD1F980149E0F5
:102CD00068E0CE010E94BD1F2DC02250223050F569
:102CE000CB01770FAA0BBB0BDC0199278827A60124
:102CF000DD0C660B770B9A01AB01282B392B4A2B85
:102D00005B2B6AE2CE010E940D1FC701FF0CAA0BCC
:102D1000BB0BDC0199278827A801110F660B770BE5
:102D20009A01AB01282B392B4A2B5B2B6BE2CE018E
:102D30000E940D1FEB8DFC8D90818BA1892B8083D0
:102D4000DF91CF911F910F91FF90EF90DF90CF9087
:102D5000BF90AF909F908F900895AF92BF92CF9207
:102D6000DF92EF92FF920F931F93CF93DF93EC01CB
:102D70007B016A01B22EA32E77FD1BC157FD19C13D
:102D800088859985681779070CF013C18A859B851A
:102D9000481759070CF00DC1EB8DFC8D90818FA168
:102DA000892380838A8D811135C08D89823059F0C5
:102DB0008330B1F08130D1F48FEE90E0841B950B1D
:102DC0006B017C0113C08FEE90E09C01261B370B3A
:102DD00079018FE391E09C01241B350B690106C04A
:102DE0008FE391E0861B970B7A016C01A70160E2EB
:102DF00070E0CE010E941315A60161E270E0CE01E1
:102E00000E9413154B2D5A2D62E270E0CE010E94F4
:102E10001315C9C0813009F060C0ED89E150E3307D
:102E200028F4F0E0ED59FE4F408101C040E066E13A
:102E3000CE010E947D15970143E062E0CE010E9421
:102E4000BD1F960147E066E0CE010E94BD1FED8DDB
:102E5000FE8D908188A5892380838BB183708062E9
:102E60008BB985B18C7F826085B9EF8DF8A1908197
:102E700089A589238083EF8DF8A190818DA1892B6D
:102E80008083ED8DFE8D90818CA1892B80838BB109
:102E90009A2D9C7F8370892B8BB985B19A2D937065
:102EA0008C7FA92EA82AA5B8EF8DF8A1908189A5BD
:102EB00089238083EF8DF8A190818DA1892B808358
:102EC0008BB19B2D9C7F8370892B8BB985B19B2DFA
:102ED00093708C7FB92EB82A59C08250823008F086
:102EE00062C00A851B85015011092885398521504A
:102EF0003109CE010E94DD15EB8DFC8D90818FA1F3
:102F000089238083ED8DFE8D908188A58923808320
:102F10008BB183708C628BB985B18C7F85B9EF8D55
:102F2000F8A1908189A589238083EF8DF8A19081F4
:102F30008DA1892B8083ED8DFE8D90818CA1892BB5
:102F400080838BB19A2D9C7F8370892B8BB995B12F
:102F50008A2D83709C7FA82EA92AA5B8EF8DF8A191
:102F6000908189A589238083EF8DF8A190818DA11F
:102F7000892B80838BB19B2D9C7F8370892B8BB990
:102F800095B18B2D83709C7FB82EB92AB5B8EF8D83
:102F9000F8A1908189A589238083EF8DF8A1908184
:102FA0008DA1892B8083EB8DFC8D90818BA1892B4A
:102FB0008083DF91CF911F910F91FF90EF90DF9071
:102FC000CF90BF90AF900895EF92FF920F931F9311
:102FD000CF93DF93EC017B018A8D811129C02D896C
:102FE0002150233078F430E0F901E05AFE4F80811F
:102FF000482F50E0220F331FF901E65AFE4F00819F
:10300000118104C000E010E040E050E0EB8DFC8D49
:1030100030812FA12323208360E270E0CE010E9443
:103020001315A80161E270E0CE010E94131512C0D1
:103030008150833078F40A851B8501501109288559
:1030400039852150310940E050E060E070E0CE0168
:103050000E94DD1520E03CE241E050E0B701CE01E6
:10306000DF91CF911F910F91FF90EF900C94FF1281
:103070008F929F92AF92BF92CF92DF92EF92FF9288
:103080000F931F93CF93DF93EC01470112161306A2
:103090000CF06BC0101611060CF067C0A885B9853E
:1030A0006A177B070CF061C0CA84DB844C155D0590
:1030B0000CF05BC05B01A20EB31EC501019797FD2A
:1030C00054C07A01E00EF11EF7013197F7FD4DC0B3
:1030D00077FF49C060E070E057FD02C0780102C090
:1030E00040E050E08A179B072CF0CD0101975D016D
:1030F000A61AB70AEC15FD052CF0F60131977601FA
:10310000E41AF50A8F019C01CE010E94DD1597019A
:10311000D5010E948E2D9B01AC01B401CE010E940D
:10312000FF128A8D811110C00A851B85015011097B
:10313000288539852150310940E050E060E070E099
:10314000CE010E94DD1511C0CE01DF91CF911F91FC
:103150000F91FF90EF90DF90CF90BF90AF909F9036
:103160008F900C94B9155901B7CFDF91CF911F9172
:103170000F91FF90EF90DF90CF90BF90AF909F9016
:103180008F900895CF92DF92EF92FF920F931F934B
:10319000CF93DF93EC016801121613060CF04FC0B9
:1031A00077FD4DC088859985681779070CF047C071
:1031B000EA85FB854E175F070CF041C07A01E20EED
:1031C000F31E87010150110917FD39C057FF35C0A3
:1031D00040E050E00E171F0734F08F010150110935
:1031E0007F01E41AF50A9B01CE010E94DD159701CB
:1031F000FF0C440B550BB601CE010E94FF128A8DC5
:10320000811110C00A851B85015011092885398557
:103210002150310940E050E060E070E0CE010E94B2
:10322000DD150DC0CE01DF91CF911F910F91FF9061
:10323000EF90DF90CF900C94B9157901CBCFDF914F
:10324000CF911F910F91FF90EF90DF90CF90089555
:10325000CF92DF92EF92FF920F931F93CF93DF9362
:10326000EC016801121613060CF04EC057FD4CC05D
:103270008A859B85481759070CF046C0E885F98573
:103280006E177F070CF040C07B01E20EF31EC701F2
:10329000019797FD39C077FF35C060E070E08E1769
:1032A0009F072CF0CF0101977F01E61AF70A8A01E8
:1032B0009C01CE010E94DD159701FF0C440B550BBC
:1032C000B601CE010E94FF128A8D811110C00A85BD
:1032D0001B8501501109288539852150310940E0AD
:1032E00050E060E070E0CE010E94DD150DC0CE011F
:1032F000DF91CF911F910F91FF90EF90DF90CF90D2
:103300000C94B9157901CBCFDF91CF911F910F911B
:10331000FF90EF90DF90CF900895FC01918D828D0A
:10332000981761F0828DDF01A80FB11D5D968C9119
:10333000928D9F5F9F73928F90E008958FEF9FEF24
:103340000895FC01918D828D981731F0828DE80FE0
:10335000F11D858D90E008958FEF9FEF0895FC019A
:10336000918D228D892F90E0805C9F4F821B910967
:103370008F73992708958BED93E00E94AF1921E098
:10338000892B09F420E0822F0895FC01848DDF0150
:10339000A80FB11DA35ABF4F2C91848D90E00196C8
:1033A0008F739927848FA689B7892C93A089B189B7
:1033B0008C9180648C93938D848D981306C00288C1
:1033C000F389E02D80818F7D80830895EF92FF92B5
:1033D0000F931F93CF93DF93EC0181E0888F9B8D38
:1033E0008C8D981305C0E889F989808185FD24C0FA
:1033F000F62E0B8D10E00F5F1F4F0F731127E02E7D
:103400008C8DE8120CC00FB607FCFACFE889F98959
:10341000808185FFF5CFCE010E94C519F1CF8B8D3C
:10342000FE01E80FF11DE35AFF4FF0820B8FEA898E
:10343000FB898081806207C0EE89FF896083E8890B
:10344000F98980818064808381E090E0DF91CF9171
:103450001F910F91FF90EF900895CF93DF93EC01B0
:10346000888D8823C9F0EA89FB89808185FD05C0A4
:10347000A889B9898C9186FD0FC00FB607FCF5CFDE
:10348000808185FFF2CFA889B9898C9185FFEDCF26
:10349000CE010E94C519E7CFDF91CF91089580E05A
:1034A00090E0892B29F00E94BB1981110C94000037
:1034B0000895089508951092D00580915E02833694
:1034C000B8F54091CC055091CD056091CE05709135
:1034D000CF054093C8055093C9056093CA05709302
:1034E000CB05843081F058F4833011F54093C40546
:1034F0005093C5056093C6057093C70519C08650E3
:10350000833050F015C04093C0055093C1056093BF
:10351000C2057093C3050CC08091BF05882341F09C
:103520004093BB055093BC056093BD057093BE05E9
:103530001092BA051092B9051092B8051092B7050D
:103540001092B6051092B5051092B40580E88093EC
:10355000B305F8948091B205882379F02091570241
:103560003091580291E080E04091B0055091B10552
:103570004217530721F090E002C090E080E0909362
:10358000AE058093AF051092580210925702109228
:10359000B1051092B00578941092B20585ED9AE1CC
:1035A0009093C1048093C0040895F89480915702C9
:1035B000909158022091B0053091B1058217930780
:1035C00011F4789408958091570290915802821BCB
:1035D000930B029748F078948BE59AE19093C1049D
:1035E0008093C00487E625C02091590230915A0289
:1035F00080915B0290915C02409157025091580279
:103600005093B1054093B0057894B90164537109A2
:1036100041E06D30710580F040E02A553109273BCB
:10362000364250F08BE59AE19093C1048093C00438
:1036300088E680935E0208959C01245331092D3061
:10364000310530F08A559109873B964268F0EACF00
:10365000442361F08091AE059091AF05019690935F
:10366000AF058093AE050895442391F0F8948091BE
:103670005B0290915C0290935A028093590281E020
:1036800080935D0278941092AF051092AE05089574
:103690008091AE059091AF050A97ACF385E59BE16B
:1036A0009093C1048093C0040895F89480915702C8
:1036B000909158022091B0053091B105821793077F
:1036C00011F4789408958091570290915802821BCA
:1036D000930B029748F078948BE59AE19093C1049C
:1036E0008093C00487E672C04091590250915A02FB
:1036F00020915B0230915C028091570290915802B8
:103700009093B1058093B0057894BA016453710920
:1037100091E06D30710570F090E04A555109473BDA
:10372000564240F08BE59AE19093C1048093C00427
:1037300088E64CC081E0A901445351094D30510540
:1037400030F080E02A553109273B364258F798136C
:10375000E9CF8091B305882381F0992341F0E0916E
:10376000B405F0E0EB54FA4F9081982B908390E0F1
:10377000959587958093B30508958091B40521E0D0
:10378000280F2093B40530E83093B3059923A9F0AE
:1037900091E09093B2058250843038F486E89DE140
:1037A0009093C1048093C00408958BE59AE19093AF
:1037B000C1048093C00489E609C0263048F08BE537
:1037C0009AE19093C1048093C0048AE680935E02DC
:1037D00008950E94AE2F1F920F920FB60F921124E0
:1037E0002F933F934F935F936F937F938F939F9309
:1037F000AF93BF93EF93FF938BED93E00E94C519B6
:10380000FF91EF91BF91AF919F918F917F916F91B8
:103810005F914F913F912F910F900FBE0F901F908E
:1038200018951F920F920FB60F9211242F938F931A
:103830009F93EF93FF93E091EB03F091EC03808172
:10384000E091F103F091F20382FD12C0908180912A
:10385000F4038F5F8F732091F503821751F0E0918D
:10386000F403F0E0E552FC4F958F8093F40301C020
:103870008081FF91EF919F918F912F910F900FBEBB
:103880000F901F901895833081F028F4813099F0C3
:103890008230A1F008958730A9F08830B9F08430E3
:1038A000D1F4809180008F7D03C0809180008F775C
:1038B00080938000089584B58F7702C084B58F7D92
:1038C00084BD08958091B0008F7703C08091B000CF
:1038D0008F7D8093B00008951F93CF93DF93282F9F
:1038E00030E0F901E657F94F8491F901E256F94FBA
:1038F000D491F901E454F94FC491CC23C9F0162FA7
:1039000081110E94431CEC2FF0E0EE0FFF1FEE54DC
:10391000F94FA591B4918FB7F894111105C09C91FE
:10392000ED2FE095E92302C0EC91ED2BEC938FBFD6
:10393000DF91CF911F910895CF93DF9390E0FC0129
:10394000E256F94F2491FC01E454F94F8491882305
:1039500061F190E0880F991FFC01E053F94FC59188
:10396000D491FC01EE54F94FA591B491611109C0B5
:103970009FB7F8948881209582238883EC912E2329
:103980000BC0623061F49FB7F8943881822F809524
:1039900083238883EC912E2B2C939FBF06C08FB777
:1039A000F894E8812E2B28838FBFDF91CF91089563
:1039B0008E3008F08E508770806480937C008091F8
:1039C0007A00806480937A0080917A0086FDFCCF33
:1039D000809178002091790090E0922B08953FB774
:1039E000F8948091D6059091D705A091D805B09113
:1039F000D90526B5A89B05C02F3F19F00196A11D3A
:103A0000B11D3FBFBA2FA92F982F8827820F911D74
:103A1000A11DB11DBC01CD0142E0660F771F881FBB
:103A2000991F4A95D1F708958F929F92AF92BF92B6
:103A3000CF92DF92EF92FF926B017C010E94EF1C0C
:103A40004B015C01C114D104E104F104F1F00E94C6
:103A5000EF1CDC01CB0188199909AA09BB09883E32
:103A60009340A105B10570F321E0C21AD108E10825
:103A7000F10888EE880E83E0981EA11CB11CC114C9
:103A8000D104E104F10419F7DDCFFF90EF90DF904E
:103A9000CF90BF90AF909F908F9008950E94EF1CA1
:103AA000A0915D024A2F50E020915F0230916002A8
:103AB000FB01E21BF30B9F01FA01EE0FFF1FE75A18
:103AC000FD4F3183208360935F0270936002809387
:103AD0006102909362022091570230915802240FA4
:103AE000351F309358022093570281E08A27809334
:103AF0005D0208952FB7F8946091D2057091D305B7
:103B00008091D4059091D5052FBF08951F93CF9331
:103B1000DF939091B6058091B5058927C091B405D2
:103B2000C43068F09091B7058927C43041F0909176
:103B3000B8058927C53019F09091B9058927EC2F70
:103B4000F0E0EC54FA4F9081891741F08BE59AE14F
:103B50009093C1048093C00484E6B8C00E947A1D8B
:103B60006093CC057093CD058093CE059093CF05DF
:103B70001092BF05C33009F07DC01091B605809149
:103B8000B505111115C08F3F49F48BE59AE190936B
:103B9000C1048093C004C0935E02A3C0811108C019
:103BA0008BE59AE19093C1048093C00484E08EC0B9
:103BB000982F907C9038D1F517FF38C0C12FD0E0F6
:103BC000C095D095C077DD27CC0FDD1FCC0FDD1F52
:103BD0008F73C80FD11D0E946B1221E0C817D9073F
:103BE00009F020E02093BF05211107C0CF33D10594
:103BF00021F080914602882389F08091D0058111BF
:103C00000DC0E0914702F0914802309739F0412F02
:103C1000477013FB662760F9CE0109958BE59AE1A1
:103C20009093C1048093C00487E050C087FF08C010
:103C30008BE59AE19093C1048093C00485E646C069
:103C4000107C103441F08BE59AE19093C10480938D
:103C5000C00486E63BC091E02091DB02821390E035
:103C60009093BF058BE59AE19093C1048093C004C3
:103C700086E02CC0C43069F59091B505892F807C11
:103C8000803839F58091B605282F2578213009F53F
:103C9000C82FC670D0E0DC2FCC27807724E0829F2D
:103CA000C00DD11D11249F73C90FD11D0E946B122D
:103CB00021E0C817D90709F020E02093BF058BE564
:103CC0009AE19093C1048093C00488E080935E02DF
:103CD00008C08BE59AE19093C1048093C0041092D0
:103CE0005E02DF91CF911F9108951F920F920FB640
:103CF0000F9211242F933F938F939F93AF93BF9372
:103D00008091D2059091D305A091D405B091D505AD
:103D10003091D10523E0230F2D3720F40196A11D0A
:103D2000B11D05C026E8230F0296A11DB11D2093E9
:103D3000D1058093D2059093D305A093D405B09379
:103D4000D5058091D6059091D705A091D805B09161
:103D5000D9050196A11DB11D8093D6059093D70575
:103D6000A093D805B093D905BF91AF919F918F9142
:103D70003F912F910F900FBE0F901F9018951F929B
:103D80000F920FB60F9211242F933F934F935F938F
:103D90006F937F938F939F93AF93BF93EF93FF9313
:103DA000E0910301F09104010995FF91EF91BF911A
:103DB000AF919F918F917F916F915F914F913F91C3
:103DC0002F910F900FBE0F901F9018951F920F927A
:103DD0000FB60F9211242F933F934F935F936F93DE
:103DE0007F938F939F93AF93BF93EF93FF93E09154
:103DF0000101F09102010995FF91EF91BF91AF91FF
:103E00009F918F917F916F915F914F913F912F91F2
:103E10000F900FBE0F901F901895CF92DF92EF92E8
:103E2000FF92FC01A38DB48D9C9187A189238C9373
:103E3000A58DB68D9C9180A589238C938BB1962FEF
:103E40009C7F8370892B8BB985B163708C7F682BC5
:103E500065B9A78DB0A19C9181A589238C93A78D6D
:103E6000B0A19C9185A1892B8C93A58DB68D9C9139
:103E700084A1892B8C9383E290E0DC011197F1F708
:103E80007BB1C52EDD24EE24FF246C2D6C7F737076
:103E9000762B7BB965B17C2D73706C7F672B65B910
:103EA000A78DB0A17C9161A567236C93A78DB0A16C
:103EB0007C9165A1672B6C93DC011197F1F77BB1C5
:103EC0006A01EE24FF246C2D6C7F7370762B7BB916
:103ED00065B17C2D73706C7F672B65B9A78DB0A120
:103EE0007C9161A567236C93A78DB0A17C9165A19E
:103EF000672B6C93DC011197F1F77BB1C32ED42EA5
:103F0000E52EFF246C2D6C7F7370762B7BB965B129
:103F10007C2D73706C7F672B65B9A78DB0A17C91E8
:103F200061A567236C93A78DB0A17C9165A1672BD8
:103F30006C930197F1F78BB1922F9C7F8370892B43
:103F40008BB985B123708C7F282B25B9A78DB0A1A3
:103F50009C9181A589238C93A78DB0A19C9185A16B
:103F6000892B8C93A38DB48D9C9183A1892B8C93E9
:103F7000FF90EF90DF90CF900895FC01A58DB68D56
:103F80009C9180A589238C938BB1962F9C7F837005
:103F9000892B8BB985B163708C7F682B65B9A78D30
:103FA000B0A19C9181A589238C93A78DB0A19C91F0
:103FB00085A1892B8C93A58DB68D9C9184A1892B8D
:103FC0008C938BB1932F9C7F8370892B8BB985B198
:103FD00033708C7F382B35B9A78DB0A19C9181A50A
:103FE00089238C93A78DB0A19C9185A1892B8C935B
:103FF000A58DB68D9C9180A589238C938BB1942F30
:104000009C7F8370892B8BB985B143708C7F482B43
:1040100045B9A78DB0A19C9181A589238C93A78DCB
:10402000B0A19C9185A1892B8C93A58DB68D9C9177
:1040300084A1892B8C938BB1922F9C7F8370892BC9
:104040008BB985B123708C7F282B25B9A78DB0A1A2
:104050009C9181A589238C93A78DB0A19C9185A16A
:10406000892B8C930895CF92DF92EF92FF920F935A
:104070001F93CF93DF936C017A018B01C0E0D0E0F6
:10408000CE15DF0589F0D8016D918D01D601ED9136
:10409000FC910190F081E02DC6010995892B11F466
:1040A0007E0102C02196ECCFC701DF91CF911F9115
:1040B0000F91FF90EF90DF90CF900895FB01DC010E
:1040C00011961C921E9213961C921E921297159690
:1040D0001C921E9214978617970749F06081718190
:1040E0006115710521F0448155810C94BA1208952F
:1040F000FC011182108213821282158214826115D2
:10410000710551F0FB0101900020E9F73197AF01F3
:10411000461B570B0C94BA1208956115710579F07E
:10412000FB0101900020E9F73197AF01461B570BC7
:10413000DC01ED91FC910280F381E02D099480E097
:1041400090E008954F925F926F927F92EF92FF926C
:104150000F931F93CF93DF93CDB7DEB7A1970FB621
:10416000F894DEBF0FBECDBF7C01FA01CB0119A2CE
:10417000223008F42AE08E010F5D1F4F422E512C91
:10418000612C712CBF01A30192010E94E02AF90168
:10419000CA01015011096A3014F4605D01C0695C04
:1041A000D8016C93232B242B252B61F7B801C70171
:1041B0000E948D20A1960FB6F894DEBF0FBECDBF32
:1041C000DF91CF911F910F91FF90EF907F906F90B3
:1041D0005F904F900895CF93DF93CCE6D5E026977C
:1041E000CE010E94FA1285E0C630D807C1F7DF91F0
:1041F000CF910895CF93DF93CDB7DEB72C970FB64D
:10420000F894DEBF0FBECDBF789484B5826084BDC4
:1042100084B5816084BD85B5826085BD85B58160CA
:1042200085BD80916E00816080936E001092810048
:104230008091810082608093810080918100816003
:1042400080938100809180008160809380008091C4
:10425000B10084608093B1008091B0008160809350
:10426000B00080917A00846080937A0080917A0017
:10427000826080937A0080917A00816080937A00D6
:1042800080917A00806880937A001092C100109229
:10429000BC041092BD041092BE041092BF04109290
:1042A0007A0410927B0410927C0410927D0468EBD7
:1042B0007BE080E090E00E94141D8BED93E09093F2
:1042C000BB048093BA04E091EB03F091EC0312E09D
:1042D0001083E091E703F091E8031082E091E90395
:1042E000F091EA0380E180831092F303E091EF0301
:1042F000F091F00386E08083E091ED03F091EE030E
:10430000808180618083E091ED03F091EE038081F4
:1043100088608083E091ED03F091EE0380818068F6
:104320008083E091ED03F091EE0380818F7D8083A7
:104330000E947A1D60937A0470937B0480937C04BE
:1043400090937D0466E671E08091BA049091BB047D
:104350000E948D206AE070E080E090E00E94141DD1
:1043600081E080938E0424EF37E03093480220935D
:1043700047028093460288EC90E090934A02809333
:10438000490289EC90E090934C0280934B028AECB6
:1043900090E090934E0280934D028BEC90E09093CE
:1043A000500280934F028CEC90E0909352028093E5
:1043B00051028DEC90E090935402809353028EEC66
:1043C00090E090935602809355028FEC90E090938A
:1043D00058028093570280915F0290916002A091F1
:1043E0006102B0916202892B8A2B8B2B89F5109286
:1043F000E1021092E20210925D0210925C021092B1
:104400005B0210925A0210925902109258021092B6
:1044100057020E94EF1C60935F02709360028093CA
:104420006102909362028EE49DE190930201809379
:104430000101809169008C7F816080936900E89A16
:104440008BE59AE19093C1048093C00410935E02BF
:104450000E94F5110E94F51168EC70E080E090E098
:104460000E94141D10928805E0918905F0918A053B
:104470009081809195058923808304EB15E0F801F4
:1044800065917491F8013296459154916F3F710591
:1044900031F4BA0180E090E00E94141D04C08EE661
:1044A00095E00E9413150C5F1F4F26E0003812079D
:1044B00031F7809183050E9422110FE311E02FEE66
:1044C00030E040E050E060E070E08EE695E00E9471
:1044D000DD1583E00E94221160E070E08EE695E039
:1044E0000E94E41761E08DE00E949C1C80E090E057
:1044F0000E94680A2091780530917905205231098F
:1045000040917605509177054C50510968E1E62EAF
:1045100066ECF62E03E010E06AE170E086E090E0E1
:104520000E94850E20917805309179052652310937
:10453000409176055091770542515109E12CF12CBB
:104540006DE170E089E090E00E94850E68EB7BE011
:1045500080E090E00E94141D0E947A1D672B682B5A
:10456000692B41F40E947A1D623071058105910525
:1045700008F40EC10E947A1D6093D5027093D60292
:104580008093D7029093D8020091D1021091D20269
:104590002091D3023091D4026017710782079307EC
:1045A00040F46093D1027093D2028093D30290932F
:1045B000D4020091D1021091D2022091D302309105
:1045C000D4026B017C01C01AD10AE20AF30A9701F6
:1045D00086010A3F11052105310508F4D9C0609311
:1045E000D1027093D2028093D3029093D40284EFCD
:1045F00091E0A0E0B0E08093860490938704A093BC
:104600008804B093890410928A0410928B0410924B
:104610008C0410928D0480917E0490917F04A0916F
:104620008004B09181048093820490938304A093CA
:104630008404B09385040E947A1D60937E04709375
:104640007F0480938004909381040E947A1D60937C
:104650007A0470937B0480937C0490937D040E9481
:104660007A1D6B017C0168E771E08091BA0490913A
:10467000BB040E948D202AE041E050E060E070E041
:104680008091BA049091BB040E94A2206FE771E070
:104690008091BA049091BB040E948D202AE0B7015A
:1046A000A6018091BA049091BB040E94A22061E807
:1046B00071E08091BA049091BB040E948D2080919A
:1046C0007E0490917F04A0918004B0918104B70191
:1046D000A601481B590B6A0B7B0B2AE08091BA0498
:1046E0009091BB040E94A22061E871E08091BA041D
:1046F0009091BB040E948D2040917E0450917F04D4
:10470000609180047091810480918204909183046F
:10471000A0918404B0918504481B590B6A0B7B0B54
:104720002AE08091BA049091BB040E94A22063E821
:1047300071E08091BA049091BB040E948D200E9488
:104740007A1DAB01BC012AE08091BA049091BB04B0
:104750000E94A2200091BA041091BB0465E871E0A8
:10476000C8010E948D2065E771E0C8010E948D207C
:1047700065E070E080E090E00E94141D0E947A1DC8
:1047800060937E0470937F048093800490938104EF
:10479000A0919F05B0E0FD01E454F94F0491809190
:1047A0009C05682F70E0FB01E454F94F149140918F
:1047B0009E0550E0FA01E454F94FC49020919D0504
:1047C00030E0F901E454F94FE490FD01E256F94F6D
:1047D0003490FB01E256F94FB490FA01E256F94FDA
:1047E000D490F901E256F94F249060E00E949C1C9D
:1047F00060E080919D050E949C1C812F90E0880FB5
:10480000991F9C012E54394F3E832D83F901A591A8
:10481000B4918C913B2D3095398383238C93F12C6B
:10482000F701EE0FFF1FCF018E54994F7C01FC0161
:10483000A591B4919C91822D809589238C9361E000
:1048400080919F050E949C1C61E080919E050E94C2
:104850009C1C10E0000F111F0E54194FF801A59178
:10486000B4918C9183298C93EC2DF0E0EE0FFF1F17
:10487000EE54F94FA591B491EC91D094DE22DC92E4
:1048800080919C050E94D81C6C0180919C050E941F
:10489000D81C2C0188248A9493E0992E84189508BA
:1048A00060E080919F050E949C1C60E080919E05C5
:1048B0000E949C1CF801A591B4918C9130948321A5
:1048C0008C9361E080919C050E949C1CED81FE818F
:1048D000A591B491EC91BE2ABC9261E080919D05B6
:1048E0000E949C1C80919E050E94D81C3C018091D6
:1048F0009E050E94D81C5C016816790629F477246D
:104900007394C414D50409F0712C61E080919F0563
:104910000E949C1CF801A591B491EC913E223C921E
:10492000F701A591B491EC912E2A2C92ED81FE8194
:10493000A591B4918C91C9808C218C9360E0809179
:104940009C050E949C1C80919E050E94D81C2C01F5
:1049500080919C050E94D81C0091A0051091A10592
:104960000115110509F440C0BC01990F880B990B82
:104970000E94C3296B017C01B201550C880B990B75
:104980000E94C3299B01AC01C701B6010E942C2CD7
:1049900020E030E040E85FE30E94482B6B017C019F
:1049A000B401092C000C880B990B0E94C3299B01B0
:1049B000AC01C701B6010E94222A6B017C01B8013B
:1049C00080E090E00E94C1299B01AC01C701B601C3
:1049D0000E94222A20E030E040E85AE30E94222A86
:1049E0000E949E2C8B0105C0481A590A8201015071
:1049F0001C4F711002C000E010E060E08DE00E94EA
:104A00006C1C61E080E10E949C1C61E081E10E94DD
:104A10009C1CB80163537109653B734008F0F0C1F9
:104A20006401092C000CEE08FF08C986DA86EB86C3
:104A3000FC8625EA821691044CF4C701B6010E9457
:104A4000C32969837A838B839C8324C025E88216DB
:104A500023E09206ACF069857A858B859C850E945F
:104A6000C3296D837E838F839887C12CD12CE5E287
:104A7000EE2EE3E4FE2EC982DA82EB82FC8214C0C1
:104A8000C12CD12C75E2E72E73E4F72EC982DA82AD
:104A9000EB82FC82C12CD12C61E6E62E64E4F62E7A
:104AA000CD82DE82EF82F8868FEF93E08A199B0930
:104AB0002C01092E000C66087708803A91053CF419
:104AC000C301B2010E94C3296B017C0116C08F385B
:104AD00093406CF0C301B2010E94C3294B015C01F9
:104AE000C12CD12C50E2E52E53E4F52E0DC0C12C83
:104AF000D12C40E2E42E43E4F42E812C30E8932EB6
:104B000033E6A32E34E4B32EC301B2010E94C329BD
:104B1000A70196010E94482B2B013C01A701960199
:104B2000C501B4010E94482B9B01AC01C301B20135
:104B30000E942C2C9B01AC0160E070E080E89FE3B8
:104B40000E94482B4B015C016091760570917705BE
:104B5000072E000C880B990B0E94C3299B01AC0106
:104B6000C501B4010E94222A0E949E2C5B01709311
:104B7000CE026093CD0269857A858B859C850E94E3
:104B8000C32929813A814B815C810E94482B6B01AA
:104B90007C0129813A814B815C816D817E818F818D
:104BA00098850E94482B9B01AC01C701B6010E9469
:104BB0002C2C9B01AC0160E070E080E89FE30E9438
:104BC000482B6B017C016091780570917905072E67
:104BD000000C880B990B0E94C3299B01AC01C701F3
:104BE000B6010E94222A0E949E2C7B017093D00263
:104BF0006093CF02D0906302C090640240E050E026
:104C0000A0E0B0E00FEF1FEF80E090E04C01880CD7
:104C1000991C940127553D4FF90120813181B40140
:104C200069577D4FFB0160817181F401EB59FD4FA4
:104C30000190F081E02DE130F10539F0329749F42F
:104C40004EE150E0AEE1B0E004C04D2D5C2DA4E19A
:104C5000B0E02115310539F06115710521F02A15F3
:104C60003B05B4F405C02A153B05BCF481E190E096
:104C7000240F351FA216B3065CF46E157F0544F4AD
:104C80006A0F7B1FE616F7061CF48C0181E190E0A9
:104C90000196813191050CF4B9CF0F3FFFEF1F074B
:104CA00049F48DE20E94510F2AE041E050E060E0BB
:104CB00070E006C02AE0A801012E000C660B770BFD
:104CC0008BED93E00E94A22065E771E08BED93E00D
:104CD0000E948D200430110508F092C01092CC0281
:104CE0001092CB02C8010E94680A0230110509F433
:104CF00083C00330110509F47FC00130110509F0AC
:104D00007FC01093CC020093CB026091000570919C
:104D1000010520E134E84CE350E0809104059091D6
:104D200005050E94F40E609100057091010520E0D8
:104D300030E048E350E080910405909105050E9421
:104D4000F40EE12CF12C00E010E025E330E045E327
:104D500050E067EB70E085E691E00E941E0B01E0F9
:104D600010E025E330E045E350E067EB70E085E6D6
:104D700091E00E941E0B00E010E025E330E045E3E7
:104D800050E061EB70E083E090E00E941E0B01E0D8
:104D900010E025E330E045E350E061EB70E083E0B4
:104DA00090E00E941E0B00E010E025E330E045E3B8
:104DB00050E063E070E085E691E00E941E0B25E381
:104DC00030E045E350E061EB70E087EB90E00E945B
:104DD0001E0B60E070E088E691E00E94290F60E021
:104DE00070E084EB90E00E94290F80E00E94740B39
:104DF00081E00E94740B04C01093CC020093CB029C
:104E000061E08DE00E946C1C0E944F1AA5CBDF92DE
:104E1000EF92FF920F931F93CF93DF931092DE03D5
:104E20001092DD0388EE93E0A0E0B0E08093DF0312
:104E30009093E003A093E103B093E20326E231E014
:104E40003093DC032093DB0325EC30E03093E80360
:104E50002093E70324EC30E03093EA032093E90346
:104E600020EC30E03093EC032093EB0321EC30E0B6
:104E70003093EE032093ED0322EC30E03093F00307
:104E80002093EF0326EC30E03093F2032093F103FC
:104E90001092F4031092F5031092F6031092F703A8
:104EA00010927E0410927F0410928004109281046C
:104EB000109282041092830410928404109285044C
:104EC000109286041092870410928804109289042C
:104ED00010928A0410928B0410928C0410928D040C
:104EE0002AE53AE13093C1042093C0041092A5054D
:104EF0001092A4058093A6059093A705A093A805FA
:104F0000B093A90586E391E09093A3058093A20551
:104F100081E180939C0580E180939E0589E08093E8
:104F20009D0588E080939F058CE291E09093A10518
:104F30008093A0058AE090E090939B0580939A056A
:104F4000109271051092700500EF10E01093730538
:104F500000937205C0E4D1E0D0937505C093740549
:104F60001093770500937605D0937905C093780563
:104F70001092830510927B0510927A0510927D05A0
:104F800010927C05DD24D394D0928205EE24EA941D
:104F9000FE2CF0928105E0928005F0927F05E09270
:104FA0007E05D09284051092850510928705109297
:104FB000860586E491E090936F0580936E0582E10B
:104FC00080939905EDECF6E0E491F0E0EE0FFF1F21
:104FD000EE54F94FA591B491B0938A05A093890539
:104FE000ECECF6E0E491F0E0EE0FFF1FEE54F94F29
:104FF0008591949190938C0580938B05EBECF6E072
:10500000E491F0E0EE0FFF1FEE54F94F859194917B
:1050100090938E0580938D05EAECF6E0E491F0E044
:10502000EE0FFF1FEE54F94F8591949190939005E8
:1050300080938F05EFEAF6E0849180939105EEEA84
:10504000F6E0349130939205EDEAF6E02491209356
:105050009305ECEAF6E0949190939405482F4095DF
:1050600040939505E32FE095E0939605E22FE095B8
:10507000E0939705E92FE095E0939805EC91E82BF4
:10508000EC93E0918B05F0918C05908180919205D5
:10509000892B8083E0918D05F0918E059081809120
:1050A0009305892B8083E0918F05F0919005908185
:1050B00080919405892B808361E081E10E949C1C92
:1050C00061E080E10E949C1C61E08FE00E949C1CDA
:1050D00061E08EE00E949C1C61E082E10E946C1CF9
:1050E00061E082E10E949C1C8AB18C6F8AB984B114
:1050F000836084B91092830510927B0510927A0523
:1051000010927D0510927C05D0928205F0927F0569
:10511000E0927E051093770500937605D09379058C
:10512000C0937805EDE8F6E08491E1EAF6E0D491E9
:10513000EFEBF6E0C491CC2391F081110E94431C67
:10514000EC2FF0E0EE0FFF1FE058F94FA591B4915E
:10515000EC91ED2391E080E021F490E002C090E03A
:1051600080E090936C0580936D056CE871E086E0BB
:1051700095E00E94782064E971E08CE095E00E945F
:1051800078206BE971E082E195E00E94782065EA81
:1051900071E088E195E00E94782062E971E08EE19B
:1051A00095E00E9478206DEA71E084E295E00E942B
:1051B00078206FEA71E08AE295E00E94782061EB46
:1051C00071E080E395E00E94782063EB71E086E374
:1051D00095E00E94782065EB71E08CE395E00E94F9
:1051E000782067EB71E082E495E00E94782069EB1B
:1051F00071E088E495E00E9478206AEB71E08EE42B
:1052000095E00E9478206CEB71E084E595E00E94C7
:1052100078206DEB71E08AE595E00E9478206FEBD5
:1052200071E080E695E00E94782067E771E086E60D
:1052300095E00E947820809178059091790597FDFE
:105240000196959587959093050580930405209187
:10525000760530917705C9014D9697FD0196959594
:1052600087959093030580930205909301058093A1
:105270000005E9ECF4E01282118213821082DF0152
:1052800011971C9211971C92369684E0E13EF80724
:1052900091F71092EB041092EE041092EA0410922F
:1052A000E9041092FB0480E68093C4048093FF0419
:1052B00081E08093FE0488EC90E09093FA04809360
:1052C000F90484EC94E09093FD048093FC0482E064
:1052D0008093F30487E08093F60484E08093F404E1
:1052E00083E08093F50485E08093F70486E0809363
:1052F000F8048FEE94E09093C3048093C204DF918E
:10530000CF911F910F91FF90EF90DF900895BB27F1
:105310004A3031F4992322F4BDE2909581959F4F54
:105320000C949329BB27FB015527AA27880F991FA7
:10533000AA1FA41710F0A41B83955051B9F7A05DC4
:10534000AA3308F0A95DA193009779F7B111B19341
:105350001192CB010C94AC29DC01FC01672F7191F7
:105360007723E1F7329704C07C916D93708362914B
:10537000AE17BF07C8F308950E94FE2908F481E024
:105380000895E89409C097FB3EF490958095709538
:1053900061957F4F8F4F9F4F9923A9F0F92F96E981
:1053A000BB279395F695879577956795B795F111F6
:1053B000F8CFFAF4BB0F11F460FF1BC06F5F7F4F93
:1053C0008F4F9F4F16C0882311F096E911C07723A5
:1053D00021F09EE8872F762F05C0662371F096E8AE
:1053E000862F70E060E02AF09A95660F771F881F7D
:1053F000DAF7880F9695879597F90895990F000821
:10540000550FAA0BE0E8FEEF16161706E807F90796
:10541000C0F012161306E407F50798F0621B730B31
:10542000840B950B39F40A2661F0232B242B252BB2
:1054300021F408950A2609F4A140A6958FEF811D55
:10544000811D08950E94352A0C94A62A0E94982A4C
:1054500038F00E949F2A20F0952311F00C948F2A97
:105460000C94952A11240C94DA2A0E94B72A70F31E
:10547000959FC1F3950F50E0551F629FF001729FF9
:10548000BB27F00DB11D639FAA27F00DB11DAA1F08
:10549000649F6627B00DA11D661F829F2227B00D55
:1054A000A11D621F739FB00DA11D621F839FA00DE0
:1054B000611D221F749F3327A00D611D231F849F30
:1054C000600D211D822F762F6A2F11249F57504087
:1054D0009AF0F1F088234AF0EE0FFF1FBB1F661F02
:1054E000771F881F91505040A9F79E3F510580F0CB
:1054F0000C948F2A0C94DA2A5F3FE4F3983ED4F39D
:10550000869577956795B795F795E7959F5FC1F76E
:10551000FE2B880F911D9695879597F9089597F919
:105520009F6780E870E060E008959FEF80EC089549
:1055300000240A9416161706180609060895002472
:105540000A9412161306140605060895092E0394EC
:10555000000C11F4882352F0BB0F40F4BF2B11F460
:1055600060FF04C06F5F7F4F8F4F9F4F089557FDBF
:105570009058440F551F59F05F3F71F04795880FC1
:1055800097FB991F61F09F3F79F087950895121658
:1055900013061406551FF2CF4695F1DF08C0161604
:1055A00017061806991FF1CF8695710561050894B5
:1055B0000895E894BB2766277727CB0197F90895CC
:1055C000A1E21A2EAA1BBB1BFD010DC0AA1FBB1F07
:1055D000EE1FFF1FA217B307E407F50720F0A21B79
:1055E000B30BE40BF50B661F771F881F991F1A94E6
:1055F00069F760957095809590959B01AC01BD0110
:10560000CF0108952F923F924F925F926F927F92B7
:105610008F929F92AF92BF92CF92DF92EF92FF92C2
:105620000F931F93CF93DF93CDB7DEB7CA1BDB0B6E
:105630000FB6F894DEBF0FBECDBF09942A88398813
:1056400048885F846E847D848C849B84AA84B9841A
:10565000C884DF80EE80FD800C811B81AA81B98126
:10566000CE0FD11D0FB6F894DEBF0FBECDBFED013A
:105670000895A29FB001B39FC001A39F700D811D2B
:105680001124911DB29F700D811D1124911D08954B
:105690005058BB27AA270E94602B0C94A62A0E9470
:1056A000982A38F00E949F2A20F039F49F3F19F47D
:1056B00026F40C94952A0EF4E095E7FB0C948F2ABF
:1056C000E92F0E94B72A58F3BA17620773078407B5
:1056D000950720F079F4A6F50C94D92A0EF4E095FC
:1056E0000B2EBA2FA02D0B01B90190010C01CA019C
:1056F000A0011124FF27591B99F0593F50F4503E47
:1057000068F11A16F040A22F232F342F4427585F38
:10571000F3CF469537952795A795F0405395C9F750
:105720007EF41F16BA0B620B730B840BBAF0915008
:10573000A1F0FF0FBB1F661F771F881FC2F70EC0A7
:10574000BA0F621F731F841F48F48795779567957A
:10575000B795F7959E3F08F0B0CF9395880F08F066
:105760009927EE0F9795879508950E94982A60F0E3
:1057700080E891E009F49EEF0E949F2A28F040E81B
:1057800051E071F45EEF0CC00C94952A0C94D92A68
:10579000E92FE0780E94B72A40F3092E052AB1F3D9
:1057A000261737074807590738F00E2E07F8E02567
:1057B00069F0E025E0640AC0EF6307F8009407FA97
:1057C000DB01B9019D01DC01CA01AD01EF930E942B
:1057D000432C0E94A62A0E94F82B5F91552339F092
:1057E0002BED3FE049E450FD49EC0C94492B089522
:1057F000DF93DD27B92FBF7740E85FE31616170662
:1058000048075B0718F4D92F0E943F2D9F938F9371
:105810007F936F930E944F2DE8E6F0E00E94D42C16
:105820000E94A62A2F913F914F915F910E94352AA5
:10583000DD2351F09058A2EA2AED3FE049EC5FE306
:10584000D0785D270E94602BDF910C94A62A0E94DD
:10585000FD2CE3950C94262D0E94402C0C94A62A36
:105860000E949F2A58F00E94982A40F029F45F3F36
:1058700029F00C948F2A51110C94DA2A0C94952A51
:105880000E94B72A68F39923B1F3552391F3951B2E
:10589000550BBB27AA2762177307840738F09F5F51
:1058A0005F4F220F331F441FAA1FA9F335D00E2EBE
:1058B0003AF0E0E832D091505040E695001CCAF72B
:1058C0002BD0FE2F29D0660F771F881FBB1F2617EE
:1058D00037074807AB07B0E809F0BB0B802DBF01C5
:1058E000FF2793585F4F3AF09E3F510578F00C9494
:1058F0008F2A0C94DA2A5F3FE4F3983ED4F386951E
:1059000077956795B795F7959F5FC9F7880F911DB4
:105910009695879597F90895E1E0660F771F881FA0
:10592000BB1F621773078407BA0720F0621B730B53
:10593000840BBA0BEE1F88F7E09508950E94A52C02
:105940006894B1110C94DA2A08950E94BF2A88F055
:105950009F5798F0B92F9927B751B0F0E1F0660F33
:10596000771F881F991F1AF0BA95C9F714C0B13074
:1059700091F00E94D92AB1E008950C94D92A672F9A
:10598000782F8827B85F39F0B93FCCF386957795A3
:105990006795B395D9F73EF490958095709561958C
:1059A0007F4F8F4F9F4F0895DF93CF931F930F9398
:1059B000FF92EF92DF927B018C01689406C0DA2E91
:1059C000EF010E94352AFE01E894A59125913591B9
:1059D00045915591A6F3EF010E94602BFE019701BE
:1059E000A801DA9469F7DF90EF90FF900F911F9173
:1059F000CF91DF9108950C94952A0E94BF2AD8F385
:105A0000E894E0E0BB279F57F0F02AED3FE049EC37
:105A100006C0EE0FBB0F661F771F881F28F0B23A33
:105A200062077307840728F0B25A620B730B840B6A
:105A3000E3959A9572F7803830F49A95BB0F661FFC
:105A4000771F881FD2F790480C945A2DEF93E0FFF0
:105A500007C0A2EA2AED3FE049EC5FEB0E94602B11
:105A60000E94A62A0F90039401FC9058E5E9F0E00B
:105A70000C94662D0E94FE2908F48FEF08959B0177
:105A8000AC0160E070E080E89FE30C942C2C9F93C5
:105A90000E94FD2C0F9007FCEE5F0C94262D9B01BD
:105AA000AC010C94222A0E94FE29880B990B0895C0
:105AB0009F3F31F0915020F4879577956795B79582
:105AC000880F911D9695879597F908959F938F93C9
:105AD0007F936F93FF93EF939B01AC010E94222A67
