:100000000C946F0C0C94970C0C94970C0C94E320AC
:100010000C94E3200C94E3200C94970C0C94970C14
:100020000C94970C0C94970C0C94970C0C94970CC4
:100030000C94970C0C94970C0C94970C0C94970CB4
:100040000C94C60F0C94970C0C94A20E0C947C0E7E
:100050000C94970C0C94970C0C94970C0C94970C94
:100060000C94ED200C94970C05A84CCDB2D44EB94D
:100070003836A9020C50B9918688083CA6AAAA2A4B
:10008000BE000000803F00000000050001000003EA
:100090000C0501F5050005050601F509000A0C0B24
:1000A00000F51800080E0A01F526000C0C0C00F5EE
:1000B00038000A0C0B01F5470002050301F5490061
:1000C00005100601F5530005100600F55D0007094F
:1000D0000800F4650009090B01F670000204040130
:1000E000FF710004020601FC720002020401FF73AA
:1000F00000050C0500F57B00070C0901F5860001E1
:100100000C0904F58800070C0901F59300070C0998
:1001100001F59E00080C0900F5AA00070C0901F57D
:10012000B500070C0901F5C000080C0901F5CC0069
:10013000070C0901F5D700070C0901F5E2000208D8
:100140000401F9E400020A0401F9E70009090B01BE
:10015000F6F20009040B01F8F70009090B01F60299
:1001600001040C0601F5080111111201F42D010C16
:100170000C0C00F53F01090C0A01F54D010B0C0DAB
:1001800001F55E010C0C0E01F57001070C0901F57B
:100190007B01070C0801F586010B0C0D01F5970199
:1001A0000B0C0D01F5A801020C0501F5AB010410C3
:1001B00005FFF5B3010B0C0C01F5C401080C090196
:1001C000F5D0010C0C0E01F5E2010C0C0E01F5F45A
:1001D000010D0C0F01F50802080C0901F514020DC0
:1001E0000E0F01F52B020A0C0B01F53A02070C0861
:1001F00001F545020B0C0B00F556020B0C0D01F539
:1002000067020B0C0B00F57802130C1300F5950236
:100210000D0C0D00F5A9020B0C0B00F5BA020B0C2E
:100220000C00F5CB0204100602F5D302050C050004
:10023000F5DB0204100600F5E30208070800F5EA02
:10024000020A010A0004EC0203030601F4EE0207AD
:10025000080800F9F502070C0901F5000306080873
:1002600001F90603070C0901F5110307080901F953
:100270001803050C0500F52003080C0800F92C03F1
:10028000070C0901F53703020B0401F63A03030FCB
:100290000400F64003080C0901F54C03020C0401AC
:1002A000F54F030C080E01F95B0307080901F96219
:1002B0000308080A01F96A03070C0901F975030725
:1002C0000C0901F9800306080701F98603050807F0
:1002D00001F98B03060A0600F7930307080901F9E1
:1002E0009A0308080800F9A2030D080D00F9AF03EE
:1002F00009080900F9B803080C0800F9C403070845
:100300000800F9CB0305110601F4D603011005021C
:10031000F5D80306110600F4E50309020B01FA5BA8
:1003200064920360DEF729000884210BFF11084264
:1003300013FF2318842108183EFEDAD8F87C1F1B0F
:100340009BFF7C18183847CCC487D03B00200400A2
:10035000DE0BE13333F21E3C1F8661983C0E078BA7
:10036000368731CFD9E7FE801188C46318C630863E
:1003700010C2420863086318C463110810234BA11C
:100380008FB48810080402010FF84020100800F60E
:10039000FFF0188423108C42310038FB1E38306087
:1003A000C1C78DF1C0FFF079FA342041820C30C111
:1003B000FFF079FA3020C70F07071BF3C002060EC3
:1003C0000E1E36667FFF0606067CF902078F8383C2
:1003D000071FF3C00838E3861FBFE3C38DF9E0FFB2
:1003E000FE060C0C0818103020606039FF1E3C6FB0
:1003F000BFE3838FFBE079FB1C3C7FCD871C70C182
:1004000000F00FF00F600187CF9E0C0780F81F01EE
:1004100080FF80001FF080781F81F0187DF9E08058
:10042000006733364C406603F007FE0F038600C6B4
:1004300039323E8B31C5106298214C31A73999FF72
:100440008473830018E03C3FF807F0000600600F5B
:1004500000F01981983083FC3FC606606C03FC7F76
:1004600031D86C67E3FD86C1E1FFDFC00F87FDC0B7
:10047000F00C0180300600E00E04FF87E0FF0FFC67
:10048000C0EC06C02C03C03C02C06C0CFFCFF0FFD8
:10049000FF060C1FFFE0C183FFF0FFFF060C1FFFEC
:1004A000E0C18306000FC7FDC0F00C0180307E0F55
:1004B000E06E0CFF87C0C0780F01E03C07FFFFFE35
:1004C00003C0780F01E030FFFFFF333333333333A2
:1004D00033FEC1986318660D81E0360660C6186366
:1004E000066060C0C0C0C0C0C0C0C0C0C0FFFFC008
:1004F0003E07F0FD9BCF3C63C63C03C03C03C03CC1
:1005000003C03E03F03D83CC3C63C23C33C1BC0F0F
:10051000C07C030F81FF1C1DC06C01E00F0078033D
:10052000E033838FF81F00FCFEC3C3C3FEFCC0C0D2
:10053000C0C0C00F81FF1C1DC06C01E00F0078031C
:10054000E03B838FF83F003F0070FC3F8C630CC69C
:100550003F8FC338C630CC1B0679FB140C0E0E0639
:10056000070FF3C0FFFFFC10020040080100200449
:100570000080100200C0780F01E03C0780F01E03ED
:10058000C06C19FF0F80C06819831043186206C041
:10059000D80E01C0100200C0C0681C19838330D877
:1005A000431318663204C6C0F0580E0E0181C030E5
:1005B0001002020060318306303B00F803801C010A
:1005C000B018C1871819C060E0CC18C60D80E018BB
:1005D0000100200400801002007FEFF80200C0300C
:1005E0000C010040180601FFBFF0FF88888888884A
:1005F00088FFC210C21086108610FF111111111150
:1006000011FF181C3434266243FFC0C88078FA10EA
:10061000E648913FC183060FDFF1E1C38FFFC03F82
:10062000FC20830FCF02040813AFF0C18385F9F0DB
:1006300039FB1FF8181F9E19D8CF798C6318C03F5B
:100640006746663C60607EC6C3E67CC183060DDFFC
:10065000F1E3C78F1E30F3FFFC6C36DB6DB790C043
:10066000C0C0C0C6CCD8F0D8CCC6C7FFFFFFFDEFD6
:10067000FEC63C63C63C63C63C63FDFF1E3C78F18E
:10068000E33C7EC38181C37E3CF9FF1E1C38FFFC26
:10069000C18306003FFF1C3878FF9F060C1830DB33
:1006A000FE70C30C3077F3E3C7FE0087FF61861846
:1006B0003CF0C78F1E3C78FFBBC34666243C18182D
:1006C00010C21A3899CC5B43DE1C60630208C33346
:1006D0000D8381C1B18D83C366663C3C1818103010
:1006E000206040FFF820C1041FBF39D8C63188867A
:1006F00018C6318738FFFFE3830C30C3040C730C3A
:1007000030C33CE0F8C78000000100FF0032000168
:100710000000010200000703003010040000000880
:10072000000202090000000A0000000C0000000D99
:100730000000000F00000010000000110007001270
:1007400000000013000000FF00C800100090161108
:10075000002702FF00320012001A00FF00320013CF
:1007600000001829002A00FF00320030000000318C
:10077000000000320000003500060236000808378D
:1007800000070038000102390000003C0000003D75
:100790000000002000000021000000500000005177
:1007A00000EF005200000053003F01600000A7610D
:1007B0000003006A00000090001000920000009307
:1007C000000300950000119700000098000000074A
:1007D0000033011F038600207E1400000000240067
:1007E00027002A0000000000003E5B4F5B3E3E6B8E
:1007F0004F6B3E1C3E7C3E1C183C7E3C181C577DBB
:10080000571C1C5E7F5E1C00183C1800FFE7C3E706
:10081000FF0018241800FFE7DBE7FF30483A060E18
:100820002629792926407F050507407F05253F5A5F
:100830003CE73C5A7F3E1C1C08081C1C3E7F1422CF
:100840007F22145F5F005F5F06097F017F0066897A
:10085000956A606060606094A2FFA29408047E04C0
:100860000810207E201008082A1C08081C2A0808E6
:100870001E101010100C1E0C1E0C30383E383006A6
:100880000E3E0E06000000000000005F00000007A2
:10089000000700147F147F14242A7F2A12231308D0
:1008A000646236495620500008070300001C2241AC
:1008B000000041221C002A1C7F1C2A08083E080850
:1008C0000080703000080808080800006060002000
:1008D000100804023E5149453E00427F40007249E3
:1008E0004949462141494D331814127F1027454587
:1008F00045393C4A4949314121110907364949499D
:1009000036464949291E000014000000403400000A
:100910000008142241141414141400412214080273
:10092000015909063E415D594E7C1211127C7F49E6
:100930004949363E414141227F4141413E7F49493B
:1009400049417F090909013E414151737F08080867
:100950007F00417F41002040413F017F0814224138
:100960007F404040407F021C027F7F0408107F3E92
:100970004141413E7F090909063E4151215E7F09FF
:10098000192946264949493203017F01033F404066
:10099000403F1F2040201F3F4038403F6314081451
:1009A0006303047804036159494D43007F41414189
:1009B0000204081020004141417F0402010204406A
:1009C00040404040000307080020545478407F28EE
:1009D0004444383844444428384444287F385454E4
:1009E000541800087E090218A4A49C787F08040407
:1009F0007800447D40002040403D007F10284400A6
:100A000000417F40007C047804787C080404783836
:100A100044444438FC1824241818242418FC7C0866
:100A2000040408485454542404043F44243C4040E3
:100A3000207C1C2040201C3C4030403C4428102896
:100A4000444C9090907C4464544C440008364100DF
:100A50000000770000004136080002010204023C59
:100A60002623263C1EA1A161123A4040207A385428
:100A700054555921555579412254547842215554A1
:100A8000784020545579400C1E52721239555555F4
:100A900059395454545939555454580000457C41DF
:100AA0000002457D420001457C407D1211127DF01F
:100AB000282528F07C545545002054547C547C0A49
:100AC000097F4932494949323A4444443A324A4812
:100AD00048303A4141217A3A42402078009DA0A016
:100AE0007D3D4242423D3D4040403D3C24FF242468
:100AF000487E4943662B2FFC2F2BFF0929F620C087
:100B0000887E090320545479410000447D413048D7
:100B1000484A32384040227A007A0A0A727D0D191A
:100B2000317D2629292F28262929292630484D407C
:100B300020380808080808080808382F10C8ACBA78
:100B40002F102834FA00007B000008142A142222F7
:100B5000142A14085500550055AA55AA55AAFF5540
:100B6000FF55FF000000FF00101010FF00141414C8
:100B7000FF001010FF00FF1010F010F0141414FC10
:100B8000001414F700FF0000FF00FF1414F404FC2D
:100B9000141417101F10101F101F1414141F00100E
:100BA0001010F0000000001F101010101F10101087
:100BB00010F010000000FF10101010101010101096
:100BC000FF10000000FF140000FF00FF00001F10D6
:100BD000170000FC04F414141710171414F404F490
:100BE0000000FF00F714141414141414F700F71481
:100BF0001414171410101F101F141414F4141010D0
:100C0000F010F000001F101F0000001F1400000073
:100C1000FC140000F010F01010FF10FF141414FF6B
:100C2000141010101F00000000F010FFFFFFFFFF66
:100C3000F0F0F0F0F0FFFFFF0000000000FFFF0FFA
:100C40000F0F0F0F3844443844FC4A4A4A347E029E
:100C5000020606027E027E0263554941633844441F
:100C60003C04407E201E2006027E020299A5E7A5D4
:100C7000991C2A492A1C4C7201724C304A4D4D3045
:100C80003048784830BC625A463D3E494949007E6A
:100C90000101017E2A2A2A2A2A44445F4444405101
:100CA0004A444040444A51400000FF0103E080FFB5
:100CB000000008086B6B083612362436060F090F41
:100CC00006000018180000001010003040FF01015D
:100CD000001F01011E00191D1712003C3C3C3C0086
:100CE00000000000000000000700010000041107E0
:100CF00001F0090009060C01F010000E120E00F0C0
:100D000030000B140D01F04C0010111101F06E00B9
:100D100010111201F0900004060601F0930008176C
:100D20000901F0AA0008170900F0C1000A0B0B0125
:100D3000F0CF000C0B0E01F4E00004080701FDE405
:100D40000006030801FAE70004040701FDE90007B3
:100D5000110700F0F8000B110D01F0100103110D47
:100D600005F017010B110D01F02F010A110D01F013
:100D700045010B110D01F05D0109100D02F16F012C
:100D80000B110D01F087010A110D02F09D010B11ED
:100D90000D01F0B5010B110D01F0CD01040B0701A0
:100DA000F6D301040F0701F6DB010C0D0E01F2EF83
:100DB000010C080E01F5FB010C0D0E01F20F0207EC
:100DC000110901F01E0216161801F05B021311132F
:100DD00000F084020E111102F0A20210111301F0B2
:100DE000C40210111302F0E6020C110F02F000030E
:100DF0000B110F02F0180311111401F03D03101133
:100E00001402F05F0304110802F06803071508FFDD
:100E1000F07B030F111102F09B030C110F02F0B5D0
:100E20000311111502F0DA0310111402F0FC031380
:100E3000111501F025040D111002F04104131515D0
:100E400001F073040E111002F091040D110F01F066
:100E5000AD0410111101F0CF0410111402F0F104CF
:100E600011111100F016051C111C00F05205131190
:100E70001400F07B0511111100F0A00510111100F4
:100E8000F0C20508160B02F0D80507110700F0E7BD
:100E90000509160B00F000060C090E01F00E060CF9
:100EA000010C0003100608070A01F017060C0B0DD1
:100EB00001F628060C110E01F042060A0B0C01F691
:100EC00050060C110E01F06A060B0B0D01F67A06A6
:100ED00009110700F08E060C110D01F6A8060C1181
:100EE0000E01F0C20604110701F0CB06051707003A
:100EF000F0DA060C110D02F0F40603110702F0FB04
:100F000006140B1702F617070C0B0E01F628070C38
:100F10000B0E01F639070C110E01F653070C110EDA
:100F200001F66D07090B0B02F67A07090B0A01F6A9
:100F30008707090E0A00F397070C0B0E01F6A807A6
:100F40000C0B0C00F6B907130B1300F6D4070D0BAE
:100F50000D00F6E6070C110C00F600080C0B0D0056
:100F6000F6110816151801F04B0818141A01F0872D
:100F70000816151A02EFC10817181800EE7FFFFFB8
:100F800077662007FF70F3F9FCFC763B1C0E1838DF
:100F9000E0E3830E1C3BFFFFFFFFFF1870E18FFFB4
:100FA000FFFFFFFDC3870C1C3071C1C7000C03F1AC
:100FB000FF766EC5D83F03E07F83F83F8670CF1978
:100FC000FB7FFE3F0180300600380CFC18C618C6B7
:100FD00030C660C660FCC039800180033C067E06D6
:100FE000E60CC718C718E6307E603C07C01FE03F1C
:100FF000F03CF03C703CE01FE01FC03F877FCFFB20
:10100000FEF1FEF0FCF0F8FFFC7FFE1F1FFFFE6606
:10101000070E1C1C38787870F0F0F0F0F0F0F070EB
:101020007878381C1C0E07E070383C1C1E0E0F0F21
:101030000F0F0F0F0F0F0F0E1E1C3C3870E01C0718
:101040000CCBA7FB830FBFA7CC8701C00F00F00F0D
:1010500000F0FFFFFFFFF0F00F00F00F006FF777D9
:101060006CFFFFC07FF70E1870E1830E1C3060C369
:10107000870C1870E01F07F1FF3CE71FE3FC7F8F30
:10108000F1FE3FC7F8F71EF39FF1FC1F00FFFFFFC3
:10109000FFFFFFE01F0FF1FF31E83C0380F01E036C
:1010A00080F01C0781E0380FFBFFFFE03E1FE7F9EF
:1010B0001F03C0F0783C0F03E03C0F03E0FFFFFE8E
:1010C0007E0001C0380F03E0FC3F87F1DE73DC7B5C
:1010D000FFFFFFFE0780F01E03C0FFFFFFFE0F07AC
:1010E00083F9FEFF83C0E0787FFFFDFC0781E03CD1
:1010F0000F01C0781FC3FE7FDE3FC7F8FF1FE3DF8D
:10110000F1FC1F00FFFFFFFC1E0781E0F03C0F0712
:1011100081E0703C0F0381E018001F07F1E738F70A
:101120001EE3DE71FC3F8F3BC7F8FF1FE3DE79FE55
:101130001F001F07F1FF38FF1FE3FC7F8F7FE7F8D9
:101140007F03C0781E07C0F03C007FF70007FF70E8
:101150007FF70006FF7776C000100F03F1FE7F8F48
:10116000C0F00FC07F81FE03F00F0010FFFFFFFFF4
:10117000F000000FFFFFFFFF800F00FC07F81FE0EB
:101180003F00F03F1FE7F8FC0F008000F9FBF8F18B
:10119000E3CF1C38E0C1000E1E3C7000FE001FFFB4
:1011A00000F01E07001C380039C3CE661FF9B8E3F3
:1011B000C7C7070F1C1C3CE071F381C6CE0E1B385D
:1011C00038CC71E639FFF063EF81C00073C0038350
:1011D000C03C07FFE003FC0003F0007E000FC003EB
:1011E000FC007F800F7803CF0079F01F1E03C3C07F
:1011F000783C1FFF83FFF8FFFF1E01F3C01EF803BA
:10120000E0FFC3FF8FFF3C7CF0F3C3CF1E3FF0FF36
:10121000F3FFEF07BC1FF07FC1EFFFBFFCFFE00350
:10122000FC0FFF1FFF3F077C017800F800F000F083
:1012300000F000F80078007C013F071FFF0FFF035C
:10124000F8FFC0FFF8FFFCF07EF03EF01FF00FF05B
:101250000FF00FF00FF00FF01FF03EF07EFFFCFFDD
:10126000F8FFC0FFFFFFFFFF00F00F00F00FFEFFD1
:10127000EFFEF00F00F00F00FFFFFFFFF0FFFFFF9A
:10128000FFF80F01E03C07FFFFFFFFC0780F01E010
:101290003C0780F00003FC07FF87FFC7E0E7C00BB7
:1012A000C003E001E000F03FF81FFE0FEF00F7C0C1
:1012B00079F07C7FFE1FFE03F800F00FF00FF00FB7
:1012C000F00FF00FF00FFFFFFFFFFFFFF00FF00F29
:1012D000F00FF00FF00FF00FF00FF00FFFFFFFFF18
:1012E000FFFFFFFFF01E3C78F1E3C78F1E3C78F153
:1012F000E3C78F1E7FF7EF00F07DE1F3C7C78F0FC5
:101300003E1E783DF07FC0FF01FF03DF079F0F1FE8
:101310001E3E3C3E783EF03EF00F00F00F00F00F16
:1013200000F00F00F00F00F00F00F00F00FFFFFFC4
:10133000FFF0F007FC03FE03FF83FFE3FFF9FFFD6F
:10134000FFFFFFF7F7F9F3FC71FE10FF007F803F0E
:10135000C01FE00FF00780F00FF80FFC0FFE0FFE2C
:101360000FFF0FFF8FF7CFF3EFF1FFF0FFF0FFF06C
:101370007FF03FF01FF00FF00703F801FFC07FFC84
:101380001F07C7C07CF007BE00FF800FF001FE0002
:101390003FE00FBC01E7C07C7C1F07FFC07FF0036C
:1013A000F800FFC7FF3FFDE1EF0FF87FC3DFFEFF4F
:1013B000E7FE3C01E00F007803C01E00F00003F8D8
:1013C00001FFC07FFC1F07C7C07CF007BE00FF8085
:1013D0000FF001FE003FE00FBC01E7C07C7C1F075F
:1013E000FFC07FF003F8001FC001FF800FE000780E
:1013F000FFC3FF8FFF3C3CF0FBC3CF0F3FF8FFC3A1
:10140000FF0F3E3C7CF0F3C3EF07BC1EF07C1FC116
:10141000FF9FFDF06F007C03F80FF83FE07F807CBA
:1014200001F80FF07BFFCFFC1F80FFFFFFFFFFFFE6
:1014300003C003C003C003C003C003C003C003C094
:1014400003C003C003C003C003C003C0F00FF00F0C
:10145000F00FF00FF00FF00FF00FF00FF00FF00F94
:10146000F00FF00FF81F7C3E7FFE3FF80FE0F8070B
:10147000BC07DF03C783E3E1E0F1F078F03E780FCB
:101480007807FC01FE00FE003F001F00078003807C
:1014900000C000F80F01F780F01E781F81E7C1F847
:1014A0003E3C3FC3C3E3FC7C1E7FE781E79E780F91
:1014B000F9FF00FF0FF00FF0FF007E07E007E07E6E
:1014C000003E07C003C03C001C038001801800FCE4
:1014D00007E7C1F8FC3E0F8F80FBE00FF800FF002C
:1014E0001FC001F8007F001FF007FF00FBF03E3F28
:1014F0000F83E3F03EFC03E0F80FBE0F8F07C7C772
:10150000C1F7C07BE03FE00FF003F001F000F8000E
:101510007C003E001F000F8007C003E0007FFF7FBC
:10152000FE7FFC007C00F801F801F003E003E00717
:10153000C00F800F801F003E003FFF7FFFFFFFFFB7
:10154000FFFFF0F0F0F0F0F0F0F0F0F0F0F0F0F07D
:10155000F0F0FFFFFFE0C183070E0C18387060C188
:10156000C383060EFFFFFFE0F0783C1E0F0783C128
:10157000E0F0783C1E0F0783C1FFFFFFFC0700F07F
:101580000F81F81F839C39C70EF0F0FFF0107EE743
:10159000C7C7E67E7F8FF8C3C83C0FC3FCF3CE3CC1
:1015A000E3DFFF7DE0F00F00F00F00F00F00F78F9A
:1015B000FEF1EF0FF07F07F0FF0FF1EFFEF7801F56
:1015C0008FF787C0F03C0F03C0784FF1F800F00FA1
:1015D00000F00F00F00F1FF7FF78FF0FE0FE0FE0A5
:1015E000FF0F70F7FF1EF01F8FF9C3F87FFFFFFC9E
:1015F0000780782FFC7F00078FC7078381C3F9FC22
:10160000381C0E070381C0E07038001FF7FF71CF50
:101610001EE1E71C7FC1F07803F83FEF3EE0EE0EDD
:10162000F1E7FC3F80F00F00F00F00F00F00F3CF68
:10163000FEF9EF0FF0FF0FF0FF0FF0FF0FF0F06F6C
:10164000F6007777777777703BDE7000E739CE73F7
:101650009CE739DEFF7980E00E00E00E00E00E002E
:10166000E1EE3CE78EF0FE0FF0EF0E78E3CE3CE1CA
:10167000F0FFFFFFFFFFFFE0E7878FFCFEF1F9EED1
:101680000F0EE0E0FE0E0FE0E0FE0E0FE0E0FE0EBB
:101690000FE0E0F0F7CFFEF8EF0EF0FF0FF0FF0FD6
:1016A000F0FF0FF0F01F83FE78EF0FF07F07F07F61
:1016B0000F78F3FE1F80F78FFEF0EF0FF07F07F03B
:1016C0007F0FF1EFFEFF8F00F00F00F00F00F00032
:1016D0001EF7FF70FF0FE0FE0FE0FF0F78F7FF1F10
:1016E000F00F00F00F00F00F00F0E777FFDF2F079B
:1016F0000381C0E07038003E3FB85F0FE3F8FC1F85
:10170000877F9F80080C0E0FFFF9C0E070381C0E19
:101710000791F878F0FF0FF0FF0FF0FF0FF0FF0FC9
:1017200071F7FF3EF0F0F70F79E39E3DC1FC1F809B
:10173000F80F00F00600F0E1EE1C39E78F1CF9C34A
:10174000BF787F7E07EFC0F8F00F1E01C3C01830CE
:1017500000F8FBC78F783F80F803C03E03F83DE3F5
:10176000C7BC1EF0F70F79E39E3DC1FC1F81F80F47
:1017700080F00F00E01E01C03C038078007FF7FE80
:1017800003C07C0780F01F01E03C07FFFFF0000072
:101790000400006000030000180001C0000E0000FB
:1017A00070000380000C000060000300001C00F0CB
:1017B000E001C300039C000660001F80003C0000A5
:1017C000F000038000040000007E0001FF8003E3BE
:1017D000E00300E010007030003830001878001886
:1017E000FC001C30001C30003F38003E38001C1844
:1017F000000C1C00080E00000781C003FFC001FFA1
:1018000000007C00040000300000C00007003C1E07
:1018100001F8780F80F07C03E3E0079F000FF800E9
:101820001FC0003E0000F80007F0003FE001E7C0E5
:101830000F8FC0FC1FFFE03F9F003E1000007FFFA6
:10184000FD10004620008C40011880023100046227
:101850000008C4001188002310004620008C3FFEC1
:10186000180000300000600000C1FFC1821F830427
:101870003F06087E0C10FC1821F82843F04887E04A
:101880008FFFFE7D0FE40C207E1B00000000230074
:1018900026002900000000080002010000030407E0
:1018A0000000000000000000010204081020408039
:1018B00001020408102001020408102000000000AA
:1018C000250028002B00040404040404040402027C
:1018D0000202020203030303030318320932112434
:1018E0001FBECFEFD8E0DEBFCDBF24E0A8E2B2E05C
:1018F00001C01D92A33CB207E1F712E0A0E0B1E005
:10190000E0E7F4E702C005900D92A832B107D9F7DD
:101910001CE0CEE6DCE004C02197FE010E941038F6
:10192000CD36D107C9F70E9485280C942B3A0C9428
:101930000000FC01918D828D981761F0828DDF018E
:10194000A80FB11D5D968C91928D9F5F9F73928FB2
:1019500090E008958FEF9FEF0895FC01918D828DA7
:10196000981731F0828DE80FF11D858D90E0089574
:101970008FEF9FEF0895FC01918D228D892F90E0CC
:10198000805C9F4F821B91098F739927089584EF84
:1019900092E00E94BB0C21E0892B09F420E0822F09
:1019A0000895FC01848DDF01A80FB11DA35ABF4F1C
:1019B0002C91848D90E001968F739927848FA6894E
:1019C000B7892C93A089B1898C9180648C93938D75
:1019D000848D981306C00288F389E02D80818F7D65
:1019E00080830895EF92FF920F931F93CF93DF931D
:1019F000EC0181E0888F9B8D8C8D981305C0E88960
:101A0000F989808185FD24C0F62E0B8D10E00F5FD3
:101A10001F4F0F731127E02E8C8DE8120CC00FB6EC
:101A200007FCFACFE889F989808185FFF5CFCE01DF
:101A30000E94D10CF1CF8B8DFE01E80FF11DE35A0E
:101A4000FF4FF0820B8FEA89FB898081806207C09B
:101A5000EE89FF896083E889F989808180648083C9
:101A600081E090E0DF91CF911F910F91FF90EF9077
:101A70000895CF93DF93EC01888D8823C9F0EA891C
:101A8000FB89808185FD05C0A889B9898C9186FD77
:101A90000FC00FB607FCF5CF808185FFF2CFA88974
:101AA000B9898C9185FFEDCFCE010E94D10CE7CF93
:101AB000DF91CF91089580E090E0892B29F00E947A
:101AC000C70C81110C94000008953FB7F8948091E1
:101AD0007F0290918002A0918102B091820226B58E
:101AE000A89B05C02F3F19F00196A11DB11D3FBF56
:101AF000BA2FA92F982F8827820F911DA11DB11DE4
:101B0000BC01CD0142E0660F771F881F991F4A95DF
:101B1000D1F708950E940D3A8F929F92AF92BF9293
:101B2000CF92DF92EF92FF920F931F93CF93DF93A9
:101B3000EC014701121613060CF06BC010161106CB
:101B40000CF067C0A885B9856A177B070CF061C0E7
:101B5000CA84DB844C155D050CF05BC05B01A20EF2
:101B6000B31EC501019797FD54C07A01E00EF11E26
:101B7000F7013197F7FD4DC077FF49C060E070E095
:101B800057FD02C0780102C040E050E08A179B0771
:101B90002CF0CD0101975D01A61AB70AEC15FD05E1
:101BA0002CF0F60131977601E41AF50A8F019C01B9
:101BB000CE010E9495199701D5010E94ED379B0136
:101BC000AC01B401CE010E945E178A8D811110C054
:101BD0000A851B8501501109288539852150310955
:101BE00040E050E060E070E0CE010E94951911C025
:101BF000CE01DF91CF911F910F91FF90EF90DF9079
:101C0000CF90BF90AF909F908F900C947119590115
:101C1000B7CFDF91CF911F910F91FF90EF90DF90A1
:101C2000CF90BF90AF909F908F900895CF92DF920A
:101C3000EF92FF920F931F93CF93DF93EC01680114
:101C4000121613060CF04FC077FD4DC0888599859C
:101C5000681779070CF047C0EA85FB854E175F07C8
:101C60000CF041C07A01E20EF31E87010150110908
:101C700017FD39C057FF35C040E050E00E171F0771
:101C800034F08F01015011097F01E41AF50A9B011C
:101C9000CE010E9495199701FF0C440B550BB6011C
:101CA000CE010E945E178A8D811110C00A851B85A6
:101CB00001501109288539852150310940E050E053
:101CC00060E070E0CE010E9495190DC0CE01DF9159
:101CD000CF911F910F91FF90EF90DF90CF900C94D8
:101CE00071197901CBCFDF91CF911F910F91FF90A7
:101CF000EF90DF90CF9008951F920F920FB60F9242
:101D000011242F933F934F935F936F937F938F9300
:101D10009F93AF93BF93EF93FF9384EF92E00E9462
:101D2000D10CFF91EF91BF91AF919F918F917F91D6
:101D30006F915F914F913F912F910F900FBE0F9038
:101D40001F9018951F920F920FB60F9211242F9388
:101D50008F939F93EF93FF93E0910403F09105031A
:101D60008081E0910A03F0910B0382FD12C0908103
:101D700080910D038F5F8F7320910E03821751F0B6
:101D8000E0910D03F0E0EC50FD4F958F80930D0333
:101D900001C08081FF91EF919F918F912F910F90C2
:101DA0000FBE0F901F901895833081F028F481307A
:101DB00099F08230A1F008958730A9F08830B9F009
:101DC0008430D1F4809180008F7D03C080918000A9
:101DD0008F7780938000089584B58F7702C084B593
:101DE0008F7D84BD08958091B0008F7703C080916E
:101DF000B0008F7D8093B00008951F93CF93DF9341
:101E0000282F30E0F901EC56F74E8491F901E8559E
:101E1000F74ED491F901EA53F74EC491CC23C9F09F
:101E2000162F81110E94D40EEC2FF0E0EE0FFF1F51
:101E3000E454F74EA591B4918FB7F894111105C0F1
:101E40009C91ED2FE095E92302C0EC91ED2BEC93F2
:101E50008FBFDF91CF911F910895CF93DF9390E0D3
:101E6000FC01E855F74E2491FC01EA53F74E8491AA
:101E7000882361F190E0880F991FFC01E652F84F2A
:101E8000C591D491FC01E454F74EA591B491611130
:101E900009C09FB7F8948881209582238883EC91AC
:101EA0002E230BC0623061F49FB7F8943881822FE3
:101EB000809583238883EC912E2B2C939FBF06C0A3
:101EC0008FB7F894E8812E2B28838FBFDF91CF91B5
:101ED00008958E3008F08E508770806480937C0067
:101EE00080917A00806480937A0080917A0086FDE8
:101EF000FCCF809178002091790090E0922B08959A
:101F00008F929F92AF92BF92CF92DF92EF92FF9209
:101F10006B017C010E94650D4B015C01C114D10471
:101F2000E104F104F1F00E94650DDC01CB01881998
:101F30009909AA09BB09883E9340A105B10570F330
:101F400021E0C21AD108E108F10888EE880E83E08A
:101F5000981EA11CB11CC114D104E104F10419F7AD
:101F6000DDCFFF90EF90DF90CF90BF90AF909F902C
:101F70008F9008952FB7F89460917B0270917C0246
:101F800080917D0290917E022FBF08951F920F9243
:101F90000FB60F9211242F933F938F939F93AF937C
:101FA000BF9380917B0290917C02A0917D02B091C1
:101FB0007E0230917A0223E0230F2D3720F4019620
:101FC000A11DB11D05C026E8230F0296A11DB11D5C
:101FD00020937A0280937B0290937C02A0937D02EF
:101FE000B0937E0280917F0290918002A091810245
:101FF000B09182020196A11DB11D80937F02909342
:102000008002A0938102B0938202BF91AF919F9111
:102010008F913F912F910F900FBE0F901F901895A9
:10202000CF92DF92EF92FF92FC01A38DB48D9C9131
:1020300087A189238C93A58DB68D9C9180A589233A
:102040008C938BB1962F9C7F8370892B8BB985B134
:1020500063708C7F682B65B9A78DB0A19C9181A519
:1020600089238C93A78DB0A19C9185A1892B8C93FA
:10207000A58DB68D9C9184A1892B8C9383E290E0F1
:10208000DC011197F1F77BB1C52EDD24EE24FF248E
:102090006C2D6C7F7370762B7BB965B17C2D737062
:1020A0006C7F672B65B9A78DB0A17C9161A5672373
:1020B0006C93A78DB0A17C9165A1672B6C93DC011B
:1020C0001197F1F77BB16A01EE24FF246C2D6C7F30
:1020D0007370762B7BB965B17C2D73706C7F672B29
:1020E00065B9A78DB0A17C9161A567236C93A78D7D
:1020F000B0A17C9165A1672B6C93DC011197F1F77E
:102100007BB1C32ED42EE52EFF246C2D6C7F737013
:10211000762B7BB965B17C2D73706C7F672B65B9AD
:10212000A78DB0A17C9161A567236C93A78DB0A109
:102130007C9165A1672B6C930197F1F78BB1922F7E
:102140009C7F8370892B8BB985B123708C7F282B62
:1021500025B9A78DB0A19C9181A589238C93A78DCA
:10216000B0A19C9185A1892B8C93A38DB48D9C915A
:1021700083A1892B8C93FF90EF90DF90CF900895EF
:10218000FC01A58DB68D9C9180A589238C938BB184
:10219000962F9C7F8370892B8BB985B163708C7F60
:1021A000682B65B9A78DB0A19C9181A589238C93DB
:1021B000A78DB0A19C9185A1892B8C93A58DB68DFF
:1021C0009C9184A1892B8C938BB1932F9C7F8370DE
:1021D000892B8BB985B133708C7F382B35B9A78D9E
:1021E000B0A19C9181A589238C93A78DB0A19C91CE
:1021F00085A1892B8C93A58DB68D9C9180A5892373
:102200008C938BB1942F9C7F8370892B8BB985B174
:1022100043708C7F482B45B9A78DB0A19C9181A5B7
:1022200089238C93A78DB0A19C9185A1892B8C9338
:10223000A58DB68D9C9184A1892B8C938BB1922F07
:102240009C7F8370892B8BB985B123708C7F282B61
:1022500025B9A78DB0A19C9181A589238C93A78DC9
:10226000B0A19C9185A1892B8C930895FC01A58D2B
:10227000B68D9C9180A589238C938BB1972F9C7FE1
:102280008370892B8BB985B173708C7F782B75B96E
:10229000A78DB0A19C9181A589238C93A78DB0A116
:1022A0009C9185A1892B8C938BB1962F9C7F8370F9
:1022B000892B8BB985B163708C7F682B65B9A78D2D
:1022C000B0A19C9181A589238C93A78DB0A19C91ED
:1022D00085A1892B8C93A58DB68D9C9184A1892B8A
:1022E0008C938BB1952F9C7F8370892B8BB985B193
:1022F00053708C7F582B55B9A78DB0A19C9181A5A7
:1023000089238C93A78DB0A19C9185A1892B8C9357
:102310008BB1942F9C7F8370892B8BB985B14370CF
:102320008C7F482B45B9A78DB0A19C9181A58923AD
:102330008C93A78DB0A19C9185A1892B8C93089536
:10234000EF92FF920F931F93CF93DF93EC017B01EA
:102350008A8D811129C02D892150233078F430E0F5
:10236000F901E55CFE4F8081482F50E0220F331FBA
:10237000F901EB5CFE4F0081118104C000E010E028
:1023800040E050E0EB8DFC8D30812FA12323208392
:1023900060E270E0CE010E943611A80161E270E0B7
:1023A000CE010E94361112C08150833078F40A8524
:1023B0001B8501501109288539852150310940E0DC
:1023C00050E060E070E0CE010E94951920E03CE210
:1023D00041E050E0B701CE01DF91CF911F910F9105
:1023E000FF90EF900C945E17FC01A58DB68D9C912B
:1023F00080A589238C938BB1962F9C7F8370892B2A
:102400008BB985B163708C7F682B65B9A78DB0A13E
:102410009C9181A589238C93A78DB0A19C9185A1C6
:10242000892B8C93A58DB68D9C9184A1892B8C933F
:102430008BB1942F9C7F8370892B8BB985B14370AE
:102440008C7F482B45B9A78DB0A19C9181A589238C
:102450008C93A78DB0A19C9185A1892B8C93089515
:10246000AF92BF92CF92DF92EF92FF920F931F93A2
:10247000CF93DF93EC017B016A01B22EA32E77FD8F
:102480001BC157FD19C188859985681779070CF01C
:1024900013C18A859B85481759070CF00DC1EB8D38
:1024A000FC8D90818FA1892380838A8D811135C015
:1024B0008D89823059F08330B1F08130D1F48FEEC4
:1024C00090E0841B950B6B017C0113C08FEE90E0B4
:1024D0009C01261B370B79018FE391E09C01241BA3
:1024E000350B690106C08FE391E0861B970B7A01DB
:1024F0006C01A70160E270E0CE010E943611A601D6
:1025000061E270E0CE010E9436114B2D5A2D62E23D
:1025100070E0CE010E943611C9C0813009F060C060
:10252000ED89E150E33028F4F0E0E25CFE4F4081B9
:1025300001C040E066E1CE010E94F411970143E042
:1025400062E0CE010E94C010960147E066E0CE0135
:102550000E94C010ED8DFE8D908188A58923808317
:102560008BB1837080628BB985B18C7F826085B9B5
:10257000EF8DF8A1908189A589238083EF8DF8A143
:1025800090818DA1892B8083ED8DFE8D90818CA112
:10259000892B80838BB19A2D9C7F8370892B8BB97B
:1025A00085B19A2D93708C7FA92EA82AA5B8EF8D9E
:1025B000F8A1908189A589238083EF8DF8A190816E
:1025C0008DA1892B80838BB19B2D9C7F8370892B60
:1025D0008BB985B19B2D93708C7FB92EB82A59C0C9
:1025E0008250823008F062C00A851B8501501109B3
:1025F0002885398521503109CE010E949519EB8D2E
:10260000FC8D90818FA189238083ED8DFE8D90813B
:1026100088A5892380838BB183708C628BB985B147
:102620008C7F85B9EF8DF8A1908189A5892380835E
:10263000EF8DF8A190818DA1892B8083ED8DFE8D8A
:1026400090818CA1892B80838BB19A2D9C7F837084
:10265000892B8BB995B18A2D83709C7FA82EA92ACE
:10266000A5B8EF8DF8A1908189A589238083EF8D8E
:10267000F8A190818DA1892B80838BB19B2D9C7FAC
:102680008370892B8BB995B18B2D83709C7FB82E6D
:10269000B92AB5B8EF8DF8A1908189A589238083E7
:1026A000EF8DF8A190818DA1892B8083EB8DFC8D1E
:1026B00090818BA1892B8083DF91CF911F910F9106
:1026C000FF90EF90DF90CF90BF90AF900895089566
:1026D0002F923F924F925F926F927F928F929F9232
:1026E000AF92BF92CF92DF92EF92FF920F931F9320
:1026F000CF93DF93CDB7DEB76B970FB6F894DEBFFD
:102700000FBECDBF4C015A8349831F830E83FD82C8
:10271000EC82CB82DC0158964D915C915997411522
:10272000510509F0A5C018968D919C9119976817CD
:1027300079070CF05AC11A968D919C911B97E981EB
:10274000FA81E817F9070CF050C1D12CCB013B817D
:10275000F6E03F9F800D911D1124181619060CF00C
:1027600044C1C60133E0880F991F3A95E1F74981CA
:102770005A81840F951F181619060CF036C157960A
:102780008C91811103C0203B08F02F5F55E0259FFD
:10279000900111247E876D875B01212CC901861B66
:1027A000970B99878887A981BA811896BB87AA87D2
:1027B000B5E02B1641F0E885F985EA0DFB1DEC51DB
:1027C000F84F349001C0312C69807A80230130FEAB
:1027D00012C0D401ED91FC91BB81B13031F4048081
:1027E000F581E02D2E813F8118C00684F785E02D0C
:1027F000EE80FF801CC0EC81FD812E813F81E217BD
:10280000F307E1F0D401ED91FC91BB81B13051F4BB
:102810000480F581E02D2C813D81A301B501C40127
:1028200009950CC00684F785E02DEC80FD808601BB
:102830009601A2016D857E85C40109953694EFEF5E
:102840006E1A7E0A4C0C5D1C2A853B856216730647
:1028500009F0BDCF23943FEFA31AB30A4D855E85DF
:102860004C0D5D1D5E874D8756E02512A1CFBDC082
:10287000FA0134963491329785919491231BA7E005
:102880002A9F800D911D1124FA01259134913A8BD4
:10289000298BFC0125903490FC01329634913887C5
:1028A000319644914C873196E491FC013596A49180
:1028B000319684915B81523050F06A2E0A2E000CC2
:1028C0007708E82F082E000CFF0BFB87EA87FB81B7
:1028D000CF2ED12C6C9C90016D9C300D7C9C300DCA
:1028E0001124A901460F571F588B4F871C82A12C1A
:1028F000EA2FAA0FFF0B3B016E0E7F1E5885650F56
:10290000711DDB01AE0FBF1FBF8BAE8BE981FA815A
:10291000E80FF11D87FDFA95F98FE88F9C85A916C0
:1029200008F063C08A2D90E04A855B85480F591FE7
:102930004C9D90014D9D300D5C9D300D1124A98161
:10294000BA81A20FB31FBE87AD877B8E6A8E4F847C
:102950005888BC81B619BB8BE88DF98DE80FF91F3B
:10296000FD8BEC8B8B89FA8D8F0F2A8D3B8D4E89D9
:102970005F892417350799F1877041F4C1010196E9
:10298000E989FA89E20DF31DB4901C01B7FE1EC05F
:10299000D401ED91FC91BB81B13061F40480F581EB
:1029A000E02D2E813F814C895D896A8D7B8DC4012C
:1029B00009950CC00684F785E02DEE80FF80860126
:1029C00096014D855E85B201C4010995BB0CEA8D67
:1029D000FB8D3196FB8FEA8F4C0C5D1CC3CF5C8165
:1029E0008885580F5C83A39499CF6B960FB6F894A3
:1029F000DEBF0FBECDBFDF91CF911F910F91FF9032
:102A0000EF90DF90CF90BF90AF909F908F907F908E
:102A10006F905F904F903F902F900895AF92BF922C
:102A2000CF92EF92FF920F931F93CF93DF93EC011E
:102A3000262F888D998D009709F042C06A3069F47D
:102A40002C898E859F8538E0239F800D911D112450
:102A50009F878E871D861C86ACC06D3009F4A9C087
:102A60008E898823C1F03C898C859D8546E0349F02
:102A7000800D911D112448855985841795075CF0B8
:102A80001D861C868E859F85E8E03E9F800D911DEA
:102A900011249F878E87EA88FB88088919894E85CB
:102AA0005F856C857D85CC88CE010E9468132C895A
:102AB0008C859D85F6E02F9F800D911D112441C0CE
:102AC0006A3079F41D861C862C89FC013696E491C7
:102AD0008E859F852E9F800D911D11249F878E8747
:102AE00068C06D3009F465C0AC014C5F5F4FFA01FE
:102AF0003491631708F45DC03196E491E61708F449
:102B000058C0FA014491362F341BFC013296A5902F
:102B1000B490F7E03F9FA00CB11C1124F501329650
:102B200034913196E491332311F0E1110DC0F50198
:102B30003496E4912C898C859D85E29F800D911DB2
:102B400011249D878C8735C0F501359644915E89A7
:102B5000552311F16C89E32FF0E0E40FF11D47FDDF
:102B6000FA956E9FD0016F9FB00D11244C855D8545
:102B70004A0F5B1FE885F9854E175F076CF01D86CD
:102B80001C86FC013696E4918E859F856E9F800D94
:102B9000911D11249F878E87EA88FB8808891989EF
:102BA0004E855F856C857D85CC88CE010E9468133B
:102BB000BECF81E090E0DF91CF911F910F91FF9008
:102BC000EF90CF90BF90AF900895EF92FF920F9348
:102BD0001F93DC01ED91FC9111971A960D911C91B8
:102BE0001B9718962D913C9119970684F785E02D37
:102BF0007B0140E050E060E070E009951F910F918B
:102C0000FF90EF9008956F927F928F929F92AF9274
:102C1000BF92CF92DF92EF92FF920F931F93CF93C9
:102C2000DF936C015A014801EB013B01620E731EF8
:102C3000C615D70574F4D601ED91FC910084F18599
:102C4000E02D87019401A501BE01C60109952196D9
:102C5000EFCFDF91CF911F910F91FF90EF90DF9019
:102C6000CF90BF90AF909F908F907F906F9008957E
:102C7000EF92FF920F931F93DC01ED91FC91260FD1
:102C8000371F215031090680F781E02D78018A0134
:102C900009951F910F91FF90EF900895EF92FF9289
:102CA0000F931F937801DC01ED91FC91240F351FE8
:102CB0008901015011090680F781E02D9B010995DA
:102CC0001F910F91FF90EF9008956F927F928F92D6
:102CD0009F92AF92BF92CF92DF92EF92FF920F93AB
:102CE0001F93CF93DF93EC014B015A016901380127
:102CF000E881F9810284F385E02D87010995E88157
:102D0000F981A501460D571D415051090284F385F3
:102D1000E02D9601B401CE010995E881F981008486
:102D2000F185E02D9301A501B401CE010995E8815B
:102D3000F981C80CD91CB601615071090084F18574
:102D4000E02D9301A501CE010995DF91CF911F914F
:102D50000F91FF90EF90DF90CF90BF90AF909F903A
:102D60008F907F906F9008952F923F924F925F9235
:102D70006F927F928F929F92AF92BF92CF92DF928B
:102D8000EF92FF920F931F93CF93DF9300D01F9288
:102D9000CDB7DEB74C017B836A836A015901170105
:102DA0009801241B350B37FF03C03195219531095C
:102DB000C5014A815B81841B950B97FF03C09195E8
:102DC0008195910951E059838217930714F0198274
:102DD0000BC09A2D8B2D5801092F182F9A818B81AA
:102DE000DB82CA82C92ED82E8A819B81A816B90699
:102DF0005CF49C2D8D2D6801092F182F9A818B81F1
:102E0000BB82AA82A92EB82E2501AA81BB814A1AAB
:102E10005B0A38016C187D0877FE03C071946194D9
:102E20007108720157FE03C0BFEFEB1AFB0AF5945D
:102E3000E794C016D1061CF00FEF1FEF1FC001E092
:102E400010E01CC0D401ED91FC91B9810480F581A2
:102E5000E02D9101BB23C1F04A815B81B601C40121
:102E60000995E618F708F7FE04C0C00ED11EE40C61
:102E7000F51CEA81FB813196FB83EA834A815B8101
:102E8000A416B506FCF604C0A6016A817B81E7CFD3
:102E90000F900F900F90DF91CF911F910F91FF90A6
:102EA000EF90DF90CF90BF90AF909F908F907F90EA
:102EB0006F905F904F903F902F900895AF92BF9288
:102EC000CF92DF92EF92FF920F931F93CF93DF93F6
:102ED000FC01A38DB48D9C9187A189238C93A58D32
:102EE000B68D9C9180A589238C93828D8230B9F018
:102EF000811113C08BB183708BB985B18C7F85B97B
:102F0000A78DB0A19C9181A589238C93A78DB0A199
:102F10009C9185A1892B8C9309C0833039F48BB1A6
:102F200083708C628BB985B18C7F07C08BB1837045
:102F300080628BB985B18C7F826085B9A78DB0A185
:102F40009C9181A589238C93A78DB0A19C9185A18B
:102F5000892B8C93A58DB68D9C9184A1892B8C9304
:102F60008BB1972F9C7FB92E8370892B8BB985B13C
:102F7000A72FA370AA2E8C7F8A2B85B9C78DD0A1CD
:102F8000988181A589238883C78DD0A1988185A147
:102F9000892B88838BB1C62FCC7F83708C2B8BB908
:102FA00085B1D62FD3708C7F8D2B85B9078D10A15D
:102FB000D8019C9181A589238C93078D10A1D801FC
:102FC0009C9185A1892B8C9321503109410951098C
:102FD00069017A0186E0F694E794D794C7948A95BC
:102FE000D1F7C601761348C1019708F465C060E1C6
:102FF000A78DB0A1CC9171A57C237C93A78DB0A1A6
:10300000CC9175A17C2B7C93A78DB0A1CC9171A59F
:103010007C237C93A78DB0A1CC9175A17C2B7C9354
:10302000A78DB0A1CC9171A57C237C93A78DB0A175
:10303000CC9175A17C2B7C93A78DB0A1CC9171A56F
:103040007C237C93A78DB0A1CC9175A17C2B7C9324
:10305000A78DB0A1CC9171A57C237C93A78DB0A145
:10306000CC9175A17C2B7C93A78DB0A1CC9171A53F
:103070007C237C93A78DB0A1CC9175A17C2B7C93F4
:10308000A78DB0A1CC9171A57C237C93A78DB0A115
:10309000CC9175A17C2B7C93A78DB0A1CC9171A50F
:1030A0007C237C93A78DB0A1CC9175A17C2B7C93C4
:1030B000615009F09DCF98CF2F732150C8F0A78D94
:1030C000B0A19C9181A589238C93A78DB0A19C91DF
:1030D00085A1892B8C93A78DB0A19C9181A5892373
:1030E0008C93A78DB0A19C9185A1892B8C93E5CF62
:1030F000A38DB48D9C9183A1892B8C93DF91CF916B
:103100001F910F91FF90EF90DF90CF90BF90AF9005
:1031100008956BB163706B296BB965B16C7F6A29D7
:1031200065B9078D10A1D801FC9061A56F216C9342
:10313000078D10A1D801FC9065A16F296C936BB12C
:1031400063706C2B6BB965B16C7F6D2B65B9078DA6
:1031500010A1D801FC9061A56F216C93078D10A17F
:10316000D801FC9065A16F296C936BB163706B29DA
:103170006BB965B16C7F6A2965B9078D10A1D8015B
:10318000FC9061A56F216C93078D10A1D801FC9074
:1031900065A16F296C936BB163706C2B6BB965B1D2
:1031A0006C7F6D2B65B9078D10A1D801FC9061A5CE
:1031B0006F216C93078D10A1D801FC9065A16F2938
:1031C0006C936BB163706B296BB965B16C7F6A29C5
:1031D00065B9078D10A1D801FC9061A56F216C9392
:1031E000078D10A1D801FC9065A16F296C936BB17C
:1031F00063706C2B6BB965B16C7F6D2B65B9078DF6
:1032000010A1D801FC9061A56F216C93078D10A1CE
:10321000D801FC9065A16F296C936BB163706B2929
:103220006BB965B16C7F6A2965B9078D10A1D801AA
:10323000FC9061A56F216C93078D10A1D801FC90C3
:1032400065A16F296C936BB163706C2B6BB965B121
:103250006C7F6D2B65B9078D10A1D801FC9061A51D
:103260006F216C93078D10A1D801FC9065A16F2987
:103270006C93715009F04DCF019710F070E149CF78
:103280002F73215008F434CF8BB183708B298BB905
:1032900085B18C7F8A2985B9478D50A1DA019C912F
:1032A00081A589238C93478D50A1DA019C9185A13A
:1032B000892B8C938BB183708C2B8BB985B18C7FD0
:1032C0008D2B85B9478D50A1DA019C9181A5892369
:1032D0008C93478D50A1DA019C9185A1892B8C9309
:1032E000D0CFCF93DF93EC01EB8DFC8D90818FA13C
:1032F00089238083288539852150310945E064E0A0
:10330000CE010E94C0102A853B852150310949E039
:1033100068E0CE010E94C010EB8DFC8D90818BA1E6
:10332000892B8083DF91CF9108958F929F92AF92E6
:10333000BF92CF92DF92EF92FF920F931F93CF93A2
:10334000DF93EC017A016901EB8DFC8D30812FA1B7
:10335000232320832A8D21115EC02D89223089F0FC
:10336000233021F1213081F52FEE30E0A901401BFF
:10337000510B5B0149018E189F08860164017B0196
:1033800013C02FEE30E0A9014C195D096901C61A7E
:10339000D70A8FE391E09C01201B310B8C010E19A1
:1033A0001F09580146017901BA0110C02FE331E02D
:1033B000A9014C195D095901A61AB70A470168010C
:1033C0008501B7017A0102C05A014B01AB0160E5EA
:1033D00070E0CE010E943611A60161E570E0CE01D9
:1033E0000E943611A70162E570E0CE010E943611FD
:1033F000A80163E570E0CE010E943611A40160E2ED
:1034000070E0CE010E943611A50161E270E0CE01AC
:103410000E94361147C02130C1F49B0143E062E0B5
:103420000E94C010970147E066E0CE010E94C010E4
:10343000960145E064E0CE010E94C010980149E089
:1034400068E0CE010E94C0102DC02250223050F5FD
:10345000CB01770FAA0BBB0BDC0199278827A601AC
:10346000DD0C660B770B9A01AB01282B392B4A2B0D
:103470005B2B6AE2CE010E941010C701FF0CAA0B61
:10348000BB0BDC0199278827A801110F660B770B6E
:103490009A01AB01282B392B4A2B5B2B6BE2CE0117
:1034A0000E941010EB8DFC8D90818BA1892B808365
:1034B000DF91CF911F910F91FF90EF90DF90CF9010
:1034C000BF90AF909F908F900895CF92DF92EF9230
:1034D000FF920F931F93CF93DF93EC0168011216B5
:1034E00013060CF04EC057FD4CC08A859B854817CB
:1034F00059070CF046C0E885F9856E177F070CF078
:1035000040C07B01E20EF31EC701019797FD39C051
:1035100077FF35C060E070E08E179F072CF0CF0179
:1035200001977F01E61AF70A8A019C01CE010E94E9
:1035300095199701FF0C440B550BB601CE010E9463
:103540005E178A8D811110C00A851B8501501109F3
:10355000288539852150310940E050E060E070E075
:10356000CE010E9495190DC0CE01DF91CF911F9120
:103570000F91FF90EF90DF90CF900C94711979012B
:10358000CBCFDF91CF911F910F91FF90EF90DF9004
:10359000CF900895FC0124813581232B31F421E063
:1035A00061157105A1F0FB0108C0FC0180819181CA
:1035B0006115710531F421E0FC018081882339F027
:1035C00005C00E941B3A21E0892B09F020E0822FE0
:1035D00008950F931F93CF93DF93EC018881998116
:1035E000009729F02A813B812617370788F48B0141
:1035F0006F5F7F4F0E944339009761F09983888302
:103600001B830A832C813D81232B11F4FC01108242
:1036100081E001C080E0DF91CF911F910F9108956B
:10362000EF92FF920F931F93CF93DF93FC012481BE
:1036300035816115710511F480E019C041155105FE
:10364000A9F07B01EC018A01020F131FB8010E944F
:10365000E91A882389F3288139818C819D81B701FA
:10366000820F931F0E94243A1D830C8381E0DF9117
:10367000CF911F910F91FF90EF900895CF93DF931B
:10368000EC0188819981009711F00E94AB38198272
:1036900018821D821C821B821A82DF91CF910895AD
:1036A000EF92FF920F931F93CF93DF93EC017B0177
:1036B0008A01BA010E94E91A811104C0CE010E9458
:1036C0003E1B07C01D830C83B701888199810E942E
:1036D000243ACE01DF91CF911F910F91FF90EF908F
:1036E0000895CF93DF93C091D303D091D40364ECBA
:1036F00071E0CE010E946E286DEE71E0CE01DF9187
:10370000CF910C946E280F931F93CF93DF93837008
:103710008093940420918304309184044091850423
:1037200050918604813059F0833049F030938804F9
:103730002093870450938A044093890408C05093CF
:1037400088044093870430938A0420938904E0918D
:103750009A04F0919B0490818091A6048923808330
:1037600080919904811129C0E0919404E150E330E3
:1037700040F4F0E0EE0FFF1FEC5BFE4F4081518103
:1037800002C040E350E163E070E08FE794E00E9404
:1037900036110091890410918A0401501109209179
:1037A0008704309188042150310940E050E060E006
:1037B00070E08FE794E00E94951980919904813020
:1037C000A1F4E0919404E150E33028F4F0E0EF5BE1
:1037D000FE4F408101C040E066E18FE794E00E9427
:1037E000F4118FE794E00E9471198091990482305E
:1037F00051F580919404813059F040F0823021F0ED
:10380000833039F4D8E205C0D8E403C0D8E801C059
:10381000D8EE4D2F66E38FE794E00E94F4110091FB
:10382000890410918A040150110920918704309174
:1038300088042150310940E050E060E070E08FE7FB
:1038400094E00E94951980919904833051F58091FC
:103850009404813059F040F0823021F0833039F403
:10386000C0E605C0C0E003C0C0EC01C0C0EA4C2FF8
:1038700066E38FE794E00E94F411009189041091AF
:103880008A04015011092091870430918804215045
:10389000310940E050E060E070E08FE794E00E9482
:1038A0009519DF91CF911F910F910895E0919A049E
:1038B000F0919B0490818091A204892B8083E091F8
:1038C0009E04F0919F0490818091A404892B8083B1
:1038D000E091A004F091A10490818091A504892B2E
:1038E00080838091AA04882371F060E00E94FD0E1D
:1038F00062E070E080E090E00E94800F61E08091E3
:10390000AA040E94FD0EE0919A04F0919B0490811C
:103910008091A60489238083E0919C04F0919D040A
:1039200090818091A704892380838BB183708BB9A8
:1039300085B18C7F85B9E0919E04F0919F049081C0
:103940008091A80489238083E0919E04F0919F04D4
:1039500090818091A404892B808383E0E0919E0470
:10396000F0919F0420819091A80492239083E0918C
:103970009E04F0919F0420819091A404922B908347
:10398000815061F7E0919A04F0919B0490818091BD
:10399000A204892B80830895CF93DF93DC01ED91FE
:1039A000FC91EB01A881B981309711F01097C9F40F
:1039B000109759F0EB012C813D81232B31F08C9134
:1039C00090E091958195910914C0309781F0DC01C8
:1039D00014968D919C911597892B49F0808190E0E8
:1039E00008C0BD01CF01DF91CF910C941B3A80E05C
:1039F00090E0DF91CF910895CF93DF93EC016115B3
:103A0000710561F0FB0101900020E9F73197AF01EA
:103A1000461B570B0E94101B811103C0CE010E9450
:103A20003E1BCE01DF91CF910895CF93DF93EC0140
:103A3000FB0144815581608171810E94101B8111BD
:103A400003C0CE010E943E1BCE01DF91CF910895AD
:103A5000FC01808191810C94AB38EF92FF920F931F
:103A60001F93CF93DF93CDB7DEB762970FB6F8946D
:103A7000DEBF0FBECDBF8C01CB01F80111821082D9
:103A8000138212821582148250E09E012F5F3F4FF5
:103A90007901B9010E948C34F70101900020E9F707
:103AA0003197AF014E195F09B701C8010E94501B41
:103AB00062960FB6F894DEBF0FBECDBFDF91CF91F7
:103AC0001F910F91FF90EF900895FB01DC0111967B
:103AD0001C921E9213961C921E92129715961C927F
:103AE0001E9214978617970749F0608171816115BE
:103AF000710521F0448155810C94501B0895FC01FF
:103B0000118210821382128215821482611571054E
:103B100051F0FB0101900020E9F73197AF01461BFE
:103B2000570B0C94501B08952F923F924F925F9227
:103B30006F927F928F929F92AF92BF92CF92DF92BD
:103B4000EF92FF920F931F93CF93DF93CDB7DEB722
:103B5000A8970FB6F894DEBF0FBECDBF8230910597
:103B600061F08330910569F0019789F47AE0272E9E
:103B7000312CE5E0AE2EB12C0AC064E0262E312CAB
:103B800003C05FE0252E312C44E0A42EB12C86E04A
:103B90008A9D90018B9D300D112438A72FA3612C95
:103BA000712C81E190E09EA38DA337E0432E512C30
:103BB0002A143B040CF429C18FA198A5860D971DEA
:103BC0009C01235E3B4F7901B901CE0101960E9411
:103BD000651D61E070E0CE0101960E941B224C0140
:103BE000CE0101960E94281DB701CE0101960E94C8
:103BF000651D62E070E0CE0101960E941B226C01FF
:103C0000CE0101960E94281DB701CE0101960E94A7
:103C1000651D63E070E0CE0101960E941B228C01BD
:103C2000CE0101960E94281DB701CE014F960E9439
:103C3000651DBE01615E7F4FCE0101960E94651D2C
:103C40004AE0B801CE0107960E942D1D4AE0B60158
:103C5000CE010D960E942D1D4AE0B401CE0143967F
:103C60000E942D1D6BEC71E0CE0149960E947F1DD4
:103C7000BE016D5E7F4FCE0149960E94151D6FEC0F
:103C800071E00E94FC1CBE01635F7F4F0E94151D06
:103C900064ED71E00E94FC1CBE01695F7F4F0E94D1
:103CA000151D69ED71E00E94FC1CBE016F5F7F4F26
:103CB0000E94151D0E942228CE0149960E94281DAF
:103CC000CE0143960E94281DCE010D960E94281D0C
:103CD000CE0107960E94281DCE0101960E94281D44
:103CE0000330110519F405EE1FEA02C008E116ECD5
:103CF00061E072E0C7010E94CA1A882311F000EE49
:103D00001FEF64E971E0C7010E94CA1A811107C060
:103D100067E971E0C7010E94CA1A882319F0442498
:103D20004394512C65E971E0C7010E94CA1A8111C0
:103D300007C068E971E0C7010E94CA1A882329F008
:103D400097E0492E512C0EE416EA6AE971E0C701AA
:103D50000E94CA1A882389F041E050E06EED71E0BC
:103D6000CE014F960E94501B8FE090E09EA38DA342
:103D700083E0482E512C00EE1FEF780104E010E0A4
:103D80002EE130E04EE150E0B601C4010E943C2635
:103D90002DA13EA1C20ED31E840C951C90928C04C2
:103DA00080928B04D0928E04C0928D041092920463
:103DB000109291041092900410928F0480919704B5
:103DC00090919804892B39F436E0C30ED11CD0921F
:103DD0008E04C0928D0483E898E1909398048093B8
:103DE0009704BE01615E7F4F8FE794E00E946028D8
:103DF0000E94CE22CE014F960E94281D9FEFA91A45
:103E0000B90A26E0620E711CD3CEA8960FB6F894BC
:103E1000DEBF0FBECDBFDF91CF911F910F91FF90FD
:103E2000EF90DF90CF90BF90AF909F908F907F905A
:103E30006F905F904F903F902F9008954F925F92B8
:103E40006F927F92EF92FF920F931F93CF93DF9326
:103E5000CDB7DEB7A1970FB6F894DEBF0FBECDBFCA
:103E60007C01FA01CB0119A2223008F42AE08E016C
:103E70000F5D1F4F422E512C612C712CBF01A301ED
:103E800092010E94C735F901CA01015011096A3037
:103E900014F4605D01C0695CD8016C93232B242B62
:103EA000252B61F7B801C7010E946E28A1960FB6B5
:103EB000F894DEBF0FBECDBFDF91CF911F910F9160
:103EC000FF90EF907F906F905F904F900895CF9309
:103ED0009091A703992309F465C0C82F8091D3035B
:103EE0009091D403DC01ED91FC910480F581E02DEB
:103EF0000995811117C085E656C08091D303909132
:103F0000D403DC01ED91FC910680F781E02D099549
:103F1000883609F447C0A0F0813709F443C08637DA
:103F200009F441C08091D3039091D403DC01ED9159
:103F3000FC910480F581E02D09958111DECFDBCF66
:103F4000883571F1833671F70E94BA0F609393033D
:103F500070939403809395039093960360EE71E0C1
:103F60008091D3039091D4030E9483284C2F50E07A
:103F700060E070E02AE08091D3039091D4030E9426
:103F80001E1F67EE71E08091D3039091D4030E94CD
:103F9000832862E370E080E090E00E94800F02C01E
:103FA0001092A70383E6CF910895BF92CF92DF923C
:103FB000EF92FF920F931F93CF93DF93B82E0E943F
:103FC000BA0F6B017C0101E913E0C3EDD3E060EFB0
:103FD00071E0888199810E9483284B2D50E060E038
:103FE00070E02AE0888199810E941E1F67EF71E0CE
:103FF000888199810E9483282AE0B701A6018881DF
:1040000099810E941E1F69EF71E0888199810E9449
:104010008328F80186819781A085B185B701A60123
:10402000481B590B6A0B7B0B2AE0888199810E94FF
:104030001E1F69EF71E0888199810E948328F80131
:10404000468157816085718582859385A485B58574
:10405000481B590B6A0B7B0B2AE088819981DF9101
:10406000CF911F910F91FF90EF90DF90CF90BF9075
:104070000C941E1FCF92DF92EF92FF920F931F932B
:10408000CF93DF93EC016A017B01E881F981019014
:10409000F081E02D6DE209958C0144275527BA0186
:1040A0004C195D096E097F092AE0CE010E941E1F8E
:1040B000800F911FDF91CF911F910F91FF90EF9093
:1040C000DF90CF90089585ED8093BC008091BC0077
:1040D00084FDFCCF1092CC0208954091A602262FB9
:1040E00030E0240F311D21323105DCF42091CC0267
:1040F0002430C9F4FC0180E090E0861758F4309138
:10410000A6022191DC01AC57BD4FA30FB11D2C932A
:104110000196F3CF8091A602680F6093A60280E01B
:10412000089581E0089582E0089508958FEF9FEF4C
:1041300008958FEF9FEF08958091830290E091950D
:10414000819591090895CF93DF9300D0CDB7DEB765
:10415000CB01642F49835A830E946D204981842FAB
:104160005A81952F0F900F90DF91CF910895CF93A3
:10417000DF931F92CDB7DEB7698361E0CE01019670
:104180000E946D2081E090E00F90DF91CF91089523
:1041900080916C0290916D0220916E0230916F02BD
:1041A000821B930B813426E092071CF080589C40C0
:1041B0000895803C29EF92071CF48058934F08958E
:1041C00080E090E008951F920F920FB60F92112495
:1041D0000F900FBE0F901F9018951F920F920FB661
:1041E0000F9211242F933F934F935F936F937F937D
:1041F0008F939F93AF93BF93EF93FF938091B900F9
:10420000887F803609F49CC068F5883209F45BC069
:1042100090F4803109F454C038F4882309F4F6C0CE
:10422000883009F44DC0F6C0883109F44CC08032A2
:1042300009F45DC0EFC0803409F468C048F48033ED
:1042400009F455C0883309F0E5C08093CB02D8C08B
:10425000803509F44FC0883509F45DC0883409F011
:10426000D9C0D6C0883909F4C7C0A8F4883709F482
:1042700067C038F4883609F463C0803709F460C039
:10428000C9C0883809F4B8C0803909F45FC08038E3
:1042900009F0C0C05BC0803B09F486C038F4803AA6
:1042A00009F466C0883A09F47FC0B4C0803C09F4C0
:1042B000A7C0883C09F4A4C0883B09F48AC0AAC0FE
:1042C0008091F10210C09091F0028091EF02981756
:1042D00070F5E091F00281E08E0F8093F002F0E043
:1042E000E153FD4F80818093BB0085EC86C08093B5
:1042F000CB028EC0E091F00281E08E0F8093F0023D
:104300008091BB00F0E0E153FD4F80839091F0027B
:104310008091EF026EC0E091F00281E08E0F8093F9
:10432000F0028091BB00F0E0E153FD4F808380916B
:10433000CE0281116DC081E08093CD0284EA61C01C
:1043400083E08093CC021092CA02CFCF8091CA0240
:10435000803208F051C0E091CA0281E08E0F809354
:10436000CA028091BB00F0E0E655FD4F8083BDCFCF
:1043700085EC8093BC001092CC028091CA028032FE
:1043800030F4E091CA02F0E0E655FD4F10826091F2
:10439000CA0270E0E091A802F091A9028AEA92E0D4
:1043A00009951092CA0236C084E08093CC02109224
:1043B000A7021092A602E091A402F091A50209952D
:1043C0008091A602811105C081E08093A60210921F
:1043D0008402E091A70281E08E0F8093A702F0E0B3
:1043E000EC57FD4F80818093BB009091A702809194
:1043F000A602981708F479CF85E88093BC000AC01C
:1044000085EC8093BC001092CC0204C01092CB02C9
:104410000E946320FF91EF91BF91AF919F918F9187
:104420007F916F915F914F913F912F910F900FBEB0
:104430000F901F9018958F929F92AF92BF92CF923C
:10444000DF92EF92FF920F931F93CF93DF935C0164
:104450006B01FC01848095803DE1E32E34E0F32E76
:1044600000E010E0CFEFDFEFF70184819581881540
:10447000990539F4B501C7010E94CC1C892B09F4B8
:10448000E8010F5F1F4FF6E0EF0EF11C0031110540
:1044900059F782E0C816D10461F0E3E0CE16D104EA
:1044A00069F0CA94CD2889F4CC0FDD1FC65BDD4FBF
:1044B00009C0CC0FDD1FC65DDD4F04C0CC0FDD1F72
:1044C000C050DF4F8881998101C0CE01DF91CF912B
:1044D0001F910F91FF90EF90DF90CF90BF90AF9022
:1044E0009F908F9008955F926F927F928F929F928C
:1044F000AF92BF92CF92DF92EF92FF920F931F93F2
:10450000CF93DF938C015B016A017901FC01848008
:104510009580612C712CCFEFDFEF46E0542E569C36
:10452000C001579C900D1124835E9B4FFC01248198
:1045300035812815390549F4B8010E94CC1C892B16
:1045400021F4E30130E1632E712CFFEF6F1A7F0A33
:1045500080E1681671041CF3CE01880F991FFC01DD
:10456000E65BFD4FB182A082FC01E65DFD4FD1828A
:10457000C082FC01E050FF4FF182E082DF91CF91D9
:104580001F910F91FF90EF90DF90CF90BF90AF9071
:104590009F908F907F906F905F90089510929204FB
:1045A000109291041092900410928F0480919704BD
:1045B00090919804892B49F080918D0490918E04FC
:1045C000069790938E0480938D0410929804109215
:1045D0009704089568E671E00E94D937825F9E4F84
:1045E000883641E0940714F0885691400895AF92C0
:1045F000BF92CF92DF92EF92FF920F931F93CF93D0
:10460000DF9300D000D0CDB7DEB78C015B01BA01DB
:10461000550F880B990B0E94CE342BED3FE049E4F7
:1046200050E40E94093520E030E044E353E40E9466
:10463000A1360E9488379B01AC01B801110F880B8D
:10464000990B29833A834B835C830E94CE346B01A0
:104650007C01B501BB0C880B990B0E94CE342981DB
:104660003A814B815C810E9409359B01AC01C701F5
:10467000B6010E9430360E941337CB010F900F9085
:104680000F900F90DF91CF911F910F91FF90EF90BE
:10469000DF90CF90BF90AF900895AF92BF92CF922E
:1046A000DF92EF92FF920F931F93CF93DF9300D08F
:1046B00000D0CDB7DEB78C015B01BA01550F880B76
:1046C000990B0E94CE342BED3FE049E450E40E9468
:1046D000093520E030E044E353E40E94A1360E9413
:1046E0009C369B01AC01B801110F880B990B2983F3
:1046F0003A834B835C830E94CE346B017C01B5010D
:10470000BB0C880B990B0E94CE3429813A814B81D6
:104710005C810E9409359B01AC01C701B6010E9472
:1047200030360E941337CB010F900F900F900F90EF
:10473000DF91CF911F910F91FF90EF90DF90CF907D
:10474000BF90AF9008954F925F926F927F928F9239
:104750009F92AF92BF92CF92DF92EF92FF920F9310
:104760001F93CF93DF9300D000D000D0CDB7DEB73A
:104770003C012091870430918804C901859797FDF9
:1047800003969595879595958795909329028093A3
:1047900028021092920410929104109290041092A8
:1047A0008F043DE1832E34E0932EA12CB12C4EE0FA
:1047B000C42ED12C59E0452E512C20912802309145
:1047C00029026A147B0429F498E1E92E96ECF92E6B
:1047D00004C08FEEE82E8BE7F82E04E110E046E0EF
:1047E00050E0B6018FE794E00E948C0DB401CE0139
:1047F00001960E94651D21E030E046E050E0B601E0
:10480000CE0101960E947322CE0101960E94281DBE
:10481000C601029690938C0480938B0450928E0470
:1048200040928D04B4018FE794E00E9460280E94BA
:10483000CE228FEFA81AB80A84E0A816B10469F056
:104840008091280290912902C80ED91E83E0C80EDB
:10485000D11C86E0880E911CB0CF26960FB6F89436
:10486000DEBF0FBECDBFDF91CF911F910F91FF90A3
:10487000EF90DF90CF90BF90AF909F908F907F9000
:104880006F905F904F9008952F923F924F925F925A
:104890006F927F928F929F92AF92BF92CF92DF9250
:1048A000EF92FF920F931F93CF93DF934C016B0115
:1048B0005A01E901270160901B0470901C04AC01AF
:1048C000B501C3010E944D231C01E0901704F09034
:1048D0001804A401B501C7010E94F7225C01A601DA
:1048E000BE01C3010E944D234C01A601BE01C701B8
:1048F0000E94F722800F911FA501400F511F7201E6
:104900008C019401B1018FE794E00E94B416DF910D
:10491000CF911F910F91FF90EF90DF90CF90BF90BC
:10492000AF909F908F907F906F905F904F903F904F
:104930002F9008952F923F924F925F926F927F92A5
:104940008F929F92AF92BF92CF92DF92EF92FF929F
:104950000F931F93CF93DF9300D000D0CDB7DEB776
:10496000611107C01A821982212C312C412C512C43
:104970000CC020E038EF3A83298320EE222E27E076
:10498000322E30E1432E34E8532E0E94EA223C01BD
:104990005C013DE9A31A3EEFB30A87549F4F9C8305
:1049A0008B83430195E0890E911C6301EFEACE0EE3
:1049B000D11C609117047091180420E134E843E0A1
:1049C00050E080911B0490911C040E94AB26720160
:1049D00000E010E024E330E044E350E06B817C81B0
:1049E000C5010E94442424E330E044E350E0B601D2
:1049F000C4010E94442424E330E044E350E0B401C5
:104A0000C5010E94442424E330E044E350E0B601B1
:104A10008B819C810E94442421E0A10162E070E02E
:104A2000C3010E94DA2721E049815A8162E070E0E7
:104A3000C301845B91090F900F900F900F90DF914D
:104A4000CF911F910F91FF90EF90DF90CF90BF908B
:104A5000AF909F908F907F906F905F904F903F901E
:104A60002F900C94DA272F923F924F925F926F9281
:104A70007F928F929F92AF92BF92CF92DF92EF92EE
:104A8000FF920F931F93CF93DF9300D000D000D0FD
:104A9000CDB7DEB75C014B015E834D83280181E019
:104AA00090E03C01641A750ACA01919581959109BB
:104AB000AC01440F551F5A8349831801CC24C39479
:104AC000D12C522F51705B8322702C83C601019729
:104AD0002D813E81821793070CF080C077FC0CC0BB
:104AE0008D819E8101979E838D83E981FA81329623
:104AF000FA83E9836E0E7F1EC601880F991F019607
:104B0000680E791EFB81FF2379F1E0917F04F0911B
:104B100080042D813E81220F331F2F5F3F4F240DD4
:104B2000351D0084F185E02D8701A4018D819E81D2
:104B3000481B590BB6016A0D7B1D8FE794E0099560
:104B4000E0917F04F09180040084F185E02D9101D3
:104B50002D5F3F4FA4014C195D096D817E816A0D67
:104B60007B1D8FE794E009959C81992381F1E09169
:104B70007F04F09180042D813E81220F331F2F5F2F
:104B80003F4F240D351D0084F185E02D8701A401E0
:104B90008D819E81481B590BB5016C197D098FE7EA
:104BA00094E00995E0917F04F09180040084F18500
:104BB000E02D91012D5F3F4FA4014C195D09B50116
:104BC0008D819E81681B790B8FE794E009959FEF9B
:104BD000C91AD90AE2E02E0E311C78CF26960FB6FC
:104BE000F894DEBF0FBECDBFDF91CF911F910F9123
:104BF000FF90EF90DF90CF90BF90AF909F908F90FD
:104C00007F906F905F904F903F902F900895AF925C
:104C1000BF92CF92DF92EF92FF920F931F93CF93A9
:104C2000DF936C015B01EA017901E0917F04F0916F
:104C300080049A01220F331F2F5F3F4FAB014C1BA3
:104C40005D0B0084F185E02D8701B6018FE794E0CC
:104C5000099500E010E023E0AE01B501C6010E9415
:104C60003325DF91CF911F910F91FF90EF90DF904F
:104C7000CF90BF90AF9008952F923F924F925F9246
:104C80006F927F928F929F92AF92BF92CF92DF925C
:104C9000EF92FF920F931F93CF93DF9300D000D03A
:104CA000CDB7DEB73C015B012A013C832B83680151
:104CB00088279927801B910B9C01220F331F3A8371
:104CC00029831301200E311EE0917F04F0918004AE
:104CD000240F351F0684F785E02D0B811C81AB0165
:104CE000B1018FE794E009952B813C8189819A81FC
:104CF000280F391FD9011197BA83A983AC0CBD1CA9
:104D0000640C751CC3018C199D098D0121E0A6015D
:104D1000B50101970E94332509811A8122E0A6017D
:104D2000B501C1010E9433250F900F900F900F9095
:104D3000DF91CF911F910F91FF90EF90DF90CF9077
:104D4000BF90AF909F908F907F906F905F904F90AB
:104D50003F902F9008952F923F924F925F926F92C3
:104D60007F928F929F92AF92BF92CF92DF92EF92FB
:104D7000FF920F931F93CF93DF9300D000D000D00A
:104D8000CDB7DEB77C016B015E834D83890181E085
:104D900090E04C01841A950ACA0191958195910978
:104DA0009C01220F331F3A832983E0917F04F09105
:104DB0008004460F571F0480F581E02D9801B7014C
:104DC0008FE794E00995E0917F04F0918004A601BB
:104DD0008D819E81481B590B0480F581E02D98013F
:104DE000B7018FE794E00995E0917F04F09180048A
:104DF0006D817E816E0D7F1D0480F581E02D98010F
:104E0000A6018FE794E00995E0917F04F09180047A
:104E1000B7012D813E81621B730B0480F581E02D6B
:104E20009801A6018FE794E00995A12CB12C81E0AF
:104E300090E09C838B83ED81FE81AE16BF060CF063
:104E4000A0C097FC0DC0ED81FE813197FE83ED83FC
:104E500029813A812E5F3F4F3A832983820E931E28
:104E60003FEFA31AB30A8B819C8102969C838B83AC
:104E7000880E991E25014E0C5F1CE0917F04F09175
:104E800080040480F581E02D98016D807E806C0C9B
:104E90007D1CA301B2018FE794E0099517012A1840
:104EA0003B08E0917F04F09180040480F581E02DBF
:104EB0009801A301B1018FE794E00995E0917F0487
:104EC000F09180040480F581E02D980136018D81F8
:104ED0009E81681A790AA301B2018FE794E00995CF
:104EE000E0917F04F09180040480F581E02D980129
:104EF000A301B1018FE794E0099535016C0C7D1C8D
:104F0000E0917F04F09180040480F581E02D980108
:104F1000A3014D805E804E0C5F1CB2018FE794E0D0
:104F20000995E0917F04F09180040480F581E02DE3
:104F30009801A30117018D819E81281A390AB101B8
:104F40008FE794E0099536016A187B08E0917F04A9
:104F5000F09180040480F581E02D9801A301B20155
:104F60008FE794E00995E0917F04F091800404803C
:104F7000F581E02D9801A301B1018FE794E0099537
:104F80005ACF26960FB6F894DEBF0FBECDBFDF9185
:104F9000CF911F910F91FF90EF90DF90CF90BF9036
:104FA000AF909F908F907F906F905F904F903F90C9
:104FB0002F900895AF92BF92CF92DF92EF92FF921F
:104FC0000F931F93CF93DF931F92CDB7DEB76C0182
:104FD0008B017A01AC0160E370E080911B04909139
:104FE0001C0429830E944D235C01A60160E370E04C
:104FF00080911704909118040E94F722BC01298126
:10500000222381F09701A801C5010F90DF91CF9174
:105010001F910F91FF90EF90DF90CF90BF90AF90D6
:105020000C9407269701A801C5010F90DF91CF913D
:105030001F910F91FF90EF90DF90CF90BF90AF90B6
:105040000C94AB26CF93DF93BC0184EF92E00E94D7
:105050006028EC016DEE71E084EF92E00E946E2812
:105060008C0F9D1FDF91CF910895CF92DF92EF9229
:10507000FF920F931F93CF93DF936C017A018B0103
:10508000C0E0D0E0CE15DF0589F0D8016D918D012B
:10509000D601ED91FC910190F081E02DC6010995BA
:1050A000892B11F47E0102C02196ECCFC701DF915C
:1050B000CF911F910F91FF90EF90DF90CF900895C7
:1050C000DC01ED91FC91DB0114964D915C911597FB
:1050D0006D917C910280F381E02D09946115710539
:1050E00079F0FB0101900020E9F73197AF01461BF1
:1050F000570BDC01ED91FC910280F381E02D0994C6
:1051000080E090E008950C946E28CF93DF93CDB7A4
:10511000DEB7AA970FB6F894DEBF0FBECDBF789466
:1051200084B5826084BD84B5816084BD85B58260AC
:1051300085BD85B5816085BD80916E00816080935D
:105140006E001092810080918100826080938100C6
:1051500080918100816080938100809180008160D6
:10516000809380008091B10084608093B100809131
:10517000B00081608093B00080917A008460809359
:105180007A0080917A00826080937A0080917A0020
:10519000816080937A0080917A00806880937A00A1
:1051A0001092C1001092D5031092D6031092D7032B
:1051B0001092D803109293031092940310929503C7
:1051C0001092960368EB7BE080E090E00E94800FF5
:1051D00084EF92E09093D4038093D303E09104038F
:1051E000F091050382E08083E0910003F0910103D8
:1051F0001082E0910203F091030380E1808310921A
:105200000C03E0910803F091090386E08083E091AC
:105210000603F0910703808180618083E09106039B
:10522000F0910703808188608083E0910603F0910C
:105230000703808180688083E0910603F091070373
:1052400080818F7D80830E94BA0F60939303709357
:105250009403809395039093960362E871E08091A4
:10526000D3039091D4030E9483286AE070E080E029
:1052700090E00E94800F81E08093A7030E94561C5B
:105280000E94561C68EC70E080E090E00E94800F65
:1052900010929904E0919A04F0919B04908180917E
:1052A000A6048923808307E017E0F80165917491D3
:1052B000F8013296459154916F3F710531F4BA016E
:1052C00080E090E00E94800F04C08FE794E00E948D
:1052D00036110C5F1F4F27E0033D120731F7809115
:1052E00094040E94831B0FE311E02FEE30E040E0B6
:1052F00050E060E070E08FE794E00E94951983E051
:105300000E94831B60E070E08FE794E00E94A01190
:1053100061E08DE00E942D0F80E090E00E94A323C9
:105320002091890430918A042052310940918704E8
:10533000509188044C50510968E1E62E66ECF62E37
:1053400003E010E06AE170E086E090E00E943C2615
:105350002091890430918A042652310940918704B2
:105360005091880442515109E12CF12C6DE170E01B
:1053700089E090E00E943C26609117047091180427
:1053800020E134E84CE350E080911B0490911C0430
:105390000E940726609117047091180420E030E005
:1053A00048E350E080911B0490911C040E94072662
:1053B00077E2A72E71E0B72EE5E3EE2EE4E0FE2EB5
:1053C00000E010E0D5016D917D915D01072E000C8C
:1053D000880B990B0E94CE3420E030E048E455E47D
:1053E0000E94A13620E030E044EB53E40E940935EE
:1053F0000E941337CB010E94EA223C0180911B04DA
:1054000090911C048090190490901A04A301011536
:10541000110551F466E470E00E944D230F976C0172
:10542000A3016CE470E009C064E670E00E944D23C3
:105430000F976C01A30164E670E0C4010E94F7229B
:105440000F974C01B701CE0107960E94651DBE0162
:10545000695F7F4FCE0101960E94651D22E030E01A
:10546000A401B601CE0101960E947322CE010196DD
:105470000E94281D20E23DEF43E050E0B401C60148
:105480000E94AB26CE0107960E94281D0F5F1F4F7A
:10549000B6E0EB0EF11C0730110509F093CF20E0C8
:1054A00038EF42E050E068E270E080911B04909198
:1054B0001C040E94AB2620E23DEF43E050E068E28E
:1054C00070E088E290E00E94AB2620E23DEF43E0EE
:1054D00050E068E270E08AE590E00E94AB2680919F
:1054E00087049091880420E23DEF43E050E068E2B9
:1054F00070E0865491090E94AB26809187049091B8
:10550000880420E23DEF43E050E068E270E0885715
:1055100091090E94AB266091890470918A046A52B5
:105520007109809187049091880420E23DEF43E067
:1055300050E08A970E94AB2664E971E0CE010196A3
:105540000E947F1D23E030E048E250E068E270E016
:10555000CE0101960E947322CE0101960E94281D61
:1055600065E971E0CE0101960E947F1D23E030E0E5
:1055700048E250E06AE570E0CE0101960E94732295
:10558000CE0101960E94281D009187041091880485
:105590000654110967E971E0CE0101960E947F1D52
:1055A00023E030E048E250E0B801CE0101960E94CD
:1055B0007322CE0101960E94281D0091870410914C
:1055C00088040857110968E971E0CE0101960E942C
:1055D0007F1D23E030E048E250E0B801CE010196A3
:1055E0000E947322CE0101960E94281DE09089043A
:1055F000F0908A04EAE2EE1AF10800918704109113
:1056000088040A5211096AE971E0CE0101960E94EC
:105610007F1D23E030E0A701B801CE0101960E9472
:105620007322CE0101960E94281D00E011E08AE25B
:10563000A82E82E0B82E9AE4C92E92E0D92E2DE150
:10564000E22E24E0F22ED8016D917D918D014AE089
:10565000CE0101960E942D1DF501619171915F01AE
:105660004AE0CE0107960E942D1DD6016D917D91D5
:105670006D014AE0CE010D960E942D1DB701CE01AD
:1056800043960E94651D6CE971E0CE0149960E9427
:105690007F1DBE016D5E7F4FCE0149960E94151D94
:1056A00064EA71E00E94FC1CBE01635F7F4F0E94B0
:1056B000151D6AEA71E00E94FC1CBE01695F7F4F04
:1056C0000E94151D60EB71E00E94FC1CBE016F5F23
:1056D0007F4F0E94151D0E942228CE0149960E94EC
:1056E000281DCE0143960E94281DCE010D960E94D2
:1056F000281DCE0107960E94281DCE0101960E940A
:10570000281DB6E0EB0EF11CE1E000321E0709F0A7
:105710009ACF81E0209172023091730222303105DC
:1057200009F480E0C82ED12C3601660C771C812C40
:10573000912CF401E60DF71DE95DFE4F608171814A
:10574000072E000C880B990B0E94CE3420E030E02D
:1057500048E455E40E94A13620E030E044EB53E4F5
:105760000E9409350E941337CB010E94EA225C0196
:10577000B0E1EB2EB4E8FB2E04E010E025E530E0CC
:105780004CE350E0BC010E9444240CEF1FEF25E5E0
:1057900030E04CE350E0B501C5010E944424FFEF26
:1057A000CF1ADF0A22E0820E911C87E0C816D104CE
:1057B0000CF4BFCFE0916A02F0916B02EE0FFF1F75
:1057C000E95DFE4F60817181072E000C880B990BFB
:1057D0000E94CE3420E030E048E455E40E94A13637
:1057E00020E030E044EB53E40E9409350E94133777
:1057F0004B015C01CB010E94EA226C0188E390E03E
:105800000E94EA227C01E0916C02F0916D02EE0FA1
:10581000FF1FE95DFE4F60817181072E000C880B30
:10582000990B0E94CE3420E030E048E455E40E9419
:10583000A13620E030E044EB53E40E9409350E9499
:105840001337CB018819990964E170E00E94D937B8
:105850005B018601C12CD12CAC14BD04CCF0C80175
:105860000936A1E01A0714F0885691408E159F055D
:1058700014F021E001C020E040E154E863E070E072
:105880000E94DA27BFEFCB1ADB0A0C5E1F4FE4CF72
:1058900066EB71E0CE0101960E947F1D2091870486
:1058A0003091880437FF02C02F5F3F4F6901D594C4
:1058B000C794E8E3CE1AD108A0901B04B0901C0452
:1058C000AC18BD088090890490908A04CC0CDD1C33
:1058D000A4014E515109EE24EA94FE2C02E110E09D
:1058E0009601B5018FE794E00E946516F2E0AF0ED5
:1058F000B11CB0928C04A0928B04C4014697909383
:105900008E0480938D042D813E8149E0429FC00129
:10591000439F900D112425E0C21AD108C816D9065C
:1059200030F18FEF9FEF90939204809391049093C6
:10593000900480938F048091970490919804892B10
:1059400039F480E1881A910890928E0480928D0437
:1059500083ED97E09093980480939704BE016F5F66
:105960007F4F8FE794E00E9460280E94CE22CE01F4
:1059700001960E94281D68EB7BE080E090E00E9489
:10598000800F61E08DE00E94FD0EA091B004B0E0B8
:10599000FD01EA53F74EE4908091AD04682F70E06A
:1059A000FB01EA53F74E04914091AF0450E0FA0135
:1059B000EA53F74ED4902091AE0430E0F901EA5357
:1059C000F74E2490FD01E855F74EA490FB01E855F1
:1059D000F74EB490FA01E855F74EC490F901E85536
:1059E000F74E24912F8F60E00E942D0F60E0809190
:1059F000AE040E942D0F10E0000F111F0454174E2B
:105A0000F801A591B4918C912B2D20952BA3822385
:105A10008C93312CF101EE0FFF1FCF018454974E70
:105A20001C01FC01A591B4919C918F8D80958923D7
:105A30008C9361E08091B0040E942D0F61E0809111
:105A4000AF040E942D0FF12CF701EE0FFF1FDF01B5
:105A5000A454B74E7D01FD01A591B4918C918A2982
:105A60008C93ED2DF0E0EE0FFF1FE454F74EA5915F
:105A7000B491EC91C094CE22CC928091AD040E945E
:105A8000690F4C018091AD040E94690F2C018FEFCA
:105A900093E06C01C418D50860E08091B0040E94C6
:105AA0002D0F60E08091AF040E942D0FF701A591AA
:105AB000B4918C91A094AFA28A218C9361E08091E3
:105AC000AD040E942D0FF801A591B491EC91BE2A6E
:105AD000BC9261E08091AE040E942D0F8091AF04D2
