:100000000C94C20A0C94021C0C94DB1B0C94EA0A9C
:100010000C94EA0A0C94EA0A0C94EA0A0C94EA0A90
:100020000C94EA0A0C94EA0A0C94EA0A0C94EA0A80
:100030000C94EA0A0C94EA0A0C94EA0A0C94EA0A70
:100040000C94911B0C94EA0A0C94481A0C94221AF2
:100050000C94EA0A0C94EA0A0C94EA0A0C94EA0A50
:100060000C946D0E0C94EA0A084AD73B3BCE016E05
:1000700084BCBFFDC12F3D6C74319ABD56833DDAFF
:100080003D00C77F11BED9E4BB4C3E916BAAAABE0E
:10009000000000803F05A84CCDB2D44EB93836A937
:1000A000020C50B9918688083CA6AAAA2ABE000074
:1000B00000803F00000000000500010000030D0665
:1000C00002F4050007050901F40A000A0C0A00F50C
:1000D0001900090F0A01F32A00100D1000F4440062
:1000E0000C0D0D01F4580003050501F45A0006112A
:1000F0000601F4670006110600F474000506070106
:10010000F4780007080B02F97F0003050401FF8162
:100110000005020600FB830003020401FF840005C2
:100120000D0500F48D00090D0A01F49C00050D0A6F
:1001300002F4A500090D0A01F4B400080D0A01F447
:10014000C100080D0A02F4CE00090D0A01F4DD0019
:10015000090D0A01F4EC00090D0A00F4FB000A0D78
:100160000A00F40C01090D0A01F41B010309040142
:10017000F81F01030C0401F8240109090B01F82FF1
:100180000109060B01FA360109090B01F8410109C1
:100190000D0B01F45001100F1200F46E010C0D0D47
:1001A00000F482010B0D0D01F494010C0D0D01F40E
:1001B000A8010C0D0D01F4BC01090D0C01F4CB01DB
:1001C000090D0B01F4DA010B0D0E01F4EC010B0D1E
:1001D0000D01F4FE01030D0601F40302080D0A01EE
:1001E000F410020C0D0D01F42402080D0B01F43182
:1001F000020E0D1001F448020B0D0E01F45A020D0F
:100200000D0E01F470020B0D0C01F482020D0E0EA6
:1002100001F499020C0D0D01F4AD020B0D0C01F46B
:10022000BF02090D0C02F4CE020B0D0D01F4E00229
:100230000C0D0C00F4F402110D1100F410030C0D60
:100240000C00F424030B0D0C01F43603090D0B0113
:10025000F4450304110601F44E03050D0500F4579F
:100260000304110600F4600308080B01F468030A94
:10027000010A00046A0303020500F46B030A0A0A78
:1002800001F778030A0D0B01F48903090A0A01F743
:100290009503090D0B01F4A403090A0A01F7B00341
:1002A000050D0601F4B903090E0B01F7C903090D89
:1002B0000B01F4D803030D0501F4DD03041105005F
:1002C000F4E603090D0A01F4F503030D0501F4FA40
:1002D000030E0A1001F70C04090A0B01F718040AAF
:1002E0000A0B01F725040A0E0B01F73704090E0B60
:1002F00001F74704060A0701F74F04090A0A01F744
:100300005B04050C0601F56304090A0B01F76F0491
:100310000A0A0A00F77C040E0A0E00F78E040A0A85
:100320000A00F79B040A0E0A00F7AD04080A090147
:10033000F7B70404110701F4C00401110502F4C366
:100340000404110702F4CC0408020900FCFFFFFEBC
:10035000487EEFDFBF7440198667FDFF330CC3335F
:10036000FEFF99866190101F1FDEFF3F83C0FC1FB8
:1003700009FCFEF7F1E04038107C30C620C640C6CC
:10038000407C80399C013E0363026304630C3E0899
:100390001C0E01F83B83B83F01E03E6776E3EE1C9C
:1003A000F3C7FE3F70FFF418631C738E38E38E189A
:1003B00070C3060861830E3871C71C71C638E31814
:1003C00040213E45283870E7FFE70E1CFC9CFFC02B
:1003D000FC08C4231084621188003E3F9DDC7E3FF0
:1003E0001F8FC7E3F1DDCFE3E008FFF39CE739CED1
:1003F00073803E3FB8FC70381C1C1C1C1C1C0FF783
:10040000F83C7FE7E7070C0E0707E7E77E3C0E1E88
:100410001E2E2E4E4E8EFFFF0E0E0E7F3F90180D9D
:10042000E7FB9E070381F1FFE7C03E3F9CFC0EE720
:10043000FBDFC7E3F1DDEFE3E0FFFFC0E0E060706A
:1004400030381C0C0E0703803F1FEE3F87E3CFC7F9
:10045000FBCFE1F87F3DFE3F003E3FBDDC7E3F1F0E
:10046000DEFF3B81F9CFE3C0FC0007E0FC0007E5BD
:10047000E00083C7DF0C0780F81F0180FFFFC0008A
:100480000FFFFC00703F03E0387DF1E080003E3F4D
:10049000B8FC70381C1C1C1C0E000381C003F00F3C
:1004A000FC1E0E380270E96319C219C611C633C6A4
:1004B0003263FE73DC3C001FF807F00700F00F808A
:1004C000F81D819C19C38C3FE7FE706607E070FF42
:1004D0009FFB83F07E0FFF3FF706E0FC1F83FFEFDB
:1004E000F81F83FE78E707E00E00E00E00E0070744
:1004F00078F3FE1F80FF8FFCE0EE0EE07E07E07ECB
:1005000007E07E0EE0EFFCFF80FFFFF81C0E07FB0C
:10051000FDC0E070381FFFF8FFFFF81C0E07FBFD61
:10052000C0E070381C0E000F87F9E3B83E01C038F8
:10053000FF1FE06E0DE39FD0F2E0FC1F83F07E0F03
:10054000FFFFFF07E0FC1F83F07E0EFFFFFFFFFEB3
:100550000707070707070707E7E7E77E3CE0EE1C0A
:10056000E38E70EE0FC0FE0F70E70E38E1CE0EE0A6
:10057000E0E0E0E0E0E0E0E0E0E0E0E0FFFFF87F86
:10058000E1FF87FE1FEC7FB37ECDFB37ECDF9E7E65
:1005900079F9E7E79CE0FE1FC3FC7FCFD9FBBF37AB
:1005A000E7FC7F87F0FE0E0F81FF1E3CE0EE03F0BC
:1005B0001F80FC07E03B839E3C7FC0F800FF9FFB51
:1005C00087F07E0FC3FFF7FCE01C0380700E000F66
:1005D00081FF1E3CE0EE03F01F80FC07E1BB8F9E15
:1005E0003C7FE0FB8008FF8FFCE0EE0EE0EE0EFFAC
:1005F000CFFCE0EE0EE0EE0EE0F03F0FFBC7F07E2A
:1006000001FC1FF03F00FC1DC7BFE1F8FFFFC7035F
:1006100081C0E070381C0E070381C0E0FC1F83F02E
:100620007E0FC1F83F07E0FC1FC7BFE1F060670E17
:1006300070E30C30C39C1981981F80F00F00F00606
:100640000061C3B8E19C70CE3CE336719B30ED98FD
:10065000367C1B3C0F1E078F01C380E18070E78E44
:1006600039C1F81F80F00700F01F819C39C70E7058
:10067000E0E0FC39C718C3B83607C0700E01C038B7
:100680000700E0FFFFC0E0E0F07070707838381FBE
:10069000FFF8FFEEEEEEEEEEEEEFF0861086108441
:1006A00030843080FF7777777777777FF0181C3C3E
:1006B0003E366663C3FFC0CC3F1FEE380E3F9EEE52
:1006C0003B9EFF9EE0E0380E03BCFFBCEE1F87E1BF
:1006D000F87F3BFEEF001F3FDC7C0E070380E37FCB
:1006E0008F000381C0E777FBBF8FC7E3F1FDEFF316
:1006F000B83E3F9CDC3FFFFF81C37F8F003BDDFFA7
:10070000B9CE739CE7003BBFDDFC7E3F1F8FEF7FC0
:100710009DC0FC77F1F0E070381DEFFF9F8FC7E3BD
:10072000F1F8FC7E38FC7FFFFFFE7707777777775D
:10073000777FE0E070381C7E7773F1F8FE7739DC64
:100740006E38FFFFFFFFFEEF7BFFFE39F8E7E39F08
:100750008E7E39F8E7E39F8E70EF7FF8FC7E3F1FB7
:100760008FC7E3F1C01E1FE73B87E1F87E1DCE7FF8
:100770008780EF3FEF3B87E1F87E1FCEFFBBCE03C4
:1007800080E038003BBFFDFC7E3F1F8FEF7F9DC0A8
:10079000E070381CEFFF38E38E38E3803E3FB8FC52
:1007A0000FC3FC3FC7FF1F0073BFF739CE739E70A6
:1007B000E3F1F8FC7E3F1F8FC7FFBDC0E1986739AA
:1007C000CC330DC3E0781E0700E31D9E667999E6E1
:1007D00077B8D2C3CF0F3C3CF07380739CE3F078C2
:1007E0001E0781E0FC739CE0E1D86739CE330EC36D
:1007F000E0781E0300C070380E00FEFE0E1C383874
:1008000070E0FFFF3766666EE666666730FFFF8062
:10081000CE6666677666666EC0718E00000100FF68
:100820000032000100000102000007030030100444
:1008300000000008000202090000000A0000000C8D
:100840000000000D0000000F00000010000000116B
:100850000007001200000013000000FF00C8001095
:1008600000901611002702FF00320012001A00FF4C
:100870000032001300001829002A00FF0032003067
:100880000000003100000032000000350006023692
:100890000008083700070038000102390000003C5A
:1008A0000000003D0000002000000021000000507A
:1008B0000000005100EF005200000053003F0160B3
:1008C0000000A7610003006A000000900010009281
:1008D00000000093000300950000119700000098AD
:1008E0000000000700330144434320436F6E7472DD
:1008F0006F6C6C6564205475726E7461626C650017
:100900004D03B400207E1600000000250028002BB7
:100910000000000000240027002A0000000000055D
:1009200000010000020D0602F4040005040601F4B3
:1009300007000A0C0A00F5160009100A01F3280046
:10094000100D1001F442000B0D0C01F454000204D0
:100950000401F4550004110601F45E0004110601BF
:10096000F4670005050701F46B0006080B03F97135
:10097000000204050200720004010601FC7300027B
:10098000010501007400050D0500F47D00080D0A45
:1009900001F48A00040D0A03F49100090D0A01F420
:1009A000A000080D0A01F4AD00070D0A02F4B90019
:1009B000090D0A01F4C800090D0A01F4D700080D59
:1009C0000A00F4E400090D0A01F4F300080D0A011D
:1009D000F40001020A0501F70301030C0501F80800
:1009E0000109090B01F8130109040B01FB180109A6
:1009F000090B01F82301090D0A01F432011110124B
:100A000001F454010C0D0C00F468010B0D0C01F401
:100A10007A010B0D0D01F48C010B0D0D01F49E01FB
:100A2000090D0B01F4AD01080D0B01F4BA010C0D19
:100A30000E01F4CE010B0D0D01F4E001020D0502D3
:100A4000F4E401070D0A01F4F0010B0D0C01F402AE
:100A500002080D0A01F40F020D0D0F01F425020B1F
:100A60000D0D01F437020D0D0E01F44D020A0D0CAF
:100A700001F45E020D0E0E01F475020C0D0D01F471
:100A800089020A0D0C01F49A02090D0B01F4A90266
:100A90000B0D0D01F4BB020B0D0C00F4CD02110D7A
:100AA0001100F4E9020C0D0C00F4FD020C0D0C0019
:100AB000F411030A0D0B01F4220303110501F429BB
:100AC00003050D0500F4320303110500F439030793
:100AD000070801F440030A010A0003420304030566
:100AE00000F44403090A0A01F75003090D0A01F44E
:100AF0005F03080A0901F76903080D0A01F4760388
:100B0000080A0A01F78003040D0501F48703080EA3
:100B10000A01F79503080D0A01F4A203020D04016E
:100B2000F4A60304110400F4AF03090D0901F4BE97
:100B300003020D0401F4C2030D0A0F01F7D30308E9
:100B40000A0A01F7DD03080A0A01F7E703090D0A9B
:100B500001F7F603080D0A01F70304050A0601F779
:100B60000A04080A0901F71404040C0501F51A0423
:100B7000080A0A01F72404090A0900F730040D0ADB
:100B80000D00F74104080A0900F74B04090E09009B
:100B9000F75B04070A0901F7640404110601F46D08
:100BA0000402110402F4720404110601F47B040728
:100BB000030901F9FFFFF8C0DEF72009864191FF24
:100BC0001304C320C8FF89826190101F14DA3D1EF0
:100BD0008340781708F47A3533F040203810EC2041
:100BE000C620C640C6406C803900013C02770263D3
:100BF00004630477083C0E0660CC1981E0180F03EB
:100C000036C2D8730631E3C4FE13266CCCCCC4665E
:100C100023108C4663333332664C80257EA500302A
:100C2000C33F30C30CD6F0C00844211084421108E1
:100C3000003C6642C3C3C3C3C3C3C342663C113F47
:100C400033333333303E31B07830181C1C1C181845
:100C5000100807F83C66C3C303061C0703C3C3663A
:100C60003C0C187162C9A346FE183060C07F20108A
:100C7000080807F38C030180F06C63E01E3198785C
:100C80000C06F38D83C1E0D06C63E0FF0302060421
:100C90000C081818181030303E31B0783C1B18F88A
:100CA000C6C1E0F06C63E03C66C2C3C3C3673B03EC
:100CB00003C2663CC00030C0000064A00081C78E43
:100CC0000C0780700E0180FF80001FF000700E0185
:100CD000C0183871C080003E31B07830181838180C
:100CE000180C0000018003F0060E06018600661D48
:100CF000BB31CF18C79863CC31E611B399CCF786D6
:100D00000001800070400FE00600F00F0090198194
:100D10009810830C3FC204606606C030FF1833038E
:100D2000606C0D833FC606C0780F01E06FF81F8628
:100D30001981A03C0180300600C0680D831861F065
:100D4000FF183303603C0780F01E03C0780F036078
:100D5000CFF0FFE030180C0603FD80C06030180FA4
:100D6000F8FFC0C0C0C0C0FEC0C0C0C0C0C00F83BC
:100D70000E606603C00C00C1FC03C0360360730F35
:100D80000F10C0780F01E03C0780FFFE03C0780F12
:100D900001E03C06FFFFFFC0060C183060C183076E
:100DA0008F1E2780C0D8330C630CC1B83F0730C3F7
:100DB000186306606C0CC0C0C0C0C0C0C0C0C0C05A
:100DC000C0C0FFE03F01FC1FE0FD05EC6F6379133D
:100DD000CD9E6CF1478E3C7180E07C0FC1E83D8771
:100DE00098F11E33C3786F07E07C0E0F8183180CD7
:100DF000C06C01E00F007803C01B01980C60C0F8C4
:100E000000FF306C0F03C0F06FF300C0300C030024
:100E1000C0000F8183180CC06C01E00F007803C084
:100E20001B01986C60C0FB0008FF8C0EC06C06C0F4
:100E30006C0CFF8C0EC06C06C06C06C0703F186C4A
:100E40000F03C01E01F00E00F03C0D863F00FF8630
:100E5000030180C06030180C06030180C0C0780F09
:100E600001E03C0780F01E03C0780F01B061F0C0C4
:100E70006C0D8110630C610460CC1901603C0700AB
:100E800060C18130E19870CC286626211330C89863
:100E90006C4C14340A1A0707030380818060630CCA
:100EA00030C1980F00E00600F019019830C60E60BE
:100EB00060C0360630C30C1981D80F006006006090
:100EC0000600600600FFC060300C060301C0603001
:100ED00018060300FFC0FB6DB6DB6DB6E08410841E
:100EE000108410841080EDB6DB6DB6DBE03060A2BC
:100EF00044D8A180FFC0C6307E71B0C060F3DB0D66
:100F000086C73DC0C060301BCE360F0783C1E0F0FE
:100F10007C6DE03C66C3C0C0C0C0C3663C03030335
:100F20003B67C3C3C3C3C3C3673B3C66C3C3FFC004
:100F3000C0C3663C366F66666666603B67C3C3C304
:100F4000C3C3C3673B0303C67CC0C0C0DEE3C3C3E7
:100F5000C3C3C3C3C3C3C3FFFFC03003333333337F
:100F60003333E0C06030184C466361F0EC62319876
:100F70006C30FFFFFFC0DEF71CF0C7863C31E18F0D
:100F80000C7863C31E18C0DEE3C3C3C3C3C3C3C3AB
:100F9000C33C66C3C3C3C3C3C3663CDE71B0783C05
:100FA0001E0F0783E36F30180C003B67C3C3C3C336
:100FB000C3C3673B030303DF318C6318C6003EE302
:100FC000C0C0E03C07C3E37E66F666666667C3C3DF
:100FD000C3C3C3C3C3C3C77BC1A098CC4221B0D095
:100FE000281C0C00C61E3891C4CA66D316D0A6872A
:100FF0001C38C0C6004362361C181C3C266243C124
:101000002198CC4261B0D0381C0C0603010300FECD
:101010000C30C1861820C1FC3666666ECE666666E8
:1010200030FFFFFFFFC0C666666737666666C06151
:101030002438B40B1B09207E160000000023002674
:10104000002900040404040404040402020202024D
:10105000020303030303030102040810204080017C
:1010600002040810200102040810200000000800FB
:10107000020100000304070000000000000000005F
:10108000000000003E5B4F5B3E3E6B4F6B3E1C3EE4
:101090007C3E1C183C7E3C181C577D571C1C5E7FF8
:1010A0005E1C00183C1800FFE7C3E7FF0018241877
:1010B00000FFE7DBE7FF30483A060E2629792926AC
:1010C000407F050507407F05253F5A3CE73C5A7F96
:1010D0003E1C1C08081C1C3E7F14227F22145F5FEC
:1010E000005F5F06097F017F006689956A60606026
:1010F000606094A2FFA29408047E040810207E2061
:101100001008082A1C08081C2A08081E10101010B5
:101110000C1E0C1E0C30383E3830060E3E0E0600FB
:101120000000000000005F00000007000700147FBF
:10113000147F14242A7F2A12231308646236495626
:1011400020500008070300001C2241000041221C1F
:10115000002A1C7F1C2A08083E0808008070300006
:101160000808080808000060600020100804023E1B
:101170005149453E00427F4000724949494621415C
:10118000494D331814127F1027454545393C4A49CB
:10119000493141211109073649494936464949290A
:1011A0001E0000140000004034000000081422411A
:1011B0001414141414004122140802015909063EA3
:1011C000415D594E7C1211127C7F494949363E419E
:1011D0004141227F4141413E7F494949417F0909BF
:1011E00009013E414151737F0808087F00417F415A
:1011F000002040413F017F081422417F4040404091
:101200007F021C027F7F0408107F3E4141413E7FE8
:10121000090909063E4151215E7F091929462649DF
:1012200049493203017F01033F4040403F1F2040B6
:10123000201F3F4038403F631408146303047804C0
:10124000036159494D43007F414141020408102088
:10125000004141417F0402010204404040404000FF
:101260000307080020545478407F28444438384409
:10127000444428384444287F385454541800087E85
:10128000090218A4A49C787F0804047800447D40D7
:10129000002040403D007F1028440000417F400076
:1012A0007C047804787C080404783844444438FC8E
:1012B0001824241818242418FC7C08040408485412
:1012C00054542404043F44243C4040207C1C2040CF
:1012D000201C3C4030403C44281028444C909090C6
:1012E0007C4464544C440008364100000077000000
:1012F000004136080002010204023C2623263C1E5F
:10130000A1A161123A4040207A38545455592155D0
:1013100055794122545478422155547840205455EF
:1013200079400C1E5272123955555559395454543E
:101330005939555454580000457C410002457D42BE
:101340000001457C407D1211127DF0282528F07C9B
:10135000545545002054547C547C0A097F49324935
:101360004949323A4444443A324A4848303A414181
:10137000217A3A42402078009DA0A07D3D42424221
:101380003D3D4040403D3C24FF2424487E49436687
:101390002B2FFC2F2BFF0929F620C0887E09032064
:1013A000545479410000447D413048484A32384025
:1013B00040227A007A0A0A727D0D19317D26292988
:1013C0002F28262929292630484D4020380808088A
:1013D0000808080808382F10C8ACBA2F102834FAAB
:1013E00000007B000008142A142222142A14085535
:1013F00000550055AA55AA55AAFF55FF55FF0000F4
:1014000000FF00101010FF00141414FF001010FF54
:1014100000FF1010F010F0141414FC001414F70066
:10142000FF0000FF00FF1414F404FC141417101F35
:1014300010101F101F1414141F00101010F00000C3
:1014400000001F101010101F10101010F0100000DE
:1014500000FF101010101010101010FF10000000EE
:10146000FF140000FF00FF00001F10170000FC0425
:10147000F414141710171414F404F40000FF00F708
:1014800014141414141414F700F71414141714106B
:10149000101F101F141414F4141010F010F000009A
:1014A0001F101F0000001F14000000FC140000F0BB
:1014B00010F01010FF10FF141414FF141010101F60
:1014C00000000000F010FFFFFFFFFFF0F0F0F0F071
:1014D000FFFFFF0000000000FFFF0F0F0F0F0F388E
:1014E00044443844FC4A4A4A347E02020606027EDC
:1014F000027E0263554941633844443C04407E20E7
:101500001E2006027E020299A5E7A5991C2A492AF7
:101510001C4C7201724C304A4D4D30304878483086
:10152000BC625A463D3E494949007E0101017E2A7E
:101530002A2A2A2A44445F444440514A44404044B1
:101540004A51400000FF0103E080FF000008086BE3
:101550006B083612362436060F090F0600001818DD
:101560000000001010003040FF0101001F01011EAB
:1015700000191D1712003C3C3C3C0000000000001C
:101580006C2FA12A11241FBECFEFD8E0DEBFCDBF44
:1015900026E0A2E1B2E001C01D92A734B207E1F754
:1015A00012E0A0E0B1E0EAE9F0E702C005900D9298
:1015B000A231B107D9F71AE0C1ECDAE004C02197F3
:1015C000FE010E942536C03CD107C9F70E94B02A0F
:1015D0000C9440380C940000CF93DF93EC0120E092
:1015E00030E0A9016F85788989899A890E946935D7
:1015F00018161CF4EBA1FCA102C0EDA1FEA1DF9125
:10160000CF910994DC0112962C91213069F028F0D9
:10161000223089F02430B1F00895DC01ED91FC9185
:101620000280F381E02D0994DC01ED91FC910480AE
:10163000F581E02D0DC0DC01ED91FC910680F78174
:10164000E02D06C0DC01ED91FC910084F185E02DD8
:10165000099485ED8093BC008091BC0084FDFCCF93
:101660001092E702089540919C02262F30E0240F4B
:10167000311D21323105DCF42091E7022430C9F418
:10168000FC0180E090E0861758F430919C02219193
:10169000DC01A658BD4FA30FB11D2C930196F3CFCB
:1016A00080919C02680F60939C0280E0089581E025
:1016B000089582E0089508958FEF9FEF08958FEFCA
:1016C0009FEF08958091790290E09195819591091D
:1016D0000895CF92DF92EF92FF920F931F93CF93D3
:1016E000DF937C01262F972F8A018091E8028823BF
:1016F00091F0C62FD72F6E01C40ED51ECC15DD0577
:1017000071F06991D701ED91FC910190F081E02D8C
:10171000C7010995F3CF642F822F0E94330BC801B4
:10172000DF91CF911F910F91FF90EF90DF90CF90BD
:101730000895CF93DF931F92CDB7DEB769832091D1
:10174000E8022223D1F020910A03203240F021E068
:1017500030E0FC013383228380E090E015C080916B
:10176000E902E82FF0E0E651FD4F998190838F5F09
:101770008093E90280930A0305C061E0CE010196DF
:101780000E94330B81E090E00F90DF91CF9108959C
:10179000CF93DF93EC01613049F030F0623061F0BB
:1017A0006330A1F460E009C060E001C061E08B81BA
:1017B0000E94A31A61E005C061E08B810E94A31A18
:1017C00060E08C81DF91CF910C94A31ADF91CF91CF
:1017D00008951F93CF93DF93EC0111E020E030E0F8
:1017E000A9016F85788989899A890E9469351816B7
:1017F0000CF010E0612F8C810E94A31A61E08B81B4
:101800000E94A31A60E08B81DF91CF911F910C940D
:10181000A31A8F929F92AF92BF92CF92DF92EF92D4
:10182000FF920F931F93CF93DF93EC018B859C85E1
:10183000AD85BE850F81188529853A85BC01CD010E
:10184000601B710B820B930B09F4D0C08AF00E94CD
:10185000F2319B01AC010E9478332F89388D498D7C
:101860005A8D0E9451320E947C356B017C011BC055
:1018700090958095709561957F4F8F4F9F4F0E94F7
:10188000F2319B01AC010E9478332F89388D498D4C
:101890005A8D0E9451320E947C356B017C01F7FA0F
:1018A000F094F7F8F0948F849888A988BA88A501F5
:1018B0009401C701B6010E94693518160CF043C0A7
:1018C00020E030E0A901C501B4010E94EB31811193
:1018D0000BC06F89788D898D9A8D9B01AC010E9418
:1018E00078330E947C351BC0A50194016F89788DE7
:1018F000898D9A8D0E945B346B017C0120E030E081
:10190000A9010E946935181624F0F7FAF094F7F847
:10191000F094A7019601C501B4010E9478337B01C0
:101920008C01BB88CC88DD88CE892B2D3C2D4D2D9C
:101930005C2F0E94693518160CF05DC03B2D7C2D84
:101940008D2D9C2F5FC0A5019401C701B6010E9497
:10195000EB3187FF54C020E030E0A901C501B4019C
:101960000E94EB31811111C06F89788D898D9A8D1C
:101970009B01AC010E9478330E947C356B017C0195
:10198000F7FAF094F7F8F0941DC0A50194016F895F
:10199000788D898D9A8D0E945B346B017C0120E0EB
:1019A00030E0A9010E946935181624F0F7FAF09486
:1019B000F7F8F094A7019601C501B4010E947733AE
:1019C0006B017C018B889C88AD88BE88B7FAB09487
:1019D000B7F8B094A5019401C701B6010E94EB319C
:1019E00087FF0DC0382D792DC5010CC030E070E0A7
:1019F00080E090E007C03E2D7F2DC80103C03C2D44
:101A00007D2DC701C32ED72E7C01C701B601DF9102
:101A1000CF911F910F91FF90EF90DF90CF90BF90EB
:101A2000AF909F908F90089562E080917C05909197
:101A30007D050C94632461E080917C0590917D0587
:101A40000C946324CF92DF92EF92FF920F931F9337
:101A5000CF93DF937C01FC01C480D5800AEB15E0B5
:101A6000C0E0DFEFF801848195818C159D0539F484
:101A7000B701C8010E94BA21892B09F4DC2FCF5F7E
:101A80000A5F1F4FC03171F78D2F90E0DF91CF912A
:101A90001F910F91FF90EF90DF90CF9008953F92AC
:101AA0004F925F926F927F928F929F92AF92BF926E
:101AB000CF92DF92EF92FF920F931F93CF93DF931A
:101AC000880F991F880F991FEC012397242F2670E8
:101AD00030E035952795C20FD31F4170F42E62E395
:101AE000C62E63E0D62E00E010E0EE24E3947AE008
:101AF000372E0730110509F4DEC0F601819191916E
:101B00006F01C817D90709F0D3C0F09218021093DB
:101B1000170200931602E092150240916005509161
:101B20006105609162057091630580915C059091FB
:101B30005D05A0915E05B0915F05481759076A07DA
:101B40007B0709F493C00E94851B4B015C01409107
:101B500070055091710560917205709173058091C7
:101B6000740590917505A0917605B0917705840F65
:101B7000951FA61FB71F88159905AA05BB0508F074
:101B800075C0409064055090650560906605709042
:101B9000670520E030E0A901C301B2010E94693568
:101BA000181664F480915C0590915D05A0915E0526
:101BB000B0915F050196A11DB11D14C020E030E079
:101BC000A901C301B2010E94EB3187FF13C08091CC
:101BD0005C0590915D05A0915E05B0915F05019750
:101BE000A109B10980935C0590935D05A0935E0502
:101BF000B0935F0560915C05637085E595E00E9498
:101C0000020B8092740590927505A0927605B092B1
:101C1000770585E595E00E94090C9B01AC01609376
:101C2000640570936505809366059093670560E091
:101C300070E08AE794E40E945B344B015C0120E091
:101C400030E0A9010E94693518161CF4C501B401E1
:101C500003C0C501B40190580E94D434609370054C
:101C600070937105809372059093730580911502AE
:101C7000882389F0E092120280911302909114025D
:101C800097FF07C00A979093140280931302309233
:101C9000000110921502809113029091140297FF97
:101CA00003C01092010104C0892B11F0E0920101E0
:101CB0000F5F1F4F1ECFDF91CF911F910F91FF90AC
:101CC000EF90DF90CF90BF90AF909F908F907F90DC
:101CD0006F905F904F903F9008951F920F920FB6B4
:101CE0000F9211242F933F934F935F936F937F93A2
:101CF0008F939F93AF93BF93EF93FF938091B9001E
:101D0000887F803609F49CC068F5883209F45BC08E
:101D100090F4803109F454C038F4882309F4F6C0F3
:101D2000883009F44DC0F6C0883109F44CC08032C7
:101D300009F45DC0EFC0803409F468C048F4803312
:101D400009F455C0883309F0E5C08093E502D8C096
:101D5000803509F44FC0883509F45DC0883409F036
:101D6000D9C0D6C0883909F4C7C0A8F4883709F4A7
:101D700067C038F4883609F463C0803709F460C05E
:101D8000C9C0883809F4B8C0803909F45FC0803808
:101D900009F0C0C05BC0803B09F486C038F4803ACB
:101DA00009F466C0883A09F47FC0B4C0803C09F4E5
:101DB000A7C0883C09F4A4C0883B09F48AC0AAC023
:101DC0008091C20210C09091E4028091E3029817C2
:101DD00070F5E091E40281E08E0F8093E402F0E080
:101DE000ED53FD4F80818093BB0085EC86C08093CE
:101DF000E5028EC0E091E40281E08E0F8093E40260
:101E00008091BB00F0E0ED53FD4F80839091E402A0
:101E10008091E3026EC0E091E40281E08E0F809336
:101E2000E4028091BB00F0E0ED53FD4F8083809190
:101E3000E60281116DC081E08093C10284EA61C035
:101E400083E08093E7021092C002CFCF8091C0025E
:101E5000803208F051C0E091C00281E08E0F809383
:101E6000C0028091BB00F0E0E056FD4F8083BDCF03
:101E700085EC8093BC001092E7028091C002803212
:101E800030F4E091C002F0E0E056FD4F1082609126
:101E9000C00270E0E0919E02F0919F0280EA92E021
:101EA00009951092C00236C084E08093E702109238
:101EB0009D0210929C02E0919A02F0919B0209957A
:101EC00080919C02811105C081E080939C02109258
:101ED0007A02E0919D0281E08E0F80939D02F0E0F6
:101EE000E658FD4F80818093BB0090919D028091C8
:101EF0009C02981708F479CF85E88093BC000AC04B
:101F000085EC8093BC001092E70204C01092E502B9
:101F10000E94290BFF91EF91BF91AF919F918F91FB
:101F20007F916F915F914F913F912F910F900FBED5
:101F30000F901F9018956F927F928F929F92AF9201
:101F4000BF92CF92DF92EF92FF920F931F93CF93A6
:101F5000DF935C017B016A018901FC01848095802B
:101F60008AEB682E85E0782ED0E0CFEFF3018481F4
:101F700095818815990539F4B501C3010E94BA21EC
:101F8000892B09F4CD2FDF5FF6E06F0E711CD03185
:101F900069F786E0C89FF0011124E75EFD4FF182EA
:101FA000E082D382C28215830483DF91CF911F9197
:101FB0000F91FF90EF90DF90CF90BF90AF909F90E8
:101FC0008F907F906F900895BF92CF92DF92EF92A3
:101FD000FF920F931F93CF93DF9300D000D0CDB724
:101FE000DEB78C01B62EBA01550F880B990B0E94F3
:101FF000F2312BED3FE049E450E40E94513220E001
:1020000030E044E353E40E945B340E9456349B0169
:10201000AC01B801110F880B990B29833A834B83CC
:102020005C830E94F2316B017C016B2D70E080E0DB
:1020300090E00E94F23129813A814B815C810E94BB
:1020400051329B01AC01C701B6010E9478330E9456
:10205000CD34CB010F900F900F900F90DF91CF9167
:102060001F910F91FF90EF90DF90CF90BF90089558
:10207000BF92CF92DF92EF92FF920F931F93CF9375
:10208000DF9300D000D0CDB7DEB78C01B62EBA01F9
:10209000550F880B990B0E94F2312BED3FE049E47C
:1020A00050E40E94513220E030E044E353E40E94C7
:1020B0005B340E9456349B01AC01B801110F880BB0
:1020C000990B29833A834B835C830E94F2316B0125
:1020D0007C016B2D70E080E090E00E94F23129815C
:1020E0003A814B815C810E9451329B01AC01C70156
:1020F000B6010E9478330E94CD34CB010F900F902F
:102100000F900F90DF91CF911F910F91FF90EF9063
:10211000DF90CF90BF9008955F926F927F928F92E1
:102120009F92AF92BF92CF92DF92EF92FF920F9366
:102130001F93CF93DF934C015B01542E122FC0905D
:102140001D06D12CAC01652DC6010E9438103C0142
:10215000C0911C06D0E06996A401652DCE010E94B5
:10216000E40F4C01A501612FC6010E9438106C01DB
:10217000A501612FCE010E94E40F402F50E08C0199
:10218000040F151F480D591D9601B30180E296E01A
:102190000E941F28DF91CF911F910F91FF90EF9028
:1021A000DF90CF90BF90AF909F908F907F906F9077
:1021B0005F9008952F923F924F925F926F927F921D
:1021C0008F929F92AF92BF92CF92DF92EF92FF9247
:1021D0000F931F93CF93DF93CDB7DEB76A970FB6F8
:1021E000F894DEBF0FBECDBF182F1B861A861D8642
:1021F0001C861F861E864AE0CE0101966C01BC013A
:1022000081E090E00E94C131F60101900020E9F7E1
:102210003197AF014C195D09B601CE010A960E94B3
:10222000EA21112351F041E050E061ED71E0CE016F
:102230000A960E94EA211E8A02C091E09E8B8E8936
:10224000E82FF0E0EE0FFF1FE45FFE4F6081718129
:10225000072E000C880B990B0E94F23120E030E031
:1022600048E455E40E945B3420E030E044EB53E462
:102270000E9451329B01AC0160E070E084EB92E47B
:102280000E9477334B015C0142E00E94742368EAAC
:1022900071E082E694E00E942119C501B4010E9418
:1022A000CD342B013C0198E6292E33243394241895
:1022B000350820E1E22E24E8F22E0DEF29E64BE46A
:1022C000B101C1010E948C1003E029E64BE4B10189
:1022D000C1010E948C10BE01665F7F4FCE01409607
:1022E0000E942F2242E0C501B4010E94742368EAD3
:1022F00071E082E694E00E942119BE01605F7F4F89
:10230000C6010E942F2268E5C6010E94220D5C01D1
:10231000C6010E942A22BE01605F7F4FC6010E9453
:102320002F2269E5C6010E94220D4C01C6010E94C0
:102330002A22A114B10419F08114910401F58091AD
:102340001D06A20169E690E00E9438105C018091B0
:102350001C06A20169E690E00E94E40F4C01BE0158
:10236000605F7F4FC6010E942F2222E030E0A4016F
:10237000B501C6010E949B0FC6010E942A228091CE
:102380001C06B401681B7109072E000C880B990B01
:102390000E94F2319B01AC0180911D06B501681BC2
:1023A0007109072E000C880B990B2F8B388F498FE2
:1023B0005A8F0E94F2312F89388D498D5A8D0E9493
:1023C000F73320EE3EE245E652E40E9451320E948D
:1023D000CD349B0177FF02C028593E4FC9016DE201
:1023E00070E00E94EE35611102C082EE01C081EF03
:1023F0002401481A5108E12CF12C04E010E02EE1F0
:1024000030E04EE150E0B201C501815F91090E94C8
:10241000EA2075019FEEE91AF108A2014250510924
:1024200000E010E024E130E0B70180E296E00E9495
:102430009E29A201475E5F4F24E130E0B70180E2B0
:1024400096E00E949E29320182E0680E711CB5015F
:10245000635F710924E130E0A30180E296E00E940D
:10246000AA29B501685D710924E130E0A30180E289
:1024700096E00E94AA2941E0B301C7010E942E20E4
:1024800085010C5D110942E0B301C8010E942E20B4
:1024900095E1490E511C44E0B201C8010E942E2072
:1024A00048E0B201C7010E942E208AE0A80EB11CAC
:1024B000B0922D06A0922C069AE0890E911C909263
:1024C0002F0680922E0680E099E00E940E20109246
:1024D00033061092320610923106109230064C8963
:1024E0005D896889798980E296E00E94D01E80E04B
:1024F00090E00E940E20CE0140960E942A228E89F2
:102500008F5F8E8B873009F09ACECE010A960E949B
:102510002A226A960FB6F894DEBF0FBECDBFDF91B8
:10252000CF911F910F91FF90EF90DF90CF90BF90D0
:10253000AF909F908F907F906F905F904F903F9063
:102540002F900895089510922E03809147038336AB
:10255000B8F540912A0350912B0360912C037091A0
:102560002D03409326035093270360932803709311
:102570002903843081F058F4833011F5409322030D
:1025800050932303609324037093250319C086504E
:10259000833050F015C040931E0350931F03609387
:1025A0002003709321030CC080911D03882341F008
:1025B0004093190350931A0360931B0370931C03F9
:1025C000109218031092170310921603109215031D
:1025D00010921403109213031092120380E8809358
:1025E0001103F89480911003882379F0209140031F
:1025F0003091410391E080E040910E0350910F0330
:102600004217530721F090E002C090E080E09093E1
:102610000C0380930D03109241031092400310921B
:102620000F0310920E037894109210038DE193E142
:1026300090934805809347050895F894809140034E
:102640009091410320910E0330910F03821793075D
:1026500011F4789408958091400390914103821B76
:10266000930B029748F0789483EA92E1909348059F
:102670008093470587E625C02091420330914303AC
:102680008091440390914503409140035091410350
:1026900050930F0340930E037894B901645371096A
:1026A00041E06D30710580F040E02A553109273B4B
:1026B000364250F083EA92E19093480580934705B3
:1026C00088E68093470308959C01245331092D30F7
:1026D000310530F08A559109873B964268F0EACF80
:1026E000442361F080910C0390910D030196909327
:1026F0000D0380930C030895442391F0F894809186
:10270000440390914503909343038093420381E0F7
:1027100080934603789410920D0310920C03089551
:1027200080910C0390910D030A97ACF38DE993E12E
:1027300090934805809347050895F894809140034D
:102740009091410320910E0330910F03821793075C
:1027500011F4789408958091400390914103821B75
:10276000930B029748F0789483EA92E1909348059E
:102770008093470587E672C040914203509143031E
:10278000209144033091450380914003909141038F
:1027900090930F0380930E037894BA0164537109E8
:1027A00091E06D30710570F090E04A555109473B5A
:1027B000564240F083EA92E19093480580934705A2
:1027C00088E64CC081E0A901445351094D305105C0
:1027D00030F080E02A553109273B364258F79813EC
:1027E000E9CF80911103882381F0992341F0E09192
:1027F0001203F0E0ED5EFC4F9081982B908390E007
:10280000959587958093110308958091120321E097
:10281000280F2093120330E8309311039923A9F075
:1028200091E0909310038250843038F487E494E16F
:102830009093480580934705089583EA92E1909329
:1028400048058093470589E609C0263048F083EAA9
:1028500092E190934805809347058AE68093470369
:1028600008950895FC016370658B848195812681AC
:102870003781613039F0633029F091878087338761
:1028800022870895318720879387828708951F9331
:10289000CF93DF9390911403809113038927C09104
:1028A0001203C43068F0909115038927C43041F0B9
:1028B000909116038927C53019F090911703892745
:1028C000EC2FF0E0EE5EFC4F9081891741F083EA37
:1028D00092E1909348058093470584E6B8C00E9432
:1028E000851B60932A0370932B0380932C03909392
:1028F0002D0310921D03C33009F07DC01091140305
:1029000080911303111115C08F3F49F483EA92E1BE
:102910009093480580934705C0934703A3C0811156
:1029200008C083EA92E1909348058093470584E0CC
:102930008EC0982F907C9038D1F517FF38C0C12FEA
:10294000D0E0C095D095C077DD27CC0FDD1FCC0F30
:10295000DD1F8F73C80FD11D0E949B2121E0C81776
:10296000D90709F020E020931D03211107C0CF33C0
:10297000D10521F080912F03882389F080912E03C7
:1029800081110DC0E0913003F0913103309739F09F
:10299000412F477013FB662760F9CE01099583EA42
:1029A00092E1909348058093470587E050C087FFE8
:1029B00008C083EA92E1909348058093470585E635
:1029C00046C0107C103441F083EA92E190934805B0
:1029D0008093470586E63BC091E020916203821315
:1029E00090E090931D0383EA92E1909348058093D1
:1029F000470586E02CC0C43069F590911303892FF8
:102A0000807C803839F580911403282F2578213077
:102A100009F5C82FC670D0E0DC2FCC27807724E0E2
:102A2000829FC00DD11D11249F73C90FD11D0E941B
:102A30009B2121E0C817D90709F020E020931D034E
:102A400083EA92E1909348058093470588E080935C
:102A5000470308C083EA92E19093480580934705B5
:102A600010924703DF91CF911F9108950E94261B7A
:102A7000A09146034A2F50E020914803309149032A
:102A8000FB01E21BF30B9F01FA01EE0FFF1FEE5B50
:102A9000FC4F3183208360934803709349038093F4
:102AA0004A0390934B032091400330914103240F3C
:102AB000351F309341032093400381E08A278093A0
:102AC00046030895CF92DF92EF92FF920F931F93E8
:102AD00043984298FC01828D823069F0811109C0CF
:102AE0008BB18F728BB985B1807D85B94198419A40
:102AF00009C0833039F48BB18F728BB985B1807D79
:102B00008C6206C08BB18F728BB985B1807D826279
:102B100085B94198419A429A8BB1E72FE07D8F7237
:102B20008E2B8BB985B1F72FFF72807D8F2B85B9E6
:102B30004198419A8BB1A62FA07D8F728A2B8BB9B9
:102B400085B1B62FBF72807D8B2B85B94198419A94
:102B500089019A010150110921093109680179019E
:102B600086E0F694E794D794C7948A95D1F7C60186
:102B700076137AC00197A0F060E14198419A41989C
:102B8000419A4198419A4198419A4198419A419875
:102B9000419A4198419A4198419A615071F7EACF20
:102BA000202F2F73215028F04198419A4198419A43
:102BB000F9CF439A1F910F91FF90EF90DF90CF9044
:102BC00008956BB16F726E2B6BB965B1607D6F2B21
:102BD00065B94198419A6BB16F726A2B6BB965B157
:102BE000607D6B2B65B94198419A6BB16F726E2B0A
:102BF0006BB965B1607D6F2B65B94198419A6BB136
:102C00006F726A2B6BB965B1607D6B2B65B94198AA
:102C1000419A6BB16F726E2B6BB965B1607D6F2B92
:102C200065B94198419A6BB16F726A2B6BB965B106
:102C3000607D6B2B65B94198419A6BB16F726E2BB9
:102C40006BB965B1607D6F2B65B94198419A6BB1E5
:102C50006F726A2B6BB965B1607D6B2B65B941985A
:102C6000419A715009F0ADCF019710F070E1A9CFF2
:102C7000202F2F73215008F49CCF8BB18F728E2B95
:102C80008BB985B1807D8F2B85B94198419A8BB1E5
:102C90008F728A2B8BB985B1807D8B2B85B941983A
:102CA000419AE8CFCF93DF93EC014398288539858B
:102CB0002150310945E064E00E94921C2A853B8541
:102CC0002150310949E068E0CE010E94921C439AEC
:102CD000DF91CF9108958F929F92AF92BF92CF9242
:102CE000DF92EF92FF920F931F93CF93DF93EC014C
:102CF0007A01690143982A8D21115EC02D89223005
:102D000089F0233021F1213081F52FEE30E0A90147
:102D1000401B510B5B0149018E189F08860164011D
:102D20007B0113C02FEE30E0A9014C195D09690148
:102D3000C61AD70A8FE391E09C01201B310B8C014E
:102D40000E191F09580146017901BA0110C02FE37D
:102D500031E0A9014C195D095901A61AB70A4701CA
:102D600068018501B7017A0102C05A014B01AB012C
:102D700060E570E0CE010E94CB1CA60161E570E029
:102D8000CE010E94CB1CA70162E570E0CE010E943B
:102D9000CB1CA80163E570E0CE010E94CB1CA4010E
:102DA00060E270E0CE010E94CB1CA50161E270E000
:102DB000CE010E94CB1C47C02130C1F49B0143E0EF
:102DC00062E00E94921C970147E066E0CE010E94FB
:102DD000921C960145E064E0CE010E94921C98018D
:102DE00049E068E0CE010E94921C2DC022502230A2
:102DF00050F5CB01770FAA0BBB0BDC019927882775
:102E0000A601DD0C660B770B9A01AB01282B392B41
:102E10004A2B5B2B6AE2CE010E94291CC701FF0CE2
:102E2000AA0BBB0BDC0199278827A801110F660BA1
:102E3000770B9A01AB01282B392B4A2B5B2B6BE2CA
:102E4000CE010E94291C439ADF91CF911F910F91CF
:102E5000FF90EF90DF90CF90BF90AF909F908F90BA
:102E600008958F929F92AF92BF92CF92DF92EF928E
:102E7000FF920F931F93CF93DF93EC01470112163C
:102E800013060CF06BC0101611060CF067C0A88575
:102E9000B9856A177B070CF061C0CA84DB844C15C6
:102EA0005D050CF05BC05B01A20EB31EC50101976E
:102EB00097FD54C07A01E00EF11EF7013197F7FD3E
:102EC0004DC077FF49C060E070E057FD02C0780157
:102ED00002C040E050E08A179B072CF0CD0101971B
:102EE0005D01A61AB70AEC15FD052CF0F601319725
:102EF0007601E41AF50A8F019C01CE010E946B163F
:102F00009701D5010E9402369B01AC01B401CE01AC
:102F10000E9462158A8D811110C00A851B8501509F
:102F20001109288539852150310940E050E060E0E1
:102F300070E0CE010E946B1611C0CE01DF91CF91DF
:102F40001F910F91FF90EF90DF90CF90BF90AF90C7
:102F50009F908F900C9452165901B7CFDF91CF916B
:102F60001F910F91FF90EF90DF90CF90BF90AF90A7
:102F70009F908F900895CF92DF92EF92FF920F93E0
:102F80001F93CF93DF93EC016801121613060CF028
:102F90004FC077FD4DC088859985681779070CF07B
:102FA00047C0EA85FB854E175F070CF041C07A01E8
:102FB000E20EF31E87010150110917FD39C057FFBA
:102FC00035C040E050E00E171F0734F08F0101506C
:102FD00011097F01E41AF50A9B01CE010E946B16CC
:102FE0009701FF0C440B550BB601CE010E946215F0
:102FF0008A8D811110C00A851B8501501109288511
:1030000039852150310940E050E060E070E0CE01A8
:103010000E946B160DC0CE01DF91CF911F910F91D1
:10302000FF90EF90DF90CF900C9452167901CBCFA8
:10303000DF91CF911F910F91FF90EF90DF90CF9094
:103040000895CF92DF92EF92FF920F931F93CF9349
:10305000DF93EC016801121613060CF04EC057FD09
:103060004CC08A859B85481759070CF046C0E885F7
:10307000F9856E177F070CF040C07B01E20EF31E4E
:10308000C701019797FD39C077FF35C060E070E058
:103090008E179F072CF0CF0101977F01E61AF70AE0
:1030A0008A019C01CE010E946B169701FF0C440B14
:1030B000550BB601CE010E9462158A8D811110C098
:1030C0000A851B8501501109288539852150310950
:1030D00040E050E060E070E0CE010E946B160DC051
:1030E000CE01DF91CF911F910F91FF90EF90DF9074
:1030F000CF900C9452167901CBCFDF91CF911F91D5
:103100000F91FF90EF90DF90CF900895FF920F9373
:103110001F93CF93DF9300D0CDB7DEB7152FF32EDB
:10312000FC01008181E08093E80200930B03109280
:10313000E90210920A03F4E06F9FB00111246A5F64
:103140007F4F89E495E02A8349830E94990B498146
:10315000842F912F0E945E24812F90E00E945E2494
:103160002A81822F9F2D0E945E248F2D90E00E9445
:103170005E2480910A03813208F046C09091E702F4
:103180009111FCCF92E09093E70291E09093E602D8
:103190009FEF9093E5021092E4028093E302AAEE7F
:1031A000B2E023EC32E0F9019E2F921B981718F43D
:1031B0009D919193F9CF1092C2028091C202000FAB
:1031C000802B8093C2028091C102813061F4109201
:1031D000C1028091C2028093BB008091BC0083FD3C
:1031E000F8CF85EC01C085EE8093BC008091E702AA
:1031F0008230E1F38091E5028F3F31F08091E5026A
:10320000803211F08091E5021092E90210920A03D7
:103210001092E8020F900F90DF91CF911F910F91C4
:10322000FF9008959A01CB96211540E1340728F0CC
:1032300020E030E040E050E102C040E050E00C947B
:1032400086186115710579F0FB0101900020E9F7FE
:103250003197AF01461B570BDC01ED91FC910280C9
:10326000F381E02D099480E090E00895FC01918DB8
:10327000828D981761F0828DDF01A80FB11D5D96D8
:103280008C91928D9F5F9F73928F90E008958FEF46
:103290009FEF0895FC01918D828D981731F0828DFA
:1032A000E80FF11D858D90E008958FEF9FEF089551
:1032B000FC01918D228D892F90E0805C9F4F821BB5
:1032C00091098F739927089582E694E00E94581916
:1032D00021E0892B09F420E0822F0895FC01848DE0
:1032E000DF01A80FB11DA35ABF4F2C91848D90E030
:1032F00001968F739927848FA689B7892C93A0890B
:10330000B1898C9180648C93938D848D981306C0C1
:103310000288F389E02D80818F7D80830895EF926C
:10332000FF920F931F93CF93DF93EC0181E0888F7F
:103330009B8D8C8D981305C0E889F989808185FD66
:1033400024C0F62E0B8D10E00F5F1F4F0F73112757
:10335000E02E8C8DE8120CC00FB607FCFACFE8897E
:10336000F989808185FFF5CFCE010E946E19F1CFDA
:103370008B8DFE01E80FF11DE35AFF4FF0820B8F9A
:10338000EA89FB898081806207C0EE89FF896083BA
:10339000E889F98980818064808381E090E0DF9111
:1033A000CF911F910F91FF90EF900895CF93DF93EE
:1033B000EC01888D8823C9F0EA89FB89808185FD2D
:1033C00005C0A889B9898C9186FD0FC00FB607FC8E
:1033D000F5CF808185FFF2CFA889B9898C9185FFCF
:1033E000EDCFCE010E946E19E7CFDF91CF91089506
:1033F00080E090E0892B29F00E94641981110C94DF
:1034000000000895089542988BB1962F907D8F7299
:10341000892B8BB985B16F72807D682B65B9419816
:10342000419A429A8BB1942F907D8F72892B8BB9E0
:1034300085B14F72807D482B45B94198419A0895D6
:103440000E9422381F920F920FB60F9211242F93D1
:103450003F934F935F936F937F938F939F93AF931C
:10346000BF93EF93FF9382E694E00E946E19FF9161
:10347000EF91BF91AF919F918F917F916F915F91EC
:103480004F913F912F910F900FBE0F901F90189565
:103490001F920F920FB60F9211242F938F939F9329
:1034A000EF93FF93E0917204F09173048081E091B7
:1034B0007804F091790482FD12C0908180917B04A0
:1034C0008F5F8F7320917C04821751F0E0917B0411
:1034D000F0E0EE59FB4F958F80937B0401C0808113
:1034E000FF91EF919F918F912F910F900FBE0F90B1
:1034F0001F901895833081F028F4813099F0823044
:10350000A1F008958730A9F08830B9F08430D1F463
:10351000809180008F7D03C0809180008F778093A1
:103520008000089584B58F7702C084B58F7D84BDF7
:1035300008958091B0008F7703C08091B0008F7D97
:103540008093B00008951F93CF93DF93282F30E02E
:10355000F901E559FF4E8491F901E95AFF4ED491E2
:10356000F901ED5BFF4EC491CC23C9F0162F8111F8
:103570000E947A1AEC2FF0E0EE0FFF1FE95FF64F82
:10358000A591B4918FB7F894111105C09C91ED2FBE
:10359000E095E92302C0EC91ED2BEC938FBFDF9116
:1035A000CF911F910895CF93DF9390E0FC01E95AEA
:1035B000FF4E2491FC01ED5BFF4E8491882361F165
:1035C00090E0880F991FFC01EF5EF64FC591D491F2
:1035D000FC01E95FF64FA591B491611109C09FB755
:1035E000F8948881209582238883EC912E230BC048
:1035F000623061F49FB7F8943881822F80958323DD
:103600008883EC912E2B2C939FBF06C08FB7F89424
:10361000E8812E2B28838FBFDF91CF9108958E30C4
:1036200008F08E508770806480937C0080917A00CF
:10363000806480937A0080917A0086FDFCCF80912F
:1036400078002091790090E0922B08953FB7F8948C
:1036500080915C0390915D03A0915E03B0915F0344
:1036600026B5A89B05C02F3F19F00196A11DB11DDD
:103670003FBFBA2FA92F982F8827820F911DA11D18
:10368000B11DBC01CD0142E0660F771F881F991F55
:103690004A95D1F708958F929F92AF92BF92CF92A1
:1036A000DF92EF92FF926B017C010E94261B4B017F
:1036B0005C01C114D104E104F104F1F00E94261B65
:1036C000DC01CB0188199909AA09BB09883E9340FE
:1036D000A105B10570F321E0C21AD108E108F10893
:1036E00088EE880E83E0981EA11CB11CC114D10481
:1036F000E104F10419F7DDCFFF90EF90DF90CF9058
:10370000BF90AF909F908F9008952FB7F8946091DD
:1037100058037091590380915A0390915B032FBF16
:1037200008951F920F920FB60F9211242F933F937B
:103730008F939F93AF93BF938091580390915903B8
:10374000A0915A03B0915B033091570323E0230FFC
:103750002D3720F40196A11DB11D05C026E8230FC9
:103760000296A11DB11D2093570380935803909397
:103770005903A0935A03B0935B0380915C0390912B
:103780005D03A0915E03B0915F030196A11DB11D81
:1037900080935C0390935D03A0935E03B0935F03FB
:1037A000BF91AF919F918F913F912F910F900FBE3D
:1037B0000F901F9018951F920F920FB60F92112421
:1037C0002F933F934F935F936F937F938F939F9329
:1037D000AF93BF93EF93FF93E0910401F091050144
:1037E0000995FF91EF91BF91AF919F918F917F913B
:1037F0006F915F914F913F912F910F900FBE0F905E
:103800001F9018951F920F920FB60F9211242F93AD
:103810003F934F935F936F937F938F939F93AF9358
:10382000BF93EF93FF93E0910201F091030109959B
:10383000FF91EF91BF91AF919F918F917F916F9188
:103840005F914F913F912F910F900FBE0F901F905E
:103850001895CF92DF92EF92FF92439842988BB1E6
:10386000962F907D8F72892B8BB985B16F72807D79
:10387000682B65B94198419A429A83E290E0FC0135
:103880003197F1F77BB1C52EDD24EE24FF246C2D9A
:10389000607D7F72762B7BB965B17C2D7F72607DF8
:1038A000672B65B94198419AFC013197F1F77BB1DB
:1038B0006A01EE24FF246C2D607D7F72762B7BB92C
:1038C00065B17C2D7F72607D672B65B94198419A07
:1038D000FC013197F1F77BB1C32ED42EE52EFF24E6
:1038E0006C2D607D7F72762B7BB965B17C2D7F72EC
:1038F000607D672B65B94198419A0197F1F78BB1CB
:10390000922F907D8F72892B8BB985B12F72807D1C
:10391000282B25B94198419A439AFF90EF90DF9068
:10392000CF90089542988BB1962F907D8F72892BFE
:103930008BB985B16F72807D682B65B94198419ACA
:10394000429A8BB1932F907D8F72892B8BB985B161
:103950003F72807D382B35B94198419A42988BB19E
:10396000942F907D8F72892B8BB985B14F72807D9A
:10397000482B45B94198419A429A8BB1922F907D3C
:103980008F72892B8BB985B12F72807D282B25B939
:103990004198419A089542988BB1972F907D8F72EC
:1039A000892B8BB985B17F72807D782B75B9419851
:1039B000419A8BB1962F907D8F72892B8BB985B1EF
:1039C0006F72807D682B65B94198419A429A8BB19C
:1039D000952F907D8F72892B8BB985B15F72807D19
:1039E000582B55B94198419A8BB1942F907D8F7285
:1039F000892B8BB985B14F72807D482B45B9419891
:103A0000419A0895EF92FF920F931F93CF93DF9304
:103A1000EC010E94321443988A8D811122C0ED89F5
:103A2000E150E33040F4F0E0EE0FFF1FE75DFE4FA2
:103A30004081518102C040E350E163E070E0CE017B
:103A40000E94CB1C0A851B850150110928853985E8
:103A50002150310940E050E060E070E0CE010E946A
:103A60006B168A8D813089F4ED89E150E33028F4BA
:103A7000F0E0EA5DFE4F408101C040E066E1CE012A
:103A80000E94031ACE010E9452168A8D823039F5A7
:103A90008D89813071F050F0823029F0833059F4F3
:103AA00058E2E52E08C068E4E62E05C048E8E42E9A
:103AB00002C038EEE32E4E2D66E3CE010E94031ABB
:103AC0000A851B8501501109288539852150310946
:103AD00040E050E060E070E0CE010E946B168A8DFD
:103AE000833031F58D89813069F048F0823029F0DA
:103AF000833051F420E6F22E07C0F12C05C090EC83
:103B0000F92E02C080EAF82E4F2D66E3CE010E9406
:103B1000031A0A851B850150110928853985215012
:103B2000310940E050E060E070E0CE010E946B1689
:103B3000DF91CF911F910F91FF90EF900895AF9279
:103B4000BF92CF92DF92EF92FF920F931F93CF938A
:103B5000DF93EC017B016A01B22EA32E77FDC4C076
:103B600057FDC2C088859985681779070CF0BCC0DD
:103B70008A859B85481759070CF0B6C043988A8DF3
:103B8000811135C08D89823059F08330B1F0813098
:103B9000D1F48FEE90E0841B950B6B017C0113C078
:103BA0008FEE90E09C01261B370B79018FE391E0AB
:103BB0009C01241B350B690106C08FE391E0861B35
:103BC000970B7A016C01A70160E270E0CE010E94C0
:103BD000CB1CA60161E270E0CE010E94CB1C4B2DF4
:103BE0005A2D62E270E0CE010E94CB1C7CC0813075
:103BF00009F041C0ED89E150E33028F4F0E0ED5DDB
:103C0000FE4F408101C040E066E1CE010E94031AF0
:103C1000970143E062E0CE010E94921C960147E0CA
:103C200066E0CE010E94921C42988BB18F728BB9D4
:103C300085B1807D826285B94198419A429A8BB163
:103C40009A2D907D8F72892B8BB985B19A2D9F7299
:103C5000807DA92EA82AA5B84198419A8BB19B2DA9
:103C6000907D8F72892B8BB985B19B2D9F72807D42
:103C7000B92EB82A35C082508230A8F50A851B8536
:103C8000015011092885398521503109CE010E9442
:103C90006B16439842988BB18F728BB985B1807D3A
:103CA0008C6285B94198419A429A8BB19A2D907D48
:103CB0008F72892B8BB995B18A2D8F72907DA82E2A
:103CC000A92AA5B84198419A8BB19B2D907D8F72FE
:103CD000892B8BB995B18B2D8F72907DB82EB92A17
:103CE000B5B84198419A439ADF91CF911F910F91B6
:103CF000FF90EF90DF90CF90BF90AF900895EF923C
:103D0000FF920F931F93CF93DF937C01EB01FC0194
:103D1000828D811124C025892150233078F430E030
:103D2000F901E05EFE4F8081482F50E0220F331FE3
:103D3000F901E65EFE4F0081118104C000E010E051
:103D400040E050E0439860E270E0C7010E94CB1C65
:103D5000A80161E270E0C7010E94CB1C13C0815032
:103D6000833080F4F7010285138501501109208505
:103D700031852150310940E050E060E070E0C7013A
:103D80000E946B1620E03CE241E050E0BE01C7011A
:103D9000DF91CF911F910F91FF90EF900C946215DE
:103DA000CF92DF92EF92FF920F931F93CF93DF9307
:103DB0006C017A018B01C0E0D0E0CE15DF0589F0FF
:103DC000D8016D918D01D601ED91FC910190F081AA
:103DD000E02DC6010995892B11F47E0102C02196C0
:103DE000ECCFC701DF91CF911F910F91FF90EF9022
:103DF000DF90CF9008952F923F924F925F926F92F3
:103E00007F928F929F92AF92BF92CF92DF92EF926A
:103E1000FF920F931F93CF93DF9300D000D000D079
:103E2000CDB7DEB75C014B015E834D83280181E095
:103E300090E03C01641A750ACA0191958195910937
:103E4000AC01440F551F5A8349831801CC24C394F5
:103E5000D12C522F51705B8322702C83C6010197A5
:103E60002D813E81821793070CF068C077FC0CC04F
:103E70008D819E8101979E838D83E981FA8132969F
:103E8000FA83E9836E0E7F1EC601880F991F019683
:103E9000680E791EFB81FF2319F12D813E81220FCF
:103EA000331F2F5F3F4F240D351D8701A4018D81E6
:103EB0009E81481B590BB6016A0D7B1D80E296E07E
:103EC0000E94AA2991012D5F3F4FA4014C195D0961
:103ED0006D817E816A0D7B1D80E296E00E94AA2999
:103EE0009C81992321F12D813E81220F331F2F5F69
:103EF0003F4F240D351D8701A401ED81FE814E1B2E
:103F00005F0BB5016C197D0980E296E00E94AA2939
:103F100091012D5F3F4FA4014C195D09B5018D81C1
:103F20009E81681B790B80E296E00E94AA299FEF90
:103F3000C91AD90AE2E02E0E311C90CF26960FB690
:103F4000F894DEBF0FBECDBFDF91CF911F910F91CF
:103F5000FF90EF90DF90CF90BF90AF909F908F90A9
:103F60007F906F905F904F903F902F900895AF9209
:103F7000BF92CF92DF92EF92FF920F931F93CF9356
:103F8000DF936C015B01EA0179019A01220F331F73
:103F90002F5F3F4FAB014C1B5D0B8701B60180E2E9
:103FA00096E00E94AA2900E010E023E0AE01B501EE
:103FB000C6010E94FB1EDF91CF911F910F91FF90D0
:103FC000EF90DF90CF90BF90AF900895CF92DF92A7
:103FD000EF92FF920F931F93CF938C01C62F6A012C
:103FE00080911D06A80190E00E9438107C01E091AC
:103FF0001C068E2F90E0A8016C2F49960E94E40FBA
:10400000960142E050E0BC01C701CF911F910F9192
:10401000FF90EF90DF90CF900C94B71F209138065F
:1040200030913906009749F0232B99F420912E0600
:1040300030912F062A5F3F4F08C0232B51F020916B
:104040002E0630912F062650310930932F062093EB
:104050002E06909339068093380608952F923F924A
:104060004F925F926F927F928F929F92AF92BF9288
:10407000CF92DF92EF92FF920F931F93CF93DF9334
:104080007C016B0166246394712C00E010E0C4E0B5
:10409000D0E098EF892E99249A942DEFA22EBB247C
:1040A000BA94842F8470582E842F8270482E842FC7
:1040B0008870382E4170242E0F5F1F4F82E0680EEB
:1040C000711CA60CB71C5520C1F020E030E0A60101
:1040D0004C0F5D1FB701600F711F80E296E00E94D8
:1040E000B62920E030E0A601400F511FB7016C0F48
:1040F0007D1F80E296E00E94B6294420C1F020E0B6
:1041000030E0A6014C1B5D0BB701600F711F80E210
:1041100096E00E94B62920E030E0A601401B510B3A
:10412000B7016C0F7D1F80E296E00E94B629332014
:10413000C1F020E030E0A601400F511FB7016C1B19
:104140007D0B80E296E00E94B62920E030E0A601D7
:104150004C0F5D1FB701601B710B80E296E00E945F
:10416000B6292220C1F020E030E0A601401B510B0F
:10417000B7016C1B7D0B80E296E00E94B62920E01F
:1041800030E0A6014C1B5D0BB701601B710B80E298
:1041900096E00E94B6290C171D074CF4B7FC8CCF93
:1041A000219782E0880E911CA80CB91C85CFDF9165
:1041B000CF911F910F91FF90EF90DF90CF90BF9024
:1041C000AF909F908F907F906F905F904F903F90B7
:1041D0002F9008952F923F924F925F926F927F920D
:1041E0008F929F92AF92BF92CF92DF92EF92FF9207
:1041F0000F931F93CF93DF9300D000D0CDB7DEB7DE
:104200002C015B011A013901680188279927801B5D
:10421000910B9C01220F331F3C832B83C201800F23
:10422000911F9A838983240F351F8301AB01BC0141
:1042300080E296E00E948E29EB81FC816E0E7F1E4B
:10424000F1E06F1A7108AC0CBD1C420C531CC2018A
:104250008C199D09830121E0A601B50101970E94F7
:10426000FB1E22E0A601B50189819A810E94FB1EF6
:104270000F900F900F900F90DF91CF911F910F91A2
:10428000FF90EF90DF90CF90BF90AF909F908F9076
:104290007F906F905F904F903F902F9008950F9375
:1042A0001F93CF93DF938C01C62FD0E080911C0623
:1042B000BE01680F711D80911D0620E130E0A8014C
:1042C00090E00E94B71FA8014450510980911C063C
:1042D000BE01680F711D80911D0620E030E090E066
:1042E0000E94B71F81E0DF91CF911F910F910C9435
:1042F000DA10439A419A409A60E085E00E94A31A3E
:1043000062E070E080E090E00E944B1B61E085E09D
:104310000E94A31A439842988BB18F728BB985B1D2
:10432000807D85B94198419A83E04198419A8150B6
:10433000E1F7439A089580917E0387FF0CC0809136
:104340006A0390E09C0146E0220F331F4A95E1F793
:10435000822B932B089585FF09C08091720390E012
:10436000982F882720917303822B089580916203F0
:1043700090E00895CF93DF93DC01ED91FC91EB0188
:10438000A881B981309711F01097C9F4109759F0AE
:10439000EB012C813D81232B31F08C9190E09195A4
:1043A0008195910914C0309781F0DC0114968D91AC
:1043B0009C911597892B49F0808190E008C0BD0140
:1043C000CF01DF91CF910C94303880E090E0DF9105
:1043D000CF910895EF92FF920F931F93CF93DF93A6
:1043E000EC017B018A0188819981009729F02A815B
:1043F0003B8124173507F8F4B8016F5F7F4F0E94A7
:104400005837009759F0998388831B830A832C813E
:104410003D81232B81F4FC0110820DC0888199819C
:10442000009711F00E94C036198218821D821C82EA
:104430001B821A8207C01D830C83B7018881998172
:104440000E943938CE01DF91CF911F910F91FF90DB
:10445000EF900895FC01808191810C94C036FB019E
:10446000DC0111961C921E9213961C921E921297BA
:1044700015961C921E9214978617970749F0608133
:1044800071816115710521F0448155810C94EA21F7
:1044900008955F926F927F928F929F92AF92BF9298
:1044A000CF92DF92EF92FF920F931F93CF93DF9300
:1044B00000D000D000D0CDB7DEB7209128063091D3
:1044C0002906C901859797FD03969595879595953A
:1044D0008795782E692EAAEBAA2EA5E0BA2ED12CAC
:1044E000C12CB3E05B2E580E19E0812E912CCC200C
:1044F00009F489C0D50C6D2D70E0EFEEEE2EEBE7E0
:10450000FE2E04E110E0272D362D46E050E080E23B
:1045100096E00E9431170D2D10E0B501CE010196F5
:104520000E942F2221E030E046E050E0B801CE01A9
:1045300001960E949B0FCE0101960E942A2282E3DF
:1045400090E10E940E200E5F1F4F10932D060093E6
:104550002C0690922F0680922E06F50144815581FB
:104560006081718180E296E00E94D01E80E090E040
:104570000E940E20C394F6E0AF0EB11C84E0C81276
:10458000B6CF20912A0630912B0620523109409156
:104590002806509129064C50510968E1E62E66EC38
:1045A000F62E03E010E06AE170E086E090E00E9401
:1045B000EA2020912A0630912B062652310940919B
:1045C00028065091290642515109E12CF12C6DE148
:1045D00070E089E090E00E94EA2026960FB6F894F9
:1045E000DEBF0FBECDBFDF91CF911F910F91FF9026
:1045F000EF90DF90CF90BF90AF909F908F907F9083
:104600006F905F90089588E1E82E86ECF82E04E123
:1046100010E0272D362D46E050E06EE070E080E29D
:1046200096E00E9431179EE0D92E75CFFC011182D1
:10463000108213821282158214826115710551F065
:10464000FB0101900020E9F73197AF01461B570BA2
:104650000C94EA2108954F925F926F927F92EF92AD
:10466000FF920F931F93CF93DF93CDB7DEB7A19740
:104670000FB6F894DEBF0FBECDBF7C01FA01CB01AF
:1046800019A2223008F42AE08E010F5D1F4F422E3E
:10469000512C612C712CBF01A30192010E940F3398
:1046A000F901CA01015011096A3014F4605D01C0BA
:1046B000695CD8016C93232B242B252B61F7B8015F
:1046C000C7010E942119A1960FB6F894DEBF0FBE54
:1046D000CDBFDF91CF911F910F91FF90EF907F9011
:1046E0006F905F904F9008954F925F926F927F927C
:1046F0008F929F92AF92BF92CF92DF92EF92FF92F2
:104700006B017C01B42E9B01AC010E94C035882353
:1047100019F06FEB71E027C026013701E89477F8B4
:104720002FEF3FEF4FE75FE7C301B2010E94C035B3
:1047300081110DC02FEF3FEF4FE75FE7C301B201DB
:104740000E94EB3118161CF463EC71E00CC02FEFE3
:104750003FEF4FE75FE4C701B6010E9469351816C5
:1047600094F467EC71E082E694E0FF90EF90DF90C4
:10477000CF90BF90AF909F908F907F906F905F9001
:104780004F900C9421192FEF3FEF4FE75FECC701DB
:10479000B6010E94EB3187FDE4CF20E030E0A901B3
:1047A000C701B6010E94EB3187FF11C0E09162049E
:1047B000F09163040190F081E02D6DE282E694E0D7
:1047C00009954C01F7FAF094F7F8F09402C0812CA7
:1047D000912CA12C60E070E080E09FE3AB1441F0ED
:1047E00020E030E040E251E40E945B34A394F6CF35
:1047F0009B01AC01C701B6010E9478332B013C013B
:104800000E94D4346B017C010E94F0319B01AC0109
:10481000C301B2010E9477332B013C012AE0B701AA
:10482000A60182E694E00E942B237C01E80CF91C8F
:10483000BB2069F0E0916204F09163040190F08183
:10484000E02D6EE282E694E00995E80EF91EDB2C7D
:10485000DD2031F120E030E040E251E4C301B2015B
:104860000E9451322B013C010E94D4344B01A12CF7
:10487000B12C2AE0B501A40182E694E00E942B232A
:10488000E80EF91EC501B4010E94F0319B01AC0194
:10489000C301B2010E9477332B013C01DA94D8CFD7
:1048A000C701FF90EF90DF90CF90BF90AF909F90A7
:1048B0008F907F906F905F904F900895682F89E45C
:1048C00095E00C94990B1F93CF93DF93EC018C85AB
:1048D000613011F48F5F01C081508C872C852F735C
:1048E000822F90E0203148F4EFE3F1E0E81BF90B70
:1048F0004081FC01E15DFE4F20C030EF320F3031CE
:1049000038F4FC01E15EFE4F4081EFE4F1E013C0BA
:1049100030EE320F303148F4EFE5F1E0E81BF90BEF
:104920004081FC01E15FFE4F08C0FC01E150FF4FF8
:104930004081EFE6F1E0E81BF90B10812C8780E164
:10494000489FA00111246C818D859E850E941219BB
:1049500080E1189FA00111246F818D859E850E94A2
:1049600012198C85803110F413E001C010E090EF33
:10497000980F903108F4166090EE980F903108F47B
:104980001C608053803108F419608D859E8520E07D
:1049900030E010FF03C040E050E102C040E050E0D2
:1049A0006E81CB960E9486188D859E8520E030E032
:1049B00011FF03C040E050E102C040E050E06885D4
:1049C000CB960E9486188D859E8520E030E012FFF0
:1049D00003C040E050E102C040E050E06D81CB9662
:1049E0000E9486188D859E8520E030E013FF03C06D
:1049F00040E050E102C040E050E06985CB960E9463
:104A000086188C85DF91CF911F9108952F923F9248
:104A10004F925F926F927F928F929F92AF92BF92CE
:104A2000CF92DF92EF92FF920F931F93CF93DF937A
:104A3000CDB7DEB76C970FB6F894DEBF0FBECDBF13
:104A40009C8F8B8F1B012A0118870F83FE82ED82BA
:104A5000CA82DC0158964D915C91599741155105D8
:104A600009F0B2C018968D919C9119976817790733
:104A70000CF096C11A968D919C911B974816590679
:104A80000CF08EC1AC2CB12CCB01B6E0CB9E800DCE
:104A9000911D1124181619060CF082C1C50133E0CE
:104AA000880F991F3A95E1F7840D951D1816190680
:104AB0000CF076C1AB8DBC8D57968C91811103C0E3
:104AC000203B08F02F5FAB8DBC8DED91FC911197D1
:104AD0000680F781E02DCD012A8F09952A8DB5E05A
:104AE0002B9F90011124610141011B82F901E21900
:104AF000F309FA87E9879201285F3F4F3C872B87AC
:104B00003B81353049F0E985FA85E80DF91DE1581A
:104B1000FF4E4491498301C019823201120159812B
:104B200050FF13C0AB8DBC8DED91FC91BA81B130BB
:104B300031F40084F185E02D2F81388519C002847D
:104B4000F385E02DEF80F8841EC0ED81FE812F817A
:104B50003885E217F307F1F0AB8DBC8DED91FC9138
:104B6000BA81B13059F40084F185E02D2D813E8168
:104B7000A301B4018B8D9C8D09950CC00284F38533
:104B8000E02DED80FE8085019501A101B6018B8DA0
:104B90009C8D0995E981E695E983FFEF6F1A7F0AFD
:104BA0002A0C3B1C2B853C856216730609F0B7CF97
:104BB0003B813F5F3B834FEF841A940ACA0CDB1C96
:104BC000363009F09DCFCAC0FA01349694913297DD
:104BD00065917491291BCB01B7E02B9F800D911D2E
:104BE0001124FA01259134913A8B298BFC016590AF
:104BF0007490FC01329634913D83319644914B87F9
:104C00003296C490319614915A81523058F08C2CBF
:104C10000C2C000C9908812F012E000C990B9C8301
:104C20008B8304C01C821B82812C912CAB8DBC8D8C
:104C3000ED91FC9111970680F781E02DCD0109954A
:104C4000BA81AB2EB12C8A9CC0018B9C900D9A9C92
:104C5000900D1124FC01E20DF31DF88BEF871982F2
:104C6000912C812CEC2DCC0CFF0B91012E0F3F1FB2
:104C70003A87298761013D81C30ED11CA6014E0FE1
:104C80005F1F5F8B4E8BC201810F911D17FD9A959F
:104C9000998F888F5B85851608F060C0882D90E01D
:104CA0004B815C81480F591F4A9D90014B9D300DEF
:104CB0005A9D300D1124D901A40DB51DBE87AD87B5
:104CC000C984DA842F843888B981E985BE1BBB8BFF
:104CD000288D398D280F391F3D8B2C8B8B898C0D9E
:104CE0002E893F89C216D30699F1877041F4C3011A
:104CF0000196E989FA89E60DF71D94903C0197FE2B
:104D000020C0AB8DBC8DED91FC91BA81B13061F4C6
:104D10000084F185E02D2F8138854C895D89B601AD
:104D20008B8D9C8D09950DC00284F385E02DEF805D
:104D3000F884850195014D855E85B1018B8D9C8D33
:104D40000995990CEFEFCE1ADE0A2A0C3B1CC6CF50
:104D500039814D81340F398383949CCFAB8DBC8DC9
:104D6000ED91FC9111970288F389E02DCD016C96AD
:104D70000FB6F894DEBF0FBECDBFDF91CF911F916C
:104D80000F91FF90EF90DF90CF90BF90AF909F90EA
:104D90008F907F906F905F904F903F902F900994ED
:104DA0006C960FB6F894DEBF0FBECDBFDF91CF91EA
:104DB0001F910F91FF90EF90DF90CF90BF90AF9039
:104DC0009F908F907F906F905F904F903F902F902B
:104DD0000895AF92BF92CF92EF92FF920F931F93DD
:104DE000CF93DF93EC01262F888D998D009709F0E2
:104DF00042C06A3069F42C898E859F8538E0239FF4
:104E0000800D911D11249F878E871D861C86ACC046
:104E10006D3009F4A9C08E898823C1F03C898C8546
:104E20009D8546E0349F800D911D1124488559854C
:104E3000841795075CF01D861C868E859F85E8E0AB
:104E40003E9F800D911D11249F878E87EA88FB88E5
:104E5000088919894E855F856C857D85CC88CE0152
:104E60000E9406252C898C859D85F6E02F9F800D5C
:104E7000911D112441C06A3079F41D861C862C894D
:104E8000FC013696E4918E859F852E9F800D911DA5
:104E900011249F878E8768C06D3009F465C0AC010E
:104EA0004C5F5F4FFA013491631708F45DC031968F
:104EB000E491E61708F458C0FA014491362F341BE8
:104EC000FC013296A590B490F7E03F9FA00CB11C76
:104ED0001124F501329634913196E491332311F087
:104EE000E1110DC0F5013496E4912C898C859D85E6
:104EF000E29F800D911D11249D878C8735C0F5019F
:104F0000359644915E89552311F16C89E32FF0E0C9
:104F1000E40FF11D47FDFA956E9FD0016F9FB00D14
:104F200011244C855D854A0F5B1FE885F9854E1776
:104F30005F076CF01D861C86FC013696E4918E8519
:104F40009F856E9F800D911D11249F878E87EA8813
:104F5000FB88088919894E855F856C857D85CC889D
:104F6000CE010E940625BECF81E090E0DF91CF9177
:104F70001F910F91FF90EF90CF90BF90AF90089549
:104F80006F927F928F929F92AF92BF92CF92DF9259
:104F9000EF92FF920F931F93CF93DF93EC014B019E
:104FA0005A0169013801E881F9810680F781E02D15
:104FB0000995E881F9810684F785E02D870196013E
:104FC000A501B401CE010995E881F981A501460D3D
:104FD000571D415051090684F785E02D9601B40113
:104FE000CE010995E881F9810484F585E02D9301CE
:104FF000A501B401CE010995E881F981C80CD91C3D
:10500000B601615071090484F585E02D9301A50175
:10501000CE010995E881F9810288F389E02DCE015E
:10502000DF91CF911F910F91FF90EF90DF90CF9084
:10503000BF90AF909F908F907F906F900994CF9288
:10504000DF92EF92FF920F931F93CF93DF9300D0E5
:1050500000D000D0CDB7DEB76C01DC01ED91FC9142
:105060006217730789F4041715072CF4942F852F02
:10507000A801092F182F041B150B98012F5F3F4F14
:10508000008CF18DE02D12C04017510709F526174D
:1050900037072CF4962F872FB901292F382F261B7D
:1050A000370B2F5F3F4F028CF38DE02D8701C60138
:1050B000099526960FB6F894DEBF0FBECDBFDF91DF
:1050C000CF911F910F91FF90EF90DF90CF900895B7
:1050D0000680F781E02D2D833E834B835C836983BB
:1050E0007A830995D601ED91FC910088F189E02D34
:1050F0002D813E814B815C8169817A81C601099550
:10510000D601ED91FC910288F389E02DC601269627
:105110000FB6F894DEBF0FBECDBFDF91CF911F91C8
:105120000F91FF90EF90DF90CF900994EF92FF9254
:105130000F931F93DC01ED91FC9111971A960D913D
:105140001C911B9718962D913C911997048CF58D05
:10515000E02D7B0140E050E060E070E009951F9198
:105160000F91FF90EF9008954F925F926F927F9210
:105170008F929F92AF92BF92CF92DF92EF92FF9267
:105180000F931F93CF93DF9300D0CDB7DEB76C01A1
:105190005A0139014801DC01ED91FC910680F7814B
:1051A000E02D69837A8309956981462E7A81572E8D
:1051B000640C751CD601ED91FC91461457046CF4F7
:1051C0000484F585E02D87019401A501B201C60193
:1051D0000995BFEF4B1A5B0AEDCF0288F389E02DEA
:1051E000C6010F900F90DF91CF911F910F91FF900B
:1051F000EF90DF90CF90BF90AF909F908F907F9077
:105200006F905F904F900994AF92BF92CF92DF92D0
:10521000EF92FF920F931F93CF93DF9300D000D0B4
:10522000CDB7DEB75C016901DC01ED91FC91068030
:10523000F781E02D4B835C8369837A830995D501DF
:10524000ED91FC9169817A819B012C0D3D1D2150CE
:1052500031090088F189E02D78014B815C818A0158
:10526000C5010995D501ED91FC910288F389E02DE6
:10527000C5010F900F900F900F90DF91CF911F916C
:105280000F91FF90EF90DF90CF90BF90AF90099477
:10529000AF92BF92CF92DF92EF92FF920F931F9344
:1052A000CF93DF9300D000D0CDB7DEB75C016901AA
:1052B000DC01ED91FC910680F781E02D4B835C834E
:1052C00069837A830995D501ED91FC914B815C81CD
:1052D000C40ED51EB1E0CB1AD1080088F189E02DAB
:1052E0007801860169817A819B01C5010995D50103
:1052F000ED91FC910288F389E02DC5010F900F908C
:105300000F900F90DF91CF911F910F91FF90EF9031
:10531000DF90CF90BF90AF9009940895EF92FF92E5
:105320000F931F93DC01ED91FC91048CF58DE02D22
:1053300009951F910F91FF90EF9008950F931F9380
:10534000DC01ED91FC91028CF38DE02D09951F910C
:105350000F9108950F931F93DC01ED91FC91008C48
:10536000F18DE02D09951F910F910895DC01ED91CC
:10537000FC910480F581E02D099408952F923F92CD
:105380004F925F926F927F928F929F92AF92BF9255
:10539000CF92DF92EF92FF920F931F93CF93DF9301
:1053A00000D01F92CDB7DEB74C017B836A836A01C0
:1053B000590117019801241B350B37FF03C03195A4
:1053C00021953109C5014A815B81841B950B97FFAB
:1053D00003C091958195910951E0598382179307F4
:1053E00014F019820BC09A2D8B2D5801092F182FFC
:1053F0009A818B81DB82CA82C92ED82E8A819B81B9
:10540000A816B9065CF49C2D8D2D6801092F182F64
:105410009A818B81BB82AA82A92EB82E2501AA81EE
:10542000BB814A1A5B0A38016C187D0877FE03C0FD
:10543000719461947108720157FE03C0BFEFEB1ABB
:10544000FB0AF594E794C016D1061CF00FEF1FEF8E
:105450001FC001E010E01CC0D401ED91FC91B981A6
:105460000084F185E02D9101BB23C1F04A815B816D
:10547000B601C4010995E618F708F7FE04C0C00E8E
:10548000D11EE40CF51CEA81FB813196FB83EA8393
:105490004A815B81A416B506FCF604C0A6016A81A8
:1054A0007B81E7CF0F900F900F90DF91CF911F91ED
:1054B0000F91FF90EF90DF90CF90BF90AF909F90B3
:1054C0008F907F906F905F904F903F902F900895B6
:1054D000CF93DF93EC01613089F050F06230E1F05E
:1054E000633061F561E08B810E94A31A60E019C00E
:1054F00061E08B810E94A31A60E005C060E08B81AF
:105500000E94A31A61E08C810E94A31A61E08D8140
:105510000E94A31A60E00DC060E08B810E94A31A74
:1055200061E08C810E94A31A60E08D810E94A31A21
:1055300061E08E81DF91CF910C94A31ADF91CF911E
:105540000895CF93DF93CAE1D6E02697CE010E945B
:105550002A2285E0CA3BD807C1F7DF91CF91089591
:10556000CF93DF9300D000D01F92CDB7DEB77894F1
:1055700084B5826084BD84B5816084BD85B5826058
:1055800085BD85B5816085BD80916E008160809309
:105590006E00109281008091810082608093810072
:1055A0008091810081608093810080918000816082
:1055B000809380008091B10084608093B1008091DD
:1055C000B00081608093B00080917A008460809305
:1055D0007A0080917A00826080937A0080917A00CC
:1055E000816080937A0080917A00806880937A004D
:1055F0001092C10010924305109244051092450587
:1056000010924605109201051092020510920305B2
:105610001092040560ED77E080E090E00E944B1B63
:1056200082E694E09093420580934105E0917204F4
:10563000F091730412E01083E0916E04F0916F0416
:105640001082E0917004F091710480E180831092E7
:105650007A04E0917604F091770486E08083E0910B
:105660007404F0917504808180618083E0917404FA
:10567000F0917504808188608083E0917404F091DA
:105680007504808180688083E0917404F0917504D2
:1056900080818F7D80830E94851B609301057093BC
:1056A0000205809303059093040569E971E08091F8
:1056B0004105909142050E9421196AE070E080E066
:1056C00090E00E944B1B81E0809315052FE43DE0A4
:1056D000309331032093300380932F0388EC90E0C4
:1056E000909333038093320389EC90E090933503D9
:1056F000809334038AEC90E09093370380933603D1
:105700008BEC90E090933903809338038CEC90E01D
:1057100090933B0380933A038DEC90E090933D038C
:1057200080933C038EEC90E090933F0380933E0384
:105730008FEC90E090934103809340038091480365
:1057400090914903A0914A03B0914B03892B8A2B76
:105750008B2B89F51092680310926903109246030F
:105760001092450310924403109243031092420397
:1057700010924103109240030E94261B609348033D
:105780007093490380934A0390934B0386E395E11A
:105790009093030180930201809169008C7F816066
:1057A00080936900E89A83EA92E190934805809398
:1057B0004705109347030E9479210E94792168ECE4
:1057C00070E080E090E00E944B1B10923A064398F4
:1057D0000BE118E0F80165917491F801329645915A
:1057E00054916F3F710531F4BA0180E090E00E945E
:1057F0004B1B04C080E296E00E94CB1C0C5F1F4F45
:1058000028E0073E120731F76091350680E296E006
:105810000E94021D0FE311E02FEE30E040E050E067
:1058200060E070E080E296E00E946B1663E080E248
:1058300096E00E94021D60E070E080E296E00E9427
:105840007F1E61E08DE00E94D31A85E090E0909386
:105850002D0680932C068FE090E090932F06809386
:105860002E068FEF9FEF909333068093320690932E
:1058700031068093300680E099E00E940E208091EE
:105880001C0690E02EE130E030932D0620932C068C
:1058900090932F0680932E0607EE18E0F80164918E
:1058A00061112EC068EA71E080E296E00E94211941
:1058B00080E090E00E940E2068EE73E080E090E0CF
:1058C0000E944B1B60E070E080E296E00E947F1E29
:1058D0000E94492260E08BE490E00E944F2168EB37
:1058E0007BE080E090E00E944B1B64EF862E9924C1
:1058F0009394A12CB12C22242A9473E0372ECCC18E
:10590000E0912006F09121060190F081E02D80E2E7
:1059100096E009950F5F1F4F892B09F0BFCFC2CFCB
:105920000E94851B623071058105910508F0C9C18F
:1059300080914D0390914E039C012F5F3F4F309318
:105940004E0320934D03203335470CF4ACC160E087
:1059500070E080E296E00E947F1E61E08DE00E9490
:10596000A31AA0914006B0E0FD01ED5BFF4E04914B
:1059700080913D06682F70E0FB01ED5BFF4E1491B6
:1059800040913F0650E0FA01ED5BFF4EE49020911C
:105990003E0630E0F901ED5BFF4E6490FD01E95AEF
:1059A000FF4E4490FB01E95AFF4EC490CA82FA01AF
:1059B000E95AFF4EF490F901E95AFF4ED490DB8288
:1059C00060E00E94D31A60E080913E060E94D31AE4
:1059D000812F90E0880F991F9C01295F364F3D83EE
:1059E0002C83F901A591B4918C915C2C5094852164
:1059F0008C93712CF301EE0FFF1FCF01895F964F3F
:105A00003C01FC01A591B4919C918D2D8095892339
:105A10008C9361E0809140060E94D31A61E08091EE
:105A20003F060E94D31A10E0000F111F095F164FA6
:105A3000F801A591B4918C9184298C93EE2DF0E01E
:105A4000EE0FFF1FE95FF64FA591B491EC91F09432
:105A5000FE22FC9280913D060E940F1B7C018091EA
:105A60003D060E940F1B6C01C7018C199D0904960D
:105A7000099708F01EC1CE0CDF1CD594C79491E0A5
:105A8000998360E0809140060E94D31A60E0809183
:105A90003F060E94D31AF801A591B4918C914094CD
:105AA00084218C9361E080913D060E94D31AEC81A1
:105AB000FD81A591B4919C91EA809E299C9361E01F
:105AC00080913E060E94D31A80913F060E940F1BD0
:105AD0007C0180913F060E940F1BE81AF90A24E01E
