:100000000C948A070C945E160C9437160C94CD0F42
:100010000C94CD0F0C94CD0F0C94B2070C94B20736
:100020000C94B2070C94B2070C94B2070C94B2076C
:100030000C94B2070C94B2070C94B2070C94B2075C
:100040000C94ED150C94B2070C9489130C94631363
:100050000C94B2070C94B2070C94B2070C94B2073C
:100060000C94D70F0C94B20700407A10F35A00A0FA
:10007000724E18090010A5D4E80000E87648170071
:1000800000E40B54020000CA9A3B000000E1F505B1
:10009000000080969800000040420F000000A086FB
:1000A00001000000102700000000E803000000002D
:1000B0006400000000000A000000000001000000D1
:1000C00000002C76D888DC674F0823DFC1DFAE59EB
:1000D000E1B1B796E5E3E453C63AE651997696E87E
:1000E000E6C28426EB898C9B62ED407C6FFCEFBC02
:1000F0009C9F40F2BAA56FA5F490055A2AF75C932D
:100100006B6CF9676DC11BFCE0E40D47FEF520E662
:10011000B500D0ED902E0300943577050080841E45
:10012000080000204E0A000000C80C333333330FA0
:10013000986E12831141EF8D2114893BE65516CF3D
:10014000FEE6DB18D1844B381BF77C1D901DA4BB49
:10015000E424203284725E228100C9F124ECA1E5FE
:100160003D27000000000500010000030D0602F419
:10017000050007050901F40A000A0C0A00F5190038
:10018000090F0A01F32A00100D1000F444000C0DB1
:100190000D01F4580003050501F45A00061106018B
:1001A000F4670006110600F4740005060701F478F0
:1001B0000007080B02F97F0003050401FF81000519
:1001C000020600FB830003020401FF8400050D0505
:1001D00000F48D00090D0A01F49C00050D0A02F4DB
:1001E000A500090D0A01F4B400080D0A01F4C100CC
:1001F000080D0A02F4CE00090D0A01F4DD00090D14
:100200000A01F4EC00090D0A00F4FB000A0D0A00D3
:10021000F40C01090D0A01F41B0103090401F81F84
:1002200001030C0401F8240109090B01F82F01094D
:10023000060B01FA360109090B01F84101090D0B02
:1002400001F45001100F1200F46E010C0D0D00F4BA
:1002500082010B0D0D01F494010C0D0D01F4A801A8
:100260000C0D0D01F4BC01090D0C01F4CB01090DBD
:100270000B01F4DA010B0D0E01F4EC010B0D0D0175
:10028000F4FE01030D0601F40302080D0A01F41047
:10029000020C0D0D01F42402080D0B01F431020EC5
:1002A0000D1001F448020B0D0E01F45A020D0D0E53
:1002B00001F470020B0D0C01F482020D0E0E01F41C
:1002C00099020C0D0D01F4AD020B0D0C01F4BF02EF
:1002D000090D0C02F4CE020B0D0D01F4E0020C0D21
:1002E0000C00F4F402110D1100F410030C0D0C00BD
:1002F000F424030B0D0C01F43603090D0B01F44536
:100300000304110601F44E03050D0500F457030420
:10031000110600F4600308080B01F468030A010ADF
:1003200000046A0303020500F46B030A0A0A01F7DA
:1003300078030A0D0B01F48903090A0A01F79503F2
:10034000090D0B01F4A403090A0A01F7B003050D16
:100350000601F4B903090E0B01F7C903090D0B01DE
:10036000F4D803030D0501F4DD0304110500F4E6E0
:1003700003090D0A01F4F503030D0501F4FA030E58
:100380000A1001F70C04090A0B01F718040A0A0BFA
:1003900001F725040A0E0B01F73704090E0B01F7CC
:1003A0004704060A0701F74F04090A0A01F75B042C
:1003B000050C0601F56304090A0B01F76F040A0A2C
:1003C0000A00F77C040E0A0E00F78E040A0A0A00DF
:1003D000F79B040A0E0A00F7AD04080A0901F7B7F3
:1003E0000404110701F4C00401110502F4C304045C
:1003F000110702F4CC0408020900FCFFFFFE487E4E
:10040000EFDFBF7440198667FDFF330CC333FEFF77
:1004100099866190101F1FDEFF3F83C0FC1F09FCFF
:10042000FEF7F1E04038107C30C620C640C6407C64
:1004300080399C013E0363026304630C3E081C0E7A
:1004400001F83B83B83F01E03E6776E3EE1CF3C75B
:10045000FE3F70FFF418631C738E38E38E1870C370
:10046000060861830E3871C71C71C638E318402135
:100470003E45283870E7FFE70E1CFC9CFFC0FC08D7
:10048000C4231084621188003E3F9DDC7E3F1F8F95
:10049000C7E3F1DDCFE3E008FFF39CE739CE7380DB
:1004A0003E3FB8FC70381C1C1C1C1C1C0FF7F83C91
:1004B0007FE7E7070C0E0707E7E77E3C0E1E1E2EC0
:1004C0002E4E4E8EFFFF0E0E0E7F3F90180DE7FB57
:1004D0009E070381F1FFE7C03E3F9CFC0EE7FBDF78
:1004E000C7E3F1DDEFE3E0FFFFC0E0E0607030382C
:1004F0001C0C0E0703803F1FEE3F87E3CFC7FBCFE7
:10050000E1F87F3DFE3F003E3FBDDC7E3F1FDEFF4A
:100510003B81F9CFE3C0FC0007E0FC0007E5E00009
:1005200083C7DF0C0780F81F0180FFFFC0000FFFAB
:10053000FC00703F03E0387DF1E080003E3FB8FCF6
:1005400070381C1C1C1C0E000381C003F00FFC1E25
:100550000E380270E96319C219C611C633C6326378
:10056000FE73DC3C001FF807F00700F00F80F81D59
:10057000819C19C38C3FE7FE706607E070FF9FFB0C
:1005800083F07E0FFF3FF706E0FC1F83FFEFF81FAD
:1005900083FE78E707E00E00E00E00E0070778F33F
:1005A000FE1F80FF8FFCE0EE0EE07E07E07E07E09E
:1005B0007E0EE0EFFCFF80FFFFF81C0E07FBFDC086
:1005C000E070381FFFF8FFFFF81C0E07FBFDC0E0CE
:1005D00070381C0E000F87F9E3B83E01C038FF1FCA
:1005E000E06E0DE39FD0F2E0FC1F83F07E0FFFFF73
:1005F000FF07E0FC1F83F07E0EFFFFFFFFFE0707F3
:10060000070707070707E7E7E77E3CE0EE1CE38EF6
:1006100070EE0FC0FE0F70E70E38E1CE0EE0E0E0A6
:10062000E0E0E0E0E0E0E0E0E0E0FFFFF87FE1FFB5
:1006300087FE1FEC7FB37ECDFB37ECDF9E7E79F922
:10064000E7E79CE0FE1FC3FC7FCFD9FBBF37E7FC89
:100650007F87F0FE0E0F81FF1E3CE0EE03F01F804F
:10066000FC07E03B839E3C7FC0F800FF9FFB87F0C8
:100670007E0FC3FFF7FCE01C0380700E000F81FFAC
:100680001E3CE0EE03F01F80FC07E1BB8F9E3C7F29
:10069000E0FB8008FF8FFCE0EE0EE0EE0EFFCFFCEB
:1006A000E0EE0EE0EE0EE0F03F0FFBC7F07E01FC47
:1006B0001FF03F00FC1DC7BFE1F8FFFFC70381C06B
:1006C000E070381C0E070381C0E0FC1F83F07E0F32
:1006D000C1F83F07E0FC1FC7BFE1F060670E70E3A1
:1006E0000C30C39C1981981F80F00F00F006006148
:1006F000C3B8E19C70CE3CE336719B30ED98367CFC
:100700001B3C0F1E078F01C380E18070E78E39C14B
:10071000F81F80F00700F01F819C39C70E70E0E0E1
:10072000FC39C718C3B83607C0700E01C0380700BF
:10073000E0FFFFC0E0E0F07070707838381FFFF81D
:10074000FFEEEEEEEEEEEEEFF086108610843084D3
:100750003080FF7777777777777FF0181C3C3E36CD
:100760006663C3FFC0CC3F1FEE380E3F9EEE3B9E3C
:10077000FF9EE0E0380E03BCFFBCEE1F87E1F87F70
:100780003BFEEF001F3FDC7C0E070380E37F8F0002
:100790000381C0E777FBBF8FC7E3F1FDEFF3B83EFE
:1007A0003F9CDC3FFFFF81C37F8F003BDDFFB9CE65
:1007B000739CE7003BBFDDFC7E3F1F8FEF7F9DC03A
:1007C000FC77F1F0E070381DEFFF9F8FC7E3F1F881
:1007D000FC7E38FC7FFFFFFE770777777777777FA0
:1007E000E0E070381C7E7773F1F8FE7739DC6E3804
:1007F000FFFFFFFFFEEF7BFFFE39F8E7E39F8E7EF2
:1008000039F8E7E39F8E70EF7FF8FC7E3F1F8FC7BC
:10081000E3F1C01E1FE73B87E1F87E1DCE7F878096
:10082000EF3FEF3B87E1F87E1FCEFFBBCE0380E0BA
:1008300038003BBFFDFC7E3F1F8FEF7F9DC0E07007
:10084000381CEFFF38E38E38E3803E3FB8FC0FC31F
:10085000FC3FC7FF1F0073BFF739CE739E70E3F1F3
:10086000F8FC7E3F1F8FC7FFBDC0E1986739CC33CE
:100870000DC3E0781E0700E31D9E667999E677B800
:10088000D2C3CF0F3C3CF07380739CE3F0781E071B
:1008900081E0FC739CE0E1D86739CE330EC3E07889
:1008A0001E0300C070380E00FEFE0E1C383870E0CB
:1008B000FFFF3766666EE666666730FFFF80CE66CE
:1008C00066677666666EC0718E00000100FF0032BA
:1008D00000010000010200000703003010040000C6
:1008E0000008000202090000000A0000000C0000DD
:1008F000000D0000000F00000010000000110007B4
:10090000001200000013000000FF00C8001000905B
:100910001611002702FF00320012001A00FF0032F9
:10092000001300001829002A00FF003200300000E8
:1009300000310000003200000035000602360008D9
:10094000083700070038000102390000003C0000B1
:10095000003D0000002000000021000000500000C9
:10096000005100EF005200000053003F0160000002
:10097000A7610003006A00000090001000920000D0
:1009800000930003009500001197000000980000FC
:10099000000700330144434320436F6E74726F6C51
:1009A0006C6564205475726E7461626C6500FB0343
:1009B0006201207E1600000000003E5B4F5B3E3E61
:1009C0006B4F6B3E1C3E7C3E1C183C7E3C181C57FB
:1009D0007D571C1C5E7F5E1C00183C1800FFE7C39F
:1009E000E7FF0018241800FFE7DBE7FF30483A066E
:1009F0000E2629792926407F050507407F05253FDA
:100A00005A3CE73C5A7F3E1C1C08081C1C3E7F14C5
:100A1000227F22145F5F005F5F06097F017F00660F
:100A200089956A606060606094A2FFA29408047E69
:100A3000040810207E201008082A1C08081C2A0818
:100A4000081E101010100C1E0C1E0C30383E3830D2
:100A5000060E3E0E06000000000000005F000000D1
:100A600007000700147F147F14242A7F2A122313FF
:100A700008646236495620500008070300001C2213
:100A800041000041221C002A1C7F1C2A08083E0845
:100A90000800807030000808080808000060600046
:100AA00020100804023E5149453E00427F4000723A
:100AB000494949462141494D331814127F102745B1
:100AC0004545393C4A4949314121110907364949CF
:100AD0004936464949291E000014000000403400F0
:100AE00000000814224114141414140041221408A4
:100AF00002015909063E415D594E7C1211127C7F5C
:100B0000494949363E414141227F4141413E7F4969
:100B10004949417F090909013E414151737F080854
:100B2000087F00417F41002040413F017F0814229F
:100B3000417F404040407F021C027F7F0408107FBD
:100B40003E4141413E7F090909063E4151215E7FF8
:100B500009192946264949493203017F01033F40CB
:100B600040403F1F2040201F3F4038403F63140853
:100B7000146303047804036159494D43007F4141E4
:100B8000410204081020004141417F040201020497
:100B90004040404040000307080020545478407F04
:100BA000284444383844444428384444287F38543E
:100BB00054541800087E090218A4A49C787F0804E5
:100BC000047800447D40002040403D007F102844D0
:100BD0000000417F40007C047804787C080404789D
:100BE0003844444438FC1824241818242418FC7C65
:100BF00008040408485454542404043F44243C404A
:100C000040207C1C2040201C3C4030403C442810AC
:100C100028444C9090907C4464544C4400083641E5
:100C200000000077000000413608000201020402C3
:100C30003C2623263C1EA1A161123A4040207A386E
:100C400054545559215555794122545478422155CF
:100C500054784020545579400C1E52721239555523
:100C60005559395454545939555454580000457CF9
:100C7000410002457D420001457C407D1211127DFC
:100C8000F0282528F07C545545002054547C547C91
:100C90000A097F4932494949323A4444443A324A7E
:100CA0004848303A4141217A3A42402078009DA09C
:100CB000A07D3D4242423D3D4040403D3C24FF241A
:100CC00024487E4943662B2FFC2F2BFF0929F62051
:100CD000C0887E090320545479410000447D41308E
:100CE00048484A32384040227A007A0A0A727D0D1A
:100CF00019317D2629292F28262929292630484DD2
:100D00004020380808080808080808382F10C8AC20
:100D1000BA2F102834FA00007B000008142A14228D
:100D200022142A14085500550055AA55AA55AAFFA1
:100D300055FF55FF000000FF00101010FF001414B5
:100D400014FF001010FF00FF1010F010F014141426
:100D5000FC001414F700FF0000FF00FF1414F4045B
:100D6000FC141417101F10101F101F1414141F0050
:100D7000101010F0000000001F101010101F1010B5
:100D80001010F010000000FF1010101010101010C4
:100D900010FF10000000FF140000FF00FF00001F04
:100DA00010170000FC04F414141710171414F404A2
:100DB000F40000FF00F714141414141414F700F7CF
:100DC000141414171410101F101F141414F41410FA
:100DD00010F010F000001F101F0000001F14000092
:100DE00000FC140000F010F01010FF10FF14141499
:100DF000FF141010101F00000000F010FFFFFFFF95
:100E0000FFF0F0F0F0F0FFFFFF0000000000FFFF38
:100E10000F0F0F0F0F3844443844FC4A4A4A347EBF
:100E200002020606027E027E02635549416338448F
:100E3000443C04407E201E2006027E020299A5E763
:100E4000A5991C2A492A1C4C7201724C304A4D4DFE
:100E5000303048784830BC625A463D3E49494900E6
:100E60007E0101017E2A2A2A2A2A44445F44444002
:100E7000514A444040444A51400000FF0103E08091
:100E8000FF000008086B6B083612362436060F097F
:100E90000F06000018180000001010003040FF017D
:100EA00001001F01011E00191D1712003C3C3C3CB3
:100EB000000000000000000000240027002A0000BD
:100EC00000000023002600290000000008000201A5
:100ED00000000304070000000000000000010204FD
:100EE00008102040800102040810200102040810AC
:100EF0002000000000250028002B00040404040446
:100F000004040402020202020203030303030300B7
:100F100089317A3111241FBECFEFD8E0DEBFCDBFBB
:100F200027E0A4EFB2E001C01D92AB34B207E1F7B5
:100F300012E0A0E0B1E0E8E1F9E702C005900D920F
:100F4000A43FB107D9F717E0C9E8D7E004C021975B
:100F5000FE010E94643AC838D107C9F70E94FD25F6
:100F60000C947F3C0C9400006F927F928F929F9222
:100F7000AF92BF92CF92DF92EF92FF920F931F93A7
:100F8000CF93DF93EC014B015A0169013801E881ED
:100F9000F9810680F781E02D0995E881F9810684C1
:100FA000F785E02D87019601A501B401CE010995D1
:100FB000E881F981A501460D571D4150510906846C
:100FC000F785E02D9601B401CE010995E881F981FC
:100FD0000484F585E02D9301A501B401CE010995A6
:100FE000E881F981C80CD91CB601615071090484EB
:100FF000F585E02D9301A501CE010995E881F981E0
:101000000288F389E02DCE01DF91CF911F910F91DE
:10101000FF90EF90DF90CF90BF90AF909F908F9018
:101020007F906F900994CF92DF92EF92FF920F938F
:101030001F93CF93DF9300D000D000D0CDB7DEB7A1
:101040006C01DC01ED91FC916217730789F40417C0
:1010500015072CF4942F852FA801092F182F041B96
:10106000150B98012F5F3F4F008CF18DE02D12C0C2
:101070004017510709F5261737072CF4962F872FAD
:10108000B901292F382F261B370B2F5F3F4F028CBA
:10109000F38DE02D8701C601099526960FB6F894C9
:1010A000DEBF0FBECDBFDF91CF911F910F91FF909B
:1010B000EF90DF90CF9008950680F781E02D2D838B
:1010C0003E834B835C8369837A830995D601ED91D6
:1010D000FC910088F189E02D2D813E814B815C815E
:1010E00069817A81C6010995D601ED91FC9102884A
:1010F000F389E02DC60126960FB6F894DEBF0FBE29
:10110000CDBFDF91CF911F910F91FF90EF90DF90B6
:10111000CF900994EF92FF920F931F93DC01ED9112
:10112000FC9111971A960D911C911B9718962D9171
:101130003C911997048CF58DE02D7B0140E050E047
:1011400060E070E009951F910F91FF90EF90089576
:101150004F925F926F927F928F929F92AF92BF92C7
:10116000CF92DF92EF92FF920F931F93CF93DF9373
:1011700000D0CDB7DEB76C015A0139014801DC015E
:10118000ED91FC910680F781E02D69837A830995C2
:101190006981462E7A81572E640C751CD601ED911B
:1011A000FC91461457046CF40484F585E02D870106
:1011B0009401A501B201C6010995BFEF4B1A5B0A64
:1011C000EDCF0288F389E02DC6010F900F90DF91DB
:1011D000CF911F910F91FF90EF90DF90CF90BF9034
:1011E000AF909F908F907F906F905F904F900994F9
:1011F000AF92BF92CF92DF92EF92FF920F931F9325
:10120000CF93DF9300D000D0CDB7DEB75C0169018A
:10121000DC01ED91FC910680F781E02D4B835C832E
:1012200069837A830995D501ED91FC9169817A8171
:101230009B012C0D3D1D215031090088F189E02DC5
:1012400078014B815C818A01C5010995D501ED9139
:10125000FC910288F389E02DC5010F900F900F904B
:101260000F90DF91CF911F910F91FF90EF90DF9042
:10127000CF90BF90AF900994AF92BF92CF92DF9280
:10128000EF92FF920F931F93CF93DF9300D000D084
:10129000CDB7DEB75C016901DC01ED91FC91068000
:1012A000F781E02D4B835C8369837A830995D501AF
:1012B000ED91FC914B815C81C40ED51EB1E0CB1A3F
:1012C000D1080088F189E02D7801860169817A8151
:1012D0009B01C5010995D501ED91FC910288F38927
:1012E000E02DC5010F900F900F900F90DF91CF91DF
:1012F0001F910F91FF90EF90DF90CF90BF90AF9034
:1013000009940895EF92FF920F931F93DC01ED91E2
:10131000FC91048CF58DE02D09951F910F91FF90A4
:10132000EF9008950F931F93DC01ED91FC91028CD7
:10133000F38DE02D09951F910F9108950F931F9341
:10134000DC01ED91FC91008CF18DE02D09951F9150
:101350000F910895DC01ED91FC910480F581E02D61
:10136000099408952F923F924F925F926F927F92CD
:101370008F929F92AF92BF92CF92DF92EF92FF92A5
:101380000F931F93CF93DF9300D01F92CDB7DEB79B
:101390004C017B836A836A01590117019801241B60
:1013A000350B37FF03C0319521953109C5014A81BD
:1013B0005B81841B950B97FF03C0919581959109E3
:1013C00051E059838217930714F019820BC09A2DAC
:1013D0008B2D5801092F182F9A818B81DB82CA82AD
:1013E000C92ED82E8A819B81A816B9065CF49C2D43
:1013F0008D2D6801092F182F9A818B81BB82AA82BB
:10140000A92EB82E2501AA81BB814A1A5B0A380190
:101410006C187D0877FE03C07194619471087201A5
:1014200057FE03C0BFEFEB1AFB0AF594E794C01612
:10143000D1061CF00FEF1FEF1FC001E010E01CC031
:10144000D401ED91FC91B9810084F185E02D9101E9
:10145000BB23C1F04A815B81B601C4010995E6183E
:10146000F708F7FE04C0C00ED11EE40CF51CEA819B
:10147000FB813196FB83EA834A815B81A416B50622
:10148000FCF604C0A6016A817B81E7CF0F900F9024
:101490000F90DF91CF911F910F91FF90EF90DF9010
:1014A000CF90BF90AF909F908F907F906F905F9004
:1014B0004F903F902F900895CF93DF93EC0120E061
:1014C00030E0A9016F85788989899A890E94C83995
:1014D00018161CF4EBA1FCA102C0EDA1FEA1DF9146
:1014E000CF910994DC0112962C91213069F028F0FB
:1014F000223089F02430B1F00895DC01ED91FC91A7
:101500000280F381E02D0994DC01ED91FC910480CF
:10151000F581E02D0DC0DC01ED91FC910680F78195
:10152000E02D06C0DC01ED91FC910084F185E02DF9
:10153000099485ED8093BC008091BC0084FDFCCFB4
:101540001092200608954091AD03262F30E0240F1D
:10155000311D21323105DCF4209120062430C9F4FC
:10156000FC0180E090E0861758F43091AD032191A2
:10157000DC01A557BC4FA30FB11D2C930196F3CFEF
:101580008091AD03680F6093AD0380E0089581E022
:10159000089582E0089508958FEF9FEF08958FEFEB
:1015A0009FEF089580918A0390E09195819591092C
:1015B0000895CF92DF92EF92FF920F931F93CF93F4
:1015C000DF937C01262F972F8A01809121068823A3
:1015D00091F0C62FD72F6E01C40ED51ECC15DD0598
:1015E00071F06991D701ED91FC910190F081E02DAE
:1015F000C7010995F3CF642F822F0E94A30AC80167
:10160000DF91CF911F910F91FF90EF90DF90CF90DE
:101610000895CF93DF931F92CDB7DEB769832091F2
:1016200021062223D1F020914306203240F021E010
:1016300030E0FC013383228380E090E015C080918C
:101640002206E82FF0E0ED5DF94F998190838F5FDE
:10165000809322068093430605C061E0CE01019687
:101660000E94A30A81E090E00F90DF91CF9108954E
:10167000CF93DF93EC01613089F050F06230E1F0FC
:10168000633061F561E08B810E94E41360E019C072
:1016900061E08B810E94E41360E005C060E08B8113
:1016A0000E94E41361E08C810E94E41361E08D816B
:1016B0000E94E41360E00DC060E08B810E94E4139F
:1016C00061E08C810E94E41360E08D810E94E4134C
:1016D00061E08E81DF91CF910C94E413DF91CF9183
:1016E0000895CF93DF93EC01613049F030F0623020
:1016F00061F06330A1F460E009C060E001C061E026
:101700008B810E94E41361E005C061E08B810E943F
:10171000E41360E08C81DF91CF910C94E413DF91AE
:10172000CF9108951F93CF93DF93EC0111E020E058
:1017300030E0A9016F85788989899A890E94C83922
:1017400018160CF010E0612F8C810E94E41361E008
:101750008B810E94E41360E08B81DF91CF911F9118
:101760000C94E4138F929F92AF92BF92CF92DF922C
:10177000EF92FF920F931F93CF93DF93EC018B8532
:101780009C85AD85BE850F81188529853A85BC016C
:10179000CD01601B710B820B930B09F4D0C08AF052
:1017A0000E942E379B01AC010E94B4382F89388DDE
:1017B000498D5A8D0E948D370E94D3396B017C016F
:1017C0001BC090958095709561957F4F8F4F9F4F6F
:1017D0000E942E379B01AC010E94B4382F89388DAE
:1017E000498D5A8D0E948D370E94D3396B017C013F
:1017F000F7FAF094F7F8F0948F849888A988BA885B
:10180000A5019401C701B6010E94C83918160CF051
:1018100043C020E030E0A901C501B4010E94273790
:1018200081110BC06F89788D898D9A8D9B01AC01D8
:101830000E94B4380E94D3391BC0A50194016F895E
:10184000788D898D9A8D0E9420396B017C0120E072
:1018500030E0A9010E94C839181624F0F7FAF09474
:10186000F7F8F094A7019601C501B4010E94B438BD
:101870007B018C01BB88CC88DD88CE892B2D3C2D4B
:101880004D2D5C2F0E94C83918160CF05DC03B2D01
:101890007C2D8D2D9C2F5FC0A5019401C701B60141
:1018A0000E94273787FF54C020E030E0A901C5011E
:1018B000B4010E942737811111C06F89788D898DFD
:1018C0009A8D9B01AC010E94B4380E94D3396B0100
:1018D0007C01F7FAF094F7F8F0941DC0A50194018B
:1018E0006F89788D898D9A8D0E9420396B017C01DA
:1018F00020E030E0A9010E94C839181624F0F7FA58
:10190000F094F7F8F094A7019601C501B4010E9484
:10191000B3386B017C018B889C88AD88BE88B7FA90
:10192000B094B7F8B094A5019401C701B6010E9424
:10193000273787FF0DC0382D792DC5010CC030E049
:1019400070E080E090E007C03E2D7F2DC80103C00D
:101950003C2D7D2DC701C32ED72E7C01C701B601BA
:10196000DF91CF911F910F91FF90EF90DF90CF907B
:10197000BF90AF909F908F90089561E080911A057D
:1019800090911B050C941A1862E080911A059091B1
:101990001B050C941A182F923F924F925F926F92F0
:1019A0007F928F929F92AF92BF92CF92DF92EF92EF
:1019B000FF920F931F93CF93DF93880F991F880F88
:1019C000991F0397242F267030E0359527954C01F9
:1019D000820E931E4170342E07EF12E0C0E0D0E07B
:1019E000222423946AE0A62EB12CF80181919191D2
:1019F0008F018816990609F0D5C030928903D093DB
:101A00008803C0938703209286034091FE0450917F
:101A1000FF0460910005709101058091FA04909196
:101A2000FB04A091FC04B091FD04481759076A0714
:101A30007B0709F493C00E94F2146B017C01409172
:101A40000E0550910F056091100570911105809160
:101A5000120590911305A0911405B0911505840FFE
:101A6000951FA61FB71F8C159D05AE05BF0508F075
:101A700075C0409002055090030560900405709079
:101A8000050520E030E0A901C301B2010E94C83978
:101A9000181664F48091FA049091FB04A091FC0460
:101AA000B091FD040196A11DB11D14C020E030E0ED
:101AB000A901C301B2010E94273787FF13C080919B
:101AC000FA049091FB04A091FC04B091FD040197ED
:101AD000A109B1098093FA049093FB04A093FC043C
:101AE000B093FD046091FA04637083EF94E00E9468
:101AF000720AC0921205D0921305E0921405F0927A
:101B0000150583EF94E00E94B20B9B01AC0160933A
:101B1000020570930305809304059093050560E02A
:101B200070E08AE794E40E9420396B017C0120E098
:101B300030E0A9010E94C83918161CF4C701B6018B
:101B400003C0C701B60190580E94993960930E05F1
:101B500070930F0580931005909311058091860373
:101B6000882399F0209283038091840390918503C8
:101B700097FF09C00A979093850380938403B092DE
:101B80000501A09204011092860380918403909134
:101B9000850397FF03C01092060104C0892B11F042
:101BA000209206012196C730D10509F01ECFDF91A2
:101BB000CF911F910F91FF90EF90DF90CF90BF904A
:101BC000AF909F908F907F906F905F904F903F90DD
:101BD0002F9008952F923F924F925F926F927F9233
:101BE0008F929F92AF92BF92CF92DF92EF92FF922D
:101BF0000F931F93CF93DF93CDB7DEB76C970FB6DC
:101C0000F894DEBF0FBECDBF9C8F8B8F1B012A01C6
:101C100018870F83FE82ED82CA82DC0158964D91AF
:101C20005C9159974115510509F0B2C018968D91F4
:101C30009C911997681779070CF096C11A968D91A7
:101C40009C911B97481659060CF08EC1AC2CB12CF8
:101C5000CB01B6E0CB9E800D911D112418161906FC
:101C60000CF082C1C50133E0880F991F3A95E1F766
:101C7000840D951D181619060CF076C1AB8DBC8D20
:101C800057968C91811103C0203B08F02F5FAB8DDC
:101C9000BC8DED91FC9111970680F781E02DCD016F
:101CA0002A8F09952A8DB5E02B9F9001112461019F
:101CB00041011B82F901E219F309FA87E9879201D0
:101CC000285F3F4F3C872B873B81353049F0E985C2
:101CD000FA85E80DF91DEB54F64F4491498301C094
:101CE000198232011201598150FF13C0AB8DBC8D96
:101CF000ED91FC91BA81B13031F40084F185E02D91
:101D00002F81388519C00284F385E02DEF80F88497
:101D10001EC0ED81FE812F813885E217F307F1F0B7
:101D2000AB8DBC8DED91FC91BA81B13059F400843A
:101D3000F185E02D2D813E81A301B4018B8D9C8D19
:101D400009950CC00284F385E02DED80FE808501AD
:101D50009501A101B6018B8D9C8D0995E981E695D0
:101D6000E983FFEF6F1A7F0A2A0C3B1C2B853C8509
:101D70006216730609F0B7CF3B813F5F3B834FEF9D
:101D8000841A940ACA0CDB1C363009F09DCFCAC0F5
:101D9000FA0134969491329765917491291BCB0185
:101DA000B7E02B9F800D911D1124FA0125913491EC
:101DB0003A8B298BFC0165907490FC01329634912A
:101DC0003D83319644914B873296C490319614915D
:101DD0005A81523058F08C2C0C2C000C9908812F11
:101DE000012E000C990B9C838B8304C01C821B82E8
:101DF000812C912CAB8DBC8DED91FC9111970680BF
:101E0000F781E02DCD010995BA81AB2EB12C8A9CCA
:101E1000C0018B9C900D9A9C900D1124FC01E20D49
:101E2000F31DF88BEF871982912C812CEC2DCC0CB3
:101E3000FF0B91012E0F3F1F3A87298761013D81DA
:101E4000C30ED11CA6014E0F5F1F5F8B4E8BC201CC
:101E5000810F911D17FD9A95998F888F5B85851647
:101E600008F060C0882D90E04B815C81480F591FBD
:101E70004A9D90014B9D300D5A9D300D1124D90182
:101E8000A40DB51DBE87AD87C984DA842F84388838
:101E9000B981E985BE1BBB8B288D398D280F391F71
:101EA0003D8B2C8B8B898C0D2E893F89C216D306D6
:101EB00099F1877041F4C3010196E989FA89E60D29
:101EC000F71D94903C0197FE20C0AB8DBC8DED9129
:101ED000FC91BA81B13061F40084F185E02D2F814D
:101EE00038854C895D89B6018B8D9C8D09950DC017
:101EF0000284F385E02DEF80F884850195014D85FE
:101F00005E85B1018B8D9C8D0995990CEFEFCE1AF2
:101F1000DE0A2A0C3B1CC6CF39814D81340F398330
:101F200083949CCFAB8DBC8DED91FC911197028871
:101F3000F389E02DCD016C960FB6F894DEBF0FBE8D
:101F4000CDBFDF91CF911F910F91FF90EF90DF9068
:101F5000CF90BF90AF909F908F907F906F905F9049
:101F60004F903F902F9009946C960FB6F894DEBF77
:101F70000FBECDBFDF91CF911F910F91FF90EF90DA
:101F8000DF90CF90BF90AF909F908F907F906F9099
:101F90005F904F903F902F9008951F920F920FB631
:101FA0000F9211240F900FBE0F901F9018951F9243
:101FB0000F920FB60F9211242F933F934F935F937D
:101FC0006F937F938F939F93AF93BF93EF93FF9301
:101FD0008091B900887F803609F49CC068F588320A
:101FE00009F45BC090F4803109F454C038F48823BC
:101FF00009F4F6C0883009F44DC0F6C0883109F400
:102000004CC0803209F45DC0EFC0803409F468C070
:1020100048F4803309F455C0883309F0E5C0809353
:102020001E06D8C0803509F44FC0883509F45DC05C
:10203000883409F0D9C0D6C0883909F4C7C0A8F4DB
:10204000883709F467C038F4883609F463C08037EC
:1020500009F460C0C9C0883809F4B8C0803909F4EF
:102060005FC0803809F0C0C05BC0803B09F486C007
:1020700038F4803A09F466C0883A09F47FC0B4C0E5
:10208000803C09F4A7C0883C09F4A4C0883B09F44B
:102090008AC0AAC08091FB0510C090911D06809156
:1020A0001C06981770F5E0911D0681E08E0F809355
:1020B0001D06F0E0E450FA4F80818093BB0085EC70
:1020C00086C080931E068EC0E0911D0681E08E0FB3
:1020D00080931D068091BB00F0E0E450FA4F8083AE
:1020E00090911D0680911C066EC0E0911D0681E056
:1020F0008E0F80931D068091BB00F0E0E450FA4FF4
:10210000808380911F0681116DC081E08093FA0564
:1021100084EA61C083E0809320061092D103CFCF80
:102120008091D103803208F051C0E091D10381E069
:102130008E0F8093D1038091BB00F0E0EF54FC4FF1
:102140008083BDCF85EC8093BC00109220068091E7
:10215000D103803230F4E091D103F0E0EF54FC4F32
:1021600010826091D10370E0E091AF03F091B00371
:1021700081EB93E009951092D10336C084E08093FF
:1021800020061092AE031092AD03E091AB03F091E4
:10219000AC0309958091AD03811105C081E0809366
:1021A000AD0310928B03E091AE0381E08E0F80931C
:1021B000AE03F0E0E557FC4F80818093BB00909127
:1021C000AE038091AD03981708F479CF85E880932A
:1021D000BC000AC085EC8093BC001092200604C0AD
:1021E00010921E060E94990AFF91EF91BF91AF9144
:1021F0009F918F917F916F915F914F913F912F911F
:102200000F900FBE0F901F901895FC01918D828D3D
:10221000981761F0828DDF01A80FB11D5D968C913A
:10222000928D9F5F9F73928F90E008958FEF9FEF45
:102230000895FC01918D828D981731F0828DE80F01
:10224000F11D858D90E008958FEF9FEF0895FC01BB
:10225000918D228D892F90E0805C9F4F821B910988
:102260008F739927089580E094E00E94271121E060
:10227000892B09F420E0822F0895FC01848DDF0171
:10228000A80FB11DA35ABF4F2C91848D90E00196E9
:102290008F739927848FA689B7892C93A089B189D8
:1022A0008C9180648C93938D848D981306C00288E2
:1022B000F389E02D80818F7D80830895EF92FF92D6
:1022C0000F931F93CF93DF93EC0181E0888F9B8D59
:1022D0008C8D981305C0E889F989808185FD24C01B
:1022E000F62E0B8D10E00F5F1F4F0F731127E02E9E
:1022F0008C8DE8120CC00FB607FCFACFE889F9897B
:10230000808185FFF5CFCE010E943D11F1CF8B8DED
:10231000FE01E80FF11DE35AFF4FF0820B8FEA89AF
:10232000FB898081806207C0EE89FF896083E8892C
:10233000F98980818064808381E090E0DF91CF9192
:102340001F910F91FF90EF900895CF93DF93EC01D1
:10235000888D8823C9F0EA89FB89808185FD05C0C5
:10236000A889B9898C9186FD0FC00FB607FCF5CFFF
:10237000808185FFF2CFA889B9898C9185FFEDCF47
:10238000CE010E943D11E7CFDF91CF91089580E00B
:1023900090E0892B29F00E94331181110C940000E8
:1023A0000895089508951092F60380910C038336E2
:1023B000B8F54091F2035091F3036091F4037091EA
:1023C000F5034093EE035093EF036093F003709393
:1023D000F103843081F058F4833011F54093EA031F
:1023E0005093EB036093EC037093ED0319C0865098
:1023F000833050F015C04093E6035093E703609399
:10240000E8037093E9030CC08091E503882341F051
:102410004093E1035093E2036093E3037093E4037A
:102420001092E0031092DF031092DE031092DD039E
:102430001092DC031092DB031092DA0380E88093A1
:10244000D903F8948091D803882379F0209105036B
:102450003091060391E080E04091D6035091D7037C
:102460004217530721F090E002C090E080E0909383
:10247000D4038093D50310920603109205031092A3
:10248000D7031092D60378941092D8038DE492E18A
:102490009093E6048093E5040895F89480910503F1
:1024A000909106032091D6033091D70382179307AA
:1024B00011F4789408958091050390910603821B8E
:1024C000930B029748F0789483ED91E19093E604A2
:1024D0008093E50487E625C0209107033091080327
:1024E0008091090390910A034091050350910603DE
:1024F0005093D7034093D6037894B901645371097C
:1025000041E06D30710580F040E02A553109273BEC
:10251000364250F083ED91E19093E6048093E50418
:1025200088E680930C0308959C01245331092D30D3
:10253000310530F08A559109873B964268F0EACF21
:10254000442361F08091D4039091D5030196909338
:10255000D5038093D4030895442391F0F894809197
:10256000090390910A03909308038093070381E085
:1025700080930B0378941092D5031092D40308959E
:102580008091D4039091D5030A97ACF38DEC92E13E
:102590009093E6048093E5040895F89480910503F0
:1025A000909106032091D6033091D70382179307A9
:1025B00011F4789408958091050390910603821B8D
:1025C000930B029748F0789483ED91E19093E604A1
:1025D0008093E50487E672C0409107035091080399
:1025E0002091090330910A0380910503909106031D
:1025F0009093D7038093D6037894BA0164537109FA
:1026000091E06D30710570F090E04A555109473BFB
:10261000564240F083ED91E19093E6048093E50407
:1026200088E64CC081E0A901445351094D30510561
:1026300030F080E02A553109273B364258F798138D
:10264000E9CF8091D903882381F0992341F0E0916B
:10265000DA03F0E0E552FC4F9081982B908390E0F4
:10266000959587958093D90308958091DA0321E0A9
:10267000280F2093DA0330E83093D9039923A9F087
:1026800091E09093D8038250843038F48EEF94E137
:102690009093E6048093E504089583ED91E190938F
:1026A000E6048093E50489E609C0263048F083ED0E
:1026B00091E19093E6048093E5048AE680930C030D
:1026C00008950E94613C1F920F920FB60F92112441
:1026D0002F933F934F935F936F937F938F939F932A
:1026E000AF93BF93EF93FF9380E094E00E943D117E
:1026F000FF91EF91BF91AF919F918F917F916F91DA
:102700005F914F913F912F910F900FBE0F901F90AF
:1027100018951F920F920FB60F9211242F938F933B
:102720009F93EF93FF93E0911004F0911104808147
:10273000E0911604F091170482FD12C090818091FF
:1027400019048F5F8F7320911A04821751F0E09162
:102750001904F0E0E050FC4F958F8093190401C0FC
:102760008081FF91EF919F918F912F910F900FBEDC
:102770000F901F901895833081F028F4813099F0E4
:102780008230A1F008958730A9F08830B9F0843004
:10279000D1F4809180008F7D03C0809180008F777D
:1027A00080938000089584B58F7702C084B58F7DB3
:1027B00084BD08958091B0008F7703C08091B000F0
:1027C0008F7D8093B00008951F93CF93DF93282FC0
:1027D00030E0F901E753F14F8491F901E352F14FF1
:1027E000D491F901E550F14FC491CC23C9F0162FD3
:1027F00081110E94BB13EC2FF0E0EE0FFF1FEF5092
:10280000F14FA591B4918FB7F894111105C09C9127
:10281000ED2FE095E92302C0EC91ED2BEC938FBFF7
:10282000DF91CF911F910895CF93DF9390E0FC014A
:10283000E352F14F2491FC01E550F14F849188233C
:1028400061F190E0880F991FFC01EB54F14FC591A5
:10285000D491FC01EF50F14FA591B491611109C0E1
:102860009FB7F8948881209582238883EC912E234A
:102870000BC0623061F49FB7F8943881822F809545
:1028800083238883EC912E2B2C939FBF06C08FB798
:10289000F894E8812E2B28838FBFDF91CF91089584
:1028A0008E3008F08E508770806480937C00809119
:1028B0007A00806480937A0080917A0086FDFCCF54
:1028C000809178002091790090E0922B08953FB795
:1028D000F8948091FC039091FD03A091FE03B091C8
:1028E000FF0326B5A89B05C02F3F19F00196A11D37
:1028F000B11D3FBFBA2FA92F982F8827820F911D96
:10290000A11DB11DBC01CD0142E0660F771F881FDC
:10291000991F4A95D1F708958F929F92AF92BF92D7
:10292000CF92DF92EF92FF926B017C010E946714BD
:102930004B015C01C114D104E104F104F1F00E94E7
:102940006714DC01CB0188199909AA09BB09883EE3
:102950009340A105B10570F321E0C21AD108E10846
:10296000F10888EE880E83E0981EA11CB11CC114EA
:10297000D104E104F10419F7DDCFFF90EF90DF906F
:10298000CF90BF90AF909F908F9008950E94671452
:10299000A0910B034A2F50E020910D0330910E03BC
:1029A000FB01E21BF30B9F01FA01EE0FFF1FE95F32
:1029B000FC4F3183208360930D0370930E0380934B
:1029C0000F03909310032091050330910603240F09
:1029D000351F309306032093050381E08A278093F7
:1029E0000B0308952FB7F8946091F8037091F903E1
:1029F0008091FA039091FB032FBF08951F93CF930B
:102A0000DF939091DC038091DB038927C091DA0387
:102A1000C43068F09091DD038927C43041F0909173
:102A2000DE038927C53019F09091DF038927EC2F49
:102A3000F0E0E652FC4F9081891741F083ED91E17F
:102A40009093E6048093E50484E6B8C00E94F214F3
:102A50006093F2037093F3038093F4039093F50370
:102A60001092E503C33009F07DC01091DC03809122
:102A7000DB03111115C08F3F49F483ED91E1909371
:102A8000E6048093E504C0930C03A3C0811108C041
:102A900083ED91E19093E6048093E50484E08EC099
:102AA000982F907C9038D1F517FF38C0C12FD0E017
:102AB000C095D095C077DD27CC0FDD1FCC0FDD1F73
:102AC0008F73C80FD11D0E94842421E0C817D90735
:102AD00009F020E02093E503211107C0CF33D10591
:102AE00021F08091F402882389F08091F60381110E
:102AF0000DC0E091F502F091F602309739F0412FC8
:102B0000477013FB662760F9CE01099583ED91E1CB
:102B10009093E6048093E50487E050C087FF08C0E7
:102B200083ED91E19093E6048093E50485E646C049
:102B3000107C103441F083ED91E19093E604809392
:102B4000E50486E63BC091E020914706821390E0C1
:102B50009093E50383ED91E19093E6048093E5047F
:102B600086E02CC0C43069F59091DB03892F807C0E
:102B7000803839F58091DC03282F2578213009F53C
:102B8000C82FC670D0E0DC2FCC27807724E0829F4E
:102B9000C00DD11D11249F73C90FD11D0E94842423
:102BA00021E0C817D90709F020E02093E50383ED61
:102BB00091E19093E6048093E50488E080930C0310
:102BC00008C083ED91E19093E6048093E5041092B0
:102BD0000C03DF91CF911F9108951F920F920FB6B2
:102BE0000F9211242F933F938F939F93AF93BF9393
:102BF0008091F8039091F903A091FA03B091FB033F
:102C00003091F70323E0230F2D3720F40196A11D07
:102C1000B11D05C026E8230F0296A11DB11D20930A
:102C2000F7038093F8039093F903A093FA03B0930A
:102C3000FB038091FC039091FD03A091FE03B091F2
:102C4000FF030196A11DB11D8093FC039093FD032A
:102C5000A093FE03B093FF03BF91AF919F918F911B
:102C60003F912F910F900FBE0F901F9018951F92BC
:102C70000F920FB60F9211242F933F934F935F93B0
:102C80006F937F938F939F93AF93BF93EF93FF9334
:102C9000E0910201F09103010995FF91EF91BF913D
:102CA000AF919F918F917F916F915F914F913F91E4
:102CB0002F910F900FBE0F901F9018951F920F929B
:102CC0000FB60F9211242F933F934F935F936F93FF
:102CD0007F938F939F93AF93BF93EF93FF93E09175
:102CE0000001F09101010995FF91EF91BF91AF9122
:102CF0009F918F917F916F915F914F913F912F9114
:102D00000F900FBE0F901F901895CF92DF92EF9209
:102D1000FF92FC01A38DB48D9C9187A189238C9394
:102D2000A58DB68D9C9180A589238C938BB1962F10
:102D30009C7F8370892B8BB985B163708C7F682BE6
:102D400065B9A78DB0A19C9181A589238C93A78D8E
:102D5000B0A19C9185A1892B8C93A58DB68D9C915A
:102D600084A1892B8C9383E290E0DC011197F1F729
:102D70007BB1C52EDD24EE24FF246C2D6C7F737097
:102D8000762B7BB965B17C2D73706C7F672B65B931
:102D9000A78DB0A17C9161A567236C93A78DB0A18D
:102DA0007C9165A1672B6C93DC011197F1F77BB1E6
:102DB0006A01EE24FF246C2D6C7F7370762B7BB937
:102DC00065B17C2D73706C7F672B65B9A78DB0A141
:102DD0007C9161A567236C93A78DB0A17C9165A1BF
:102DE000672B6C93DC011197F1F77BB1C32ED42EC6
:102DF000E52EFF246C2D6C7F7370762B7BB965B14B
:102E00007C2D73706C7F672B65B9A78DB0A17C9109
:102E100061A567236C93A78DB0A17C9165A1672BF9
:102E20006C930197F1F78BB1922F9C7F8370892B64
:102E30008BB985B123708C7F282B25B9A78DB0A1C4
:102E40009C9181A589238C93A78DB0A19C9185A18C
:102E5000892B8C93A38DB48D9C9183A1892B8C930A
:102E6000FF90EF90DF90CF900895FC01A58DB68D77
:102E70009C9180A589238C938BB1962F9C7F837026
:102E8000892B8BB985B163708C7F682B65B9A78D51
:102E9000B0A19C9181A589238C93A78DB0A19C9111
:102EA00085A1892B8C93A58DB68D9C9184A1892BAE
:102EB0008C938BB1932F9C7F8370892B8BB985B1B9
:102EC00033708C7F382B35B9A78DB0A19C9181A52B
:102ED00089238C93A78DB0A19C9185A1892B8C937C
:102EE000A58DB68D9C9180A589238C938BB1942F51
:102EF0009C7F8370892B8BB985B143708C7F482B65
:102F000045B9A78DB0A19C9181A589238C93A78DEC
:102F1000B0A19C9185A1892B8C93A58DB68D9C9198
:102F200084A1892B8C938BB1922F9C7F8370892BEA
:102F30008BB985B123708C7F282B25B9A78DB0A1C3
:102F40009C9181A589238C93A78DB0A19C9185A18B
:102F5000892B8C930895FC01A58DB68D9C9180A53D
:102F600089238C938BB1972F9C7F8370892B8BB98E
:102F700085B173708C7F782B75B9A78DB0A19C91AA
:102F800081A589238C93A78DB0A19C9185A1892BC4
:102F90008C938BB1962F9C7F8370892B8BB985B1D5
:102FA00063708C7F682B65B9A78DB0A19C9181A5BA
:102FB00089238C93A78DB0A19C9185A1892B8C939B
:102FC000A58DB68D9C9184A1892B8C938BB1952F67
:102FD0009C7F8370892B8BB985B153708C7F582B64
:102FE00055B9A78DB0A19C9181A589238C93A78DFC
:102FF000B0A19C9185A1892B8C938BB1942F9C7F40
:103000008370892B8BB985B143708C7F482B45B970
:10301000A78DB0A19C9181A589238C93A78DB0A188
:103020009C9185A1892B8C930895682F87EE94E05D
:103030000C94090B1F93CF93DF93EC018C856130C7
:1030400011F48F5F01C081508C872C852F73822FE4
:1030500090E0203148F4EDE1F1E0E81BF90B40810C
:10306000FC01E35FFE4F20C030EF320F303138F407
:10307000FC01E350FF4F4081EDE2F1E013C030EE80
:10308000320F303148F4EDE3F1E0E81BF90B4081F9
:10309000FC01E351FF4F08C0FC01E352FF4F4081A8
:1030A000EDE4F1E0E81BF90B10812C8780E1489FEB
:1030B000A00111246C818D859E850E94B31E80E144
:1030C000189FA00111246F818D859E850E94B31EDB
:1030D0008C85803110F413E001C010E090EF980F60
:1030E000903108F4166090EE980F903108F41C604F
:1030F0008053803108F419608D859E8520E030E092
:1031000010FF03C040E050E102C040E050E06E819B
:10311000CB960E94271E8D859E8520E030E011FF12
:1031200003C040E050E102C040E050E06885CB962B
:103130000E94271E8D859E8520E030E012FF03C08F
:1031400040E050E102C040E050E06D81CB960E942B
:10315000271E8D859E8520E030E013FF03C040E0F0
:1031600050E102C040E050E06985CB960E94271EE6
:103170008C85DF91CF911F910895E0E0F4E0A08964
:10318000B18982E08C93A485B5851C92A685B7850C
:1031900080E18C93108EA489B58986E08C93A289F6
:1031A000B3898C9180618C93A289B3898C9188605A
:1031B0008C93A289B3898C9180688C930288F3895F
:1031C000E02D80818F7D808308958F929F92AF92B2
:1031D000BF92CF92DF92EF92FF920F931F93CF9304
:1031E000DF93EC016A017B019A01AB01C701B601D3
:1031F0000E94133A882319F06DED72E027C0460152
:103200005701E894B7F82FEF3FEF4FE75FE7C501AD
:10321000B4010E94133A81110DC02FEF3FEF4FE729
:103220005FE7C501B4010E94273718161CF461EE50
:1032300072E00CC02FEF3FEF4FE75FE4C701B6012C
:103240000E94C83918168CF465EE72E0CE01DF9149
:10325000CF911F910F91FF90EF90DF90CF90BF9093
:10326000AF909F908F900C9487252FEF3FEF4FE703
:103270005FECC701B6010E94273787FDE5CF20E04C
:1032800030E0A901C701B6010E94273787FF0AC0B5
:103290006DE2CE010E9480258C01F7FAF094F7F8D8
:1032A000F09402C000E010E02AE037ED43EA5BE36F
:1032B000C701B6010E94B4386B017C010E949939A4
:1032C0004B015C010E942C379B01AC01C701B60188
:1032D0000E94B3386B017C012AE0B501A401CE0144
:1032E0000E949C25080F191F6EE2CE010E948025C6
:1032F000080F191F20E030E040E251E4C701B60199
:103300000E948D374B015C010E9499396B01E12CC1
:10331000F12C2AE0B701A601CE010E949C25080FDE
:10332000191FC701B6010E942C379B01AC01C501D2
:10333000B4010E94B33820E030E040E251E40E9442
:103340008D370E949939AB0160E070E02AE0CE0130
:103350000E949C25800F911FDF91CF911F910F91AB
:10336000FF90EF90DF90CF90BF90AF909F908F90A5
:103370000895BF92CF92DF92EF92FF920F931F9327
:10338000CF93DF93B82E0E94F2146B017C010DE9FC
:1033900014E0CFEDD4E069EE72E0888199810E945B
:1033A000FB254B2D50E060E070E02AE08881998198
:1033B0000E949C2560EF72E0888199810E94FB2524
:1033C0002AE0B701A601888199810E949C2562EFBD
:1033D00072E0888199810E94FB25F801868197819E
:1033E000A085B185B701A601481B590B6A0B7B0B61
:1033F0002AE0888199810E949C2562EF72E0888191
:1034000099810E94FB25F80146815781608571856D
:1034100082859385A485B585481B590B6A0B7B0B68
:103420002AE088819981DF91CF911F910F91FF90C0
:10343000EF90DF90CF90BF900C949C25CF93DF93BB
:10344000FC01448155816081718180E094E00E949B
:103450008022EC0180E094E00E94E5258C0F9D1F06
:10346000DF91CF9108950895FC016370658B84818D
:10347000958126813781613039F0633029F0918759
:1034800080873387228708953187208793878287B3
:103490000895AF92BF92CF92EF92FF920F931F9336
:1034A000CF93DF93EC01262F888D998D009709F03B
:1034B00042C06A3069F42C898E859F8538E0239F4D
:1034C000800D911D11249F878E871D861C86ACC0A0
:1034D0006D3009F4A9C08E898823C1F03C898C85A0
:1034E0009D8546E0349F800D911D112448855985A6
:1034F000841795075CF01D861C868E859F85E8E005
:103500003E9F800D911D11249F878E87EA88FB883E
:10351000088919894E855F856C857D85CC88CE01AB
:103520000E94EA0D2C898C859D85F6E02F9F800DE9
:10353000911D112441C06A3079F41D861C862C89A6
:10354000FC013696E4918E859F852E9F800D911DFE
:1035500011249F878E8768C06D3009F465C0AC0167
:103560004C5F5F4FFA013491631708F45DC03196E8
:10357000E491E61708F458C0FA014491362F341B41
:10358000FC013296A590B490F7E03F9FA00CB11CCF
:103590001124F501329634913196E491332311F0E0
:1035A000E1110DC0F5013496E4912C898C859D853F
:1035B000E29F800D911D11249D878C8735C0F501F8
:1035C000359644915E89552311F16C89E32FF0E023
:1035D000E40FF11D47FDFA956E9FD0016F9FB00D6E
:1035E00011244C855D854A0F5B1FE885F9854E17D0
:1035F0005F076CF01D861C86FC013696E4918E8573
:103600009F856E9F800D911D11249F878E87EA886C
:10361000FB88088919894E855F856C857D85CC88F6
:10362000CE010E94EA0DBECF81E090E0DF91CF9104
:103630001F910F91FF90EF90CF90BF90AF900895A2
:10364000AF92BF92CF92DF92EF92FF920F931F93B0
:10365000CF93DF93FC01A38DB48D9C9187A1892327
:103660008C93A58DB68D9C9180A589238C93828D9A
:103670008230B9F0811113C08BB183708BB985B1E1
:103680008C7F85B9A78DB0A19C9181A589238C934E
:10369000A78DB0A19C9185A1892B8C9309C0833003
:1036A00039F48BB183708C628BB985B18C7F07C084
:1036B0008BB1837080628BB985B18C7F826085B954
:1036C000A78DB0A19C9181A589238C93A78DB0A1D2
:1036D0009C9185A1892B8C93A58DB68D9C9184A1FD
:1036E000892B8C938BB1972F9C7FB92E8370892B5C
:1036F0008BB985B1A72FA370AA2E8C7F8A2B85B991
:10370000C78DD0A1988181A589238883C78DD0A139
:10371000988185A1892B88838BB1C62FCC7F83703C
:103720008C2B8BB985B1D62FD3708C7F8D2B85B91F
:10373000078D10A1D8019C9181A589238C93078DB9
:1037400010A1D8019C9185A1892B8C93215031091E
:103750004109510969017A0186E0F694E794D7940A
:10376000C7948A95D1F7C601761348C1019708F42A
:1037700065C060E1A78DB0A1CC9171A57C237C933D
:10378000A78DB0A1CC9175A17C2B7C93A78DB0A106
:10379000CC9171A57C237C93A78DB0A1CC9175A110
:1037A0007C2B7C93A78DB0A1CC9171A57C237C93BD
:1037B000A78DB0A1CC9175A17C2B7C93A78DB0A1D6
:1037C000CC9171A57C237C93A78DB0A1CC9175A1E0
:1037D0007C2B7C93A78DB0A1CC9171A57C237C938D
:1037E000A78DB0A1CC9175A17C2B7C93A78DB0A1A6
:1037F000CC9171A57C237C93A78DB0A1CC9175A1B0
:103800007C2B7C93A78DB0A1CC9171A57C237C935C
:10381000A78DB0A1CC9175A17C2B7C93A78DB0A175
:10382000CC9171A57C237C93A78DB0A1CC9175A17F
:103830007C2B7C93615009F09DCF98CF2F73215042
:10384000C8F0A78DB0A19C9181A589238C93A78DE9
:10385000B0A19C9185A1892B8C93A78DB0A19C913F
:1038600081A589238C93A78DB0A19C9185A1892BDB
:103870008C93E5CFA38DB48D9C9183A1892B8C93E0
:10388000DF91CF911F910F91FF90EF90DF90CF903C
:10389000BF90AF9008956BB163706B296BB965B140
:1038A0006C7F6A2965B9078D10A1D801FC9061A5CC
:1038B0006F216C93078D10A1D801FC9065A16F2931
:1038C0006C936BB163706C2B6BB965B16C7F6D2BB6
:1038D00065B9078D10A1D801FC9061A56F216C938B
:1038E000078D10A1D801FC9065A16F296C936BB175
:1038F00063706B296BB965B16C7F6A2965B9078DF7
:1039000010A1D801FC9061A56F216C93078D10A1C7
:10391000D801FC9065A16F296C936BB163706C2B1F
:103920006BB965B16C7F6D2B65B9078D10A1D8019E
:10393000FC9061A56F216C93078D10A1D801FC90BC
:1039400065A16F296C936BB163706B296BB965B11D
:103950006C7F6A2965B9078D10A1D801FC9061A51B
:103960006F216C93078D10A1D801FC9065A16F2980
:103970006C936BB163706C2B6BB965B16C7F6D2B05
:1039800065B9078D10A1D801FC9061A56F216C93DA
:10399000078D10A1D801FC9065A16F296C936BB1C4
:1039A00063706B296BB965B16C7F6A2965B9078D46
:1039B00010A1D801FC9061A56F216C93078D10A117
:1039C000D801FC9065A16F296C936BB163706C2B6F
:1039D0006BB965B16C7F6D2B65B9078D10A1D801EE
:1039E000FC9061A56F216C93078D10A1D801FC900C
:1039F00065A16F296C93715009F04DCF019710F0BC
:103A000070E149CF2F73215008F434CF8BB183700C
:103A10008B298BB985B18C7F8A2985B9478D50A1B7
:103A2000DA019C9181A589238C93478D50A1DA01FD
:103A30009C9185A1892B8C938BB183708C2B8BB936
:103A400085B18C7F8D2B85B9478D50A1DA019C9172
:103A500081A589238C93478D50A1DA019C9185A182
:103A6000892B8C93D0CFCF93DF93EC01EB8DFC8D22
:103A700090818FA189238083288539852150310940
:103A800045E064E0CE010E9435172A853B85215030
:103A9000310949E068E0CE010E943517EB8DFC8DBD
:103AA00090818BA1892B8083DF91CF9108958F9294
:103AB0009F92AF92BF92CF92DF92EF92FF920F93BD
:103AC0001F93CF93DF93EC017A016901EB8DFC8D9D
:103AD00030812FA1232320832A8D21115EC02D89BF
:103AE000223089F0233021F1213081F52FEE30E0B2
:103AF000A901401B510B5B0149018E189F088601EB
:103B000064017B0113C02FEE30E0A9014C195D095F
:103B10006901C61AD70A8FE391E09C01201B310B83
:103B20008C010E191F09580146017901BA0110C014
:103B30002FE331E0A9014C195D095901A61AB70A12
:103B4000470168018501B7017A0102C05A014B01A2
:103B5000AB0160E570E0CE010E94AB17A60161E504
:103B600070E0CE010E94AB17A70162E570E0CE01C4
:103B70000E94AB17A80163E570E0CE010E94AB176D
:103B8000A40160E270E0CE010E94AB17A50161E2E2
:103B900070E0CE010E94AB1747C02130C1F49B01F9
:103BA00043E062E00E943517970147E066E0CE01EE
:103BB0000E943517960145E064E0CE010E9435175A
:103BC000980149E068E0CE010E9435172DC02250CF
:103BD000223050F5CB01770FAA0BBB0BDC019927E4
:103BE0008827A601DD0C660B770B9A01AB01282B09
:103BF000392B4A2B5B2B6AE2CE010E948516C70146
:103C0000FF0CAA0BBB0BDC0199278827A801110F19
:103C1000660B770B9A01AB01282B392B4A2B5B2BB8
:103C20006BE2CE010E948516EB8DFC8D90818BA1FD
:103C3000892B8083DF91CF911F910F91FF90EF909F
:103C4000DF90CF90BF90AF909F908F900895FF929C
:103C50000F931F93CF93DF9300D0CDB7DEB7152F0F
:103C6000F32EFC01008181E080932106009344063D
:103C70001092220610924306F4E06F9FB0011124C7
:103C80006A5F7F4F87EE94E02A8349830E94090B85
:103C90004981842F912F0E941518812F90E00E9456
:103CA00015182A81822F9F2D0E9415188F2D90E0C4
:103CB0000E94151880914306813208F046C0909109
:103CC00020069111FCCF92E09093200691E0909312
:103CD0001F069FEF90931E0610921D0680931C06F0
:103CE000A3E2B6E02CEF35E0F9019E2F921B981766
:103CF00018F49D919193F9CF1092FB058091FB05EB
:103D0000000F802B8093FB058091FA05813061F4D0
:103D10001092FA058091FB058093BB008091BC0056
:103D200083FDF8CF85EC01C085EE8093BC008091C7
:103D300020068230E1F380911E068F3F31F08091A2
:103D40001E06803211F080911E06109222061092FB
:103D50004306109221060F900F90DF91CF911F9193
:103D60000F91FF9008959A01CB96211540E13407F9
:103D700028F020E030E040E050E102C040E050E0B8
:103D80000C94271EFC01A58DB68D9C9180A58923DE
:103D90008C938BB1962F9C7F8370892B8BB985B1C7
:103DA00063708C7F682B65B9A78DB0A19C9181A5AC
:103DB00089238C93A78DB0A19C9185A1892B8C938D
:103DC000A58DB68D9C9184A1892B8C938BB1942F5A
:103DD0009C7F8370892B8BB985B143708C7F482B76
:103DE00045B9A78DB0A19C9181A589238C93A78DFE
:103DF000B0A19C9185A1892B8C930895EF92FF929D
:103E00000F931F93CF93DF93EC010E94341AEB8D35
:103E1000FC8D90818FA1892380838A8D811122C09E
:103E2000ED89E150E33040F4F0E0EE0FFF1FE95779
:103E3000FE4F4081518102C040E350E163E070E0F9
:103E4000CE010E94AB170A851B85015011092885F8
:103E500039852150310940E050E060E070E0CE014A
:103E60000E94571D8A8D813089F4ED89E150E3303D
:103E700028F4F0E0EC57FE4F408101C040E066E1DD
:103E8000CE010E94C21ECE010E94331D8A8D823057
:103E900039F58D89813071F050F0823029F083300E
:103EA00059F458E2E52E08C068E4E62E05C048E85B
:103EB000E42E02C038EEE32E4E2D66E3CE010E94C2
:103EC000C21E0A851B85015011092885398521509C
:103ED000310940E050E060E070E0CE010E94571DE3
:103EE0008A8D833031F58D89813069F048F08230D8
:103EF00029F0833051F420E6F22E07C0F12C05C0E2
:103F000090ECF92E02C080EAF82E4F2D66E3CE0128
:103F10000E94C21E0A851B8501501109288539851A
:103F20002150310940E050E060E070E0CE010E9495
:103F3000571DDF91CF911F910F91FF90EF90089542
:103F4000AF92BF92CF92DF92EF92FF920F931F93A7
:103F5000CF93DF93EC017B016A01B22EA32E77FD94
:103F60001BC157FD19C188859985681779070CF021
:103F700013C18A859B85481759070CF00DC1EB8D3D
:103F8000FC8D90818FA1892380838A8D811135C01A
:103F90008D89823059F08330B1F08130D1F48FEEC9
:103FA00090E0841B950B6B017C0113C08FEE90E0B9
:103FB0009C01261B370B79018FE391E09C01241BA8
:103FC000350B690106C08FE391E0861B970B7A01E0
:103FD0006C01A70160E270E0CE010E94AB17A60160
:103FE00061E270E0CE010E94AB174B2D5A2D62E2C8
:103FF00070E0CE010E94AB17C9C0813009F060C0EB
:10400000ED89E150E33028F4F0E0EF57FE4F4081B6
:1040100001C040E066E1CE010E94C21E970143E06C
:1040200062E0CE010E943517960147E066E0CE01BE
:104030000E943517ED8DFE8D908188A589238083A0
:104040008BB1837080628BB985B18C7F826085B9BA
:10405000EF8DF8A1908189A589238083EF8DF8A148
:1040600090818DA1892B8083ED8DFE8D90818CA117
:10407000892B80838BB19A2D9C7F8370892B8BB980
:1040800085B19A2D93708C7FA92EA82AA5B8EF8DA3
:10409000F8A1908189A589238083EF8DF8A1908173
:1040A0008DA1892B80838BB19B2D9C7F8370892B65
:1040B0008BB985B19B2D93708C7FB92EB82A59C0CE
:1040C0008250823008F062C00A851B8501501109B8
:1040D0002885398521503109CE010E94571DEB8D6D
:1040E000FC8D90818FA189238083ED8DFE8D908141
:1040F00088A5892380838BB183708C628BB985B14D
:104100008C7F85B9EF8DF8A1908189A58923808363
:10411000EF8DF8A190818DA1892B8083ED8DFE8D8F
:1041200090818CA1892B80838BB19A2D9C7F837089
:10413000892B8BB995B18A2D83709C7FA82EA92AD3
:10414000A5B8EF8DF8A1908189A589238083EF8D93
:10415000F8A190818DA1892B80838BB19B2D9C7FB1
:104160008370892B8BB995B18B2D83709C7FB82E72
:10417000B92AB5B8EF8DF8A1908189A589238083EC
:10418000EF8DF8A190818DA1892B8083EB8DFC8D23
:1041900090818BA1892B8083DF91CF911F910F910B
:1041A000FF90EF90DF90CF90BF90AF900895EF9287
:1041B000FF920F931F93CF93DF93EC017B018A8DC6
:1041C000811129C02D892150233078F430E0F90184
:1041D000E258FE4F8081482F50E0220F331FF90133
:1041E000E858FE4F0081118104C000E010E040E07B
:1041F00050E0EB8DFC8D30812FA12323208360E2E2
:1042000070E0CE010E94AB17A80161E270E0CE0120
:104210000E94AB1712C08150833078F40A851B8549
:1042200001501109288539852150310940E050E0BD
:1042300060E070E0CE010E94571D20E03CE241E0CA
:1042400050E0B701CE01DF91CF911F910F91FF9008
:10425000EF900C94201B8F929F92AF92BF92CF92BF
:10426000DF92EF92FF920F931F93CF93DF93EC01B6
:104270004701121613060CF06BC0101611060CF055
:1042800067C0A885B9856A177B070CF061C0CA842E
:10429000DB844C155D050CF05BC05B01A20EB31E08
:1042A000C501019797FD54C07A01E00EF11EF70198
:1042B0003197F7FD4DC077FF49C060E070E057FDD2
:1042C00002C0780102C040E050E08A179B072CF042
:1042D000CD0101975D01A61AB70AEC15FD052CF07A
:1042E000F60131977601E41AF50A8F019C01CE019F
:1042F0000E94571D9701D5010E94413A9B01AC01D4
:10430000B401CE010E94201B8A8D811110C00A8544
:104310001B8501501109288539852150310940E05C
:1043200050E060E070E0CE010E94571D11C0CE0148
:10433000DF91CF911F910F91FF90EF90DF90CF9081
:10434000BF90AF909F908F900C94331D5901B7CFC1
:10435000DF91CF911F910F91FF90EF90DF90CF9061
:10436000BF90AF909F908F900895CF92DF92EF9281
:10437000FF920F931F93CF93DF93EC016801121606
:1043800013060CF04FC077FD4DC0888599856817DE
:1043900079070CF047C0EA85FB854E175F070CF0E4
:1043A00041C07A01E20EF31E87010150110917FD89
:1043B00039C057FF35C040E050E00E171F0734F0FA
:1043C0008F01015011097F01E41AF50A9B01CE010A
:1043D0000E94571D9701FF0C440B550BB601CE01EF
:1043E0000E94201B8A8D811110C00A851B850150F7
:1043F0001109288539852150310940E050E060E0FD
:1044000070E0CE010E94571D0DC0CE01DF91CF910B
:104410001F910F91FF90EF90DF90CF900C94331D80
:104420007901CBCFDF91CF911F910F91FF90EF904A
:10443000DF90CF900895CF92DF92EF92FF920F938B
:104440001F93CF93DF93EC016801121613060CF053
:104450004EC057FD4CC08A859B85481759070CF004
:1044600046C0E885F9856E177F070CF040C07B01D8
:10447000E20EF31EC701019797FD39C077FF35C0E3
:1044800060E070E08E179F072CF0CF0101977F014D
:10449000E61AF70A8A019C01CE010E94571D970176
:1044A000FF0C440B550BB601CE010E94201B8A8DD8
:1044B000811110C00A851B85015011092885398595
:1044C0002150310940E050E060E070E0CE010E94F0
:1044D000571D0DC0CE01DF91CF911F910F91FF901D
:1044E000EF90DF90CF900C94331D7901CBCFDF910B
:1044F000CF911F910F91FF90EF90DF90CF90089593
:10450000CF92DF92EF92FF920F931F93CF93DF939F
:104510006C017A018B01C0E0D0E0CE15DF0589F097
:10452000D8016D918D01D601ED91FC910190F08142
:10453000E02DC6010995892B11F47E0102C0219658
:10454000ECCFC701DF91CF911F910F91FF90EF90BA
:10455000DF90CF9008952F923F924F925F926F928B
:104560007F928F929F92AF92BF92CF92DF92EF9203
:10457000FF920F931F93CF93DF9300D000D000D012
:10458000CDB7DEB73C016B0159014801290183E039
:10459000480E511CE12CF12CE3E0F0E0FE83ED83AA
:1045A0008AEF9FEF9A8389832EEF222E33243A9449
:1045B000942F91709B8342704C83EFEFEE1AFE0AAA
:1045C000C2018A199B09280E391EFB81FF2309F1BC
:1045D0002D813E81220F331F2F5F3F4F2A0D3B1D40
:1045E0008401A6018D819E81481B590BB3016E0D7C
:1045F0007F1D86EC95E00E949E099201A6014E194E
:104600005F096D817E81660D771D86EC95E00E94C5
:104610009E099C81992311F12D813E81220F331F28
:104620002F5F3F4F2A0D3B1D8401A601ED81FE81C6
:104630004E1B5F0BB3016E197F0986EC95E00E945B
:104640009E099201A6014E195F09B3018D819E81D9
:10465000681B790B86EC95E00E949E09ED81FE8136
:10466000EE16FF0694F437FC0CC0ED81FE81319705
:10467000FE83ED8389819A8102969A838983280E2D
:10468000391E92E0490E511C98CF26960FB6F89429
:10469000DEBF0FBECDBFDF91CF911F910F91FF9075
:1046A000EF90DF90CF90BF90AF909F908F907F90D2
:1046B0006F905F904F903F902F9008950F931F93AE
:1046C000CF93DF93EC0188819981009729F02A81AB
:1046D0003B812617370788F48B016F5F7F4F0E945D
:1046E000973B009761F0998388831B830A832C8111
:1046F0003D81232B11F4FC01108281E001C080E098
:10470000DF91CF911F910F910895EF92FF920F9338
:104710001F93CF93DF93FC012481358161157105CF
:1047200011F480E019C041155105A9F07B01EC019D
:104730008A01020F131FB8010E945E23882389F3A8
:10474000288139818C819D81B701820F931F0E943E
:10475000783C1D830C8381E0DF91CF911F910F91F5
:10476000FF90EF900895CF93DF93EC0188819981BA
:10477000009711F00E94FF3A198218821D821C8254
:104780001B821A82DF91CF9108954F925F926F92B0
:104790007F928F929F92AF92BF92CF92DF92EF92D1
:1047A000FF920F931F93CF93DF933C01EB015A01CC
:1047B000690148012C0183E0480E511C9A012650E2
:1047C000310978018601AB01B20186EC95E00E94C7
:1047D000820987E0C81AD1082396C3018A0D9B1D60
:1047E0008401960141E0BE0104970E94AB2296012C
:1047F00042E0BE01C2010E94AB22DF91CF911F9126
:104800000F91FF90EF90DF90CF90BF90AF909F906F
:104810008F907F906F905F904F900895E091E105A9
:10482000F091E20590818091E905892B8083E091E8
:10483000E505F091E60590818091EB05892B808359
:10484000E091E705F091E80590818091EC05892BD6
:1048500080838091F105882371F060E00E94E41369
:1048600062E070E080E090E00E948C1461E0809152
:10487000F1050E94E413E091E105F091E2059081D9
:104880008091ED0589238083E091E305F091E405B3
:1048900090818091EE05892380838BB183708BB9E1
:1048A00085B18C7F85B9E091E505F091E6059081B1
:1048B0008091EF0589238083E091E505F091E6057D
:1048C00090818091EB05892B808383E0E091E50561
:1048D000F091E60520819091EF0592239083E0917D
:1048E000E505F091E60520819091EB05922B9083F0
:1048F000815061F7E091E105F091E20590818091AE
:10490000E905892B808308958091630687FF0CC099
:1049100080914F0690E09C0146E0220F331F4A959C
:10492000E1F7822B932B089585FF09C080915706EC
:1049300090E0982F882720915806822B0895809127
:10494000470690E00895CF93DF93EC016115710560
:1049500061F0FB0101900020E9F73197AF01461BA0
:10496000570B0E948523811103C0CE010E94B323FF
:10497000CE01DF91CF910895CF93DF93EC01FB013E
:1049800044815581608171810E948523811103C01A
:10499000CE010E94B323CE01DF91CF910895EF9213
:1049A000FF920F931F93CF93DF93EC017B018A015A
:1049B000BA010E945E23811104C0CE010E94B3237C
:1049C00007C01D830C83B701888199810E94783CC0
:1049D000CE01DF91CF911F910F91FF90EF9008953D
:1049E000FC01808191810C94FF3AEF92FF920F932A
:1049F0001F93CF93DF93CDB7DEB7A1970FB6F8948F
:104A0000DEBF0FBECDBF7C01CB01BA01F701118221
:104A10001082138212821582148242E0420F8E01AC
:104A20000F5F1F4F0E946134009769F0FC010190F5
:104A30000020E9F73197AF01481B590BBC01C701B2
:104A40000E94CF2403C0C7010E94B323A1960FB6D2
:104A5000F894DEBF0FBECDBFDF91CF911F910F91B4
:104A6000FF90EF900895EF92FF920F931F93CF93D3
:104A7000DF93CDB7DEB762970FB6F894DEBF0FBEF7
:104A8000CDBF8C01CB01F8011182108213821282FA
:104A90001582148250E09E012F5F3F4F7901B901CA
:104AA0000E948134F70101900020E9F73197AF01AE
:104AB0004E195F09B701C8010E94CF2462960FB654
:104AC000F894DEBF0FBECDBFDF91CF911F910F9144
:104AD000FF90EF900895FC011182108213821282E0
:104AE000158214826115710551F0FB0101900020BF
:104AF000E9F73197AF01461B570B0C94CF2408956B
:104B0000DC01ED91FC910190F081E02D099461159B
:104B1000710579F0FB0101900020E9F73197AF01B1
:104B2000461B570BDC01ED91FC910280F381E02DD7
:104B3000099480E090E008954F925F926F927F9287
:104B4000EF92FF920F931F93CF93DF93CDB7DEB712
:104B5000A1970FB6F894DEBF0FBECDBF7C01FA015E
:104B6000CB0119A2223008F42AE08E010F5D1F4FFD
:104B7000422E512C612C712CBF01A30192010E9485
:104B80004B38F901CA01015011096A3014F4605D13
:104B900001C0695CD8016C93232B242B252B61F772
:104BA000B801C7010E948725A1960FB6F894DEBF11
:104BB0000FBECDBFDF91CF911F910F91FF90EF906E
:104BC0007F906F905F904F90089569E572E00C942C
:104BD00087250F931F93CF93DF93EC010E948725C6
:104BE0008C01CE010E94E525800F911FDF91CF91AE
:104BF0001F910F9108950C948725CF93DF93CDB724
:104C0000DEB7AE970FB6F894DEBF0FBECDBF789477
:104C100084B5826084BD84B5816084BD85B58260C1
:104C200085BD85B5816085BD80916E008160809372
:104C30006E001092810080918100826080938100DB
:104C400080918100816080938100809180008160EB
:104C5000809380008091B10084608093B100809146
:104C6000B00081608093B00080917A00846080936E
:104C70007A0080917A00826080937A0080917A0035
:104C8000816080937A0080917A00806880937A00B6
:104C90001092C1001092E1041092E2041092E30419
:104CA0001092E40410929F041092A0041092A104A8
:104CB0001092A20468EB7BE080E090E00E948C14EC
:104CC00080E094E09093E0048093DF040E94BD189C
:104CD0000E94F21460939F047093A0048093A10437
:104CE0009093A2046DE871E08091DF049091E0045C
:104CF0000E94FB256AE070E080E090E00E948C1446
:104D000081E08093B3040E94BD186FE971E080E0F8
:104D100094E00E94FB25C090CE05D090CF050D2CCD
:104D2000000CEE08FF08F7FE0EC06DE280E094E094
:104D30000E94802544275527BA014C195D096E0948
:104D40007F092AE003C02AE0B701A60180E094E0D1
:104D50000E949C256CEA71E080E094E00E94FB25B3
:104D6000C090D005D090D1050D2C000CEE08FF08A6
:104D7000F7FE0EC06DE280E094E00E94802544279B
:104D80005527BA014C195D096E097F092AE003C055
:104D90002AE0B701A60180E094E00E949C2580E013
:104DA00094E00E94E5258FEF9FEF90937A03809324
:104DB000790310927803109277038BEC9CE0909328
:104DC000F6028093F50281E08093F40288EC90E093
:104DD0009093F8028093F70289EC90E09093FA02A6
:104DE0008093F9028AEC90E09093FC028093FB029E
:104DF0008BEC90E09093FE028093FD028CEC90E0AF
:104E0000909300038093FF028DEC90E09093020357
:104E1000809301038EEC90E090930403809303034E
:104E20008FEC90E0909306038093050380910D032F
:104E300090910E03A0910F03B0911003892B8A2B40
:104E40008B2B91F510924D0610924E0610920B038B
:104E500010920A031092090310920803109207039C
:104E600010920603109205030E94671460930D03CD
:104E700070930E0380930F039093100386EC94E1DC
:104E80009093010180930001809169008C7F816083
:104E900080936900E89A83ED91E19093E604809312
:104EA000E50482E080930C030E940E240E940E24ED
:104EB00068EC70E080E090E00E948C141092E005B5
:104EC000E091E105F091E20590818091ED05892363
:104ED000808309EC18E0F80165917491F80132962D
:104EE000459154916F3F710531F4BA0180E090E033
:104EF0000E948C1404C086EC95E00E94AB170C5FF6
:104F00001F4F29E00539120731F76091DB0586EC68
:104F100095E00E94FE1E0FE311E02FEE30E040E02E
:104F200050E060E070E086EC95E00E94571D63E081
:104F300086EC95E00E94FE1E60E070E086EC95E055
:104F40000E94D72061E08DE00E9414148FEF9FEF44
:104F50009093D9058093D8059093D7058093D60573
:104F60008EEA99E09093DF058093DE058091C0057D
:104F70009091C1052EE130E03093D3052093D20506
:104F80009093D5058093D40505E919E0F801649163
:104F9000611114C086EC95E00E94E5258091DE0544
:104FA0009091DF05892BC9F08091D4059091D505AA
:104FB00006979093D5058093D4050FC0E091C60560
:104FC000F091C7050190F081E02D86EC95E0099500
:104FD0000F5F1F4F892BD1F6DDCF1092DF051092A6
:104FE000DE0568EE73E080E090E00E948C1460E0E3
:104FF00070E086EC95E00E94D7208091CE059091DC
:10500000CF055C01F5E2AF1AB108B7FE04C05C0140
:1050100022E2A21AB108B594A794B594A79410926D
:10502000D9051092D8051092D7051092D60568E5DB
:10503000862E65E0962EC12CD12C612C712C61142A
:10504000710411F40C946631CA0CDB1C33E0C30EFE
:10505000D11C4FEEE42E4BE7F42E04E110E0950155
:1050600046E050E0B60186EC95E00E942B2118A2A4
:105070001F8E1AA219A21CA21BA2D4016D917C91B1
:1050800011976115710541F014964D915C9115973A
:10509000CE014F960E94CF244BA05CA0EF8CF8A0CD
:1050A00022242A9433243A9400E010E0B6E0B09F22
:1050B000F001B19FF00D1124E85AFA4F84819581D7
:1050C0008415950521F580819181009721F0E114E7
:1050D000F104A9F40DC0E114F104B1F0411451043C
:1050E00099F0F701808190E09195819591090AC02E
:1050F0004114510449F0DC018C9190E003C0B701E8
:105100000E946F3C892B19F481E190E002C0C80134
:1051100081010196813191051CF418018C01C6CFE3
:10512000C801880F991FFC01EB5AFC4F2F01D18257
:10513000C0829C012D5C3C4F790126E030E0D70114
:105140002D933C93FC01EF5EFC4F21E030E0318376
:1051500020834AE061E070E0CE0149960E94332549
:10516000D7016D917C914AE0CE0143960E94332590
:10517000F201608171814AE0CE010D960E943325D3
:105180004AE0B801CE0107960E9433256EEA71E02D
:10519000CE0101960E946B25BE01695F7F4FCE0153
:1051A00001960E94BC2464EB71E00E94A324BE011E
:1051B000635F7F4F0E94BC2469EB71E00E94A324CF
:1051C000BE016D5E7F4F0E94BC246EEB71E00E94B9
:1051D000A324BE01675E7F4F0E94BC240E941E1A5A
:1051E000CE0101960E94F024CE0107960E94F02481
:1051F000CE010D960E94F024CE0143960E94F02429
:10520000CE0149960E94F024CE014F960E94F024D0
:10521000C60102969093D3058093D20539E0E32E20
:10522000F12CF092D505E092D405D40114964D915D
:105230005C9115976D917C9186EC95E00E9480229F
:105240008091DE059091DF05892B49F08091D4058E
:105250009091D50506979093D5058093D40510922B
:10526000DF051092DE05BFEF6B1A7B0AE6E08E0EBB
:10527000911CF4E06F16710409F0E1CE2091D00585
:105280003091D105205231094091CE055091CF0582
:105290004C50510908E116EC6AE170E086E090E0BC
:1052A0000E94C5232091D0053091D10526523109A5
:1052B0004091CE055091CF054251510900E010E0D8
:1052C0006DE170E089E090E00E94C52368EB7BE02F
:1052D00080E090E00E948C140E94F214672B682BEF
:1052E000692B41F40E94F214623071058105910529
:1052F00008F4A3C00E94F21460937F0370938003AC
:10530000809381039093820300917B0310917C032F
:1053100020917D0330917E03601771078207930708
:1053200040F460937B0370937C0380937D039093A0
:105330007E0300917B0310917C0320917D033091CB
:105340007E036B017C01C01AD10AE20AF30A9701BD
:1053500086010A3F11052105310508F46EC06093EE
:105360007B0370937C0380937D0390937E0384EF93
:1053700091E0A0E0B0E08093AB049093AC04A093E4
:10538000AD04B093AE041092AF041092B00410922A
:10539000B1041092B2048091A3049091A404A0914E
:1053A000A504B091A6048093A7049093A804A093A9
:1053B000A904B093AA040E94F2146093A30470930A
:1053C000A4048093A5049093A6040E94F214609311
:1053D0009F047093A0048093A1049093A20481E0A1
:1053E0000E94B91963EC71E08091DF049091E004B0
:1053F0000E94FB250E94F214AB01BC012AE08091BF
:10540000DF049091E0040E949C2565EC71E080919E
:10541000DF049091E0040E94E92562E070E080E002
:1054200090E00E948C140E94F2146093A304709385
:10543000A4048093A5049093A60461E08DE00E94EB
:10544000E413A091F705B0E0FD01E550F14FE490C1
:105450008091F405682F70E0FB01E550F14F049155
:105460004091F60550E0FA01E550F14FA4902091EB
:10547000F50530E0F901E550F14FC490FD01E3522C
:10548000F14F3490FB01E352F14F7490FA01E35273
:10549000F14FB490F901E352F14F249060E00E9483
:1054A000141460E08091F5050E94141410E0000FC0
:1054B000111F0F50114FF801A591B4918C91D72C69
:1054C000D094DDA28D218C93D12CF601EE0FFF1F1D
:1054D0009F012F50314F6901F901A591B4919C9121
:1054E000822D809589238C9361E08091F7050E943D
:1054F000141461E08091F6050E941414F12CF70158
:10550000EE0FFF1FCF018F50914F7C01FC01A59141
:10551000B4918C9183298C93EA2DF0E0EE0FFF1F5C
:10552000EF50F14FA591B491EC91B094BE22BC9292
:105530008091F4050E9450144C018091F4050E9462
:1055400050142C018FEF93E05C01A418B50860E0C3
:105550008091F7050E94141460E08091F6050E9486
:105560001414F701A591B4918C91309483218C93FC
:1055700061E08091F4050E941414F801A591B491A2
:10558000EC917E2A7C9261E08091F5050E941414D2
:105590008091F6050E9450143C018091F6050E940E
:1055A00050146816790629F47724739484149504AA
:1055B00009F0712C2FEF33E04901881A990A61E054
:1055C0008091F7050E941414F701A591B491EC9114
:1055D0003E223C92F601A591B491EC912E2A2C9298
:1055E000F801A591B4918C91CDA08C218C9360E0B1
:1055F0008091F4050E9414148091F6050E945014C5
:105600008C018091F4050E945014E090F805F09010
:10561000F905E114F10409F43FC0BC01990F880BAE
:10562000990B0E942E371B012C01B801110F880B1A
:10563000990B0E942E379B01AC01C201B1010E945F
:10564000203920E030E040E85FE30E94B3381B01DE
:105650002C01B5010B2C000C880B990B0E942E37E6
:105660009B01AC01C201B1010E948D371B012C01CD
:10567000B70180E090E00E942C379B01AC01C20191
:10568000B1010E948D3720E030E040E85AE30E94EB
:105690008D370E94923905C0081B190BB801615063
:1056A0007C4F711002C060E070E08091F205909133
:1056B000F305861797070CF005C662E370E080E0FB
:1056C00090E00E948C1405E010E0E12CF12CC12C3C
:1056D000D12C64E670E080E090E00E948C14CA0C4B
:1056E000DB1CE80CF91C4AE0B501CE0101960E94D2
:1056F000332561E872E0CE0107960E946B25BE015A
:105700006F5F7F4FCE0107960E94BC240E941E1A35
:10571000CE0107960E94F024CE0101960E94F0244B
:105720004AE0B401CE0101960E9433256BE872E095
:10573000CE0107960E946B25BE016F5F7F4FCE01A1
:1057400007960E94BC240E941E1ACE0107960E9452
:10575000F024CE0101960E94F02480E094E00E94A3
:10576000E5254AE0B601CE0101960E94332561EDA0
:1057700071E0CE0107960E946B25BE016F5F7F4FDF
:10578000CE0107960E94BC240E941E1ACE010796E5
:105790000E94F024CE0101960E94F0244AE0B70155
:1057A000CE0101960E94332563EE71E0CE0107968B
:1057B0000E946B25BE016F5F7F4FCE0107960E944E
:1057C000BC240E941E1ACE0107960E94F024CE012E
:1057D00001960E94F0240150110909F07ACF80E06F
:1057E00094E00E94E52555E0F52EFA9CC001FB9C53
:1057F000900D112405E010E0B8010E942D3A5B01E4
:105800004AE0CE0101960E9433256CEC71E0CE0196
:1058100007960E946B25BE016F5F7F4FCE010796F2
:105820000E94BC240E941E1ACE0107960E94F024FA
:10583000CE0101960E94F024F89CC001F99C900DC5
:105840001124B8010E942D3A8B014AE0CE01019645
:105850000E9433256EED71E0CE0107960E946B2504
:10586000BE016F5F7F4FCE0107960E94BC240E944D
:105870001E1ACE0107960E94F024CE0101960E94C6
:10588000F02460EF71E080E094E00E94E925B5012A
:105890000B2C000C880B990B0E942E3720E030E077
:1058A0004EE353E40E94B33820E030E04FE254E48A
:1058B0000E9420392B013C01B801012E000C880BFD
:1058C000990B0E942E3720E030E04EE353E40E9413
:1058D000B33820E030E044E354E40E9420396B0107
:1058E0007C0160EF71E080E094E00E94E92580E0B7
:1058F00094E00E94E5254AE0B501CE0101960E94A0
:10590000332564E172E0CE0107960E946B25BE014B
:105910006F5F7F4FCE0107960E94BC240E941E1A23
:10592000CE0107960E94F024CE0101960E94F02439
:105930004AE0B801CE0101960E9433256AE172E087
:10594000CE0107960E946B25BE016F5F7F4FCE018F
:1059500007960E94BC240E941E1ACE0107960E9440
:10596000F024CE0101960E94F02422E0B301A201AE
:10597000CE0101960E94F5246BE672E0CE010796F7
:105980000E946B25BE016F5F7F4FCE0107960E947C
:10599000BC240E941E1ACE0107960E94F024CE015C
:1059A00001960E94F02422E0B701A601CE010196E3
:1059B0000E94F52466E772E0CE0107960E946B25EF
:1059C000BE016F5F7F4FCE0107960E94BC240E94EC
:1059D0001E1ACE0107960E94F024CE0101960E9465
:1059E000F0246091CE057091CF054AE0CE0101967A
:1059F0000E9433254AE06EEB70E0CE0107960E94CC
:105A000033254AE06AE773E0CE010D960E94332504
:105A10004AE06EEB70E0CE0143960E9433254AE0E7
:105A2000B501CE0149960E94332560E272E0CE01B5
:105A30004F960E946B25BE01675E7F4FCE014F9649
:105A40000E94BC2468E272E00E94A324BE016D5E45
:105A50007F4F0E94BC246CE272E00E94A324BE012E
:105A6000635F7F4F0E94BC2468E272E00E94A3241F
:105A7000BE01695F7F4F0E94BC2462E372E00E9416
:105A8000A324BE016F5F7F4F0E94BC240E941E1A98
:105A9000CE014F960E94F024CE0149960E94F02438
:105AA000CE0143960E94F024CE010D960E94F02470
:105AB000CE0107960E94F024CE0101960E94F024A8
:105AC0006091D0057091D1054AE0CE0101960E9407
:105AD00033254AE06EEB70E0CE0107960E94332535
