:100000000C94EE080C948A110C9463110C94361D18
:100010000C94361D0C94361D0C9416090C9416097C
:100020000C9416090C9416090C9416090C941609D4
:100030000C9416090C9416090C9416090C941609C4
:100040000C9419110C9416090C94F50F0C94CF0F05
:100050000C9416090C9416090C9416090C941609A4
:100060000C94401D0C94160905A84CCDB2D44EB981
:100070003836A9020C50B9918688083CA6AAAA2A4B
:10008000BE000000803F00000000070001000004E7
:10009000110701F0090009060C01F010000E120E04
:1000A00000F030000B140D01F04C0010111101F0A4
:1000B0006E0010111201F0900004060601F093008A
:1000C00008170901F0AA0008170900F0C1000A0B7F
:1000D0000B01F0CF000C0B0E01F4E0000408070147
:1000E000FDE40006030801FAE70004040701FDE946
:1000F0000007110700F0F8000B110D01F0100103CB
:10010000110D05F017010B110D01F02F010A110D52
:1001100001F045010B110D01F05D0109100D02F117
:100120006F010B110D01F087010A110D02F09D0105
:100130000B110D01F0B5010B110D01F0CD01040BF8
:100140000701F6D301040F0701F6DB010C0D0E01C8
:10015000F2EF010C080E01F5FB010C0D0E01F20F80
:100160000207110901F01E0216161801F05B0213B6
:10017000111300F084020E111102F0A202101113EB
:1001800001F0C40210111302F0E6020C110F02F08C
:1001900000030B110F02F0180311111401F03D03BD
:1001A00010111402F05F0304110802F06803071530
:1001B00008FFF07B030F111102F09B030C110F02DB
:1001C000F0B50311111502F0DA0310111402F0FC5E
:1001D0000313111501F025040D111002F041041351
:1001E000151501F073040E111002F091040D110F9A
:1001F00001F0AD0410111101F0CF0410111402F040
:10020000F10411111100F016051C111C00F052052B
:1002100013111400F07B0511111100F0A00510114D
:100220001100F0C20508160B02F0D80507110700EF
:10023000F0E70509160B00F000060C090E01F00EA0
:10024000060C010C0003100608070A01F017060C43
:100250000B0D01F628060C110E01F042060A0B0CDC
:1002600001F650060C110E01F06A060B0B0D01F69B
:100270007A0609110700F08E060C110D01F6A8068A
:100280000C110E01F0C20604110701F0CB06051790
:100290000700F0DA060C110D02F0F4060311070254
:1002A000F0FB06140B1702F617070C0B0E01F628CD
:1002B000070C0B0E01F639070C110E01F653070C53
:1002C000110E01F66D07090B0B02F67A07090B0AEE
:1002D00001F68707090E0A00F397070C0B0E01F6CB
:1002E000A8070C0B0C00F6B907130B1300F6D40784
:1002F0000D0B0D00F6E6070C110C00F600080C0BB8
:100300000D00F6110808160901F027080316070268
:10031000F0300808160901F0460817181800EE7F9B
:10032000FFFF77662007FF70F3F9FCFC763B1C0E9D
:100330001838E0E3830E1C3BFFFFFFFFFF1870E15E
:100340008FFFFFFFFFFDC3870C1C3071C1C7000C7E
:1003500003F1FF766EC5D83F03E07F83F83F8670D8
:10036000CF19FB7FFE3F0180300600380CFC18C619
:1003700018C630C660C660FCC039800180033C06E8
:100380007E06E60CC718C718E6307E603C07C01F23
:10039000E03FF03CF03C703CE01FE01FC03F877F37
:1003A000CFFBFEF1FEF0FCF0F8FFFC7FFE1F1FFF0D
:1003B000FE66070E1C1C38787870F0F0F0F0F0F054
:1003C000F0707878381C1C0E07E070383C1C1E0E4C
:1003D0000F0F0F0F0F0F0F0F0F0E1E1C3C3870E08A
:1003E0001C070CCBA7FB830FBFA7CC8701C00F0056
:1003F000F00F00F0FFFFFFFFF0F00F00F00F006FB5
:10040000F7776CFFFFC07FF70E1870E1830E1C308A
:1004100060C3870C1870E01F07F1FF3CE71FE3FC87
:100420007F8FF1FE3FC7F8F71EF39FF1FC1F00FF1F
:10043000FFFFFFFFFFE01F0FF1FF31E83C0380F0FB
:100440001E0380F01C0781E0380FFBFFFFE03E1F1A
:10045000E7F91F03C0F0783C0F03E03C0F03E0FF17
:10046000FFFE7E0001C0380F03E0FC3F87F1DE7322
:10047000DC7BFFFFFFFE0780F01E03C0FFFFFFFED7
:100480000F0783F9FEFF83C0E0787FFFFDFC078143
:10049000E03C0F01C0781FC3FE7FDE3FC7F8FF1F9F
:1004A000E3DFF1FC1F00FFFFFFFC1E0781E0F03CD3
:1004B0000F0781E0703C0F0381E018001F07F1E790
:1004C00038F71EE3DE71FC3F8F3BC7F8FF1FE3DE0A
:1004D00079FE1F001F07F1FF38FF1FE3FC7F8F7FAE
:1004E000E7F87F03C0781E07C0F03C007FF70007E5
:1004F000FF707FF70006FF7776C000100F03F1FE54
:100500007F8FC0F00FC07F81FE03F00F0010FFFF50
:10051000FFFFF000000FFFFFFFFF800F00FC07F858
:100520001FE03F00F03F1FE7F8FC0F008000F9FBE1
:10053000F8F1E3CF1C38E0C1000E1E3C7000FE0055
:100540001FFF00F01E07001C380039C3CE661FF9DC
:10055000B8E3C7C7070F1C1C3CE071F381C6CE0E81
:100560001B3838CC71E639FFF063EF81C00073C0EF
:100570000383C03C07FFE003FC0003F0007E000F94
:10058000C003FC007F800F7803CF0079F01F1E03AB
:10059000C3C0783C1FFF83FFF8FFFF1E01F3C01E9E
:1005A000F803E0FFC3FF8FFF3C7CF0F3C3CF1E3F97
:1005B000F0FFF3FFEF07BC1FF07FC1EFFFBFFCFFB1
:1005C000E003FC0FFF1FFF3F077C017800F800F0FD
:1005D00000F000F000F80078007C013F071FFF0FDB
:1005E000FF03F8FFC0FFF8FFFCF07EF03EF01FF0C5
:1005F0000FF00FF00FF00FF00FF01FF03EF07EFF46
:10060000FCFFF8FFC0FFFFFFFFFF00F00F00F00F3F
:10061000FEFFEFFEF00F00F00F00FFFFFFFFF0FF07
:10062000FFFFFFF80F01E03C07FFFFFFFFC0780F5F
:1006300001E03C0780F00003FC07FF87FFC7E0E70D
:10064000C00BC003E001E000F03FF81FFE0FEF0019
:10065000F7C079F07C7FFE1FFE03F800F00FF00F6B
:10066000F00FF00FF00FF00FFFFFFFFFFFFFF00F95
:10067000F00FF00FF00FF00FF00FF00FF00FFFFF83
:10068000FFFFFFFFFFFFF01E3C78F1E3C78F1E3C2A
:1006900078F1E3C78F1E7FF7EF00F07DE1F3C7C766
:1006A0008F0F3E1E783DF07FC0FF01FF03DF079FE5
:1006B0000F1F1E3E3C3E783EF03EF00F00F00F0054
:1006C000F00F00F00F00F00F00F00F00F00F00FF30
:1006D000FFFFFFF0F007FC03FE03FF83FFE3FFF9DA
:1006E000FFFDFFFFFFF7F7F9F3FC71FE10FF007F3E
:1006F000803FC01FE00FF00780F00FF80FFC0FFEE7
:100700000FFE0FFF0FFF8FF7CFF3EFF1FFF0FFF0BA
:10071000FFF07FF03FF01FF00FF00703F801FFC07C
:100720007FFC1F07C7C07CF007BE00FF800FF001F1
:10073000FE003FE00FBC01E7C07C7C1F07FFC07FCD
:10074000F003F800FFC7FF3FFDE1EF0FF87FC3DFC5
:10075000FEFFE7FE3C01E00F007803C01E00F00042
:1007600003F801FFC07FFC1F07C7C07CF007BE0075
:10077000FF800FF001FE003FE00FBC01E7C07C7C72
:100780001F07FFC07FF003F8001FC001FF800FE0CC
:100790000078FFC3FF8FFF3C3CF0FBC3CF0F3FF857
:1007A000FFC3FF0F3E3C7CF0F3C3EF07BC1EF07CA1
:1007B0001FC1FF9FFDF06F007C03F80FF83FE07F43
:1007C000807C01F80FF07BFFCFFC1F80FFFFFFFF55
:1007D000FFFF03C003C003C003C003C003C003C0C6
:1007E00003C003C003C003C003C003C003C0F00FB5
:1007F000F00FF00FF00FF00FF00FF00FF00FF00F01
:10080000F00FF00FF00FF81F7C3E7FFE3FF80FE077
:10081000F807BC07DF03C783E3E1E0F1F078F03EBF
:10082000780F7807FC01FE00FE003F001F000780E4
:10083000038000C000F80F01F780F01E781F81E7E9
:10084000C1F83E3C3FC3C3E3FC7C1E7FE781E79ECB
:10085000780FF9FF00FF0FF00FF0FF007E07E007B1
:10086000E07E003E07C003C03C001C0380018018EE
:1008700000FC07E7C1F8FC3E0F8F80FBE00FF8009B
:10088000FF001FC001F8007F001FF007FF00FBF012
:100890003E3F0F83E3F03EFC03E0F80FBE0F8F07EF
:1008A000C7C7C1F7C07BE03FE00FF003F001F000E5
:1008B000F8007C003E001F000F8007C003E0007FAF
:1008C000FF7FFE7FFC007C00F801F801F003E003ED
:1008D000E007C00F800F801F003E003FFF7FFFFF3B
:1008E000FFFFFFFFF0F0F0F0F0F0F0F0F0F0F0F0CC
:1008F000F0F0F0F0FFFFFFE0C183070E0C18387036
:1009000060C1C383060EFFFFFFE0F0783C1E0F07B7
:1009100083C1E0F0783C1E0F0783C1FFFFFFFC0797
:1009200000F00F81F81F839C39C70EF0F0FFF01024
:100930007EE7C7C7E67E7F8FF8C3C83C0FC3FCF3D2
:10094000CE3CE3DFFF7DE0F00F00F00F00F00F0082
:10095000F78FFEF1EF0FF07F07F0FF0FF1EFFEF7DB
:10096000801F8FF787C0F03C0F03C0784FF1F8006D
:10097000F00F00F00F00F00F1FF7FF78FF0FE0FE01
:100980000FE0FF0F70F7FF1EF01F8FF9C3F87FFF16
:10099000FFFC0780782FFC7F00078FC7078381C388
:1009A000F9FC381C0E070381C0E07038001FF7FF08
:1009B00071CF1EE1E71C7FC1F07803F83FEF3EE006
:1009C000EE0EF1E7FC3F80F00F00F00F00F00F009B
:1009D000F3CFFEF9EF0FF0FF0FF0FF0FF0FF0FF076
:1009E000F06FF6007777777777703BDE7000E73946
:1009F000CE739CE739DEFF7980E00E00E00E00E068
:100A00000E00E1EE3CE78EF0FE0FF0EF0E78E3CE45
:100A10003CE1F0FFFFFFFFFFFFE0E7878FFCFEF107
:100A2000F9EE0F0EE0E0FE0E0FE0E0FE0E0FE0E04C
:100A3000FE0E0FE0E0F0F7CFFEF8EF0EF0FF0FF044
:100A4000FF0FF0FF0FF0F01F83FE78EF0FF07F072E
:100A5000F07F0F78F3FE1F80F78FFEF0EF0FF07F2F
:100A600007F07F0FF1EFFEFF8F00F00F00F00F0097
:100A7000F0001EF7FF70FF0FE0FE0FE0FF0F78F7AA
:100A8000FF1FF00F00F00F00F00F00F0E777FFDF1F
:100A90002F070381C0E07038003E3FB85F0FE3F8D6
:100AA000FC1F877F9F80080C0E0FFFF9C0E0703895
:100AB0001C0E0791F878F0FF0FF0FF0FF0FF0FF01A
:100AC000FF0F71F7FF3EF0F0F70F79E39E3DC1FC99
:100AD0001F80F80F00F00600F0E1EE1C39E78F1CD4
:100AE000F9C3BF787F7E07EFC0F8F00F1E01C3C0C7
:100AF000183000F8FBC78F783F80F803C03E03F83A
:100B00003DE3C7BC1EF0F70F79E39E3DC1FC1F819A
:100B1000F80F80F00F00E01E01C03C038078007FDA
:100B2000F7FE03C07C0780F01F01E03C07FFFFF0E9
:100B30000F1F3C38383838383870E0F0783838389B
:100B40003838383C1F0FFFFFFFFFFFFFFFFFC0E0FB
:100B5000F0383838383838381C0F1F3C38383838B7
:100B6000383838F0E07FFFFD10004620008C40014F
:100B7000188002310004620008C4001188002310AC
:100B8000004620008C3FFE1800003000006000008E
:100B9000C1FFC1821F83043F06087E0C10FC182190
:100BA000F82843F04887E08FFFFE00000100FF00B7
:100BB00032000100000102000007030030100400B1
:100BC000000008000202090000000A0000000C00FA
:100BD00000000D0000000F000000100000001100D8
:100BE00007001200000013000000FF00C800100002
:100BF000901611002702FF00320012001A00FF00B9
:100C000032001300001829002A00FF0032003000D3
:100C100000003100000032000000350006023600FE
:100C200008083700070038000102390000003C00C6
:100C300000003D00000020000000210000005000E6
:100C400000005100EF005200000053003F0160001F
:100C500000A7610003006A000000900010009200ED
:100C60000000930003009500001197000000980019
:100C70000000070033011F038600207E1B000000D8
:100C800000230026002900000000080002010000E7
:100C90000304070000000000000000010204081027
:100CA00020408001020408102001020408102000E6
:100CB000000000250028002B0004040404040404A0
:100CC0000402020202020203030303030300000002
:100CD00000240027002A0000000000003E5B4F5B5C
:100CE0003E3E6B4F6B3E1C3E7C3E1C183C7E3C18CF
:100CF0001C577D571C1C5E7F5E1C00183C1800FFB3
:100D0000E7C3E7FF0018241800FFE7DBE7FF3048E0
:100D10003A060E2629792926407F050507407F05DA
:100D2000253F5A3CE73C5A7F3E1C1C08081C1C3ED1
:100D30007F14227F22145F5F005F5F06097F017FBF
:100D4000006689956A606060606094A2FFA2940862
:100D5000047E040810207E201008082A1C08081CA5
:100D60002A08081E101010100C1E0C1E0C30383EE5
:100D70003830060E3E0E06000000000000005F0046
:100D8000000007000700147F147F14242A7F2A1212
:100D900023130864623649562050000807030000F8
:100DA0001C2241000041221C002A1C7F1C2A08082A
:100DB0003E0808008070300008080808080000603D
:100DC000600020100804023E5149453E00427F4029
:100DD0000072494949462141494D331814127F1088
:100DE00027454545393C4A494931412111090736D2
:100DF00049494936464949291E000014000000406F
:100E00003400000008142241141414141400412268
:100E1000140802015909063E415D594E7C12111217
:100E20007C7F494949363E414141227F4141413E13
:100E30007F494949417F090909013E414151737F79
:100E40000808087F00417F41002040413F017F08A2
:100E50001422417F404040407F021C027F7F0408F3
:100E6000107F3E4141413E7F090909063E41512123
:100E70005E7F09192946264949493203017F01034A
:100E80003F4040403F1F2040201F3F4038403F63CD
:100E90001408146303047804036159494D43007F27
:100EA0004141410204081020004141417F040201F8
:100EB000020440404040400003070800205454789A
:100EC000407F284444383844444428384444287FE8
:100ED000385454541800087E090218A4A49C787F42
:100EE0000804047800447D40002040403D007F100D
:100EF00028440000417F40007C047804787C08048A
:100F000004783844444438FC18242418182424183D
:100F1000FC7C08040408485454542404043F44242A
:100F20003C4040207C1C2040201C3C4030403C4445
:100F3000281028444C9090907C4464544C44000801
:100F4000364100000077000000413608000201022F
:100F500004023C2623263C1EA1A161123A404020F7
:100F60007A38545455592155557941225454784270
:100F7000215554784020545579400C1E5272123934
:100F800055555559395454545939555454580000ED
:100F9000457C410002457D420001457C407D1211A7
:100FA000127DF0282528F07C545545002054547CAF
:100FB000547C0A097F4932494949323A4444443A07
:100FC000324A4848303A4141217A3A42402078003A
:100FD0009DA0A07D3D4242423D3D4040403D3C24DD
:100FE000FF2424487E4943662B2FFC2F2BFF092921
:100FF000F620C0887E090320545479410000447DC6
:10100000413048484A32384040227A007A0A0A720F
:101010007D0D19317D2629292F28262929292630B9
:10102000484D4020380808080808080808382F10DC
:10103000C8ACBA2F102834FA00007B000008142A2C
:10104000142222142A14085500550055AA55AA55F1
:10105000AAFF55FF55FF000000FF00101010FF0011
:10106000141414FF001010FF00FF1010F010F01403
:101070001414FC001414F700FF0000FF00FF141408
:10108000F404FC141417101F10101F101F14141454
:101090001F00101010F0000000001F101010101F93
:1010A00010101010F010000000FF101010101010A1
:1010B000101010FF10000000FF140000FF00FF00E0
:1010C000001F10170000FC04F41414171017141458
:1010D000F404F40000FF00F714141414141414F7AB
:1010E00000F7141414171410101F101F141414F404
:1010F000141010F010F000001F101F0000001F144B
:10110000000000FC140000F010F01010FF10FF149D
:101110001414FF141010101F00000000F010FFFF47
:10112000FFFFFFF0F0F0F0F0FFFFFF000000000015
:10113000FFFF0F0F0F0F0F3844443844FC4A4A4A50
:10114000347E02020606027E027E02635549416336
:101150003844443C04407E201E2006027E02029950
:10116000A5E7A5991C2A492A1C4C7201724C304AE9
:101170004D4D303048784830BC625A463D3E494972
:1011800049007E0101017E2A2A2A2A2A44445F441A
:101190004440514A444040444A51400000FF01034A
:1011A000E080FF000008086B6B0836123624360614
:1011B0000F090F0600001818000000101000304042
:1011C000FF0101001F01011E00191D1712003C3C08
:1011D0003C3C000000000000302BAA2D11241FBE53
:1011E000CFEFD8E0DEBFCDBF24E0AEE0B2E001C07B
:1011F0001D92A13BB207E1F712E0A0E0B1E0EAECFA
:10120000F6E602C005900D92AE30B107D9F718E0AE
:10121000CDEED8E004C02197FE010E943D31CC3EC6
:10122000D107C9F70E9442230C9458330C94000054
:101230002F923F924F925F926F927F928F929F92E6
:10124000AF92BF92CF92DF92EF92FF920F931F93D4
:10125000CF93DF9300D000D000D0CDB7DEB75C01D4
:101260004B015E834D83280181E090E03C01641ACC
:10127000750ACA01919581959109AC01440F551FDA
:101280005A8349831801CC24C394D12C522F517016
:101290005B8322702C83C60101972D813E818217CA
:1012A00093070CF080C077FC0CC08D819E81019764
:1012B0009E838D83E981FA813296FA83E9836E0EEB
:1012C0007F1EC601880F991F0196680E791EFB814B
:1012D000FF2379F1E091EB03F091EC032D813E8146
:1012E000220F331F2F5F3F4F240D351D0084F185E2
:1012F000E02D8701A4018D819E81481B590BB60109
:101300006A0D7B1D8BEE93E00995E091EB03F09164
:10131000EC030084F185E02D91012D5F3F4FA40186
:101320004C195D096D817E816A0D7B1D8BEE93E00A
:1013300009959C81992381F1E091EB03F091EC03F5
:101340002D813E81220F331F2F5F3F4F240D351D0E
:101350000084F185E02D8701A4018D819E81481BC9
:10136000590BB5016C197D098BEE93E00995E0915D
:10137000EB03F091EC030084F185E02D91012D5FEA
:101380003F4FA4014C195D09B5018D819E81681BF9
:10139000790B8BEE93E009959FEFC91AD90AE2E029
:1013A0002E0E311C78CF26960FB6F894DEBF0FBEF6
:1013B000CDBFDF91CF911F910F91FF90EF90DF9004
:1013C000CF90BF90AF909F908F907F906F905F90E5
:1013D0004F903F902F900895EF92FF920F931F939D
:1013E000CF93DF93FC01248135816115710511F4E0
:1013F00080E019C041155105A9F07B01EC018A017B
:10140000020F131FB8010E943F22882389F328810D
:1014100039818C819D81B701820F931F0E945133C6
:101420001D830C8381E0DF91CF911F910F91FF907D
:10143000EF900895AF92BF92CF92DF92EF92FF921A
:101440000F931F93CF93DF936C015B01EA01790146
:10145000E091EB03F091EC039A01220F331F2F5F11
:101460003F4FAB014C1B5D0B0084F185E02D8701E4
:10147000B6018BEE93E0099500E010E023E0AE01A9
:10148000B501C6010E941809DF91CF911F910F91FC
:10149000FF90EF90DF90CF90BF90AF9008952F9284
:1014A0003F924F925F926F927F928F929F92AF92F4
:1014B000BF92CF92DF92EF92FF920F931F93CF9341
:1014C000DF9300D000D0CDB7DEB73C015B012A012D
:1014D0003C832B83680188279927801B910B9C01F3
:1014E000220F331F3A8329831301200E311EE0910E
:1014F000EB03F091EC03240F351F0684F785E02DF4
:101500000B811C81AB01B1018BEE93E009952B811E
:101510003C8189819A81280F391FD9011197BA839B
:10152000A983AC0CBD1C640C751CC3018C199D09EE
:101530008D0121E0A601B50101970E9418090981DA
:101540001A8122E0A601B501C1010E9418090F907D
:101550000F900F900F90DF91CF911F910F91FF90FF
:10156000EF90DF90CF90BF90AF909F908F907F9043
:101570006F905F904F903F902F900895EF92FF9261
:101580000F931F93CF93DF93EC017B01AC0160E3DA
:1015900070E080918703909188030E9431208C0134
:1015A000AE0160E370E080918303909184030E9418
:1015B000DB1F970142E050E0BC01C801DF91CF91F1
:1015C0001F910F91FF90EF900C941A0ACF92DF9227
:1015D000EF92FF92CF93DF936C01990FEE08FF0813
:1015E000F7FE1CC0E0916002F09161020190F08171
:1015F000E02D6DE280E692E00995EC014427552745
:10160000BA014C195D096E097F092AE080E692E073
:101610000E94F9227C01EC0EFD1E08C02AE0B701F1
:10162000A60180E692E00E94F9227C0164E971E063
:1016300080E692E00E94E4228E0D9F1DDF91CF9103
:10164000FF90EF90DF90CF9008952F923F924F92AE
:101650005F926F927F928F929F92AF92BF92CF9242
:10166000DF92EF92FF920F931F93CF93DF9300D0FF
:1016700000D000D0CDB7DEB77C016B015E834D8317
:10168000890181E090E04C01841A950ACA01919584
:10169000819591099C01220F331F3A832983E091A0
:1016A000EB03F091EC03460F571F0480F581E02D0A
:1016B0009801B7018BEE93E00995E091EB03F0916F
:1016C000EC03A6018D819E81481B590B0480F58196
:1016D000E02D9801B7018BEE93E00995E091EB03C3
:1016E000F091EC036D817E816E0D7F1D0480F5818C
:1016F000E02D9801A6018BEE93E00995E091EB03B4
:10170000F091EC03B7012D813E81621B730B0480C5
:10171000F581E02D9801A6018BEE93E00995A12CAF
:10172000B12C81E090E09C838B83ED81FE81AE162D
:10173000BF060CF0A0C097FC0DC0ED81FE81319773
:10174000FE83ED8329813A812E5F3F4F3A832983BF
:10175000820E931E3FEFA31AB30A8B819C810296DF
:101760009C838B83880E991E25014E0C5F1CE09193
:10177000EB03F091EC030480F581E02D98016D807E
:101780007E806C0C7D1CA301B2018BEE93E0099569
:1017900017012A183B08E091EB03F091EC03048059
:1017A000F581E02D9801A301B1018BEE93E009953D
:1017B000E091EB03F091EC030480F581E02D9801BA
:1017C00036018D819E81681A790AA301B2018BEEE0
:1017D00093E00995E091EB03F091EC030480F5812F
:1017E000E02D9801A301B1018BEE93E0099535013D
:1017F0006C0C7D1CE091EB03F091EC030480F5810F
:10180000E02D9801A3014D805E804E0C5F1CB2015B
:101810008BEE93E00995E091EB03F091EC030480EB
:10182000F581E02D9801A30117018D819E81281A71
:10183000390AB1018BEE93E0099536016A187B08ED
:10184000E091EB03F091EC030480F581E02D980129
:10185000A301B2018BEE93E00995E091EB03F091C7
:10186000EC030480F581E02D9801A301B1018BEE1A
:1018700093E009955ACF26960FB6F894DEBF0FBEB7
:10188000CDBFDF91CF911F910F91FF90EF90DF902F
:10189000CF90BF90AF909F908F907F906F905F9010
:1018A0004F903F902F900895CF93DF93FC01448198
:1018B00055816081718180E692E00E941422EC01E2
:1018C00064E971E080E692E00E94E4228C0F9D1FA3
:1018D000DF91CF9108950F931F93CF93DF93837080
:1018E000809300042091EF033091F0034091F103C5
:1018F0005091F203813059F0833049F03093F40372
:101900002093F3035093F6034093F50308C05093DC
:10191000F4034093F3033093F6032093F503E0912F
:101920000604F0910704908180911204892380833A
:1019300080910504811129C0E0910004E150E33059
:1019400040F4F0E0EE0FFF1FE55CFE4F4081518157
:1019500002C040E350E163E070E08BEE93E00E9450
:10196000D7120091F5031091F6030150110920914F
:10197000F3033091F4032150310940E050E060E07E
:1019800070E08BEE93E00E94361B8091050481305D
:10199000A1F4E0910004E150E33028F4F0E0E85CC9
:1019A000FE4F408101C040E066E18BEE93E00E9473
:1019B00095138BEE93E00E94121B809105048230F8
:1019C00051F580910004813059F040F0823021F0CF
:1019D000833039F4D8E205C0D8E403C0D8E801C0A8
:1019E000D8EE4D2F66E38BEE93E00E9495130091A5
:1019F000F5031091F603015011092091F303309182
:101A0000F4032150310940E050E060E070E08BEEDB
:101A100093E00E94361B80910504833051F580913C
:101A20000004813059F040F0823021F0833039F4E5
:101A3000C0E605C0C0E003C0C0EC01C0C0EA4C2F46
:101A400066E38BEE93E00E9495130091F5031091ED
:101A5000F603015011092091F3033091F403215052
:101A6000310940E050E060E070E08BEE93E00E94CE
:101A7000361BDF91CF911F910F910895E0910604DD
:101A8000F0910704908180910E04892B8083E0916E
:101A90000A04F0910B04908180911004892B8083BB
:101AA000E0910C04F0910D04908180911104892B38
:101AB000808380911604882371F060E00E945010AA
:101AC00062E070E080E090E00E94D31061E08091DD
:101AD00016040E945010E0910604F09107049081D2
:101AE0008091120489238083E0910804F091090415
:101AF000908180911304892380838BB183708BB98B
:101B000085B18C7F85B9E0910A04F0910B04908136
:101B10008091140489238083E0910A04F0910B04DE
:101B2000908180911004892B808383E0E0910A04E6
:101B3000F0910B0420819091140492239083E09102
:101B40000A04F0910B04208190911004922B908351
:101B5000815061F7E0910604F09107049081809133
:101B60000E04892B80830895FC0124813581232B69
:101B700031F421E061157105A1F0FB0108C0FC0101
:101B8000808191816115710531F421E0FC01808132
:101B9000882339F005C00E94483321E0892B09F0E1
:101BA00020E0822F0895CF93DF93DC01ED91FC912B
:101BB000EB01A881B981309711F01097C9F4109703
:101BC00059F0EB012C813D81232B31F08C9190E079
:101BD00091958195910914C0309781F0DC0114969C
:101BE0008D919C911597892B49F0808190E008C0D8
:101BF000BD01CF01DF91CF910C94483380E090E09C
:101C0000DF91CF910895CF93DF93EC0161157105BA
:101C100061F0FB0101900020E9F73197AF01461B0D
:101C2000570B0E94EC09811103C0CE010E9466226D
:101C3000CE01DF91CF910895CF93DF93EC01FB01AB
:101C400044815581608171810E94EC09811103C03A
:101C5000CE010E946622CE01DF91CF910895EF92CE
:101C6000FF920F931F93CF93DF93EC017B018A01C7
:101C7000BA010E943F22811104C0CE010E94662257
:101C800007C01D830C83B701888199810E9451335D
:101C9000CE01DF91CF911F910F91FF90EF900895AA
:101CA000FC01918D828D981761F0828DDF01A80F64
:101CB000B11D5D968C91928D9F5F9F73928F90E086
:101CC00008958FEF9FEF0895FC01918D828D9817F5
:101CD00031F0828DE80FF11D858D90E008958FEF32
:101CE0009FEF0895FC01918D228D892F90E0805CFB
:101CF0009F4F821B91098F739927089580E692E088
:101D00000E94720E21E0892B09F420E0822F0895B1
:101D1000FC01848DDF01A80FB11DA35ABF4F2C9188
:101D2000848D90E001968F739927848FA689B78957
:101D30002C93A089B1898C9180648C93938D848D30
:101D4000981306C00288F389E02D80818F7D8083FF
:101D50000895EF92FF920F931F93CF93DF93EC01BF
:101D600081E0888F9B8D8C8D981305C0E889F98957
:101D7000808185FD24C0F62E0B8D10E00F5F1F4F74
:101D80000F731127E02E8C8DE8120CC00FB607FCE4
:101D9000FACFE889F989808185FFF5CFCE010E94CD
:101DA000880EF1CF8B8DFE01E80FF11DE35AFF4F36
:101DB000F0820B8FEA89FB898081806207C0EE89FF
:101DC000FF896083E889F98980818064808381E06C
:101DD00090E0DF91CF911F910F91FF90EF900895C8
:101DE000CF93DF93EC01888D8823C9F0EA89FB89C2
:101DF000808185FD05C0A889B9898C9186FD0FC0B9
:101E00000FB607FCF5CF808185FFF2CFA889B9898D
:101E10008C9185FFEDCFCE010E94880EE7CFDF9138
:101E2000CF91089580E090E0892B29F00E947E0EEA
:101E300081110C94000008953FB7F894809132040A
:101E400090913304A0913404B091350426B5A89B39
:101E500005C02F3F19F00196A11DB11D3FBFBA2F3C
:101E6000A92F982F8827820F911DA11DB11DBC019C
:101E7000CD0142E0660F771F881F991F4A95D1F761
:101E80000895089508950E943A338F929F92AF92D9
:101E9000BF92CF92DF92EF92FF920F931F93CF9357
:101EA000DF93EC014701121613060CF06BC01016FD
:101EB00011060CF067C0A885B9856A177B070CF07E
:101EC00061C0CA84DB844C155D050CF05BC05B010E
:101ED000A20EB31EC501019797FD54C07A01E00E12
:101EE000F11EF7013197F7FD4DC077FF49C060E063
:101EF00070E057FD02C0780102C040E050E08A1750
:101F00009B072CF0CD0101975D01A61AB70AEC15CD
:101F1000FD052CF0F60131977601E41AF50A8F01E0
:101F20009C01CE010E94361B9701D5010E941A31F7
:101F30009B01AC01B401CE010E94FF188A8D811172
:101F400010C00A851B85015011092885398521504B
:101F5000310940E050E060E070E0CE010E94361BA5
:101F600011C0CE01DF91CF911F910F91FF90EF90A3
:101F7000DF90CF90BF90AF909F908F900C94121BEA
:101F80005901B7CFDF91CF911F910F91FF90EF9043
:101F9000DF90CF90BF90AF909F908F9008951F9249
:101FA0000F920FB60F9211242F933F934F935F938D
:101FB0006F937F938F939F93AF93BF93EF93FF9311
:101FC00080E692E00E94880EFF91EF91BF91AF9161
:101FD0009F918F917F916F915F914F913F912F9141
:101FE0000F900FBE0F901F9018951F920F920FB673
:101FF0000F9211242F938F939F93EF93FF93E09170
:102000007002F09171028081E0917602F091770286
:1020100082FD12C09081809179028F5F8F73209131
:102020007A02821751F0E0917902F0E0E05AFD4F18
:10203000958F8093790201C08081FF91EF919F91EC
:102040008F912F910F900FBE0F901F901895833096
:1020500081F028F4813099F08230A1F00895873022
:10206000A9F08830B9F08430D1F4809180008F7D60
:1020700003C0809180008F7780938000089584B59D
:102080008F7702C084B58F7D84BD08958091B000A4
:102090008F7703C08091B0008F7D8093B00008954A
:1020A0001F93CF93DF93282F30E0F901E957F34FC7
:1020B0008491F901E556F34FD491F901E754F34FB8
:1020C000C491CC23C9F0162F81110E942710EC2F48
:1020D000F0E0EE0FFF1FE155F34FA591B4918FB7DC
:1020E000F894111105C09C91ED2FE095E92302C0F1
:1020F000EC91ED2BEC938FBFDF91CF911F91089561
:10210000CF93DF9390E0FC01E556F34F2491FC015F
:10211000E754F34F8491882361F190E0880F991F71
:10212000FC01E353F34FC591D491FC01E155F34F0A
:10213000A591B491611109C09FB7F8948881209549
:1021400082238883EC912E230BC0623061F49FB709
:10215000F8943881822F809583238883EC912E2BED
:102160002C939FBF06C08FB7F894E8812E2B28834D
:102170008FBFDF91CF9108958E3008F08E50877019
:10218000806480937C0080917A00806480937A00E0
:1021900080917A0086FDFCCF8091780020917900B3
:1021A00090E0922B08958F929F92AF92BF92CF9220
:1021B000DF92EF92FF926B017C010E941C0F4B019A
:1021C0005C01C114D104E104F104F1F00E941C0F80
:1021D000DC01CB0188199909AA09BB09883E934003
:1021E000A105B10570F321E0C21AD108E108F10898
:1021F00088EE880E83E0981EA11CB11CC114D10486
:10220000E104F10419F7DDCFFF90EF90DF90CF905C
:10221000BF90AF909F908F9008952FB7F8946091E2
:102220002E0470912F0480913004909131042FBFBF
:1022300008951F920F920FB60F9211242F933F9380
:102240008F939F93AF93BF9380912E0490912F040F
:10225000A0913004B091310430912D0423E0230F7C
:102260002D3720F40196A11DB11D05C026E8230FCE
:102270000296A11DB11D20932D0480932E049093EE
:102280002F04A0933004B0933104809132049091D4
:102290003304A0913404B09135040196A11DB11D01
:1022A0008093320490933304A0933404B0933504A4
:1022B000BF91AF919F918F913F912F910F900FBE42
:1022C0000F901F9018951F920F920FB60F92112426
:1022D0002F933F934F935F936F937F938F939F932E
:1022E000AF93BF93EF93FF93E0912201F09123010D
:1022F0000995FF91EF91BF91AF919F918F917F9140
:102300006F915F914F913F912F910F900FBE0F9062
:102310001F9018951F920F920FB60F9211242F93B2
:102320003F934F935F936F937F938F939F93AF935D
:10233000BF93EF93FF93E0912001F0912101099564
:10234000FF91EF91BF91AF919F918F917F916F918D
:102350005F914F913F912F910F900FBE0F901F9063
:102360001895CF92DF92EF92FF92FC01A38DB48D6E
:102370009C9187A189238C93A58DB68D9C9180A576
:1023800089238C938BB1962F9C7F8370892B8BB97B
:1023900085B163708C7F682B65B9A78DB0A19C91C6
:1023A00081A589238C93A78DB0A19C9185A1892BB0
:1023B0008C93A58DB68D9C9184A1892B8C9383E2FF
:1023C00090E0DC011197F1F77BB1C52EDD24EE24FE
:1023D000FF246C2D6C7F7370762B7BB965B17C2DDF
:1023E00073706C7F672B65B9A78DB0A17C9161A5D7
:1023F00067236C93A78DB0A17C9165A1672B6C932B
:10240000DC011197F1F77BB16A01EE24FF246C2DFA
:102410006C7F7370762B7BB965B17C2D73706C7F8C
:10242000672B65B9A78DB0A17C9161A567236C93DB
:10243000A78DB0A17C9165A1672B6C93DC011197EE
:10244000F1F77BB1C32ED42EE52EFF246C2D6C7FCB
:102450007370762B7BB965B17C2D73706C7F672BA5
:1024600065B9A78DB0A17C9161A567236C93A78DF9
:10247000B0A17C9165A1672B6C930197F1F78BB1AB
:10248000922F9C7F8370892B8BB985B123708C7FB1
:10249000282B25B9A78DB0A19C9181A589238C9368
:1024A000A78DB0A19C9185A1892B8C93A38DB48D10
:1024B0009C9183A1892B8C93FF90EF90DF90CF901C
:1024C0000895FC01A58DB68D9C9180A589238C93E0
:1024D0008BB1962F9C7F8370892B8BB985B16370EC
:1024E0008C7F682B65B9A78DB0A19C9181A58923AC
:1024F0008C93A78DB0A19C9185A1892B8C93A58DE0
:10250000B68D9C9184A1892B8C938BB1932F9C7F4A
:102510008370892B8BB985B133708C7F382B35B99B
:10252000A78DB0A19C9181A589238C93A78DB0A183
:102530009C9185A1892B8C93A58DB68D9C9180A5AE
:1025400089238C938BB1942F9C7F8370892B8BB9BB
:1025500085B143708C7F482B45B9A78DB0A19C9164
:1025600081A589238C93A78DB0A19C9185A1892BEE
:102570008C93A58DB68D9C9184A1892B8C938BB166
:10258000922F9C7F8370892B8BB985B123708C7FB0
:10259000282B25B9A78DB0A19C9181A589238C9367
:1025A000A78DB0A19C9185A1892B8C930895FC01E6
:1025B000A58DB68D9C9180A589238C938BB1972F87
:1025C0009C7F8370892B8BB985B173708C7F782B3E
:1025D00075B9A78DB0A19C9181A589238C93A78DF6
:1025E000B0A19C9185A1892B8C938BB1962F9C7F58
:1025F0008370892B8BB985B163708C7F682B65B92B
:10260000A78DB0A19C9181A589238C93A78DB0A1A2
:102610009C9185A1892B8C93A58DB68D9C9184A1CD
:10262000892B8C938BB1952F9C7F8370892B8BB9D1
:1026300085B153708C7F582B55B9A78DB0A19C9153
:1026400081A589238C93A78DB0A19C9185A1892B0D
:102650008C938BB1942F9C7F8370892B8BB985B120
:1026600043708C7F482B45B9A78DB0A19C9181A563
:1026700089238C93A78DB0A19C9185A1892B8C93E4
:102680000895EF92FF920F931F93CF93DF93EC0186
:102690007B018A8D811129C02D892150233078F446
:1026A00030E0F901E158FE4F8081482F50E0220FC1
:1026B000331FF901E758FE4F0081118104C000E08B
:1026C00010E040E050E0EB8DFC8D30812FA1232302
:1026D000208360E270E0CE010E94D712A80161E27F
:1026E00070E0CE010E94D71212C08150833078F47E
:1026F0000A851B850150110928853985215031092A
:1027000040E050E060E070E0CE010E94361B20E027
:102710003CE241E050E0B701CE01DF91CF911F9143
:102720000F91FF90EF900C94FF18FC01A58DB68DD2
:102730009C9180A589238C938BB1962F9C7F83706D
:10274000892B8BB985B163708C7F682B65B9A78D98
:10275000B0A19C9181A589238C93A78DB0A19C9158
:1027600085A1892B8C93A58DB68D9C9184A1892BF5
:102770008C938BB1942F9C7F8370892B8BB985B1FF
:1027800043708C7F482B45B9A78DB0A19C9181A542
:1027900089238C93A78DB0A19C9185A1892B8C93C3
:1027A0000895AF92BF92CF92DF92EF92FF920F9374
:1027B0001F93CF93DF93EC017B016A01B22EA32E0E
:1027C00077FD1BC157FD19C1888599856817790761
:1027D0000CF013C18A859B85481759070CF00DC171
:1027E000EB8DFC8D90818FA1892380838A8D81114F
:1027F00035C08D89823059F08330B1F08130D1F409
:102800008FEE90E0841B950B6B017C0113C08FEE63
:1028100090E09C01261B370B79018FE391E09C012E
:10282000241B350B690106C08FE391E0861B970BD3
:102830007A016C01A70160E270E0CE010E94D7121C
:10284000A60161E270E0CE010E94D7124B2D5A2DF5
:1028500062E270E0CE010E94D712C9C0813009F057
:1028600060C0ED89E150E33028F4F0E0EE57FE4F10
:10287000408101C040E066E1CE010E9495139701BE
:1028800043E062E0CE010E946112960147E066E0FB
:10289000CE010E946112ED8DFE8D908188A5892365
:1028A00080838BB1837080628BB985B18C7F8260AD
:1028B00085B9EF8DF8A1908189A589238083EF8D5B
:1028C000F8A190818DA1892B8083ED8DFE8D908163
:1028D0008CA1892B80838BB19A2D9C7F8370892B4F
:1028E0008BB985B19A2D93708C7FA92EA82AA5B893
:1028F000EF8DF8A1908189A589238083EF8DF8A1C0
:1029000090818DA1892B80838BB19B2D9C7F8370BF
:10291000892B8BB985B19B2D93708C7FB92EB82AEA
:1029200059C08250823008F062C00A851B85015070
:1029300011092885398521503109CE010E94361BA5
:10294000EB8DFC8D90818FA189238083ED8DFE8D91
:10295000908188A5892380838BB183708C628BB929
:1029600085B18C7F85B9EF8DF8A1908189A58923E8
:102970008083EF8DF8A190818DA1892B8083ED8DCF
:10298000FE8D90818CA1892B80838BB19A2D9C7FA9
:102990008370892B8BB995B18A2D83709C7FA82E6B
:1029A000A92AA5B8EF8DF8A1908189A589238083F4
:1029B000EF8DF8A190818DA1892B80838BB19B2D08
:1029C0009C7F8370892B8BB995B18B2D83709C7FF5
:1029D000B82EB92AB5B8EF8DF8A1908189A58923C1
:1029E0008083EF8DF8A190818DA1892B8083EB8D61
:1029F000FC8D90818BA1892B8083DF91CF911F91DA
:102A00000F91FF90EF90DF90CF90BF90AF9008951F
:102A100008952F923F924F925F926F927F928F9282
:102A20009F92AF92BF92CF92DF92EF92FF920F935D
:102A30001F93CF93DF93CDB7DEB76B970FB6F894A4
:102A4000DEBF0FBECDBF4C015A8349831F830E8367
:102A5000FD82EC82CB82DC0158964D915C915997B6
:102A60004115510509F0A5C018968D919C911997B3
:102A7000681779070CF05AC11A968D919C911B9793
:102A8000E981FA81E817F9070CF050C1D12CCB018C
:102A90003B81F6E03F9F800D911D11241816190609
:102AA0000CF044C1C60133E0880F991F3A95E1F755
:102AB00049815A81840F951F181619060CF036C1EA
:102AC00057968C91811103C0203B08F02F5F55E091
:102AD000259F900111247E876D875B01212CC90100
:102AE000861B970B99878887A981BA811896BB871F
:102AF000AA87B5E02B1641F0E885F985EA0DFB1DA4
:102B0000E952F34F349001C0312C69807A8023015F
:102B100030FE12C0D401ED91FC91BB81B13031F493
:102B20000480F581E02D2E813F8118C00684F78551
:102B3000E02DEE80FF801CC0EC81FD812E813F8165
:102B4000E217F307E1F0D401ED91FC91BB81B130C4
:102B500051F40480F581E02D2C813D81A301B50164
:102B6000C40109950CC00684F785E02DEC80FD803A
:102B700086019601A2016D857E85C4010995369472
:102B8000EFEF6E1A7E0A4C0C5D1C2A853B8562169F
:102B9000730609F0BDCF23943FEFA31AB30A4D8506
:102BA0005E854C0D5D1D5E874D8756E02512A1CFD9
:102BB000BDC0FA0134963491329785919491231BCC
:102BC000A7E02A9F800D911D1124FA0125913491CF
:102BD0003A8B298BFC0125903490FC01329634917C
:102BE0003887319644914C873196E491FC013596B3
:102BF000A491319684915B81523050F06A2E0A2E56
:102C0000000C7708E82F082E000CFF0BFB87EA87E3
:102C1000FB81CF2ED12C6C9C90016D9C300D7C9C47
:102C2000300D1124A901460F571F588B4F871C8266
:102C3000A12CEA2FAA0FFF0B3B016E0E7F1E5885B9
:102C4000650F711DDB01AE0FBF1FBF8BAE8BE9811E
:102C5000FA81E80FF11D87FDFA95F98FE88F9C85C1
:102C6000A91608F063C08A2D90E04A855B85480F5D
:102C7000591F4C9D90014D9D300D5C9D300D1124D0
:102C8000A981BA81A20FB31FBE87AD877B8E6A8EE2
:102C90004F845888BC81B619BB8BE88DF98DE80F3D
:102CA000F91FFD8BEC8B8B89FA8D8F0F2A8D3B8D55
:102CB0004E895F892417350799F1877041F4C10166
:102CC0000196E989FA89E20DF31DB4901C01B7FE63
:102CD0001EC0D401ED91FC91BB81B13061F4048040
:102CE000F581E02D2E813F814C895D896A8D7B8D38
:102CF000C40109950CC00684F785E02DEE80FF80A5
:102D0000860196014D855E85B201C4010995BB0C13
:102D1000EA8DFB8D3196FB8FEA8F4C0C5D1CC3CF87
:102D20005C818885580F5C83A39499CF6B960FB60E
:102D3000F894DEBF0FBECDBFDF91CF911F910F91F1
:102D4000FF90EF90DF90CF90BF90AF909F908F90CB
:102D50007F906F905F904F903F902F900895AF922B
:102D6000BF92CF92EF92FF920F931F93CF93DF9377
:102D7000EC01262F888D998D009709F042C06A30AA
:102D800069F42C898E859F8538E0239F800D911DE5
:102D900011249F878E871D861C86ACC06D3009F478
:102DA000A9C08E898823C1F03C898C859D8546E029
:102DB000349F800D911D11244885598584179507EE
:102DC0005CF01D861C868E859F85E8E03E9F800D09
:102DD000911D11249F878E87EA88FB8808891989AD
:102DE0004E855F856C857D85CC88CE010E94091556
:102DF0002C898C859D85F6E02F9F800D911D1124D7
:102E000041C06A3079F41D861C862C89FC013696F7
:102E1000E4918E859F852E9F800D911D11249F87A3
:102E20008E8768C06D3009F465C0AC014C5F5F4FA0
:102E3000FA013491631708F45DC03196E491E61706
:102E400008F458C0FA014491362F341BFC01329625
:102E5000A590B490F7E03F9FA00CB11C1124F501A0
:102E6000329634913196E491332311F0E1110DC083
:102E7000F5013496E4912C898C859D85E29F800D27
:102E8000911D11249D878C8735C0F501359644919D
:102E90005E89552311F16C89E32FF0E0E40FF11DF9
:102EA00047FDFA956E9FD0016F9FB00D11244C85A0
:102EB0005D854A0F5B1FE885F9854E175F076CF04B
:102EC0001D861C86FC013696E4918E859F856E9F3B
:102ED000800D911D11249F878E87EA88FB880889C1
:102EE00019894E855F856C857D85CC88CE010E94D1
:102EF0000915BECF81E090E0DF91CF911F910F9136
:102F0000FF90EF90CF90BF90AF900895EF92FF9217
:102F10000F931F93DC01ED91FC9111971A960D917F
:102F20001C911B9718962D913C9119970684F78553
:102F3000E02D7B0140E050E060E070E009951F91DA
:102F40000F91FF90EF9008956F927F928F929F92D2
:102F5000AF92BF92CF92DF92EF92FF920F931F93A7
:102F6000CF93DF936C015A014801EB013B01620EE4
:102F7000731EC615D70574F4D601ED91FC9100843B
:102F8000F185E02D87019401A501BE01C6010995D7
:102F90002196EFCFDF91CF911F910F91FF90EF908E
:102FA000DF90CF90BF90AF909F908F907F906F9069
:102FB0000895EF92FF920F931F93DC01ED91FC9126
:102FC000260F371F215031090680F781E02D780147
:102FD0008A0109951F910F91FF90EF900895EF924C
:102FE000FF920F931F937801DC01ED91FC91240F68
:102FF000351F8901015011090680F781E02D9B01E1
:1030000009951F910F91FF90EF9008956F927F9215
:103010008F929F92AF92BF92CF92DF92EF92FF92E8
:103020000F931F93CF93DF93EC014B015A0169017A
:103030003801E881F9810284F385E02D8701099543
:10304000E881F981A501460D571D415051090284BF
:10305000F385E02D9601B401CE010995E881F9814F
:103060000084F185E02D9301A501B401CE010995FD
:10307000E881F981C80CD91CB6016150710900843E
:10308000F185E02D9301A501CE010995DF91CF9146
:103090001F910F91FF90EF90DF90CF90BF90AF9076
:1030A0009F908F907F906F9008952F923F924F92B4
:1030B0005F926F927F928F929F92AF92BF92CF92C8
:1030C000DF92EF92FF920F931F93CF93DF9300D085
:1030D0001F92CDB7DEB74C017B836A836A01590129
:1030E00017019801241B350B37FF03C0319521953B
:1030F0003109C5014A815B81841B950B97FF03C091
:1031000091958195910951E059838217930714F0A5
:1031100019820BC09A2D8B2D5801092F182F9A81D7
:103120008B81DB82CA82C92ED82E8A819B81A81608
:10313000B9065CF49C2D8D2D6801092F182F9A81FA
:103140008B81BB82AA82A92EB82E2501AA81BB81C0
:103150004A1A5B0A38016C187D0877FE03C0719427
:1031600061947108720157FE03C0BFEFEB1AFB0AAE
:10317000F594E794C016D1061CF00FEF1FEF1FC0A7
:1031800001E010E01CC0D401ED91FC91B9810480F4
:10319000F581E02D9101BB23C1F04A815B81B6012D
:1031A000C4010995E618F708F7FE04C0C00ED11E49
:1031B000E40CF51CEA81FB813196FB83EA834A81AA
:1031C0005B81A416B506FCF604C0A6016A817B816A
:1031D000E7CF0F900F900F90DF91CF911F910F913C
:1031E000FF90EF90DF90CF90BF90AF909F908F9027
:1031F0007F906F905F904F903F902F900895AF9287
:10320000BF92CF92DF92EF92FF920F931F93CF93D3
:10321000DF93FC01A38DB48D9C9187A189238C93AE
:10322000A58DB68D9C9180A589238C93828D82304B
:10323000B9F0811113C08BB183708BB985B18C7FCC
:1032400085B9A78DB0A19C9181A589238C93A78D69
:10325000B0A19C9185A1892B8C9309C0833039F44E
:103260008BB183708C628BB985B18C7F07C08BB1B9
:10327000837080628BB985B18C7F826085B9A78DA0
:10328000B0A19C9181A589238C93A78DB0A19C911D
:1032900085A1892B8C93A58DB68D9C9184A1892BBA
:1032A0008C938BB1972F9C7FB92E8370892B8BB910
:1032B00085B1A72FA370AA2E8C7F8A2B85B9C78DC5
:1032C000D0A1988181A589238883C78DD0A19881B9
:1032D00085A1892B88838BB1C62FCC7F83708C2BE3
:1032E0008BB985B1D62FD3708C7F8D2B85B9078D87
:1032F00010A1D8019C9181A589238C93078D10A1E1
:10330000D8019C9185A1892B8C93215031094109C9
:10331000510969017A0186E0F694E794D794C7943D
:103320008A95D1F7C601761348C1019708F465C0A4
:1033300060E1A78DB0A1CC9171A57C237C93A78D72
:10334000B0A1CC9175A17C2B7C93A78DB0A1CC9121
:1033500071A57C237C93A78DB0A1CC9175A17C2B0A
:103360007C93A78DB0A1CC9171A57C237C93A78D74
:10337000B0A1CC9175A17C2B7C93A78DB0A1CC91F1
:1033800071A57C237C93A78DB0A1CC9175A17C2BDA
:103390007C93A78DB0A1CC9171A57C237C93A78D44
:1033A000B0A1CC9175A17C2B7C93A78DB0A1CC91C1
:1033B00071A57C237C93A78DB0A1CC9175A17C2BAA
:1033C0007C93A78DB0A1CC9171A57C237C93A78D14
:1033D000B0A1CC9175A17C2B7C93A78DB0A1CC9191
:1033E00071A57C237C93A78DB0A1CC9175A17C2B7A
:1033F0007C93615009F09DCF98CF2F732150C8F076
:10340000A78DB0A19C9181A589238C93A78DB0A194
:103410009C9185A1892B8C93A78DB0A19C9181A5AE
:1034200089238C93A78DB0A19C9185A1892B8C9326
:10343000E5CFA38DB48D9C9183A1892B8C93DF91D3
:10344000CF911F910F91FF90EF90DF90CF90BF90A1
:10345000AF9008956BB163706B296BB965B16C7FE8
:103460006A2965B9078D10A1D801FC9061A56F216B
:103470006C93078D10A1D801FC9065A16F296C9306
:103480006BB163706C2B6BB965B16C7F6D2B65B9DB
:10349000078D10A1D801FC9061A56F216C93078D59
:1034A00010A1D801FC9065A16F296C936BB163707A
:1034B0006B296BB965B16C7F6A2965B9078D10A15D
:1034C000D801FC9061A56F216C93078D10A1D801E4
:1034D000FC9065A16F296C936BB163706C2B6BB919
:1034E00065B16C7F6D2B65B9078D10A1D801FC907B
:1034F00061A56F216C93078D10A1D801FC9065A187
:103500006F296C936BB163706B296BB965B16C7F7C
:103510006A2965B9078D10A1D801FC9061A56F21BA
:103520006C93078D10A1D801FC9065A16F296C9355
:103530006BB163706C2B6BB965B16C7F6D2B65B92A
:10354000078D10A1D801FC9061A56F216C93078DA8
:1035500010A1D801FC9065A16F296C936BB16370C9
:103560006B296BB965B16C7F6A2965B9078D10A1AC
:10357000D801FC9061A56F216C93078D10A1D80133
:10358000FC9065A16F296C936BB163706C2B6BB968
:1035900065B16C7F6D2B65B9078D10A1D801FC90CA
:1035A00061A56F216C93078D10A1D801FC9065A1D6
:1035B0006F296C93715009F04DCF019710F070E1B5
:1035C00049CF2F73215008F434CF8BB183708B29EE
:1035D0008BB985B18C7F8A2985B9478D50A1DA01D5
:1035E0009C9181A589238C93478D50A1DA019C91F0
:1035F00085A1892B8C938BB183708C2B8BB985B172
:103600008C7F8D2B85B9478D50A1DA019C9181A5C6
:1036100089238C93478D50A1DA019C9185A1892B38
:103620008C93D0CFCF93DF93EC01EB8DFC8D908109
:103630008FA189238083288539852150310945E070
:1036400064E0CE010E9461122A853B852150310938
:1036500049E068E0CE010E946112EB8DFC8D908103
:103660008BA1892B8083DF91CF9108958F929F92B8
:10367000AF92BF92CF92DF92EF92FF920F931F9380
:10368000CF93DF93EC017A016901EB8DFC8D3081E2
:103690002FA1232320832A8D21115EC02D89223062
:1036A00089F0233021F1213081F52FEE30E0A9019E
:1036B000401B510B5B0149018E189F088601640174
:1036C0007B0113C02FEE30E0A9014C195D0969019F
:1036D000C61AD70A8FE391E09C01201B310B8C01A5
:1036E0000E191F09580146017901BA0110C02FE3D4
:1036F00031E0A9014C195D095901A61AB70A470121
:1037000068018501B7017A0102C05A014B01AB0182
:1037100060E570E0CE010E94D712A60161E570E07D
:10372000CE010E94D712A70162E570E0CE010E948F
:10373000D712A80163E570E0CE010E94D712A40160
:1037400060E270E0CE010E94D712A50161E270E054
:10375000CE010E94D71247C02130C1F49B0143E043
:1037600062E00E946112970147E066E0CE010E948C
:103770006112960145E064E0CE010E946112980159
:1037800049E068E0CE010E9461122DC02250223033
:1037900050F5CB01770FAA0BBB0BDC0199278827CB
:1037A000A601DD0C660B770B9A01AB01282B392B98
:1037B0004A2B5B2B6AE2CE010E94B111C701FF0CBC
:1037C000AA0BBB0BDC0199278827A801110F660BF8
:1037D000770B9A01AB01282B392B4A2B5B2B6BE221
:1037E000CE010E94B111EB8DFC8D90818BA1892BB4
:1037F0008083DF91CF911F910F91FF90EF90DF9029
:10380000CF90BF90AF909F908F900895CF92DF920E
:10381000EF92FF920F931F93CF93DF93EC01680118
:10382000121613060CF04FC077FD4DC088859985A0
:10383000681779070CF047C0EA85FB854E175F07CC
:103840000CF041C07A01E20EF31E8701015011090C
:1038500017FD39C057FF35C040E050E00E171F0775
:1038600034F08F01015011097F01E41AF50A9B0120
:10387000CE010E94361B9701FF0C440B550BB6017D
:10388000CE010E94FF188A8D811110C00A851B8508
:1038900001501109288539852150310940E050E057
:1038A00060E070E0CE010E94361B0DC0CE01DF91BA
:1038B000CF911F910F91FF90EF90DF90CF900C94DC
:1038C000121B7901CBCFDF91CF911F910F91FF9008
:1038D000EF90DF90CF900895CF92DF92EF92FF921A
:1038E0000F931F93CF93DF93EC0168011216130619
:1038F0000CF04EC057FD4CC08A859B854817590770
:103900000CF046C0E885F9856E177F070CF040C0C3
:103910007B01E20EF31EC701019797FD39C077FFC7
:1039200035C060E070E08E179F072CF0CF01019743
:103930007F01E61AF70A8A019C01CE010E94361B1C
:103940009701FF0C440B550BB601CE010E94FF18E6
:103950008A8D811110C00A851B85015011092885A7
:1039600039852150310940E050E060E070E0CE013F
:103970000E94361B0DC0CE01DF91CF911F910F9198
:10398000FF90EF90DF90CF900C94121B7901CBCF7A
:10399000DF91CF911F910F91FF90EF90DF90CF902B
:1039A000089585ED8093BC008091BC0084FDFCCF20
:1039B00010928504089540915F04262F30E0240F73
:1039C000311D21323105DCF4209185042430C9F405
:1039D000FC0180E090E0861758F430915F0421915B
:1039E000DC01A35CBB4FA30FB11D2C930196F3CF59
:1039F00080915F04680F60935F0480E0089581E028
:103A0000089582E0089508958FEF9FEF08958FEF56
:103A10009FEF089580913C0490E0919581959109E4
:103A20000895CF93DF9300D0CDB7DEB7CB01642FDD
:103A300049835A830E94DB1C4981842F5A81952F28
:103A40000F900F90DF91CF910895CF93DF931F9246
:103A5000CDB7DEB7698361E0CE0101960E94DB1C21
:103A600081E090E00F90DF91CF9108951F920F9227
:103A70000FB60F9211240F900FBE0F901F90189544
:103A80001F920F920FB60F9211242F933F934F93D3
:103A90005F936F937F938F939F93AF93BF93EF93B6
:103AA000FF938091B900887F803609F49CC068F547
:103AB000883209F45BC090F4803109F454C038F4C2
:103AC000882309F4F6C0883009F44DC0F6C0883167
:103AD00009F44CC0803209F45DC0EFC0803409F4B1
:103AE00068C048F4803309F455C0883309F0E5C054
:103AF00080938404D8C0803509F44FC0883509F418
:103B00005DC0883409F0D9C0D6C0883909F4C7C06F
:103B1000A8F4883709F467C038F4883609F463C01C
:103B2000803709F460C0C9C0883809F4B8C080394A
:103B300009F45FC0803809F0C0C05BC0803B09F465
:103B400086C038F4803A09F466C0883A09F47FC028
:103B5000B4C0803C09F4A7C0883C09F4A4C0883BE9
:103B600009F48AC0AAC08091AA0410C09091A90447
:103B70008091A804981770F5E091A90481E08E0F58
:103B80008093A904F0E0E857FB4F80818093BB004D
:103B900085EC86C0809384048EC0E091A90481E006
:103BA0008E0F8093A9048091BB00F0E0E857FB4F93
:103BB00080839091A9048091A8046EC0E091A9042B
:103BC00081E08E0F8093A9048091BB00F0E0E8575C
:103BD000FB4F80838091870481116DC081E08093C9
:103BE000860484EA61C083E0809385041092830494
:103BF000CFCF80918304803208F051C0E0918304DC
:103C000081E08E0F809383048091BB00F0E0ED593A
:103C1000FB4F8083BDCF85EC8093BC001092850460
:103C200080918304803230F4E0918304F0E0ED5918
:103C3000FB4F10826091830470E0E0916104F09189
:103C4000620483E694E009951092830436C084E010
:103C5000809385041092600410925F04E0915D04EB
:103C6000F0915E04099580915F04811105C081E0A7
:103C700080935F0410923D04E091600481E08E0F18
:103C800080936004F0E0E35CFB4F80818093BB0095
:103C90009091600480915F04981708F479CF85E8CB
:103CA0008093BC000AC085EC8093BC001092850410
:103CB00004C0109284040E94D11CFF91EF91BF9127
:103CC000AF919F918F917F916F915F914F913F91B4
:103CD0002F910F900FBE0F901F901895AF92BF922B
:103CE000CF92DF92EF92FF920F931F93CF93DF93C8
:103CF000CDB7DEB76E970FB6F894DEBF0FBECDBF5F
:103D000000E011E080E1A82E82E0B82E90E3C92EF9
:103D100092E0D92E29E8E22E23E0F22EF8016191FB
:103D200071918F014AE0CE0149960E947D22F501F2
:103D3000619171915F014AE0CE0143960E947D221C
:103D4000F601619171916F014AE0CE010D960E94DA
:103D50007D22B701CE0107960E94B52263EF71E084
:103D6000CE0101960E94CF22BE01695F7F4FCE0136
:103D700001960E941C0E6BEF71E00E94030EBE01C3
:103D8000635F7F4F0E941C0E61E072E00E94030E91
:103D9000BE016D5E7F4F0E941C0E67E072E00E94C4
:103DA000030EBE01675E7F4F0E941C0E0E94540CE2
:103DB000CE0101960E947822CE0107960E947822B9
:103DC000CE010D960E947822CE0143960E94782261
:103DD000CE0149960E947822F6E0EF0EF11C81E0B8
:103DE0000032180709F09ACF6E960FB6F894DEBF2E
:103DF0000FBECDBFDF91CF911F910F91FF90EF903C
:103E0000DF90CF90BF90AF9008958F929F92AF9226
:103E1000BF92CF92DF92EF92FF920F931F93CF93B7
:103E2000DF935C016B01FC018480958039E8E32E0F
:103E300033E0F32E00E010E0CFEFDFEFF7018481F5
:103E400095818815990539F4B501C7010E94D30DF4
:103E5000892B09F4E8010F5F1F4FF6E0EF0EF11C0C
:103E60000031110559F782E0C816D10461F0E3E092
:103E7000CE16D10469F0CA94CD2889F4CC0FDD1F89
:103E8000C05DDD4F09C0CC0FDD1FC05FDD4F04C03A
:103E9000CC0FDD1FC050DF4F8881998101C0CE015A
:103EA000DF91CF911F910F91FF90EF90DF90CF9016
:103EB000BF90AF909F908F9008955F926F927F9286
:103EC0008F929F92AF92BF92CF92DF92EF92FF922A
:103ED0000F931F93CF93DF938C015B016A017901EC
:103EE000FC0184809580612C712CCFEFDFEF46E0E0
:103EF000542E569CC001579C900D112487579C4FFF
:103F0000FC01248135812815390549F4B8010E9446
:103F1000D30D892B21F4E30130E1632E712CFFEFE7
:103F20006F1A7F0A80E1681671041CF3CE01880FB6
:103F3000991FFC01E05DFD4FB182A082FC01E05FB2
:103F4000FD4FD182C082FC01E050FF4FF182E08240
:103F5000DF91CF911F910F91FF90EF90DF90CF9065
:103F6000BF90AF909F908F907F906F905F900895DB
:103F70000F931F93CF93DF93EC018EE091E00E94AB
:103F8000E60ACE0168E671E00E940631EC01C25FEC
:103F9000DE4FCE010E94E60AC83681E0D80714F051
:103FA000C856D140CE010E94E60ACE01DF91CF91E2
:103FB0001F910F910895AF92BF92CF92DF92EF922F
:103FC000FF920F931F93CF93DF9300D000D0CDB714
:103FD000DEB78C015B01BA01550F880B990B0E946B
:103FE000FB2D2BED3FE049E450E40E94362E20E00B
:103FF00030E044E353E40E94CE2F0E94B5309B0191
:10400000AC01B801110F880B990B29833A834B83BC
:104010005C830E94FB2D6B017C01B501BB0C880BFE
:10402000990B0E94FB2D29813A814B815C810E9472
:10403000362E9B01AC01C701B6010E945D2F0E9484
:104040004030CB010F900F900F900F90DF91CF91E8
:104050001F910F91FF90EF90DF90CF90BF90AF90A6
:104060000895AF92BF92CF92DF92EF92FF920F939B
:104070001F93CF93DF9300D000D0CDB7DEB78C0174
:104080005B01BA01550F880B990B0E94FB2D2BED9C
:104090003FE049E450E40E94362E20E030E044E363
:1040A00053E40E94CE2F0E94C92F9B01AC01B8019E
:1040B000110F880B990B29833A834B835C830E94F1
:1040C000FB2D6B017C01B501BB0C880B990B0E9489
:1040D000FB2D29813A814B815C810E94362E9B0108
:1040E000AC01C701B6010E945D2F0E944030CB0198
:1040F0000F900F900F900F90DF91CF911F910F9124
:10410000FF90EF90DF90CF90BF90AF9008954F92C7
:104110005F926F927F928F929F92AF92BF92CF9257
:10412000DF92EF92FF920F931F93CF93DF9300D014
:1041300000D000D0CDB7DEB73C012091F303309121
:10414000F403C901859797FD0396959587959595F5
:10415000879590930F0280930E021092FE031092A7
:10416000FD031092FC031092FB0339E8A32E33E009
:10417000B32E812C912C4EE0C42ED12C59E0452E2B
:10418000512C20910E0230910F026814790429F409
:1041900098E1E92E96ECF92E04C08FEEE82E8BE71D
:1041A000F82E04E110E046E050E0B6018BEE93E01B
:1041B0000E94450FB501CE0101960E94B52221E073
:1041C00030E046E050E0B601CE0101960E945D1F4E
:1041D000CE0101960E947822C60102969093F803C0
:1041E0008093F7035092FA034092F903F50144815A
:1041F0005581608171818BEE93E00E941422809141
:10420000030490910404892B49F08091F903909163
:10421000FA0306979093FA038093F903109204042B
:1042200010920304FFEF8F1A9F0A84E0881691040E
:1042300069F080910E0290910F02C80ED91E83E0A2
:10424000C80ED11CE6E0AE0EB11C9BCF26960FB671
:10425000F894DEBF0FBECDBFDF91CF911F910F91BC
:10426000FF90EF90DF90CF90BF90AF909F908F9096
:104270007F906F905F904F9008952F923F924F9252
:104280005F926F927F928F929F92AF92BF92CF92E6
:10429000DF92EF92FF920F931F93CF93DF934C0126
:1042A0006B015A01E9012701609087037090880330
:1042B000AC01B501C3010E9431201C01E0908303D1
:1042C000F0908403A401B501C7010E94DB1F5C01CB
:1042D000A601BE01C3010E9431204C01A601BE010E
:1042E000C7010E94DB1F800F911FA501400F511FC6
:1042F00072018C019401B1018BEE93E00E9455187C
:10430000DF91CF911F910F91FF90EF90DF90CF90B1
:10431000BF90AF909F908F907F906F905F904F90E5
:104320003F902F9008958F929F92AF92BF92CF921D
:10433000DF92EF92FF920F931F93CF93DF93C1E031
:104340008091500290915102029709F4C0E0D0E0B0
:104350004E01880C991CA12CB12CF501E80DF91D1A
:10436000E65DFE4F60817181072E000C880B990B72
:104370000E94FB2D20E030E048E455E40E94CE2F5F
:1043800020E030E044EB53E40E94362E0E9440309F
:10439000CB010E94B81F6C0180E1E82E84E8F82E62
:1043A00004E010E025E530E04CE350E0B601C60142
:1043B0000E943D210CEF1FEF25E530E04CE350E07B
:1043C000B601C6010E943D21219682E0A80EB11CD3
:1043D000C730D10514F2DF91CF911F910F91FF905B
:1043E000EF90DF90CF90BF90AF909F908F90089507
:1043F000609183037091840320E134E84CE350E042
:1044000080918703909188030E941A0A6091830328
:104410007091840320E030E048E350E0809187030E
:10442000909188030C941A0ACF92DF92EF92FF9238
:104430000F931F93CF93DF936C017A018B01C0E040
:10444000D0E0CE15DF0589F0D8016D918D01D60140
:10445000ED91FC910190F081E02DC6010995892B29
:1044600011F47E0102C02196ECCFC701DF91CF91FC
:104470001F910F91FF90EF90DF90CF9008950F93D1
:104480001F93CF93DF93EC0188819981009729F0E6
:104490002A813B812617370788F48B016F5F7F4F96
:1044A0000E947032009761F0998388831B830A838E
:1044B0002C813D81232B11F4FC01108281E001C08D
:1044C00080E0DF91CF911F910F910895CF93DF93FB
:1044D000EC0188819981009711F00E94D8311982EE
:1044E00018821D821C821B821A82DF91CF9108954F
:1044F000FC01808191810C94D831EF92FF920F934F
:104500001F93CF93DF93CDB7DEB762970FB6F894C2
:10451000DEBF0FBECDBF8C01CB01F801118210822E
:10452000138212821582148250E09E012F5F3F4F4A
:104530007901B9010E94B92DF70101900020E9F736
:104540003197AF014E195F09B701C8010E942F0EC4
:1045500062960FB6F894DEBF0FBECDBFDF91CF914C
:104560001F910F91FF90EF900895FB01DC011196D0
:104570001C921E9213961C921E92129715961C92D4
:104580001E9214978617970749F060817181611513
:10459000710521F0448155810C942F0E0895FC0182
:1045A00011821082138212821582148261157105A4
:1045B00051F0FB0101900020E9F73197AF01461B54
:1045C000570B0C942F0E08956115710579F0FB01BE
:1045D00001900020E9F73197AF01461B570BDC0132
:1045E000ED91FC910280F381E02D099480E090E050
:1045F00008954F925F926F927F92EF92FF920F9386
:104600001F93CF93DF93CDB7DEB7A1970FB6F89482
:10461000DEBF0FBECDBF7C01FA01CB0119A2223053
:1046200008F42AE08E010F5D1F4F422E512C612CA1
:10463000712CBF01A30192010E94F42EF901CA015D
:10464000015011096A3014F4605D01C0695CD80141
:104650006C93232B242B252B61F7B801C7010E94F3
:10466000E422A1960FB6F894DEBF0FBECDBFDF9156
:10467000CF911F910F91FF90EF907F906F905F907F
:104680004F900895CF93DF93CDB7DEB7E1970FB684
:10469000F894DEBF0FBECDBF789484B5826084BD30
:1046A00084B5816084BD85B5826085BD85B5816036
:1046B00085BD80916E00816080936E0010928100B4
:1046C000809181008260809381008091810081606F
:1046D0008093810080918000816080938000809130
:1046E000B10084608093B1008091B00081608093BC
:1046F000B00080917A00846080937A0080917A0083
:10470000826080937A0080917A00816080937A0041
:1047100080917A00806880937A001092C100109294
:1047200041031092420310924303109244031092EB
:10473000FF0210920003109201031092020368EB33
:104740007BE080E090E00E94D31080E692E09093BE
:10475000400380933F03E0917002F091710282E088
:104760008083E0916C02F0916D021082E0916E0204
:10477000F0916F0280E1808310927802E0917402E0
:10478000F091750286E08083E0917202F0917302ED
:10479000808180618083E0917202F0917302808158
:1047A00088608083E0917202F0917302808180685A
:1047B0008083E0917202F091730280818F7D80830B
:1047C0000E940D116093FF02709300038093010318
:1047D0009093020365E871E080913F03909140035C
:1047E0000E94E4226AE070E080E090E00E94D31032
:1047F00081E0809313030E943E0D0E943E0D68EC01
:1048000070E080E090E00E94D31010920504E091E7
:104810000604F0910704908180911204892380831B
:104820000AEA1BE0F80165917491F801329645910E
:1048300054916F3F710531F4BA0180E090E00E941D
:10484000D31004C08BEE93E00E94D7120C5F1F4F71
:104850002CE00637120731F7809100040E946B0CA0
:104860000FE311E02FEE30E040E050E060E070E058
:104870008BEE93E00E94361B83E00E946B0C60E09D
:1048800070E08BEE93E00E94411361E08DE00E94A6
:10489000801080E090E00E9487202091F503309105
:1048A000F603205231094091F3035091F4034C5028
:1048B000510968E1E62E66ECF62E03E010E06AE1AD
:1048C00070E086E090E00E944F0A2091F50330915D
:1048D000F603265231094091F3035091F4034251FB
:1048E0005109E12CF12C6DE170E089E090E00E942B
:1048F0004F0A0E94F8217AE2A72E71E0B72EE1EA72
:10490000EE2EE3E0FE2E00E010E0D5016D917D91EA
:104910005D01072E000C880B990B0E94FB2D20E0F7
:1049200030E048E455E40E94CE2F20E030E044EB34
:1049300053E40E94362E0E944030CB010E94B81FE3
:104940003C0180918703909188038090850390902B
:104950008603A3010115110551F466E470E00E947D
:1049600031200F976C01A3016CE470E009C064E68C
:1049700070E00E9431200F976C01A30164E670E0A3
:10498000C4010E94DB1F0F974C01B701CE010796AF
:104990000E94B522BE01695F7F4FCE0101960E9441
:1049A000B52222E030E0A401B601CE0101960E94BA
:1049B0005D1FCE0101960E94782220E23DEF43E088
:1049C00050E0B401C6010E94250BCE0107960E945B
:1049D00078220F5F1F4FB6E0EB0EF11C0730110578
:1049E00009F093CF20E038EF42E050E068E270E059
:1049F00080918703909188030E94250B20E23DEF70
:104A000043E050E068E270E088E290E00E94250B0D
:104A100020E23DEF43E050E068E270E08AE590E09C
:104A20000E94250B8091F3039091F40320E23DEF67
:104A300043E050E068E270E0865491090E94250B43
:104A40008091F3039091F40320E23DEF43E050E0C6
:104A500068E270E0885791090E94250B6091F50388
:104A60007091F6036A5271098091F3039091F403F7
:104A700020E23DEF43E050E08A970E94250B67E972
:104A800071E0CE0101960E94CF2223E030E048E29F
:104A900050E068E270E0CE0101960E945D1FCE01F9
:104AA00001960E94782268E971E0CE0101960E9489
:104AB000CF2223E030E048E250E06AE570E0CE012A
:104AC00001960E945D1FCE0101960E9478220091FE
:104AD000F3031091F403065411096AE971E0CE0161
:104AE00001960E94CF2223E030E048E250E0B80176
:104AF000CE0101960E945D1FCE0101960E94782290
:104B00000091F3031091F403085711096BE971E068
:104B1000CE0101960E94CF2223E030E048E250E02F
:104B2000B801CE0101960E945D1FCE0101960E9440
:104B30007822E090F503F090F603EAE2EE1AF1082D
:104B40000091F3031091F4030A5211096DE971E029
:104B5000CE0101960E94CF2223E030E0A701B801E8
:104B6000CE0101960E945D1FCE0101960E9478221F
:104B70000E946E1E68EB7BE080E090E00E94D31004
:104B80000E940D11672B682B692B41F40E940D11B7
:104B9000623071058105910508F40EC10E940D1166
:104BA00060935C0270935D0280935E0290935F025B
:104BB000009158021091590220915A0230915B02E3
:104BC000601771078207930740F46093580270934F
:104BD000590280935A0290935B02009158021091FF
:104BE000590220915A0230915B026B017C01C01A7C
:104BF000D10AE20AF30A970186010A3F110521054D
:104C0000310508F4D9C0609358027093590280931B
:104C10005A0290935B0284EF91E0A0E0B0E08093B1
:104C20000B0390930C03A0930D03B0930E0310920B
:104C30000F0310921003109211031092120380912F
:104C4000030390910403A0910503B09106038093A0
:104C5000070390930803A0930903B0930A030E94EB
:104C60000D116093030370930403809305039093E5
:104C700006030E940D116093FF027093000380935E
:104C80000103909302030E940D116B017C016FE9F7
:104C900071E080913F03909140030E94E4222AE05A
:104CA00041E050E060E070E080913F03909140036C
:104CB0000E94F92266EA71E080913F0390914003DF
:104CC0000E94E4222AE0B701A60180913F0390915F
:104CD00040030E94F92268EA71E080913F039091BD
:104CE00040030E94E4228091030390910403A09169
:104CF0000503B0910603B701A601481B590B6A0BC7
:104D00007B0B2AE080913F03909140030E94F9229F
:104D100068EA71E080913F03909140030E94E42291
:104D200040910303509104036091050370910603C1
:104D30008091070390910803A0910903B0910A03A1
:104D4000481B590B6A0B7B0B2AE080913F03909123
:104D500040030E94F9226AEA71E080913F0390913A
:104D600040030E94E4220E940D11AB01BC012AE025
:104D700080913F03909140030E94F92200913F03EC
:104D8000109140036CEA71E0C8010E94E42264E9DA
:104D900071E0C8010E94E42265E070E080E090E0EC
:104DA0000E94D3100E940D116093030370930403BB
:104DB000809305039093060361E08DE00E945010FC
:104DC000A0911C04B0E0FD01E754F34FC490809122
:104DD0001904682F70E0FB01E754F34F04914091F0
:104DE0001B0450E0FA01E754F34FA49020911A04F9
:104DF00030E0F901E754F34FE490FD01E556F34F3D
:104E00008490FB01E556F34F9490FA01E556F34F79
:104E1000B490F901E556F34FD490D9A660E00E9412
:104E2000801060E080911A040E94801010E0000F52
:104E3000111F0155134FF801A591B4918C91F92CD4
:104E4000F094FDA68F218C93F12CF701EE0FFF1F3C
:104E5000CF018155934F7C01FC01A591B4919C91A8
:104E60008D2D809589238C9361E080911C040E9494
:104E7000801061E080911B040E948010D12CF6010B
:104E8000EE0FFF1FDF01A155B34F6D01FD01A5918D
:104E9000B4918C9188298C93EA2DF0E0EE0FFF1FDE
:104EA000E155F34FA591B491EC91B094BE22BC9220
:104EB000809119040E94BC103C01809119040E9449
:104EC000BC101C018FEF93E05C01A218B30860E0F6
:104ED00080911C040E94801060E080911B040E945D
:104EE0008010F601A591B4918C91809489AA8821B3
:104EF0008C9361E0809119040E948010F801A591C3
:104F0000B491EC919E2A9C9261E080911A040E94D7
:104F1000801080911B040E94BC102C0180911B0406
:104F20000E94BC104C014816590629F4B1E0BDA3FB
:104F30006214730409F01DA261E080911C040E94B8
:104F40008010F601A591B491EC91C9A8EC21EC93E5
:104F5000F701A591B491EC91D9A4ED29EC93F80156
:104F6000A591B4918C91EDA48E218C9360E08091F9
:104F700019040E94801080911B040E94BC108C01B7
:104F8000809119040E94BC10E0901D04F0901E0452
:104F9000E114F10409F440C0BC01990F880B990B8E
:104FA0000E94FB2D2B013C01B801110F880B990BBE
:104FB0000E94FB2D9B01AC01C301B2010E94CE2FC8
:104FC00020E030E040E85FE30E945C2F2B013C01D1
:104FD000B5010B2C000C880B990B0E94FB2D9B013B
:104FE000AC01C301B2010E94362E2B013C01B70176
:104FF00080E090E00E94F92D9B01AC01C301B20159
:105000000E94362E20E030E040E85AE30E94362E1F
:105010000E9440308B0104C0081B190B01501C4F2B
:10502000FDA0F11002C000E010E060E08DE00E9401
:10503000501061E080E10E94801061E081E10E94F7
:105040008010B80163537109653B734008F000C3D9
:1050500065010B2C000CEE08FF08CDA6DEA6EFA61E
:10506000F8AA25EAA216B1044CF4C701B6010E94C1
:10507000FB2D6DA37EA38FA398A724C025E8A216BD
:1050800023E0B206ACF06DA57EA58FA598A90E947D
:10509000FB2D69A77AA78BA79CA7C12CD12C95E2E1
:1050A000E92E93E4F92ECDA2DEA2EFA2F8A614C059
:1050B000C12CD12C85E2E82E83E4F82ECDA2DEA20D
:1050C000EFA2F8A6C12CD12C01E6E02E04E4F02ECC
:1050D000C9A6DAA6EBA6FCA68FEF93E0881999097A
:1050E0002C01092E000C66087708803A91053CF4E3
:1050F000C301B2010E94FB2D6B017C0116C08F38E9
:1051000093406CF0C301B2010E94FB2D4B015C0186
:10511000C12CD12C10E2E12E13E4F12E0DC0C12CD4
:10512000D12CB0E2EB2EB3E4FB2E812CA0E89A2E1A
:10513000A3E6AA2EA4E4BA2EC301B2010E94FB2D5D
:10514000A70196010E945C2F2B013C01A70196014B
:10515000C501B4010E945C2F9B01AC01C301B201E7
:105160000E94CE2F9B01AC0160E070E080E89FE3DD
:105170000E945C2F4B015C016091F3037091F4037A
:10518000072E000C880B990B0E94FB2D9B01AC0194
:10519000C501B4010E94362E0E9440308B017093ED
:1051A0005502609354026DA57EA58FA598A90E9413
:1051B000FB2D2DA13EA14FA158A50E945C2F6B0194
:1051C0007C012DA13EA14FA158A569A57AA58BA56B
:1051D0009CA50E945C2F9B01AC01C701B6010E94F7
:1051E000CE2F9B01AC0160E070E080E89FE30E945D
:1051F0005C2F6B017C018091F5039091F603BC015B
:10520000990F880B990B0E94FB2D9B01AC01C701E4
:10521000B6010E94362E0E9440307B0170935702E7
:1052200060935602D0900E02C0900F0240E050E012
:10523000A0E0B0E022242A94322C80E090E0BC016F
:10524000660F771FFB01E05DFD4F20813181FB017F
:10525000E05FFD4FA080B18060507F4FFB01608117
:1052600071816130710531F054F0643071050CF4D6
:10527000F2C105C04D2D5C2DA4E1B0E002C0672B4A
:1052800021F020173107BCF405C020173107C4F402
:1052900080E190E0240F351F0217130764F4AE1469
:1052A000BF044CF4F501EA0FFB1FEE16FF061CF4D9
:1052B0001C0180E190E00196803191050CF4BFCF94
:1052C00080915202909153022816390609F4C0C108
:1052D000C1010E94E60AF4E02F16310408F0B4C1BF
:1052E0001092510210925002C1010E94872022E0C8
:1052F0002216310409F4A4C183E02816310409F40C
:105300009FC191E02916310409F09EC130925102EB
:10531000209250020E94F82180E090E00E94B81F85
:105320006C014C01ADE98A1AAEEF9A0A2C01B9EB77
:105330004B0E511C3C01E5E06E0E711C5C01FFEA56
:10534000AF0EB11C609183037091840320E134E8B7
:1053500043E050E080918703909188030E94250BE1
:1053600040E1E42E44E8F42E00E010E024E330E0D5
:1053700044E350E0B201C4010E943D2124E330E047
:1053800044E350E0B501C3010E943D2124E330E035
:1053900044E350E0B301C4010E943D2124E330E026
:1053A00044E350E0B501C2010E943D2160EE77E088
:1053B000C6010E94BE0A60E078EFC601845B9109D5
:1053C0000E94BE0A80E00E94932181E00E94932106
:1053D0000E946E1E812C912C51E1452E512C66E0CD
:1053E000662E712CC4018F559C4F7C01BC01CE01EF
:1053F00001960E94B52261E070E0CE0101960E9404
:10540000051F5C01CE0101960E947822B701CE01F2
:1054100001960E94B52262E070E0CE0101960E94E2
:10542000051F6C01CE0101960E947822B701CE01C2
:1054300001960E94B52263E070E0CE0101960E94C1
:10544000051F8C01CE0101960E947822B701CE0182
:105450004F960E94B522BE01615E7F4FCE014996F4
:105460000E94B5224AE0B801CE0143960E947D22F7
:105470004AE0B601CE010D960E947D224AE0B501B8
:10548000CE0107960E947D2263EB71E0CE0101966A
:105490000E94CF22BE01695F7F4FCE0101960E941C
:1054A0001C0E67EB71E00E94030EBE01635F7F4F2D
:1054B0000E941C0E6CEB71E00E94030EBE016D5E3B
:1054C0007F4F0E941C0E61EC71E00E94030EBE0132
:1054D000675E7F4F0E941C0E0E94540CCE01019605
:1054E0000E947822CE0107960E947822CE010D9666
:1054F0000E947822CE0143960E947822CE014996DE
:105500000E9478220330110519F405EE1FEA02C04B
:1055100008E116EC6CEC71E0C7010E94B40D882321
:1055200011F000EE1FEF67E971E0C7010E94B40DB2
:10553000811107C06AE971E0C7010E94B40D882398
:1055400019F066246394712C68E971E0C7010E9428
:10555000B40D811107C06BE971E0C7010E94B40D61
:10556000882329F027E0622E712C0EE416EA6DE9FB
:1055700071E0C7010E94B40D882341F08FE0482EEE
:10558000512C93E0692E712C00E21DEF780104E0AC
:1055900010E02EE130E04EE150E0B601C5010E947E
:1055A0004F0AC40CD51CA60CB71CB092F803A092ED
:1055B000F703D092FA03C092F9031092FE031092FF
:1055C000FD031092FC031092FB0380910304909161
:1055D0000404892B39F496E0C90ED11CD092FA0349
:1055E000C092F90386E79CE090930404809303043F
:1055F0004BA15CA16F8D78A18BEE93E00E941422E9
:105600008091030490910404892B49F08091F9035F
:105610009091FA0306979093FA038093F9031092FE
:10562000040410920304CE014F960E947822A6E053
:105630008A0E911CB8E48B16910409F0D3CE04C0F5
:105640003092510220925002309253022092520224
:105650000E94120F95CA4EE150E0AEE1B0E011CECB
:10566000DF92EF92FF920F931F93CF93DF931092ED
:1056700063021092620288EE93E0A0E0B0E08093B3
:10568000640290936502A0936602B093670225E4DA
:1056900031E0309361022093600225EC30E03093DA
:1056A0006D0220936C0224EC30E030936F02209363
:1056B0006E0220EC30E0309371022093700221ECF6
:1056C00030E0309373022093720222EC30E030938A
:1056D00075022093740226EC30E030937702209319
:1056E00076021092790210927A0210927B02109246
:1056F0007C0210920303109204031092050310928F
:1057000006031092070310920803109209031092E7
:105710000A0310920B0310920C0310920D031092C7
:105720000E0310920F0310921003109211031092A7
:10573000120322E43FE03093200420931F041092D0
:105740002404109223048093250490932604A093AC
:105750002704B093280485E591E090932204809378
:10576000210481E18093190480E180931B0489E086
:1057700080931A0488E080931C048CE291E090935B
:105780001E0480931D048AE090E090931804809397
:1057900017041092EE031092ED0300EF10E0109347
:1057A000F0030093EF03C0E4D1E0D093F203C09381
:1057B000F1031093F4030093F303D093F603C09323
:1057C000F503109200041092F8031092F703109260
:1057D000FA031092F903DD24D394D092FF03EE2450
:1057E000EA94FE2CF092FE03E092FD03F092FC039B
:1057F000E092FB03D0920104109202041092040480
:105800001092030485E691E09093EC038093EB0300
:1058100082E180931604EAECFCE0E491F0E0EE0F04
:10582000FF1FE155F34FA591B491B0930704A093E6
:105830000604E9ECFCE0E491F0E0EE0FFF1FE15517
:10584000F34F859194919093090480930804E8ECB8
:10585000FCE0E491F0E0EE0FFF1FE155F34F85917E
:10586000949190930B0480930A04E7ECFCE0E4919C
:10587000F0E0EE0FFF1FE155F34F85919491909367
:105880000D0480930C04ECEAFCE0849180930E04F8
:10589000EBEAFCE0349130930F04EAEAFCE0249157
:1058A00020931004E9EAFCE0949190931104482FAE
:1058B000409540931204E32FE095E0931304E22F08
:1058C000E095E0931404E92FE095E0931504EC9142
:1058D000E82BEC93E0910804F09109049081809109
:1058E0000F04892B8083E0910A04F0910B049081CE
:1058F00080911004892B8083E0910C04F0910D04B9
:10590000908180911104892B808361E081E10E9464
:10591000801061E080E10E94801061E08FE00E94D1
:10592000801061E08EE00E94801061E082E10E94C0
:10593000501061E082E10E9480108AB18C6F8AB9B8
:1059400084B1836084B9109200041092F80310921D
:10595000F7031092FA031092F903D092FF03F0922A
:10596000FC03E092FB031093F4030093F303D09342
:10597000F603C093F503EAE8FCE08491EEE9FCE06D
:10598000D491ECEBFCE0C491CC2391F081110E9406
:105990002710EC2FF0E0EE0FFF1FE358F34FA59117
:1059A000B491EC91ED2391E080E021F490E002C00D
:1059B00090E080E09093E9038093EA0366EC71E065
:1059C00089E893E00E94CF226EEC71E08FE893E0CB
:1059D0000E94CF2265ED71E085E993E00E94CF221D
:1059E0006FED71E08BE993E00E94CF226CEC71E0E7
:1059F00081EA93E00E94CF2267EE71E087EA93E0AC
:105A00000E94CF2269EE71E08DEA93E00E94CF22DE
:105A10006BEE71E083EB93E00E94CF226DEE71E0BC
:105A200089EB93E00E94CF226FEE71E08FEB93E061
:105A30000E94CF2261EF71E085EC93E00E94CF22BB
:105A400067E971E08BEC93E00E94CF2268E971E096
:105A500081ED93E00E94CF226AE971E087ED93E047
:105A60000E94CF226BE971E08DED93E00E94CF227E
:105A70006DE971E083EE93E00E94CF228091F503FF
:105A80009091F60397FD01969595879590938803DD
:105A9000809387032091F3033091F403C901C696E4
:105AA00097FD01969595879590938603809385033E
:105AB0009093840380938303ECE4F3E012821182D9
:105AC00013821082DF0111971C9211971C92369657
:105AD00083E0E436F80791F710926E031092710399
