:100000000C94EE080C9418140C94F1130C94151A1B
:100010000C94151A0C94151A0C9416090C941609C4
:100020000C9416090C9416090C9416090C941609D4
:100030000C9416090C9416090C9416090C941609C4
:100040000C94A7130C9416090C948F120C9469123B
:100050000C9416090C9416090C9416090C941609A4
:100060000C941F1A0C94160905A84CCDB2D44EB9A5
:100070003836A9020C50B9918688083CA6AAAA2A4B
:10008000BE000000803F00000000070001000004E7
:10009000110701F0090009060C01F010000E120E04
:1000A00000F030000B140D01F04C0010111101F0A4
:1000B0006E0010111201F0900004060601F093008A
:1000C00008170901F0AA0008170900F0C1000A0B7F
:1000D0000B01F0CF000C0B0E01F4E0000408070147
:1000E000FDE40006030801FAE70004040701FDE946
:1000F0000007110700F0F8000B110D01F0100103CB
:10010000110D05F017010B110D01F02F010A110D52
:1001100001F045010B110D01F05D0109100D02F117
:100120006F010B110D01F087010A110D02F09D0105
:100130000B110D01F0B5010B110D01F0CD01040BF8
:100140000701F6D301040F0701F6DB010C0D0E01C8
:10015000F2EF010C080E01F5FB010C0D0E01F20F80
:100160000207110901F01E0216161801F05B0213B6
:10017000111300F084020E111102F0A202101113EB
:1001800001F0C40210111302F0E6020C110F02F08C
:1001900000030B110F02F0180311111401F03D03BD
:1001A00010111402F05F0304110802F06803071530
:1001B00008FFF07B030F111102F09B030C110F02DB
:1001C000F0B50311111502F0DA0310111402F0FC5E
:1001D0000313111501F025040D111002F041041351
:1001E000151501F073040E111002F091040D110F9A
:1001F00001F0AD0410111101F0CF0410111402F040
:10020000F10411111100F016051C111C00F052052B
:1002100013111400F07B0511111100F0A00510114D
:100220001100F0C20508160B02F0D80507110700EF
:10023000F0E70509160B00F000060C090E01F00EA0
:10024000060C010C0003100608070A01F017060C43
:100250000B0D01F628060C110E01F042060A0B0CDC
:1002600001F650060C110E01F06A060B0B0D01F69B
:100270007A0609110700F08E060C110D01F6A8068A
:100280000C110E01F0C20604110701F0CB06051790
:100290000700F0DA060C110D02F0F4060311070254
:1002A000F0FB06140B1702F617070C0B0E01F628CD
:1002B000070C0B0E01F639070C110E01F653070C53
:1002C000110E01F66D07090B0B02F67A07090B0AEE
:1002D00001F68707090E0A00F397070C0B0E01F6CB
:1002E000A8070C0B0C00F6B907130B1300F6D40784
:1002F0000D0B0D00F6E6070C110C00F600080C0BB8
:100300000D00F6110808160901F027080316070268
:10031000F0300808160901F0460817181800EE7F9B
:10032000FFFF77662007FF70F3F9FCFC763B1C0E9D
:100330001838E0E3830E1C3BFFFFFFFFFF1870E15E
:100340008FFFFFFFFFFDC3870C1C3071C1C7000C7E
:1003500003F1FF766EC5D83F03E07F83F83F8670D8
:10036000CF19FB7FFE3F0180300600380CFC18C619
:1003700018C630C660C660FCC039800180033C06E8
:100380007E06E60CC718C718E6307E603C07C01F23
:10039000E03FF03CF03C703CE01FE01FC03F877F37
:1003A000CFFBFEF1FEF0FCF0F8FFFC7FFE1F1FFF0D
:1003B000FE66070E1C1C38787870F0F0F0F0F0F054
:1003C000F0707878381C1C0E07E070383C1C1E0E4C
:1003D0000F0F0F0F0F0F0F0F0F0E1E1C3C3870E08A
:1003E0001C070CCBA7FB830FBFA7CC8701C00F0056
:1003F000F00F00F0FFFFFFFFF0F00F00F00F006FB5
:10040000F7776CFFFFC07FF70E1870E1830E1C308A
:1004100060C3870C1870E01F07F1FF3CE71FE3FC87
:100420007F8FF1FE3FC7F8F71EF39FF1FC1F00FF1F
:10043000FFFFFFFFFFE01F0FF1FF31E83C0380F0FB
:100440001E0380F01C0781E0380FFBFFFFE03E1F1A
:10045000E7F91F03C0F0783C0F03E03C0F03E0FF17
:10046000FFFE7E0001C0380F03E0FC3F87F1DE7322
:10047000DC7BFFFFFFFE0780F01E03C0FFFFFFFED7
:100480000F0783F9FEFF83C0E0787FFFFDFC078143
:10049000E03C0F01C0781FC3FE7FDE3FC7F8FF1F9F
:1004A000E3DFF1FC1F00FFFFFFFC1E0781E0F03CD3
:1004B0000F0781E0703C0F0381E018001F07F1E790
:1004C00038F71EE3DE71FC3F8F3BC7F8FF1FE3DE0A
:1004D00079FE1F001F07F1FF38FF1FE3FC7F8F7FAE
:1004E000E7F87F03C0781E07C0F03C007FF70007E5
:1004F000FF707FF70006FF7776C000100F03F1FE54
:100500007F8FC0F00FC07F81FE03F00F0010FFFF50
:10051000FFFFF000000FFFFFFFFF800F00FC07F858
:100520001FE03F00F03F1FE7F8FC0F008000F9FBE1
:10053000F8F1E3CF1C38E0C1000E1E3C7000FE0055
:100540001FFF00F01E07001C380039C3CE661FF9DC
:10055000B8E3C7C7070F1C1C3CE071F381C6CE0E81
:100560001B3838CC71E639FFF063EF81C00073C0EF
:100570000383C03C07FFE003FC0003F0007E000F94
:10058000C003FC007F800F7803CF0079F01F1E03AB
:10059000C3C0783C1FFF83FFF8FFFF1E01F3C01E9E
:1005A000F803E0FFC3FF8FFF3C7CF0F3C3CF1E3F97
:1005B000F0FFF3FFEF07BC1FF07FC1EFFFBFFCFFB1
:1005C000E003FC0FFF1FFF3F077C017800F800F0FD
:1005D00000F000F000F80078007C013F071FFF0FDB
:1005E000FF03F8FFC0FFF8FFFCF07EF03EF01FF0C5
:1005F0000FF00FF00FF00FF00FF01FF03EF07EFF46
:10060000FCFFF8FFC0FFFFFFFFFF00F00F00F00F3F
:10061000FEFFEFFEF00F00F00F00FFFFFFFFF0FF07
:10062000FFFFFFF80F01E03C07FFFFFFFFC0780F5F
:1006300001E03C0780F00003FC07FF87FFC7E0E70D
:10064000C00BC003E001E000F03FF81FFE0FEF0019
:10065000F7C079F07C7FFE1FFE03F800F00FF00F6B
:10066000F00FF00FF00FF00FFFFFFFFFFFFFF00F95
:10067000F00FF00FF00FF00FF00FF00FF00FFFFF83
:10068000FFFFFFFFFFFFF01E3C78F1E3C78F1E3C2A
:1006900078F1E3C78F1E7FF7EF00F07DE1F3C7C766
:1006A0008F0F3E1E783DF07FC0FF01FF03DF079FE5
:1006B0000F1F1E3E3C3E783EF03EF00F00F00F0054
:1006C000F00F00F00F00F00F00F00F00F00F00FF30
:1006D000FFFFFFF0F007FC03FE03FF83FFE3FFF9DA
:1006E000FFFDFFFFFFF7F7F9F3FC71FE10FF007F3E
:1006F000803FC01FE00FF00780F00FF80FFC0FFEE7
:100700000FFE0FFF0FFF8FF7CFF3EFF1FFF0FFF0BA
:10071000FFF07FF03FF01FF00FF00703F801FFC07C
:100720007FFC1F07C7C07CF007BE00FF800FF001F1
:10073000FE003FE00FBC01E7C07C7C1F07FFC07FCD
:10074000F003F800FFC7FF3FFDE1EF0FF87FC3DFC5
:10075000FEFFE7FE3C01E00F007803C01E00F00042
:1007600003F801FFC07FFC1F07C7C07CF007BE0075
:10077000FF800FF001FE003FE00FBC01E7C07C7C72
:100780001F07FFC07FF003F8001FC001FF800FE0CC
:100790000078FFC3FF8FFF3C3CF0FBC3CF0F3FF857
:1007A000FFC3FF0F3E3C7CF0F3C3EF07BC1EF07CA1
:1007B0001FC1FF9FFDF06F007C03F80FF83FE07F43
:1007C000807C01F80FF07BFFCFFC1F80FFFFFFFF55
:1007D000FFFF03C003C003C003C003C003C003C0C6
:1007E00003C003C003C003C003C003C003C0F00FB5
:1007F000F00FF00FF00FF00FF00FF00FF00FF00F01
:10080000F00FF00FF00FF81F7C3E7FFE3FF80FE077
:10081000F807BC07DF03C783E3E1E0F1F078F03EBF
:10082000780F7807FC01FE00FE003F001F000780E4
:10083000038000C000F80F01F780F01E781F81E7E9
:10084000C1F83E3C3FC3C3E3FC7C1E7FE781E79ECB
:10085000780FF9FF00FF0FF00FF0FF007E07E007B1
:10086000E07E003E07C003C03C001C0380018018EE
:1008700000FC07E7C1F8FC3E0F8F80FBE00FF8009B
:10088000FF001FC001F8007F001FF007FF00FBF012
:100890003E3F0F83E3F03EFC03E0F80FBE0F8F07EF
:1008A000C7C7C1F7C07BE03FE00FF003F001F000E5
:1008B000F8007C003E001F000F8007C003E0007FAF
:1008C000FF7FFE7FFC007C00F801F801F003E003ED
:1008D000E007C00F800F801F003E003FFF7FFFFF3B
:1008E000FFFFFFFFF0F0F0F0F0F0F0F0F0F0F0F0CC
:1008F000F0F0F0F0FFFFFFE0C183070E0C18387036
:1009000060C1C383060EFFFFFFE0F0783C1E0F07B7
:1009100083C1E0F0783C1E0F0783C1FFFFFFFC0797
:1009200000F00F81F81F839C39C70EF0F0FFF01024
:100930007EE7C7C7E67E7F8FF8C3C83C0FC3FCF3D2
:10094000CE3CE3DFFF7DE0F00F00F00F00F00F0082
:10095000F78FFEF1EF0FF07F07F0FF0FF1EFFEF7DB
:10096000801F8FF787C0F03C0F03C0784FF1F8006D
:10097000F00F00F00F00F00F1FF7FF78FF0FE0FE01
:100980000FE0FF0F70F7FF1EF01F8FF9C3F87FFF16
:10099000FFFC0780782FFC7F00078FC7078381C388
:1009A000F9FC381C0E070381C0E07038001FF7FF08
:1009B00071CF1EE1E71C7FC1F07803F83FEF3EE006
:1009C000EE0EF1E7FC3F80F00F00F00F00F00F009B
:1009D000F3CFFEF9EF0FF0FF0FF0FF0FF0FF0FF076
:1009E000F06FF6007777777777703BDE7000E73946
:1009F000CE739CE739DEFF7980E00E00E00E00E068
:100A00000E00E1EE3CE78EF0FE0FF0EF0E78E3CE45
:100A10003CE1F0FFFFFFFFFFFFE0E7878FFCFEF107
:100A2000F9EE0F0EE0E0FE0E0FE0E0FE0E0FE0E04C
:100A3000FE0E0FE0E0F0F7CFFEF8EF0EF0FF0FF044
:100A4000FF0FF0FF0FF0F01F83FE78EF0FF07F072E
:100A5000F07F0F78F3FE1F80F78FFEF0EF0FF07F2F
:100A600007F07F0FF1EFFEFF8F00F00F00F00F0097
:100A7000F0001EF7FF70FF0FE0FE0FE0FF0F78F7AA
:100A8000FF1FF00F00F00F00F00F00F0E777FFDF1F
:100A90002F070381C0E07038003E3FB85F0FE3F8D6
:100AA000FC1F877F9F80080C0E0FFFF9C0E0703895
:100AB0001C0E0791F878F0FF0FF0FF0FF0FF0FF01A
:100AC000FF0F71F7FF3EF0F0F70F79E39E3DC1FC99
:100AD0001F80F80F00F00600F0E1EE1C39E78F1CD4
:100AE000F9C3BF787F7E07EFC0F8F00F1E01C3C0C7
:100AF000183000F8FBC78F783F80F803C03E03F83A
:100B00003DE3C7BC1EF0F70F79E39E3DC1FC1F819A
:100B1000F80F80F00F00E01E01C03C038078007FDA
:100B2000F7FE03C07C0780F01F01E03C07FFFFF0E9
:100B30000F1F3C38383838383870E0F0783838389B
:100B40003838383C1F0FFFFFFFFFFFFFFFFFC0E0FB
:100B5000F0383838383838381C0F1F3C38383838B7
:100B6000383838F0E07FFFFD10004620008C40014F
:100B7000188002310004620008C4001188002310AC
:100B8000004620008C3FFE1800003000006000008E
:100B9000C1FFC1821F83043F06087E0C10FC182190
:100BA000F82843F04887E08FFFFE00000100FF00B7
:100BB00032000100000102000007030030100400B1
:100BC000000008000202090000000A0000000C00FA
:100BD00000000D0000000F000000100000001100D8
:100BE00007001200000013000000FF00C800100002
:100BF000901611002702FF00320012001A00FF00B9
:100C000032001300001829002A00FF0032003000D3
:100C100000003100000032000000350006023600FE
:100C200008083700070038000102390000003C00C6
:100C300000003D00000020000000210000005000E6
:100C400000005100EF005200000053003F0160001F
:100C500000A7610003006A000000900010009200ED
:100C60000000930003009500001197000000980019
:100C70000000070033011F038600207E1B000000D8
:100C800000003E5B4F5B3E3E6B4F6B3E1C3E7C3E2E
:100C90001C183C7E3C181C577D571C1C5E7F5E1C3C
:100CA00000183C1800FFE7C3E7FF0018241800FFF6
:100CB000E7DBE7FF30483A060E2629792926407FF0
:100CC000050507407F05253F5A3CE73C5A7F3E1CFF
:100CD0001C08081C1C3E7F14227F22145F5F005FEB
:100CE0005F06097F017F006689956A6060606060C9
:100CF00094A2FFA29408047E040810207E2010080D
:100D0000082A1C08081C2A08081E101010100C1EA7
:100D10000C1E0C30383E3830060E3E0E0600000029
:100D2000000000005F00000007000700147F147F30
:100D300014242A7F2A12231308646236495620504D
:100D40000008070300001C2241000041221C002A69
:100D50001C7F1C2A08083E08080080703000080824
:100D6000080808000060600020100804023E514995
:100D7000453E00427F400072494949462141494D64
:100D8000331814127F1027454545393C4A494931EB
:100D900041211109073649494936464949291E006A
:100DA0000014000000403400000008142241141414
:100DB000141414004122140802015909063E415D31
:100DC000594E7C1211127C7F494949363E414141BE
:100DD000227F4141413E7F494949417F090909013B
:100DE0003E414151737F0808087F00417F41002048
:100DF00040413F017F081422417F404040407F0234
:100E00001C027F7F0408107F3E4141413E7F09095B
:100E100009063E4151215E7F091929462649494963
:100E20003203017F01033F4040403F1F2040201F0D
:100E30003F4038403F63140814630304780403619F
:100E400059494D43007F41414102040810200041AF
:100E500041417F040201020440404040400003073A
:100E6000080020545478407F28444438384444448F
:100E700028384444287F385454541800087E090206
:100E800018A4A49C787F0804047800447D400020C6
:100E900040403D007F1028440000417F40007C041A
:100EA0007804787C080404783844444438FC1824D6
:100EB000241818242418FC7C0804040848545454AA
:100EC0002404043F44243C4040207C1C2040201C3F
:100ED0003C4030403C44281028444C9090907C4446
:100EE00064544C4400083641000000770000004183
:100EF00036080002010204023C2623263C1EA1A162
:100F000061123A4040207A38545455592155557948
:100F10004122545478422155547840205455794008
:100F20000C1E527212395555555939545454593969
:100F3000555454580000457C410002457D42000153
:100F4000457C407D1211127DF0282528F07C5455F7
:100F500045002054547C547C0A097F493249494950
:100F6000323A4444443A324A4848303A4141217A7C
:100F70003A42402078009DA0A07D3D4242423D3D46
:100F80004040403D3C24FF2424487E4943662B2FAB
:100F9000FC2F2BFF0929F620C0887E09032054541A
:100FA00079410000447D413048484A32384040226F
:100FB0007A007A0A0A727D0D19317D2629292F2897
:100FC000262929292630484D4020380808080808D5
:100FD000080808382F10C8ACBA2F102834FA0000BF
:100FE0007B000008142A142222142A1408550055E4
:100FF0000055AA55AA55AAFF55FF55FF000000FF4E
:1010000000101010FF00141414FF001010FF00FF58
:101010001010F010F0141414FC001414F700FF006A
:1010200000FF00FF1414F404FC141417101F101018
:101030001F101F1414141F00101010F000000000E7
:101040001F101010101F10101010F010000000FFE3
:10105000101010101010101010FF10000000FF14DE
:101060000000FF00FF00001F10170000FC04F41434
:10107000141710171414F404F40000FF00F71414EC
:101080001414141414F700F7141414171410101F68
:10109000101F141414F4141010F010F000001F109E
:1010A0001F0000001F14000000FC140000F010F0EE
:1010B0001010FF10FF141414FF141010101F000064
:1010C0000000F010FFFFFFFFFFF0F0F0F0F0FFFF77
:1010D000FF0000000000FFFF0F0F0F0F0F38444408
:1010E0003844FC4A4A4A347E02020606027E027EE8
:1010F0000263554941633844443C04407E201E202D
:1011000006027E020299A5E7A5991C2A492A1C4CD1
:101110007201724C304A4D4D303048784830BC62D4
:101120005A463D3E494949007E0101017E2A2A2A4C
:101130002A2A44445F444440514A444040444A516E
:10114000400000FF0103E080FF000008086B6B080F
:101150003612362436060F090F0600001818000054
:10116000001010003040FF0101001F01011E001996
:101170001D1712003C3C3C3C000000000000000039
:1011800000240027002A0000000000230026002978
:101190000000000008000201000003040700000036
:1011A0000000000000010204081020408001020439
:1011B000081020010204081020000000002500286B
:1011C000002B0004040404040404040202020202CA
:1011D0000203030303030300882B792B11241FBE92
:1011E000CFEFD8E0DEBFCDBF24E0AAE0B2E001C07F
:1011F0001D92A53AB207E1F712E0A0E0B1E0ECE5FC
:10120000F7E602C005900D92AA30B107D9F718E0B1
:10121000CDEED8E004C02197FE010E948631CC3E7D
:10122000D107C9F70E9436240C94A1330C94000016
:1012300008950895FC016370658B848195812681F2
:101240003781613039F0633029F0918780873387A7
:1012500022870895318720879387828708952F9268
:101260003F924F925F926F927F928F929F92AF9236
:10127000BF92CF92DF92EF92FF920F931F93CF9383
:10128000DF93CDB7DEB76C970FB6F894DEBF0FBE15
:10129000CDBF9C8F8B8F1B012A0118870F83FE8285
:1012A000ED82CA82DC0158964D915C9159974115A7
:1012B000510509F0B2C018968D919C911997681745
:1012C00079070CF096C11A968D919C911B97481640
:1012D00059060CF08EC1AC2CB12CCB01B6E0CB9EE4
:1012E000800D911D1124181619060CF082C1C5013C
:1012F00033E0880F991F3A95E1F7840D951D181674
:1013000019060CF076C1AB8DBC8D57968C9181116E
:1013100003C0203B08F02F5FAB8DBC8DED91FC919D
:1013200011970680F781E02DCD012A8F09952A8D2E
:10133000B5E02B9F90011124610141011B82F9014D
:10134000E219F309FA87E9879201285F3F4F3C874A
:101350002B873B81353049F0E985FA85E80DF91D89
:10136000E358F34F4491498301C0198232011201BD
:10137000598150FF13C0AB8DBC8DED91FC91BA81AA
:10138000B13031F40084F185E02D2F81388519C00A
:101390000284F385E02DEF80F8841EC0ED81FE818C
:1013A0002F813885E217F307F1F0AB8DBC8DED91FD
:1013B000FC91BA81B13059F40084F185E02D2D8182
:1013C0003E81A301B4018B8D9C8D09950CC00284D4
:1013D000F385E02DED80FE8085019501A101B60128
:1013E0008B8D9C8D0995E981E695E983FFEF6F1A56
:1013F0007F0A2A0C3B1C2B853C856216730609F07C
:10140000B7CF3B813F5F3B834FEF841A940ACA0CEE
:10141000DB1C363009F09DCFCAC0FA013496949196
:10142000329765917491291BCB01B7E02B9F800DFA
:10143000911D1124FA01259134913A8B298BFC01DD
:1014400065907490FC01329634913D8331964491BD
:101450004B873296C490319614915A81523058F08D
:101460008C2C0C2C000C9908812F012E000C990B50
:101470009C838B8304C01C821B82812C912CAB8D9E
:10148000BC8DED91FC9111970680F781E02DCD0187
:101490000995BA81AB2EB12C8A9CC0018B9C900D12
:1014A0009A9C900D1124FC01E20DF31DF88BEF873F
:1014B0001982912C812CEC2DCC0CFF0B91012E0F5D
:1014C0003F1F3A87298761013D81C30ED11CA601C8
:1014D0004E0F5F1F5F8B4E8BC201810F911D17FD59
:1014E0009A95998F888F5B85851608F060C0882D46
:1014F00090E04B815C81480F591F4A9D90014B9DA4
:10150000300D5A9D300D1124D901A40DB51DBE8793
:10151000AD87C984DA842F843888B981E985BE1BF8
:10152000BB8B288D398D280F391F3D8B2C8B8B89D8
:101530008C0D2E893F89C216D30699F1877041F42C
:10154000C3010196E989FA89E60DF71D94903C01E3
:1015500097FE20C0AB8DBC8DED91FC91BA81B1306E
:1015600061F40084F185E02D2F8138854C895D89F7
:10157000B6018B8D9C8D09950DC00284F385E02DFD
:10158000EF80F884850195014D855E85B1018B8DD5
:101590009C8D0995990CEFEFCE1ADE0A2A0C3B1CA4
:1015A000C6CF39814D81340F398383949CCFAB8D65
:1015B000BC8DED91FC9111970288F389E02DCD014E
:1015C0006C960FB6F894DEBF0FBECDBFDF91CF9102
:1015D0001F910F91FF90EF90DF90CF90BF90AF9051
:1015E0009F908F907F906F905F904F903F902F9043
:1015F00009946C960FB6F894DEBF0FBECDBFDF9195
:10160000CF911F910F91FF90EF90DF90CF90BF90FF
:10161000AF909F908F907F906F905F904F903F9092
:101620002F900895AF92BF92CF92EF92FF920F93B7
:101630001F93CF93DF93EC01262F888D998D009710
:1016400009F042C06A3069F42C898E859F8538E0A4
:10165000239F800D911D11249F878E871D861C86D8
:10166000ACC06D3009F4A9C08E898823C1F03C89D3
:101670008C859D8546E0349F800D911D1124488501
:101680005985841795075CF01D861C868E859F857D
:10169000E8E03E9F800D911D11249F878E87EA8888
:1016A000FB88088919894E855F856C857D85CC8886
:1016B000CE010E942F092C898C859D85F6E02F9FF5
:1016C000800D911D112441C06A3079F41D861C865D
:1016D0002C89FC013696E4918E859F852E9F800D86
:1016E000911D11249F878E8768C06D3009F465C0F5
:1016F000AC014C5F5F4FFA013491631708F45DC091
:101700003196E491E61708F458C0FA014491362F57
:10171000341BFC013296A590B490F7E03F9FA00CDB
:10172000B11C1124F501329634913196E4913323A2
:1017300011F0E1110DC0F5013496E4912C898C85EE
:101740009D85E29F800D911D11249D878C8735C05A
:10175000F501359644915E89552311F16C89E32F8B
:10176000F0E0E40FF11D47FDFA956E9FD0016F9FE9
:10177000B00D11244C855D854A0F5B1FE885F98506
:101780004E175F076CF01D861C86FC013696E491AF
:101790008E859F856E9F800D911D11249F878E875A
:1017A000EA88FB88088919894E855F856C857D8567
:1017B000CC88CE010E942F09BECF81E090E0DF915E
:1017C000CF911F910F91FF90EF90CF90BF90AF906E
:1017D00008956F927F928F929F92AF92BF92CF9215
:1017E000DF92EF92FF920F931F93CF93DF93EC0161
:1017F0004B015A0169013801E881F9810680F781BE
:10180000E02D0995E881F9810684F785E02D8701AF
:101810009601A501B401CE010995E881F981A501E0
:10182000460D571D415051090684F785E02D96015C
:10183000B401CE010995E881F9810484F585E02D94
:101840009301A501B401CE010995E881F981C80C85
:10185000D91CB601615071090484F585E02D93010E
:10186000A501CE010995E881F9810288F389E02D6F
:10187000CE01DF91CF911F910F91FF90EF90DF90FC
:10188000CF90BF90AF909F908F907F906F90099472
:10189000CF92DF92EF92FF920F931F93CF93DF933C
:1018A00000D000D000D0CDB7DEB76C01DC01ED91E7
:1018B000FC916217730789F4041715072CF4942F11
:1018C000852FA801092F182F041B150B98012F5FD6
:1018D0003F4F008CF18DE02D12C04017510709F5E4
:1018E000261737072CF4962F872FB901292F382F69
:1018F000261B370B2F5F3F4F028CF38DE02D8701A6
:10190000C601099526960FB6F894DEBF0FBECDBF6F
:10191000DF91CF911F910F91FF90EF90DF90CF90CB
:1019200008950680F781E02D2D833E834B835C83F1
:1019300069837A830995D601ED91FC910088F1893C
:10194000E02D2D813E814B815C8169817A81C601C8
:101950000995D601ED91FC910288F389E02DC6012D
:1019600026960FB6F894DEBF0FBECDBFDF91CF91A4
:101970001F910F91FF90EF90DF90CF900994EF921D
:10198000FF920F931F93DC01ED91FC9111971A9632
:101990000D911C911B9718962D913C911997048CD1
:1019A000F58DE02D7B0140E050E060E070E00995AE
:1019B0001F910F91FF90EF900895AF92BF92CF9239
:1019C000DF92EF92FF920F931F93CF93DF93FC016F
:1019D000A38DB48D9C9187A189238C93A58DB68D01
:1019E0009C9180A589238C93828D8230B9F08111DE
:1019F00013C08BB183708BB985B18C7F85B9A78DEE
:101A0000B0A19C9181A589238C93A78DB0A19C91B5
:101A100085A1892B8C9309C0833039F48BB18370F5
:101A20008C628BB985B18C7F07C08BB1837080626B
:101A30008BB985B18C7F826085B9A78DB0A19C914F
:101A400081A589238C93A78DB0A19C9185A1892B19
:101A50008C93A58DB68D9C9184A1892B8C938BB191
:101A6000972F9C7FB92E8370892B8BB985B1A72FB7
:101A7000A370AA2E8C7F8A2B85B9C78DD0A198819F
:101A800081A589238883C78DD0A1988185A1892BC1
:101A900088838BB1C62FCC7F83708C2B8BB985B19B
:101AA000D62FD3708C7F8D2B85B9078D10A1D801CF
:101AB0009C9181A589238C93078D10A1D8019C91BD
:101AC00085A1892B8C932150310941095109690164
:101AD0007A0186E0F694E794D794C7948A95D1F773
:101AE000C601761348C1019708F465C060E1A78D6F
:101AF000B0A1CC9171A57C237C93A78DB0A1CC9192
:101B000075A17C2B7C93A78DB0A1CC9171A57C2372
:101B10007C93A78DB0A1CC9175A17C2B7C93A78DD4
:101B2000B0A1CC9171A57C237C93A78DB0A1CC9161
:101B300075A17C2B7C93A78DB0A1CC9171A57C2342
:101B40007C93A78DB0A1CC9175A17C2B7C93A78DA4
:101B5000B0A1CC9171A57C237C93A78DB0A1CC9131
:101B600075A17C2B7C93A78DB0A1CC9171A57C2312
:101B70007C93A78DB0A1CC9175A17C2B7C93A78D74
:101B8000B0A1CC9171A57C237C93A78DB0A1CC9101
:101B900075A17C2B7C93A78DB0A1CC9171A57C23E2
:101BA0007C93A78DB0A1CC9175A17C2B7C936150C7
:101BB00009F09DCF98CF2F732150C8F0A78DB0A109
:101BC0009C9181A589238C93A78DB0A19C9185A11F
:101BD000892B8C93A78DB0A19C9181A589238C938F
:101BE000A78DB0A19C9185A1892B8C93E5CFA38D66
:101BF000B48D9C9183A1892B8C93DF91CF911F9100
:101C00000F91FF90EF90DF90CF90BF90AF9008952D
:101C10006BB163706B296BB965B16C7F6A2965B96B
:101C2000078D10A1D801FC9061A56F216C93078DE1
:101C300010A1D801FC9065A16F296C936BB1637002
:101C40006C2B6BB965B16C7F6D2B65B9078D10A1DD
:101C5000D801FC9061A56F216C93078D10A1D8016C
:101C6000FC9065A16F296C936BB163706B296BB9A4
:101C700065B16C7F6A2965B9078D10A1D801FC9008
:101C800061A56F216C93078D10A1D801FC9065A10F
:101C90006F296C936BB163706C2B6BB965B16C7F02
:101CA0006D2B65B9078D10A1D801FC9061A56F213E
:101CB0006C93078D10A1D801FC9065A16F296C93DE
:101CC0006BB163706B296BB965B16C7F6A2965B9BB
:101CD000078D10A1D801FC9061A56F216C93078D31
:101CE00010A1D801FC9065A16F296C936BB1637052
:101CF0006C2B6BB965B16C7F6D2B65B9078D10A12D
:101D0000D801FC9061A56F216C93078D10A1D801BB
:101D1000FC9065A16F296C936BB163706B296BB9F3
:101D200065B16C7F6A2965B9078D10A1D801FC9057
:101D300061A56F216C93078D10A1D801FC9065A15E
:101D40006F296C936BB163706C2B6BB965B16C7F51
:101D50006D2B65B9078D10A1D801FC9061A56F218D
:101D60006C93078D10A1D801FC9065A16F296C932D
:101D7000715009F04DCF019710F070E149CF2F73EA
:101D8000215008F434CF8BB183708B298BB985B186
:101D90008C7F8A2985B9478D50A1DA019C9181A554
:101DA00089238C93478D50A1DA019C9185A1892BC1
:101DB0008C938BB183708C2B8BB985B18C7F8D2BE1
:101DC00085B9478D50A1DA019C9181A589238C9317
:101DD000478D50A1DA019C9185A1892B8C93D0CF9E
:101DE000CF93DF93EC01EB8DFC8D90818FA1892344
:101DF0008083288539852150310945E064E0CE0192
:101E00000E94EF142A853B852150310949E068E0A2
:101E1000CE010E94EF14EB8DFC8D90818BA1892B5C
:101E20008083DF91CF9108958F929F92AF92BF925E
:101E3000CF92DF92EF92FF920F931F93CF93DF9396
:101E4000EC017A016901EB8DFC8D30812FA12323F8
:101E500020832A8D21115EC02D89223089F0233004
:101E600021F1213081F52FEE30E0A901401B510B0B
:101E70005B0149018E189F08860164017B0113C034
:101E80002FEE30E0A9014C195D096901C61AD70A85
:101E90008FE391E09C01201B310B8C010E191F096F
:101EA000580146017901BA0110C02FE331E0A901C0
:101EB0004C195D095901A61AB70A47016801850145
:101EC000B7017A0102C05A014B01AB0160E570E035
:101ED000CE010E946515A60161E570E0CE010E9469
:101EE0006515A70162E570E0CE010E946515A801A5
:101EF00063E570E0CE010E946515A40160E270E028
:101F0000CE010E946515A50161E270E0CE010E943C
:101F1000651547C02130C1F49B0143E062E00E9497
:101F2000EF14970147E066E0CE010E94EF1496019E
:101F300045E064E0CE010E94EF14980149E068E0BA
:101F4000CE010E94EF142DC02250223050F5CB015B
:101F5000770FAA0BBB0BDC0199278827A601DD0CA4
:101F6000660B770B9A01AB01282B392B4A2B5B2B85
:101F70006AE2CE010E943F14C701FF0CAA0BBB0B03
:101F8000DC0199278827A801110F660B770B9A01AE
:101F9000AB01282B392B4A2B5B2B6BE2CE010E9425
:101FA0003F14EB8DFC8D90818BA1892B8083DF9179
:101FB000CF911F910F91FF90EF90DF90CF90BF9046
:101FC000AF909F908F9008958F929F92AF92BF9203
:101FD000CF92DF92EF92FF920F931F93CF93DF93F5
:101FE000EC014701121613060CF06BC01016110617
:101FF0000CF067C0A885B9856A177B070CF061C033
:10200000CA84DB844C155D050CF05BC05B01A20E3D
:10201000B31EC501019797FD54C07A01E00EF11E71
:10202000F7013197F7FD4DC077FF49C060E070E0E0
:1020300057FD02C0780102C040E050E08A179B07BC
:102040002CF0CD0101975D01A61AB70AEC15FD052C
:102050002CF0F60131977601E41AF50A8F019C0104
:10206000CE010E94140F9701D5010E9463319B019C
:10207000AC01B401CE010E94DD0C8A8D811110C02B
:102080000A851B85015011092885398521503109A0
:1020900040E050E060E070E0CE010E94140F11C0FB
:1020A000CE01DF91CF911F910F91FF90EF90DF90C4
:1020B000CF90BF90AF909F908F900C94F00E5901ED
:1020C000B7CFDF91CF911F910F91FF90EF90DF90ED
:1020D000CF90BF90AF909F908F900895CF92DF9256
:1020E000EF92FF920F931F93CF93DF93EC01680160
:1020F000121613060CF04FC077FD4DC088859985E8
:10210000681779070CF047C0EA85FB854E175F0713
:102110000CF041C07A01E20EF31E87010150110953
:1021200017FD39C057FF35C040E050E00E171F07BC
:1021300034F08F01015011097F01E41AF50A9B0167
:10214000CE010E94140F9701FF0C440B550BB601F2
:10215000CE010E94DD0C8A8D811110C00A851B857D
:1021600001501109288539852150310940E050E09E
:1021700060E070E0CE010E94140F0DC0CE01DF912F
:10218000CF911F910F91FF90EF90DF90CF900C9423
:10219000F00E7901CBCFDF91CF911F910F91FF907E
:1021A000EF90DF90CF900895CF92DF92EF92FF9261
:1021B0000F931F93CF93DF93EC0168011216130660
:1021C0000CF04EC057FD4CC08A859B8548175907B7
:1021D0000CF046C0E885F9856E177F070CF040C00B
:1021E0007B01E20EF31EC701019797FD39C077FF0F
:1021F00035C060E070E08E179F072CF0CF0101978B
:102200007F01E61AF70A8A019C01CE010E94140F91
:102210009701FF0C440B550BB601CE010E94DD0C5B
:102220008A8D811110C00A851B85015011092885EE
:1022300039852150310940E050E060E070E0CE0186
:102240000E94140F0DC0CE01DF91CF911F910F910D
:10225000FF90EF90DF90CF900C94F00E7901CBCFF0
:10226000DF91CF911F910F91FF90EF90DF90CF9072
:102270000895FC01918D828D981761F0828DDF01A8
:10228000A80FB11D5D968C91928D9F5F9F73928F69
:1022900090E008958FEF9FEF0895FC01918D828D5E
:1022A000981731F0828DE80FF11D858D90E008952B
:1022B0008FEF9FEF0895FC01918D228D892F90E083
:1022C000805C9F4F821B91098F739927089584ED3D
:1022D00092E00E945B1121E0892B09F420E0822F1B
:1022E0000895FC01848DDF01A80FB11DA35ABF4FD3
:1022F0002C91848D90E001968F739927848FA68905
:10230000B7892C93A089B1898C9180648C93938D2B
:10231000848D981306C00288F389E02D80818F7D1B
:1023200080830895EF92FF920F931F93CF93DF93D3
:10233000EC0181E0888F9B8D8C8D981305C0E88916
:10234000F989808185FD24C0F62E0B8D10E00F5F8A
:102350001F4F0F731127E02E8C8DE8120CC00FB6A3
:1023600007FCFACFE889F989808185FFF5CFCE0196
:102370000E947111F1CF8B8DFE01E80FF11DE35A20
:10238000FF4FF0820B8FEA89FB898081806207C052
:10239000EE89FF896083E889F98980818064808380
:1023A00081E090E0DF91CF911F910F91FF90EF902E
:1023B0000895CF93DF93EC01888D8823C9F0EA89D3
:1023C000FB89808185FD05C0A889B9898C9186FD2E
:1023D0000FC00FB607FCF5CF808185FFF2CFA8892B
:1023E000B9898C9185FFEDCFCE010E947111E7CFA5
:1023F000DF91CF91089580E090E0892B29F00E9431
:10240000671181110C94000008953FB7F8948091F2
:10241000590290915A02A0915B02B0915C0226B5DC
:10242000A89B05C02F3F19F00196A11DB11D3FBF0C
:10243000BA2FA92F982F8827820F911DA11DB11D9A
:10244000BC01CD0142E0660F771F881F991F4A9596
:10245000D1F708950895FC01A58DB68D9C9180A5B6
:1024600089238C938BB1962F9C7F8370892B8BB99A
:1024700085B163708C7F682B65B9A78DB0A19C91E5
:1024800081A589238C93A78DB0A19C9185A1892BCF
:102490008C93A58DB68D9C9184A1892B8C938BB147
:1024A000942F9C7F8370892B8BB985B143708C7F6F
:1024B000482B45B9A78DB0A19C9181A589238C9308
:1024C000A78DB0A19C9185A1892B8C9308950E9422
:1024D00083331F920F920FB60F9211242F933F93C5
:1024E0004F935F936F937F938F939F93AF93BF931C
:1024F000EF93FF9384ED92E00E947111FF91EF91B1
:10250000BF91AF919F918F917F916F915F914F910B
:102510003F912F910F900FBE0F901F9018951F9213
:102520000F920FB60F9211242F938F939F93EF93D7
:10253000FF93E091E402F091E5028081E091EA02EC
:10254000F091EB0282FD12C090818091ED028F5FCD
:102550008F732091EE02821751F0E091ED02F0E0CE
:10256000EC52FD4F958F8093ED0201C08081FF9169
:10257000EF919F918F912F910F900FBE0F901F9011
:102580001895833081F028F4813099F08230A1F0E1
:1025900008958730A9F08830B9F08430D1F4809163
:1025A00080008F7D03C0809180008F7780938000B2
:1025B000089584B58F7702C084B58F7D84BD08955A
:1025C0008091B0008F7703C08091B0008F7D8093A1
:1025D000B00008951F93CF93DF93282F30E0F901C7
:1025E000EF56FE4E8491F901EB55FE4ED491F90160
:1025F000ED53FE4EC491CC23C9F0162F81110E94D9
:10260000C112EC2FF0E0EE0FFF1FE754FE4EA59134
:10261000B4918FB7F894111105C09C91ED2FE095FE
:10262000E92302C0EC91ED2BEC938FBFDF91CF91AA
:102630001F910895CF93DF9390E0FC01EB55FE4E80
:102640002491FC01ED53FE4E8491882361F190E0CA
:10265000880F991FFC01E358FE4EC591D491FC01EF
:10266000E754FE4EA591B491611109C09FB7F8944B
:102670008881209582238883EC912E230BC06230C1
:1026800061F49FB7F8943881822F809583238883E3
:10269000EC912E2B2C939FBF06C08FB7F894E88146
:1026A0002E2B28838FBFDF91CF9108958E3008F0B5
:1026B0008E508770806480937C0080917A00806463
:1026C00080937A0080917A0086FDFCCF809178001B
:1026D0002091790090E0922B08958F929F92AF9273
:1026E000BF92CF92DF92EF92FF926B017C010E942A
:1026F00005124B015C01C114D104E104F104F1F0B5
:102700000E940512DC01CB0188199909AA09BB09AD
:10271000883E9340A105B10570F321E0C21AD108AB
:10272000E108F10888EE880E83E0981EA11CB11C18
:10273000C114D104E104F10419F7DDCFFF90EF904B
:10274000DF90CF90BF90AF909F908F9008951F9291
:102750000F920FB60F9211242F933F938F939F9355
:10276000AF93BF9380910A0290910B02A0910C024B
:10277000B0910D023091580223E0230F2D3720F441
:102780000196A11DB11D05C026E8230F0296A11DCB
:10279000B11D2093580280930A0290930B02A093DC
:1027A0000C02B0930D028091590290915A02A091AF
:1027B0005B02B0915C020196A11DB11D809359028C
:1027C00090935A02A0935B02B0935C02BF91AF91C9
:1027D0009F918F913F912F910F900FBE0F901F905F
:1027E00018951F920F920FB60F9211242F933F93BB
:1027F0004F935F936F937F938F939F93AF93BF9309
:10280000EF93FF93E0912201F09123010995FF914D
:10281000EF91BF91AF919F918F917F916F915F9158
:102820004F913F912F910F900FBE0F901F901895D1
:102830001F920F920FB60F9211242F933F934F9335
:102840005F936F937F938F939F93AF93BF93EF9318
:10285000FF93E0912001F09121010995FF91EF9103
:10286000BF91AF919F918F917F916F915F914F91A8
:102870003F912F910F900FBE0F901F901895CF9200
:10288000DF92EF92FF92FC01A38DB48D9C9187A102
:1028900089238C93A58DB68D9C9180A589238C93DB
:1028A0008BB1962F9C7F8370892B8BB985B1637018
:1028B0008C7F682B65B9A78DB0A19C9181A58923D8
:1028C0008C93A78DB0A19C9185A1892B8C93A58D0C
:1028D000B68D9C9184A1892B8C9383E290E0DC01DE
:1028E0001197F1F77BB1C52EDD24EE24FF246C2D6A
:1028F0006C7F7370762B7BB965B17C2D73706C7FA8
:10290000672B65B9A78DB0A17C9161A567236C93F6
:10291000A78DB0A17C9165A1672B6C93DC01119709
:10292000F1F77BB16A01EE24FF246C2D6C7F73708C
:10293000762B7BB965B17C2D73706C7F672B65B985
:10294000A78DB0A17C9161A567236C93A78DB0A1E1
:102950007C9165A1672B6C93DC011197F1F77BB13A
:10296000C32ED42EE52EFF246C2D6C7F7370762B36
:102970007BB965B17C2D73706C7F672B65B9A78DB2
:10298000B0A17C9161A567236C93A78DB0A17C91C8
:1029900065A1672B6C930197F1F78BB1922F9C7F08
:1029A0008370892B8BB985B123708C7F282B25B937
:1029B000A78DB0A19C9181A589238C93A78DB0A1EF
:1029C0009C9185A1892B8C93A38DB48D9C9183A11F
:1029D000892B8C93FF90EF90DF90CF900895FC01AE
:1029E000A58DB68D9C9180A589238C938BB1962F54
:1029F0009C7F8370892B8BB985B163708C7F682B2A
:102A000065B9A78DB0A19C9181A589238C93A78DD1
:102A1000B0A19C9185A1892B8C93A58DB68D9C919D
:102A200084A1892B8C938BB1932F9C7F8370892BEE
:102A30008BB985B133708C7F382B35B9A78DB0A198
:102A40009C9181A589238C93A78DB0A19C9185A190
:102A5000892B8C93A58DB68D9C9180A589238C9311
:102A60008BB1942F9C7F8370892B8BB985B1437078
:102A70008C7F482B45B9A78DB0A19C9181A5892356
:102A80008C93A78DB0A19C9185A1892B8C93A58D4A
:102A9000B68D9C9184A1892B8C938BB1922F9C7FB6
:102AA0008370892B8BB985B123708C7F282B25B936
:102AB000A78DB0A19C9181A589238C93A78DB0A1EE
:102AC0009C9185A1892B8C930895FC01A58DB68DD1
:102AD0009C9180A589238C938BB1972F9C7F8370C9
:102AE000892B8BB985B173708C7F782B75B9A78DC5
:102AF000B0A19C9181A589238C93A78DB0A19C91B5
:102B000085A1892B8C938BB1962F9C7F8370892B09
:102B10008BB985B163708C7F682B65B9A78DB0A127
:102B20009C9181A589238C93A78DB0A19C9185A1AF
:102B3000892B8C93A58DB68D9C9184A1892B8C9328
:102B40008BB1952F9C7F8370892B8BB985B1537086
:102B50008C7F582B55B9A78DB0A19C9181A5892355
:102B60008C93A78DB0A19C9185A1892B8C938BB15F
:102B7000942F9C7F8370892B8BB985B143708C7F98
:102B8000482B45B9A78DB0A19C9181A589238C9331
:102B9000A78DB0A19C9185A1892B8C930895EF926C
:102BA000FF920F931F93CF93DF93EC010E941A09BA
:102BB000EB8DFC8D90818FA1892380838A8D81117B
:102BC00022C0ED89E150E33040F4F0E0EE0FFF1F4A
:102BD000E95BFE4F4081518102C040E350E163E078
:102BE00070E0CE010E9465150A851B850150110910
:102BF000288539852150310940E050E060E070E0DF
:102C0000CE010E94140F8A8D813089F4ED89E15044
:102C1000E33028F4F0E0EC5BFE4F408101C040E07F
:102C200066E1CE010E942B12CE010E94F00E8A8D29
:102C3000823039F58D89813071F050F0823029F081
:102C4000833059F458E2E52E08C068E4E62E05C04A
:102C500048E8E42E02C038EEE32E4E2D66E3CE01A6
:102C60000E942B120A851B85015011092885398580
:102C70002150310940E050E060E070E0CE010E9458
:102C8000140F8A8D833031F58D89813069F048F0D9
:102C9000823029F0833051F420E6F22E07C0F12C67
:102CA00005C090ECF92E02C080EAF82E4F2D66E3A5
:102CB000CE010E942B120A851B850150110928851F
:102CC00039852150310940E050E060E070E0CE01EC
:102CD0000E94140FDF91CF911F910F91FF90EF9001
:102CE0000895AF92BF92CF92DF92EF92FF920F932F
:102CF0001F93CF93DF93EC017B016A01B22EA32EC9
:102D000077FD1BC157FD19C188859985681779071B
:102D10000CF013C18A859B85481759070CF00DC12B
:102D2000EB8DFC8D90818FA1892380838A8D811109
:102D300035C08D89823059F08330B1F08130D1F4C3
:102D40008FEE90E0841B950B6B017C0113C08FEE1E
:102D500090E09C01261B370B79018FE391E09C01E9
:102D6000241B350B690106C08FE391E0861B970B8E
:102D70007A016C01A70160E270E0CE010E94651546
:102D8000A60161E270E0CE010E9465154B2D5A2D1F
:102D900062E270E0CE010E946515C9C0813009F081
:102DA00060C0ED89E150E33028F4F0E0EF5BFE4FC6
:102DB000408101C040E066E1CE010E942B129701E4
:102DC00043E062E0CE010E94EF14960147E066E026
:102DD000CE010E94EF14ED8DFE8D908188A5892390
:102DE00080838BB1837080628BB985B18C7F826068
:102DF00085B9EF8DF8A1908189A589238083EF8D16
:102E0000F8A190818DA1892B8083ED8DFE8D90811D
:102E10008CA1892B80838BB19A2D9C7F8370892B09
:102E20008BB985B19A2D93708C7FA92EA82AA5B84D
:102E3000EF8DF8A1908189A589238083EF8DF8A17A
:102E400090818DA1892B80838BB19B2D9C7F83707A
:102E5000892B8BB985B19B2D93708C7FB92EB82AA5
:102E600059C08250823008F062C00A851B8501502B
:102E700011092885398521503109CE010E94140F8E
:102E8000EB8DFC8D90818FA189238083ED8DFE8D4C
:102E9000908188A5892380838BB183708C628BB9E4
:102EA00085B18C7F85B9EF8DF8A1908189A58923A3
:102EB0008083EF8DF8A190818DA1892B8083ED8D8A
:102EC000FE8D90818CA1892B80838BB19A2D9C7F64
:102ED0008370892B8BB995B18A2D83709C7FA82E26
:102EE000A92AA5B8EF8DF8A1908189A589238083AF
:102EF000EF8DF8A190818DA1892B80838BB19B2DC3
:102F00009C7F8370892B8BB995B18B2D83709C7FAF
:102F1000B82EB92AB5B8EF8DF8A1908189A589237B
:102F20008083EF8DF8A190818DA1892B8083EB8D1B
:102F3000FC8D90818BA1892B8083DF91CF911F9194
:102F40000F91FF90EF90DF90CF90BF90AF900895DA
:102F5000EF92FF920F931F93CF93DF93EC017B01CE
:102F60008A8D811129C02D892150233078F430E0D9
:102F7000F901E25CFE4F8081482F50E0220F331FA1
:102F8000F901E85CFE4F0081118104C000E010E00F
:102F900040E050E0EB8DFC8D30812FA12323208376
:102FA00060E270E0CE010E946515A80161E270E068
:102FB000CE010E94651512C08150833078F40A85D5
:102FC0001B8501501109288539852150310940E0C0
:102FD00050E060E070E0CE010E94140F20E03CE27F
:102FE00041E050E0B701CE01DF91CF911F910F91E9
:102FF000FF90EF900C94DD0C4F925F926F927F9256
:103000008F929F92AF92BF92CF92DF92EF92FF92F8
:103010000F931F93CF93DF9300D0CDB7DEB76C0132
:103020005A0139014801DC01ED91FC910680F781DC
:10303000E02D69837A8309956981462E7A81572E1E
:10304000640C751CD601ED91FC91461457046CF488
:103050000484F585E02D87019401A501B201C60124
:103060000995BFEF4B1A5B0AEDCF0288F389E02D7B
:10307000C6010F900F90DF91CF911F910F91FF909C
:10308000EF90DF90CF90BF90AF909F908F907F9008
:103090006F905F904F900994AF92BF92CF92DF9262
:1030A000EF92FF920F931F93CF93DF9300D000D046
:1030B000CDB7DEB75C016901DC01ED91FC910680C2
:1030C000F781E02D4B835C8369837A830995D50171
:1030D000ED91FC9169817A819B012C0D3D1D215060
:1030E00031090088F189E02D78014B815C818A01EA
:1030F000C5010995D501ED91FC910288F389E02D78
:10310000C5010F900F900F900F90DF91CF911F91FD
:103110000F91FF90EF90DF90CF90BF90AF90099408
:10312000AF92BF92CF92DF92EF92FF920F931F93D5
:10313000CF93DF9300D000D0CDB7DEB75C0169013B
:10314000DC01ED91FC910680F781E02D4B835C83DF
:1031500069837A830995D501ED91FC914B815C815E
:10316000C40ED51EB1E0CB1AD1080088F189E02D3C
:103170007801860169817A819B01C5010995D50194
:10318000ED91FC910288F389E02DC5010F900F901D
:103190000F900F90DF91CF911F910F91FF90EF90C3
:1031A000DF90CF90BF90AF9009940895EF92FF9277
:1031B0000F931F93DC01ED91FC91048CF58DE02DB4
:1031C00009951F910F91FF90EF9008950F931F9312
:1031D000DC01ED91FC91028CF38DE02D09951F919E
:1031E0000F9108950F931F93DC01ED91FC91008CDA
:1031F000F18DE02D09951F910F910895DC01ED915E
:10320000FC910480F581E02D099408952F923F925E
:103210004F925F926F927F928F929F92AF92BF92E6
:10322000CF92DF92EF92FF920F931F93CF93DF9392
:1032300000D01F92CDB7DEB74C017B836A836A0151
:10324000590117019801241B350B37FF03C0319535
:1032500021953109C5014A815B81841B950B97FF3C
:1032600003C091958195910951E059838217930785
:1032700014F019820BC09A2D8B2D5801092F182F8D
:103280009A818B81DB82CA82C92ED82E8A819B814A
:10329000A816B9065CF49C2D8D2D6801092F182FF6
:1032A0009A818B81BB82AA82A92EB82E2501AA8180
:1032B000BB814A1A5B0A38016C187D0877FE03C08F
:1032C000719461947108720157FE03C0BFEFEB1A4D
:1032D000FB0AF594E794C016D1061CF00FEF1FEF20
:1032E0001FC001E010E01CC0D401ED91FC91B98138
:1032F0000084F185E02D9101BB23C1F04A815B81FF
:10330000B601C4010995E618F708F7FE04C0C00E1F
:10331000D11EE40CF51CEA81FB813196FB83EA8324
:103320004A815B81A416B506FCF604C0A6016A8139
:103330007B81E7CF0F900F900F90DF91CF911F917E
:103340000F91FF90EF90DF90CF90BF90AF909F9044
:103350008F907F906F905F904F903F902F90089547
:1033600085ED8093BC008091BC0084FDFCCF109261
:10337000AC02089540918602262F30E0240F311DC3
:1033800021323105DCF42091AC022430C9F4FC0177
:1033900080E090E0861758F4309186022191DC019C
:1033A000AC59BD4FA30FB11D2C930196F3CF809163
:1033B0008602680F6093860280E0089581E0089598
:1033C00082E0089508958FEF9FEF08958FEF9FEFAC
:1033D00008958091630290E09195819591090895F7
:1033E000CF93DF9300D0CDB7DEB7CB01642F4983F5
:1033F0005A830E94BA194981842F5A81952F0F90C0
:103400000F90DF91CF910895CF93DF931F92CDB7A7
:10341000DEB7698361E0CE0101960E94BA1981E0AE
:1034200090E00F90DF91CF9108951F920F920FB609
:103430000F9211240F900FBE0F901F9018951F929E
:103440000F920FB60F9211242F933F934F935F93D8
:103450006F937F938F939F93AF93BF93EF93FF935C
:103460008091B900887F803609F49CC068F5883265
:1034700009F45BC090F4803109F454C038F4882317
:1034800009F4F6C0883009F44DC0F6C0883109F45B
:103490004CC0803209F45DC0EFC0803409F468C0CC
:1034A00048F4803309F455C0883309F0E5C08093AF
:1034B000AB02D8C0803509F44FC0883509F45DC02F
:1034C000883409F0D9C0D6C0883909F4C7C0A8F437
:1034D000883709F467C038F4883609F463C0803748
:1034E00009F460C0C9C0883809F4B8C0803909F44B
:1034F0005FC0803809F0C0C05BC0803B09F486C063
:1035000038F4803A09F466C0883A09F47FC0B4C040
:10351000803C09F4A7C0883C09F4A4C0883B09F4A6
:103520008AC0AAC08091D10210C09091D00280912F
:10353000CF02981770F5E091D00281E08E0F809352
:10354000D002F0E0E155FD4F80818093BB0085EC17
:1035500086C08093AB028EC0E091D00281E08E0FD6
:103560008093D0028091BB00F0E0E155FD4F808355
:103570009091D0028091CF026EC0E091D00281E0A4
:103580008E0F8093D0028091BB00F0E0E155FD4F9B
:1035900080838091AE0281116DC081E08093AD0285
:1035A00084EA61C083E08093AC021092AA02CFCF7C
:1035B0008091AA02803208F051C0E091AA0281E015
:1035C0008E0F8093AA028091BB00F0E0E657FD4F7A
:1035D0008083BDCF85EC8093BC001092AC028091BB
:1035E000AA02803230F4E091AA02F0E0E657FD4FE3
:1035F00010826091AA0270E0E0918802F091890245
:103600008AE892E009951092AA0236C084E080937D
:10361000AC021092870210928602E0918402F0912F
:103620008502099580918602811105C081E0809311
:10363000860210926402E091870281E08E0F8093EF
:103640008702F0E0EC59FD4F80818093BB009091A0
:10365000870280918602981708F479CF85E88093D5
:10366000BC000AC085EC8093BC001092AC0204C080
:103670001092AB020E94B019FF91EF91BF91AF91F0
:103680009F918F917F916F915F914F913F912F917A
:103690000F900FBE0F901F901895AF92BF92CF92D0
:1036A000DF92EF92FF920F931F93CF93DF93CDB7EB
:1036B000DEB76E970FB6F894DEBF0FBECDBF00E049
:1036C00011E080E1A82E82E0B82E90E3C92E92E0AE
:1036D000D92E2DEFE22E23E0F22EF80161917191A7
:1036E0008F014AE0CE0149960E94BA23F50161910B
:1036F00071915F014AE0CE0143960E94BA23F60120
:10370000619171916F014AE0CE010D960E94BA233A
:10371000B701CE0107960E94F22362EC71E0CE0160
:1037200001960E940C24BE01695F7F4FCE01019675
:103730000E9481236AEC71E00E94D622BE01635F81
:103740007F4F0E94812360ED71E00E94D622BE016E
:103750006D5E7F4F0E94812366ED71E00E94D6224C
:10376000BE01675E7F4F0E9481230E94FA21CE0135
:1037700001960E94B523CE0107960E94B523CE0183
:103780000D960E94B523CE0143960E94B523CE012B
:1037900049960E94B523F6E0EF0EF11C81E000325D
:1037A000180709F09ACF6E960FB6F894DEBF0FBED9
:1037B000CDBFDF91CF911F910F91FF90EF90DF90E0
:1037C000CF90BF90AF9008958F929F92AF92BF928B
:1037D000CF92DF92EF92FF920F931F93CF93DF93DD
:1037E0005C016B01FC01848095803DEFE32E33E0AA
:1037F000F32E00E010E0CFEFDFEFF7018481958139
:103800008815990539F4B501C7010E94A622892BB4
:1038100009F4E8010F5F1F4FF6E0EF0EF11C0031D5
:10382000110559F782E0C816D10461F0E3E0CE1625
:10383000D10469F0CA94CD2889F4CC0FDD1FC05D96
:10384000DD4F09C0CC0FDD1FC05FDD4F04C0CC0FC2
:10385000DD1FC050DF4F8881998101C0CE01DF910B
:10386000CF911F910F91FF90EF90DF90CF90BF907D
:10387000AF909F908F9008955F926F927F928F92FA
:103880009F92AF92BF92CF92DF92EF92FF920F93EF
:103890001F93CF93DF938C015B016A017901FC01D7
:1038A00084809580612C712CCFEFDFEF46E0542EA1
:1038B000569CC001579C900D112483509C4FFC01D5
:1038C000248135812815390549F4B8010E94A622C2
:1038D000892B21F4E30130E1632E712CFFEF6F1A85
:1038E0007F0A80E1681671041CF3CE01880F991FCE
:1038F000FC01E05DFD4FB182A082FC01E05FFD4F65
:10390000D182C082FC01E050FF4FF182E082DF9162
:10391000CF911F910F91FF90EF90DF90CF90BF90CC
:10392000AF909F908F907F906F905F9008950F93CE
:103930001F93CF93DF93EC018EE091E00E94722100
:10394000CE0168E671E00E944F31EC01C25FDE4FAC
:10395000CE010E947221C83681E0D80714F0C85603
:10396000D140CE010E947221CE01DF91CF911F91F3
:103970000F910895AF92BF92CF92DF92EF92FF9294
:103980000F931F93CF93DF9300D000D0CDB7DEB756
:103990008C015B01BA01550F880B990B0E94442ED4
:1039A0002BED3FE049E450E40E947F2E20E030E020
:1039B00044E353E40E9417300E94FE309B01AC01A7
:1039C000B801110F880B990B29833A834B835C83D1
:1039D0000E94442E6B017C01B501BB0C880B990B36
:1039E0000E94442E29813A814B815C810E947F2E66
:1039F0009B01AC01C701B6010E94A62F0E9489302D
:103A0000CB010F900F900F900F90DF91CF911F91EE
:103A10000F91FF90EF90DF90CF90BF90AF900895FF
:103A2000AF92BF92CF92DF92EF92FF920F931F93CC
:103A3000CF93DF9300D000D0CDB7DEB78C015B0110
:103A4000BA01550F880B990B0E94442E2BED3FE0D5
:103A500049E450E40E947F2E20E030E044E353E448
:103A60000E9417300E9412309B01AC01B801110F67
:103A7000880B990B29833A834B835C830E94442EE5
:103A80006B017C01B501BB0C880B990B0E94442E85
:103A900029813A814B815C810E947F2E9B01AC0180
:103AA000C701B6010E94A62F0E948930CB010F905A
:103AB0000F900F900F90DF91CF911F910F91FF907A
:103AC000EF90DF90CF90BF90AF9008954F925F92AC
:103AD0006F927F928F929F92AF92BF92CF92DF921E
:103AE000EF92FF920F931F93CF93DF9300D000D0FC
:103AF00000D0CDB7DEB73C01209167043091680457
:103B0000C901859797FD0396959587959595879516
:103B100090930F0280930E0210927204109271041F
:103B20001092700410926F043DEFA32E33E0B32E79
:103B3000812C912C4EE0C42ED12C59E0452E512CD5
:103B400020910E0230910F026814790429F498E153
:103B5000E92E96ECF92E04C08FEEE82E8BE7F82EB6
:103B600004E110E046E050E0B6018FE594E00E94E9
:103B7000E40FB501CE0101960E94F22321E030E06E
:103B800046E050E0B601CE0101960E943C1CCE01F9
:103B900001960E94B523C601029690936C0480930F
:103BA0006B0450926E0440926D04F501448155817E
:103BB000608171818FE594E00E94EF22809177040B
:103BC00090917804892B49F080916D0490916E0456
:103BD000069790936E0480936D041092780410926F
:103BE0007704FFEF8F1A9F0A84E08816910469F02A
:103BF00080910E0290910F02C80ED91E83E0C80E6C
:103C0000D11CE6E0AE0EB11C9BCF26960FB6F89401
:103C1000DEBF0FBECDBFDF91CF911F910F91FF90FF
:103C2000EF90DF90CF90BF90AF909F908F907F905C
:103C30006F905F904F9008952F923F924F925F92B6
:103C40006F927F928F929F92AF92BF92CF92DF92AC
:103C5000EF92FF920F931F93CF93DF934C016B0171
:103C60005A01E90127016090FB037090FC03AC014D
:103C7000B501C3010E94101D1C01E090F703F090F4
:103C8000F803A401B501C7010E94BA1C5C01A6019A
:103C9000BE01C3010E94101D4C01A601BE01C70157
:103CA0000E94BA1C800F911FA501400F511F720185
:103CB0008C019401B1018FE594E00E94480CDF91E2
:103CC000CF911F910F91FF90EF90DF90CF90BF9019
:103CD000AF909F908F907F906F905F904F903F90AC
:103CE0002F9008958F929F92AF92BF92CF92DF92C2
:103CF000EF92FF920F931F93CF93DF93C1E08091D8
:103D0000500290915102029709F4C0E0D0E04E01B8
:103D1000880C991CA12CB12CF501E80DF91DE65D6C
:103D2000FE4F60817181072E000C880B990B0E9459
:103D3000442E20E030E048E455E40E94173020E0B3
:103D400030E044EB53E40E947F2E0E948930CB0187
:103D50000E94971C6C0180E1E82E84E8F82E04E0B4
:103D600010E025E530E04CE350E0B601C6010E94CA
:103D70001C1E0CEF1FEF25E530E04CE350E0B601D0
:103D8000C6010E941C1E219682E0A80EB11CC730FD
:103D9000D10514F2DF91CF911F910F91FF90EF9019
:103DA000DF90CF90BF90AF909F908F9008956091DB
:103DB000F7037091F80320E134E84CE350E0809180
:103DC000FB039091FC030E94AF1F6091F703709179
:103DD000F80320E030E048E350E08091FB0390914D
:103DE000FC030C94AF1F2F923F924F925F926F9201
:103DF0007F928F929F92AF92BF92CF92DF92EF927B
:103E0000FF920F931F93CF93DF9300D000D000D089
:103E1000CDB7DEB75C014B015E834D83280181E0A5
:103E200090E03C01641A750ACA0191958195910947
:103E3000AC01440F551F5A8349831801CC24C39405
:103E4000D12C522F51705B8322702C83C6010197B5
:103E50002D813E81821793070CF068C077FC0CC05F
:103E60008D819E8101979E838D83E981FA813296AF
:103E7000FA83E9836E0E7F1EC601880F991F019693
:103E8000680E791EFB81FF2319F12D813E81220FDF
:103E9000331F2F5F3F4F240D351D8701A4018D81F6
:103EA0009E81481B590BB6016A0D7B1D8FE594E07E
:103EB0000E94F21891012D5F3F4FA4014C195D093A
:103EC0006D817E816A0D7B1D8FE594E00E94F21862
:103ED0009C81992321F12D813E81220F331F2F5F79
:103EE0003F4F240D351D8701A401ED81FE814E1B3E
:103EF0005F0BB5016C197D098FE594E00E94F21803
:103F000091012D5F3F4FA4014C195D09B5018D81D1
:103F10009E81681B790B8FE594E00E94F2189FEF59
:103F2000C91AD90AE2E02E0E311C90CF26960FB6A0
:103F3000F894DEBF0FBECDBFDF91CF911F910F91DF
:103F4000FF90EF90DF90CF90BF90AF909F908F90B9
:103F50007F906F905F904F903F902F900895AF9219
:103F6000BF92CF92DF92EF92FF920F931F93CF9366
:103F7000DF936C015B01EA0179019A01220F331F83
:103F80002F5F3F4FAB014C1B5D0B8701B6018FE5E7
:103F900094E00E94F21800E010E023E0AE01B501C9
:103FA000C6010E94F31EDF91CF911F910F91FF90E8
:103FB000EF90DF90CF90BF90AF9008952F923F92F7
:103FC0004F925F926F927F928F929F92AF92BF9229
:103FD000CF92DF92EF92FF920F931F93CF93DF93D5
:103FE00000D000D0CDB7DEB72C015B011A0139013A
:103FF000680188279927801B910B9C01220F331F92
:104000003C832B83C201800F911F9A838983240FE5
:10401000351F8301AB01BC018FE594E00E94D618E7
:10402000EB81FC816E0E7F1EF1E06F1A7108AC0C03
:10403000BD1C420C531CC2018C199D09830121E057
:10404000A601B50101970E94F31E22E0A601B50169
:1040500089819A810E94F31E0F900F900F900F900C
:10406000DF91CF911F910F91FF90EF90DF90CF9054
:10407000BF90AF909F908F907F906F905F904F9088
:104080003F902F9008952F923F924F925F926F92A0
:104090007F928F929F92AF92BF92CF92DF92EF92D8
:1040A000FF920F931F93CF93DF9300D000D000D0E7
:1040B000CDB7DEB77C016B015E834D83890181E062
:1040C00090E03C01641A750ACA01919581959109A5
:1040D0009C01220F331F3A832983460F571F9801F3
:1040E000B7018FE594E00E94FE18A6018D819E81A4
:1040F000481B590B9801B7018FE594E00E94FE1808
:104100006D817E816E0D7F1D9801A6018FE594E083
:104110000E94FE18B701ED81FE816E1B7F0B980196
:10412000A6018FE594E00E94FE18A12CB12C21E09D
:1041300030E03C832B832D813E81A216B3060CF028
:1041400070C077FC0CC08D819E8101979E838D830A
:10415000E981FA813296FA83E9836E0E7F1EFFEFC2
:10416000AF1ABF0A2B813C812E5F3F4F3C832B83CC
:10417000620E731E25014E0C5F1C98018D809E807F
:104180008C0C9D1CA401B2018FE594E00E94FE18E6
:1041900017012A183B089801A401B1018FE594E0AA
:1041A0000E94FE18980146018D819E81881A990A05
:1041B000A401B2018FE594E00E94FE189801A401C9
:1041C000B1018FE594E00E94FE1845018C0C9D1C06
:1041D0009801A4014D805E804E0C5F1CB2018FE5FA
:1041E00094E00E94FE189801A4011701ED81FE8160
:1041F0002E1A3F0AB1018FE594E00E94FE18460195
:104200008A189B089801A401B2018FE594E00E94EE
:10421000FE189801A401B1018FE594E00E94FE18F8
:104220008ACF26960FB6F894DEBF0FBECDBFDF91C2
:10423000CF911F910F91FF90EF90DF90CF90BF90A3
:10424000AF909F908F907F906F905F904F903F9036
:104250002F900895AF92BF92CF92DF92EF92FF928C
:104260000F931F93CF93DF931F92CDB7DEB76C01EF
:104270008B017A01AC0160E370E08091FB039091C7
:10428000FC0329830E94101D5C01A60160E370E01D
:104290008091F7039091F8030E94BA1CBC01298118
:1042A000222381F09701A801C5010F90DF91CF91E2
:1042B0001F910F91FF90EF90DF90CF90BF90AF9044
:1042C0000C94AF1F9701A801C5010F90DF91CF910A
:1042D0001F910F91FF90EF90DF90CF90BF90AF9024
:1042E0000C9443208F929F92AF92BF92CF92DF9215
:1042F000EF92FF920F931F93CF93DF93CDB7DEB76B
:10430000A1970FB6F894DEBF0FBECDBF6C01990F19
:10431000EE08FF08F7FE33C0E091D402F091D50219
:104320000190F081E02D6DE284ED92E009958C0121
:1043300022273327A9012C193D094E095F0919A22B
:10434000CE0181967C019AE0892E912CA12CB12C72
:10435000CA01B901A50194010E943D2F605DF701DA
:1043600062937F01211531054105510589F7BF0190
:1043700084ED92E00E942124080F191F20C0A7019C
:10438000960119A28E010F5D1F4F8AE0C82ED12C15
:10439000E12CF12CCA01B901A70196010E943D2F21
:1043A000605DF80162938F012115310541055105CA
:1043B00089F7BF0184ED92E00E9421248C0164EA18
:1043C00071E084ED92E00E942124800F911FA1965C
:1043D0000FB6F894DEBF0FBECDBFDF91CF911F9116
:1043E0000F91FF90EF90DF90CF90BF90AF909F9094
:1043F0008F900895CF93DF93FC01448155816081B4
:10440000718184ED92E00E94EF22EC0164EA71E098
:1044100084ED92E00E9421248C0F9D1FDF91CF91AB
:104420000895E0917A04F0917B0490818091820458
:10443000892B8083E0917E04F0917F0490818091AC
:104440008404892B8083E0918004F0918104908121
:1044500080918504892B808380918A04882371F060
:1044600060E00E94EA1262E070E080E090E00E946A
:104470006D1361E080918A040E94EA12E0917A044F
:10448000F0917B0490818091860489238083E09160
:104490007C04F0917D04908180918704892380833E
:1044A0008BB183708BB985B18C7F85B9E0917E0427
:1044B000F0917F0490818091880489238083E0912A
:1044C0007E04F0917F04908180918404892B808305
:1044D00083E0E0917E04F0917F0420819091880434
:1044E00092239083E0917E04F0917F04208190914B
:1044F0008404922B9083815061F7E0917A04F091CB
:104500007B04908180918204892B80830895FC0133
:1045100024813581232B31F421E061157105A1F04F
:10452000FB0108C0FC01808191816115710531F4A6
:1045300021E0FC018081882339F005C00E9491337D
:1045400021E0892B09F020E0822F0895CF93DF939B
:10455000DC01ED91FC91EB01A881B981309711F05C
:104560001097C9F4109759F0EB012C813D81232B52
:1045700031F08C9190E091958195910914C030971C
:1045800081F0DC0114968D919C911597892B49F04F
:10459000808190E008C0BD01CF01DF91CF910C94E4
:1045A000913380E090E0DF91CF910895CF93DF9336
:1045B000EC016115710561F0FB0101900020E9F744
:1045C0003197AF01461B570B0E944123811103C055
:1045D000CE010E946F23CE01DF91CF910895CF923B
:1045E000DF92EF92FF920F931F93CF93DF936C01B3
:1045F0007A018B01C0E0D0E0CE15DF0589F0D8014B
:104600006D918D01D601ED91FC910190F081E02D2D
:10461000C6010995892B11F47E0102C02196ECCFC9
:10462000C701DF91CF911F910F91FF90EF90DF9025
:10463000CF9008950F931F93CF93DF93EC01888160
:104640009981009729F02A813B812617370788F442
:104650008B016F5F7F4F0E94B932009761F09983A1
:1046600088831B830A832C813D81232B11F4FC0159
:10467000108281E001C080E0DF91CF911F910F9106
:104680000895EF92FF920F931F93CF93DF93FC0156
:10469000248135816115710511F480E019C041153F
:1046A0005105A9F07B01EC018A01020F131FB8012B
:1046B0000E941A23882389F3288139818C819D8166
:1046C000B701820F931F0E949A331D830C8381E0F0
:1046D000DF91CF911F910F91FF90EF900895CF93AD
:1046E000DF93EC0188819981009711F00E942132BB
:1046F000198218821D821C821B821A82DF91CF913F
:104700000895CF93DF93EC01FB01448155816081D3
:1047100071810E944123811103C0CE010E946F2349
:10472000CE01DF91CF910895EF92FF920F931F93E7
:10473000CF93DF93EC017B018A01BA010E941A2317
:10474000811104C0CE010E946F2307C01D830C831A
:10475000B701888199810E949A33CE01DF91CF9170
:104760001F910F91FF90EF900895FC01808191813E
:104770000C942132EF92FF920F931F93CF93DF930C
:10478000CDB7DEB762970FB6F894DEBF0FBECDBFD0
:104790008C01CB01F80111821082138212821582E2
:1047A000148250E09E012F5F3F4F7901B9010E94B2
:1047B000022EF70101900020E9F73197AF014E1961
:1047C0005F09B701C8010E94942362960FB6F8945E
:1047D000DEBF0FBECDBFDF91CF911F910F91FF9034
:1047E000EF900895FB01DC0111961C921E92139626
:1047F0001C921E92129715961C921E921497861761
:10480000970749F0608171816115710521F044813C
:1048100055810C9494230895FC0111821082138217
:104820001282158214826115710551F0FB0101900D
:104830000020E9F73197AF01461B570B0C949423E6
:1048400008956115710579F0FB0101900020E9F7E9
:104850003197AF01461B570BDC01ED91FC910280B3
:10486000F381E02D099480E090E00895CF93DF93E9
:10487000CDB7DEB7E0970FB6F894DEBF0FBECDBF61
:10488000789484B5826084BD84B5816084BD85B52B
:10489000826085BD85B5816085BD80916E00816037
:1048A00080936E00109281008091810082608093DD
:1048B00081008091810081608093810080918000DF
:1048C0008160809380008091B10084608093B1000A
:1048D0008091B00081608093B00080917A00846004
:1048E00080937A0080917A00826080937A00809130
:1048F0007A00816080937A0080917A00806880934A
:104900007A001092C1001092B5031092B603109273
:10491000B7031092B80310927303109274031092AD
:1049200075031092760368EB7BE080E090E00E94D4
:104930006D1384ED92E09093B4038093B303E09100
:10494000E402F091E50282E08083E091E002F091E0
:10495000E1021082E091E202F091E30280E18083C3
:104960001092EC02E091E802F091E90286E0808387
:10497000E091E602F091E702808180618083E0911E
:10498000E602F091E702808188608083E091E60290
:10499000F091E702808180688083E091E602F091E7
:1049A000E70280818F7D80832FB7F89480910A027F
:1049B00090910B02A0910C02B0910D022FBF809339
:1049C000730390937403A0937503B093760365E922
:1049D00071E08091B3039091B4030E9421246AE0B6
:1049E00070E080E090E00E946D1381E08093870387
:1049F0000E9411220E94112268EC70E080E090E099
:104A00000E946D1310927904E0917A04F0917B0476
:104A1000908180918604892380830AEA1BE0F80153
:104A200065917491F8013296459154916F3F7105EB
:104A300031F4BA0180E090E00E946D1304C08FE56C
:104A400094E00E9465150C5F1F4F2CE0063712079B
:104A500031F7609174048FE594E00E94CF150FE365
:104A600011E02FEE30E040E050E060E070E08FE5D4
:104A700094E00E94140F63E08FE594E00E94CF154C
:104A800060E070E08FE594E00E94A81761E08DE09F
:104A90000E941A1380E090E00E94661D2091690434
:104AA00030916A04205231094091670450916804A2
:104AB0004C505109A8E1EA2EA6ECFA2E03E010E0D2
:104AC0006AE170E086E090E00E94DE1F20916904B8
:104AD00030916A042652310940916704509168046C
:104AE00042515109E12CF12C6DE170E089E090E038
:104AF0000E94DE1F0E94D71EBAE2AB2EB1E0BB2E91
:104B000015E1E12E14E0F12E00E010E0D5016D91E9
:104B10007D915D01072E000C880B990B0E94442E9D
:104B200020E030E048E455E40E94173020E030E017
:104B300044EB53E40E947F2E0E948930CB010E94F7
:104B4000971C3C018091FB039091FC038090F9033A
:104B50009090FA03A3010115110551F466E470E089
:104B60000E94101D0F976C01A3016CE470E009C056
:104B700064E670E00E94101D0F976C01A30164E6CB
:104B800070E0C4010E94BA1C0F974C01B701CE011E
:104B900007960E94F223BE01695F7F4FCE01019606
:104BA0000E94F22322E030E0A401B601CE0101967A
:104BB0000E943C1CCE0101960E94B52320E23DEFED
:104BC00043E050E0B401C6010E944320CE010796A5
:104BD0000E94B5230F5F1F4FB6E0EB0EF11C0730AC
:104BE000110509F093CF20E038EF42E050E068E291
:104BF00070E08091FB039091FC030E94432020E22F
:104C00003DEF43E050E068E270E088E290E00E940F
:104C1000432020E23DEF43E050E068E270E08AE5A7
:104C200090E00E944320809167049091680420E204
:104C30003DEF43E050E068E270E0865491090E9445
:104C40004320809167049091680420E23DEF43E0A7
:104C500050E068E270E0885791090E94432060911B
:104C6000690470916A046A52710980916704909195
:104C7000680420E23DEF43E050E08A970E94432021
:104C800067EA71E0CE0101960E940C2423E030E037
:104C900048E250E068E270E0CE0101960E943C1CC0
:104CA000CE0101960E94B52368EA71E0CE0101961B
:104CB0000E940C2423E030E048E250E06AE570E016
:104CC000CE0101960E943C1CCE0101960E94B523A4
:104CD0000091670410916804065411096AEA71E0B2
:104CE000CE0101960E940C2423E030E048E250E01F
:104CF000B801CE0101960E943C1CCE0101960E9493
:104D0000B5230091670410916804085711096BEAF4
:104D100071E0CE0101960E940C2423E030E048E2CD
:104D200050E0B801CE0101960E943C1CCE010196D4
:104D30000E94B523E0906904F0906A04EAE2EE1A5A
:104D4000F10800916704109168040A5211096DEA94
:104D500071E0CE0101960E940C2423E030E0A7010F
:104D6000B801CE0101960E943C1CCE0101960E9422
:104D7000B5230E944D1B81E00E94721E8FE390E0DC
:104D80000E94971C7C0188E390E00E94971C6C01B4
:104D90008701F8ECEF0EF11CC801093621E012077B
:104DA00014F0885691408C159D0514F021E001C047
:104DB00020E040E154E863E070E00E942A210C5EAC
:104DC0001F4F0E151F0541F78091670490916804ED
:104DD00097FD019695958795C8979C01220F331FE3
:104DE0004091690450916A044E5151096091FB034E
:104DF0007091FC03681B790BEE24EA94FE2C0FE003
:104E000010E08FE594E00E94E90B68EB7BE080E026
:104E100090E00E946D1361E08DE00E94EA12209103
:104E2000900430E0F901ED53FE4EA49080918D0482
:104E3000A82FB0E0FD01ED53FE4E049160918F0468
:104E400070E0FB01ED53FE4EE49040918E0450E083
:104E5000FA01ED53FE4E6490F901EB55FE4E84903D
:104E6000FD01EB55FE4EF490FB01EB55FE4ED49048
:104E7000FA01EB55FE4E349060E00E941A1360E098
:104E800080918E040E941A1310E0000F111F075426
:104E90001E4EF801A591B4918C912F2C2094822163
:104EA0008C93712CF301EE0FFF1FAF0147545E4E40
:104EB0003A01FA01A591B4919C91832D80958923A3
:104EC0008C9361E0809190040E941A1361E08091BC
:104ED0008F040E941A13B12CF501EE0FFF1FCF01B2
:104EE00087549E4E5C01FC01A591B4918C91882958
:104EF0008C93EE2DF0E0EE0FFF1FE754FE4EA591D0
:104F0000B491EC91D094DE22DC9280918D040E94C9
:104F100056136C0180918D040E9456139601281B34
:104F2000390B2C5F3F4F2930310538F48C0D9D1D16
:104F3000959587959924939401C0912C2FEF33E098
:104F40006901C81AD90A60E0809190040E941A137E
:104F500060E080918F040E941A13F501A591B4912D
:104F60008C91809488218C9361E080918D040E94C3
:104F70001A13F801A591B491EC91FE2AFC9261E01C
:104F800080918E040E941A1380918F040E94561300
:104F90002C0180918F040E9456137C01C2018E194E
:104FA0009F090496099728F4E40CF51CF594E794FE
:104FB00001C0912C61E0809190040E941A13F501C8
:104FC000A591B491EC918E228C92F301A591B491AC
:104FD000EC913E2A3C92F801A591B4918C91282243
:104FE0002C9260E080918D040E941A1380918F04AE
:104FF0000E9456138C0180918D040E945613A0903C
:105000009104B0909204A114B10409F440C0BC0111
:10501000990F880B990B0E94442E2B013C01B8017B
:10502000110F880B990B0E94442E9B01AC01C30108
:10503000B2010E94173020E030E040E85FE30E94B8
:10504000A52F2B013C01B6010D2C000C880B990BF0
:105050000E94442E9B01AC01C301B2010E947F2E2D
:105060002B013C01B50180E090E00E94422E9B01A3
:10507000AC01C301B2010E947F2E20E030E040E885
:105080005AE30E947F2E0E9489308B0104C0081BC6
:10509000190B01501C4F911002C000E010E060E0BD
:1050A0008DE00E94EA1261E080E10E941A1361E043
:1050B00081E10E941A13B80163537109653B734083
:1050C00008F00FC326010D2C000C66087708A5EA2E
:1050D000CA16D1047CF4C301B2010E94442E4B01D4
:1050E0005C0120E030E041E654E429A73AA74BA751
:1050F0005CA722C035E8C31633E0D3067CF0C301B9
:10510000B2010E94442E69A77AA78BA79CA7812C85
:10511000912C05E2A02E03E4B02E0EC0812C912C20
:1051200015E2A12E13E4B12E80E090E0A1E6B4E4F4
:1051300089A79AA7ABA7BCA78FEF93E08E199F0909
:105140009C01092E000C440B550B2DA33EA34FA32D
:1051500058A7803A91057CF4CA01B9010E94442EF7
:105160006B017C0180E090E8A3E6B4E48DA79EA7E4
:10517000AFA7B8AB22C08F3893408CF06DA17EA151
:105180008FA198A50E94442E6DA77EA78FA798ABEC
:10519000C12CD12CB0E2EB2EB3E4FB2E0EC0C12CFF
:1051A000D12CA0E2EA2EA3E4FA2E20E030E843E678
:1051B00054E42DA73EA74FA758AB6DA17EA18FA1A8
:1051C00098A50E94442EA70196010E94A52F6DA3C9
:1051D0007EA38FA398A7A70196016DA57EA58FA595
:1051E00098A90E94A52F9B01AC016DA17EA18FA162
:1051F00098A50E9417309B01AC0160E070E080E848
:105200009FE30E94A52F6B017C0160916704709160
:105210006804072E000C880B990B0E94442E9B01FA
:10522000AC01C701B6010E947F2E0E9489307B012C
:105230007093550260935402C301B2010E94442E40
:10524000A50194010E94A52F2B013C01A501940109
:1052500069A57AA58BA59CA50E94A52F9B01AC01F1
:10526000C301B2010E9417309B01AC0160E070E005
:1052700080E89FE30E94A52F4B015C0180916904A7
:1052800090916A04BC01990F880B990B0E94442EDF
:105290009B01AC01C501B4010E947F2E0E948930A0
:1052A0008B017093570260935602D0900E02C0900B
:1052B0000F0240E050E0A0E0B0E022242A94322C1B
:1052C00080E090E0BC01660F771FFB01E05DFD4FC1
:1052D00020813181FB01E05FFD4FA080B1806050F3
:1052E0007F4FFB01608171816130710531F054F0B5
:1052F000643071050CF4F8C105C04D2D5C2DA4E19E
:10530000B0E002C0672B21F02E153F05BCF405C0AC
:105310002E153F05C4F480E190E0240F351FE216FE
:10532000F30664F4A016B1064CF4F501EA0FFB1F76
:105330000E171F071CF41C0180E190E001968031DC
:1053400091050CF4BFCF8091520290915302281620
:10535000390609F4C6C1C1010E947221F4E02F167A
:10536000310408F0BAC11092510210925002C101EA
:105370000E94661D22E02216310409F4AAC133E01E
:105380002316310409F4A5C141E02416310409F0C3
:10539000A4C130925102209250020E94D71E80E098
:1053A00090E00E94971C6C014C015DE9851A5EEF4C
:1053B000950A2C0189EB480E511C360195E0690EC7
:1053C000711C5601AFEAAA0EB11C6091F7037091EF
:1053D000F80320E134E843E050E08091FB03909132
:1053E000FC030E94432040E1E42E44E8F42E00E058
:1053F00010E024E330E044E350E0B201C4010E9435
:105400001C1E24E330E044E350E0B501C3010E94D8
:105410001C1E24E330E044E350E0B301C4010E94C9
:105420001C1E24E330E044E350E0B501C2010E94B9
:105430001C1E21E040EE57E062E070E0C6010E94D1
:105440002A2121E040E058EF62E070E0C601845B71
:1054500091090E942A2180E00E94721E81E00E9430
:10546000721E0E944D1B812C912C51E1452E512C16
:1054700066E0662E712CF401EB5EFB4F7F01BF01ED
:10548000CE0101960E94F22361E070E0CE01019608
:105490000E94E41B5C01CE0101960E94B523B70176
:1054A000CE0101960E94F22362E070E0CE010196E7
:1054B0000E94E41B6C01CE0101960E94B523B70146
:1054C000CE0101960E94F22363E070E0CE010196C6
:1054D0000E94E41B8C01CE0101960E94B523B70106
:1054E000CE014F960E94F223BE01615E7F4FCE0136
:1054F00049960E94F2234AE0B801CE0143960E94E9
:10550000BA234AE0B601CE010D960E94BA234AE0C2
:10551000B501CE0107960E94BA236FEA71E0CE0171
:1055200001960E940C24BE01695F7F4FCE01019657
:105530000E94812363EB71E00E94D622BE01635F6B
:105540007F4F0E94812368EB71E00E94D622BE014A
:105550006D5E7F4F0E9481236DEB71E00E94D62229
:10556000BE01675E7F4F0E9481230E94FA21CE0117
:1055700001960E94B523CE0107960E94B523CE0165
:105580000D960E94B523CE0143960E94B523CE010D
:1055900049960E94B5230330110519F405EE1FEA60
:1055A00002C008E116EC62EE71E0C7010E9487229A
:1055B000882311F000EE1FEF67EA71E0C7010E9437
:1055C0008722811107C06AEA71E0C7010E94872221
:1055D000882319F066246394712C68EA71E0C7018E
:1055E0000E948722811107C06BEA71E0C7010E9407
:1055F0008722882329F027E0622E712C0EE416EA18
:105600006DEA71E0C7010E948722882341F08FE094
:10561000482E512C93E0692E712C00EE1FEF78017B
:1056200004E010E02EE130E04EE150E0B601C501AB
:105630000E94DE1FC40CD51CA60CB71CB0926C04D3
:10564000A0926B04D0926E04C0926D04109272040A
:10565000109271041092700410926F04809177047C
:1056600090917804892B39F4F6E0CF0ED11CD092BA
:105670006E04C0926D0426E73CE0309378042093DA
:1056800077044BA15CA16F8D78A18FE594E00E9417
:10569000EF228091770490917804892B49F08091D2
:1056A0006D0490916E04069790936E0480936D0440
:1056B0001092780410927704CE014F960E94B52381
:1056C00036E0830E911C48E48416910409F0D3CE91
:1056D00004C0309251022092500230925302209224
:1056E00052020E94FB1197CB4EE150E0AEE1B0E0D8
:1056F0000BCECF93DF93CDE5D4E02697CE010E9469
:10570000B52383E0CD3FD807C1F7DF91CF9108954E
:10571000DF92EF92FF920F931F93CF93DF9310923C
:10572000D7021092D60288EE93E0A0E0B0E080931A
:10573000D8029093D902A093DA02B093DB0221E55C
:1057400031E03093D5022093D40225EC30E0309341
:10575000E1022093E00224EC30E03093E302209356
:10576000E20220EC30E03093E5022093E40221ECE9
:1057700030E03093E7022093E60222EC30E03093F1
:10578000E9022093E80226EC30E03093EB0220930C
:10579000EA021092ED021092EE021092EF021092C5
:1057A000F00210927703109278031092790310920E
:1057B0007A0310927B0310927C0310927D03109267
:1057C0007E0310927F031092800310928103109247
:1057D0008203109283031092840310928503109227
:1057E000860328E139E030939404209393041092C7
:1057F0009804109297048093990490939A04A0932C
:105800009B04B0939C0481E691E09093960480936E
:10581000950481E180938D0480E180938F0489E079
:1058200080938E0488E0809390048CE291E09093C2
:105830009204809391048AE090E090938C0480938A
:105840008B04109262041092610400EF10E0109338
:10585000640400936304C0E4D1E0D0936604C09371
:1058600065041093680400936704D0936A04C0939E
:1058700069041092740410926C0410926B041092DC
:105880006E0410926D04DD24D394D0927304EE2440
:10589000EA94FE2CF0927204E0927104F09270048B
:1058A000E0926F04D09275041092760410927804FE
:1058B0001092770481E791E09093600480935F04F5
:1058C00082E180938A04E4EDF1E1E491F0E0EE0FEF
:1058D000FF1FE754FE4EA591B491B0937B04A093B3
:1058E0007A04E3EDF1E1E491F0E0EE0FFF1FE754FD
:1058F000FE4E8591949190937D0480937C04E2ED1B
:10590000F1E1E491F0E0EE0FFF1FE754FE4E8591C8
:10591000949190937F0480937E04E1EDF1E1E49112
:10592000F0E0EE0FFF1FE754FE4E859194919093A7
:10593000810480938004E6EBF1E1849180938204FA
:10594000E5EBF1E1349130938304E4EBF1E1249150
:1059500020938404E3EBF1E1949190938504482F24
:10596000409540938604E32FE095E0938704E22F6F
:10597000E095E0938804E92FE095E0938904EC91A9
:10598000E82BEC93E0917C04F0917D049081809170
:105990008304892B8083E0917E04F0917F049081C1
:1059A00080918404892B8083E0918004F0918104AC
:1059B000908180918504892B808361E081E10E9440
:1059C0001A1361E080E10E941A1361E08FE00E94E7
:1059D0001A1361E08EE00E941A1361E082E10E94D6
:1059E000EA1261E082E10E941A138AB18C6F8AB9CF
:1059F00084B1836084B91092740410926C04109284
:105A00006B0410926E0410926D04D0927304F092A5
:105A10007004E0926F041093680400936704D093BD
:105A20006A04C0936904E4E9F1E18491E8EAF1E1F0
:105A3000D491E6ECF1E1C491CC2391F081110E9464
:105A4000C112EC2FF0E0EE0FFF1FE957FE4EA591BB
:105A5000B491EC91ED2391E080E021F490E002C05C
:105A600090E080E090935D0480935E046CED71E0C3
:105A70008DEF93E00E940C2464EE71E083E094E0EB
:105A80000E940C246BEE71E089E094E00E940C24EB
:105A900065EF71E08FE094E00E940C2462EE71E00B
:105AA00085E194E00E940C246DEF71E08BE194E0BD
:105AB0000E940C246FEF71E081E294E00E940C24BC
:105AC00061E072E087E294E00E940C2463E072E0FF
:105AD0008DE294E00E940C2465E072E083E394E0A0
