:100000000C946F0C0C94970C0C94970C0C94470F59
:100010000C94470F0C94470F0C94970C0C94970C6E
:100020000C94970C0C94970C0C94970C0C94970CC4
:100030000C94970C0C94970C0C94970C0C94970CB4
:100040000C94B9160C94970C0C94A1150C947B1578
:100050000C94970C0C94970C0C94970C0C94970C94
:100060000C94510F0C94970C05A84CCDB2D44EB9FA
:100070003836A9020C50B9918688083CA6AAAA2A4B
:10008000BE000000803F00000000050001000003EA
:100090000C0501F5050005050601F509000A0C0B24
:1000A00000F51800080E0A01F526000C0C0C00F5EE
:1000B00038000A0C0B01F5470002050301F5490061
:1000C00005100601F5530005100600F55D0007094F
:1000D0000800F4650009090B01F670000204040130
:1000E000FF710004020601FC720002020401FF73AA
:1000F00000050C0500F57B00070C0901F5860001E1
:100100000C0904F58800070C0901F59300070C0998
:1001100001F59E00080C0900F5AA00070C0901F57D
:10012000B500070C0901F5C000080C0901F5CC0069
:10013000070C0901F5D700070C0901F5E2000208D8
:100140000401F9E400020A0401F9E70009090B01BE
:10015000F6F20009040B01F8F70009090B01F60299
:1001600001040C0601F5080111111201F42D010C16
:100170000C0C00F53F01090C0A01F54D010B0C0DAB
:1001800001F55E010C0C0E01F57001070C0901F57B
:100190007B01070C0801F586010B0C0D01F5970199
:1001A0000B0C0D01F5A801020C0501F5AB010410C3
:1001B00005FFF5B3010B0C0C01F5C401080C090196
:1001C000F5D0010C0C0E01F5E2010C0C0E01F5F45A
:1001D000010D0C0F01F50802080C0901F514020DC0
:1001E0000E0F01F52B020A0C0B01F53A02070C0861
:1001F00001F545020B0C0B00F556020B0C0D01F539
:1002000067020B0C0B00F57802130C1300F5950236
:100210000D0C0D00F5A9020B0C0B00F5BA020B0C2E
:100220000C00F5CB0204100602F5D302050C050004
:10023000F5DB0204100600F5E30208070800F5EA02
:10024000020A010A0004EC0203030601F4EE0207AD
:10025000080800F9F502070C0901F5000306080873
:1002600001F90603070C0901F5110307080901F953
:100270001803050C0500F52003080C0800F92C03F1
:10028000070C0901F53703020B0401F63A03030FCB
:100290000400F64003080C0901F54C03020C0401AC
:1002A000F54F030C080E01F95B0307080901F96219
:1002B0000308080A01F96A03070C0901F975030725
:1002C0000C0901F9800306080701F98603050807F0
:1002D00001F98B03060A0600F7930307080901F9E1
:1002E0009A0308080800F9A2030D080D00F9AF03EE
:1002F00009080900F9B803080C0800F9C403070845
:100300000800F9CB0305110601F4D603011005021C
:10031000F5D80306110600F4E50309020B01FA5BA8
:1003200064920360DEF729000884210BFF11084264
:1003300013FF2318842108183EFEDAD8F87C1F1B0F
:100340009BFF7C18183847CCC487D03B00200400A2
:10035000DE0BE13333F21E3C1F8661983C0E078BA7
:10036000368731CFD9E7FE801188C46318C630863E
:1003700010C2420863086318C463110810234BA11C
:100380008FB48810080402010FF84020100800F60E
:10039000FFF0188423108C42310038FB1E38306087
:1003A000C1C78DF1C0FFF079FA342041820C30C111
:1003B000FFF079FA3020C70F07071BF3C002060EC3
:1003C0000E1E36667FFF0606067CF902078F8383C2
:1003D000071FF3C00838E3861FBFE3C38DF9E0FFB2
:1003E000FE060C0C0818103020606039FF1E3C6FB0
:1003F000BFE3838FFBE079FB1C3C7FCD871C70C182
:1004000000F00FF00F600187CF9E0C0780F81F01EE
:1004100080FF80001FF080781F81F0187DF9E08058
:10042000006733364C406603F007FE0F038600C6B4
:1004300039323E8B31C5106298214C31A73999FF72
:100440008473830018E03C3FF807F0000600600F5B
:1004500000F01981983083FC3FC606606C03FC7F76
:1004600031D86C67E3FD86C1E1FFDFC00F87FDC0B7
:10047000F00C0180300600E00E04FF87E0FF0FFC67
:10048000C0EC06C02C03C03C02C06C0CFFCFF0FFD8
:10049000FF060C1FFFE0C183FFF0FFFF060C1FFFEC
:1004A000E0C18306000FC7FDC0F00C0180307E0F55
:1004B000E06E0CFF87C0C0780F01E03C07FFFFFE35
:1004C00003C0780F01E030FFFFFF333333333333A2
:1004D00033FEC1986318660D81E0360660C6186366
:1004E000066060C0C0C0C0C0C0C0C0C0C0FFFFC008
:1004F0003E07F0FD9BCF3C63C63C03C03C03C03CC1
:1005000003C03E03F03D83CC3C63C23C33C1BC0F0F
:10051000C07C030F81FF1C1DC06C01E00F0078033D
:10052000E033838FF81F00FCFEC3C3C3FEFCC0C0D2
:10053000C0C0C00F81FF1C1DC06C01E00F0078031C
:10054000E03B838FF83F003F0070FC3F8C630CC69C
:100550003F8FC338C630CC1B0679FB140C0E0E0639
:10056000070FF3C0FFFFFC10020040080100200449
:100570000080100200C0780F01E03C0780F01E03ED
:10058000C06C19FF0F80C06819831043186206C041
:10059000D80E01C0100200C0C0681C19838330D877
:1005A000431318663204C6C0F0580E0E0181C030E5
:1005B0001002020060318306303B00F803801C010A
:1005C000B018C1871819C060E0CC18C60D80E018BB
:1005D0000100200400801002007FEFF80200C0300C
:1005E0000C010040180601FFBFF0FF88888888884A
:1005F00088FFC210C21086108610FF111111111150
:1006000011FF181C3434266243FFC0C88078FA10EA
:10061000E648913FC183060FDFF1E1C38FFFC03F82
:10062000FC20830FCF02040813AFF0C18385F9F0DB
:1006300039FB1FF8181F9E19D8CF798C6318C03F5B
:100640006746663C60607EC6C3E67CC183060DDFFC
:10065000F1E3C78F1E30F3FFFC6C36DB6DB790C043
:10066000C0C0C0C6CCD8F0D8CCC6C7FFFFFFFDEFD6
:10067000FEC63C63C63C63C63C63FDFF1E3C78F18E
:10068000E33C7EC38181C37E3CF9FF1E1C38FFFC26
:10069000C18306003FFF1C3878FF9F060C1830DB33
:1006A000FE70C30C3077F3E3C7FE0087FF61861846
:1006B0003CF0C78F1E3C78FFBBC34666243C18182D
:1006C00010C21A3899CC5B43DE1C60630208C33346
:1006D0000D8381C1B18D83C366663C3C1818103010
:1006E000206040FFF820C1041FBF39D8C63188867A
:1006F00018C6318738FFFFE3830C30C3040C730C3A
:1007000030C33CE0F8C78000000100FF0032000168
:100710000000010200000703003010040000000880
:10072000000202090000000A0000000C0000000D99
:100730000000000F00000010000000110007001270
:1007400000000013000000FF00C800100090161108
:10075000002702FF00320012001A00FF00320013CF
:1007600000001829002A00FF00320030000000318C
:10077000000000320000003500060236000808378D
:1007800000070038000102390000003C0000003D75
:100790000000002000000021000000500000005177
:1007A00000EF005200000053003F01600000A7610D
:1007B0000003006A00000090001000920000009307
:1007C000000300950000119700000098000000074A
:1007D0000033011F038600207E1400000000240067
:1007E00027002A0000000000003E5B4F5B3E3E6B8E
:1007F0004F6B3E1C3E7C3E1C183C7E3C181C577DBB
:10080000571C1C5E7F5E1C00183C1800FFE7C3E706
:10081000FF0018241800FFE7DBE7FF30483A060E18
:100820002629792926407F050507407F05253F5A5F
:100830003CE73C5A7F3E1C1C08081C1C3E7F1422CF
:100840007F22145F5F005F5F06097F017F0066897A
:10085000956A606060606094A2FFA29408047E04C0
:100860000810207E201008082A1C08081C2A0808E6
:100870001E101010100C1E0C1E0C30383E383006A6
:100880000E3E0E06000000000000005F00000007A2
:10089000000700147F147F14242A7F2A12231308D0
:1008A000646236495620500008070300001C2241AC
:1008B000000041221C002A1C7F1C2A08083E080850
:1008C0000080703000080808080800006060002000
:1008D000100804023E5149453E00427F40007249E3
:1008E0004949462141494D331814127F1027454587
:1008F00045393C4A4949314121110907364949499D
:1009000036464949291E000014000000403400000A
:100910000008142241141414141400412214080273
:10092000015909063E415D594E7C1211127C7F49E6
:100930004949363E414141227F4141413E7F49493B
:1009400049417F090909013E414151737F08080867
:100950007F00417F41002040413F017F0814224138
:100960007F404040407F021C027F7F0408107F3E92
:100970004141413E7F090909063E4151215E7F09FF
:10098000192946264949493203017F01033F404066
:10099000403F1F2040201F3F4038403F6314081451
:1009A0006303047804036159494D43007F41414189
:1009B0000204081020004141417F0402010204406A
:1009C00040404040000307080020545478407F28EE
:1009D0004444383844444428384444287F385454E4
:1009E000541800087E090218A4A49C787F08040407
:1009F0007800447D40002040403D007F10284400A6
:100A000000417F40007C047804787C080404783836
:100A100044444438FC1824241818242418FC7C0866
:100A2000040408485454542404043F44243C4040E3
:100A3000207C1C2040201C3C4030403C4428102896
:100A4000444C9090907C4464544C440008364100DF
:100A50000000770000004136080002010204023C59
:100A60002623263C1EA1A161123A4040207A385428
:100A700054555921555579412254547842215554A1
:100A8000784020545579400C1E52721239555555F4
:100A900059395454545939555454580000457C41DF
:100AA0000002457D420001457C407D1211127DF01F
:100AB000282528F07C545545002054547C547C0A49
:100AC000097F4932494949323A4444443A324A4812
:100AD00048303A4141217A3A42402078009DA0A016
:100AE0007D3D4242423D3D4040403D3C24FF242468
:100AF000487E4943662B2FFC2F2BFF0929F620C087
:100B0000887E090320545479410000447D413048D7
:100B1000484A32384040227A007A0A0A727D0D191A
:100B2000317D2629292F28262929292630484D407C
:100B300020380808080808080808382F10C8ACBA78
:100B40002F102834FA00007B000008142A142222F7
:100B5000142A14085500550055AA55AA55AAFF5540
:100B6000FF55FF000000FF00101010FF00141414C8
:100B7000FF001010FF00FF1010F010F0141414FC10
:100B8000001414F700FF0000FF00FF1414F404FC2D
:100B9000141417101F10101F101F1414141F00100E
:100BA0001010F0000000001F101010101F10101087
:100BB00010F010000000FF10101010101010101096
:100BC000FF10000000FF140000FF00FF00001F10D6
:100BD000170000FC04F414141710171414F404F490
:100BE0000000FF00F714141414141414F700F71481
:100BF0001414171410101F101F141414F4141010D0
:100C0000F010F000001F101F0000001F1400000073
:100C1000FC140000F010F01010FF10FF141414FF6B
:100C2000141010101F00000000F010FFFFFFFFFF66
:100C3000F0F0F0F0F0FFFFFF0000000000FFFF0FFA
:100C40000F0F0F0F3844443844FC4A4A4A347E029E
:100C5000020606027E027E0263554941633844441F
:100C60003C04407E201E2006027E020299A5E7A5D4
:100C7000991C2A492A1C4C7201724C304A4D4D3045
:100C80003048784830BC625A463D3E494949007E6A
:100C90000101017E2A2A2A2A2A44445F4444405101
:100CA0004A444040444A51400000FF0103E080FFB5
:100CB000000008086B6B083612362436060F090F41
:100CC00006000018180000001010003040FF01015D
:100CD000001F01011E00191D1712003C3C3C3C0086
:100CE00000000000000000000700010000041107E0
:100CF00001F0090009060C01F010000E120E00F0C0
:100D000030000B140D01F04C0010111101F06E00B9
:100D100010111201F0900004060601F0930008176C
:100D20000901F0AA0008170900F0C1000A0B0B0125
:100D3000F0CF000C0B0E01F4E00004080701FDE405
:100D40000006030801FAE70004040701FDE90007B3
:100D5000110700F0F8000B110D01F0100103110D47
:100D600005F017010B110D01F02F010A110D01F013
:100D700045010B110D01F05D0109100D02F16F012C
:100D80000B110D01F087010A110D02F09D010B11ED
:100D90000D01F0B5010B110D01F0CD01040B0701A0
:100DA000F6D301040F0701F6DB010C0D0E01F2EF83
:100DB000010C080E01F5FB010C0D0E01F20F0207EC
:100DC000110901F01E0216161801F05B021311132F
:100DD00000F084020E111102F0A20210111301F0B2
:100DE000C40210111302F0E6020C110F02F000030E
:100DF0000B110F02F0180311111401F03D03101133
:100E00001402F05F0304110802F06803071508FFDD
:100E1000F07B030F111102F09B030C110F02F0B5D0
:100E20000311111502F0DA0310111402F0FC031380
:100E3000111501F025040D111002F04104131515D0
:100E400001F073040E111002F091040D110F01F066
:100E5000AD0410111101F0CF0410111402F0F104CF
:100E600011111100F016051C111C00F05205131190
:100E70001400F07B0511111100F0A00510111100F4
:100E8000F0C20508160B02F0D80507110700F0E7BD
:100E90000509160B00F000060C090E01F00E060CF9
:100EA000010C0003100608070A01F017060C0B0DD1
:100EB00001F628060C110E01F042060A0B0C01F691
:100EC00050060C110E01F06A060B0B0D01F67A06A6
:100ED00009110700F08E060C110D01F6A8060C1181
:100EE0000E01F0C20604110701F0CB06051707003A
:100EF000F0DA060C110D02F0F40603110702F0FB04
:100F000006140B1702F617070C0B0E01F628070C38
:100F10000B0E01F639070C110E01F653070C110EDA
:100F200001F66D07090B0B02F67A07090B0A01F6A9
:100F30008707090E0A00F397070C0B0E01F6A807A6
:100F40000C0B0C00F6B907130B1300F6D4070D0BAE
:100F50000D00F6E6070C110C00F600080C0B0D0056
:100F6000F6110816151801F04B0818141A01F0872D
:100F70000816151A02EFC10817181800EE7FFFFFB8
:100F800077662007FF70F3F9FCFC763B1C0E1838DF
:100F9000E0E3830E1C3BFFFFFFFFFF1870E18FFFB4
:100FA000FFFFFFFDC3870C1C3071C1C7000C03F1AC
:100FB000FF766EC5D83F03E07F83F83F8670CF1978
:100FC000FB7FFE3F0180300600380CFC18C618C6B7
:100FD00030C660C660FCC039800180033C067E06D6
:100FE000E60CC718C718E6307E603C07C01FE03F1C
:100FF000F03CF03C703CE01FE01FC03F877FCFFB20
:10100000FEF1FEF0FCF0F8FFFC7FFE1F1FFFFE6606
:10101000070E1C1C38787870F0F0F0F0F0F0F070EB
:101020007878381C1C0E07E070383C1C1E0E0F0F21
:101030000F0F0F0F0F0F0F0E1E1C3C3870E01C0718
:101040000CCBA7FB830FBFA7CC8701C00F00F00F0D
:1010500000F0FFFFFFFFF0F00F00F00F006FF777D9
:101060006CFFFFC07FF70E1870E1830E1C3060C369
:10107000870C1870E01F07F1FF3CE71FE3FC7F8F30
:10108000F1FE3FC7F8F71EF39FF1FC1F00FFFFFFC3
:10109000FFFFFFE01F0FF1FF31E83C0380F01E036C
:1010A00080F01C0781E0380FFBFFFFE03E1FE7F9EF
:1010B0001F03C0F0783C0F03E03C0F03E0FFFFFE8E
:1010C0007E0001C0380F03E0FC3F87F1DE73DC7B5C
:1010D000FFFFFFFE0780F01E03C0FFFFFFFE0F07AC
:1010E00083F9FEFF83C0E0787FFFFDFC0781E03CD1
:1010F0000F01C0781FC3FE7FDE3FC7F8FF1FE3DF8D
:10110000F1FC1F00FFFFFFFC1E0781E0F03C0F0712
:1011100081E0703C0F0381E018001F07F1E738F70A
:101120001EE3DE71FC3F8F3BC7F8FF1FE3DE79FE55
:101130001F001F07F1FF38FF1FE3FC7F8F7FE7F8D9
:101140007F03C0781E07C0F03C007FF70007FF70E8
:101150007FF70006FF7776C000100F03F1FE7F8F48
:10116000C0F00FC07F81FE03F00F0010FFFFFFFFF4
:10117000F000000FFFFFFFFF800F00FC07F81FE0EB
:101180003F00F03F1FE7F8FC0F008000F9FBF8F18B
:10119000E3CF1C38E0C1000E1E3C7000FE001FFFB4
:1011A00000F01E07001C380039C3CE661FF9B8E3F3
:1011B000C7C7070F1C1C3CE071F381C6CE0E1B385D
:1011C00038CC71E639FFF063EF81C00073C0038350
:1011D000C03C07FFE003FC0003F0007E000FC003EB
:1011E000FC007F800F7803CF0079F01F1E03C3C07F
:1011F000783C1FFF83FFF8FFFF1E01F3C01EF803BA
:10120000E0FFC3FF8FFF3C7CF0F3C3CF1E3FF0FF36
:10121000F3FFEF07BC1FF07FC1EFFFBFFCFFE00350
:10122000FC0FFF1FFF3F077C017800F800F000F083
:1012300000F000F80078007C013F071FFF0FFF035C
:10124000F8FFC0FFF8FFFCF07EF03EF01FF00FF05B
:101250000FF00FF00FF00FF01FF03EF07EFFFCFFDD
:10126000F8FFC0FFFFFFFFFF00F00F00F00FFEFFD1
:10127000EFFEF00F00F00F00FFFFFFFFF0FFFFFF9A
:10128000FFF80F01E03C07FFFFFFFFC0780F01E010
:101290003C0780F00003FC07FF87FFC7E0E7C00BB7
:1012A000C003E001E000F03FF81FFE0FEF00F7C0C1
:1012B00079F07C7FFE1FFE03F800F00FF00FF00FB7
:1012C000F00FF00FF00FFFFFFFFFFFFFF00FF00F29
:1012D000F00FF00FF00FF00FF00FF00FFFFFFFFF18
:1012E000FFFFFFFFF01E3C78F1E3C78F1E3C78F153
:1012F000E3C78F1E7FF7EF00F07DE1F3C7C78F0FC5
:101300003E1E783DF07FC0FF01FF03DF079F0F1FE8
:101310001E3E3C3E783EF03EF00F00F00F00F00F16
:1013200000F00F00F00F00F00F00F00F00FFFFFFC4
:10133000FFF0F007FC03FE03FF83FFE3FFF9FFFD6F
:10134000FFFFFFF7F7F9F3FC71FE10FF007F803F0E
:10135000C01FE00FF00780F00FF80FFC0FFE0FFE2C
:101360000FFF0FFF8FF7CFF3EFF1FFF0FFF0FFF06C
:101370007FF03FF01FF00FF00703F801FFC07FFC84
:101380001F07C7C07CF007BE00FF800FF001FE0002
:101390003FE00FBC01E7C07C7C1F07FFC07FF0036C
:1013A000F800FFC7FF3FFDE1EF0FF87FC3DFFEFF4F
:1013B000E7FE3C01E00F007803C01E00F00003F8D8
:1013C00001FFC07FFC1F07C7C07CF007BE00FF8085
:1013D0000FF001FE003FE00FBC01E7C07C7C1F075F
:1013E000FFC07FF003F8001FC001FF800FE000780E
:1013F000FFC3FF8FFF3C3CF0FBC3CF0F3FF8FFC3A1
:10140000FF0F3E3C7CF0F3C3EF07BC1EF07C1FC116
:10141000FF9FFDF06F007C03F80FF83FE07F807CBA
:1014200001F80FF07BFFCFFC1F80FFFFFFFFFFFFE6
:1014300003C003C003C003C003C003C003C003C094
:1014400003C003C003C003C003C003C0F00FF00F0C
:10145000F00FF00FF00FF00FF00FF00FF00FF00F94
:10146000F00FF00FF81F7C3E7FFE3FF80FE0F8070B
:10147000BC07DF03C783E3E1E0F1F078F03E780FCB
:101480007807FC01FE00FE003F001F00078003807C
:1014900000C000F80F01F780F01E781F81E7C1F847
:1014A0003E3C3FC3C3E3FC7C1E7FE781E79E780F91
:1014B000F9FF00FF0FF00FF0FF007E07E007E07E6E
:1014C000003E07C003C03C001C038001801800FCE4
:1014D00007E7C1F8FC3E0F8F80FBE00FF800FF002C
:1014E0001FC001F8007F001FF007FF00FBF03E3F28
:1014F0000F83E3F03EFC03E0F80FBE0F8F07C7C772
:10150000C1F7C07BE03FE00FF003F001F000F8000E
:101510007C003E001F000F8007C003E0007FFF7FBC
:10152000FE7FFC007C00F801F801F003E003E00717
:10153000C00F800F801F003E003FFF7FFFFFFFFFB7
:10154000FFFFF0F0F0F0F0F0F0F0F0F0F0F0F0F07D
:10155000F0F0FFFFFFE0C183070E0C18387060C188
:10156000C383060EFFFFFFE0F0783C1E0F0783C128
:10157000E0F0783C1E0F0783C1FFFFFFFC0700F07F
:101580000F81F81F839C39C70EF0F0FFF0107EE743
:10159000C7C7E67E7F8FF8C3C83C0FC3FCF3CE3CC1
:1015A000E3DFFF7DE0F00F00F00F00F00F00F78F9A
:1015B000FEF1EF0FF07F07F0FF0FF1EFFEF7801F56
:1015C0008FF787C0F03C0F03C0784FF1F800F00FA1
:1015D00000F00F00F00F1FF7FF78FF0FE0FE0FE0A5
:1015E000FF0F70F7FF1EF01F8FF9C3F87FFFFFFC9E
:1015F0000780782FFC7F00078FC7078381C3F9FC22
:10160000381C0E070381C0E07038001FF7FF71CF50
:101610001EE1E71C7FC1F07803F83FEF3EE0EE0EDD
:10162000F1E7FC3F80F00F00F00F00F00F00F3CF68
:10163000FEF9EF0FF0FF0FF0FF0FF0FF0FF0F06F6C
:10164000F6007777777777703BDE7000E739CE73F7
:101650009CE739DEFF7980E00E00E00E00E00E002E
:10166000E1EE3CE78EF0FE0FF0EF0E78E3CE3CE1CA
:10167000F0FFFFFFFFFFFFE0E7878FFCFEF1F9EED1
:101680000F0EE0E0FE0E0FE0E0FE0E0FE0E0FE0EBB
:101690000FE0E0F0F7CFFEF8EF0EF0FF0FF0FF0FD6
:1016A000F0FF0FF0F01F83FE78EF0FF07F07F07F61
:1016B0000F78F3FE1F80F78FFEF0EF0FF07F07F03B
:1016C0007F0FF1EFFEFF8F00F00F00F00F00F00032
:1016D0001EF7FF70FF0FE0FE0FE0FF0F78F7FF1F10
:1016E000F00F00F00F00F00F00F0E777FFDF2F079B
:1016F0000381C0E07038003E3FB85F0FE3F8FC1F85
:10170000877F9F80080C0E0FFFF9C0E070381C0E19
:101710000791F878F0FF0FF0FF0FF0FF0FF0FF0FC9
:1017200071F7FF3EF0F0F70F79E39E3DC1FC1F809B
:10173000F80F00F00600F0E1EE1C39E78F1CF9C34A
:10174000BF787F7E07EFC0F8F00F1E01C3C01830CE
:1017500000F8FBC78F783F80F803C03E03F83DE3F5
:10176000C7BC1EF0F70F79E39E3DC1FC1F81F80F47
:1017700080F00F00E01E01C03C038078007FF7FE80
:1017800003C07C0780F01F01E03C07FFFFF0000072
:101790000400006000030000180001C0000E0000FB
:1017A00070000380000C000060000300001C00F0CB
:1017B000E001C300039C000660001F80003C0000A5
:1017C000F000038000040000007E0001FF8003E3BE
:1017D000E00300E010007030003830001878001886
:1017E000FC001C30001C30003F38003E38001C1844
:1017F000000C1C00080E00000781C003FFC001FFA1
:1018000000007C00040000300000C00007003C1E07
:1018100001F8780F80F07C03E3E0079F000FF800E9
:101820001FC0003E0000F80007F0003FE001E7C0E5
:101830000F8FC0FC1FFFE03F9F003E1000007FFFA6
:10184000FD10004620008C40011880023100046227
:101850000008C4001188002310004620008C3FFEC1
:10186000180000300000600000C1FFC1821F830427
:101870003F06087E0C10FC1821F82843F04887E04A
:101880008FFFFE7D0FE40C207E1B00000000230074
:1018900026002900000000080002010000030407E0
:1018A0000000000000000000010204081020408039
:1018B00001020408102001020408102000000000AA
:1018C000250028002B00040404040404040402027C
:1018D00002020202030303030303B630A7301124FC
:1018E0001FBECFEFD8E0DEBFCDBF24E0ACEFB1E04C
:1018F00001C01D92A53AB207E1F711E0A0E0B1E006
:10190000E2E2F2E702C005900D92AC3FB107D9F7D1
:101910001CE0CEE6DCE004C02197FE010E94E9361F
:10192000CD36D107C9F70E94AC280C9404390C9429
:101930000000CF92DF92EF92FF920F931F93CF930D
:10194000DF9300D000D000D0CDB7DEB76C01DC0152
:10195000ED91FC916217730789F4041715072CF4B5
:10196000942F852FA801092F182F041B150B980100
:101970002F5F3F4F008CF18DE02D12C040175107B3
:1019800009F5261737072CF4962F872FB901292F31
:10199000382F261B370B2F5F3F4F028CF38DE02D26
:1019A0008701C601099526960FB6F894DEBF0FBED3
:1019B000CDBFDF91CF911F910F91FF90EF90DF90FE
:1019C000CF9008950680F781E02D2D833E834B83D1
:1019D0005C8369837A830995D601ED91FC91008837
:1019E000F189E02D2D813E814B815C8169817A8175
:1019F000C6010995D601ED91FC910288F389E02D8D
:101A0000C60126960FB6F894DEBF0FBECDBFDF919C
:101A1000CF911F910F91FF90EF90DF90CF9009949D
:101A2000EF92FF920F931F93DC01ED91FC911197C0
:101A30001A960D911C911B9718962D913C91199710
:101A4000048CF58DE02D7B0140E050E060E070E01B
:101A500009951F910F91FF90EF9008954F925F921B
:101A60006F927F928F929F92AF92BF92CF92DF92AE
:101A7000EF92FF920F931F93CF93DF9300D0CDB7D8
:101A8000DEB76C015A0139014801DC01ED91FC918E
:101A90000680F781E02D69837A8309956981462E56
:101AA0007A81572E640C751CD601ED91FC91461479
:101AB00057046CF40484F585E02D87019401A50199
:101AC000B201C6010995BFEF4B1A5B0AEDCF028840
:101AD000F389E02DC6010F900F90DF91CF911F91F8
:101AE0000F91FF90EF90DF90CF90BF90AF909F90BD
:101AF0008F907F906F905F904F900994AF92BF92BC
:101B0000CF92DF92EF92FF920F931F93CF93DF93C9
:101B100000D000D0CDB7DEB75C016901DC01ED91EA
:101B2000FC910680F781E02D4B835C8369837A8387
:101B30000995D501ED91FC9169817A819B012C0D6C
:101B40003D1D215031090088F189E02D78014B813C
:101B50005C818A01C5010995D501ED91FC9102884E
:101B6000F389E02DC5010F900F900F900F90DF913A
:101B7000CF911F910F91FF90EF90DF90CF90BF908A
:101B8000AF900994AF92BF92CF92DF92EF92FF9203
:101B90000F931F93CF93DF9300D000D0CDB7DEB764
:101BA0005C016901DC01ED91FC910680F781E02D7B
:101BB0004B835C8369837A830995D501ED91FC9110
:101BC0004B815C81C40ED51EB1E0CB1AD1080088D0
:101BD000F189E02D7801860169817A819B01C50137
:101BE0000995D501ED91FC910288F389E02DC5019D
:101BF0000F900F900F900F90DF91CF911F910F9149
:101C0000FF90EF90DF90CF90BF90AF900994089530
:101C1000EF92FF920F931F93DC01ED91FC91048CE6
:101C2000F58DE02D09951F910F91FF90EF9008958C
:101C30000F931F93DC01ED91FC91028CF38DE02D4D
:101C400009951F910F9108950F931F93DC01ED915A
:101C5000FC91008CF18DE02D09951F910F91089555
:101C6000DC01ED91FC910480F581E02D099408954B
:101C70002F923F924F925F926F927F928F929F929C
:101C8000AF92BF92CF92DF92EF92FF920F931F938A
:101C9000CF93DF9300D01F92CDB7DEB74C017B838B
:101CA0006A836A01590117019801241B350B37FF1C
:101CB00003C0319521953109C5014A815B81841B9F
:101CC000950B97FF03C091958195910951E0598338
:101CD0008217930714F019820BC09A2D8B2D58018F
:101CE000092F182F9A818B81DB82CA82C92ED82EA8
:101CF0008A819B81A816B9065CF49C2D8D2D680104
:101D0000092F182F9A818B81BB82AA82A92EB82E07
:101D10002501AA81BB814A1A5B0A38016C187D082B
:101D200077FE03C0719461947108720157FE03C07D
:101D3000BFEFEB1AFB0AF594E794C016D1061CF02E
:101D40000FEF1FEF1FC001E010E01CC0D401ED91A8
:101D5000FC91B9810084F185E02D9101BB23C1F094
:101D60004A815B81B601C4010995E618F708F7FEC0
:101D700004C0C00ED11EE40CF51CEA81FB81319633
:101D8000FB83EA834A815B81A416B506FCF604C096
:101D9000A6016A817B81E7CF0F900F900F90DF91B2
:101DA000CF911F910F91FF90EF90DF90CF90BF9058
:101DB000AF909F908F907F906F905F904F903F90EB
:101DC0002F90089585ED8093BC008091BC0084FD28
:101DD000FCCF10929F02089540917902262F30E0A7
:101DE000240F311D21323105DCF420919F02243073
:101DF000C9F4FC0180E090E0861758F43091790234
:101E00002191DC01A95ABD4FA30FB11D2C9301965E
:101E1000F3CF80917902680F6093790280E0089592
:101E200081E0089582E0089508958FEF9FEF08956F
:101E30008FEF9FEF08958091560290E091958195E4
:101E400091090895CF93DF9300D0CDB7DEB7CB01D2
:101E5000642F49835A830E94EC0E4981842F5A8152
:101E6000952F0F900F90DF91CF910895CF93DF932F
:101E70001F92CDB7DEB7698361E0CE0101960E9463
:101E8000EC0E81E090E00F90DF91CF9108951F92CA
:101E90000F920FB60F9211240F900FBE0F901F904C
:101EA00018951F920F920FB60F9211242F933F9304
:101EB0004F935F936F937F938F939F93AF93BF9352
:101EC000EF93FF938091B900887F803609F49CC01E
:101ED00068F5883209F45BC090F4803109F454C08D
:101EE00038F4882309F4F6C0883009F44DC0F6C0F0
:101EF000883109F44CC0803209F45DC0EFC08034F1
:101F000009F468C048F4803309F455C0883309F0F7
:101F1000E5C080939E02D8C0803509F44FC0883553
:101F200009F45DC0883409F0D9C0D6C0883909F4F5
:101F3000C7C0A8F4883709F467C038F4883609F4B4
:101F400063C0803709F460C0C9C0883809F4B8C0DC
:101F5000803909F45FC0803809F0C0C05BC0803BA5
:101F600009F486C038F4803A09F466C0883A09F466
:101F70007FC0B4C0803C09F4A7C0883C09F4A4C069
:101F8000883B09F48AC0AAC08091C40210C0909115
:101F9000C3028091C202981770F5E091C30281E0FC
:101FA0008E0F8093C302F0E0EE55FD4F8081809349
:101FB000BB0085EC86C080939E028EC0E091C30278
:101FC00081E08E0F8093C3028091BB00F0E0EE555C
:101FD000FD4F80839091C3028091C2026EC0E09158
:101FE000C30281E08E0F8093C3028091BB00F0E0BA
:101FF000EE55FD4F80838091A10281116DC081E07B
:102000008093A00284EA61C083E080939F021092D3
:102010009D02CFCF80919D02803208F051C0E091A7
:102020009D0281E08E0F80939D028091BB00F0E0C5
:10203000E358FD4F8083BDCF85EC8093BC001092A8
:102040009F0280919D02803230F4E0919D02F0E089
:10205000E358FD4F108260919D0270E0E0917B0299
:10206000F0917C028DE792E0099510929D0236C0B6
:1020700084E080939F0210927A0210927902E0919C
:102080007702F0917802099580917902811105C05B
:1020900081E08093790210925702E0917A0281E008
:1020A0008E0F80937A02F0E0E95AFD4F8081809391
:1020B000BB0090917A0280917902981708F479CF49
:1020C00085E88093BC000AC085EC8093BC00109228
:1020D0009F0204C010929E020E94E20EFF91EF91B7
:1020E000BF91AF919F918F917F916F915F914F9130
:1020F0003F912F910F900FBE0F901F9018958F92C8
:102100009F92AF92BF92CF92DF92EF92FF920F9386
:102110001F93CF93DF935C016B01FC01848095805A
:1021200033EFE32E33E0F32E00E010E0CFEFDFEFEC
:10213000F701848195818815990539F4B501C701A6
:102140000E94A027892B09F4E8010F5F1F4FF6E0DA
:10215000EF0EF11C0031110559F782E0C816D104C9
:1021600061F0E3E0CE16D10469F0CA94CD2889F479
:10217000CC0FDD1FCE5DDD4F09C0CC0FDD1FCE5F64
:10218000DD4F04C0CC0FDD1FC050DF4F8881998127
:1021900001C0CE01DF91CF911F910F91FF90EF9081
:1021A000DF90CF90BF90AF909F908F9008955F92F7
:1021B0006F927F928F929F92AF92BF92CF92DF9257
:1021C000EF92FF920F931F93CF93DF938C015B01EC
:1021D0006A017901FC0184809580612C712CCFEF1C
:1021E000DFEF46E0542E569CC001579C900D112401
:1021F0008D509C4FFC01248135812815390549F407
:10220000B8010E94A027892B21F4E30130E1632E5D
:10221000712CFFEF6F1A7F0A80E1681671041CF3BE
:10222000CE01880F991FFC01EE5DFD4FB182A082A7
:10223000FC01EE5FFD4FD182C082FC01E050FF4FF8
:10224000F182E082DF91CF911F910F91FF90EF908B
:10225000DF90CF90BF90AF909F908F907F906F90C6
:102260005F900895109268041092670410926604BB
:102270001092650480916D0490916E04892B49F051
:102280008091630490916404069790936404809312
:10229000630410926E0410926D040895AF92BF9281
:1022A000CF92DF92EF92FF920F931F93CF93DF9322
:1022B00000D000D0CDB7DEB78C015B01BA01550F5D
:1022C000880B990B0E94A7332BED3FE049E450E4C3
:1022D0000E94E23320E030E044E353E40E947A3588
:1022E0000E9461369B01AC01B801110F880B990B5C
:1022F00029833A834B835C830E94A7336B017C0163
:10230000B501BB0C880B990B0E94A73329813A8138
:102310004B815C810E94E2339B01AC01C701B60195
:102320000E9409350E94EC35CB010F900F900F9061
:102330000F90DF91CF911F910F91FF90EF90DF9061
:10234000CF90BF90AF900895AF92BF92CF92DF929F
:10235000EF92FF920F931F93CF93DF9300D000D0A3
:10236000CDB7DEB78C015B01BA01550F880B990B15
:102370000E94A7332BED3FE049E450E40E94E23392
:1023800020E030E044E353E40E947A350E94753542
:102390009B01AC01B801110F880B990B29833A837B
:1023A0004B835C830E94A7336B017C01B501BB0C9E
:1023B000880B990B0E94A73329813A814B815C815C
:1023C0000E94E2339B01AC01C701B6010E940935AE
:1023D0000E94EC35CB010F900F900F900F90DF9182
:1023E000CF911F910F91FF90EF90DF90CF90BF9012
:1023F000AF9008954F925F926F927F928F929F92CB
:10240000AF92BF92CF92DF92EF92FF920F931F9302
:10241000CF93DF93CDB7DEB72C970FB6F894DEBF1E
:102420000FBECDBF89E2482E81E0582E9BE0E92EF9
:1024300094E0F92E00E010E028E6822E992493948F
:10244000F201619171912F01072E000C880B990BFD
:102450000E94A73320E030E048E455E40E947A353A
:1024600020E030E044EB53E40E94E2330E94EC357C
:10247000CB01B4010E94B2363C01F2EF6F1AFEEFBD
:102480007F0A28E6621621E0720624F03C01EAE5A4
:102490006E1A71088091F1039091F203A090CC0222
:1024A000B090CD02A3010115110551F466E470E06E
:1024B0000E94A4110F976C01A3016CE470E009C0A5
:1024C00064E670E00E94A4110F976C01A30164E61A
:1024D00070E0C5010E944E110F975C01B701CE015B
:1024E00001960E945A28BE016F5F7F4FCE0107966A
:1024F0000E945A2822E030E0A501B601CE010796DD
:102500000E94D710CE0107960E941D2820E23DEFC1
:1025100043E050E0B501C6010E94EC23CE010196D4
:102520000E941D280F5F1F4FF6E0EF0EF11C0730D1
:10253000110509F085CF2C960FB6F894DEBF0FBEBB
:10254000CDBFDF91CF911F910F91FF90EF90DF9062
:10255000CF90BF90AF909F908F907F906F905F9043
:102560004F9008954F925F926F927F928F929F92B9
:10257000AF92BF92CF92DF92EF92FF920F931F9391
:10258000CF93DF9300D000D000D0CDB7DEB73C01B1
:1025900020915D0430915E04C901859797FD0396F3
:1025A0009595879595958795909301028093000264
:1025B00010926804109267041092660410926504E9
:1025C00033EF832E33E0932EA12CB12C4EE0C42E9A
:1025D000D12C59E0452E512C20910002309101025E
:1025E0006A147B0429F498E1E92E96ECF92E04C0D4
:1025F0008FEEE82E8BE7F82E04E110E046E050E085
:10260000B60185E594E00E942821B401CE0101962F
:102610000E945A2821E030E046E050E0B601CE01A9
:1026200001960E94D710CE0101960E941D28C60176
:1026300002969093620480936104509264044092E5
:102640006304B40185E594E00E9489280E94321158
:102650008FEFA81AB80A84E0A816B10469F0809137
:10266000000290910102C80ED91E83E0C80ED11C51
:1026700086E0880E911CB0CF26960FB6F894DEBF88
:102680000FBECDBFDF91CF911F910F91FF90EF90C3
:10269000DF90CF90BF90AF909F908F907F906F9082
:1026A0005F904F9008952F923F924F925F926F925A
:1026B0007F928F929F92AF92BF92CF92DF92EF92D2
:1026C000FF920F931F93CF93DF934C016B015A013D
:1026D000E90127016090F1037090F203AC01B501AC
:1026E000C3010E94A4111C01E090CC02F090CD0225
:1026F000A401B501C7010E944E115C01A601BE01F3
:10270000C3010E94A4114C01A601BE01C7010E9491
:102710004E11800F911FA501400F511F72018C01B6
:102720009401B10185E594E00E94990CDF91CF916D
:102730001F910F91FF90EF90DF90CF90BF90AF90DF
:102740009F908F907F906F905F904F903F902F90D1
:1027500008952F923F924F925F926F927F928F9245
:102760009F92AF92BF92CF92DF92EF92FF920F9320
:102770001F93CF93DF9300D000D0CDB7DEB76111A8
:1027800007C01A821982212C312C412C512C0CC0EB
:1027900020E038EF3A83298320EE222E27E0322EE4
:1027A00030E1432E34E8532E68E671E00E94B236E1
:1027B0003C0132EF631A3EEF730AE8E66E16E1E081
:1027C0007E0624F03C01FAE56F1A710853012DE9E9
:1027D000A21A2EEFB20AC30187549F4F9C838B83AA
:1027E000430195E0890E911C6301EFEACE0ED11CE6
:1027F0006091CC027091CD0220E134E843E050E0DA
:102800008091F1039091F2030E94EC23720100E0A9
:1028100010E024E330E044E350E06B817C81C501AB
:102820000E94531324E330E044E350E0B601C401B6
:102830000E94531324E330E044E350E0B401C501A7
:102840000E94531324E330E044E350E0B6018B814F
:102850009C810E945313B101C3010E94D32469815A
:102860007A81C301845B91090F900F900F900F90B4
:10287000DF91CF911F910F91FF90EF90DF90CF905C
:10288000BF90AF909F908F907F906F905F904F9090
:102890003F902F900C94D324FC01918D828D98173A
:1028A00061F0828DDF01A80FB11D5D968C91928D34
:1028B0009F5F9F73928F90E008958FEF9FEF089531
:1028C000FC01918D828D981731F0828DE80FF11DFA
:1028D000858D90E008958FEF9FEF0895FC01918D15
:1028E000228D892F90E0805C9F4F821B91098F730E
:1028F000992708958EEC92E00E946E1421E0892BB6
:1029000009F420E0822F0895FC01848DDF01A80FD7
:10291000B11DA35ABF4F2C91848D90E001968F7307
:102920009927848FA689B7892C93A089B1898C9126
:1029300080648C93938D848D981306C00288F389EC
:10294000E02D80818F7D80830895EF92FF920F9319
:102950001F93CF93DF93EC0181E0888F9B8D8C8D4B
:10296000981305C0E889F989808185FD24C0F62E79
:102970000B8D10E00F5F1F4F0F731127E02E8C8D12
:10298000E8120CC00FB607FCFACFE889F9898081FC
:1029900085FFF5CFCE010E948414F1CF8B8DFE010F
:1029A000E80FF11DE35AFF4FF0820B8FEA89FB8994
:1029B0008081806207C0EE89FF896083E889F98998
:1029C00080818064808381E090E0DF91CF911F91CE
:1029D0000F91FF90EF900895CF93DF93EC01888DD6
:1029E0008823C9F0EA89FB89808185FD05C0A88913
:1029F000B9898C9186FD0FC00FB607FCF5CF808199
:102A000085FFF2CFA889B9898C9185FFEDCFCE01E2
:102A10000E948414E7CFDF91CF91089580E090E089
:102A2000892B29F00E947A1481110C9400000895DA
:102A30003FB7F8948091C8029091C902A091CA0250
:102A4000B091CB0226B5A89B05C02F3F19F0019687
:102A5000A11DB11D3FBFBA2FA92F982F8827820F24
:102A6000911DA11DB11DBC01CD0142E0660F771F74
:102A7000881F991F4A95D1F70895FC01A58DB68D41
:102A80009C9180A589238C938BB1962F9C7F83701A
:102A9000892B8BB985B163708C7F682B65B9A78D45
:102AA000B0A19C9181A589238C93A78DB0A19C9105
:102AB00085A1892B8C93A58DB68D9C9184A1892BA2
:102AC0008C938BB1942F9C7F8370892B8BB985B1AC
:102AD00043708C7F482B45B9A78DB0A19C9181A5EF
:102AE00089238C93A78DB0A19C9185A1892B8C9370
:102AF00008950E94E6381F920F920FB60F9211248C
:102B00002F933F934F935F936F937F938F939F93F5
:102B1000AF93BF93EF93FF938EEC92E00E948414E7
:102B2000FF91EF91BF91AF919F918F917F916F91A5
:102B30005F914F913F912F910F900FBE0F901F907B
:102B400018951F920F920FB60F9211242F938F9307
:102B50009F93EF93FF93E091DE02F091DF0280817B
:102B6000E091E402F091E50282FD12C09081809133
:102B7000E7028F5F8F732091E802821751F0E09196
:102B8000E702F0E0E253FD4F958F8093E70201C02A
:102B90008081FF91EF919F918F912F910F900FBEA8
:102BA0000F901F901895833081F028F4813099F0B0
:102BB0008230A1F008958730A9F08830B9F08430D0
:102BC000D1F4809180008F7D03C0809180008F7749
:102BD00080938000089584B58F7702C084B58F7D7F
:102BE00084BD08958091B0008F7703C08091B000BC
:102BF0008F7D8093B00008951F93CF93DF93282F8C
:102C000030E0F901EC56F74E8491F901E855F74EA2
:102C1000D491F901EA53F74EC491CC23C9F0162F91
:102C200081110E94D315EC2FF0E0EE0FFF1FE4544A
:102C3000F74EA591B4918FB7F894111105C09C91EE
:102C4000ED2FE095E92302C0EC91ED2BEC938FBFC3
:102C5000DF91CF911F910895CF93DF9390E0FC0116
:102C6000E855F74E2491FC01EA53F74E84918823EE
:102C700061F190E0880F991FFC01E652F84FC59171
:102C8000D491FC01E454F74EA591B491611109C0AF
:102C90009FB7F8948881209582238883EC912E2316
:102CA0000BC0623061F49FB7F8943881822F809511
:102CB00083238883EC912E2B2C939FBF06C08FB764
:102CC000F894E8812E2B28838FBFDF91CF91089550
:102CD0008E3008F08E508770806480937C008091E5
:102CE0007A00806480937A0080917A0086FDFCCF20
:102CF000809178002091790090E0922B08958F9236
:102D00009F92AF92BF92CF92DF92EF92FF926B01B0
:102D10007C010E9418154B015C01C114D104E1042F
:102D2000F104F1F00E941815DC01CB018819990912
:102D3000AA09BB09883E9340A105B10570F321E0C3
:102D4000C21AD108E108F10888EE880E83E0981EC7
:102D5000A11CB11CC114D104E104F10419F7DDCFA9
:102D6000FF90EF90DF90CF90BF90AF909F908F90AB
:102D700008951F920F920FB60F9211242F933F9335
:102D80008F939F93AF93BF938091FC019091FD012E
:102D9000A091FE01B091FF013091C70223E0230F03
:102DA0002D3720F40196A11DB11D05C026E8230F83
:102DB0000296A11DB11D2093C7028093FC01909340
:102DC000FD01A093FE01B093FF018091C802909194
:102DD000C902A091CA02B091CB020196A11DB11DFA
:102DE0008093C8029093C902A093CA02B093CB0209
:102DF000BF91AF919F918F913F912F910F900FBEF7
:102E00000F901F901895CF92DF92EF92FF92FC01E6
:102E1000A38DB48D9C9187A189238C93A58DB68DAC
:102E20009C9180A589238C938BB1962F9C7F837076
:102E3000892B8BB985B163708C7F682B65B9A78DA1
:102E4000B0A19C9181A589238C93A78DB0A19C9161
:102E500085A1892B8C93A58DB68D9C9184A1892BFE
:102E60008C9383E290E0DC011197F1F77BB1C52EE2
:102E7000DD24EE24FF246C2D6C7F7370762B7BB9E0
:102E800065B17C2D73706C7F672B65B9A78DB0A180
:102E90007C9161A567236C93A78DB0A17C9165A1FE
:102EA000672B6C93DC011197F1F77BB16A01EE247B
:102EB000FF246C2D6C7F7370762B7BB965B17C2DF4
:102EC00073706C7F672B65B9A78DB0A17C9161A5EC
:102ED00067236C93A78DB0A17C9165A1672B6C9340
:102EE000DC011197F1F77BB1C32ED42EE52EFF2420
:102EF0006C2D6C7F7370762B7BB965B17C2D7370F4
:102F00006C7F672B65B9A78DB0A17C9161A5672304
:102F10006C93A78DB0A17C9165A1672B6C930197F1
:102F2000F1F78BB1922F9C7F8370892B8BB985B180
:102F300023708C7F282B25B9A78DB0A19C9181A5EA
:102F400089238C93A78DB0A19C9185A1892B8C930B
:102F5000A38DB48D9C9183A1892B8C93FF90EF90CE
:102F6000DF90CF900895FC01A58DB68D9C9180A532
:102F700089238C938BB1962F9C7F8370892B8BB97F
:102F800085B163708C7F682B65B9A78DB0A19C91CA
:102F900081A589238C93A78DB0A19C9185A1892BB4
:102FA0008C93A58DB68D9C9184A1892B8C938BB12C
:102FB000932F9C7F8370892B8BB985B133708C7F65
:102FC000382B35B9A78DB0A19C9181A589238C930D
:102FD000A78DB0A19C9185A1892B8C93A58DB68DD1
:102FE0009C9180A589238C938BB1942F9C7F8370B7
:102FF000892B8BB985B143708C7F482B45B9A78D40
:10300000B0A19C9181A589238C93A78DB0A19C919F
:1030100085A1892B8C93A58DB68D9C9184A1892B3C
:103020008C938BB1922F9C7F8370892B8BB985B148
:1030300023708C7F282B25B9A78DB0A19C9181A5E9
:1030400089238C93A78DB0A19C9185A1892B8C930A
:103050000895FC01A58DB68D9C9180A589238C9344
:103060008BB1972F9C7F8370892B8BB985B173703F
:103070008C7F782B75B9A78DB0A19C9181A58923F0
:103080008C93A78DB0A19C9185A1892B8C938BB13A
:10309000962F9C7F8370892B8BB985B163708C7F51
:1030A000682B65B9A78DB0A19C9181A589238C93CC
:1030B000A78DB0A19C9185A1892B8C93A58DB68DF0
:1030C0009C9184A1892B8C938BB1952F9C7F8370CD
:1030D000892B8BB985B153708C7F582B55B9A78D2F
:1030E000B0A19C9181A589238C93A78DB0A19C91BF
:1030F00085A1892B8C938BB1942F9C7F8370892B16
:103100008BB985B143708C7F482B45B9A78DB0A191
:103110009C9181A589238C93A78DB0A19C9185A1B9
:10312000892B8C930895EF92FF920F931F93CF9367
:10313000DF93EC010E94C11AEB8DFC8D90818FA171
:10314000892380838A8D811122C0ED89E150E3308B
:1031500040F4F0E0EE0FFF1FEA5BFE4F408151812B
:1031600002C040E350E163E070E0CE010E94291804
:103170000A851B850150110928853985215031099F
:1031800040E050E060E070E0CE010E9458208A8D5F
:10319000813089F4ED89E150E33028F4F0E0ED5B13
:1031A000FE4F408101C040E066E1CE010E943D1526
:1031B000CE010E9434208A8D823039F58D8981308C
:1031C00071F050F0823029F0833059F458E2E52E46
:1031D00008C068E4E62E05C048E8E42E02C038EED8
:1031E000E32E4E2D66E3CE010E943D150A851B8518
:1031F00001501109288539852150310940E050E0FE
:1032000060E070E0CE010E9458208A8D833031F555
:103210008D89813069F048F0823029F0833051F493
:1032200020E6F22E07C0F12C05C090ECF92E02C06A
:1032300080EAF82E4F2D66E3CE010E943D150A85E7
:103240001B8501501109288539852150310940E03D
:1032500050E060E070E0CE010E945820DF91CF91F5
:103260001F910F91FF90EF900895AF92BF92CF9270
:10327000DF92EF92FF920F931F93CF93DF93EC01B6
:103280007B016A01B22EA32E77FD1BC157FD19C128
:1032900088859985681779070CF013C18A859B8505
:1032A000481759070CF00DC1EB8DFC8D90818FA153
:1032B000892380838A8D811135C08D89823059F0B0
:1032C0008330B1F08130D1F48FEE90E0841B950B08
:1032D0006B017C0113C08FEE90E09C01261B370B25
:1032E00079018FE391E09C01241B350B690106C035
:1032F0008FE391E0861B970B7A016C01A70160E2D6
:1033000070E0CE010E942918A60161E270E0CE01B2
:103310000E9429184B2D5A2D62E270E0CE010E94C6
:103320002918C9C0813009F060C0ED89E150E3304F
:1033300028F4F0E0E05CFE4F408101C040E066E12F
:10334000CE010E943D15970143E062E0CE010E944C
:10335000B317960147E066E0CE010E94B317ED8DEA
:10336000FE8D908188A5892380838BB183708062D4
:103370008BB985B18C7F826085B9EF8DF8A1908182
:1033800089A589238083EF8DF8A190818DA1892B58
:103390008083ED8DFE8D90818CA1892B80838BB1F4
:1033A0009A2D9C7F8370892B8BB985B19A2D937050
:1033B0008C7FA92EA82AA5B8EF8DF8A1908189A5A8
:1033C00089238083EF8DF8A190818DA1892B808343
:1033D0008BB19B2D9C7F8370892B8BB985B19B2DE5
:1033E00093708C7FB92EB82A59C08250823008F071
:1033F00062C00A851B850150110928853985215035
:103400003109CE010E945820EB8DFC8D90818FA157
:1034100089238083ED8DFE8D908188A5892380830B
:103420008BB183708C628BB985B18C7F85B9EF8D40
:10343000F8A1908189A589238083EF8DF8A19081DF
:103440008DA1892B8083ED8DFE8D90818CA1892BA0
:1034500080838BB19A2D9C7F8370892B8BB995B11A
:103460008A2D83709C7FA82EA92AA5B8EF8DF8A17C
:10347000908189A589238083EF8DF8A190818DA10A
:10348000892B80838BB19B2D9C7F8370892B8BB97B
:1034900095B18B2D83709C7FB82EB92AB5B8EF8D6E
:1034A000F8A1908189A589238083EF8DF8A190816F
:1034B0008DA1892B8083EB8DFC8D90818BA1892B35
:1034C0008083DF91CF911F910F91FF90EF90DF905C
:1034D000CF90BF90AF900895EF92FF920F931F93FC
:1034E000CF93DF93EC017B018A8D811129C02D8957
:1034F0002150233078F430E0F901E35CFE4F808105
:10350000482F50E0220F331FF901E95CFE4F008184
:10351000118104C000E010E040E050E0EB8DFC8D34
:1035200030812FA12323208360E270E0CE010E942E
:103530002918A80161E270E0CE010E94291812C08A
:103540008150833078F40A851B8501501109288544
:1035500039852150310940E050E060E070E0CE0153
:103560000E94582020E03CE241E050E0B701CE014B
:10357000DF91CF911F910F91FF90EF900C94211E3E
:103580000895FC016370658B848195812681378164
:10359000613039F0633029F0918780873387228743
:1035A0000895318720879387828708952F923F92CD
:1035B0004F925F926F927F928F929F92AF92BF9243
:1035C000CF92DF92EF92FF920F931F93CF93DF93EF
:1035D000CDB7DEB76C970FB6F894DEBF0FBECDBF88
:1035E0009C8F8B8F5B011A011F830E833701C98269
:1035F000DC0158964D915C9159974115510509F0A0
:10360000E5C018968D919C911997681779070CF071
:10361000CAC11A968D919C911B97281639060CF0F9
:10362000C2C18C2C912CFB0136E0C39EE00DF11D34
:103630001124FB87EA871E161F060CF0B4C1C401D3
:1036400033E0880F991F3A95E1F79D878C87820DAB
:10365000931D181619060CF0A6C157968C9181116E
:1036600003C0203B08F02F5FAB8DBC8DED91FC912A
:1036700011970680F781E02DCD012A8F09952A8DBB
:10368000B5E02B9F90011124F5013596FF87EE8759
:10369000BB82AA822501A9014A195B09598B488B73
:1036A000C10108969B8B8A8BE889F989E40DF51D89
:1036B000EC51F84F9491988761013D822C82A88546
:1036C000A0FF13C0AB8DBC8DED91FC91B981B130E1
:1036D00031F40084F185E02D2E813F8116C00284F3
:1036E000F385E02DEE80FF801AC0EE81FF816E161B
:1036F0007F06F1F0AB8DBC8DED91FC91B981B130BD
:1037000051F40084F185E02D9301A601B2018B8D67
:103710009C8D09950DC00284F385E02D7301840111
:1037200094014C815D816A817B818B8D9C8D099593
:10373000E885E695E887FFEFCF1ADF0A2C813D8107
:10374000280D391D3D832C834A895B89C416D50613
:1037500009F0B5CF5FEF451A550A8A819B81880D24
:10376000991D9B838A83AE85BF854A165B0609F047
:103770009BCFEE81FF816E167F0609F4F2C0EB8DC0
:10378000FC8DA081B181F981F13079F4B5016B5FD5
:103790007F4F1C96ED91FC911D97830128E030E04E
:1037A000A1018B8D9C8D0995DCC06A857B8568198C
:1037B00079091A96ED91FC911B9773010C851D8573
:1037C0009401A1018B8D9C8D0995CBC0FA01349693
:1037D0009491329765917491291BCB01B7E02B9F8F
:1037E000800D911D1124FA01259134913B8B2A8B78
:1037F000FC01459154915B834A83FC013296C4904D
:10380000319654915E87329614913196D490898185
:10381000823058F0612E012E000C7708AD2D0D2C52
:10382000000CBB0BB987A88704C019861886612CC9
:10383000712CAB8DBC8DED91FC9111970680F781B9
:10384000E02DCD010995B9818B2E912C689CC0018A
:10385000699C900D789C900D1124FC01EA0DFB1DD4
:10386000FD87EC871C82712C612CE12F110FFF0B5F
:1038700095012E0F3F1F3B872A87AC0CB11CA50179
:103880004E0F5F1F5F8B4E8BC1018D0D911DD7FCBD
:103890009A95998F888F4E85641608F062C0862DA0
:1038A00090E048855985480F591F489D9001499DD2
:1038B000300D589D300D1124D901A20DB31DB98BC7
:1038C000A88BAA84BB844C845D84DC80BA85DB1A17
:1038D000E88DF98DE80FF91FFD8BEC8B8D2D8A0D8E
:1038E0002E893F89A216B306B9F1877061F48A81E7
:1038F0009B810196EA89FB89AA81BB81EA0FFB1FA4
:1039000074909B838A8377FE20C0AB8DBC8DED9134
:10391000FC91B981B13061F40084F185E02D2E81F4
:103920003F814C895D89B5018B8D9C8D09950DC0BA
:103930000284F385E02DEE80FF80840194014889A4
:103940005989B2018B8D9C8D0995770CEFEFAE1ADA
:10395000BE0A480C591CC2CF3C813C0D3C83639489
:103960009ACFAB8DBC8DED91FC9111970288F389B4
:10397000E02DCD016C960FB6F894DEBF0FBECDBF23
:10398000DF91CF911F910F91FF90EF90DF90CF903B
:10399000BF90AF909F908F907F906F905F904F906F
:1039A0003F902F9009946C960FB6F894DEBF0FBE2F
:1039B000CDBFDF91CF911F910F91FF90EF90DF90DE
:1039C000CF90BF90AF909F908F907F906F905F90BF
:1039D0004F903F902F900895AF92BF92CF92EF9269
:1039E000FF920F931F93CF93DF93EC01262F888DC7
:1039F000998D009709F040C06A3059F41D861C86E5
:103A00002C898E859F8538E0239F800D911D112480
:103A100041C06D3009F4AAC08E898823C1F03C8969
:103A20008C859D8546E0349F800D911D112448852D
:103A30005985481759075CF41D861C868E859F851D
:103A400048E0349F800D911D11249F878E87EA885E
:103A5000FB88088919894E855F856C857D85CC88B2
:103A6000CE010E94D61A2C898C859D8536E0239F35
:103A7000800D911D112442C06A3079F41D861C8688
:103A80002C89FC013696E4918E859F852E9F800DB2
:103A9000911D11249F878E8769C06D3009F466C01F
:103AA000FC0134963491631708F460C03196E491B8
:103AB000E61708F45BC0FC013296A590B490462F3F
:103AC00050E0431B510937E0349FB001359F700D22
:103AD0001124A60EB71EF501329634913196E49169
:103AE000332311F0E1110DC0F5013496E4912C89D6
:103AF0008C859D85E29F800D911D11249D878C876B
:103B000035C0F501359644915E89552311F16C89D4
:103B1000E32FF0E0E40FF11D47FDFA956E9FD00111
:103B20006F9FB00D11244C855D854A0F5B1FE885A2
:103B3000F985E417F5076CF41D861C86FC013696A2
:103B4000E4918E859F856E9F800D911D11249F8726
:103B50008E87EA88FB88088919894E855F856C8580
:103B60007D85CC88CE010E94D61ABECF81E090E040
:103B7000DF91CF911F910F91FF90EF90CF90BF9069
:103B8000AF9008956F927F928F929F92AF92BF9263
:103B9000CF92DF92EF92FF920F931F93CF93DF9319
:103BA000EC014B015A0169013801E881F981068075
:103BB000F781E02D0995E881F9810684F785E02DEC
:103BC00087019601A501B401CE010995E881F9812B
:103BD000A501460D571D415051090684F785E02D7A
:103BE0009601B401CE010995E881F9810484F58537
:103BF000E02D9301A501B401CE010995E881F98179
:103C0000C80CD91CB601615071090484F585E02DFA
:103C10009301A501CE010995E881F9810288F38914
:103C2000E02DCE01DF91CF911F910F91FF90EF908A
:103C3000DF90CF90BF90AF909F908F907F906F90CC
:103C40000994AF92BF92CF92DF92EF92FF920F93BF
:103C50001F93CF93DF93FC01A38DB48D9C9187A11B
:103C600089238C93A58DB68D9C9180A589238C93F7
:103C7000828D8230B9F0811113C08BB183708BB902
:103C800085B18C7F85B9A78DB0A19C9181A5892331
:103C90008C93A78DB0A19C9185A1892B8C9309C091
:103CA000833039F48BB183708C628BB985B18C7F92
:103CB00007C08BB1837080628BB985B18C7F8260C5
:103CC00085B9A78DB0A19C9181A589238C93A78DDF
:103CD000B0A19C9185A1892B8C93A58DB68D9C91CB
:103CE00084A1892B8C938BB1972F9C7FB92E8370E5
:103CF000892B8BB985B1A72FA370AA2E8C7F8A2B15
:103D000085B9C78DD0A1988181A589238883C78D66
:103D1000D0A1988185A1892B88838BB1C62FCC7FB8
:103D200083708C2B8BB985B1D62FD3708C7F8D2B64
:103D300085B9078D10A1D8019C9181A589238C9309
:103D4000078D10A1D8019C9185A1892B8C932150BE
:103D500031094109510969017A0186E0F694E79435
:103D6000D794C7948A95D1F7C601761348C10197B5
:103D700008F465C060E1A78DB0A1CC9171A57C234A
:103D80007C93A78DB0A1CC9175A17C2B7C93A78D42
:103D9000B0A1CC9171A57C237C93A78DB0A1CC91CF
:103DA00075A17C2B7C93A78DB0A1CC9171A57C23B0
:103DB0007C93A78DB0A1CC9175A17C2B7C93A78D12
:103DC000B0A1CC9171A57C237C93A78DB0A1CC919F
:103DD00075A17C2B7C93A78DB0A1CC9171A57C2380
:103DE0007C93A78DB0A1CC9175A17C2B7C93A78DE2
:103DF000B0A1CC9171A57C237C93A78DB0A1CC916F
:103E000075A17C2B7C93A78DB0A1CC9171A57C234F
:103E10007C93A78DB0A1CC9175A17C2B7C93A78DB1
:103E2000B0A1CC9171A57C237C93A78DB0A1CC913E
:103E300075A17C2B7C93615009F09DCF98CF2F7397
:103E40002150C8F0A78DB0A19C9181A589238C93A6
:103E5000A78DB0A19C9185A1892B8C93A78DB0A132
:103E60009C9181A589238C93A78DB0A19C9185A15C
:103E7000892B8C93E5CFA38DB48D9C9183A1892B45
:103E80008C93DF91CF911F910F91FF90EF90DF9076
:103E9000CF90BF90AF9008956BB163706B296BB9F1
:103EA00065B16C7F6A2965B9078D10A1D801FC90B6
:103EB00061A56F216C93078D10A1D801FC9065A1BD
:103EC0006F296C936BB163706C2B6BB965B16C7FB0
:103ED0006D2B65B9078D10A1D801FC9061A56F21EC
:103EE0006C93078D10A1D801FC9065A16F296C938C
:103EF0006BB163706B296BB965B16C7F6A2965B969
:103F0000078D10A1D801FC9061A56F216C93078DDE
:103F100010A1D801FC9065A16F296C936BB16370FF
:103F20006C2B6BB965B16C7F6D2B65B9078D10A1DA
:103F3000D801FC9061A56F216C93078D10A1D80169
:103F4000FC9065A16F296C936BB163706B296BB9A1
:103F500065B16C7F6A2965B9078D10A1D801FC9005
:103F600061A56F216C93078D10A1D801FC9065A10C
:103F70006F296C936BB163706C2B6BB965B16C7FFF
:103F80006D2B65B9078D10A1D801FC9061A56F213B
:103F90006C93078D10A1D801FC9065A16F296C93DB
:103FA0006BB163706B296BB965B16C7F6A2965B9B8
:103FB000078D10A1D801FC9061A56F216C93078D2E
:103FC00010A1D801FC9065A16F296C936BB163704F
:103FD0006C2B6BB965B16C7F6D2B65B9078D10A12A
:103FE000D801FC9061A56F216C93078D10A1D801B9
:103FF000FC9065A16F296C93715009F04DCF01972A
:1040000010F070E149CF2F73215008F434CF8BB1F9
:1040100083708B298BB985B18C7F8A2985B9478DAF
:1040200050A1DA019C9181A589238C93478D50A1E1
:10403000DA019C9185A1892B8C938BB183708C2B99
:104040008BB985B18C7F8D2B85B9478D50A1DA0155
:104050009C9181A589238C93478D50A1DA019C9175
:1040600085A1892B8C93D0CFCF93DF93EC01EB8D7F
:10407000FC8D90818FA189238083288539852150EB
:10408000310945E064E0CE010E94B3172A853B85E3
:104090002150310949E068E0CE010E94B317EB8D51
:1040A000FC8D90818BA1892B8083DF91CF91089526
:1040B0008F929F92AF92BF92CF92DF92EF92FF9238
:1040C0000F931F93CF93DF93EC017A016901EB8D7E
:1040D000FC8D30812FA1232320832A8D21115EC0E6
:1040E0002D89223089F0233021F1213081F52FEE06
:1040F00030E0A901401B510B5B0149018E189F085C
:10410000860164017B0113C02FEE30E0A9014C1938
:104110005D096901C61AD70A8FE391E09C01201B53
:10412000310B8C010E191F09580146017901BA01A2
:1041300010C02FE331E0A9014C195D095901A61AFD
:10414000B70A470168018501B7017A0102C05A0127
:104150004B01AB0160E570E0CE010E942918A60179
:1041600061E570E0CE010E942918A70162E570E0C8
:10417000CE010E942918A80163E570E0CE010E94DB
:104180002918A40160E270E0CE010E942918A5015F
:1041900061E270E0CE010E94291847C02130C1F4CD
:1041A0009B0143E062E00E94B317970147E066E09D
:1041B000CE010E94B317960145E064E0CE010E9453
:1041C000B317980149E068E0CE010E94B3172DC0F3
:1041D0002250223050F5CB01770FAA0BBB0BDC012C
:1041E00099278827A601DD0C660B770B9A01AB0196
:1041F000282B392B4A2B5B2B6AE2CE010E94031736
:10420000C701FF0CAA0BBB0BDC0199278827A8016B
:10421000110F660B770B9A01AB01282B392B4A2B18
:104220005B2B6BE2CE010E940317EB8DFC8D90811E
:104230008BA1892B8083DF91CF911F910F91FF90EC
:10424000EF90DF90CF90BF90AF909F908F900895A8
:104250008F929F92AF92BF92CF92DF92EF92FF9296
:104260000F931F93CF93DF93EC01470112161306B0
:104270000CF06BC0101611060CF067C0A885B9854C
:104280006A177B070CF061C0CA84DB844C155D059E
:104290000CF05BC05B01A20EB31EC501019797FD38
:1042A00054C07A01E00EF11EF7013197F7FD4DC0C1
:1042B00077FF49C060E070E057FD02C0780102C09E
:1042C00040E050E08A179B072CF0CD0101975D017B
:1042D000A61AB70AEC15FD052CF0F6013197760108
:1042E000E41AF50A8F019C01CE010E945820970123
:1042F000D5010E94C6369B01AC01B401CE010E94DB
:10430000211E8A8D811110C00A851B85015011095B
:10431000288539852150310940E050E060E070E0A7
:10432000CE010E94582011C0CE01DF91CF911F9184
:104330000F91FF90EF90DF90CF90BF90AF909F9044
:104340008F900C9434205901B7CFDF91CF911F91FA
:104350000F91FF90EF90DF90CF90BF90AF909F9024
:104360008F900895CF92DF92EF92FF920F931F9359
:10437000CF93DF93EC016801121613060CF04FC0C7
:1043800077FD4DC088859985681779070CF047C07F
:10439000EA85FB854E175F070CF041C07A01E20EFB
:1043A000F31E87010150110917FD39C057FF35C0B1
:1043B00040E050E00E171F0734F08F010150110943
:1043C0007F01E41AF50A9B01CE010E945820970153
:1043D000FF0C440B550BB601CE010E94211E8A8DA5
:1043E000811110C00A851B85015011092885398566
:1043F0002150310940E050E060E070E0CE010E94C1
:1044000058200DC0CE01DF91CF911F910F91FF90E9
:10441000EF90DF90CF900C9434207901CBCFDF91D7
:10442000CF911F910F91FF90EF90DF90CF90089563
:10443000CF92DF92EF92FF920F931F93CF93DF9370
:10444000EC016801121613060CF04EC057FD4CC06B
:104450008A859B85481759070CF046C0E885F98581
:104460006E177F070CF040C07B01E20EF31EC70100
:10447000019797FD39C077FF35C060E070E08E1777
:104480009F072CF0CF0101977F01E61AF70A8A01F6
:104490009C01CE010E9458209701FF0C440B550B44
:1044A000B601CE010E94211E8A8D811110C00A859D
:1044B0001B8501501109288539852150310940E0BB
:1044C00050E060E070E0CE010E9458200DC0CE01A7
:1044D000DF91CF911F910F91FF90EF90DF90CF90E0
:1044E0000C9434207901CBCFDF91CF911F910F91A4
:1044F000FF90EF90DF90CF9008952F923F924F92D0
:104500005F926F927F928F929F92AF92BF92CF9263
:10451000DF92EF92FF920F931F93CF93DF9300D020
:1045200000D000D0CDB7DEB75C014B015E834D8378
:10453000280181E090E03C01641A750ACA01919556
:1045400081959109AC01440F551F5A834983180185
:10455000CC24C394D12C522F51705B8322702C83B6
:10456000C60101972D813E81821793070CF068C028
:1045700077FC0CC08D819E8101979E838D83E9819C
:10458000FA813296FA83E9836E0E7F1EC601880F88
:10459000991F0196680E791EFB81FF2319F12D8169
:1045A0003E81220F331F2F5F3F4F240D351D8701A2
:1045B000A4018D819E81481B590BB6016A0D7B1D9C
:1045C00085E594E00E94240E91012D5F3F4FA401E8
:1045D0004C195D096D817E816A0D7B1D85E594E036
:1045E0000E94240E9C81992321F12D813E81220F6E
:1045F000331F2F5F3F4F240D351D8701A401ED812F
:10460000FE814E1B5F0BB5016C197D0985E594E0B9
:104610000E94240E91012D5F3F4FA4014C195D09AA
:10462000B5018D819E81681B790B85E594E00E9420
:10463000240E9FEFC91AD90AE2E02E0E311C90CF4A
:1046400026960FB6F894DEBF0FBECDBFDF91CF9197
:104650001F910F91FF90EF90DF90CF90BF90AF90A0
:104660009F908F907F906F905F904F903F902F9092
:104670000895FC0124813581232B31F421E061155B
:104680007105A1F0FB0108C0FC01808191816115D9
:10469000710531F421E0FC018081882339F005C0E7
:1046A0000E94F43821E0892B09F020E0822F089540
:1046B000AF92BF92CF92DF92EF92FF920F931F9330
:1046C000CF93DF936C015B01EA0179019A01220F1C
:1046D000331F2F5F3F4FAB014C1B5D0B8701B601B2
:1046E00085E594E00E94240E00E010E023E0AE0196
:1046F000B501C6010E947D22DF91CF911F910F91DC
:10470000FF90EF90DF90CF90BF90AF9008952F92E1
:104710003F924F925F926F927F928F929F92AF9251
:10472000BF92CF92DF92EF92FF920F931F93CF939E
:10473000DF9300D000D0CDB7DEB72C015B011A01AA
:104740003901680188279927801B910B9C01220F52
:10475000331F3C832B83C201800F911F9A8389836F
:10476000240F351F8301AB01BC0185E594E00E9455
:10477000080EEB81FC816E0E7F1EF1E06F1A71084E
:10478000AC0CBD1C420C531CC2018C199D09830149
:1047900021E0A601B50101970E947D2222E0A60139
:1047A000B50189819A810E947D220F900F900F9010
:1047B0000F90DF91CF911F910F91FF90EF90DF90BD
:1047C000CF90BF90AF909F908F907F906F905F90B1
:1047D0004F903F902F9008952F923F924F925F926B
:1047E0006F927F928F929F92AF92BF92CF92DF9201
:1047F000EF92FF920F931F93CF93DF9300D000D0DF
:1048000000D0CDB7DEB77C016B015E834D8389019B
:1048100081E090E03C01641A750ACA019195819586
:1048200091099C01220F331F3A832983460F571F9A
:104830009801B70185E594E00E94300EA6018D81B4
:104840009E81481B590B9801B70185E594E00E94B1
:10485000300E6D817E816E0D7F1D9801A60185E56C
:1048600094E00E94300EB701ED81FE816E1B7F0B3C
:104870009801A60185E594E00E94300EA12CB12C90
:1048800021E030E03C832B832D813E81A216B306CC
:104890000CF070C077FC0CC08D819E8101979E83C7
:1048A0008D83E981FA813296FA83E9836E0E7F1E49
:1048B000FFEFAF1ABF0A2B813C812E5F3F4F3C8335
:1048C0002B83620E731E25014E0C5F1C98018D8098
:1048D0009E808C0C9D1CA401B20185E594E00E9491
:1048E000300E17012A183B089801A401B10185E593
:1048F00094E00E94300E980146018D819E81881AB5
:10490000990AA401B20185E594E00E94300E980155
:10491000A401B10185E594E00E94300E45018C0CA4
:104920009D1C9801A4014D805E804E0C5F1CB2015D
:1049300085E594E00E94300E9801A4011701ED81F5
:10494000FE812E1A3F0AB10185E594E00E94300EE7
:1049500046018A189B089801A401B20185E594E0FC
:104960000E94300E9801A401B10185E594E00E94F7
:10497000300E8ACF26960FB6F894DEBF0FBECDBF9D
:10498000DF91CF911F910F91FF90EF90DF90CF902B
:10499000BF90AF909F908F907F906F905F904F905F
:1049A0003F902F900895EF92FF920F931F93CF9314
:1049B000DF93EC017B01AC0160E370E08091F103D7
:1049C0009091F2030E94A4118C01AE0160E370E0AB
:1049D0008091CC029091CD020E944E11970142E04D
:1049E00050E0BC01C801DF91CF911F910F91FF9062
:1049F000EF900C945823CF93DF93BC018EEC92E0A0
:104A00000E948928EC0163EA71E08EEC92E00E943A
:104A100097288C0F9D1FDF91CF9108952F923F9281
:104A20004F925F926F927F928F929F92AF92BF92BE
:104A3000CF92DF92EF92FF920F931F93CF93DF936A
:104A4000CDB7DEB7A8970FB6F894DEBF0FBECDBFC7
:104A50008230910561F08330910569F0019789F406
:104A60007AE0272E312CE5E0AE2EB12C0AC064E0AE
:104A7000262E312C03C05FE0252E312C44E0A42EDD
:104A8000B12C86E08A9D90018B9D300D112438A7B2
:104A90002FA3612C712C81E190E09EA38DA337E0C0
:104AA000432E512C2A143B040CF429C18FA198A544
:104AB000860D971D9C012D503C4F7901B901CE0107
:104AC00001960E945A2861E070E0CE0101960E9492
:104AD0007F104C01CE0101960E941D28B701CE0126
:104AE00001960E945A2862E070E0CE0101960E9471
:104AF0007F106C01CE0101960E941D28B701CE01E6
:104B000001960E945A2863E070E0CE0101960E944F
:104B10007F108C01CE0101960E941D28B701CE01A5
:104B20004F960E945A28BE01615E7F4FCE010196CA
:104B30000E945A284AE0B801CE0107960E94222816
:104B40004AE0B601CE010D960E9422284AE0B40147
:104B5000CE0143960E94222867EE71E0CE0149966D
:104B60000E947428BE016D5E7F4FCE0149960E945F
:104B7000E9276BEE71E00E94D027BE01635F7F4F93
:104B80000E94E92760EF71E00E94D027BE01695FB3
:104B90007F4F0E94E92765EF71E00E94D027BE0198
:104BA0006F5F7F4F0E94E9270E94FB24CE01499648
:104BB0000E941D28CE0143960E941D28CE010D960D
:104BC0000E941D28CE0107960E941D28CE01019645
:104BD0000E941D280330110519F405EE1FEA02C0DA
:104BE00008E116EC60EC71E0C7010E9439238823CC
:104BF00011F000EE1FEF62EB71E0C7010E94392354
:104C0000811107C065EB71E0C7010E943923882339
:104C100019F044244394512C63EB71E0C7010E94C6
:104C20003923811107C066EB71E0C7010E94392367
:104C3000882329F097E0492E512C0EE416EA68EB00
:104C400071E0C7010E943923882389F041E050E0D8
:104C50006AEF71E0CE014F960E94FC278FE090E052
:104C60009EA38DA383E0482E512C00EE1FEF780108
:104C700004E010E02EE130E04EE150E0B601C40166
:104C80000E9487232DA13EA1C20ED31E840C951C29
:104C90009092620480926104D0926404C092630492
:104CA00010926804109267041092660410926504D2
:104CB00080916D0490916E04892B39F436E0C30E17
:104CC000D11CD0926404C092630483E898E190936D
:104CD0006E0480936D04BE01615E7F4F85E594E0B4
:104CE0000E9489280E943211CE014F960E941D28F1
:104CF0009FEFA91AB90A26E0620E711CD3CEA896BE
:104D00000FB6F894DEBF0FBECDBFDF91CF911F91DC
:104D10000F91FF90EF90DF90CF90BF90AF909F905A
:104D20008F907F906F905F904F903F902F9008955D
:104D3000E0917004F0917104908180917804892B46
:104D40008083E0917404F0917504908180917A04DD
:104D5000892B8083E0917604F09177049081809193
:104D60007B04892B808380918004882371F060E02C
:104D70000E94FC1562E070E080E090E00E947F16E7
:104D800061E0809180040E94FC15E0917004F09134
:104D90007104908180917C0489238083E091720466
:104DA000F0917304908180917D04892380838BB17D
:104DB00083708BB985B18C7F85B9E0917404F091D3
:104DC0007504908180917E0489238083E09174042E
:104DD000F0917504908180917A04892B808383E01F
:104DE000E0917404F0917504208190917E049223E7
:104DF0009083E0917404F0917504208190917A047D
:104E0000922B9083815061F7E0917004F0917104CE
:104E1000908180917804892B80830895CF92DF92CE
:104E2000EF92FF920F931F93CF93DF936C017A0160
:104E30008B01C0E0D0E0CE15DF0589F0D8016D917F
:104E40008D01D601ED91FC910190F081E02DC6011C
:104E50000995892B11F47E0102C02196ECCFC70180
:104E6000DF91CF911F910F91FF90EF90DF90CF9046
:104E700008950F931F93CF93DF93EC01888199815D
:104E8000009729F02A813B812617370788F48B0188
:104E90006F5F7F4F0E941C38009761F09983888371
:104EA0001B830A832C813D81232B11F4FC0110828A
:104EB00081E001C080E0DF91CF911F910F910895B3
:104EC000EF92FF920F931F93CF93DF93FC01248106
:104ED00035816115710511F480E019C04115510546
:104EE000A9F07B01EC018A01020F131FB8010E9497
:104EF0003927882389F3288139818C819D81B701E5
:104F0000820F931F0E94FD381D830C8381E0DF9187
:104F1000CF911F910F91FF90EF900895CF93DF9362
:104F2000EC0188819981009711F00E9484371982E1
:104F300018821D821C821B821A82DF91CF910895F4
:104F4000CF93DF93DC01ED91FC91EB01A881B98156
:104F5000309711F01097C9F4109759F0EB012C819C
:104F60003D81232B31F08C9190E0919581959109B1
:104F700014C0309781F0DC0114968D919C911597A7
:104F8000892B49F0808190E008C0BD01CF01DF91FD
:104F9000CF910C94F43880E090E0DF91CF910895A8
:104FA000CF93DF93EC016115710561F0FB01019076
:104FB0000020E9F73197AF01461B570B0E9460278D
:104FC000811103C0CE010E948E27CE01DF91CF91C7
:104FD0000895CF93DF93EC01FB01448155816081FB
:104FE00071810E946027811103C0CE010E948E272B
:104FF000CE01DF91CF910895EF92FF920F931F930F
:10500000CF93DF93EC017B018A01BA010E9439271B
:10501000811104C0CE010E948E2707C01D830C831E
:10502000B701888199810E94FD38CE01DF91CF912F
:105030001F910F91FF90EF900895FC018081918165
:105040000C948437EF92FF920F931F93CF93DF93CB
:10505000CDB7DEB762970FB6F894DEBF0FBECDBFF7
:105060008C01CB01F8011182108213821282158209
:10507000148250E09E012F5F3F4F7901B9010E94D9
:105080006533F70101900020E9F73197AF014E1920
:105090005F09B701C8010E94FC2762960FB6F89419
:1050A000DEBF0FBECDBFDF91CF911F910F91FF905B
:1050B000EF900895FB01DC0111961C921E9213964D
:1050C0001C921E92129715961C921E921497861788
:1050D000970749F0608171816115710521F0448164
:1050E00055810C94FC270895FC01118210821382D3
:1050F0001282158214826115710551F0FB01019035
:105100000020E9F73197AF01461B570B0C94FC27A1
:105110000895DC01ED91FC91DB0114964D915C91B9
:1051200015976D917C910280F381E02D09946115B2
:10513000710579F0FB0101900020E9F73197AF018B
:10514000461B570BDC01ED91FC910280F381E02DB1
:10515000099480E090E00895CF93DF93CDB7DEB758
:10516000AD970FB6F894DEBF0FBECDBF789484B56F
:10517000826084BD84B5816084BD85B5826085BD53
:1051800085B5816085BD80916E00816080936E00E1
:1051900010928100809181008260809381008091D3
:1051A0008100816080938100809180008160809384
:1051B00080008091B10084608093B1008091B00044
:1051C00081608093B00080917A00846080937A003F
:1051D00080917A00826080937A0080917A00816069
:1051E00080937A0080917A00806880937A00109290
:1051F000C1001092AF031092B0031092B10310924D
:10520000B20310926D0310926E0310926F0310920E
:10521000700368EB7BE080E090E00E947F168EECEC
:1052200092E09093AE038093AD03E091DE02F091A3
:10523000DF0282E08083E091DA02F091DB021082EB
:10524000E091DC02F091DD0280E180831092E602C1
:10525000E091E202F091E30286E08083E091E002D7
:10526000F091E102808180618083E091E002F09121
:10527000E102808188608083E091E002F091E102A8
:10528000808180688083E091E002F091E10280817A
:105290008F7D80832FB7F8948091FC019091FD0160
:1052A000A091FE01B091FF012FBF80936D039093F9
:1052B0006E03A0936F03B093700364E971E0809173
:1052C000AD039091AE030E9497286AE070E080E001
:1052D00090E00E947F1681E0809381030E949826CF
:1052E0000E94982668EC70E080E090E00E947F16B3
:1052F00010926F04E0917004F0917104908180919C
:105300007C048923808307E017E0F801659174919C
:10531000F8013296459154916F3F710531F4BA010D
:1053200080E090E00E947F1604C085E594E00E9432
:1053300029180C5F1F4F27E0033D120731F76091DA
:105340006A0485E594E00E9493180FE311E02FEEC4
:1053500030E040E050E060E070E085E594E00E94DD
:10536000582063E085E594E00E94931860E070E0C7
:1053700085E594E00E946C1A61E08DE00E942C1695
:1053800080E090E00E94B21220915F0430916004AE
:105390002052310940915D0450915E044C505109F6
:1053A00088E1E82E86ECF82E03E010E06AE170E078
:1053B00086E090E00E94872320915F043091600492
:1053C0002652310940915D0450915E0442515109C9
:1053D000E12CF12C6DE170E089E090E00E948723E0
:1053E00020915D0430915E04C901C19697FD01963C
:1053F000959587959093CD028093CC020E94FA11E7
:1054000066EA71E0CE0101960E94742820915D0445
:1054100030915E0437FF02C02F5F3F4F6901D59482
:10542000C79488E3C81AD108A090F103B090F203A2
:10543000AC18BD0880905F0490906004CC0CDD1C1B
:10544000A4014E515109EE24EA94FE2C02E110E031
:105450009601B50185E594E00E94C21D92E0A90E77
:10546000B11CB0926204A0926104C401469790936B
:105470006404809363042D813E8149E0429FC00112
:10548000439F900D1124A5E0CA1AD108C816D90669
:1054900030F18FEF9FEF90936804809367049093AF
:1054A00066048093650480916D0490916E04892B4D
:1054B00039F4B0E18B1A91089092640480926304ED
:1054C00083ED97E090936E0480936D04BE016F5F4F
:1054D0007F4F85E594E00E9489280E943211CE0119
:1054E00001960E941D28F8E62F2E3324339461E0A4
:1054F0008DE00E94FC1560E0809183040E942C16D0
:1055000060E0809184040E942C1661E08091860402
:105510000E942C1661E0809185040E942C168091D7
:105520009104E0918904F0918A049081892B808311
:1055300090919204E0918D04F0918E048081282F47
:1055400030E0892F90E0809590958223932380838B
:10555000809183040E9468168C01809183040E94CC
:1055600068169C01A801481B590B4C5F5F4F4930DE
:10557000510538F4200F311F3595279599249394C0
:1055800001C0912C8FEF93E05C01A21AB30A60E096
:10559000809186040E942C1660E0809185040E9410
:1055A0002C1661E0809183040E942C1661E08091AA
:1055B00084040E942C1690919404E0918F04F09141
:1055C00090048081282F30E0892F90E0809590957D
:1055D00082239323808380919304E0918B04F09144
:1055E0008C049081892B8083809185040E946816A9
:1055F0007C01809185040E9468168C01C701801B84
:10560000910B0496099728F40E0D1F1D159507950B
:1056100001C0912C61E0809186040E942C1660E00C
:10562000809183040E942C1690919104E09189044A
:10563000F0918A048081282F30E0892F90E08095B6
:10564000909582239323808380919404E0918F042A
:10565000F09190049081892B8083809185040E9431
:1056600068167C01809183040E946816C0908704AC
:10567000D0908804C114D10409F440C0BC01990F32
:10568000880B990B0E94A7332B013C01B701FF0C3B
:10569000880B990B0E94A7339B01AC01C301B20197
:1056A0000E947A3520E030E040E85FE30E94083550
:1056B0002B013C01B5010B2C000C880B990B0E94AF
:1056C000A7339B01AC01C301B2010E94E2332B015D
:1056D0003C01B60180E090E00E94A5339B01AC0143
:1056E000C301B2010E94E23320E030E040E85AE317
:1056F0000E94E2330E94EC357B0106C0E81AF90AE9
:10570000E1E0EE1AECEFFE0A911002C0E12CF12C60
:1057100060E08DE00E94FC1561E080E10E942C16A3
:1057200061E081E10E942C16B70163537109653B6A
:10573000734008F05AC4C5010B2C000CAA0BBB0B1C
:105740008AA79BA7ACA7BDA795EAA916B1045CF4EC
:105750006AA57BA58CA59DA50E94A7336AA37BA300
:105760008CA39DA320C095E8A91693E0B9069CF0F0
:105770006AA57BA58CA59DA50E94A7336EA37FA3D8
:1057800088A799A780E090E0A5E2B3E48AA39BA351
:10579000ACA3BDA310C080E090E0A5E2B3E48AA36F
:1057A0009BA3ACA3BDA380E090E0A1E6B4E48EA3EC
:1057B0009FA3A8A7B9A78FEF93E0801B910B2C01A3
:1057C000092E000C66087708803A91053CF4C30165
:1057D000B2010E94A7336B017C0116C08F38934041
:1057E0006CF0C301B2010E94A7334B015C01C12CD4
:1057F000D12C60E2E62E63E4F62E0DC0C12CD12C34
:1058000050E2E52E53E4F52E812C40E8942E43E639
:10581000A42E44E4B42EC301B2010E94A733A70111
:1058200096010E9408352B013C01A7019601C50194
:10583000B4010E9408359B01AC01C301B2010E9472
:105840007A359B01AC0160E070E080E89FE30E9444
:1058500008354B015C0160915D0470915E04072E78
:10586000000C880B990B0E94A7339B01AC01C5016A
:10587000B4010E94E2330E94EC358B017093530215
:10588000609352026AA57BA58CA59DA50E94A733B3
:105890002AA13BA14CA15DA10E9408356B017C01AE
:1058A0002AA13BA14CA15DA16EA17FA188A599A5CC
:1058B0000E9408359B01AC01C701B6010E947A35F0
:1058C0009B01AC0160E070E080E89FE30E94083536
:1058D0006B017C0180915F0490916004BC01990F81
:1058E000880B990B0E94A7339B01AC01C701B6013D
:1058F0000E94E2330E94EC357B0170935502609365
:105900005402B0900002A090010240E050E0A0E0FC
:10591000B0E0CC24CA94DC2C80E090E0BC01660F9F
:10592000771FFB01EE5DFD4F20813181FB01EE5FB2
:10593000FD4F8080918060507F4FFB0160817181BD
:105940006130710531F054F0643071050CF450C3CE
:1059500005C04B2D5A2DA4E1B0E002C0672B21F009
:1059600020173107BCF405C020173107C4F480E1CB
:1059700090E0240F351F0217130764F48E149F0460
:105980004CF4F401EA0FFB1FEE16FF061CF46C0149
:1059900080E190E00196803191050CF4BFCF8091B9
:1059A000500290915102C816D90609F41EC346014F
:1059B0000D2C000CAA08BB08B7FE2BC0E091CE024C
:1059C000F091CF020190F081E02D6DE28EEC92E03B
:1059D000099522273327A901281939094A095B09A2
:1059E00019A28E010F5D1F4F9AE0892E912CA12CD8
:1059F000B12CCA01B901A50194010E94A034605DD7
:105A0000D8016E938D01211531054105510589F7A6
:105A10001AC0A501940119A28E010F5D1F4F8AE0E3
:105A2000882E912CA12CB12CCA01B901A501940199
:105A30000E94A034605DF80162938F012115310549
:105A40004105510589F7B8018EEC92E00E94972834
:105A500063EA71E08EEC92E00E949728D7FCC1C205
:105A6000F4E0CF16D1040CF0DEC1109222011092A6
:105A70004F0210924E02C6010E94B21280915D0444
:105A800090915E0422E0C216D10409F49FC19C01EA
:105A90002F5C3F4FA3E0CA16D10409F4ADC1B1E0B9
:105AA000CB16D10499F037FF02C02F5F3F4F3595D9
:105AB00027953093CD022093CC020E94FA110E94C8
:105AC000FA1110924F0210924E028BC237FF02C0A1
:105AD0002F5F3F4F359527953093CD022093CC0211
