:100000000C94F20F0C94551F0C942E1F0C94341862
:100010000C9434180C9434180C941A100C941A1074
:100020000C941A100C941A100C941A100C941A10A8
:100030000C941A100C941A100C941A100C941A1098
:100040000C94E41E0C941A100C94EE1D0C94C81D14
:100050000C941A100C941A100C941A100C941A1078
:100060000C943E180C941A10084AD73B3BCE016EF4
:1000700084BCBFFDC12F3D6C74319ABD56833DDAFF
:100080003D00C77F11BED9E4BB4C3E916BAAAABE0E
:10009000000000803F05A84CCDB2D44EB93836A937
:1000A000020C50B9918688083CA6AAAA2ABE000074
:1000B00000803F0000000000003E5B4F5B3E3E6B57
:1000C0004F6B3E1C3E7C3E1C183C7E3C181C577DF2
:1000D000571C1C5E7F5E1C00183C1800FFE7C3E73E
:1000E000FF0018241800FFE7DBE7FF30483A060E50
:1000F0002629792926407F050507407F05253F5A97
:100100003CE73C5A7F3E1C1C08081C1C3E7F142206
:100110007F22145F5F005F5F06097F017F006689B1
:10012000956A606060606094A2FFA29408047E04F7
:100130000810207E201008082A1C08081C2A08081D
:100140001E101010100C1E0C1E0C30383E383006DD
:100150000E3E0E06000000000000005F00000007D9
:10016000000700147F147F14242A7F2A1223130807
:10017000646236495620500008070300001C2241E3
:10018000000041221C002A1C7F1C2A08083E080887
:100190000080703000080808080800006060002037
:1001A000100804023E5149453E00427F400072491A
:1001B0004949462141494D331814127F10274545BE
:1001C00045393C4A494931412111090736494949D4
:1001D00036464949291E0000140000004034000042
:1001E00000081422411414141414004122140802AB
:1001F000015909063E415D594E7C1211127C7F491E
:100200004949363E414141227F4141413E7F494972
:1002100049417F090909013E414151737F0808089E
:100220007F00417F41002040413F017F081422416F
:100230007F404040407F021C027F7F0408107F3EC9
:100240004141413E7F090909063E4151215E7F0936
:10025000192946264949493203017F01033F40409D
:10026000403F1F2040201F3F4038403F6314081488
:100270006303047804036159494D43007F414141C0
:100280000204081020004141417F040201020440A1
:1002900040404040000307080020545478407F2825
:1002A0004444383844444428384444287F3854541B
:1002B000541800087E090218A4A49C787F0804043E
:1002C0007800447D40002040403D007F10284400DD
:1002D00000417F40007C047804787C08040478386E
:1002E00044444438FC1824241818242418FC7C089E
:1002F000040408485454542404043F44243C40401B
:10030000207C1C2040201C3C4030403C44281028CD
:10031000444C9090907C4464544C44000836410016
:100320000000770000004136080002010204023C90
:100330002623263C1EA1A161123A4040207A38545F
:1003400054555921555579412254547842215554D8
:10035000784020545579400C1E527212395555552B
:1003600059395454545939555454580000457C4116
:100370000002457D420001457C407D1211127DF056
:10038000282528F07C545545002054547C547C0A80
:10039000097F4932494949323A4444443A324A4849
:1003A00048303A4141217A3A42402078009DA0A04D
:1003B0007D3D4242423D3D4040403D3C24FF24249F
:1003C000487E4943662B2FFC2F2BFF0929F620C0BE
:1003D000887E090320545479410000447D4130480F
:1003E000484A32384040227A007A0A0A727D0D1952
:1003F000317D2629292F28262929292630484D40B4
:1004000020380808080808080808382F10C8ACBAAF
:100410002F102834FA00007B000008142A1422222E
:10042000142A14085500550055AA55AA55AAFF5577
:10043000FF55FF000000FF00101010FF00141414FF
:10044000FF001010FF00FF1010F010F0141414FC47
:10045000001414F700FF0000FF00FF1414F404FC64
:10046000141417101F10101F101F1414141F001045
:100470001010F0000000001F101010101F101010BE
:1004800010F010000000FF101010101010101010CD
:10049000FF10000000FF140000FF00FF00001F100D
:1004A000170000FC04F414141710171414F404F4C7
:1004B0000000FF00F714141414141414F700F714B8
:1004C0001414171410101F101F141414F414101007
:1004D000F010F000001F101F0000001F14000000AB
:1004E000FC140000F010F01010FF10FF141414FFA3
:1004F000141010101F00000000F010FFFFFFFFFF9E
:10050000F0F0F0F0F0FFFFFF0000000000FFFF0F31
:100510000F0F0F0F3844443844FC4A4A4A347E02D5
:10052000020606027E027E02635549416338444456
:100530003C04407E201E2006027E020299A5E7A50B
:10054000991C2A492A1C4C7201724C304A4D4D307C
:100550003048784830BC625A463D3E494949007EA1
:100560000101017E2A2A2A2A2A44445F4444405138
:100570004A444040444A51400000FF0103E080FFEC
:10058000000008086B6B083612362436060F090F78
:1005900006000018180000001010003040FF010194
:1005A000001F01011E00191D1712003C3C3C3C00BD
:1005B00000000000000000000500010000020D0620
:1005C00002F4040005040601F407000A0C0A00F511
:1005D000160009100A01F32800100D1001F4420062
:1005E0000B0D0C01F4540002040401F45500041135
:1005F0000601F45E0004110601F467000505070119
:10060000F46B0006080B03F9710002040502007286
:100610000004010601FC73000201050100740005DD
:100620000D0500F47D00080D0A01F48A00040D0A8E
:1006300003F49100090D0A01F4A000080D0A01F469
:10064000AD00070D0A02F4B900090D0A01F4C80053
:10065000090D0A01F4D700080D0A00F4E400090DA1
:100660000A01F4F300080D0A01F40001020A050171
:10067000F70301030C0501F8080109090B01F81340
:100680000109040B01FB180109090B01F8230109F9
:100690000D0A01F4320111101201F454010C0D0C79
:1006A00000F468010B0D0C01F47A010B0D0D01F43F
:1006B0008C010B0D0D01F49E01090D0B01F4AD0130
:1006C000080D0B01F4BA010C0D0E01F4CE010B0D57
:1006D0000D01F4E001020D0502F4E401070D0A0129
:1006E000F4F0010B0D0C01F40202080D0A01F40FE5
:1006F000020D0D0F01F425020B0D0D01F437020D53
:100700000D0E01F44D020A0D0C01F45E020D0E0EE9
:1007100001F475020C0D0D01F489020A0D0C01F4AF
:100720009A02090D0B01F4A9020B0D0D01F4BB0295
:100730000B0D0C00F4CD02110D1100F4E9020C0DAB
:100740000C00F4FD020C0D0C00F411030A0D0B015A
:10075000F4220303110501F42903050D0500F43209
:100760000303110500F4390307070801F440030AE5
:10077000010A0003420304030500F44403090A0AC2
:1007800001F75003090D0A01F45F03080A0901F794
:100790006903080D0A01F47603080A0A01F78003C9
:1007A000040D0501F48703080E0A01F79503080DEF
:1007B0000A01F4A203020D0401F4A60304110400CB
:1007C000F4AF03090D0901F4BE03020D0401F4C2E4
:1007D000030D0A0F01F7D303080A0A01F7DD030826
:1007E0000A0A01F7E703090D0A01F7F603080D0AE3
:1007F00001F70304050A0601F70A04080A0901F7CC
:100800001404040C0501F51A04080A0A01F724046B
:10081000090A0900F730040D0A0D00F74104080A1F
:100820000900F74B04090E0900F75B04070A0901E8
:10083000F7640404110601F46D0402110402F47259
:100840000404110601F47B0407030901F9FFFFF812
:10085000C0DEF72009864191FF1304C320C8FF8939
:10086000826190101F14DA3D1E8340781708F47AD5
:100870003533F040203810EC20C620C640C6406C0E
:10088000803900013C0277026304630477083C0E60
:100890000660CC1981E0180F0336C2D8730631E325
:1008A000C4FE13266CCCCCC46623108C4663333351
:1008B00032664C80257EA50030C33F30C30CD6F095
:1008C000C00844211084421108003C6642C3C3C3DF
:1008D000C3C3C3C342663C113F33333333303E316D
:1008E000B07830181C1C1C1818100807F83C66C398
:1008F000C303061C0703C3C3663C0C187162C9A37B
:1009000046FE183060C07F2010080807F38C0301F2
:1009100080F06C63E01E3198780C06F38D83C1E0A3
:10092000D06C63E0FF030206040C0818181810309E
:10093000303E31B0783C1B18F8C6C1E0F06C63E083
:100940003C66C2C3C3C3673B0303C2663CC00030FE
:10095000C0000064A00081C78E0C0780700E01806B
:10096000FF80001FF000700E01C0183871C08000B9
:100970003E31B0783018183818180C000001800388
:10098000F0060E06018600661DBB31CF18C79863BE
:10099000CC31E611B399CCF7860001800070400F8E
:1009A000E00600F00F009019819810830C3FC204FC
:1009B000606606C030FF183303606C0D833FC606C7
:1009C000C0780F01E06FF81F861981A03C018030CC
:1009D0000600C0680D831861F0FF183303603C0700
:1009E00080F01E03C0780F0360CFF0FFE030180CDA
:1009F0000603FD80C06030180FF8FFC0C0C0C0C043
:100A0000FEC0C0C0C0C0C00F830E606603C00C0033
:100A1000C1FC03C0360360730F0F10C0780F01E0F4
:100A20003C0780FFFE03C0780F01E03C06FFFFFF9C
:100A3000C0060C183060C183078F1E2780C0D833D2
:100A40000C630CC1B83F0730C3186306606C0CC060
:100A5000C0C0C0C0C0C0C0C0C0C0C0FFE03F01FC3B
:100A60001FE0FD05EC6F637913CD9E6CF1478E3C62
:100A70007180E07C0FC1E83D8798F11E33C3786F29
:100A800007E07C0E0F8183180CC06C01E00F00782A
:100A900003C01B01980C60C0F800FF306C0F03C04E
:100AA000F06FF300C0300C0300C0000F8183180CFE
:100AB000C06C01E00F007803C01B01986C60C0FBA4
:100AC0000008FF8C0EC06C06C06C0CFF8C0EC06C56
:100AD00006C06C06C0703F186C0F03C01E01F00EFC
:100AE00000F03C0D863F00FF86030180C060301897
:100AF0000C06030180C0C0780F01E03C0780F01EA7
:100B000003C0780F01B061F0C06C0D8110630C61FF
:100B10000460CC1901603C070060C18130E198702D
:100B2000CC286626211330C8986C4C14340A1A0756
:100B300007030380818060630C30C1980F00E006DA
:100B400000F019019830C60E6060C0360630C30C44
:100B50001981D80F00600600600600600600FFC023
:100B600060300C060301C0603018060300FFC0FBB4
:100B70006DB6DB6DB6E0841084108410841080EDB7
:100B8000B6DB6DB6DBE03060A244D8A180FFC0C602
:100B9000307E71B0C060F3DB0D86C73DC0C06030F1
:100BA0001BCE360F0783C1E0F07C6DE03C66C3C00E
:100BB000C0C0C0C3663C0303033B67C3C3C3C3C316
:100BC000C3673B3C66C3C3FFC0C0C3663C366F66A9
:100BD000666666603B67C3C3C3C3C3C3673B0303A7
:100BE000C67CC0C0C0DEE3C3C3C3C3C3C3C3C3C3E7
:100BF000FFFFC03003333333333333E0C06030188A
:100C00004C466361F0EC6231986C30FFFFFFC0DE50
:100C1000F71CF0C7863C31E18F0C7863C31E18C007
:100C2000DEE3C3C3C3C3C3C3C3C33C66C3C3C3C33D
:100C3000C3C3663CDE71B0783C1E0F0783E36F30A0
:100C4000180C003B67C3C3C3C3C3C3673B030303A1
:100C5000DF318C6318C6003EE3C0C0E03C07C3E34D
:100C60007E66F666666667C3C3C3C3C3C3C3C3C732
:100C70007BC1A098CC4221B0D0281C0C00C61E38E5
:100C800091C4CA66D316D0A6871C38C0C60043627A
:100C9000361C181C3C266243C12198CC4261B0D05E
:100CA000381C0C0603010300FE0C30C1861820C15D
:100CB000FC3666666ECE66666630FFFFFFFFC0C616
:100CC00066666737666666C0612438000000000506
:100CD00000010000030D0602F4050007050901F4F8
:100CE0000A000A0C0A00F51900090F0A01F32A008C
:100CF000100D1000F444000C0D0D01F45800030514
:100D00000501F45A0006110601F4670006110600F9
:100D1000F4740005060701F4780007080B02F97F58
:100D20000003050401FF810005020600FB830003A8
:100D3000020401FF8400050D0500F48D00090D0A71
:100D400001F49C00050D0A02F4A500090D0A01F446
:100D5000B400080D0A01F4C100080D0A02F4CE0027
:100D6000090D0A01F4DD00090D0A01F4EC00090D7A
:100D70000A00F4FB000A0D0A00F40C01090D0A0137
:100D8000F41B0103090401F81F01030C0401F824FA
:100D90000109090B01F82F0109060B01FA360109B7
:100DA000090B01F84101090D0B01F45001100F125C
:100DB00000F46E010C0D0D00F482010B0D0D01F419
:100DC00094010C0D0D01F4A8010C0D0D01F4BC01F2
:100DD000090D0C01F4CB01090D0B01F4DA010B0D27
:100DE0000E01F4EC010B0D0D01F4FE01030D0601E3
:100DF000F40302080D0A01F410020C0D0D01F42495
:100E000002080D0B01F431020E0D1001F448020B23
:100E10000D0E01F45A020D0D0E01F470020B0D0CB3
:100E200001F482020D0E0E01F499020C0D0D01F475
:100E3000AD020B0D0C01F4BF02090D0C02F4CE0241
:100E40000B0D0D01F4E0020C0D0C00F4F402110D79
:100E50001100F410030C0D0C00F424030B0D0C0115
:100E6000F43603090D0B01F4450304110601F44E99
:100E700003050D0500F4570304110600F460030890
:100E8000080B01F468030A010A00046A030302055F
:100E900000F46B030A0A0A01F778030A0D0B01F448
:100EA0008903090A0A01F79503090D0B01F4A4034C
:100EB000090A0A01F7B003050D0601F4B903090E8A
:100EC0000B01F7C903090D0B01F4D803030D05014C
:100ED000F4DD0304110500F4E603090D0A01F4F53D
:100EE00003030D0501F4FA030E0A1001F70C0409BF
:100EF0000A0B01F718040A0A0B01F725040A0E0B66
:100F000001F73704090E0B01F74704060A0701F73A
:100F10004F04090A0A01F75B04050C0601F5630496
:100F2000090A0B01F76F040A0A0A00F77C040E0A8B
:100F30000E00F78E040A0A0A00F79B040A0E0A0044
:100F4000F7AD04080A0901F7B70404110701F4C05A
:100F50000401110502F4C30404110702F4CC0408CF
:100F6000020900FCFFFFFE487EEFDFBF74401986D8
:100F700067FDFF330CC333FEFF99866190101F1F7E
:100F8000DEFF3F83C0FC1F09FCFEF7F1E040381094
:100F90007C30C620C640C6407C80399C013E03633D
:100FA000026304630C3E081C0E01F83B83B83F014A
:100FB000E03E6776E3EE1CF3C7FE3F70FFF4186374
:100FC0001C738E38E38E1870C3060861830E387167
:100FD000C71C71C638E31840213E45283870E7FF2A
:100FE000E70E1CFC9CFFC0FC08C42310846211881F
:100FF000003E3F9DDC7E3F1F8FC7E3F1DDCFE3E086
:1010000008FFF39CE739CE73803E3FB8FC70381C74
:101010001C1C1C1C1C0FF7F83C7FE7E7070C0E0795
:1010200007E7E77E3C0E1E1E2E2E4E4E8EFFFF0E55
:101030000E0E7F3F90180DE7FB9E070381F1FFE73F
:10104000C03E3F9CFC0EE7FBDFC7E3F1DDEFE3E0D2
:10105000FFFFC0E0E0607030381C0C0E0703803FDB
:101060001FEE3F87E3CFC7FBCFE1F87F3DFE3F0098
:101070003E3FBDDC7E3F1FDEFF3B81F9CFE3C0FC7E
:101080000007E0FC0007E5E00083C7DF0C0780F8FD
:101090001F0180FFFFC0000FFFFC00703F03E0381E
:1010A0007DF1E080003E3FB8FC70381C1C1C1C0E1B
:1010B000000381C003F00FFC1E0E380270E96319B3
:1010C000C219C611C633C63263FE73DC3C001FF87A
:1010D00007F00700F00F80F81D819C19C38C3FE7D3
:1010E000FE706607E070FF9FFB83F07E0FFF3FF707
:1010F00006E0FC1F83FFEFF81F83FE78E707E00E92
:1011000000E00E00E0070778F3FE1F80FF8FFCE091
:10111000EE0EE07E07E07E07E07E0EE0EFFCFF8053
:10112000FFFFF81C0E07FBFDC0E070381FFFF8FF43
:10113000FFF81C0E07FBFDC0E070381C0E000F8787
:10114000F9E3B83E01C038FF1FE06E0DE39FD0F217
:10115000E0FC1F83F07E0FFFFFFF07E0FC1F83F022
:101160007E0EFFFFFFFFFE0707070707070707E7DA
:10117000E7E77E3CE0EE1CE38E70EE0FC0FE0F70E2
:10118000E70E38E1CE0EE0E0E0E0E0E0E0E0E0E0B5
:10119000E0E0E0FFFFF87FE1FF87FE1FEC7FB37E1A
:1011A000CDFB37ECDF9E7E79F9E7E79CE0FE1FC3BD
:1011B000FC7FCFD9FBBF37E7FC7F87F0FE0E0F81A6
:1011C000FF1E3CE0EE03F01F80FC07E03B839E3CEB
:1011D0007FC0F800FF9FFB87F07E0FC3FFF7FCE0A6
:1011E0001C0380700E000F81FF1E3CE0EE03F01F19
:1011F00080FC07E1BB8F9E3C7FE0FB8008FF8FFCFB
:10120000E0EE0EE0EE0EFFCFFCE0EE0EE0EE0EE0C4
:10121000F03F0FFBC7F07E01FC1FF03F00FC1DC735
:10122000BFE1F8FFFFC70381C0E070381C0E070361
:1012300081C0E0FC1F83F07E0FC1F83F07E0FC1F78
:10124000C7BFE1F060670E70E30C30C39C19819852
:101250001F80F00F00F0060061C3B8E19C70CE3C27
:10126000E336719B30ED98367C1B3C0F1E078F01D7
:10127000C380E18070E78E39C1F81F80F00700F06D
:101280001F819C39C70E70E0E0FC39C718C3B8361F
:1012900007C0700E01C0380700E0FFFFC0E0E0F0BB
:1012A0007070707838381FFFF8FFEEEEEEEEEEEE5D
:1012B000EFF0861086108430843080FF7777777760
:1012C00077777FF0181C3C3E366663C3FFC0CC3F87
:1012D0001FEE380E3F9EEE3B9EFF9EE0E0380E0371
:1012E000BCFFBCEE1F87E1F87F3BFEEF001F3FDC39
:1012F0007C0E070380E37F8F000381C0E777FBBF8D
:101300008FC7E3F1FDEFF3B83E3F9CDC3FFFFF8169
:10131000C37F8F003BDDFFB9CE739CE7003BBFDD91
:10132000FC7E3F1F8FEF7F9DC0FC77F1F0E07038AF
:101330001DEFFF9F8FC7E3F1F8FC7E38FC7FFFFFB6
:10134000FE770777777777777FE0E070381C7E77D6
:1013500073F1F8FE7739DC6E38FFFFFFFFFEEF7B9D
:10136000FFFE39F8E7E39F8E7E39F8E7E39F8E7042
:10137000EF7FF8FC7E3F1F8FC7E3F1C01E1FE73BE6
:1013800087E1F87E1DCE7F8780EF3FEF3B87E1F856
:101390007E1FCEFFBBCE0380E038003BBFFDFC7E4E
:1013A0003F1F8FEF7F9DC0E070381CEFFF38E38E4A
:1013B00038E3803E3FB8FC0FC3FC3FC7FF1F0073FC
:1013C000BFF739CE739E70E3F1F8FC7E3F1F8FC7E5
:1013D000FFBDC0E1986739CC330DC3E0781E07002C
:1013E000E31D9E667999E677B8D2C3CF0F3C3CF0F7
:1013F0007380739CE3F0781E0781E0FC739CE0E14E
:10140000D86739CE330EC3E0781E0300C070380EA3
:1014100000FEFE0E1C383870E0FFFF3766666EE691
:1014200066666730FFFF80CE6666677666666EC06A
:10143000718E00000000060001000006100801F196
:101440000C0007060803F112000D100C00F12C002F
:101450000C140C00EF4A0011111402F06F000F1071
:101460001302F18D0002060504F18F000714080134
:10147000F1A10007140800F1B300080A0C04F1BD43
:10148000000B0B1002F6CD0003060600FED000058F
:10149000010801FBD10002030601FED2000B100778
:1014A00000F1E8000B110C01F0000109110C01F032
:1014B00014010A0F0C01F227010A100C01F13B0183
:1014C0000B100C00F151010B100C00F167010C1115
:1014D0000C01F081010B100C02F197010B110C01B2
:1014E000F0AF010B110C01F0C701040B0601F6CDA2
:1014F00001050E0600F6D6010C0D0E01F4EA010CF2
:10150000061002F8F3010C0D0E02F4070209100B8D
:1015100003F1190210101302F139020F0F1000F23B
:1015200056020E100E00F1720210100F01F192021D
:1015300010101100F1B20210100E00F1D2021010C2
:101540000E00F1F20210101101F11203131011003C
:10155000F1380309100800F14A030C100A00F16287
:101560000311100F00F184030E100E00F1A00315FB
:10157000101400F1CA0312101000F1EE030F101046
:1015800001F10C040E100E00F128040F141001F1EB
:101590004E040E100F00F16A040C100B00F18204CF
:1015A0000F100E02F1A00410101103F1C0040F106F
:1015B0001003F1DE0414101503F1060510101000DD
:1015C000F126050D100E03F140050F100E00F15E1F
:1015D0000508140901F1720508100C03F1820507D2
:1015E000140901F194050A090A00F1A0050C010C87
:1015F0000003A20504040603F1A4050C0B0C00F67D
:10160000B5050A100B01F1C905090B0A01F6D6054B
:101610000D100C00F1F005080B0A01F6FB050E1683
:101620000AFEF022060C100BFFF63A060C100C0016
:10163000F1520605100601F15C06091507FEF1746A
:10164000060B100B00F18A0606100601F196061132
:101650000B1100F6AE060C0B0C00F6BF060A0B0BC6
:1016600001F6CD060D100BFEF6E7060B100C00F68A
:10167000FD06090B0900F60A07090B0800F6170713
:10168000060D0601F421070B0B0C01F631070A0BBE
:101690000B01F63F070E0B1002F653070C0B0AFF67
:1016A000F664070B100B00F67A07090D0900F6899E
:1016B0000709150A01F0A10701100703F1A30709A3
:1016C000150A00F0BB070B030D01FA0C31C61843D5
:1016D0000C208410030C3066CD122451000310112D
:1016E000808C0C40461FFC2101181880843FF86252
:1016F000023031010808C000400807C0CA18A19292
:101700001901D00F007803C02E0264464464466479
:10171000C1F008008000080F0C0C7C0C2206120699
:10172000090309018480C48F3C4C404C204E102694
:10173000082308118410C4083C0000E002600CC0BB
:10174000198036007000C0079F3308C31306460D8A
:101750000C0C181C1C5C9F1EFAA0020820C3061863
:1017600030E183060C1830604080810008101020A2
:1017700040C183060C1870C1830C10410400181876
:1017800018937438D793181804008010020041FF92
:10179000C1002004008010006C9500F8FC00401887
:1017A0000200C030060180200C010060180300C058
:1017B00010060007819861183306C0D81B03E0F8B3
:1017C0001F03606C198310C3303C000187C0C060E8
:1017D0003018180C0607030180C0C06030FE000FEF
:1017E0000C640C0300C020180C0201008040201083
:1017F0002FF00786300C03018181F01E03806018F2
:10180000060100CC63E000200C0380A02C0982308C
:1018100084318C33067FE0300600803003E1802085
:101820000600F00F00600600C018030040180230E8
:1018300087E000703C0700E01C03807F071860CE43
:101840000CC0CC0CC0CC184186303E007FF0180391
:1018500000C010060180300C010060080300C010B9
:1018600006000F8318C198330671876070170C71DA
:1018700007606C0D81B0631C3E00078318C11836E9
:1018800006C0D81B0760E6387F00C0300C0703C0D5
:10189000C00033300000CCC018C60000000318445C
:1018A0004000000300F0381E0780E00F001C0078A5
:1018B00001E0070010FFF000000000000FFF000C27
:1018C00000F001C007801E00700F03C1E0780E0019
:1018D00080003E21906030383830302020100000E9
:1018E0000603018007E01C183004600261DAC3318E
:1018F000C631C431CC31CC21CC626CE467383000C5
:101900001C0807F0002000C003800B0016004E00EA
:101910009C021808301FE040C181C2038C073C1FA5
:10192000801FF01C6060C183060C3860C303F01C8C
:101930003060618186063818C0C3063FF001F906A1
:101940000F1C063802300260006000C000C000C0FA
:1019500000C000C000C008601030601F801FF0078A
:101960000C0606060606030E030C030C031C031CE0
:101970000718061806380C30183070FF801FFF0754
:10198000070602060206000E100C300FF01C20188D
:101990002018001800380430083038FFF81FFF07FF
:1019A000070702060206000E100C300FF01C201C68
:1019B0002018001800380030003000FC0001F1064B
:1019C0000F18073802300260006000E000C07FC0DE
:1019D0001CC01CC018C018601830380FC01FC7E0EA
:1019E000E070180E03018060301C0E0301807FF050
:1019F0001C060301C060300C060381C060380C0671
:101A000007E3F01F838180C0607030181C0C060350
:101A1000038180C1F803F00C00C01C018018038012
:101A200030030030070060060CE0CC07801FCF8336
:101A300083818100C3006200720036001E001D8099
:101A40000CE00630031C0387018180C0E1F9FC1F14
:101A5000C01C0060018006003800C003001C00604C
:101A600001800600380CC02303BFFE0F0078380742
:101A700081C0380E02C0703E05C1702E130131982E
:101A80001189C08C8C046C602343021C3810E181E6
:101A9000861C1F23F81E07C1C06070101C0C058235
:101AA0000260809C60231010C404190106C040E04D
:101AB0002038080E060103E04001F00C103010C081
:101AC00033006E00D801F003C00D801B007600CCFF
:101AD00003080C18700F801FF01C6060C183060C97
:101AE0003830C1830E1FE060018006003800C0035B
:101AF000003F0001F006103030C033006600D8010E
:101B0000B003E00F801B003600CC039806181818AD
:101B1000C00E002001F8367F801FF01C6060C1837A
:101B2000060C3870C383F81DC063018C061838603A
:101B3000C1C3033F0F0790C71821821801C00E00D0
:101B40007003801C00C40C40C608E189E07FFEC71A
:101B50001D0C1418207000E0018003000E00180016
:101B600030006001C003000E007F807E1F380C38FB
:101B70000C300830087008701060106010E010C061
:101B800020C020C060C04061803F00FC3EE018C023
:101B90002180C38107040E080C20188031006400E6
:101BA000F001E0018002000400FDF8F70706306054
:101BB0006307043070838F0838B103931019320122
:101BC000A3201A3401C3401C3801830018300102DD
:101BD000001F9F0E06060407080310032003C00120
:101BE0008001C003C006E00C60186030707078F8A7
:101BF000FCFCFB818C0860838C0CC06403C00C006F
:101C0000E007003001801C00C01FC01FFE3038C03C
:101C1000F101C007001C007001E003800E003800D5
:101C2000E001C047011C067FF807040808081810E7
:101C3000101020202020404040808080E0C0C04024
:101C4000602030301818080C04060603030E040840
:101C50001060810204182040810208102047800C87
:101C60000381E04C3308661903C0C0FFF0CE630760
:101C7000A0CE18630460C60CC0CC18C38C5A79C0BF
:101C80003806018040300CE3CCC370D8361906C347
:101C9000308CC3E00F0CCC6C0606030180C0731EB1
:101CA00000007001800C00600203F031830830C333
:101CB000061831818C1861CB168F38071931636291
:101CC000ECD0C0C0E678003801300C00200180065E
:101CD00000FE004003000C00300080060018006089
:101CE000018004003000C002009003800007C0C7DC
:101CF00018618618E18C0780801C00F033841880FE
:101D000088086103E01C00C00C00C018018E1B6134
:101D1000C638638C30C30C60C61A61A41C18C60098
:101D20000BC623188C635C0180C06000000C1E028F
:101D3000030180C040603018080C06021B0F001C15
:101D400001803006018033C63088320680F01B06E1
:101D500060C418D20C3C618618C30C218618432D30
:101D60003878E70DB58D1CC70C638E318630C318EB
:101D7000C10C6184B0C6B0638078E1B61463843866
:101D8000C30C70861861961AC1C00F06630D83607C
:101D9000F03C1B06C33987801EF039C1860C30C168
:101DA000860C30C3061860C607C06003001800C068
:101DB0001F0007819C6398760CC1B0760EC398B162
:101DC000E60080300600C0FC798FC507030180C0A3
:101DD000C0603010001E98CC271180E0390C86625C
:101DE0002E000867CC30C618618C34E0F0CC198323
:101DF00030C6188731663CCB1A6B8E0070CC33042A
:101E0000C218864190681C060100610F843630DCE0
:101E1000C13508D423910E4830E0C30208000C639A
:101E20004A0700700600200700B00B2114E180383B
:101E3000630C308610C40C81A034070060080200D7
:101E400040100407001F908080C0C0406060603870
:101E50003E03A0600083810180C040603010101CF0
:101E60000603030180C0406030180700FFFF070031
:101E7000C0603010180C060603018060406030100E
:101E8000180C0606060078188C0F0000000100FFF1
:101E900000320001000001020000070300301004BE
:101EA00000000008000202090000000A0000000C07
:101EB0000000000D0000000F0000001000000011E5
:101EC0000007001200000013000000FF00C800100F
:101ED00000901611002702FF00320012001A00FFC6
:101EE0000032001300001829002A00FF00320030E1
:101EF000000000310000003200000035000602360C
:101F00000008083700070038000102390000003CD3
:101F10000000003D000000200000002100000050F3
:101F20000000005100EF005200000053003F01602C
:101F30000000A7610003006A0000009000100092FA
:101F40000000009300030095000011970000009826
:101F5000000000070033014D08B405207E16640F11
:101F6000CB0C207E1644434320436F6E74726F6C1B
:101F70006C6564205475726E7461626C6500CB167A
:101F80003214207E1D00000000250028002B0000D8
:101F9000000000240027002A000000000023002683
:101FA00000290004040404040404040202020202DE
:101FB000020303030303030102040810204080010D
:101FC000020408102001020408102000000008008C
:101FD00002010000030407000000000000000000F0
:101FE0001F33BF2D11241FBECFEFD8E0DEBFCDBF02
:101FF00026E0A4E1B2E001C01D92AA36B207E1F7E3
:1020000012E0A0E0B1E0E6EFF7E702C005900D9224
:10201000A431B107D9F71FE0C1EFDFE004C0219779
:10202000FE010E94D339C03FD107C9F70E94CE2DCF
:102030000C94EE3B0C9400006F927F928F929F92D3
:10204000AF92BF92CF92DF92EF92FF920F931F93C6
:10205000CF93DF93EC014B015A0169013801E8810C
:10206000F9810680F781E02D0995E881F9810684E0
:10207000F785E02D87019601A501B401CE010995F0
:10208000E881F981A501460D571D4150510906848B
:10209000F785E02D9601B401CE010995E881F9811B
:1020A0000484F585E02D9301A501B401CE010995C5
:1020B000E881F981C80CD91CB6016150710904840A
:1020C000F585E02D9301A501CE010995E881F981FF
:1020D0000288F389E02DCE01DF91CF911F910F91FE
:1020E000FF90EF90DF90CF90BF90AF909F908F9038
:1020F0007F906F900994CF92DF92EF92FF920F93AF
:102100001F93CF93DF9300D000D000D0CDB7DEB7C0
:102110006C01DC01ED91FC916217730789F40417DF
:1021200015072CF4942F852FA801092F182F041BB5
:10213000150B98012F5F3F4F008CF18DE02D12C0E1
:102140004017510709F5261737072CF4962F872FCC
:10215000B901292F382F261B370B2F5F3F4F028CD9
:10216000F38DE02D8701C601099526960FB6F894E8
:10217000DEBF0FBECDBFDF91CF911F910F91FF90BA
:10218000EF90DF90CF9008950680F781E02D2D83AA
:102190003E834B835C8369837A830995D601ED91F5
:1021A000FC910088F189E02D2D813E814B815C817D
:1021B00069817A81C6010995D601ED91FC91028869
:1021C000F389E02DC60126960FB6F894DEBF0FBE48
:1021D000CDBFDF91CF911F910F91FF90EF90DF90D6
:1021E000CF900994EF92FF920F931F93DC01ED9132
:1021F000FC9111971A960D911C911B9718962D9191
:102200003C911997048CF58DE02D7B0140E050E066
:1022100060E070E009951F910F91FF90EF90089595
:102220004F925F926F927F928F929F92AF92BF92E6
:10223000CF92DF92EF92FF920F931F93CF93DF9392
:1022400000D0CDB7DEB76C015A0139014801DC017D
:10225000ED91FC910680F781E02D69837A830995E1
:102260006981462E7A81572E640C751CD601ED913A
:10227000FC91461457046CF40484F585E02D870125
:102280009401A501B201C6010995BFEF4B1A5B0A83
:10229000EDCF0288F389E02DC6010F900F90DF91FA
:1022A000CF911F910F91FF90EF90DF90CF90BF9053
:1022B000AF909F908F907F906F905F904F90099418
:1022C000AF92BF92CF92DF92EF92FF920F931F9344
:1022D000CF93DF9300D000D0CDB7DEB75C016901AA
:1022E000DC01ED91FC910680F781E02D4B835C834E
:1022F00069837A830995D501ED91FC9169817A8191
:102300009B012C0D3D1D215031090088F189E02DE4
:1023100078014B815C818A01C5010995D501ED9158
:10232000FC910288F389E02DC5010F900F900F906A
:102330000F90DF91CF911F910F91FF90EF90DF9061
:10234000CF90BF90AF900994AF92BF92CF92DF929F
:10235000EF92FF920F931F93CF93DF9300D000D0A3
:10236000CDB7DEB75C016901DC01ED91FC9106801F
:10237000F781E02D4B835C8369837A830995D501CE
:10238000ED91FC914B815C81C40ED51EB1E0CB1A5E
:10239000D1080088F189E02D7801860169817A8170
:1023A0009B01C5010995D501ED91FC910288F38946
:1023B000E02DC5010F900F900F900F90DF91CF91FE
:1023C0001F910F91FF90EF90DF90CF90BF90AF9053
:1023D00009940895EF92FF920F931F93DC01ED9102
:1023E000FC91048CF58DE02D09951F910F91FF90C4
:1023F000EF9008950F931F93DC01ED91FC91028CF7
:10240000F38DE02D09951F910F9108950F931F9360
:10241000DC01ED91FC91008CF18DE02D09951F916F
:102420000F910895DC01ED91FC910480F581E02D80
:10243000099408952F923F924F925F926F927F92EC
:102440008F929F92AF92BF92CF92DF92EF92FF92C4
:102450000F931F93CF93DF9300D01F92CDB7DEB7BA
:102460004C017B836A836A01590117019801241B7F
:10247000350B37FF03C0319521953109C5014A81DC
:102480005B81841B950B97FF03C091958195910902
:1024900051E059838217930714F019820BC09A2DCB
:1024A0008B2D5801092F182F9A818B81DB82CA82CC
:1024B000C92ED82E8A819B81A816B9065CF49C2D62
:1024C0008D2D6801092F182F9A818B81BB82AA82DA
:1024D000A92EB82E2501AA81BB814A1A5B0A3801B0
:1024E0006C187D0877FE03C07194619471087201C5
:1024F00057FE03C0BFEFEB1AFB0AF594E794C01632
:10250000D1061CF00FEF1FEF1FC001E010E01CC050
:10251000D401ED91FC91B9810084F185E02D910108
:10252000BB23C1F04A815B81B601C4010995E6185D
:10253000F708F7FE04C0C00ED11EE40CF51CEA81BA
:10254000FB813196FB83EA834A815B81A416B50641
:10255000FCF604C0A6016A817B81E7CF0F900F9043
:102560000F90DF91CF911F910F91FF90EF90DF902F
:10257000CF90BF90AF909F908F907F906F905F9023
:102580004F903F902F900895CF93DF93EC0120E080
:1025900030E0A9016F85788989899A890E94173965
:1025A00018161CF4EBA1FCA102C0EDA1FEA1DF9165
:1025B000CF910994DC0112962C91213069F028F01A
:1025C000223089F02430B1F00895DC01ED91FC91C6
:1025D0000280F381E02D0994DC01ED91FC910480EF
:1025E000F581E02D0DC0DC01ED91FC910680F781B5
:1025F000E02D06C0DC01ED91FC910084F185E02D19
:10260000099485ED8093BC008091BC0084FDFCCFD3
:1026100010923B0308954091BE02262F30E0240F14
:10262000311D21323105DCF420913B032430C9F403
:10263000FC0180E090E0861758F43091BE022191B1
:10264000DC01A456BD4FA30FB11D2C930196F3CF0F
:102650008091BE02680F6093BE0280E0089581E021
:10266000089582E0089508958FEF9FEF08958FEF0A
:102670009FEF089580919B0290E09195819591093B
:102680000895CF92DF92EF92FF920F931F93CF9313
:10269000DF937C01262F972F8A0180913C038823AA
:1026A00091F0C62FD72F6E01C40ED51ECC15DD05B7
:1026B00071F06991D701ED91FC910190F081E02DCD
:1026C000C7010995F3CF642F822F0E940B13C80115
:1026D000DF91CF911F910F91FF90EF90DF90CF90FE
:1026E0000895CF93DF931F92CDB7DEB76983209112
:1026F0003C032223D1F020915E03203240F021E000
:1027000030E0FC013383228380E090E015C08091AB
:102710003D03E82FF0E0E25CFC4F998190838F5FEE
:1027200080933D0380935E0305C061E0CE01019676
:102730000E940B1381E090E00F90DF91CF910895FC
:10274000CF93DF93EC01613089F050F06230E1F01B
:10275000633061F561E08B810E94491E60E019C021
:1027600061E08B810E94491E60E005C060E08B81C2
:102770000E94491E61E08C810E94491E61E08D81AA
:102780000E94491E60E00DC060E08B810E94491EDE
:1027900061E08C810E94491E60E08D810E94491E8B
:1027A00061E08E81DF91CF910C94491EDF91CF9132
:1027B0000895CF93DF93EC01613049F030F062303F
:1027C00061F06330A1F460E009C060E001C061E045
:1027D0008B810E94491E61E005C061E08B810E94EF
:1027E000491E60E08C81DF91CF910C94491EDF91EE
:1027F000CF9108951F93CF93DF93EC0111E020E078
:1028000030E0A9016F85788989899A890E941739F2
:1028100018160CF010E0612F8C810E94491E61E0B7
:102820008B810E94491E60E08B81DF91CF911F91C7
:102830000C94491E8F929F92AF92BF92CF92DF92DB
:10284000EF92FF920F931F93CF93DF93EC018B8551
:102850009C85AD85BE850F81188529853A85BC018B
:10286000CD01601B710B820B930B09F4D0C08AF071
:102870000E94A0359B01AC010E9426372F89388D1C
:10288000498D5A8D0E94FF350E942A396B017C01C7
:102890001BC090958095709561957F4F8F4F9F4F8E
:1028A0000E94A0359B01AC010E9426372F89388DEC
:1028B000498D5A8D0E94FF350E942A396B017C0197
:1028C000F7FAF094F7F8F0948F849888A988BA887A
:1028D000A5019401C701B6010E94173918160CF022
:1028E00043C020E030E0A901C501B4010E94993540
:1028F00081110BC06F89788D898D9A8D9B01AC01F8
:102900000E9426370E942A391BC0A50194016F89B5
:10291000788D898D9A8D0E9409386B017C0120E0A9
:1029200030E0A9010E941739181624F0F7FAF09444
:10293000F7F8F094A7019601C501B4010E9426376B
:102940007B018C01BB88CC88DD88CE892B2D3C2D6A
:102950004D2D5C2F0E94173918160CF05DC03B2DD1
:102960007C2D8D2D9C2F5FC0A5019401C701B60160
:102970000E94993587FF54C020E030E0A901C501CD
:10298000B4010E949935811111C06F89788D898DAC
:102990009A8D9B01AC010E9426370E942A396B0157
:1029A0007C01F7FAF094F7F8F0941DC0A5019401AA
:1029B0006F89788D898D9A8D0E9409386B017C0111
:1029C00020E030E0A9010E941739181624F0F7FA28
:1029D000F094F7F8F094A7019601C501B4010E94A4
:1029E00025376B017C018B889C88AD88BE88B7FA3F
:1029F000B094B7F8B094A5019401C701B6010E9444
:102A0000993587FF0DC0382D792DC5010CC030E0F8
:102A100070E080E090E007C03E2D7F2DC80103C02C
:102A20003C2D7D2DC701C32ED72E7C01C701B601D9
:102A3000DF91CF911F910F91FF90EF90DF90CF909A
:102A4000BF90AF909F908F90089562E080919F0516
:102A50009091A0050C947E2C61E080919F0590914F
:102A6000A0050C947E2C3F924F925F926F927F92C2
:102A70008F929F92AF92BF92CF92DF92EF92FF928E
:102A80000F931F93CF93DF93880F991F880F991F80
:102A9000EC012397242F267030E035952795C20F3F
:102AA000D31F4170F42E68EEC62E62E0D62E00E0F1
:102AB00010E0EE24E3947AE0372E0730110509F494
:102AC000DEC0F601819191916F01C817D90709F015
:102AD000D3C0F0921A021093190200931802E092E8
:102AE000170240918305509184056091850570918E
:102AF000860580917F0590918005A0918105B09118
:102B00008205481759076A077B0709F493C00E949A
:102B1000D81E4B015C014091930550919405609142
:102B20009505709196058091970590919805A091D3
:102B30009905B0919A05840F951FA61FB71F881598
:102B40009905AA05BB0508F075C04090870550900F
:102B500088056090890570908A0520E030E0A90121
:102B6000C301B2010E941739181664F480917F05E1
:102B700090918005A0918105B09182050196A11DDB
:102B8000B11D14C020E030E0A901C301B2010E94D0
:102B9000993587FF13C080917F0590918005A091A2
:102BA0008105B09182050197A109B10980937F0544
:102BB00090938005A0938105B093820560917F0575
:102BC000637088E795E00E94DA12809297059092F0
:102BD0009805A0929905B0929A0588E795E00E9421
:102BE0001A149B01AC01609387057093880580934C
:102BF000890590938A0560E070E08AE794E40E947A
:102C000009384B015C0120E030E0A9010E9417392E
:102C100018161CF4C501B40103C0C501B4019058D5
:102C20000E94823860939305709394058093950574
:102C30009093960580911702882389F0E092140200
:102C4000809115029091160297FF07C00A97909302
:102C500016028093150230920001109217028091A3
:102C600015029091160297FF03C01092010104C053
:102C7000892B11F0E09201010F5F1F4F1ECFDF91F2
:102C8000CF911F910F91FF90EF90DF90CF90BF9069
:102C9000AF909F908F907F906F905F904F903F90FC
:102CA00008952F923F924F925F926F927F928F92F0
:102CB0009F92AF92BF92CF92DF92EF92FF920F93CB
:102CC0001F93CF93DF93CDB7DEB76C970FB6F89411
:102CD000DEBF0FBECDBF9C8F8B8F1B012A011887D3
:102CE0000F83FE82ED82CA82DC0158964D915C9181
:102CF00059974115510509F0B2C018968D919C91D4
:102D00001997681779070CF096C11A968D919C91C6
:102D10001B97481659060CF08EC1AC2CB12CCB0178
:102D2000B6E0CB9E800D911D1124181619060CF0EB
:102D300082C1C50133E0880F991F3A95E1F7840DF0
:102D4000951D181619060CF076C1AB8DBC8D5796E3
:102D50008C91811103C0203B08F02F5FAB8DBC8D9F
:102D6000ED91FC9111970680F781E02DCD012A8F1E
:102D700009952A8DB5E02B9F900111246101410135
:102D80001B82F901E219F309FA87E9879201285FAA
:102D90003F4F3C872B873B81353049F0E985FA85E9
:102DA000E80DF91DEC54FF4F4491498301C019828D
:102DB00032011201598150FF13C0AB8DBC8DED91D2
:102DC000FC91BA81B13031F40084F185E02D2F817E
:102DD000388519C00284F385E02DEF80F8841EC089
:102DE000ED81FE812F813885E217F307F1F0AB8D7D
:102DF000BC8DED91FC91BA81B13059F40084F1851C
:102E0000E02D2D813E81A301B4018B8D9C8D099510
:102E10000CC00284F385E02DED80FE8085019501D4
:102E2000A101B6018B8D9C8D0995E981E695E98319
:102E3000FFEF6F1A7F0A2A0C3B1C2B853C8562161C
:102E4000730609F0B7CF3B813F5F3B834FEF841A96
:102E5000940ACA0CDB1C363009F09DCFCAC0FA01B7
:102E600034969491329765917491291BCB01B7E008
:102E70002B9F800D911D1124FA01259134913A8BDD
:102E8000298BFC0165907490FC01329634913D834E
:102E9000319644914B873296C490319614915A8161
:102EA000523058F08C2C0C2C000C9908812F012EDC
:102EB000000C990B9C838B8304C01C821B82812C89
:102EC000912CAB8DBC8DED91FC9111970680F78113
:102ED000E02DCD010995BA81AB2EB12C8A9CC001A1
:102EE0008B9C900D9A9C900D1124FC01E20DF31D1A
:102EF000F88BEF871982912C812CEC2DCC0CFF0BD9
:102F000091012E0F3F1F3A87298761013D81C30E32
:102F1000D11CA6014E0F5F1F5F8B4E8BC201810F2C
:102F2000911D17FD9A95998F888F5B85851608F0FE
:102F300060C0882D90E04B815C81480F591F4A9DED
:102F400090014B9D300D5A9D300D1124D901A40DD7
:102F5000B51DBE87AD87C984DA842F843888B981CE
:102F6000E985BE1BBB8B288D398D280F391F3D8B02
:102F70002C8B8B898C0D2E893F89C216D30699F133
:102F8000877041F4C3010196E989FA89E60DF71DBE
:102F900094903C0197FE20C0AB8DBC8DED91FC91CF
:102FA000BA81B13061F40084F185E02D2F8138853C
:102FB0004C895D89B6018B8D9C8D09950DC002846D
:102FC000F385E02DEF80F884850195014D855E85C0
:102FD000B1018B8D9C8D0995990CEFEFCE1ADE0A0D
:102FE0002A0C3B1CC6CF39814D81340F3983839421
:102FF0009CCFAB8DBC8DED91FC9111970288F3892C
:10300000E02DCD016C960FB6F894DEBF0FBECDBF9C
:10301000DF91CF911F910F91FF90EF90DF90CF90B4
:10302000BF90AF909F908F907F906F905F904F90E8
:103030003F902F9009946C960FB6F894DEBF0FBEA8
:10304000CDBFDF91CF911F910F91FF90EF90DF9057
:10305000CF90BF90AF909F908F907F906F905F9038
:103060004F903F902F9008951F920F920FB60F929E
:1030700011240F900FBE0F901F9018951F920F9262
:103080000FB60F9211242F933F934F935F936F933B
:103090007F938F939F93AF93BF93EF93FF93809111
:1030A000B900887F803609F49CC068F5883209F43D
:1030B0005BC090F4803109F454C038F4882309F4DB
:1030C000F6C0883009F44DC0F6C0883109F44CC010
:1030D000803209F45DC0EFC0803409F468C048F460
:1030E000803309F455C0883309F0E5C08093390373
:1030F000D8C0803509F44FC0883509F45DC08834E4
:1031000009F0D9C0D6C0883909F4C7C0A8F48837F7
:1031100009F467C038F4883609F463C0803709F4CD
:1031200060C0C9C0883809F4B8C0803909F45FC0EC
:10313000803809F0C0C05BC0803B09F486C038F419
:10314000803A09F466C0883A09F47FC0B4C0803C74
:1031500009F4A7C0883C09F4A4C0883B09F48AC0DC
:10316000AAC08091160310C0909138038091370354
:10317000981770F5E091380381E08E0F8093380343
:10318000F0E0E95EFC4F80818093BB0085EC86C057
:10319000809339038EC0E091380381E08E0F8093D5
:1031A00038038091BB00F0E0E95EFC4F8083909192
:1031B0003803809137036EC0E091380381E08E0FB1
:1031C000809338038091BB00F0E0E95EFC4F808380
:1031D00080913A0381116DC081E08093150384EAE8
:1031E00061C083E080933B031092E202CFCF8091D5
:1031F000E202803208F051C0E091E20281E08E0FDD
:103200008093E2028091BB00F0E0EE53FD4F80839B
:10321000BDCF85EC8093BC0010923B038091E2020D
:10322000803230F4E091E202F0E0EE53FD4F108284
:103230006091E20270E0E091C002F091C10282EC84
:1032400092E009951092E20236C084E080933B033D
:103250001092BF021092BE02E091BC02F091BD023A
:1032600009958091BE02811105C081E08093BE0264
:1032700010929C02E091BF0281E08E0F8093BF020A
:10328000F0E0E456FD4F80818093BB009091BF0237
:103290008091BE02981708F479CF85E88093BC002E
:1032A0000AC085EC8093BC0010923B0304C01092CE
:1032B00039030E940113FF91EF91BF91AF919F914C
:1032C0008F917F916F915F914F913F912F910F90CF
:1032D0000FBE0F901F901895CF92DF92EF92FF9242
:1032E0000F931F93CF93DF937C01FC01C480D580A3
:1032F0000DED15E0C0E0DFEFF801848195818C15BC
:103300009D0539F4B701C8010E94EA2B892B09F405
:10331000DC2FCF5F0A5F1F4FC03171F78D2F90E018
:10332000DF91CF911F910F91FF90EF90DF90CF90A1
:1033300008955F926F927F928F929F92AF92BF9209
:10334000CF92DF92EF92FF920F931F93CF93DF9371
:103350001F92CDB7DEB74C016B015A01FC016480AE
:1033600075808DEDE82E85E0F82E512C1FEFF701CA
:10337000848195818615970549F4B401C701298395
:103380000E94EA2B2981892B09F4152D5394F6E02C
:10339000EF0EF11C80E15812EACF88E0189FF0018F
:1033A0001124E55EFD4FD182C082B382A28230E05B
:1033B0003583248310E0178306830F90DF91CF912C
:1033C0001F910F91FF90EF90DF90CF90BF90AF9043
:1033D0009F908F907F906F905F900895BF92CF9253
:1033E000DF92EF92FF920F931F93CF93DF9300D062
:1033F00000D0CDB7DEB78C01B62EBA01550F880BC1
:10340000990B0E94A0352BED3FE049E450E40E9467
:10341000FF3520E030E044E353E40E9409380E9485
:1034200004389B01AC01B801110F880B990B29835B
:103430003A834B835C830E94A0356B017C016B2D2A
:1034400070E080E090E00E94A03529813A814B81B4
:103450005C810E94FF359B01AC01C701B6010E944F
:1034600026370E947B38CB010F900F900F900F9062
:10347000DF91CF911F910F91FF90EF90DF90CF9050
:10348000BF900895BF92CF92DF92EF92FF920F9379
:103490001F93CF93DF9300D000D0CDB7DEB78C0160
:1034A000B62EBA01550F880B990B0E94A0352BED53
:1034B0003FE049E450E40E94FF3520E030E044E37F
:1034C00053E40E9409380E9404389B01AC01B80102
:1034D000110F880B990B29833A834B835C830E94DD
:1034E000A0356B017C016B2D70E080E090E00E94C4
:1034F000A03529813A814B815C810E94FF359B0177
:10350000AC01C701B6010E9426370E947B38CB016F
:103510000F900F900F900F90DF91CF911F910F910F
:10352000FF90EF90DF90CF90BF9008955F926F92E1
:103530007F928F929F92AF92BF92CF92DF92EF9243
:10354000FF920F931F93CF93DF934C015B01542E97
:10355000122FC0904006D12CAC01652DC6010E94EF
:10356000421A3C01C0913F06D0E06996A401652D46
:10357000CE010E94EE194C01A501612FC6010E94E7
:10358000421A6C01A501612FCE010E94EE19402F55
:1035900050E08C01040F151F480D591D9601B30111
:1035A00083E496E00E947B10DF91CF911F910F91F1
:1035B000FF90EF90DF90CF90BF90AF909F908F9053
:1035C0007F906F905F9008952F923F924F925F92FD
:1035D0006F927F928F929F92AF92BF92CF92DF9223
:1035E000EF92FF920F93CF93DF9300D000D0CDB72F
:1035F000DEB78A5591092C01611107C01A82198220
:10360000212C312C1C821B820CC080E098EF9A8305
:10361000898390EE292E97E0392EE0E1F4E8FC83CF
:10362000EB83C201865A9F4F8936914020F08EE08D
:10363000482E5524539442012BE9821A2EEF920A08
:10364000620187EBC80ED11C320193E0690E711C38
:103650005201E1EBAE0EB11CEB80FC8000E024E4F3
:1036600044E4B601C4010E94961AEB80FC8001E09C
:1036700024E444E4B601C4010E94961AEB80FC8065
:1036800000E024E444E4B501C3010E94961AEB80F3
:10369000FC8001E024E444E4B501C3010E94961AD1
:1036A000EB80FC8000E024E444E4B301C4010E9408
:1036B000961AEB80FC8024E444E4B501C6010E9424
:1036C000961AA10160E470E0C20188599E4F0E94E1
:1036D000402A49815A8160E470E0C2018C549F4FB6
:1036E0000F900F900F900F90DF91CF910F91FF905F
:1036F000EF90DF90CF90BF90AF909F908F907F9092
:103700006F905F904F903F902F900C94402AFC0157
:10371000918D828D981761F0828DDF01A80FB11D08
:103720005D968C91928D9F5F9F73928F90E008952C
:103730008FEF9FEF0895FC01918D828D981731F0E6
:10374000828DE80FF11D858D90E008958FEF9FEF3A
:103750000895FC01918D228D892F90E0805C9F4F10
:10376000821B91098F739927089585E894E00E9440
:10377000A91B21E0892B09F420E0822F0895FC0188
:10378000848DDF01A80FB11DA35ABF4F2C91848DEA
:1037900090E001968F739927848FA689B7892C931F
:1037A000A089B1898C9180648C93938D848D9813BA
:1037B00006C00288F389E02D80818F7D8083089583
:1037C000EF92FF920F931F93CF93DF93EC0181E071
:1037D000888F9B8D8C8D981305C0E889F98980812D
:1037E00085FD24C0F62E0B8D10E00F5F1F4F0F7369
:1037F0001127E02E8C8DE8120CC00FB607FCFACF13
:10380000E889F989808185FFF5CFCE010E94BF1B31
:10381000F1CF8B8DFE01E80FF11DE35AFF4FF082CF
:103820000B8FEA89FB898081806207C0EE89FF895E
:103830006083E889F98980818064808381E090E0F9
:10384000DF91CF911F910F91FF90EF900895CF934B
:10385000DF93EC01888D8823C9F0EA89FB89808198
:1038600085FD05C0A889B9898C9186FD0FC00FB66A
:1038700007FCF5CF808185FFF2CFA889B9898C91AB
:1038800085FFEDCFCE010E94BF1BE7CFDF91CF9127
:10389000089580E090E0892B29F00E94B51B8111EA
:1038A0000C9400000895089542988BB1962F907D56
:1038B0008F72892B8BB985B16F72807D682B65B94A
:1038C0004198419A429A8BB1942F907D8F72892BA7
:1038D0008BB985B14F72807D482B45B94198419A8B
:1038E00008950E94D03B8F929F92AF92BF92CF9249
:1038F000DF92EF92FF920F931F93CF93DF93EC0130
:103900004701121613060CF06BC0101611060CF0CE
:1039100067C0A885B9856A177B070CF061C0CA84A7
:10392000DB844C155D050CF05BC05B01A20EB31E81
:10393000C501019797FD54C07A01E00EF11EF70111
:103940003197F7FD4DC077FF49C060E070E057FD4B
:1039500002C0780102C040E050E08A179B072CF0BB
:10396000CD0101975D01A61AB70AEC15FD052CF0F3
:10397000F60131977601E41AF50A8F019C01CE0118
:103980000E94C3269701D5010E94B0399B01AC016A
:10399000B401CE010E94BA258A8D811110C00A851A
:1039A0001B8501501109288539852150310940E0D6
:1039B00050E060E070E0CE010E94C32611C0CE014D
:1039C000DF91CF911F910F91FF90EF90DF90CF90FB
:1039D000BF90AF909F908F900C94AA265901B7CFBB
:1039E000DF91CF911F910F91FF90EF90DF90CF90DB
:1039F000BF90AF909F908F900895CF92DF92EF92FB
:103A0000FF920F931F93CF93DF93EC01680112167F
:103A100013060CF04FC077FD4DC088859985681757
:103A200079070CF047C0EA85FB854E175F070CF05D
:103A300041C07A01E20EF31E87010150110917FD02
:103A400039C057FF35C040E050E00E171F0734F073
:103A50008F01015011097F01E41AF50A9B01CE0183
:103A60000E94C3269701FF0C440B550BB601CE01F3
:103A70000E94BA258A8D811110C00A851B850150CC
:103A80001109288539852150310940E050E060E076
:103A900070E0CE010E94C3260DC0CE01DF91CF9110
:103AA0001F910F91FF90EF90DF90CF900C94AA267A
:103AB0007901CBCFDF91CF911F910F91FF90EF90C4
:103AC000DF90CF900895CF92DF92EF92FF920F9305
:103AD0001F93CF93DF93EC016801121613060CF0CD
:103AE0004EC057FD4CC08A859B85481759070CF07E
:103AF00046C0E885F9856E177F070CF040C07B0152
:103B0000E20EF31EC701019797FD39C077FF35C05C
:103B100060E070E08E179F072CF0CF0101977F01C6
:103B2000E61AF70A8A019C01CE010E94C32697017A
:103B3000FF0C440B550BB601CE010E94BA258A8DAD
:103B4000811110C00A851B8501501109288539850E
:103B50002150310940E050E060E070E0CE010E9469
:103B6000C3260DC0CE01DF91CF911F910F91FF9021
:103B7000EF90DF90CF900C94AA267901CBCFDF9104
:103B8000CF911F910F91FF90EF90DF90CF9008950C
:103B90001F920F920FB60F9211242F933F934F93C2
:103BA0005F936F937F938F939F93AF93BF93EF93A5
:103BB000FF9385E894E00E94BF1BFF91EF91BF91B6
:103BC000AF919F918F917F916F915F914F913F91B5
:103BD0002F910F900FBE0F901F9018951F920F926C
:103BE0000FB60F9211242F938F939F93EF93FF9310
:103BF000E0919504F09196048081E0919B04F0910E
:103C00009C0482FD12C0908180919E048F5F8F730F
:103C100020919F04821751F0E0919E04F0E0EB5751
:103C2000FB4F958F80939E0401C08081FF91EF919F
:103C30009F918F912F910F900FBE0F901F9018950D
:103C4000833081F028F4813099F08230A1F008951A
:103C50008730A9F08830B9F08430D1F480918000A9
:103C60008F7D03C0809180008F77809380000895BE
:103C700084B58F7702C084B58F7D84BD089580910F
:103C8000B0008F7703C08091B0008F7D8093B0002B
:103C900008951F93CF93DF93282F30E0F901E55368
:103CA000F04E8491F901E954F04ED491F901ED55AB
:103CB000F04EC491CC23C9F0162F81110E94201E12
:103CC000EC2FF0E0EE0FFF1FEB57F04EA591B491F3
:103CD0008FB7F894111105C09C91ED2FE095E92361
:103CE00002C0EC91ED2BEC938FBFDF91CF911F9130
:103CF00008953FB7F8948091110390911203A09119
:103D00001303B091140326B5A89B05C02F3F19F0EB
:103D10000196A11DB11D3FBFBA2FA92F982F88274B
:103D2000820F911DA11DB11DBC01CD0142E0660FA6
:103D3000771F881F991F4A95D1F708958F929F92F8
:103D4000AF92BF92CF92DF92EF92FF926B017C0114
:103D50000E94791E4B015C01C114D104E104F104FD
:103D6000F1F00E94791EDC01CB0188199909AA099A
:103D7000BB09883E9340A105B10570F321E0C21A4A
:103D8000D108E108F10888EE880E83E0981EA11C96
:103D9000B11CC114D104E104F10419F7DDCFFF9087
:103DA000EF90DF90CF90BF90AF909F908F9008954D
:103DB0002FB7F89460910D0370910E0380910F035B
:103DC000909110032FBF08951F920F920FB60F927C
:103DD00011242F933F938F939F93AF93BF93809121
:103DE0000D0390910E03A0910F03B0911003309139
:103DF0000C0323E0230F2D3720F40196A11DB11DE4
:103E000005C026E8230F0296A11DB11D20930C03C7
:103E100080930D0390930E03A0930F03B0931003B0
:103E20008091110390911203A0911303B091140398
:103E30000196A11DB11D8093110390931203A093CD
:103E40001303B0931403BF91AF919F918F913F9152
:103E50002F910F900FBE0F901F9018951F920F92E9
:103E60000FB60F9211242F933F934F935F936F934D
:103E70007F938F939F93AF93BF93EF93FF93E091C3
:103E80000401F09105010995FF91EF91BF91AF9168
:103E90009F918F917F916F915F914F913F912F9162
:103EA0000F900FBE0F901F9018951F920F920FB694
:103EB0000F9211242F933F934F935F936F937F93B0
:103EC0008F939F93AF93BF93EF93FF93E091020182
:103ED000F09103010995FF91EF91BF91AF919F91EF
:103EE0008F917F916F915F914F913F912F910F90A3
:103EF0000FBE0F901F901895CF92DF92EF92FF9216
:103F0000439842988BB1962F907D8F72892B8BB9F5
:103F100085B16F72807D682B65B94198419A429A4C
:103F200083E290E0FC013197F1F77BB1C52EDD24EF
:103F3000EE24FF246C2D607D7F72762B7BB965B1FA
:103F40007C2D7F72607D672B65B94198419AFC0199
:103F50003197F1F77BB16A01EE24FF246C2D607D6F
:103F60007F72762B7BB965B17C2D7F72607D672B6C
:103F700065B94198419AFC013197F1F77BB1C32EA5
:103F8000D42EE52EFF246C2D607D7F72762B7BB9BD
:103F900065B17C2D7F72607D672B65B94198419A30
:103FA0000197F1F78BB1922F907D8F72892B8BB98E
:103FB00085B12F72807D282B25B94198419A439A6B
:103FC000FF90EF90DF90CF90089542988BB1962F9D
:103FD000907D8F72892B8BB985B16F72807D682B34
:103FE00065B94198419A429A8BB1932F907D8F7217
:103FF000892B8BB985B13F72807D382B35B94198BB
:10400000419A42988BB1942F907D8F72892B8BB9F6
:1040100085B14F72807D482B45B94198419A429AAB
:104020008BB1922F907D8F72892B8BB985B12F72B6
:10403000807D282B25B94198419A089542988BB1EB
:10404000972F907D8F72892B8BB985B17F72807D80
:10405000782B75B94198419A8BB1962F907D8F72CC
:10406000892B8BB985B16F72807D682B65B94198BA
:10407000419A429A8BB1952F907D8F72892B8BB983
:1040800085B15F72807D582B55B94198419A8BB1AB
:10409000942F907D8F72892B8BB985B14F72807D63
:1040A000482B45B94198419A0895EF92FF920F939A
:1040B0001F93CF93DF93EC010E94B32343988A8D23
:1040C000811122C0ED89E150E33040F4F0E0EE0FC1
:1040D000FF1FE55DFE4F4081518102C040E350E18A
:1040E00063E070E0CE010E941E200A851B8501500E
:1040F0001109288539852150310940E050E060E000
:1041000070E0CE010E94C3268A8D813089F4ED894A
:10411000E150E33028F4F0E0E85DFE4F408101C05B
:1041200040E066E1CE010E94541CCE010E94AA2606
:104130008A8D823039F58D89813071F050F082306E
:1041400029F0833059F458E2E52E08C068E4E62EE1
:1041500005C048E8E42E02C038EEE32E4E2D66E39B
:10416000CE010E94541C0A851B8501501109288527
:1041700039852150310940E050E060E070E0CE0127
:104180000E94C3268A8D833031F58D89813069F094
:1041900048F0823029F0833051F420E6F22E07C037
:1041A000F12C05C090ECF92E02C080EAF82E4F2DBC
:1041B00066E3CE010E94541C0A851B85015011093B
:1041C000288539852150310940E050E060E070E0F9
:1041D000CE010E94C326DF91CF911F910F91FF90D6
:1041E000EF900895AF92BF92CF92DF92EF92FF923D
:1041F0000F931F93CF93DF93EC017B016A01B22EE3
:10420000A32E77FDC4C057FDC2C088859985681765
:1042100079070CF0BCC08A859B85481759070CF0BC
:10422000B6C043988A8D811135C08D89823059F08E
:104230008330B1F08130D1F48FEE90E0841B950B88
:104240006B017C0113C08FEE90E09C01261B370BA5
:1042500079018FE391E09C01241B350B690106C0B5
:104260008FE391E0861B970B7A016C01A70160E256
:1042700070E0CE010E941E20A60161E270E0CE0136
:104280000E941E204B2D5A2D62E270E0CE010E944A
:104290001E207CC0813009F041C0ED89E150E3303F
:1042A00028F4F0E0EB5DFE4F408101C040E066E1A4
:1042B000CE010E94541C970143E062E0CE010E94AF
:1042C000E51F960147E066E0CE010E94E51F429897
:1042D0008BB18F728BB985B1807D826285B941982F
:1042E000419A429A8BB19A2D907D8F72892B8BB90E
:1042F00085B19A2D9F72807DA92EA82AA5B84198D4
:10430000419A8BB19B2D907D8F72892B8BB985B192
:104310009B2D9F72807DB92EB82A35C08250823085
:10432000A8F50A851B85015011092885398521507A
:104330003109CE010E94C326439842988BB18F72F7
:104340008BB985B1807D8C6285B94198419A429A3A
:104350008BB19A2D907D8F72892B8BB995B18A2D57
:104360008F72907DA82EA92AA5B84198419A8BB149
:104370009B2D907D8F72892B8BB995B18B2D8F7270
:10438000907DB82EB92AB5B84198419A439ADF91E9
:10439000CF911F910F91FF90EF90DF90CF90BF9042
:1043A000AF900895EF92FF920F931F93CF93DF93F7
:1043B0007C01EB01FC01828D811124C025892150F3
:1043C000233078F430E0F901EE5DFE4F8081482F14
:1043D00050E0220F331FF901E45EFE4F008111818E
:1043E00004C000E010E040E050E0439860E270E07C
:1043F000C7010E941E20A80161E270E0C7010E946F
:104400001E2013C08150833080F4F701028513858C
:1044100001501109208531852150310940E050E0DB
:1044200060E070E0C7010E94C32620E03CE241E06A
:1044300050E0BE01C701DF91CF911F910F91FF9016
:10444000EF900C94BA250895109282038091FD029A
:104450008336B8F540917E0350917F0360918003CD
:104460007091810340937A0350937B0360937C03A4
:1044700070937D03843081F058F4833011F54093BC
:10448000760350937703609378037093790319C090
:104490008650833050F015C04093720350937303DD
:1044A00060937403709375030CC08091710388232B
:1044B00041F040936D0350936E0360936F037093CC
:1044C000700310926C0310926B0310926A031092A7
:1044D000690310926803109267031092660380E8E4
:1044E00080936503F89480916403882379F0209188
:1044F000F6023091F70291E080E040916203509122
:1045000063034217530721F090E002C090E080E07F
:1045100090936003809361031092F7021092F60269
:1045200010926303109262037894109264038EE9F0
:1045300092E290936B0580936A050895F8948091B8
:10454000F6029091F7022091620330916303821783
:10455000930711F4789408958091F6029091F702F0
:10456000821B930B029748F0789484E292E2909336
:104570006B0580936A0587E625C02091F80230918B
:10458000F9028091FA029091FB024091F60250915B
:10459000F70250936303409362037894B901645324
:1045A000710941E06D30710580F040E02A55310914
:1045B000273B364250F084E292E290936B05809361
:1045C0006A0588E68093FD0208959C012453310911
:1045D0002D30310530F08A559109873B964268F0BD
:1045E000EACF442361F080916003909161030196CA
:1045F00090936103809360030895442391F0F894AD
:104600008091FA029091FB029093F9028093F80254
:1046100081E08093FC027894109261031092600311
:10462000089580916003909161030A97ACF38EE145
:1046300093E290936B0580936A050895F8948091B6
:10464000F6029091F7022091620330916303821782
:10465000930711F4789408958091F6029091F702EF
:10466000821B930B029748F0789484E292E2909335
:104670006B0580936A0587E672C04091F8025091FD
:10468000F9022091FA023091FB028091F60290919A
:10469000F70290936303809362037894BA016453A2
:1046A000710991E06D30710570F090E04A55510943
:1046B000473B564240F084E292E290936B05809330
:1046C0006A0588E64CC081E0A901445351094D3088
:1046D000510530F080E02A553109273B364258F722
:1046E0009813E9CF80916503882381F0992341F0E5
:1046F000E0916603F0E0E959FC4F9081982B90839C
:1047000090E0959587958093650308958091660361
:1047100021E0280F2093660330E830936503992346
:10472000A9F091E0909364038250843038F488ECCF
:1047300093E290936B0580936A05089584E292E278
:1047400090936B0580936A0589E609C0263048F08E
:1047500084E292E290936B0580936A058AE68093E7
:10476000FD0208950895FC016370658B8481958135
:1047700026813781613039F0633029F09187808755
:10478000338722870895318720879387828708950A
:104790001F93CF93DF9390916803809167038927DC
:1047A000C0916603C43068F0909169038927C430D2
:1047B00041F090916A038927C53019F090916B03FD
:1047C0008927EC2FF0E0EA59FC4F9081891741F0DE
:1047D00084E292E290936B0580936A0584E6B8C008
:1047E0000E94D81E60937E0370937F0380938003A2
:1047F0009093810310927103C33009F07DC0109132
:10480000680380916703111115C08F3F49F484E25A
:1048100092E290936B0580936A05C093FD02A3C05A
:10482000811108C084E292E290936B0580936A053F
:1048300084E08EC0982F907C9038D1F517FF38C057
:10484000C12FD0E0C095D095C077DD27CC0FDD1FFC
:10485000CC0FDD1F8F73C80FD11D0E94CB2B21E021
:10486000C817D90709F020E020937103211107C070
:10487000CF33D10521F08091E502882389F0809122
:10488000820381110DC0E091E602F091E7023097BA
:1048900039F0412F477013FB662760F9CE01099567
:1048A00084E292E290936B0580936A0587E050C0A2
:1048B00087FF08C084E292E290936B0580936A05BB
:1048C00085E646C0107C103441F084E292E2909379
:1048D0006B0580936A0586E63BC091E020918503D5
:1048E000821390E09093710384E292E290936B05BF
:1048F00080936A0586E02CC0C43069F59091670307
:10490000892F807C803839F580916803282F25789D
:10491000213009F5C82FC670D0E0DC2FCC27807776
:1049200024E0829FC00DD11D11249F73C90FD11D9A
:104930000E94CB2B21E0C817D90709F020E0209373
:10494000710384E292E290936B0580936A0588E09C
:104950008093FD0208C084E292E290936B058093FD
:104960006A051092FD02DF91CF911F9108950E9478
:10497000791EA091FC024A2F50E02091FE02309156
:10498000FF02FB01E21BF30B9F01FA01EE0FFF1F79
:10499000E850FD4F318320836093FE027093FF0245
:1049A00080930003909301032091F6023091F70267
:1049B000240F351F3093F7022093F60281E08A27F7
:1049C0008093FC020895AF92BF92CF92EF92FF9234
:1049D0000F931F93CF93DF93EC01262F888D998D32
:1049E000009709F042C06A3069F42C898E859F8552
:1049F00038E0239F800D911D11249F878E871D868F
:104A00001C86ACC06D3009F4A9C08E898823C1F022
:104A10003C898C859D8546E0349F800D911D112435
:104A200048855985841795075CF01D861C868E8500
:104A30009F85E8E03E9F800D911D11249F878E8702
:104A4000EA88FB88088919894E855F856C857D8594
:104A5000CC88CE010E9451162C898C859D85F6E06C
:104A60002F9F800D911D112441C06A3079F41D865D
:104A70001C862C89FC013696E4918E859F852E9F9D
:104A8000800D911D11249F878E8768C06D3009F4B9
:104A900065C0AC014C5F5F4FFA013491631708F4B5
:104AA0005DC03196E491E61708F458C0FA014491CC
:104AB000362F341BFC013296A590B490F7E03F9F4F
:104AC000A00CB11C1124F501329634913196E49179
:104AD000332311F0E1110DC0F5013496E4912C89D6
:104AE0008C859D85E29F800D911D11249D878C876B
:104AF00035C0F501359644915E89552311F16C89D5
:104B0000E32FF0E0E40FF11D47FDFA956E9FD00111
:104B10006F9FB00D11244C855D854A0F5B1FE885A2
:104B2000F9854E175F076CF01D861C86FC013696D2
:104B3000E4918E859F856E9F800D911D11249F8726
:104B40008E87EA88FB88088919894E855F856C8580
:104B50007D85CC88CE010E945116BECF81E090E0C9
:104B6000DF91CF911F910F91FF90EF90CF90BF9069
:104B7000AF900895CF92DF92EF92FF920F931F9321
:104B800043984298FC01828D823069F0811109C0FE
:104B90008BB18F728BB985B1807D85B94198419A6F
:104BA00009C0833039F48BB18F728BB985B1807DA8
:104BB0008C6206C08BB18F728BB985B1807D8262A9
:104BC00085B94198419A429A8BB1E72FE07D8F7267
:104BD0008E2B8BB985B1F72FFF72807D8F2B85B916
:104BE0004198419A8BB1A62FA07D8F728A2B8BB9E9
:104BF00085B1B62FBF72807D8B2B85B94198419AC4
:104C000089019A01015011092109310968017901CD
:104C100086E0F694E794D794C7948A95D1F7C601B5
:104C200076137AC00197A0F060E14198419A4198CB
:104C3000419A4198419A4198419A4198419A4198A4
:104C4000419A4198419A4198419A615071F7EACF4F
:104C5000202F2F73215028F04198419A4198419A72
:104C6000F9CF439A1F910F91FF90EF90DF90CF9073
:104C700008956BB16F726E2B6BB965B1607D6F2B50
:104C800065B94198419A6BB16F726A2B6BB965B186
:104C9000607D6B2B65B94198419A6BB16F726E2B39
:104CA0006BB965B1607D6F2B65B94198419A6BB165
:104CB0006F726A2B6BB965B1607D6B2B65B94198DA
:104CC000419A6BB16F726E2B6BB965B1607D6F2BC2
:104CD00065B94198419A6BB16F726A2B6BB965B136
:104CE000607D6B2B65B94198419A6BB16F726E2BE9
:104CF0006BB965B1607D6F2B65B94198419A6BB115
:104D00006F726A2B6BB965B1607D6B2B65B9419889
:104D1000419A715009F0ADCF019710F070E1A9CF21
:104D2000202F2F73215008F49CCF8BB18F728E2BC4
:104D30008BB985B1807D8F2B85B94198419A8BB114
:104D40008F728A2B8BB985B1807D8B2B85B9419869
:104D5000419AE8CFCF93DF93EC01439828853985BA
:104D60002150310945E064E00E94E51F2A853B851A
:104D70002150310949E068E0CE010E94E51F439AC5
:104D8000DF91CF9108958F929F92AF92BF92CF9271
:104D9000DF92EF92FF920F931F93CF93DF93EC017B
:104DA0007A01690143982A8D21115EC02D89223034
:104DB00089F0233021F1213081F52FEE30E0A90177
:104DC000401B510B5B0149018E189F08860164014D
:104DD0007B0113C02FEE30E0A9014C195D09690178
:104DE000C61AD70A8FE391E09C01201B310B8C017E
:104DF0000E191F09580146017901BA0110C02FE3AD
:104E000031E0A9014C195D095901A61AB70A4701F9
:104E100068018501B7017A0102C05A014B01AB015B
:104E200060E570E0CE010E941E20A60161E570E001
:104E3000CE010E941E20A70162E570E0CE010E9413
:104E40001E20A80163E570E0CE010E941E20A4018F
:104E500060E270E0CE010E941E20A50161E270E0D8
:104E6000CE010E941E2047C02130C1F49B0143E0C7
:104E700062E00E94E51F970147E066E0CE010E94D4
:104E8000E51F960145E064E0CE010E94E51F980110
:104E900049E068E0CE010E94E51F2DC0225022307B
:104EA00050F5CB01770FAA0BBB0BDC0199278827A4
:104EB000A601DD0C660B770B9A01AB01282B392B71
:104EC0004A2B5B2B6AE2CE010E947C1FC701FF0CBC
:104ED000AA0BBB0BDC0199278827A801110F660BD1
:104EE000770B9A01AB01282B392B4A2B5B2B6BE2FA
:104EF000CE010E947C1F439ADF91CF911F910F91A9
:104F0000FF90EF90DF90CF90BF90AF909F908F90E9
:104F10000895FF920F931F93CF93DF9300D0CDB7E7
:104F2000DEB7152FF32EFC01008181E080933C0356
:104F300000935F0310923D0310925E03F4E06F9FB5
:104F4000B00111246A5F7F4F8CE695E02A83498384
:104F50000E9471134981842F912F0E94792C812FF7
:104F600090E00E94792C2A81822F9F2D0E94792C1B
:104F70008F2D90E00E94792C80915E03813208F0A1
:104F800046C090913B039111FCCF92E090933B037C
:104F900091E090933A039FEF909339031092380376
:104FA00080933703AEE3B3E027E133E0F9019E2FAE
:104FB000921B981718F49D919193F9CF10921603B4
:104FC00080911603000F802B8093160380911503A8
:104FD000813061F410921503809116038093BB0019
:104FE0008091BC0083FDF8CF85EC01C085EE8093F5
:104FF000BC0080913B038230E1F3809139038F3F05
:1050000031F080913903803211F080913903109290
:105010003D0310925E0310923C030F900F90DF91BE
:10502000CF911F910F91FF9008959A01CB96211572
:1050300040E1340728F020E030E040E050E102C0D9
:1050400040E050E00C9489272F923F924F925F925C
:105050006F927F928F929F92AF92BF92CF92DF9288
:10506000EF92FF920F931F93CF93DF9300D000D066
:1050700000D0CDB7DEB75C014B015E834D832801C4
:1050800081E090E03C01641A750ACA01919581950E
:105090009109AC01440F551F5A8349831801CC2450
:1050A000C394D12C522F51705B8322702C83C60184
:1050B00001972D813E81821793070CF068C077FC21
:1050C0000CC08D819E8101979E838D83E981FA8139
:1050D0003296FA83E9836E0E7F1EC601880F991FF0
:1050E0000196680E791EFB81FF2319F12D813E8107
:1050F000220F331F2F5F3F4F240D351D8701A40161
:105100008D819E81481B590BB6016A0D7B1D83E47E
:1051100096E00E94061291012D5F3F4FA4014C19A9
:105120005D096D817E816A0D7B1D83E496E00E949E
:1051300006129C81992321F12D813E81220F331F7C
:105140002F5F3F4F240D351D8701A401ED81FE81A6
:105150004E1B5F0BB5016C197D0983E496E00E943C
:10516000061291012D5F3F4FA4014C195D09B50155
:105170008D819E81681B790B83E496E00E94061264
:105180009FEFC91AD90AE2E02E0E311C90CF269665
:105190000FB6F894DEBF0FBECDBFDF91CF911F9148
:1051A0000F91FF90EF90DF90CF90BF90AF909F90C6
:1051B0008F907F906F905F904F903F902F900895C9
:1051C00090E0FC01E954F04E2491FC01ED55F04EC5
:1051D0008491882399F090E0880F991FFC01E15792
:1051E000F04EA591B491FC01EB57F04E859194914E
:1051F0008FB7F894EC91E22BEC938FBF0895E5E81C
:10520000F4E0A089B18982E08C93A485B5851C92D5
:10521000A685B7858FEC8C93108EA489B58986E01E
:105220008C93A289B3898C9180618C93A289B38974
:105230008C9188608C93A289B3898C9180688C93BF
:105240000288F389E02D80818F7D808308954F92BD
:105250005F926F927F928F929F92AF92BF92CF9206
:10526000DF92EF92FF926B017C01B42E9B01AC01A7
:105270000E946E39882319F061EC71E027C0260185
:105280003701E89477F82FEF3FEF4FE75FE7C3016F
:10529000B2010E946E3981110DC02FEF3FEF4FE731
:1052A0005FE7C301B2010E94993518161CF465EC42
:1052B00071E00CC02FEF3FEF4FE75FE4C701B6018D
:1052C0000E941739181694F469EC71E085E894E0AF
:1052D000FF90EF90DF90CF90BF90AF909F908F9016
:1052E0007F906F905F904F900C94612D2FEF3FEF68
:1052F0004FE75FECC701B6010E94993587FDE4CF07
:1053000020E030E0A901C701B6010E94993587FF6E
:1053100011C0E0918504F09186040190F081E02DA8
:105320006DE285E894E009954C01F7FAF094F7F8FE
:10533000F09402C0812C912CA12C60E070E080E000
:105340009FE3AB1441F020E030E040E251E40E94E2
:105350000938A394F6CF9B01AC01C701B6010E94A6
:1053600026372B013C010E9482386B017C010E9490
:105370009E359B01AC01C301B2010E9425372B0170
:105380003C012AE0B701A60185E894E00E94762D51
:105390007C01E80CF91CBB2069F0E0918504F091D8
:1053A00086040190F081E02D6EE285E894E0099595
:1053B000E80EF91EDB2CDD2031F120E030E040E288
:1053C00051E4C301B2010E94FF352B013C010E9450
:1053D00082384B01A12CB12C2AE0B501A40185E84B
:1053E00094E00E94762DE80EF91EC501B4010E94DA
:1053F0009E359B01AC01C301B2010E9425372B01F0
:105400003C01DA94D8CFC701FF90EF90DF90CF90A6
:10541000BF90AF909F908F907F906F905F904F90D4
:105420000895AF92BF92CF92DF92EF92FF920F93C7
:105430001F93CF93DF936C015B01EA0179019A011D
:10544000220F331F2F5F3F4FAB014C1B5D0B8701BA
:10545000B60183E496E00E94061200E010E023E02B
:10546000AE01B501C6010E942428DF91CF911F91A2
:105470000F91FF90EF90DF90CF90BF90AF90089585
:10548000CF92DF92EF92FF920F931F93CF938C01F5
:10549000C62F6A0180914006A80190E00E94421A3E
:1054A0007C01E0913F068E2F90E0A8016C2F499679
:1054B0000E94EE19960142E050E0BC01C701CF9175
:1054C0001F910F91FF90EF90DF90CF900C94112AD5
:1054D00020915B0630915C06009749F0232B99F4EC
:1054E00020915106309152062A5F3F4F08C0232B6E
:1054F00051F02091510630915206265031093093D7
:1055000052062093510690935C0680935B060895A3
:105510002F923F924F925F926F927F928F929F92C3
:10552000AF92BF92CF92DF92EF92FF920F931F93B1
:10553000CF93DF937C016B0166246394712C00E0B0
:1055400010E0C4E0D0E098EF892E99249A942DEFD2
:10555000A22EBB24BA94842F8470582E842F82707C
:10556000482E842F8870382E4170242E0F5F1F4FD5
:1055700082E0680E711CA60CB71C5520C1F020E01B
:1055800030E0A6014C0F5D1FB701600F711F83E46F
:1055900096E00E94121220E030E0A601400F511F59
:1055A000B7016C0F7D1F83E496E00E941212442025
:1055B000C1F020E030E0A6014C1B5D0BB701600F8D
:1055C000711F83E496E00E94121220E030E0A601F1
:1055D000401B510BB7016C0F7D1F83E496E00E94C6
:1055E00012123320C1F020E030E0A601400F511F1D
:1055F000B7016C1B7D0B83E496E00E94121220E041
:1056000030E0A6014C0F5D1FB701601B710B83E4F6
:1056100096E00E9412122220C1F020E030E0A601A4
:10562000401B510BB7016C1B7D0B83E496E00E947D
:10563000121220E030E0A6014C1B5D0BB701601B8D
:10564000710B83E496E00E9412120C171D074CF4B4
:10565000B7FC8CCF219782E0880E911CA80CB91C56
:1056600085CFDF91CF911F910F91FF90EF90DF9049
:10567000CF90BF90AF909F908F907F906F905F90F2
:105680004F903F902F9008952F923F924F925F92AC
:105690006F927F928F929F92AF92BF92CF92DF9242
:1056A000EF92FF920F931F93CF93DF9300D000D020
:1056B000CDB7DEB72C015B011A01390168018827DB
:1056C0009927801B910B9C01220F331F3C832B8356
:1056D000C201800F911F9A838983240F351F830194
:1056E000AB01BC0183E496E00E94EA11EB81FC81EE
:1056F0006E0E7F1EF1E06F1A7108AC0CBD1C420CDF
:10570000531CC2018C199D09830121E0A601B5013A
:1057100001970E94242822E0A601B50189819A817F
:105720000E9424280F900F900F900F90DF91CF913F
:105730001F910F91FF90EF90DF90CF90BF90AF90AF
:105740009F908F907F906F905F904F903F902F90A1
:105750000895439A419A409A60E085E00E94491E6C
:1057600062E070E080E090E00E949E1E61E085E0D3
:105770000E94491E439842988BB18F728BB985B1B4
:10578000807D85B94198419A83E04198419A815042
:10579000E1F7439A08958091A10387FF0CC080919F
:1057A0008D0390E09C0146E0220F331F4A95E1F7FC
:1057B000822B932B089585FF09C08091950390E07B
:1057C000982F882720919603822B08958091850336
:1057D00090E00895CF93DF93DC01ED91FC91EB0114
:1057E000A881B981309711F01097C9F4109759F03A
:1057F000EB012C813D81232B31F08C9190E0919530
:105800008195910914C0309781F0DC0114968D9137
:105810009C911597892B49F0808190E008C0BD01CB
:10582000CF01DF91CF910C94DE3B80E090E0DF91DF
:10583000CF910895EF92FF920F931F93CF93DF9331
:10584000EC017B018A0188819981009729F02A81E6
:105850003B8124173507F8F4B8016F5F7F4F0E9432
:10586000063B009759F0998388831B830A832C8118
:105870003D81232B81F4FC0110820DC08881998128
:10588000009711F00E946E3A198218821D821C82C4
:105890001B821A8207C01D830C83B70188819981FE
:1058A0000E94E73BCE01DF91CF911F910F91FF90B6
:1058B000EF900895FC01808191810C946E3AFB0178
:1058C000DC0111961C921E9213961C921E92129746
:1058D00015961C921E9214978617970749F06081BF
:1058E00071816115710521F0448155810C941A2C48
:1058F0000895682F8CE695E00C9471131F93CF9355
:10590000DF93EC018C85613011F48F5F01C0815011
:105910008C872C852F73822F90E0203148F4E1E4AE
:10592000F1E0E81BF90B4081FC01EF5CFE4F20C069
:1059300030EF320F303138F4FC01EF5DFE4F408123
:10594000E1E5F1E013C030EE320F303148F4E1E62A
:10595000F1E0E81BF90B4081FC01EF5EFE4F08C04F
:10596000FC01EF5FFE4F4081E1E7F1E0E81BF90B3E
:1059700010812C8780E1489FA00111246C818D85C6
:105980009E850E94152880E1189FA00111246F8137
:105990008D859E850E9415288C85803110F413E03A
:1059A00001C010E090EF980F903108F4166090EE6F
:1059B000980F903108F41C608053803108F419600E
:1059C0008D859E8520E030E010FF03C040E050E16F
:1059D00002C040E050E06E81CB960E9489278D8501
:1059E0009E8520E030E011FF03C040E050E102C09E
:1059F00040E050E06885CB960E9489278D859E8582
:105A000020E030E012FF03C040E050E102C040E07F
:105A100050E06D81CB960E9489278D859E8520E080
:105A200030E013FF03C040E050E102C040E050E02E
:105A30006985CB960E9489278C85DF91CF911F9134
:105A40000895CF92DF92EF92FF920F931F93CF931F
:105A5000DF936C017A018B01C0E0D0E0CE15DF0549
:105A600089F0D8016D918D01D601ED91FC910190E5
:105A7000F081E02DC6010995892B11F47E0102C049
:105A80002196ECCFC701DF91CF911F910F91FF902D
:105A9000EF90DF90CF900895FC0111821082138265
:105AA0001282158214826115710551F0FB0101907B
:105AB0000020E9F73197AF01461B570B0C941A2CC5
:105AC00008956115710579F0FB0101900020E9F757
:105AD0003197AF01461B570BDC01ED91FC91028021
