:100000000C94170C0C943F0C0C943F0C0C94B619E8
:100010000C94B6190C94B6190C943F0C0C943F0C2C
:100020000C943F0C0C943F0C0C943F0C0C943F0C24
:100030000C943F0C0C943F0C0C943F0C0C943F0C14
:100040000C9434200C943F0C0C941C1F0C94F61E42
:100050000C943F0C0C943F0C0C943F0C0C943F0CF4
:100060000C94C0190C943F0C05A84CCDB2D44EB9D9
:100070003836A9020C50B9918688083CA6AAAA2A4B
:10008000BE000000803F00000000040001000002EC
:100090000B0401F6030004040601F60500090B0930
:1000A00000F61200070D0901F61E000A0B0B00F600
:1000B0002C000A0B0A00F63A0001040301F63B008B
:1000C000040F0501F64300040F0500F64B00060778
:1000D0000700F5510007070901F858000204040160
:1000E000FF590004010501FD5A0002020401FF5BF3
:1000F00000040B0500F66100070B0801F66B000217
:100100000B0803F66E00060B0801F67700060B08D5
:1001100001F68000080B0800F68B00060B0801F6BC
:100120009400060B0801F69D00070B0801F6A700D6
:10013000060B0801F6B000060B0801F6B90002072D
:100140000401FABB0002090401FABE000707090115
:10015000F8C50007040901F9C90007070901F8D02B
:1001600000040B0501F6D6000F0F1001F5F3000B8C
:100170000B0B00F60301080B0901F60E010A0B0B2D
:1001800001F61C010A0B0C01F62A01070B0801F607
:100190003401060B0801F63D010A0B0C01F64B0178
:1001A000090B0C01F65801020B0401F65B01040F68
:1001B00004FFF663010A0B0B01F67101070B08013E
:1001C000F67B010A0B0D01F689010A0B0D01F6976A
:1001D000010B0B0D01F6A701070B0801F6B1010B8E
:1001E0000D0D01F6C301090B0A01F6D001060B073C
:1001F00001F6D901090B0A00F6E601090B0B01F61D
:10020000F3010A0B0A00F60102110B1100F61902A4
:100210000B0B0B00F629020A0B0A00F637020A0B39
:100220000A00F64502040F0501F64D02040B050015
:10023000F65302040F0500F65B0207060800F6619C
:10024000020901090003630203020501F6640207C3
:10025000070700FA6B02060B0801F6740205070790
:1002600001FA7902060B0801F6820206070801FA74
:100270008802050B0400F68F02070B0700FA9902AB
:10028000060B0801F6A202020A0401F7A502030EFA
:100290000400F7AB02070B0801F6B502010B0401DD
:1002A000F6B7020A070C01FAC00206070801FAC6EF
:1002B0000207070901FACD02060B0801FAD6020669
:1002C0000B0801FADF0205070601FAE4020507063A
:1002D00001FAE90205090500F8EF0206070801FA2C
:1002E000F50207070700FAFC020C070C00FA0703E7
:1002F00008070800FA0E03070B0700FA18030607A1
:100300000700FA1E03050F0500F52803020F04017C
:10031000F62C03050F0500F5360308020901FB7FE3
:10032000D63CBBB91108845FF2211089FF4222112B
:100330000010FB4C8D07050B172FF0810070926C9D
:1003400091287601009869124892181C0D8220D8D5
:10035000340627D91CC711E38CF01264CCCCCCC472
:100360006210842233333332248013538ED44100FD
:10037000102047F1020400BAF0F0113222444C8000
:10038000789A142850E1428599E0FFFFFC7260C31F
:100390000C218C218FC0F220C308C0830E2F0004D3
:1003A0000C0C143464FF040404047904107060C35A
:1003B0000E2F0018C610C3ECE1873380FE1830C141
:1003C000820C106081007B3861CDECE187178033AF
:1003D0002861C5F0C218C200F03CF03D800219C48B
:1003E00007018080FE0007F080C07011CC20006300
:1003F000326CC8044007C0306080223B64CE510894
:10040000A611482290C52192676277060047030330
:10041000F8000C0180380D0130620FE30440C80B76
:100420000100F8C4C6C6C4FCC6C3C3C6FC1F0C3456
:100430000300C020080300401C31F8FE30EC0B0321
:10044000C0701C0703C0B0EFE0FD83060C1FB06056
:10045000C183F8FF0C30C3FC30C30C001F0C340305
:1004600000C0200C3F0340DC31F8C0E070381C0FA6
:10047000FF0381C0E07020FFFFFC3333333333339D
:1004800032E0C3318CC360F03C0D8330C630CC18F1
:10049000C183060C183060C183F8C0783E1745CA86
:1004A000731C4701C0701C04C0781E0741C8711C32
:1004B0004709C1703C041F0E1901E0380300600EAB
:1004C00003406E187C00FD8F1E3C7FB060C183002E
:1004D0001F0E1901E0380300600E03406E187C0304
:1004E000801CF8663198CCC7C33188C661B0C07330
:1004F0002820C0C0830E2780FF86030180C06030A3
:10050000180C060300C0E070381C0E070381C0B051
:100510008F80C090241984230C8120580C03008004
:10052000C18120E09050CC6842262191205890282B
:10053000281C18040C020400606618C60D80E00C2C
:1005400003C0C8318C1B0180C1986330581C030064
:10055000C0300C0300C07FC060301C060301C060C7
:10056000301807FCFCCCCCCCCCCCCCF08444622240
:100570001110F3333333333333F01870A12648C0EE
:10058000FF80C8791031E4D99F80820820FB386150
:10059000863F807E210861E00410417F1861871743
:1005A000C033387F8303C03918CF318C63183E992C
:1005B00012278C183E878DF0820820BB3861861880
:1005C00040C2AAA060249249258081020408D32C4D
:1005D00078991A18FFE0BBB318C6318C6318C4BBF6
:1005E0003861861840798E0C1838DE00FA3861863A
:1005F0003FA08208007F18618717C1041040FE7178
:100600008C6300F420C10FC0233EC6318C3886189D
:1006100061873740C6899142820400C424664E42F5
:10062000B42981181080C2643C183C66C3C689B1E5
:1006300043820C1820C100FC318C3187C0198842DC
:1006400010982108421860FFFFFFFCE1084210C12A
:100650003108421380F19E00000100FF00320001CA
:100660000000010200000703003010040000000831
:10067000000202090000000A0000000C0000000D4A
:100680000000000F00000010000000110007001221
:1006900000000013000000FF00C8001000901611B9
:1006A000002702FF00320012001A00FF0032001380
:1006B00000001829002A00FF00320030000000313D
:1006C000000000320000003500060236000808373E
:1006D00000070038000102390000003C0000003D26
:1006E0000000002000000021000000500000005128
:1006F00000EF005200000053003F01600000A761BE
:100700000003006A000000900010009200000093B7
:1007100000030095000011970000009800000007FA
:100720000033011F038600207E1200000000003EFF
:100730005B4F5B3E3E6B4F6B3E1C3E7C3E1C183C51
:100740007E3C181C577D571C1C5E7F5E1C00183CAD
:100750001800FFE7C3E7FF0018241800FFE7DBE7F6
:10076000FF30483A060E2629792926407F050507DD
:10077000407F05253F5A3CE73C5A7F3E1C1C080839
:100780001C1C3E7F14227F22145F5F005F5F0609FE
:100790007F017F006689956A606060606094A2FF57
:1007A000A29408047E040810207E201008082A1C49
:1007B00008081C2A08081E101010100C1E0C1E0C15
:1007C00030383E3830060E3E0E06000000000000B5
:1007D000005F00000007000700147F147F14242A24
:1007E0007F2A1223130864623649562050000807F6
:1007F0000300001C2241000041221C002A1C7F1C17
:100800002A08083E08080080703000080808080818
:10081000000060600020100804023E5149453E007F
:10082000427F400072494949462141494D331814DD
:10083000127F1027454545393C4A4949314121112C
:1008400009073649494936464949291E000014001E
:100850000000403400000008142241141414141441
:10086000004122140802015909063E415D594E7C9F
:100870001211127C7F494949363E414141227F4154
:1008800041413E7F494949417F090909013E4141B2
:1008900051737F0808087F00417F41002040413F9D
:1008A000017F081422417F404040407F021C027FAC
:1008B0007F0408107F3E4141413E7F090909063E01
:1008C0004151215E7F0919294626494949320301D0
:1008D0007F01033F4040403F1F2040201F3F4038E2
:1008E000403F631408146303047804036159494DBD
:1008F00043007F4141410204081020004141417FF3
:100900000402010204404040404000030708002068
:10091000545478407F284444383844444428384468
:1009200044287F385454541800087E090218A4A49F
:100930009C787F0804047800447D40002040403DBE
:10094000007F1028440000417F40007C0478047838
:100950007C080404783844444438FC1824241818CB
:10096000242418FC7C080404084854545424040427
:100970003F44243C4040207C1C2040201C3C403014
:10098000403C44281028444C9090907C4464544C43
:10099000440008364100000077000000413608009E
:1009A00002010204023C2623263C1EA1A161123A48
:1009B0004040207A38545455592155557941225494
:1009C000547842215554784020545579400C1E5299
:1009D000721239555555593954545459395554543E
:1009E000580000457C410002457D420001457C40A5
:1009F0007D1211127DF0282528F07C5455450020E9
:100A000054547C547C0A097F4932494949323A445A
:100A100044443A324A4848303A4141217A3A4240C5
:100A20002078009DA0A07D3D4242423D3D40404097
:100A30003D3C24FF2424487E4943662B2FFC2F2B6A
:100A4000FF0929F620C0887E09032054547941000B
:100A500000447D413048484A32384040227A007A8A
:100A60000A0A727D0D19317D2629292F2826292968
:100A7000292630484D40203808080808080808088A
:100A8000382F10C8ACBA2F102834FA00007B0000B1
:100A900008142A142222142A14085500550055AAB5
:100AA00055AA55AAFF55FF55FF000000FF00101082
:100AB00010FF00141414FF001010FF00FF1010F0BE
:100AC00010F0141414FC001414F700FF0000FF00D1
:100AD000FF1414F404FC141417101F10101F101F1F
:100AE0001414141F00101010F0000000001F10104C
:100AF00010101F10101010F010000000FF10101048
:100B0000101010101010FF10000000FF140000FF64
:100B100000FF00001F10170000FC04F4141417104D
:100B2000171414F404F40000FF00F7141414141440
:100B30001414F700F7141414171410101F101F14B6
:100B40001414F4141010F010F000001F101F000017
:100B5000001F14000000FC140000F010F01010FF43
:100B600010FF141414FF141010101F00000000F0E8
:100B700010FFFFFFFFFFF0F0F0F0F0FFFFFF0000BD
:100B8000000000FFFF0F0F0F0F0F3844443844FCE4
:100B90004A4A4A347E02020606027E027E026355FB
:100BA0004941633844443C04407E201E2006027EB6
:100BB000020299A5E7A5991C2A492A1C4C720172C8
:100BC0004C304A4D4D303048784830BC625A463D32
:100BD0003E494949007E0101017E2A2A2A2A2A44E7
:100BE000445F444440514A444040444A514000001C
:100BF000FF0103E080FF000008086B6B0836123627
:100C00002436060F090F0600001818000000101007
:100C1000003040FF0101001F01011E00191D1712C5
:100C2000003C3C3C3C0000000000000000000700CD
:100C300001000004110701F0090009060C01F01081
:100C4000000E120E00F030000B140D01F04C0010DD
:100C5000111101F06E0010111201F090000406064F
:100C600001F0930008170901F0AA0008170900F025
:100C7000C1000A0B0B01F0CF000C0B0E01F4E000D9
:100C800004080701FDE40006030801FAE700040474
:100C90000701FDE90007110700F0F8000B110D0135
:100CA000F0100103110D05F017010B110D01F02FCC
:100CB000010A110D01F045010B110D01F05D010953
:100CC000100D02F16F010B110D01F087010A110DDA
:100CD00002F09D010B110D01F0B5010B110D01F09A
:100CE000CD01040B0701F6D301040F0701F6DB0168
:100CF0000C0D0E01F2EF010C080E01F5FB010C0DBD
:100D00000E01F20F0207110901F01E02161618015A
:100D1000F05B0213111300F084020E111102F0A215
:100D20000210111301F0C40210111302F0E6020CBC
:100D3000110F02F000030B110F02F0180311111430
:100D400001F03D0310111402F05F0304110802F0DA
:100D50006803071508FFF07B030F111102F09B03D6
:100D60000C110F02F0B50311111502F0DA03101186
:100D70001402F0FC0313111501F025040D111002EB
:100D8000F0410413151501F073040E111002F091D7
:100D9000040D110F01F0AD0410111101F0CF04107A
:100DA000111402F0F10411111100F016051C111CB0
:100DB00000F0520513111400F07B0511111100F021
:100DC000A00510111100F0C20508160B02F0D8059D
:100DD00007110700F0E70509160B00F000060C09E3
:100DE0000E01F00E060C010C0003100608070A01A4
:100DF000F017060C0B0D01F628060C110E01F0423F
:100E0000060A0B0C01F650060C110E01F06A060BD7
:100E10000B0D01F67A0609110700F08E060C110D74
:100E200001F6A8060C110E01F0C20604110701F02C
:100E3000CB0605170700F0DA060C110D02F0F406D8
:100E400003110702F0FB06140B1702F617070C0B31
:100E50000E01F628070C0B0E01F639070C110E01D6
:100E6000F653070C110E01F66D07090B0B02F67A0B
:100E700007090B0A01F68707090E0A00F397070C0A
:100E80000B0E01F6A8070C0B0C00F6B907130B1399
:100E900000F6D4070D0B0D00F6E6070C110C00F65A
:100EA00000080C0B0D00F6110816151801F04B0880
:100EB00018141A01F0870816151A02EFC10817183E
:100EC0001800EE7FFFFF77662007FF70F3F9FCFC48
:100ED000763B1C0E1838E0E3830E1C3BFFFFFFFF40
:100EE000FF1870E18FFFFFFFFFFDC3870C1C3071FF
:100EF000C1C7000C03F1FF766EC5D83F03E07F83C6
:100F0000F83F8670CF19FB7FFE3F01803006003826
:100F10000CFC18C618C630C660C660FCC03980011B
:100F200080033C067E06E60CC718C718E6307E60D4
:100F30003C07C01FE03FF03CF03C703CE01FE01F6E
:100F4000C03F877FCFFBFEF1FEF0FCF0F8FFFC7F97
:100F5000FE1F1FFFFE66070E1C1C38787870F0F02D
:100F6000F0F0F0F0F0707878381C1C0E07E0703864
:100F70003C1C1E0E0F0F0F0F0F0F0F0F0F0E1E1C1E
:100F80003C3870E01C070CCBA7FB830FBFA7CC87B6
:100F900001C00F00F00F00F0FFFFFFFFF0F00F00A7
:100FA000F00F006FF7776CFFFFC07FF70E1870E14E
:100FB000830E1C3060C3870C1870E01F07F1FF3CE4
:100FC000E71FE3FC7F8FF1FE3FC7F8F71EF39FF1A9
:100FD000FC1F00FFFFFFFFFFFFE01F0FF1FF31E8E5
:100FE0003C0380F01E0380F01C0781E0380FFBFFFC
:100FF000FFE03E1FE7F91F03C0F0783C0F03E03C21
:101000000F03E0FFFFFE7E0001C0380F03E0FC3F4E
:1010100087F1DE73DC7BFFFFFFFE0780F01E03C05D
:10102000FFFFFFFE0F0783F9FEFF83C0E0787FFF1D
:10103000FDFC0781E03C0F01C0781FC3FE7FDE3F4F
:10104000C7F8FF1FE3DFF1FC1F00FFFFFFFC1E07D7
:1010500081E0F03C0F0781E0703C0F0381E0180055
:101060001F07F1E738F71EE3DE71FC3F8F3BC7F83F
:10107000FF1FE3DE79FE1F001F07F1FF38FF1FE3AC
:10108000FC7F8F7FE7F87F03C0781E07C0F03C002D
:101090007FF70007FF707FF70006FF7776C000102C
:1010A0000F03F1FE7F8FC0F00FC07F81FE03F00FB2
:1010B0000010FFFFFFFFF000000FFFFFFFFF800F9A
:1010C00000FC07F81FE03F00F03F1FE7F8FC0F00AF
:1010D0008000F9FBF8F1E3CF1C38E0C1000E1E3CA4
:1010E0007000FE001FFF00F01E07001C380039C30F
:1010F000CE661FF9B8E3C7C7070F1C1C3CE071F3AD
:1011000081C6CE0E1B3838CC71E639FFF063EF8113
:10111000C00073C00383C03C07FFE003FC0003F082
:10112000007E000FC003FC007F800F7803CF0079A2
:10113000F01F1E03C3C0783C1FFF83FFF8FFFF1E94
:1011400001F3C01EF803E0FFC3FF8FFF3C7CF0F308
:10115000C3CF1E3FF0FFF3FFEF07BC1FF07FC1EFCF
:10116000FFBFFCFFE003FC0FFF1FFF3F077C017880
:1011700000F800F000F000F000F80078007C013F7B
:10118000071FFF0FFF03F8FFC0FFF8FFFCF07EF022
:101190003EF01FF00FF00FF00FF00FF00FF01FF008
:1011A0003EF07EFFFCFFF8FFC0FFFFFFFFFF00F0F7
:1011B0000F00F00FFEFFEFFEF00F00F00F00FFFF3B
:1011C000FFFFF0FFFFFFFFF80F01E03C07FFFFFF0D
:1011D000FFC0780F01E03C0780F00003FC07FF87A9
:1011E000FFC7E0E7C00BC003E001E000F03FF81FDD
:1011F000FE0FEF00F7C079F07C7FFE1FFE03F800C2
:10120000F00FF00FF00FF00FF00FF00FFFFFFFFFE8
:10121000FFFFF00FF00FF00FF00FF00FF00FF00FD7
:10122000F00FFFFFFFFFFFFFFFFFF01E3C78F1E331
:10123000C78F1E3C78F1E3C78F1E7FF7EF00F07D6C
:10124000E1F3C7C78F0F3E1E783DF07FC0FF01FF5F
:1012500003DF079F0F1F1E3E3C3E783EF03EF00F1F
:1012600000F00F00F00F00F00F00F00F00F00F0083
:10127000F00F00FFFFFFFFF0F007FC03FE03FF830A
:10128000FFE3FFF9FFFDFFFFFFF7F7F9F3FC71FE46
:1012900010FF007F803FC01FE00FF00780F00FF8C5
:1012A0000FFC0FFE0FFE0FFF0FFF8FF7CFF3EFF1D5
:1012B000FFF0FFF0FFF07FF03FF01FF00FF00703AB
:1012C000F801FFC07FFC1F07C7C07CF007BE00FF0E
:1012D000800FF001FE003FE00FBC01E7C07C7C1FE7
:1012E00007FFC07FF003F800FFC7FF3FFDE1EF0FEE
:1012F000F87FC3DFFEFFE7FE3C01E00F007803C08C
:101300001E00F00003F801FFC07FFC1F07C7C07C70
:10131000F007BE00FF800FF001FE003FE00FBC01B0
:10132000E7C07C7C1F07FFC07FF003F8001FC001EF
:10133000FF800FE00078FFC3FF8FFF3C3CF0FBC352
:10134000CF0F3FF8FFC3FF0F3E3C7CF0F3C3EF0726
:10135000BC1EF07C1FC1FF9FFDF06F007C03F80FE7
:10136000F83FE07F807C01F80FF07BFFCFFC1F800F
:10137000FFFFFFFFFFFF03C003C003C003C003C0A4
:1013800003C003C003C003C003C003C003C003C045
:1013900003C0F00FF00FF00FF00FF00FF00FF00F91
:1013A000F00FF00FF00FF00FF00FF81F7C3E7FFEF4
:1013B0003FF80FE0F807BC07DF03C783E3E1E0F184
:1013C000F078F03E780F7807FC01FE00FE003F0049
:1013D0001F000780038000C000F80F01F780F01E97
:1013E000781F81E7C1F83E3C3FC3C3E3FC7C1E7F0E
:1013F000E781E79E780FF9FF00FF0FF00FF0FF0085
:101400007E07E007E07E003E07C003C03C001C03EF
:101410008001801800FC07E7C1F8FC3E0F8F80FBBD
:10142000E00FF800FF001FC001F8007F001FF00769
:10143000FF00FBF03E3F0F83E3F03EFC03E0F80FBC
:10144000BE0F8F07C7C7C1F7C07BE03FE00FF003B7
:10145000F001F000F8007C003E001F000F8007C084
:1014600003E0007FFF7FFE7FFC007C00F801F801B5
:10147000F003E003E007C00F800F801F003E003F35
:10148000FF7FFFFFFFFFFFFFF0F0F0F0F0F0F0F064
:10149000F0F0F0F0F0F0F0F0FFFFFFE0C183070E96
:1014A0000C18387060C1C383060EFFFFFFE0F078B0
:1014B0003C1E0F0783C1E0F0783C1E0F0783C1FF7D
:1014C000FFFFFC0700F00F81F81F839C39C70EF067
:1014D000F0FFF0107EE7C7C7E67E7F8FF8C3C83CF9
:1014E0000FC3FCF3CE3CE3DFFF7DE0F00F00F00F15
:1014F00000F00F00F78FFEF1EF0FF07F07F0FF0F06
:10150000F1EFFEF7801F8FF787C0F03C0F03C07824
:101510004FF1F800F00F00F00F00F00F1FF7FF7809
:10152000FF0FE0FE0FE0FF0F70F7FF1EF01F8FF9B7
:10153000C3F87FFFFFFC0780782FFC7F00078FC771
:10154000078381C3F9FC381C0E070381C0E07038A3
:10155000001FF7FF71CF1EE1E71C7FC1F07803F891
:101560003FEF3EE0EE0EF1E7FC3F80F00F00F00FA2
:1015700000F00F00F3CFFEF9EF0FF0FF0FF0FF0FB9
:10158000F0FF0FF0F06FF6007777777777703BDE3C
:101590007000E739CE739CE739DEFF7980E00E00FA
:1015A000E00E00E00E00E1EE3CE78EF0FE0FF0EF03
:1015B0000E78E3CE3CE1F0FFFFFFFFFFFFE0E7879F
:1015C0008FFCFEF1F9EE0F0EE0E0FE0E0FE0E0FE04
:1015D0000E0FE0E0FE0E0FE0E0F0F7CFFEF8EF0EAA
:1015E000F0FF0FF0FF0FF0FF0FF0F01F83FE78EF1A
:1015F0000FF07F07F07F0F78F3FE1F80F78FFEF06C
:10160000EF0FF07F07F07F0FF1EFFEFF8F00F00F7D
:1016100000F00F00F0001EF7FF70FF0FE0FE0FE07C
:10162000FF0F78F7FF1FF00F00F00F00F00F00F032
:10163000E777FFDF2F070381C0E07038003E3FB837
:101640005F0FE3F8FC1F877F9F80080C0E0FFFF9E8
:10165000C0E070381C0E0791F878F0FF0FF0FF0F14
:10166000F0FF0FF0FF0F71F7FF3EF0F0F70F79E397
:101670009E3DC1FC1F80F80F00F00600F0E1EE1C5B
:1016800039E78F1CF9C3BF787F7E07EFC0F8F00FF2
:101690001E01C3C0183000F8FBC78F783F80F803E5
:1016A000C03E03F83DE3C7BC1EF0F70F79E39E3D53
:1016B000C1FC1F81F80F80F00F00E01E01C03C0349
:1016C0008078007FF7FE03C07C0780F01F01E03CBC
:1016D00007FFFFF000000400006000030000180096
:1016E00001C0000E000070000380000C00006000CC
:1016F0000300001C00F0E001C300039C0006600032
:101700001F80003C0000F000038000040000007E09
:101710000001FF8003E3E00300E0100070300038B8
:10172000300018780018FC001C30001C30003F38D6
:10173000003E38001C18000C1C00080E0000078139
:10174000C003FFC001FF00007C0004000030000067
:10175000C00007003C1E01F8780F80F07C03E3E036
:10176000079F000FF8001FC0003E0000F80007F0C0
:10177000003FE001E7C00F8FC0FC1FFFE03F9F006C
:101780003E1000007FFFFD10004620008C40011835
:101790008002310004620008C40011880023100098
:1017A0004620008C3FFE180000300000600000C1A1
:1017B000FFC1821F83043F06087E0C10FC1821F82D
:1017C0002843F04887E08FFFFEC30E2A0C207E1BC3
:1017D000000000002300260029000000000800028D
:1017E00001000003040700000000000000000102E7
:1017F000040810204080010204081020010204089F
:10180000102000000000250028002B000404040420
:10181000040404040202020202020303030303039A
:1018200000000000240027002A00E12F5532112477
:101830001FBECFEFD8E0DEBFCDBF24E0ACEFB1E0FC
:1018400001C01D92AB39B207E1F711E0A0E0B1E0B1
:10185000E0E2F0E702C005900D92AC3FB107D9F786
:101860001CE0C6E1DCE004C02197FE010E94E835DF
:10187000C531D107C9F70E946A270C9403380C942C
:1018800000000895FC016370658B84819581268139
:101890003781613039F0633029F091878087338751
:1018A00022870895318720879387828708952F9212
:1018B0003F924F925F926F927F928F929F92AF92E0
:1018C000BF92CF92DF92EF92FF920F931F93CF932D
:1018D000DF93CDB7DEB76C970FB6F894DEBF0FBEBF
:1018E000CDBF9C8F8B8F1B012A0118870F83FE822F
:1018F000ED82CA82DC0158964D915C915997411551
:10190000510509F0B2C018968D919C9119976817EE
:1019100079070CF096C11A968D919C911B974816E9
:1019200059060CF08EC1AC2CB12CCB01B6E0CB9E8D
:10193000800D911D1124181619060CF082C1C501E5
:1019400033E0880F991F3A95E1F7840D951D18161D
:1019500019060CF076C1AB8DBC8D57968C91811118
:1019600003C0203B08F02F5FAB8DBC8DED91FC9147
:1019700011970680F781E02DCD012A8F09952A8DD8
:10198000B5E02B9F90011124610141011B82F901F7
:10199000E219F309FA87E9879201285F3F4F3C87F4
:1019A0002B873B81353049F0E985FA85E80DF91D33
:1019B000E65DF84F4491498301C01982320112015A
:1019C000598150FF13C0AB8DBC8DED91FC91BA8154
:1019D000B13031F40084F185E02D2F81388519C0B4
:1019E0000284F385E02DEF80F8841EC0ED81FE8136
:1019F0002F813885E217F307F1F0AB8DBC8DED91A7
:101A0000FC91BA81B13059F40084F185E02D2D812B
:101A10003E81A301B4018B8D9C8D09950CC002847D
:101A2000F385E02DED80FE8085019501A101B601D1
:101A30008B8D9C8D0995E981E695E983FFEF6F1AFF
:101A40007F0A2A0C3B1C2B853C856216730609F025
:101A5000B7CF3B813F5F3B834FEF841A940ACA0C98
:101A6000DB1C363009F09DCFCAC0FA013496949140
:101A7000329765917491291BCB01B7E02B9F800DA4
:101A8000911D1124FA01259134913A8B298BFC0187
:101A900065907490FC01329634913D833196449167
:101AA0004B873296C490319614915A81523058F037
:101AB0008C2C0C2C000C9908812F012E000C990BFA
:101AC0009C838B8304C01C821B82812C912CAB8D48
:101AD000BC8DED91FC9111970680F781E02DCD0131
:101AE0000995BA81AB2EB12C8A9CC0018B9C900DBC
:101AF0009A9C900D1124FC01E20DF31DF88BEF87E9
:101B00001982912C812CEC2DCC0CFF0B91012E0F06
:101B10003F1F3A87298761013D81C30ED11CA60171
:101B20004E0F5F1F5F8B4E8BC201810F911D17FD02
:101B30009A95998F888F5B85851608F060C0882DEF
:101B400090E04B815C81480F591F4A9D90014B9D4D
:101B5000300D5A9D300D1124D901A40DB51DBE873D
:101B6000AD87C984DA842F843888B981E985BE1BA2
:101B7000BB8B288D398D280F391F3D8B2C8B8B8982
:101B80008C0D2E893F89C216D30699F1877041F4D6
:101B9000C3010196E989FA89E60DF71D94903C018D
:101BA00097FE20C0AB8DBC8DED91FC91BA81B13018
:101BB00061F40084F185E02D2F8138854C895D89A1
:101BC000B6018B8D9C8D09950DC00284F385E02DA7
:101BD000EF80F884850195014D855E85B1018B8D7F
:101BE0009C8D0995990CEFEFCE1ADE0A2A0C3B1C4E
:101BF000C6CF39814D81340F398383949CCFAB8D0F
:101C0000BC8DED91FC9111970288F389E02DCD01F7
:101C10006C960FB6F894DEBF0FBECDBFDF91CF91AB
:101C20001F910F91FF90EF90DF90CF90BF90AF90FA
:101C30009F908F907F906F905F904F903F902F90EC
:101C400009946C960FB6F894DEBF0FBECDBFDF913E
:101C5000CF911F910F91FF90EF90DF90CF90BF90A9
:101C6000AF909F908F907F906F905F904F903F903C
:101C70002F900895AF92BF92CF92EF92FF920F9361
:101C80001F93CF93DF93EC01262F888D998D0097BA
:101C900009F042C06A3069F42C898E859F8538E04E
:101CA000239F800D911D11249F878E871D861C8682
:101CB000ACC06D3009F4A9C08E898823C1F03C897D
:101CC0008C859D8546E0349F800D911D11244885AB
:101CD0005985841795075CF01D861C868E859F8527
:101CE000E8E03E9F800D911D11249F878E87EA8832
:101CF000FB88088919894E855F856C857D85CC8830
:101D0000CE010E94570C2C898C859D85F6E02F9F73
:101D1000800D911D112441C06A3079F41D861C8606
:101D20002C89FC013696E4918E859F852E9F800D2F
:101D3000911D11249F878E8768C06D3009F465C09E
:101D4000AC014C5F5F4FFA013491631708F45DC03A
:101D50003196E491E61708F458C0FA014491362F01
:101D6000341BFC013296A590B490F7E03F9FA00C85
:101D7000B11C1124F501329634913196E49133234C
:101D800011F0E1110DC0F5013496E4912C898C8598
:101D90009D85E29F800D911D11249D878C8735C004
:101DA000F501359644915E89552311F16C89E32F35
:101DB000F0E0E40FF11D47FDFA956E9FD0016F9F93
:101DC000B00D11244C855D854A0F5B1FE885F985B0
:101DD0004E175F076CF01D861C86FC013696E49159
:101DE0008E859F856E9F800D911D11249F878E8704
:101DF000EA88FB88088919894E855F856C857D8511
:101E0000CC88CE010E94570CBECF81E090E0DF91DC
:101E1000CF911F910F91FF90EF90CF90BF90AF9017
:101E200008956F927F928F929F92AF92BF92CF92BE
:101E3000DF92EF92FF920F931F93CF93DF93EC010A
:101E40004B015A0169013801E881F9810680F78167
:101E5000E02D0995E881F9810684F785E02D870159
:101E60009601A501B401CE010995E881F981A5018A
:101E7000460D571D415051090684F785E02D960106
:101E8000B401CE010995E881F9810484F585E02D3E
:101E90009301A501B401CE010995E881F981C80C2F
:101EA000D91CB601615071090484F585E02D9301B8
:101EB000A501CE010995E881F9810288F389E02D19
:101EC000CE01DF91CF911F910F91FF90EF90DF90A6
:101ED000CF90BF90AF909F908F907F906F9009941C
:101EE000CF92DF92EF92FF920F931F93CF93DF93E6
:101EF00000D000D000D0CDB7DEB76C01DC01ED9191
:101F0000FC916217730789F4041715072CF4942FBA
:101F1000852FA801092F182F041B150B98012F5F7F
:101F20003F4F008CF18DE02D12C04017510709F58D
:101F3000261737072CF4962F872FB901292F382F12
:101F4000261B370B2F5F3F4F028CF38DE02D87014F
:101F5000C601099526960FB6F894DEBF0FBECDBF19
:101F6000DF91CF911F910F91FF90EF90DF90CF9075
:101F700008950680F781E02D2D833E834B835C839B
:101F800069837A830995D601ED91FC910088F189E6
:101F9000E02D2D813E814B815C8169817A81C60172
:101FA0000995D601ED91FC910288F389E02DC601D7
:101FB00026960FB6F894DEBF0FBECDBFDF91CF914E
:101FC0001F910F91FF90EF90DF90CF900994EF92C7
:101FD000FF920F931F93DC01ED91FC9111971A96DC
:101FE0000D911C911B9718962D913C911997048C7B
:101FF000F58DE02D7B0140E050E060E070E0099558
:102000001F910F91FF90EF9008954F925F926F9202
:102010007F928F929F92AF92BF92CF92DF92EF9278
:10202000FF920F931F93CF93DF9300D0CDB7DEB70E
:102030006C015A0139014801DC01ED91FC910680E7
:10204000F781E02D69837A8309956981462E7A812B
:10205000572E640C751CD601ED91FC914614570463
:102060006CF40484F585E02D87019401A501B2018B
:10207000C6010995BFEF4B1A5B0AEDCF0288F389C1
:10208000E02DC6010F900F90DF91CF911F910F911E
:10209000FF90EF90DF90CF90BF90AF909F908F9088
:1020A0007F906F905F904F900994AF92BF92CF92C4
:1020B000DF92EF92FF920F931F93CF93DF9300D0A5
:1020C00000D0CDB7DEB75C016901DC01ED91FC9178
:1020D0000680F781E02D4B835C8369837A830995C1
:1020E000D501ED91FC9169817A819B012C0D3D1DFB
:1020F000215031090088F189E02D78014B815C8104
:102100008A01C5010995D501ED91FC910288F389F9
:10211000E02DC5010F900F900F900F90DF91CF91A0
:102120001F910F91FF90EF90DF90CF90BF90AF90F5
:102130000994AF92BF92CF92DF92EF92FF920F93EA
:102140001F93CF93DF9300D000D0CDB7DEB75C01F3
:102150006901DC01ED91FC910680F781E02D4B8354
:102160005C8369837A830995D501ED91FC914B815C
:102170005C81C40ED51EB1E0CB1AD1080088F1896C
:10218000E02D7801860169817A819B01C50109955D
:10219000D501ED91FC910288F389E02DC5010F90E6
:1021A0000F900F900F90DF91CF911F910F91FF90A3
:1021B000EF90DF90CF90BF90AF9009940895EF9289
:1021C000FF920F931F93DC01ED91FC91048CF58D30
:1021D000E02D09951F910F91FF90EF9008950F93B7
:1021E0001F93DC01ED91FC91028CF38DE02D09959C
:1021F0001F910F910895AF92BF92CF92DF92EF920D
:10220000FF920F931F93CF93DF93FC01A38DB48DA7
:102210009C9187A189238C93A58DB68D9C9180A5D7
:1022200089238C93828D8230B9F0811113C08BB1D8
:1022300083708BB985B18C7F85B9A78DB0A19C9136
:1022400081A589238C93A78DB0A19C9185A1892B11
:102250008C9309C0833039F48BB183708C628BB955
:1022600085B18C7F07C08BB1837080628BB985B1DB
:102270008C7F826085B9A78DB0A19C9181A58923AF
:102280008C93A78DB0A19C9185A1892B8C93A58D52
:10229000B68D9C9184A1892B8C938BB1972F9C7FB9
:1022A000B92E8370892B8BB985B1A72FA370AA2E65
:1022B0008C7F8A2B85B9C78DD0A1988181A5892370
:1022C0008883C78DD0A1988185A1892B88838BB104
:1022D000C62FCC7F83708C2B8BB985B1D62FD37052
:1022E0008C7F8D2B85B9078D10A1D8019C9181A57C
:1022F00089238C93078D10A1D8019C9185A1892BEE
:102300008C93215031094109510969017A0186E014
:10231000F694E794D794C7948A95D1F7C6017613BB
:1023200048C1019708F465C060E1A78DB0A1CC91C8
:1023300071A57C237C93A78DB0A1CC9175A17C2B3A
:102340007C93A78DB0A1CC9171A57C237C93A78DA4
:10235000B0A1CC9175A17C2B7C93A78DB0A1CC9121
:1023600071A57C237C93A78DB0A1CC9175A17C2B0A
:102370007C93A78DB0A1CC9171A57C237C93A78D74
:10238000B0A1CC9175A17C2B7C93A78DB0A1CC91F1
:1023900071A57C237C93A78DB0A1CC9175A17C2BDA
:1023A0007C93A78DB0A1CC9171A57C237C93A78D44
:1023B000B0A1CC9175A17C2B7C93A78DB0A1CC91C1
:1023C00071A57C237C93A78DB0A1CC9175A17C2BAA
:1023D0007C93A78DB0A1CC9171A57C237C93A78D14
:1023E000B0A1CC9175A17C2B7C93615009F09DCF5D
:1023F00098CF2F732150C8F0A78DB0A19C9181A5D3
:1024000089238C93A78DB0A19C9185A1892B8C9356
:10241000A78DB0A19C9181A589238C93A78DB0A194
:102420009C9185A1892B8C93E5CFA38DB48D9C9134
:1024300083A1892B8C93DF91CF911F910F91FF90F6
:10244000EF90DF90CF90BF90AF9008956BB1637025
:102450006B296BB965B16C7F6A2965B9078D10A1CD
:10246000D801FC9061A56F216C93078D10A1D80154
:10247000FC9065A16F296C936BB163706C2B6BB989
:1024800065B16C7F6D2B65B9078D10A1D801FC90EB
:1024900061A56F216C93078D10A1D801FC9065A1F7
:1024A0006F296C936BB163706B296BB965B16C7FED
:1024B0006A2965B9078D10A1D801FC9061A56F212B
:1024C0006C93078D10A1D801FC9065A16F296C93C6
:1024D0006BB163706C2B6BB965B16C7F6D2B65B99B
:1024E000078D10A1D801FC9061A56F216C93078D19
:1024F00010A1D801FC9065A16F296C936BB163703A
:102500006B296BB965B16C7F6A2965B9078D10A11C
:10251000D801FC9061A56F216C93078D10A1D801A3
:10252000FC9065A16F296C936BB163706C2B6BB9D8
:1025300065B16C7F6D2B65B9078D10A1D801FC903A
:1025400061A56F216C93078D10A1D801FC9065A146
:102550006F296C936BB163706B296BB965B16C7F3C
:102560006A2965B9078D10A1D801FC9061A56F217A
:102570006C93078D10A1D801FC9065A16F296C9315
:102580006BB163706C2B6BB965B16C7F6D2B65B9EA
:10259000078D10A1D801FC9061A56F216C93078D68
:1025A00010A1D801FC9065A16F296C93715009F0BE
:1025B0004DCF019710F070E149CF2F73215008F4EF
:1025C00034CF8BB183708B298BB985B18C7F8A29ED
:1025D00085B9478D50A1DA019C9181A589238C93FF
:1025E000478D50A1DA019C9185A1892B8C938BB1E9
:1025F00083708C2B8BB985B18C7F8D2B85B9478DE2
:1026000050A1DA019C9181A589238C93478D50A11B
:10261000DA019C9185A1892B8C93D0CFCF93DF9346
:10262000EC01EB8DFC8D90818FA18923808328851F
:1026300039852150310945E064E0CE010E942E2108
:102640002A853B852150310949E068E0CE010E948E
:102650002E21EB8DFC8D90818BA1892B8083DF91C6
:10266000CF9108958F929F92AF92BF92CF92DF92B7
:10267000EF92FF920F931F93CF93DF93EC017A01B8
:102680006901EB8DFC8D30812FA1232320832A8DBE
:1026900021115EC02D89223089F0233021F12130B3
:1026A00081F52FEE30E0A901401B510B5B01490180
:1026B0008E189F08860164017B0113C02FEE30E065
:1026C000A9014C195D096901C61AD70A8FE391E087
:1026D0009C01201B310B8C010E191F09580146016A
:1026E0007901BA0110C02FE331E0A9014C195D094D
:1026F0005901A61AB70A470168018501B7017A0195
:1027000002C05A014B01AB0160E570E0CE010E94AE
:10271000A421A60161E570E0CE010E94A421A701D9
:1027200062E570E0CE010E94A421A80163E570E09B
:10273000CE010E94A421A40160E270E0CE010E94BB
:10274000A421A50161E270E0CE010E94A42147C04E
:102750002130C1F49B0143E062E00E942E219701E9
:1027600047E066E0CE010E942E21960145E064E03C
:10277000CE010E942E21980149E068E0CE010E941E
:102780002E212DC02250223050F5CB01770FAA0BFD
:10279000BB0BDC0199278827A601DD0C660B770BA4
:1027A0009A01AB01282B392B4A2B5B2B6AE2CE0115
:1027B0000E947E20C701FF0CAA0BBB0BDC019927EE
:1027C0008827A801110F660B770B9A01AB01282B04
:1027D000392B4A2B5B2B6BE2CE010E947E20EB8DC6
:1027E000FC8D90818BA1892B8083DF91CF911F91EC
:1027F0000F91FF90EF90DF90CF90BF90AF909F90A0
:102800008F9008952F923F924F925F926F927F9296
:102810008F929F92AF92BF92CF92DF92EF92FF92F0
:102820000F931F93CF93DF9300D000D000D0CDB78C
:10283000DEB75C014B015E834D83280181E090E0AF
:102840003C01641A750ACA01919581959109AC0100
:10285000440F551F5A8349831801CC24C394D12CAB
:10286000522F51705B8322702C83C60101972D81FA
:102870003E81821793070CF068C077FC0CC08D81F5
:102880009E8101979E838D83E981FA813296FA8336
:10289000E9836E0E7F1EC601880F991F0196680E90
:1028A000791EFB81FF2319F12D813E81220F331FF9
:1028B0002F5F3F4F240D351D8701A4018D819E811F
:1028C000481B590BB6016A0D7B1D81EE93E00E94F7
:1028D000931891012D5F3F4FA4014C195D096D8143
:1028E0007E816A0D7B1D81EE93E00E9493189C818E
:1028F000992321F12D813E81220F331F2F5F3F4FFE
:10290000240D351D8701A401ED81FE814E1B5F0B57
:10291000B5016C197D0981EE93E00E949318910135
:102920002D5F3F4FA4014C195D09B5018D819E813A
:10293000681B790B81EE93E00E9493189FEFC91AF0
:10294000D90AE2E02E0E311C90CF26960FB6F894ED
:10295000DEBF0FBECDBFDF91CF911F910F91FF90D2
:10296000EF90DF90CF90BF90AF909F908F907F902F
:102970006F905F904F903F902F900895FC012481BD
:102980003581232B31F421E061157105A1F0FB01A4
:1029900008C0FC01808191816115710531F421E04D
:1029A000FC018081882339F005C00E94F33721E0C3
:1029B000892B09F020E0822F0895AF92BF92CF9229
:1029C000DF92EF92FF920F931F93CF93DF936C01EF
:1029D0005B01EA0179019A01220F331F2F5F3F4FFC
:1029E000AB014C1B5D0B8701B60181EE93E00E94A9
:1029F000931800E010E023E0AE01B501C6010E948B
:102A00000214DF91CF911F910F91FF90EF90DF9013
:102A1000CF90BF90AF9008952F923F924F925F92C8
:102A20006F927F928F929F92AF92BF92CF92DF92DE
:102A3000EF92FF920F931F93CF93DF9300D000D0BC
:102A4000CDB7DEB72C015B011A0139016801882777
:102A50009927801B910B9C01220F331F3C832B83F2
:102A6000C201800F911F9A838983240F351F830130
:102A7000AB01BC0181EE93E00E94DF10EB81FC8191
:102A80006E0E7F1EF1E06F1A7108AC0CBD1C420C7B
:102A9000531CC2018C199D09830121E0A601B501D7
:102AA00001970E94021422E0A601B50189819A8152
:102AB0000E9402140F900F900F900F90DF91CF9112
:102AC0001F910F91FF90EF90DF90CF90BF90AF904C
:102AD0009F908F907F906F905F904F903F902F903E
:102AE00008952F923F924F925F926F927F928F92B2
:102AF0009F92AF92BF92CF92DF92EF92FF920F938D
:102B00001F93CF93DF9300D000D000D0CDB7DEB7B6
:102B10007C016B015E834D83890181E090E03C0183
:102B2000641A750ACA019195819591099C01220F39
:102B3000331F3A832983460F571F9801B70181EE4F
:102B400093E00E949F18A6018D819E81481B590B1E
:102B50009801B70181EE93E00E949F186D817E81FC
:102B60006E0D7F1D9801A60181EE93E00E949F18D3
:102B7000B701ED81FE816E1B7F0B9801A60181EEEE
:102B800093E00E949F18A12CB12C21E030E03C83FF
:102B90002B832D813E81A216B3060CF070C077FC0A
:102BA0000CC08D819E8101979E838D83E981FA817E
:102BB0003296FA83E9836E0E7F1EFFEFAF1ABF0ACB
:102BC0002B813C812E5F3F4F3C832B83620E731E13
:102BD00025014E0C5F1C98018D809E808C0C9D1CE5
:102BE000A401B20181EE93E00E949F1817012A18F8
:102BF0003B089801A401B10181EE93E00E949F1867
:102C0000980146018D819E81881A990AA401B2011A
:102C100081EE93E00E949F189801A401B10181EE1A
:102C200093E00E949F1845018C0C9D1C9801A40103
:102C30004D805E804E0C5F1CB20181EE93E00E94DD
:102C40009F189801A4011701ED81FE812E1A3F0AF9
:102C5000B10181EE93E00E949F1846018A189B08FB
:102C60009801A401B20181EE93E00E949F1898019F
:102C7000A401B10181EE93E00E949F188ACF2696AD
:102C80000FB6F894DEBF0FBECDBFDF91CF911F917D
:102C90000F91FF90EF90DF90CF90BF90AF909F90FB
:102CA0008F907F906F905F904F903F902F900895FE
:102CB000EF92FF920F931F93CF93DF93EC017B0171
:102CC000AC0160E370E080917D0390917E030E94EF
:102CD000131C8C01AE0160E370E080917903909148
:102CE0007A030E94BD1B970142E050E0BC01C8017D
:102CF000DF91CF911F910F91FF90EF900C94DD1415
:102D0000CF93DF93BC0186E592E00E944727EC0158
:102D100063EA71E086E592E00E9455278C0F9D1FC3
:102D2000DF91CF9108952F923F924F925F926F92D1
:102D30007F928F929F92AF92BF92CF92DF92EF924B
:102D4000FF920F931F93CF93DF93CDB7DEB7A89772
:102D50000FB6F894DEBF0FBECDBF8230910561F093
:102D60008330910569F0019789F47AE0272E312CA0
:102D7000E5E0AE2EB12C0AC064E0262E312C03C053
:102D80005FE0252E312C44E0A42EB12C86E08A9DF4
:102D900090018B9D300D112438A72FA3612C712C2D
:102DA00081E190E09EA38DA337E0432E512C2A149D
:102DB0003B040CF429C18FA198A5860D971D9C0199
:102DC00021583C4F7901B901CE0101960E94182784
:102DD00061E070E0CE0101960E94EE1A4C01CE0136
:102DE00001960E94DB26B701CE0101960E941827AA
:102DF00062E070E0CE0101960E94EE1A6C01CE01F5
:102E000001960E94DB26B701CE0101960E94182789
:102E100063E070E0CE0101960E94EE1A8C01CE01B3
:102E200001960E94DB26B701CE014F960E9418271B
:102E3000BE01615E7F4FCE0101960E9418274AE0D5
:102E4000B801CE0107960E94E0264AE0B601CE0105
:102E50000D960E94E0264AE0B401CE0143960E94FE
:102E6000E02667EE71E0CE0149960E943227BE014E
:102E70006D5E7F4FCE0149960E94A7266BEE71E0F2
:102E80000E948E26BE01635F7F4F0E94A72660EFDF
:102E900071E00E948E26BE01695F7F4F0E94A726C7
:102EA00065EF71E00E948E26BE016F5F7F4F0E942A
:102EB000A7260E948016CE0149960E94DB26CE01ED
:102EC00043960E94DB26CE010D960E94DB26CE01A2
:102ED00007960E94DB26CE0101960E94DB26033076
:102EE000110519F405EE1FEA02C008E116EC60ECCA
:102EF00071E0C7010E94BE14882311F000EE1FEF9D
:102F000062EB71E0C7010E94BE14811107C065EB3E
:102F100071E0C7010E94BE14882319F04424439431
:102F2000512C63EB71E0C7010E94BE14811107C0F0
:102F300066EB71E0C7010E94BE14882329F097E078
:102F4000492E512C0EE416EA68EB71E0C7010E948D
:102F5000BE14882389F041E050E06AEF71E0CE01B1
:102F60004F960E94BA268FE090E09EA38DA383E047
:102F7000482E512C00EE1FEF780104E010E02EE106
:102F800030E04EE150E0B601C4010E940C152DA1C5
:102F90003EA1C20ED31E840C951C9092EE0380922B
:102FA000ED03D092F003C092EF031092F40310925D
:102FB000F3031092F2031092F1038091F9039091C0
:102FC000FA03892B39F436E0C30ED11CD092F003FA
:102FD000C092EF0389EC97E19093FA038093F90391
:102FE000BE01615E7F4F81EE93E00E9447270E9401
:102FF000A11BCE014F960E94DB269FEFA91AB90AAA
:1030000026E0620E711CD3CEA8960FB6F894DEBFF0
:103010000FBECDBFDF91CF911F910F91FF90EF9029
:10302000DF90CF90BF90AF909F908F907F906F90E8
:103030005F904F903F902F900895E091FC03F091A6
:10304000FD03908180910404892B8083E09100042A
:10305000F0910104908180910604892B8083E09196
:103060000204F0910304908180910704892B8083EE
:1030700080910C04882371F060E00E94771F62E069
:1030800070E080E090E00E94FA1F61E080910C0403
:103090000E94771FE091FC03F091FD0390818091E5
:1030A000080489238083E091FE03F091FF0390815F
:1030B00080910904892380838BB183708BB985B19A
:1030C0008C7F85B9E0910004F0910104908180919A
:1030D0000A0489238083E0910004F0910104908127
:1030E00080910604892B808383E0E0910004F091B5
:1030F0000104208190910A0492239083E0910004BE
:10310000F0910104208190910604922B90838150CC
:1031100061F7E091FC03F091FD039081809104043C
:10312000892B808308950F931F93DC01ED91FC910F
:10313000008CF18DE02D09951F910F910895DC0110
:10314000ED91FC910480F581E02D099408952F9272
:103150003F924F925F926F927F928F929F92AF9227
:10316000BF92CF92DF92EF92FF920F931F93CF9374
:10317000DF9300D01F92CDB7DEB74C017B836A830B
:103180006A01590117019801241B350B37FF03C051
:10319000319521953109C5014A815B81841B950BCD
:1031A00097FF03C091958195910951E0598382174A
:1031B000930714F019820BC09A2D8B2D5801092FFB
:1031C000182F9A818B81DB82CA82C92ED82E8A81E0
:1031D0009B81A816B9065CF49C2D8D2D6801092FE2
:1031E000182F9A818B81BB82AA82A92EB82E250125
:1031F000AA81BB814A1A5B0A38016C187D0877FEE8
:1032000003C0719461947108720157FE03C0BFEF4F
:10321000EB1AFB0AF594E794C016D1061CF00FEFE9
:103220001FEF1FC001E010E01CC0D401ED91FC9124
:10323000B9810084F185E02D9101BB23C1F04A8161
:103240005B81B601C4010995E618F708F7FE04C0D2
:10325000C00ED11EE40CF51CEA81FB813196FB8384
:10326000EA834A815B81A416B506FCF604C0A60178
:103270006A817B81E7CF0F900F900F90DF91CF9104
:103280001F910F91FF90EF90DF90CF90BF90AF9084
:103290009F908F907F906F905F904F903F902F9076
:1032A000089585ED8093BC008091BC0084FDFCCF27
:1032B00010926A04089540914404262F30E0240FB0
:1032C000311D21323105DCF420916A042430C9F427
:1032D000FC0180E090E0861758F43091440421917D
:1032E000DC01AE5DBB4FA30FB11D2C930196F3CF54
:1032F00080914404680F6093440480E0089581E065
:10330000089582E0089508958FEF9FEF08958FEF5D
:103310009FEF08958091210490E091958195910906
:103320000895CF93DF9300D0CDB7DEB7CB01642FE4
:1033300049835A830E945B194981842F5A81952FB2
:103340000F900F90DF91CF910895CF93DF931F924D
:10335000CDB7DEB7698361E0CE0101960E945B19AB
:1033600081E090E00F90DF91CF9108951F920F922E
:103370000FB60F9211240F900FBE0F901F9018954B
:103380001F920F920FB60F9211242F933F934F93DA
:103390005F936F937F938F939F93AF93BF93EF93BD
:1033A000FF938091B900887F803609F49CC068F54E
:1033B000883209F45BC090F4803109F454C038F4C9
:1033C000882309F4F6C0883009F44DC0F6C088316E
:1033D00009F44CC0803209F45DC0EFC0803409F4B8
:1033E00068C048F4803309F455C0883309F0E5C05B
:1033F00080936904D8C0803509F44FC0883509F43A
:103400005DC0883409F0D9C0D6C0883909F4C7C076
:10341000A8F4883709F467C038F4883609F463C023
:10342000803709F460C0C9C0883809F4B8C0803951
:1034300009F45FC0803809F0C0C05BC0803B09F46C
:1034400086C038F4803A09F466C0883A09F47FC02F
:10345000B4C0803C09F4A7C0883C09F4A4C0883BF0
:1034600009F48AC0AAC080918F0410C090918E0484
:1034700080918D04981770F5E0918E0481E08E0F95
:1034800080938E04F0E0E359FB4F80818093BB0072
:1034900085EC86C0809369048EC0E0918E0481E043
:1034A0008E0F80938E048091BB00F0E0E359FB4FB8
:1034B000808390918E0480918D046EC0E0918E0483
:1034C00081E08E0F80938E048091BB00F0E0E35981
:1034D000FB4F808380916C0481116DC081E08093EB
:1034E0006B0484EA61C083E080936A0410926804EC
:1034F000CFCF80916804803208F051C0E091680419
:1035000081E08E0F809368048091BB00F0E0E85B5F
:10351000FB4F8083BDCF85EC8093BC0010926A0482
:1035200080916804803230F4E0916804F0E0E85B58
:10353000FB4F10826091680470E0E0914604F091C6
:10354000470488E494E009951092680436C084E04A
:1035500080936A041092450410924404E09142045E
:10356000F0914304099580914404811105C081E0E4
:103570008093440410922204E091450481E08E0F70
:1035800080934504F0E0EE5DFB4F80818093BB00AB
:103590009091450480914404981708F479CF85E808
:1035A0008093BC000AC085EC8093BC0010926A0432
:1035B00004C0109269040E945119FF91EF91BF91CC
:1035C000AF919F918F917F916F915F914F913F91BB
:1035D0002F910F900FBE0F901F9018958F929F9272
:1035E000AF92BF92CF92DF92EF92FF920F931F9311
:1035F000CF93DF935C016B01FC01848095803FE7F2
:10360000E32E33E0F32E00E010E0CFEFDFEFF70121
:10361000848195818815990539F4B501C7010E9407
:103620005E26892B09F4E8010F5F1F4FF6E0EF0ECD
:10363000F11C0031110559F782E0C816D10461F080
:10364000E3E0CE16D10469F0CA94CD2889F4CC0FFA
:10365000DD1FCE5DDD4F09C0CC0FDD1FCE5FDD4F1E
:1036600004C0CC0FDD1FC050DF4F8881998101C09D
:10367000CE01DF91CF911F910F91FF90EF90DF90DE
:10368000CF90BF90AF909F908F9008955F926F9270
:103690007F928F929F92AF92BF92CF92DF92EF92E2
:1036A000FF920F931F93CF93DF938C015B016A010D
:1036B0007901FC0184809580612C712CCFEFDFEFC4
:1036C00046E0542E569CC001579C900D1124815801
:1036D0009C4FFC01248135812815390549F4B80136
:1036E0000E945E26892B21F4E30130E1632E712CC8
:1036F000FFEF6F1A7F0A80E1681671041CF3CE0198
:10370000880F991FFC01EE5DFD4FB182A082FC0184
:10371000EE5FFD4FD182C082FC01E050FF4FF1828D
:10372000E082DF91CF911F910F91FF90EF90DF909A
:10373000CF90BF90AF909F908F907F906F905F9051
:1037400008951092F4031092F3031092F203109272
:10375000F1038091F9039091FA03892B49F080914C
:10376000EF039091F00306979093F0038093EF039B
:103770001092FA031092F9030895AF92BF92CF927C
:10378000DF92EF92FF920F931F93CF93DF9300D0BE
:1037900000D0CDB7DEB78C015B01BA01550F880BA5
:1037A000990B0E94A6322BED3FE049E450E40E94C1
:1037B000E13220E030E044E353E40E9479340E9497
:1037C00060359B01AC01B801110F880B990B29835F
:1037D0003A834B835C830E94A6326B017C01B50166
:1037E000BB0C880B990B0E94A63229813A814B8130
:1037F0005C810E94E1329B01AC01C701B6010E94CD
:1038000008340E94EB34CB010F900F900F900F9073
:10381000DF91CF911F910F91FF90EF90DF90CF90AC
:10382000BF90AF900895AF92BF92CF92DF92EF9288
:10383000FF920F931F93CF93DF9300D000D0CDB7AB
:10384000DEB78C015B01BA01550F880B990B0E9402
:10385000A6322BED3FE049E450E40E94E13220E043
:1038600030E044E353E40E9479340E9474349B01B5
:10387000AC01B801110F880B990B29833A834B8354
:103880005C830E94A6326B017C01B501BB0C880BE6
:10389000990B0E94A63229813A814B815C810E945A
:1038A000E1329B01AC01C701B6010E9408340E94BD
:1038B000EB34CB010F900F900F900F90DF91CF91D1
:1038C0001F910F91FF90EF90DF90CF90BF90AF903E
:1038D00008954F925F926F927F928F929F92AF92D4
:1038E000BF92CF92DF92EF92FF920F931F93CF93ED
:1038F000DF9300D000D000D0CDB7DEB73C012091DF
:10390000E9033091EA03C901859797FD03969595E0
:103910008795959587959093010280930002109268
:10392000F4031092F3031092F2031092F1033FE7B5
:10393000832E33E0932EA12CB12C4EE0C42ED12C3B
:1039400059E0452E512C20910002309101026A1459
:103950007B0429F498E1E92E96ECF92E04C08FEE51
:10396000E82E8BE7F82E04E110E046E050E0B601C7
:1039700081EE93E00E947724B401CE0101960E946B
:10398000182721E030E046E050E0B601CE01019674
:103990000E94461BCE0101960E94DB26C6010296BC
:1039A0009093EE038093ED035092F0034092EF0367
:1039B000B40181EE93E00E9447270E94A11B8FEF84
:1039C000A81AB80A84E0A816B10469F08091000230
:1039D00090910102C80ED91E83E0C80ED11C86E06A
:1039E000880E911CB0CF26960FB6F894DEBF0FBE9E
:1039F000CDBFDF91CF911F910F91FF90EF90DF909E
:103A0000CF90BF90AF909F908F907F906F905F907E
:103A10004F9008952F923F924F925F926F927F92B4
:103A20008F929F92AF92BF92CF92DF92EF92FF92CE
:103A30000F931F93CF93DF934C016B015A01E90160
:103A4000270160907D0370907E03AC01B501C30136
:103A50000E94131C1C01E0907903F0907A03A401EA
:103A6000B501C7010E94BD1B5C01A601BE01C301D7
:103A70000E94131C4C01A601BE01C7010E94BD1B80
:103A8000800F911FA501400F511F72018C019401FD
:103A9000B10181EE93E00E94700FDF91CF911F91F1
:103AA0000F91FF90EF90DF90CF90BF90AF909F90DD
:103AB0008F907F906F905F904F903F902F900895E0
:103AC0002F923F924F925F926F927F928F929F922E
:103AD000AF92BF92CF92DF92EF92FF920F931F931C
:103AE000CF93DF9300D000D0CDB7DEB7611107C010
:103AF0001A821982212C312C412C512C0CC020E02F
:103B000038EF3A83298320EE222E27E0322E30E14F
:103B1000432E34E8532E68E671E00E94B1353C0133
:103B200032EF631A3EEF730AE8E66E16E1E07E06B6
:103B300024F03C01FAE56F1A710853012DE9A21A2D
:103B40002EEFB20AC30187549F4F9C838B8343019E
:103B500095E0890E911C6301EFEACE0ED11C6091B5
:103B6000790370917A0320E134E843E050E08091DA
:103B70007D0390917E030E947115720100E010E0B8
:103B800024E330E044E350E06B817C81C5010E9476
:103B90000A1D24E330E044E350E0B601C4010E9472
:103BA0000A1D24E330E044E350E0B401C5010E9463
:103BB0000A1D24E330E044E350E0B6018B819C8190
:103BC0000E940A1DB101C3010E94581669817A81C1
:103BD000C301845B91090F900F900F900F90DF91BC
:103BE000CF911F910F91FF90EF90DF90CF90BF90FA
:103BF000AF909F908F907F906F905F904F903F908D
:103C00002F900C945816FC01918D828D981761F0BD
:103C1000828DDF01A80FB11D5D968C91928D9F5F03
:103C20009F73928F90E008958FEF9FEF0895FC01AE
:103C3000918D828D981731F0828DE80FF11D858D61
:103C400090E008958FEF9FEF0895FC01918D228DF4
:103C5000892F90E0805C9F4F821B91098F73992779
:103C6000089586E592E00E94251E21E0892B09F443
:103C700020E0822F0895FC01848DDF01A80FB11D83
:103C8000A35ABF4F2C91848D90E001968F73992792
:103C9000848FA689B7892C93A089B1898C9180647F
:103CA0008C93938D848D981306C00288F389E02D40
:103CB00080818F7D80830895EF92FF920F931F93F1
:103CC000CF93DF93EC0181E0888F9B8D8C8D9813CF
:103CD00005C0E889F989808185FD24C0F62E0B8D09
:103CE00010E00F5F1F4F0F731127E02E8C8DE8122D
:103CF0000CC00FB607FCFACFE889F989808185FFEF
:103D0000F5CFCE010E943B1EF1CF8B8DFE01E80F57
:103D1000F11DE35AFF4FF0820B8FEA89FB89808106
:103D2000806207C0EE89FF896083E889F989808114
:103D30008064808381E090E0DF91CF911F910F91AB
:103D4000FF90EF900895CF93DF93EC01888D882347
:103D5000C9F0EA89FB89808185FD05C0A889B989F8
:103D60008C9186FD0FC00FB607FCF5CF808185FFD3
:103D7000F2CFA889B9898C9185FFEDCFCE010E9441
:103D80003B1EE7CFDF91CF91089580E090E0892B33
:103D900029F00E94311E81110C94000008953FB754
:103DA000F8948091930490919404A0919504B0911B
:103DB000960426B5A89B05C02F3F19F00196A11DBA
:103DC000B11D3FBFBA2FA92F982F8827820F911DB1
:103DD000A11DB11DBC01CD0142E0660F771F881FF8
:103DE000991F4A95D1F708950E94E5371F920F92C7
:103DF0000FB60F9211242F933F934F935F936F93BE
:103E00007F938F939F93AF93BF93EF93FF9386E539
:103E100092E00E943B1EFF91EF91BF91AF919F9165
:103E20008F917F916F915F914F913F912F910F9063
:103E30000FBE0F901F9018951F920F920FB60F9202
:103E400011242F938F939F93EF93FF93E09166023A
:103E5000F09167028081E0916C02F0916D0282FD29
:103E600012C0908180916F028F5F8F7320917002DA
:103E7000821751F0E0916F02F0E0EA5AFD4F958F02
:103E800080936F0201C08081FF91EF919F918F918C
:103E90002F910F900FBE0F901F901895833081F0D7
:103EA00028F4813099F08230A1F008958730A9F08C
:103EB0008830B9F08430D1F4809180008F7D03C0C8
:103EC000809180008F7780938000089584B58F77EC
:103ED00002C084B58F7D84BD08958091B0008F7736
:103EE00003C08091B0008F7D8093B00008951F9330
:103EF000CF93DF93282F30E0F901E652F84E8491FA
:103F0000F901E251F84ED491F901E45FF74EC49102
:103F1000CC23C9F0162F81110E944E1FEC2FF0E028
:103F2000EE0FFF1FEE5FF74EA591B4918FB7F89497
:103F3000111105C09C91ED2FE095E92302C0EC9191
:103F4000ED2BEC938FBFDF91CF911F910895CF930D
:103F5000DF9390E0FC01E251F84E2491FC01E45F14
:103F6000F74E8491882361F190E0880F991FFC013E
:103F7000E05EF74EC591D491FC01EE5FF74EA5913E
:103F8000B491611109C09FB7F8948881209582236C
:103F90008883EC912E230BC0623061F49FB7F894B4
:103FA0003881822F809583238883EC912E2B2C934C
:103FB0009FBF06C08FB7F894E8812E2B28838FBF50
:103FC000DF91CF9108958E3008F08E508770806415
:103FD00080937C0080917A00806480937A00809145
:103FE0007A0086FDFCCF809178002091790090E0E6
:103FF000922B08958F929F92AF92BF92CF92DF92B1
:10400000EF92FF926B017C010E94CF1E4B015C017D
:10401000C114D104E104F104F1F00E94CF1EDC01CF
:10402000CB0188199909AA09BB09883E9340A105CB
:10403000B10570F321E0C21AD108E108F10888EE59
:10404000880E83E0981EA11CB11CC114D104E104A8
:10405000F10419F7DDCFFF90EF90DF90CF90BF9084
:10406000AF909F908F9008951F920F920FB60F926E
:1040700011242F933F938F939F93AF93BF9380917E
:10408000FC019091FD01A091FE01B091FF013091E2
:10409000920423E0230F2D3720F40196A11DB11DBA
:1040A00005C026E8230F0296A11DB11D209392049E
:1040B0008093FC019093FD01A093FE01B093FF015A
:1040C0008091930490919404A0919504B0919604EA
:1040D0000196A11DB11D8093930490939404A09325
:1040E0009504B0939604BF91AF919F918F913F91AA
:1040F0002F910F900FBE0F901F901895CF92DF92C7
:10410000EF92FF92FC01A38DB48D9C9187A189232E
:104110008C93A58DB68D9C9180A589238C938BB1B2
:10412000962F9C7F8370892B8BB985B163708C7FB0
:10413000682B65B9A78DB0A19C9181A589238C932B
:10414000A78DB0A19C9185A1892B8C93A58DB68D4F
:104150009C9184A1892B8C9383E290E0DC011197E0
:10416000F1F77BB1C52EDD24EE24FF246C2D6C7F8E
:104170007370762B7BB965B17C2D73706C7F672B68
:1041800065B9A78DB0A17C9161A567236C93A78DBC
:10419000B0A17C9165A1672B6C93DC011197F1F7BD
:1041A0007BB16A01EE24FF246C2D6C7F7370762B3B
:1041B0007BB965B17C2D73706C7F672B65B9A78D5A
:1041C000B0A17C9161A567236C93A78DB0A17C9170
:1041D00065A1672B6C93DC011197F1F77BB1C32EBE
:1041E000D42EE52EFF246C2D6C7F7370762B7BB95B
:1041F00065B17C2D73706C7F672B65B9A78DB0A1FD
:104200007C9161A567236C93A78DB0A17C9165A17A
:10421000672B6C930197F1F78BB1922F9C7F837082
:10422000892B8BB985B123708C7F282B25B9A78D5D
:10423000B0A19C9181A589238C93A78DB0A19C915D
:1042400085A1892B8C93A38DB48D9C9183A1892BFF
:104250008C93FF90EF90DF90CF900895FC01A58D97
:10426000B68D9C9180A589238C938BB1962F9C7FD2
:104270008370892B8BB985B163708C7F682B65B98E
:10428000A78DB0A19C9181A589238C93A78DB0A106
:104290009C9185A1892B8C93A58DB68D9C9184A131
:1042A000892B8C938BB1932F9C7F8370892B8BB937
:1042B00085B133708C7F382B35B9A78DB0A19C9117
:1042C00081A589238C93A78DB0A19C9185A1892B71
:1042D0008C93A58DB68D9C9180A589238C938BB1F1
:1042E000942F9C7F8370892B8BB985B143708C7F11
:1042F000482B45B9A78DB0A19C9181A589238C93AA
:10430000A78DB0A19C9185A1892B8C93A58DB68D8D
:104310009C9184A1892B8C938BB1922F9C7F83706D
:10432000892B8BB985B123708C7F282B25B9A78D5C
:10433000B0A19C9181A589238C93A78DB0A19C915C
:1043400085A1892B8C930895FC01A58DB68D9C9138
:1043500080A589238C938BB1972F9C7F8370892BA9
:104360008BB985B173708C7F782B75B9A78DB0A18F
:104370009C9181A589238C93A78DB0A19C9185A147
:10438000892B8C938BB1962F9C7F8370892B8BB953
:1043900085B163708C7F682B65B9A78DB0A19C91A6
:1043A00081A589238C93A78DB0A19C9185A1892B90
:1043B0008C93A58DB68D9C9184A1892B8C938BB108
:1043C000952F9C7F8370892B8BB985B153708C7F1F
:1043D000582B55B9A78DB0A19C9181A589238C93A9
:1043E000A78DB0A19C9185A1892B8C938BB1942F23
:1043F0009C7F8370892B8BB985B143708C7F482B50
:1044000045B9A78DB0A19C9181A589238C93A78DD7
:10441000B0A19C9185A1892B8C930895FC01A58D59
:10442000B68D9C9180A589238C938BB1962F9C7F10
:104430008370892B8BB985B163708C7F682B65B9CC
:10444000A78DB0A19C9181A589238C93A78DB0A144
:104450009C9185A1892B8C93A58DB68D9C9184A16F
:10446000892B8C938BB1942F9C7F8370892B8BB974
:1044700085B143708C7F482B45B9A78DB0A19C9125
:1044800081A589238C93A78DB0A19C9185A1892BAF
:104490008C930895EF92FF920F931F93CF93DF9326
:1044A000EC010E94420CEB8DFC8D90818FA1892341
:1044B00080838A8D811122C0ED89E150E33040F480
:1044C000F0E0EE0FFF1FE257FE4F4081518102C026
:1044D00040E350E163E070E0CE010E94A4210A8530
:1044E0001B8501501109288539852150310940E08B
:1044F00050E060E070E0CE010E9432138A8D81307E
:1045000089F4ED89E150E33028F4F0E0E557FE4FFF
:10451000408101C040E066E1CE010E940E22CE0142
:104520000E940E138A8D823039F58D89813071F0A9
:1045300050F0823029F0833059F458E2E52E08C05B
:1045400068E4E62E05C048E8E42E02C038EEE32E0B
:104550004E2D66E3CE010E940E220A851B85015076
:104560001109288539852150310940E050E060E08B
:1045700070E0CE010E9432138A8D833031F58D892F
:10458000813069F048F0823029F0833051F420E620
:10459000F22E07C0F12C05C090ECF92E02C080EA83
:1045A000F82E4F2D66E3CE010E940E220A851B8550
:1045B00001501109288539852150310940E050E02A
:1045C00060E070E0CE010E943213DF91CF911F9125
:1045D0000F91FF90EF900895AF92BF92CF92DF922C
:1045E000EF92FF920F931F93CF93DF93EC017B0128
:1045F0006A01B22EA32E77FD1BC157FD19C1888514
:104600009985681779070CF013C18A859B8548172F
:1046100059070CF00DC1EB8DFC8D90818FA1892382
:1046200080838A8D811135C08D89823059F0833025
:10463000B1F08130D1F48FEE90E0841B950B6B01CB
:104640007C0113C08FEE90E09C01261B370B790193
:104650008FE391E09C01241B350B690106C08FE3B9
:1046600091E0861B970B7A016C01A70160E270E074
:10467000CE010E94A421A60161E270E0CE010E9459
:10468000A4214B2D5A2D62E270E0CE010E94A4219C
:10469000C9C0813009F060C0ED89E150E33028F4F1
:1046A000F0E0E857FE4F408101C040E066E1CE01F6
:1046B0000E940E22970143E062E0CE010E942E216B
:1046C000960147E066E0CE010E942E21ED8DFE8D21
:1046D000908188A5892380838BB1837080628BB998
:1046E00085B18C7F826085B9EF8DF8A1908189A515
:1046F00089238083EF8DF8A190818DA1892B808300
:10470000ED8DFE8D90818CA1892B80838BB19A2DAC
:104710009C7F8370892B8BB985B19A2D93708C7F88
:10472000A92EA82AA5B8EF8DF8A1908189A5892383
:104730008083EF8DF8A190818DA1892B80838BB12F
:104740009B2D9C7F8370892B8BB985B19B2D93709A
:104750008C7FB92EB82A59C08250823008F062C0CE
:104760000A851B8501501109288539852150310999
:10477000CE010E943213EB8DFC8D90818FA1892395
:104780008083ED8DFE8D908188A5892380838BB1F8
:1047900083708C628BB985B18C7F85B9EF8DF8A160
:1047A000908189A589238083EF8DF8A190818DA1C7
:1047B000892B8083ED8DFE8D90818CA1892B808348
:1047C0008BB19A2D9C7F8370892B8BB995B18A2DE3
:1047D00083709C7FA82EA92AA5B8EF8DF8A190819F
:1047E00089A589238083EF8DF8A190818DA1892BE4
:1047F00080838BB19B2D9C7F8370892B8BB995B166
:104800008B2D83709C7FB82EB92AB5B8EF8DF8A197
:10481000908189A589238083EF8DF8A190818DA156
:10482000892B8083EB8DFC8D90818BA1892B8083DC
:10483000DF91CF911F910F91FF90EF90DF90CF907C
:10484000BF90AF900895EF92FF920F931F93CF9375
:10485000DF93EC017B018A8D811129C02D892150C4
:10486000233078F430E0F901EB57FE4F8081482F78
:1048700050E0220F331FF901E158FE4F00811181F2
:1048800004C000E010E040E050E0EB8DFC8D308192
:104890002FA12323208360E270E0CE010E94A42197
:1048A000A80161E270E0CE010E94A42112C08150F3
:1048B000833078F40A851B850150110928853985D4
:1048C0002150310940E050E060E070E0CE010E94EC
:1048D000321320E03CE241E050E0B701CE01DF912D
:1048E000CF911F910F91FF90EF900C94FB108F923E
:1048F0009F92AF92BF92CF92DF92EF92FF920F936F
:104900001F93CF93DF93EC014701121613060CF0AF
:104910006BC0101611060CF067C0A885B9856A1720
:104920007B070CF061C0CA84DB844C155D050CF07C
:104930005BC05B01A20EB31EC501019797FD54C079
:104940007A01E00EF11EF7013197F7FD4DC077FFB8
:1049500049C060E070E057FD02C0780102C040E04D
:1049600050E08A179B072CF0CD0101975D01A61A34
:10497000B70AEC15FD052CF0F60131977601E41A23
:10498000F50A8F019C01CE010E9432139701D501D7
:104990000E94C5359B01AC01B401CE010E94FB1001
:1049A0008A8D811110C00A851B8501501109288547
:1049B00039852150310940E050E060E070E0CE01DF
:1049C0000E94321311C0CE01DF91CF911F910F9140
:1049D000FF90EF90DF90CF90BF90AF909F908F901F
:1049E0000C940E135901B7CFDF91CF911F910F9106
:1049F000FF90EF90DF90CF90BF90AF909F908F90FF
:104A00000895CF92DF92EF92FF920F931F93CF936F
:104A1000DF93EC016801121613060CF04FC077FD0E
:104A20004DC088859985681779070CF047C0EA85DD
:104A3000FB854E175F070CF041C07A01E20EF31EB2
:104A400087010150110917FD39C057FF35C040E0FB
:104A500050E00E171F0734F08F01015011097F013C
:104A6000E41AF50A9B01CE010E9432139701FF0C54
:104A7000440B550BB601CE010E94FB108A8D8111AB
:104A800010C00A851B8501501109288539852150E0
:104A9000310940E050E060E070E0CE010E94321346
:104AA0000DC0CE01DF91CF911F910F91FF90EF903C
:104AB000DF90CF900C940E137901CBCFDF91CF9183
:104AC0001F910F91FF90EF90DF90CF900895CF92BC
:104AD000DF92EF92FF920F931F93CF93DF93EC013E
:104AE0006801121613060CF04EC057FD4CC08A85A3
:104AF0009B85481759070CF046C0E885F9856E1765
:104B00007F070CF040C07B01E20EF31EC701019746
:104B100097FD39C077FF35C060E070E08E179F07C2
:104B20002CF0CF0101977F01E61AF70A8A019C0158
:104B3000CE010E9432139701FF0C440B550BB601B6
:104B4000CE010E94FB108A8D811110C00A851B8541
:104B500001501109288539852150310940E050E084
:104B600060E070E0CE010E9432130DC0CE01DF91F3
:104B7000CF911F910F91FF90EF90DF90CF900C9409
:104B80000E137901CBCFDF91CF911F910F91FF9041
:104B9000EF90DF90CF900895CF92DF92EF92FF9247
:104BA0000F931F93CF93DF936C017A018B01C0E0C9
:104BB000D0E0CE15DF0589F0D8016D918D01D601C9
:104BC000ED91FC910190F081E02DC6010995892BB2
:104BD00011F47E0102C02196ECCFC701DF91CF9185
:104BE0001F910F91FF90EF90DF90CF9008950F935A
:104BF0001F93CF93DF93EC0188819981009729F06F
:104C00002A813B812617370788F48B016F5F7F4F1E
:104C10000E941B37009761F0998388831B830A8366
:104C20002C813D81232B11F4FC01108281E001C015
:104C300080E0DF91CF911F910F910895EF92FF9245
:104C40000F931F93CF93DF93FC012481358161156E
:104C5000710511F480E019C041155105A9F07B01DF
:104C6000EC018A01020F131FB8010E94F725882367
:104C700089F3288139818C819D81B701820F931F2F
:104C80000E94FC371D830C8381E0DF91CF911F913F
:104C90000F91FF90EF900895CF93DF93EC018881FF
:104CA0009981009711F00E948336198218821D8223
:104CB0001C821B821A82DF91CF910895CF93DF93DC
:104CC000DC01ED91FC91EB01A881B981309711F0E5
:104CD0001097C9F4109759F0EB012C813D81232BDB
:104CE00031F08C9190E091958195910914C03097A5
:104CF00081F0DC0114968D919C911597892B49F0D8
:104D0000808190E008C0BD01CF01DF91CF910C946C
:104D1000F33780E090E0DF91CF910895CF93DF9358
:104D2000EC016115710561F0FB0101900020E9F7CC
:104D30003197AF01461B570B0E941E26811103C0FD
:104D4000CE010E944C26CE01DF91CF910895CF93E2
:104D5000DF93EC01FB0144815581608171810E94E8
:104D60001E26811103C0CE010E944C26CE01DF9188
:104D7000CF910895EF92FF920F931F93CF93DF93FC
:104D8000EC017B018A01BA010E94F725811104C060
:104D9000CE010E944C2607C01D830C83B701888179
:104DA00099810E94FC37CE01DF91CF911F910F9125
:104DB000FF90EF900895FC01808191810C948336DF
:104DC000EF92FF920F931F93CF93DF93CDB7DEB790
:104DD00062970FB6F894DEBF0FBECDBF8C01CB013A
:104DE000F80111821082138212821582148250E01F
:104DF0009E012F5F3F4F7901B9010E946432F70194
:104E000001900020E9F73197AF014E195F09B70112
:104E1000C8010E94BA2662960FB6F894DEBF0FBE94
:104E2000CDBFDF91CF911F910F91FF90EF9008952B
:104E3000FB01DC0111961C921E9213961C921E928D
:104E4000129715961C921E9214978617970749F091
:104E5000608171816115710521F0448155810C9447
:104E6000BA260895FC0111821082138212821582E3
:104E700014826115710551F0FB0101900020E9F7E2
:104E80003197AF01461B570B0C94BA260895DC01ED
:104E9000ED91FC91DB0114964D915C9115976D910C
:104EA0007C910280F381E02D09946115710579F000
:104EB000FB0101900020E9F73197AF01461B570B2A
:104EC000DC01ED91FC910280F381E02D099480E0FA
:104ED00090E00895CF93DF93CDB7DEB7E3970FB699
:104EE000F894DEBF0FBECDBF789484B5826084BDD8
:104EF00084B5816084BD85B5826085BD85B58160DE
:104F000085BD80916E00816080936E00109281005B
:104F10008091810082608093810080918100816016
:104F200080938100809180008160809380008091D7
:104F3000B10084608093B1008091B0008160809363
:104F4000B00080917A00846080937A0080917A002A
:104F5000826080937A0080917A00816080937A00E9
:104F600080917A00806880937A001092C10010923C
:104F70003703109238031092390310923A031092BB
:104F8000F5021092F6021092F7021092F80268EB06
:104F90007BE080E090E00E94FA1F86E592E090932B
:104FA000360380933503E0916602F091670282E058
:104FB0008083E0916202F09163021082E0916402CA
:104FC000F091650280E1808310926E02E0916A02A6
:104FD000F0916B0286E08083E0916802F0916902B3
:104FE000808180618083E0916802F0916902808114
:104FF00088608083E0916802F09169028081806816
:105000008083E0916802F091690280818F7D8083C6
:105010002FB7F8948091FC019091FD01A091FE01C1
:10502000B091FF012FBF8093F5029093F602A093F9
:10503000F702B093F80264E971E080913503909132
:1050400036030E9455276AE070E080E090E00E94FD
:10505000FA1F81E0809309030E941D180E941D1809
:1050600068EC70E080E090E00E94FA1F1092FB0371
:10507000E091FC03F091FD03908180910804892365
:10508000808307E516E0F80165917491F801329686
:10509000459154916F3F710531F4BA0180E090E081
:1050A0000E94FA1F04C081EE93E00E94A4210C5FCD
:1050B0001F4F27E00332120731F76091F60381EEAC
:1050C00093E00E944A220FE311E02FEE30E040E02F
:1050D00050E060E070E081EE93E00E94321363E004
:1050E00081EE93E00E944A2260E070E081EE93E05E
:1050F0000E94232461E08DE00E94A71F80E090E0E1
:105100000E94691C2091EB033091EC03205231097D
:105110004091E9035091EA034C50510968E1E62EB1
:1051200066ECF62E03E010E06AE170E086E090E0C5
:105130000E940C152091EB033091EC0326523109AB
:105140004091E9035091EA0342515109E12CF12CBD
:105150006DE170E089E090E00E940C1566EA71E074
:10516000CE0101960E9432272091E9033091EA0393
:1051700037FF02C02F5F3F4F6901D594C79438E3D2
:10518000C31AD108A0907D03B0907E03AC18BD086F
:105190008090EB039090EC03CC0CDD1CA4014E51ED
:1051A0005109EE24EA94FE2C02E110E09601B501CB
:1051B00081EE93E00E94110F42E0A40EB11CB09268
:1051C000EE03A092ED03C40146979093F003809301
:1051D000EF032D813E8149E0429FC001439F900D26
:1051E000112455E0C51AD108C816D90628F18FEF49
:1051F0009FEF9093F4038093F3039093F2038093D3
:10520000F1038091F9039091FA03892B31F4C401E1
:1052100040979093F0038093EF0383E297E090939D
:10522000FA038093F903BE016F5F7F4F81EE93E035
:105230000E9447270E94A11BCE0101960E94DB26F7
:1052400061E08DE00E94771F6091120470E0FB0125
:10525000E45FF74EC49080910F04482F50E0FA01AC
:10526000E45FF74E04912091110430E0F901E45F0E
:10527000F74EE490E0911004AE2FB0E0FD01E45F42
:10528000F74E2490FB01E251F84E8490FA01E2516E
:10529000F84E9490F901E251F84EF490FD01E2517C
:1052A000F84E249128A760E00E94A71F60E080913B
:1052B00010040E94A71F10E0000F111F0E5F174E71
:1052C000F801A591B4918C91392D309538AB832399
:1052D0008C93312CF101EE0FFF1FAF014E5F574E43
:1052E0001A01FA01A591B4919C9188A58095892312
:1052F0008C9361E0809112040E94A71F61E080916D
:1053000011040E94A71FD12CF601EE0FFF1FCF0141
:105310008E5F974E6C01FC01A591B4918C91882908
:105320008C93EE2DF0E0EE0FFF1FEE5FF74EA59190
:10533000B491EC91F094FE22FC9280910F040E94B3
:10534000E31F5C0180910F040E94E31F2C018FEF8B
:1053500093E07C01E418F50860E0809112040E945B
:10536000A71F60E0809111040E94A71FF601A5917C
:10537000B4918C9180948CA688218C9361E080916B
:105380000F040E94A71FF801A591B491EC919E2AE9
:105390009C9261E0809110040E94A71F80911104EB
:1053A0000E94E31F4C01809111040E94E31F3C0105
:1053B0008816990629F499249394A414B50409F045
:1053C000912C61E0809112040E94A71FF601A59123
:1053D000B491EC912CA5E223EC93F101A591B49149
:1053E000EC9138A5E32BEC93F801A591B4918C9145
:1053F00048A984238C9360E080910F040E94A71F2A
:10540000809111040E94E31F8C0180910F040E947F
:10541000E31FC0901304D0901404C114D10409F404
:1054200040C0BC01990F880B990B0E94A6321B014A
:105430002C01B801110F880B990B0E94A6329B0119
:10544000AC01C201B1010E94793420E030E040E8B3
:105450005FE30E9407341B012C01B7010F2C000CE5
:10546000880B990B0E94A6329B01AC01C201B101CD
:105470000E94E1321B012C01B60180E090E00E9405
:10548000A4329B01AC01C201B1010E94E13220E0D3
:1054900030E040E85AE30E94E1320E94EB348B0195
:1054A00004C0081B190B01501C4F911002C000E0F2
:1054B00010E060E08DE00E94771F61E080E10E94D3
:1054C000A71F61E081E10E94A71FB8016353710922
:1054D000653B734008F0C3C4C7010F2C000CAA0B36
:1054E000BB0B88AB99ABAAABBBAB95EAE916F10451
:1054F0008CF468A979A98AA99BA90E94A6326B019C
:105500007C0120E030E041E654E428A739A74AA70F
:105510005BA724C035E8E31633E0F3068CF068A9F6
:1055200079A98AA99BA90E94A63268A779A78AA708
:105530009BA7C12CD12CE5E2EE2EE3E4FE2E0EC09B
:10554000C12CD12C75E2E72E73E4F72E80E090E0B9
:10555000A1E6B4E488A799A7AAA7BBA78FEF93E019
:10556000861997099C01092E000C440B550B2CA79A
:105570003DA74EA75FA7803A91053CF4CA01B90147
:105580000E94A6324B015C0118C08F3893407CF01A
:105590006CA57DA58EA59FA50E94A6322B013C017E
:1055A000812C912C60E2A62E63E4B62E0DC0812CD6
:1055B000912C50E2A52E53E4B52E412C40E8542EF8
:1055C00043E6642E44E4742E6CA57DA58EA59FA5AC
:1055D0000E94A632A50194010E9407346CA77DA702
:1055E0008EA79FA7A5019401C301B2010E940734B1
:1055F0009B01AC016CA57DA58EA59FA50E94793469
:105600009B01AC0160E070E080E89FE30E940734FA
:105610002B013C016091E9037091EA03072E000C15
:10562000880B990B0E94A6329B01AC01C301B20109
:105630000E94E1320E94EB348B017093530260931D
:10564000520268A979A98AA99BA90E94A632A7013A
:1056500096010E9407344B015C01A701960168A5E1
:1056600079A58AA59BA50E9407349B01AC01C501C1
:10567000B4010E9479349B01AC0160E070E080E8E5
:105680009FE30E9407346B017C018091EB039091B2
:10569000EC03BC01990F880B990B0E94A6329B0169
:1056A000AC01C701B6010E94E1320E94EB347B01DC
:1056B0007093550260935402A0900002B0900102D2
:1056C00040E050E0A0E0B0E0CC24CA94DC2C80E0C4
:1056D00090E0BC01660F771FFB01EE5DFD4F20815E
:1056E0003181FB01EE5FFD4F8080918060507F4FE4
:1056F000FB01608171816130710531F04CF06430E3
:1057000071050CF4AFC304C0A501A4E1B0E002C070
:10571000672B21F020173107BCF405C02017310793
:10572000BCF480E190E0240F351F0217130764F4E6
:105730008E149F044CF4F401EA0FFB1FEE16FF06D3
:105740001CF46C0180E190E00196803191050CF22F
:105750008091500290915102C816D90609F47FC376
:1057600046010D2C000CAA08BB08B7FE2BC0E09127
:105770005602F09157020190F081E02D6DE286E52E
:1057800092E0099522273327A901281939094A09E6
:105790005B0919A28E010F5D1F4FBAE08B2E912C71
:1057A000A12CB12CCA01B901A50194010E949F331B
:1057B000605DD8016E938D012115310541055105BC
:1057C00089F71AC0A501940119A28E010F5D1F4F20
:1057D000AAE08A2E912CA12CB12CCA01B901A501F5
:1057E00094010E949F33605DF80162938F0121153F
:1057F00031054105510589F7B80186E592E00E941F
:10580000552763EA71E086E592E00E945527D7FCB0
:1058100022C380917B0390917C0390937A038093C1
:105820007903F4E0CF16D1040CF037C210922201B4
:1058300010924F0210924E02C6010E94691C22E093
:10584000C216D10409F41DC233E0C316D10409F411
:105850001BC280917D0390917E03609179037091CA
:105860007A036451710970937A036093790341E07C
:10587000C416D10451F0449690937C0380937B032B
:1058800010924F0210924E02E6C200914C0210910B
:105890004D0220E134E84CE350E00E94DD146091B9
:1058A000790370917A0320E030E048E350E0809182
:1058B0007D0390917E030E94DD1461E0C8010E9487
:1058C000601D81E020914E0230914F02223031055F
:1058D00009F480E0A82EB12C2501440C551C612C44
:1058E000712CF8E62F2E33243394F301E40DF51DCB
:1058F000E75DFE4F60817181072E000C880B990BCC
:105900000E94A63220E030E048E455E40E94793459
:1059100020E030E044EB53E40E94E1320E94EB349B
:10592000CB01B1010E94B1354C0152EF851A5EEFF7
:10593000950AA8E68A16A1E09A0624F04C01BAE579
:105940008B1A910870E1E72E74E8F72E04E010E05E
:1059500025E530E04CE350E0B401C4010E940A1D8B
:105960000CEF1FEF25E530E04CE350E0B401C4013B
:105970000E940A1DEFEFAE1ABE0AF2E06F0E711C14
:1059800027E0A216B1040CF4B0CF49E251E059A7C8
:1059900048A707E913E0E12CF12C68E6262E332412
:1059A0003394A8A5B9A56D917D91B9A7A8A7072E95
:1059B000000C880B990B0E94A63220E030E048E4EE
:1059C00055E40E94793420E030E044EB53E40E9437
:1059D000E1320E94EB34CB01B1010E94B1352C01C0
:1059E000B2EF4B1ABEEF5B0AE8E64E16E1E05E0648
:1059F00024F02C01FAE54F1A510880917D03909113
:105A00007E0360907B0370907C038090790390907C
:105A10007A03A201E114F10451F466E470E00E94FB
:105A2000131C0F975C01A2016CE470E009C064E6EE
:105A300070E00E94131C0F975C01A20164E670E005
:105A4000C301880D991D0E94BD1B0F974C01B80121
:105A5000CE0182960E941827BE016E5D7F4FCE0157
:105A600001960E94182722E030E0A401B501CE0182
:105A700001960E94461BCE0101960E94DB2620E281
:105A80003DEF43E050E0B401C5010E947115CE0125
:105A900082960E94DB262FEFE21AF20A0A5F1F4F5E
:105AA00037E0E316F10409F07CCF20E038EF42E064
:105AB00050E068E270E080917D0390917E030E9447
:105AC000711520E23DEF43E050E068E270E088E2CB
:105AD00090E00E94711520E23DEF43E050E068E263
