:100000000C940D070C9439180C9412180C94A81128
:100010000C94A8110C94A8110C9435070C94350776
:100020000C9435070C9435070C9435070C94350760
:100030000C9435070C9435070C9435070C94350750
:100040000C94C8170C9435070C9464150C943E1549
:100050000C9435070C9435070C9435070C94350730
:100060000C94B2110C94350700000000003E5B4F69
:100070005B3E3E6B4F6B3E1C3E7C3E1C183C7E3C08
:10008000181C577D571C1C5E7F5E1C00183C180016
:10009000FFE7C3E7FF0018241800FFE7DBE7FF30A6
:1000A000483A060E2629792926407F050507407F14
:1000B00005253F5A3CE73C5A7F3E1C1C08081C1C87
:1000C0003E7F14227F22145F5F005F5F06097F017D
:1000D0007F006689956A606060606094A2FFA29468
:1000E00008047E040810207E201008082A1C080836
:1000F0001C2A08081E101010100C1E0C1E0C303884
:100100003E3830060E3E0E06000000000000005F84
:1001100000000007000700147F147F14242A7F2AA0
:100120001223130864623649562050000807030062
:10013000001C2241000041221C002A1C7F1C2A08AE
:10014000083E080800807030000808080808000011
:1001500060600020100804023E5149453E00427F85
:10016000400072494949462141494D331814127FD4
:100170001027454545393C4A494931412111090774
:100180003649494936464949291E000014000000F5
:1001900040340000000814224114141414140041C7
:1001A00022140802015909063E415D594E7C121184
:1001B000127C7F494949363E414141227F414141BC
:1001C0003E7F494949417F090909013E4141517337
:1001D0007F0808087F00417F41002040413F017FA8
:1001E000081422417F404040407F021C027F7F0470
:1001F00008107F3E4141413E7F090909063E4151B9
:10020000215E7F09192946264949493203017F01A8
:10021000033F4040403F1F2040201F3F4038403FA9
:10022000631408146303047804036159494D4300BF
:100230007F4141410204081020004141417F0402F6
:10024000010204404040404000030708002054548D
:1002500078407F284444383844444428384444286B
:100260007F385454541800087E090218A4A49C78BE
:100270007F0804047800447D40002040403D007F1A
:100280001028440000417F40007C047804787C08FA
:100290000404783844444438FC18242418182424CE
:1002A00018FC7C08040408485454542404043F44B3
:1002B000243C4040207C1C2040201C3C4030403CE2
:1002C00044281028444C9090907C4464544C440042
:1002D00008364100000077000000413608000201A6
:1002E0000204023C2623263C1EA1A161123A404092
:1002F000207A38545455592155557941225454780F
:1003000042215554784020545579400C1E527212A7
:100310003955555559395454545939555454580030
:1003200000457C410002457D420001457C407D1234
:1003300011127DF0282528F07C5455450020545496
:100340007C547C0A097F4932494949323A44444441
:100350003A324A4848303A4141217A3A424020787C
:10036000009DA0A07D3D4242423D3D4040403D3C7D
:1003700024FF2424487E4943662B2FFC2F2BFF09A2
:1003800029F620C0887E0903205454794100004496
:100390007D413048484A32384040227A007A0A0A81
:1003A000727D0D19317D2629292F282629292926F4
:1003B00030484D4020380808080808080808382F39
:1003C00010C8ACBA2F102834FA00007B00000814C3
:1003D0002A142222142A14085500550055AA55AA99
:1003E00055AAFF55FF55FF000000FF00101010FF39
:1003F00000141414FF001010FF00FF1010F010F094
:10040000141414FC001414F700FF0000FF00FF1484
:1004100014F404FC141417101F10101F101F1414D0
:10042000141F00101010F0000000001F101010101A
:100430001F10101010F010000000FF10101010100E
:1004400010101010FF10000000FF140000FF00FF4C
:1004500000001F10170000FC04F4141417101714E8
:1004600014F404F40000FF00F7141414141414140A
:10047000F700F7141414171410101F101F1414147D
:10048000F4141010F010F000001F101F0000001FE7
:1004900014000000FC140000F010F01010FF10FF1A
:1004A000141414FF141010101F00000000F010FFAF
:1004B000FFFFFFFFF0F0F0F0F0FFFFFF0000000093
:1004C00000FFFF0F0F0F0F0F3844443844FC4A4A17
:1004D0004A347E02020606027E027E0263554941CC
:1004E000633844443C04407E201E2006027E020203
:1004F00099A5E7A5991C2A492A1C4C7201724C3017
:100500004A4D4D303048784830BC625A463D3E49ED
:100510004949007E0101017E2A2A2A2A2A44445F91
:10052000444440514A444040444A51400000FF0185
:1005300003E080FF000008086B6B08361236243693
:10054000060F090F060000181800000010100030F8
:1005500040FF0101001F01011E00191D1712003C80
:100560003C3C3C00000000000000000005000100D1
:1005700000030D0602F4050007050901F40A000A4C
:100580000C0A00F51900090F0A01F32A00100D10DA
:1005900000F444000C0D0D01F4580003050501F4AE
:1005A0005A0006110601F4670006110600F47400F3
:1005B00005060701F4780007080B02F97F00030520
:1005C0000401FF810005020600FB83000302040111
:1005D000FF8400050D0500F48D00090D0A01F49C4F
:1005E00000050D0A02F4A500090D0A01F4B4000883
:1005F0000D0A01F4C100080D0A02F4CE00090D0A2B
:1006000001F4DD00090D0A01F4EC00090D0A00F403
:10061000FB000A0D0A00F40C01090D0A01F41B018C
:1006200003090401F81F01030C0401F8240109095E
:100630000B01F82F0109060B01FA360109090B011C
:10064000F84101090D0B01F45001100F1200F46E76
:10065000010C0D0D00F482010B0D0D01F494010C41
:100660000D0D01F4A8010C0D0D01F4BC01090D0CD8
:1006700001F4CB01090D0B01F4DA010B0D0E01F4AD
:10068000EC010B0D0D01F4FE01030D0601F4030254
:10069000080D0A01F410020C0D0D01F42402080DDE
:1006A0000B01F431020E0D1001F448020B0D0E0186
:1006B000F45A020D0D0E01F470020B0D0C01F482C0
:1006C000020D0E0E01F499020C0D0D01F4AD020B9A
:1006D0000D0C01F4BF02090D0C02F4CE020B0D0D3E
:1006E00001F4E0020C0D0C00F4F402110D1100F401
:1006F00010030C0D0C00F424030B0D0C01F4360355
:10070000090D0B01F4450304110601F44E03050D18
:100710000500F4570304110600F4600308080B01F8
:10072000F468030A010A00046A0303020500F46B7B
:10073000030A0A0A01F778030A0D0B01F489030979
:100740000A0A01F79503090D0B01F4A403090A0A2B
:1007500001F7B003050D0601F4B903090E0B01F70B
:10076000C903090D0B01F4D803030D0501F4DD03E2
:1007700004110500F4E603090D0A01F4F503030D65
:100780000501F4FA030E0A1001F70C04090A0B0123
:10079000F718040A0A0B01F725040A0E0B01F737B4
:1007A00004090E0B01F74704060A0701F74F040975
:1007B0000A0A01F75B04050C0601F56304090A0B3C
:1007C00001F76F040A0A0A00F77C040E0A0E00F70C
:1007D0008E040A0A0A00F79B040A0E0A00F7AD0409
:1007E000080A0901F7B70404110701F4C004011154
:1007F0000502F4C30404110702F4CC040802090042
:10080000FCFFFFFE487EEFDFBF7440198667FDFFE7
:10081000330CC333FEFF99866190101F1FDEFF3F2C
:1008200083C0FC1F09FCFEF7F1E04038107C30C6A5
:1008300020C640C6407C80399C013E0363026304AD
:10084000630C3E081C0E01F83B83B83F01E03E6795
:1008500076E3EE1CF3C7FE3F70FFF418631C738E43
:1008600038E38E1870C3060861830E3871C71C7197
:10087000C638E31840213E45283870E7FFE70E1CD4
:10088000FC9CFFC0FC08C4231084621188003E3F1A
:100890009DDC7E3F1F8FC7E3F1DDCFE3E008FFF370
:1008A0009CE739CE73803E3FB8FC70381C1C1C1C82
:1008B0001C1C0FF7F83C7FE7E7070C0E0707E7E77C
:1008C0007E3C0E1E1E2E2E4E4E8EFFFF0E0E0E7FF7
:1008D0003F90180DE7FB9E070381F1FFE7C03E3F05
:1008E0009CFC0EE7FBDFC7E3F1DDEFE3E0FFFFC0B9
:1008F000E0E0607030381C0C0E0703803F1FEE3FB5
:1009000087E3CFC7FBCFE1F87F3DFE3F003E3FBD11
:10091000DC7E3F1FDEFF3B81F9CFE3C0FC0007E038
:10092000FC0007E5E00083C7DF0C0780F81F0180AB
:10093000FFFFC0000FFFFC00703F03E0387DF1E0D7
:1009400080003E3FB8FC70381C1C1C1C0E0003814C
:10095000C003F00FFC1E0E380270E96319C219C6FD
:1009600011C633C63263FE73DC3C001FF807F00784
:1009700000F00F80F81D819C19C38C3FE7FE706664
:1009800007E070FF9FFB83F07E0FFF3FF706E0FC60
:100990001F83FFEFF81F83FE78E707E00E00E00EED
:1009A00000E0070778F3FE1F80FF8FFCE0EE0EE00B
:1009B0007E07E07E07E07E0EE0EFFCFF80FFFFF8A1
:1009C0001C0E07FBFDC0E070381FFFF8FFFFF81C8E
:1009D0000E07FBFDC0E070381C0E000F87F9E3B86E
:1009E0003E01C038FF1FE06E0DE39FD0F2E0FC1F18
:1009F00083F07E0FFFFFFF07E0FC1F83F07E0EFFFA
:100A0000FFFFFFFE0707070707070707E7E7E77E80
:100A10003CE0EE1CE38E70EE0FC0FE0F70E70E3868
:100A2000E1CE0EE0E0E0E0E0E0E0E0E0E0E0E0E0A9
:100A3000FFFFF87FE1FF87FE1FEC7FB37ECDFB3722
:100A4000ECDF9E7E79F9E7E79CE0FE1FC3FC7FCFD9
:100A5000D9FBBF37E7FC7F87F0FE0E0F81FF1E3CFE
:100A6000E0EE03F01F80FC07E03B839E3C7FC0F874
:100A700000FF9FFB87F07E0FC3FFF7FCE01C0380A5
:100A8000700E000F81FF1E3CE0EE03F01F80FC079C
:100A9000E1BB8F9E3C7FE0FB8008FF8FFCE0EE0E09
:100AA000E0EE0EFFCFFCE0EE0EE0EE0EE0F03F0FCA
:100AB000FBC7F07E01FC1FF03F00FC1DC7BFE1F843
:100AC000FFFFC70381C0E070381C0E070381C0E040
:100AD000FC1F83F07E0FC1F83F07E0FC1FC7BFE19A
:100AE000F060670E70E30C30C39C1981981F80F092
:100AF0000F00F0060061C3B8E19C70CE3CE3367194
:100B00009B30ED98367C1B3C0F1E078F01C380E1A4
:100B10008070E78E39C1F81F80F00700F01F819CBC
:100B200039C70E70E0E0FC39C718C3B83607C0708B
:100B30000E01C0380700E0FFFFC0E0E0F070707009
:100B40007838381FFFF8FFEEEEEEEEEEEEEFF086AF
:100B50001086108430843080FF7777777777777FBF
:100B6000F0181C3C3E366663C3FFC0CC3F1FEE3816
:100B70000E3F9EEE3B9EFF9EE0E0380E03BCFFBCA6
:100B8000EE1F87E1F87F3BFEEF001F3FDC7C0E0786
:100B90000380E37F8F000381C0E777FBBF8FC7E34C
:100BA000F1FDEFF3B83E3F9CDC3FFFFF81C37F8F39
:100BB000003BDDFFB9CE739CE7003BBFDDFC7E3F11
:100BC0001F8FEF7F9DC0FC77F1F0E070381DEFFFC5
:100BD0009F8FC7E3F1F8FC7E38FC7FFFFFFE7707AD
:100BE00077777777777FE0E070381C7E7773F1F85E
:100BF000FE7739DC6E38FFFFFFFFFEEF7BFFFE392B
:100C0000F8E7E39F8E7E39F8E7E39F8E70EF7FF879
:100C1000FC7E3F1F8FC7E3F1C01E1FE73B87E1F853
:100C20007E1DCE7F8780EF3FEF3B87E1F87E1FCEB2
:100C3000FFBBCE0380E038003BBFFDFC7E3F1F8F33
:100C4000EF7F9DC0E070381CEFFF38E38E38E38003
:100C50003E3FB8FC0FC3FC3FC7FF1F0073BFF7390F
:100C6000CE739E70E3F1F8FC7E3F1F8FC7FFBDC0BF
:100C7000E1986739CC330DC3E0781E0700E31D9E71
:100C8000667999E677B8D2C3CF0F3C3CF073807396
:100C90009CE3F0781E0781E0FC739CE0E1D86739A3
:100CA000CE330EC3E0781E0300C070380E00FEFE87
:100CB0000E1C383870E0FFFF3766666EE6666667C2
:100CC00030FFFF80CE6666677666666EC0718E0006
:100CD000000100FF003200010000010200000703D4
:100CE0000030100400000008000202090000000AA1
:100CF0000000000C0000000D0000000F00000010BC
:100D0000000000110007001200000013000000FFA7
:100D100000C8001000901611002702FF00320012D8
:100D2000001A00FF0032001300001829002A00FFFB
:100D300000320030000000310000003200000035B9
:100D400000060236000808370007003800010239A3
:100D50000000003C0000003D0000002000000021D9
:100D6000000000500000005100EF0052000000534E
:100D7000003F01600000A7610003006A00000090CE
:100D800000100092000000930003009500001197EE
:100D90000000009800000007003301444343204353
:100DA0006F6E74726F6C6C6564205475726E7461D2
:100DB000626C650001086805207E160000000024B2
:100DC0000027002A00000000002300260029000060
:100DD00000000800020100000304070000000000FA
:100DE00000000001020408102040800102040810E5
:100DF0002001020408102000000000250028002B1C
:100E000000040404040404040402020202020203B3
:100E10000303030303002F2B892411241FBECFEFEC
:100E2000D8E0DEBFCDBF26E0AAE2B2E001C01D924D
:100E3000A537B207E1F712E0A0E0B1E0EEE7F6E691
:100E400002C005900D92AA32B107D9F717E0CCE0A5
:100E5000D7E004C02197FE010E941731CB30D107A3
:100E6000C9F70E9499240C9432330C940000089521
:100E7000FC016370658B84819581268137816130A7
:100E800039F0633029F0918780873387228708956E
:100E9000318720879387828708952F923F924F92C0
:100EA0005F926F927F928F929F92AF92BF92CF92FA
:100EB000DF92EF92FF920F931F93CF93DF93CDB703
:100EC000DEB76C970FB6F894DEBF0FBECDBF9C8F18
:100ED0008B8F1B012A0118870F83FE82ED82CA8245
:100EE000DC0158964D915C9159974115510509F0D7
:100EF000B2C018968D919C911997681779070CF0DC
:100F000096C11A968D919C911B97481659060CF024
:100F10008EC1AC2CB12CCB01B6E0CB9E800D911DC7
:100F20001124181619060CF082C1C50133E0880F90
:100F3000991F3A95E1F7840D951D181619060CF0C6
:100F400076C1AB8DBC8D57968C91811103C0203B2F
:100F500008F02F5FAB8DBC8DED91FC911197068051
:100F6000F781E02DCD012A8F09952A8DB5E02B9FC1
:100F700090011124610141011B82F901E219F30979
:100F8000FA87E9879201285F3F4F3C872B873B8197
:100F9000353049F0E985FA85E80DF91DE859FF4F2C
:100FA0004491498301C0198232011201598150FFD5
:100FB00013C0AB8DBC8DED91FC91BA81B13031F491
:100FC0000084F185E02D2F81388519C00284F385D6
:100FD000E02DEF80F8841EC0ED81FE812F813885E1
:100FE000E217F307F1F0AB8DBC8DED91FC91BA8166
:100FF000B13059F40084F185E02D2D813E81A301AB
:10100000B4018B8D9C8D09950CC00284F385E02D75
:10101000ED80FE8085019501A101B6018B8D9C8D2F
:101020000995E981E695E983FFEF6F1A7F0A2A0C9B
:101030003B1C2B853C856216730609F0B7CF3B81BC
:101040003F5F3B834FEF841A940ACA0CDB1C363097
:1010500009F09DCFCAC0FA013496949132976591F8
:101060007491291BCB01B7E02B9F800D911D11249A
:10107000FA01259134913A8B298BFC01659074908B
:10108000FC01329634913D83319644914B873296E0
:10109000C490319614915A81523058F08C2C0C2CFB
:1010A000000C9908812F012E000C990B9C838B83D7
:1010B00004C01C821B82812C912CAB8DBC8DED91C8
:1010C000FC9111970680F781E02DCD010995BA8139
:1010D000AB2EB12C8A9CC0018B9C900D9A9C900DDC
:1010E0001124FC01E20DF31DF88BEF871982912C7E
:1010F000812CEC2DCC0CFF0B91012E0F3F1F3A875A
:10110000298761013D81C30ED11CA6014E0F5F1FCF
:101110005F8B4E8BC201810F911D17FD9A95998FA0
:10112000888F5B85851608F060C0882D90E04B8124
:101130005C81480F591F4A9D90014B9D300D5A9D6F
:10114000300D1124D901A40DB51DBE87AD87C9840A
:10115000DA842F843888B981E985BE1BBB8B288D42
:10116000398D280F391F3D8B2C8B8B898C0D2E8947
:101170003F89C216D30699F1877041F4C3010196E5
:10118000E989FA89E60DF71D94903C0197FE20C08D
:10119000AB8DBC8DED91FC91BA81B13061F40084CE
:1011A000F185E02D2F8138854C895D89B6018B8DC5
:1011B0009C8D09950DC00284F385E02DEF80F884A5
:1011C000850195014D855E85B1018B8D9C8D0995BD
:1011D000990CEFEFCE1ADE0A2A0C3B1CC6CF3981E0
:1011E0004D81340F398383949CCFAB8DBC8DED91B1
:1011F000FC9111970288F389E02DCD016C960FB612
:10120000F894DEBF0FBECDBFDF91CF911F910F913C
:10121000FF90EF90DF90CF90BF90AF909F908F9016
:101220007F906F905F904F903F902F9009946C96B5
:101230000FB6F894DEBF0FBECDBFDF91CF911F91E7
:101240000F91FF90EF90DF90CF90BF90AF909F9065
:101250008F907F906F905F904F903F902F90089568
:10126000AF92BF92CF92EF92FF920F931F93CF93C3
:10127000DF93EC01262F888D998D009709F042C0ED
:101280006A3069F42C898E859F8538E0239F800D14
:10129000911D11249F878E871D861C86ACC06D30E2
:1012A00009F4A9C08E898823C1F03C898C859D856D
:1012B00046E0349F800D911D11244885598584177F
:1012C00095075CF01D861C868E859F85E8E03E9F15
:1012D000800D911D11249F878E87EA88FB880889DD
:1012E00019894E855F856C857D85CC88CE010E94ED
:1012F0004D072C898C859D85F6E02F9F800D911DD3
:10130000112441C06A3079F41D861C862C89FC01A9
:101310003696E4918E859F852E9F800D911D112418
:101320009F878E8768C06D3009F465C0AC014C5F43
:101330005F4FFA013491631708F45DC03196E49170
:10134000E61708F458C0FA014491362F341BFC010B
:101350003296A590B490F7E03F9FA00CB11C1124E9
:10136000F501329634913196E491332311F0E11175
:101370000DC0F5013496E4912C898C859D85E29F02
:10138000800D911D11249D878C8735C0F501359600
:1013900044915E89552311F16C89E32FF0E0E40F4D
:1013A000F11D47FDFA956E9FD0016F9FB00D11247E
:1013B0004C855D854A0F5B1FE885F9854E175F07F1
:1013C0006CF01D861C86FC013696E4918E859F8507
:1013D0006E9F800D911D11249F878E87EA88FB8860
:1013E000088919894E855F856C857D85CC88CE01FD
:1013F0000E944D07BECF81E090E0DF91CF911F9119
:101400000F91FF90EF90CF90BF90AF9008956F92A3
:101410007F928F929F92AF92BF92CF92DF92EF9284
:10142000FF920F931F93CF93DF93EC014B015A016F
:1014300069013801E881F9810680F781E02D09957D
:10144000E881F9810684F785E02D87019601A501E1
:10145000B401CE010995E881F981A501460D571D1A
:10146000415051090684F785E02D9601B401CE0163
:101470000995E881F9810484F585E02D9301A501A2
:10148000B401CE010995E881F981C80CD91CB601D7
:10149000615071090484F585E02D9301A501CE0109
:1014A0000995E881F9810288F389E02DCE01DF9169
:1014B000CF911F910F91FF90EF90DF90CF90BF9051
:1014C000AF909F908F907F906F900994CF92DF9212
:1014D000EF92FF920F931F93CF93DF9300D000D032
:1014E00000D0CDB7DEB76C01DC01ED91FC91621745
:1014F000730789F4041715072CF4942F852FA8017E
:10150000092F182F041B150B98012F5F3F4F008CDC
:10151000F18DE02D12C04017510709F52617370746
:101520002CF4962F872FB901292F382F261B370B24
:101530002F5F3F4F028CF38DE02D8701C601099587
:1015400026960FB6F894DEBF0FBECDBFDF91CF91C8
:101550001F910F91FF90EF90DF90CF90089506803C
:10156000F781E02D2D833E834B835C8369837A83EF
:101570000995D601ED91FC910088F189E02D2D812E
:101580003E814B815C8169817A81C6010995D601D2
:10159000ED91FC910288F389E02DC60126960FB6E5
:1015A000F894DEBF0FBECDBFDF91CF911F910F9199
:1015B000FF90EF90DF90CF900994EF92FF920F93FE
:1015C0001F93DC01ED91FC9111971A960D911C91DE
:1015D0001B9718962D913C911997048CF58DE02D51
:1015E0007B0140E050E060E070E009951F910F91B1
:1015F000FF90EF9008954F925F926F927F928F923B
:101600009F92AF92BF92CF92DF92EF92FF920F9391
:101610001F93CF93DF9300D0CDB7DEB76C015A0193
:1016200039014801DC01ED91FC910680F781E02D44
:1016300069837A8309956981462E7A81572E640CD5
:10164000751CD601ED91FC91461457046CF404848A
:10165000F585E02D87019401A501B201C601099528
:10166000BFEF4B1A5B0AEDCF0288F389E02DC6016C
:101670000F900F90DF91CF911F910F91FF90EF90FE
:10168000DF90CF90BF90AF909F908F907F906F90A2
:101690005F904F900994AF92BF92CF92DF92EF92FA
:1016A000FF920F931F93CF93DF9300D000D0CDB75D
:1016B000DEB75C016901DC01ED91FC910680F781E8
:1016C000E02D4B835C8369837A830995D501ED9185
:1016D000FC9169817A819B012C0D3D1D21503109BE
:1016E0000088F189E02D78014B815C818A01C50178
:1016F0000995D501ED91FC910288F389E02DC50192
:101700000F900F900F900F90DF91CF911F910F913D
:10171000FF90EF90DF90CF90BF90AF900994AF9281
:10172000BF92CF92DF92EF92FF920F931F93CF93CE
:10173000DF9300D000D0CDB7DEB75C016901DC01DA
:10174000ED91FC910680F781E02D4B835C836983EA
:101750007A830995D501ED91FC914B815C81C40E92
:10176000D51EB1E0CB1AD1080088F189E02D7801AF
:10177000860169817A819B01C5010995D501ED91A9
:10178000FC910288F389E02DC5010F900F900F9016
:101790000F90DF91CF911F910F91FF90EF90DF900D
:1017A000CF90BF90AF9009940895EF92FF920F935E
:1017B0001F93DC01ED91FC91048CF58DE02D0995D2
:1017C0001F910F91FF90EF9008950F931F93DC01ED
:1017D000ED91FC91028CF38DE02D09951F910F91F5
:1017E00008950F931F93DC01ED91FC91008CF18D16
:1017F000E02D09951F910F910895DC01ED91FC9169
:101800000480F581E02D099408952F923F924F9224
:101810005F926F927F928F929F92AF92BF92CF9280
:10182000DF92EF92FF920F931F93CF93DF9300D03D
:101830001F92CDB7DEB74C017B836A836A015901E1
:1018400017019801241B350B37FF03C031952195F3
:101850003109C5014A815B81841B950B97FF03C049
:1018600091958195910951E059838217930714F05E
:1018700019820BC09A2D8B2D5801092F182F9A8190
:101880008B81DB82CA82C92ED82E8A819B81A816C1
:10189000B9065CF49C2D8D2D6801092F182F9A81B3
:1018A0008B81BB82AA82A92EB82E2501AA81BB8179
:1018B0004A1A5B0A38016C187D0877FE03C07194E0
:1018C00061947108720157FE03C0BFEFEB1AFB0A67
:1018D000F594E794C016D1061CF00FEF1FEF1FC060
:1018E00001E010E01CC0D401ED91FC91B9810084AD
:1018F000F185E02D9101BB23C1F04A815B81B601E6
:10190000C4010995E618F708F7FE04C0C00ED11E01
:10191000E40CF51CEA81FB813196FB83EA834A8162
:101920005B81A416B506FCF604C0A6016A817B8122
:10193000E7CF0F900F900F90DF91CF911F910F91F4
:10194000FF90EF90DF90CF90BF90AF909F908F90DF
:101950007F906F905F904F903F902F900895CF931E
:10196000DF93EC0120E030E0A9016F857889898957
:101970009A890E94A83018161CF4EBA1FCA102C0A1
:10198000EDA1FEA1DF91CF910994DC0112962C917B
:10199000213069F028F0223089F02430B1F0089528
:1019A000DC01ED91FC910280F381E02D0994DC01D2
:1019B000ED91FC910480F581E02D0DC0DC01ED91ED
:1019C000FC910680F781E02D06C0DC01ED91FC91D1
:1019D0000084F185E02D099485ED8093BC00809111
:1019E000BC0084FDFCCF1092A102089540915402E6
:1019F000262F30E0240F311D21323105DCF42091F7
:101A0000A1022430C9F4FC0180E090E0861758F46C
:101A1000309154022191DC01AE5CBD4FA30FB11D8A
:101A20002C930196F3CF80915402680F6093540277
:101A300080E0089581E0089582E0089508958FEF91
:101A40009FEF08958FEF9FEF08958091310290E00E
:101A50009195819591090895CF92DF92EF92FF922F
:101A60000F931F93CF93DF937C01262F972F8A012B
:101A70008091A202882391F0C62FD72F6E01C40E49
:101A8000D51ECC15DD0571F06991D701ED91FC9162
:101A90000190F081E02DC7010995F3CF642F822FCB
:101AA0000E94F60CC801DF91CF911F910F91FF901A
:101AB000EF90DF90CF900895CF93DF931F92CDB733
:101AC000DEB769832091A2022223D1F02091C502C2
:101AD000203240F021E030E0FC013383228380E0BB
:101AE00090E015C08091A302E82FF0E0EC55FD4F87
:101AF000998190838F5F8093A3028093C50205C074
:101B000061E0CE0101960E94F60C81E090E00F901A
:101B1000DF91CF910895CF93DF93EC01613089F08D
:101B200050F06230E1F0633061F561E08B810E943A
:101B3000BF1560E019C061E08B810E94BF1560E0B5
:101B400005C060E08B810E94BF1561E08C810E941E
:101B5000BF1561E08D810E94BF1560E00DC060E09F
:101B60008B810E94BF1561E08C810E94BF1560E0EF
:101B70008D810E94BF1561E08E81DF91CF910C9421
:101B8000BF15DF91CF910895CF93DF93EC016130C2
:101B900049F030F0623061F06330A1F460E009C0D8
:101BA00060E001C061E08B810E94BF1561E005C06B
:101BB00061E08B810E94BF1560E08C81DF91CF9145
:101BC0000C94BF15DF91CF9108951F93CF93DF93AE
:101BD000EC0111E020E030E0A9016F857889898966
:101BE0009A890E94A83018160CF010E0612F8C81A1
:101BF0000E94BF1561E08B810E94BF1560E08B8160
:101C0000DF91CF911F910C94BF158F929F92AF924D
:101C1000BF92CF92DF92EF92FF920F931F93CF93D9
:101C2000DF93EC018B859C85AD85BE850F81188582
:101C300029853A85BC01CD01601B710B820B930B8A
:101C400009F4D0C08AF00E940E2E9B01AC010E94C4
:101C5000942F2F89388D498D5A8D0E946D2E0E94A8
:101C6000B3306B017C011BC0909580957095619598
:101C70007F4F8F4F9F4F0E940E2E9B01AC010E9401
:101C8000942F2F89388D498D5A8D0E946D2E0E9478
:101C9000B3306B017C01F7FAF094F7F8F0948F847D
:101CA0009888A988BA88A5019401C701B6010E9445
:101CB000A83018160CF043C020E030E0A901C5019F
:101CC000B4010E94072E81110BC06F89788D898D18
:101CD0009A8D9B01AC010E94942F0E94B3301BC0CF
:101CE000A50194016F89788D898D9A8D0E940030AD
:101CF0006B017C0120E030E0A9010E94A830181699
:101D000024F0F7FAF094F7F8F094A7019601C501D2
:101D1000B4010E94942F7B018C01BB88CC88DD88A4
:101D2000CE892B2D3C2D4D2D5C2F0E94A8301816EE
:101D30000CF05DC03B2D7C2D8D2D9C2F5FC0A5012F
:101D40009401C701B6010E94072E87FF54C020E00E
:101D500030E0A901C501B4010E94072E811111C014
:101D60006F89788D898D9A8D9B01AC010E94942F8B
:101D70000E94B3306B017C01F7FAF094F7F8F0940D
:101D80001DC0A50194016F89788D898D9A8D0E945F
:101D900000306B017C0120E030E0A9010E94A830F6
:101DA000181624F0F7FAF094F7F8F094A7019601CA
:101DB000C501B4010E94932F6B017C018B889C8824
:101DC000AD88BE88B7FAB094B7F8B094A501940175
:101DD000C701B6010E94072E87FF0DC0382D792D4F
:101DE000C5010CC030E070E080E090E007C03E2DFF
:101DF0007F2DC80103C03C2D7D2DC701C32ED72EDA
:101E00007C01C701B601DF91CF911F910F91FF9027
:101E1000EF90DF90CF90BF90AF909F908F900895FC
:101E200061E080918F04909190040C94EA1F62E02D
:101E300080918F04909190040C94EA1F2F923F920E
:101E40004F925F926F927F928F929F92AF92BF92CA
:101E5000CF92DF92EF92FF920F931F93CF93DF9376
:101E6000880F991F880F991F0397242F267030E041
:101E7000359527954C01820E931E4170342E09EC46
:101E800012E0C0E0D0E0222423946AE0A62EB12C18
:101E9000F801819191918F018816990609F0D5C0BA
:101EA00030923002D0932F02C0932E0220922D0246
:101EB000409173045091740460917504709176049C
:101EC00080916F0490917004A0917104B09172049C
:101ED000481759076A077B0709F493C00E94CD167B
:101EE0006B017C01409183045091840460918504CE
:101EF000709186048091870490918804A091890450
:101F0000B0918A04840F951FA61FB71F8C159D05DD
:101F1000AE05BF0508F075C0409077045090780476
:101F20006090790470907A0420E030E0A901C30148
:101F3000B2010E94A830181664F480916F04909149
:101F40007004A0917104B09172040196A11DB11D9D
:101F500014C020E030E0A901C301B2010E94072EA5
:101F600087FF13C080916F0490917004A091710459
:101F7000B09172040197A109B10980936F04909305
:101F80007004A0937104B093720460916F04637045
:101F900088E694E00E94C50CC0928704D092880421
:101FA000E0928904F0928A0488E694E00E94050E8B
:101FB0009B01AC016093770470937804809379045B
:101FC00090937A0460E070E08AE794E40E94003025
:101FD0006B017C0120E030E0A9010E94A8301816B6
:101FE0001CF4C701B60103C0C701B60190580E9496
:101FF0007930609383047093840480938504909374
:10200000860480912D02882399F020922A028091E3
:102010002B0290912C0297FF09C00A9790932C02F3
:1020200080932B02B0920101A092000110922D0228
:1020300080912B0290912C0297FF03C01092020115
:1020400004C0892B11F0209202012196C730D105DE
:1020500009F01ECFDF91CF911F910F91FF90EF906C
:10206000DF90CF90BF90AF909F908F907F906F90B8
:102070005F904F903F902F9008958F929F92AF92D4
:10208000BF92CF92DF92EF92FF920F931F93CF9365
:10209000DF93EC017A016901EB8DFC8D30812FA17A
:1020A000232320832A8D21115EC02D89223089F0BF
:1020B000233021F1213081F52FEE30E0A901401BC2
:1020C000510B5B0149018E189F08860164017B0159
:1020D00013C02FEE30E0A9014C195D096901C61A41
:1020E000D70A8FE391E09C01201B310B8C010E1964
:1020F0001F09580146017901BA0110C02FE331E0F0
:10210000A9014C195D095901A61AB70A47016801CE
:102110008501B7017A0102C05A014B01AB0160E5AC
:1021200070E0CE010E948619A60161E570E0CE0143
:102130000E948619A70162E570E0CE010E9486190F
:10214000A80163E570E0CE010E948619A40160E257
:1021500070E0CE010E948619A50161E270E0CE0117
:102160000E94861947C02130C1F49B0143E062E020
:102170000E941019970147E066E0CE010E941019F5
:10218000960145E064E0CE010E941019980149E0F3
:1021900068E0CE010E9410192DC02250223050F567
:1021A000CB01770FAA0BBB0BDC0199278827A6016F
:1021B000DD0C660B770B9A01AB01282B392B4A2BD0
:1021C0005B2B6AE2CE010E946018C701FF0CAA0BCC
:1021D000BB0BDC0199278827A801110F660B770B31
:1021E0009A01AB01282B392B4A2B5B2B6BE2CE01DA
:1021F0000E946018EB8DFC8D90818BA1892B8083D0
:10220000DF91CF911F910F91FF90EF90DF90CF90D2
:10221000BF90AF909F908F900895FF920F931F9360
:10222000CF93DF9300D0CDB7DEB7152FF32EFC018F
:10223000008181E08093A2020093C4021092A30265
:102240001092C502F4E06F9FB00111246A5F7F4FC6
:102250008CE594E02A8349830E945C0D4981842F98
:10226000912F0E94E51F812F90E00E94E51F2A8197
:10227000822F9F2D0E94E51F8F2D90E00E94E51F69
:102280008091C502813208F046C09091A10291115F
:10229000FCCF92E09093A10291E09093A0029FEF77
:1022A00090939F0210929E0280939D02A4EAB2E056
:1022B0002DE732E0F9019E2F921B981718F49D919B
:1022C0009193F9CF10927C0280917C02000F802BB9
:1022D00080937C0280917B02813061F410927B02BA
:1022E00080917C028093BB008091BC0083FDF8CF7D
:1022F00085EC01C085EE8093BC008091A102823004
:10230000E1F380919F028F3F31F080919F028032F4
:1023100011F080919F021092A3021092C5021092B8
:10232000A2020F900F90DF91CF911F910F91FF901C
:1023300008959A01CB96211540E1340728F020E05A
:1023400030E040E050E102C040E050E00C940D115C
:102350001F920F920FB60F9211240F900FBE0F9085
:102360001F9018951F920F920FB60F9211242F9362
:102370003F934F935F936F937F938F939F93AF930D
:10238000BF93EF93FF938091B900887F803609F463
:102390009CC068F5883209F45BC090F4803109F480
:1023A00054C038F4882309F4F6C0883009F44DC0CD
:1023B000F6C0883109F44CC0803209F45DC0EFC02A
:1023C000803409F468C048F4803309F455C0883378
:1023D00009F0E5C080939F02D8C0803509F44FC052
:1023E000883509F45DC0883409F0D9C0D6C0883971
:1023F00009F4C7C0A8F4883709F467C038F48836F0
:1024000009F463C0803709F460C0C9C0883809F492
:10241000B8C0803909F45FC0803809F0C0C05BC023
:10242000803B09F486C038F4803A09F466C0883AE3
:1024300009F47FC0B4C0803C09F4A7C0883C09F40B
:10244000A4C0883B09F48AC0AAC080917C0210C055
:1024500090919E0280919D02981770F5E0919E02E6
:1024600081E08E0F80939E02F0E0E358FD4F808163
:102470008093BB0085EC86C080939F028EC0E09164
:102480009E0281E08E0F80939E028091BB00F0E05F
:10249000E358FD4F808390919E0280919D026EC013
:1024A000E0919E0281E08E0F80939E028091BB009E
:1024B000F0E0E358FD4F80838091A00281116DC050
:1024C00081E080937B0284EA61C083E08093A10273
:1024D00010927802CFCF80917802803208F051C0FC
:1024E000E091780281E08E0F809378028091BB00AA
:1024F000F0E0E85AFD4F8083BDCF85EC8093BC00AF
:102500001092A10280917802803230F4E09178023A
:10251000F0E0E85AFD4F10826091780270E0E0919F
:102520005602F091570288E592E0099510927802E0
:1025300036C084E08093A10210925502109254029A
:10254000E0915202F0915302099580915402811159
:1025500005C081E08093540210923202E09155024E
:1025600081E08E0F80935502F0E0EE5CFD4F80819C
:102570008093BB009091550280915402981708F403
:1025800079CF85E88093BC000AC085EC8093BC00BD
:102590001092A10204C010929F020E94EC0CFF91C5
:1025A000EF91BF91AF919F918F917F916F915F91CB
:1025B0004F913F912F910F900FBE0F901F90189544
:1025C000FC01918D828D981761F0828DDF01A80F3B
:1025D000B11D5D968C91928D9F5F9F73928F90E05D
:1025E00008958FEF9FEF0895FC01918D828D9817CC
:1025F00031F0828DE80FF11D858D90E008958FEF09
:102600009FEF0895FC01918D228D892F90E0805CD1
:102610009F4F821B91098F739927089585E793E057
:102620000E94021321E0892B09F420E0822F0895F3
:10263000FC01848DDF01A80FB11DA35ABF4F2C915F
:10264000848D90E001968F739927848FA689B7892E
:102650002C93A089B1898C9180648C93938D848D07
:10266000981306C00288F389E02D80818F7D8083D6
:102670000895EF92FF920F931F93CF93DF93EC0196
:1026800081E0888F9B8D8C8D981305C0E889F9892E
:10269000808185FD24C0F62E0B8D10E00F5F1F4F4B
:1026A0000F731127E02E8C8DE8120CC00FB607FCBB
:1026B000FACFE889F989808185FFF5CFCE010E94A4
:1026C0001813F1CF8B8DFE01E80FF11DE35AFF4F78
:1026D000F0820B8FEA89FB898081806207C0EE89D6
:1026E000FF896083E889F98980818064808381E043
:1026F00090E0DF91CF911F910F91FF90EF9008959F
:10270000CF93DF93EC01888D8823C9F0EA89FB8998
:10271000808185FD05C0A889B9898C9186FD0FC08F
:102720000FB607FCF5CF808185FFF2CFA889B98964
:102730008C9185FFEDCFCE010E941813E7CFDF917A
:10274000CF91089580E090E0892B29F00E940E132C
:1027500081110C94000008950895089510926B0360
:102760008091DE028336B8F540916703509168038B
:102770006091690370916A0340936303509364030B
:102780006093650370936603843081F058F483305E
:1027900011F540935F03509360036093610370935E
:1027A000620319C08650833050F015C040935B031C
:1027B00050935C0360935D0370935E030CC0809143
:1027C0005A03882341F04093560350935703609374
:1027D00058037093590310925503109254031092AA
:1027E000530310925203109251031092500310920F
:1027F0004F0380E880934E03F89480914D03882323
:1028000079F02091D7023091D80291E080E0409198
:102810004B0350914C034217530721F090E002C044
:1028200090E080E09093490380934A031092D8028D
:102830001092D70210924C0310924B03789410928E
:102840004D0388E294E190935B0480935A040895C9
:10285000F8948091D7029091D80220914B03309147
:102860004C038217930711F4789408958091D7024E
:102870009091D802821B930B029748F078948EEACD
:1028800093E190935B0480935A0487E625C02091DE
:10289000D9023091DA028091DB029091DC02409102
:1028A000D7025091D80250934C0340934B03789435
:1028B000B9016453710941E06D30710580F040E069
:1028C0002A553109273B364250F08EEA93E1909326
:1028D0005B0480935A0488E68093DE0208959C018D
:1028E000245331092D30310530F08A559109873B49
:1028F000964268F0EACF442361F0809149039091B9
:102900004A03019690934A03809349030895442310
:1029100091F0F8948091DB029091DC029093DA02BE
:102920008093D90281E08093DD02789410924A036B
:102930001092490308958091490390914A030A97A0
:10294000ACF388EA94E190935B0480935A04089571
:10295000F8948091D7029091D80220914B03309146
:102960004C038217930711F4789408958091D7024D
:102970009091D802821B930B029748F078948EEACC
:1029800093E190935B0480935A0487E672C0409170
:10299000D9025091DA022091DB023091DC02809161
:1029A000D7029091D80290934C0380934B03789474
:1029B000BA016453710991E06D30710570F090E0D7
:1029C0004A555109473B564240F08EEA93E19093B5
:1029D0005B0480935A0488E64CC081E0A90144530B
:1029E00051094D30510530F080E02A553109273B1F
:1029F000364258F79813E9CF80914E03882381F02F
:102A0000992341F0E0914F03F0E0E05BFC4F9081AF
:102A1000982B908390E09595879580934E03089529
:102A200080914F0321E0280F20934F0330E830932B
:102A30004E039923A9F091E090934D038250843086
:102A400038F489ED96E190935B0480935A040895DD
:102A50008EEA93E190935B0480935A0489E609C05F
:102A6000263048F08EEA93E190935B0480935A04F9
:102A70008AE68093DE0208950E9414331F920F921B
:102A80000FB60F9211242F933F934F935F936F9341
:102A90007F938F939F93AF93BF93EF93FF9385E7BC
:102AA00093E00E941813FF91EF91BF91AF919F9116
:102AB0008F917F916F915F914F913F912F910F90E7
:102AC0000FBE0F901F9018951F920F920FB60F9286
:102AD00011242F938F939F93EF93FF93E09185039E
:102AE000F09186038081E0918B03F0918C0382FD4D
:102AF00012C0908180918E038F5F8F7320918F031E
:102B0000821751F0E0918E03F0E0EB58FC4F958F67
:102B100080938E0301C08081FF91EF919F918F91EF
:102B20002F910F900FBE0F901F901895833081F05A
:102B300028F4813099F08230A1F008958730A9F00F
:102B40008830B9F08430D1F4809180008F7D03C04B
:102B5000809180008F7780938000089584B58F776F
:102B600002C084B58F7D84BD08958091B0008F77B9
:102B700003C08091B0008F7D8093B00008951F93B3
:102B8000CF93DF93282F30E0F901E153F24F849186
:102B9000F901ED51F24FD491F901EF5FF14FC4917A
:102BA000CC23C9F0162F81110E949615EC2FF0E06E
:102BB000EE0FFF1FE950F24FA591B4918FB7F89433
:102BC000111105C09C91ED2FE095E92302C0EC9115
:102BD000ED2BEC938FBFDF91CF911F910895CF9391
:102BE000DF9390E0FC01ED51F24F2491FC01EF5F87
:102BF000F14F8491882361F190E0880F991FFC01C7
:102C0000E554F24FC591D491FC01E950F24FA591E2
:102C1000B491611109C09FB7F894888120958223EF
:102C20008883EC912E230BC0623061F49FB7F89437
:102C30003881822F809583238883EC912E2B2C93CF
:102C40009FBF06C08FB7F894E8812E2B28838FBFD3
:102C5000DF91CF9108958E3008F08E508770806498
:102C600080937C0080917A00806480937A008091C8
:102C70007A0086FDFCCF809178002091790090E069
:102C8000922B08953FB7F89480917103909172034D
:102C9000A0917303B091740326B5A89B05C02F3F84
:102CA00019F00196A11DB11D3FBFBA2FA92F982F72
:102CB0008827820F911DA11DB11DBC01CD0142E0ED
:102CC000660F771F881F991F4A95D1F708958F9235
:102CD0009F92AF92BF92CF92DF92EF92FF926B01E1
:102CE0007C010E9442164B015C01C114D104E10435
:102CF000F104F1F00E944216DC01CB018819990918
:102D0000AA09BB09883E9340A105B10570F321E0F3
:102D1000C21AD108E108F10888EE880E83E0981EF7
:102D2000A11CB11CC114D104E104F10419F7DDCFD9
:102D3000FF90EF90DF90CF90BF90AF909F908F90DB
:102D400008950E944216A091DD024A2F50E0209182
:102D5000DF023091E002FB01E21BF30B9F01FA015D
:102D6000EE0FFF1FE752FD4F318320836093DF0298
:102D70007093E0028093E1029093E2022091D702E7
:102D80003091D802240F351F3093D8022093D702F8
:102D900081E08A278093DD0208952FB7F89460912F
:102DA0006D0370916E0380916F03909170032FBF3C
:102DB00008951F93CF93DF93909151038091500317
:102DC0008927C0914F03C43068F09091520389273E
:102DD000C43041F0909153038927C53019F0909188
:102DE00054038927EC2FF0E0E15BFC4F90818917B9
:102DF00041F08EEA93E190935B0480935A0484E659
:102E0000B8C00E94CD1660936703709368038093E7
:102E1000690390936A0310925A03C33009F07DC08E
:102E20001091510380915003111115C08F3F49F447
:102E30008EEA93E190935B0480935A04C093DE0280
:102E4000A3C0811108C08EEA93E190935B04809344
:102E50005A0484E08EC0982F907C9038D1F517FFEB
:102E600038C0C12FD0E0C095D095C077DD27CC0FFA
:102E7000DD1FCC0FDD1F8F73C80FD11D0E940023F3
:102E800021E0C817D90709F020E020935A03211147
:102E900007C0CF33D10521F08091C602882389F085
:102EA00080916B0381110DC0E091C702F091C802BF
:102EB000309739F0412F477013FB662760F9CE0138
:102EC00009958EEA93E190935B0480935A0487E01E
:102ED00050C087FF08C08EEA93E190935B04809313
:102EE0005A0485E646C0107C103441F08EEA93E126
:102EF00090935B0480935A0486E63BC091E0209156
:102F00007105821390E090935A038EEA93E19093B7
:102F10005B0480935A0486E02CC0C43069F590911C
:102F20005003892F807C803839F580915103282FF8
:102F30002578213009F5C82FC670D0E0DC2FCC27CA
:102F4000807724E0829FC00DD11D11249F73C90F8B
:102F5000D11D0E94002321E0C817D90709F020E005
:102F600020935A038EEA93E190935B0480935A0472
:102F700088E08093DE0208C08EEA93E190935B04C0
:102F800080935A041092DE02DF91CF911F91089531
:102F90001F920F920FB60F9211242F933F938F938E
:102FA0009F93AF93BF9380916D0390916E03A09117
:102FB0006F03B091700330916C0323E0230F2D3722
:102FC00020F40196A11DB11D05C026E8230F02962D
:102FD000A11DB11D20936C0380936D0390936E032C
:102FE000A0936F03B093700380917103909172036B
:102FF000A0917303B09174030196A11DB11D80933C
:10300000710390937203A0937303B0937403BF9101
:10301000AF919F918F913F912F910F900FBE0F9085
:103020001F9018951F920F920FB60F9211242F9395
:103030003F934F935F936F937F938F939F93AF9340
:10304000BF93EF93FF93E0910501F091060109957D
:10305000FF91EF91BF91AF919F918F917F916F9170
:103060005F914F913F912F910F900FBE0F901F9046
:1030700018951F920F920FB60F9211242F933F9322
:103080004F935F936F937F938F939F93AF93BF9370
:10309000EF93FF93E0910301F09104010995FF91F3
:1030A000EF91BF91AF919F918F917F916F915F91C0
:1030B0004F913F912F910F900FBE0F901F90189539
:1030C000CF92DF92EF92FF92FC01A38DB48D9C9181
:1030D00087A189238C93A58DB68D9C9180A589238A
:1030E0008C938BB1962F9C7F8370892B8BB985B184
:1030F00063708C7F682B65B9A78DB0A19C9181A569
:1031000089238C93A78DB0A19C9185A1892B8C9349
:10311000A58DB68D9C9184A1892B8C9383E290E040
:10312000DC011197F1F77BB1C52EDD24EE24FF24DD
:103130006C2D6C7F7370762B7BB965B17C2D7370B1
:103140006C7F672B65B9A78DB0A17C9161A56723C2
:103150006C93A78DB0A17C9165A1672B6C93DC016A
:103160001197F1F77BB16A01EE24FF246C2D6C7F7F
:103170007370762B7BB965B17C2D73706C7F672B78
:1031800065B9A78DB0A17C9161A567236C93A78DCC
:10319000B0A17C9165A1672B6C93DC011197F1F7CD
:1031A0007BB1C32ED42EE52EFF246C2D6C7F737063
:1031B000762B7BB965B17C2D73706C7F672B65B9FD
:1031C000A78DB0A17C9161A567236C93A78DB0A159
:1031D0007C9165A1672B6C930197F1F78BB1922FCE
:1031E0009C7F8370892B8BB985B123708C7F282BB2
:1031F00025B9A78DB0A19C9181A589238C93A78D1A
:10320000B0A19C9185A1892B8C93A38DB48D9C91A9
:1032100083A1892B8C93FF90EF90DF90CF9008953E
:10322000FC01A58DB68D9C9180A589238C938BB1D3
:10323000962F9C7F8370892B8BB985B163708C7FAF
:10324000682B65B9A78DB0A19C9181A589238C932A
:10325000A78DB0A19C9185A1892B8C93A58DB68D4E
:103260009C9184A1892B8C938BB1932F9C7F83702D
:10327000892B8BB985B133708C7F382B35B9A78DED
:10328000B0A19C9181A589238C93A78DB0A19C911D
:1032900085A1892B8C93A58DB68D9C9180A58923C2
:1032A0008C938BB1942F9C7F8370892B8BB985B1C4
:1032B00043708C7F482B45B9A78DB0A19C9181A507
:1032C00089238C93A78DB0A19C9185A1892B8C9388
:1032D000A58DB68D9C9184A1892B8C938BB1922F57
:1032E0009C7F8370892B8BB985B123708C7F282BB1
:1032F00025B9A78DB0A19C9181A589238C93A78D19
:10330000B0A19C9185A1892B8C930895FC01A58D7A
:10331000B68D9C9180A589238C938BB1972F9C7F30
:103320008370892B8BB985B173708C7F782B75B9BD
:10333000A78DB0A19C9181A589238C93A78DB0A165
:103340009C9185A1892B8C938BB1962F9C7F837048
:10335000892B8BB985B163708C7F682B65B9A78D7C
:10336000B0A19C9181A589238C93A78DB0A19C913C
:1033700085A1892B8C93A58DB68D9C9184A1892BD9
:103380008C938BB1952F9C7F8370892B8BB985B1E2
:1033900053708C7F582B55B9A78DB0A19C9181A5F6
:1033A00089238C93A78DB0A19C9185A1892B8C93A7
:1033B0008BB1942F9C7F8370892B8BB985B143701F
:1033C0008C7F482B45B9A78DB0A19C9181A58923FD
:1033D0008C93A78DB0A19C9185A1892B8C93089586
:1033E000FC01A58DB68D9C9180A589238C938BB112
:1033F000962F9C7F8370892B8BB985B163708C7FEE
:10340000682B65B9A78DB0A19C9181A589238C9368
:10341000A78DB0A19C9185A1892B8C93A58DB68D8C
:103420009C9184A1892B8C938BB1942F9C7F83706A
:10343000892B8BB985B143708C7F482B45B9A78DFB
:10344000B0A19C9181A589238C93A78DB0A19C915B
:1034500085A1892B8C930895AF92BF92CF92DF9272
:10346000EF92FF920F931F93CF93DF93FC01A38DF5
:10347000B48D9C9187A189238C93A58DB68D9C9149
:1034800080A589238C93828D8230B9F0811113C07D
:103490008BB183708BB985B18C7F85B9A78DB0A1B5
:1034A0009C9181A589238C93A78DB0A19C9185A126
:1034B000892B8C9309C0833039F48BB183708C6273
:1034C0008BB985B18C7F07C08BB1837080628BB95B
:1034D00085B18C7F826085B9A78DB0A19C9181A5B3
:1034E00089238C93A78DB0A19C9185A1892B8C9366
:1034F000A58DB68D9C9184A1892B8C938BB1972F30
:103500009C7FB92E8370892B8BB985B1A72FA370AF
:10351000AA2E8C7F8A2B85B9C78DD0A1988181A5D1
:1035200089238883C78DD0A1988185A1892B888321
:103530008BB1C62FCC7F83708C2B8BB985B1D62FE6
:10354000D3708C7F8D2B85B9078D10A1D8019C91EC
:1035500081A589238C93078D10A1D8019C9185A109
:10356000892B8C93215031094109510969017A0154
:1035700086E0F694E794D794C7948A95D1F7C6016C
:10358000761348C1019708F465C060E1A78DB0A12A
:10359000CC9171A57C237C93A78DB0A1CC9175A112
:1035A0007C2B7C93A78DB0A1CC9171A57C237C93BF
:1035B000A78DB0A1CC9175A17C2B7C93A78DB0A1D8
:1035C000CC9171A57C237C93A78DB0A1CC9175A1E2
:1035D0007C2B7C93A78DB0A1CC9171A57C237C938F
:1035E000A78DB0A1CC9175A17C2B7C93A78DB0A1A8
:1035F000CC9171A57C237C93A78DB0A1CC9175A1B2
:103600007C2B7C93A78DB0A1CC9171A57C237C935E
:10361000A78DB0A1CC9175A17C2B7C93A78DB0A177
:10362000CC9171A57C237C93A78DB0A1CC9175A181
:103630007C2B7C93A78DB0A1CC9171A57C237C932E
:10364000A78DB0A1CC9175A17C2B7C93615009F022
:103650009DCF98CF2F732150C8F0A78DB0A19C911A
:1036600081A589238C93A78DB0A19C9185A1892BDD
:103670008C93A78DB0A19C9181A589238C93A78D54
:10368000B0A19C9185A1892B8C93E5CFA38DB48D9E
:103690009C9183A1892B8C93DF91CF911F910F91E6
:1036A000FF90EF90DF90CF90BF90AF9008956BB1F7
:1036B00063706B296BB965B16C7F6A2965B9078D39
:1036C00010A1D801FC9061A56F216C93078D10A10A
:1036D000D801FC9065A16F296C936BB163706C2B62
:1036E0006BB965B16C7F6D2B65B9078D10A1D801E1
:1036F000FC9061A56F216C93078D10A1D801FC90FF
:1037000065A16F296C936BB163706B296BB965B15F
:103710006C7F6A2965B9078D10A1D801FC9061A55D
:103720006F216C93078D10A1D801FC9065A16F29C2
:103730006C936BB163706C2B6BB965B16C7F6D2B47
:1037400065B9078D10A1D801FC9061A56F216C931C
:10375000078D10A1D801FC9065A16F296C936BB106
:1037600063706B296BB965B16C7F6A2965B9078D88
:1037700010A1D801FC9061A56F216C93078D10A159
:10378000D801FC9065A16F296C936BB163706C2BB1
:103790006BB965B16C7F6D2B65B9078D10A1D80130
:1037A000FC9061A56F216C93078D10A1D801FC904E
:1037B00065A16F296C936BB163706B296BB965B1AF
:1037C0006C7F6A2965B9078D10A1D801FC9061A5AD
:1037D0006F216C93078D10A1D801FC9065A16F2912
:1037E0006C936BB163706C2B6BB965B16C7F6D2B97
:1037F00065B9078D10A1D801FC9061A56F216C936C
:10380000078D10A1D801FC9065A16F296C937150B0
:1038100009F04DCF019710F070E149CF2F7321507F
:1038200008F434CF8BB183708B298BB985B18C7F31
:103830008A2985B9478D50A1DA019C9181A58923F8
:103840008C93478D50A1DA019C9185A1892B8C9393
:103850008BB183708C2B8BB985B18C7F8D2B85B907
:10386000478D50A1DA019C9181A589238C93478DC6
:1038700050A1DA019C9185A1892B8C93D0CFEF9236
:10388000FF920F931F93CF93DF93EC017B018A8DFF
:10389000811129C02D892150233078F430E0F901BD
:1038A000ED5EFE4F8081482F50E0220F331FF9015B
:1038B000E35FFE4F0081118104C000E010E040E0B2
:1038C00050E0EB8DFC8D30812FA12323208360E21B
:1038D00070E0CE010E948619A80161E270E0CE017D
:1038E0000E94861912C08150833078F40A851B85A6
:1038F00001501109288539852150310940E050E0F7
:1039000060E070E0CE010E943D1020E03CE241E02A
:1039100050E0B701CE01DF91CF911F910F91FF9041
:10392000EF900C942C1AAF92BF92CF92DF92EF924D
:10393000FF920F931F93CF93DF93EC017B016A01FA
:10394000B22EA32E77FD1BC157FD19C1888599851D
:10395000681779070CF013C18A859B8548175907AA
:103960000CF00DC1EB8DFC8D90818FA1892380839C
:103970008A8D811135C08D89823059F08330B1F044
:103980008130D1F48FEE90E0841B950B6B017C01AC
:1039900013C08FEE90E09C01261B370B79018FE35B
:1039A00091E09C01241B350B690106C08FE391E077
:1039B000861B970B7A016C01A70160E270E0CE01D3
:1039C0000E948619A60161E270E0CE010E9486196C
:1039D0004B2D5A2D62E270E0CE010E948619C9C0BB
:1039E000813009F060C0ED89E150E33028F4F0E067
:1039F000EA5EFE4F408101C040E066E1CE010E94D8
:103A0000F019970143E062E0CE010E94101996017F
:103A100047E066E0CE010E941019ED8DFE8D908189
:103A200088A5892380838BB1837080628BB985B12F
:103A30008C7F826085B9EF8DF8A1908189A589235B
:103A40008083EF8DF8A190818DA1892B8083ED8DEE
:103A5000FE8D90818CA1892B80838BB19A2D9C7FC8
:103A60008370892B8BB985B19A2D93708C7FA92E89
:103A7000A82AA5B8EF8DF8A1908189A58923808314
:103A8000EF8DF8A190818DA1892B80838BB19B2D27
:103A90009C7F8370892B8BB985B19B2D93708C7F14
:103AA000B92EB82A59C08250823008F062C00A8507
:103AB0001B85015011092885398521503109CE0116
:103AC0000E943D10EB8DFC8D90818FA18923808316
:103AD000ED8DFE8D908188A5892380838BB18370C5
:103AE0008C628BB985B18C7F85B9EF8DF8A19081FF
:103AF00089A589238083EF8DF8A190818DA1892BE1
:103B00008083ED8DFE8D90818CA1892B80838BB17C
:103B10009A2D9C7F8370892B8BB995B18A2D8370E8
:103B20009C7FA82EA92AA5B8EF8DF8A1908189A520
:103B300089238083EF8DF8A190818DA1892B8083CB
:103B40008BB19B2D9C7F8370892B8BB995B18B2D6D
:103B500083709C7FB82EB92AB5B8EF8DF8A19081FB
:103B600089A589238083EF8DF8A190818DA1892B70
:103B70008083EB8DFC8D90818BA1892B8083DF91DD
:103B8000CF911F910F91FF90EF90DF90CF90BF905A
:103B9000AF900895CF93DF93EC01EB8DFC8D908176
:103BA0008FA189238083288539852150310945E0FB
:103BB00064E0CE010E9410192A853B85215031090D
:103BC00049E068E0CE010E941019EB8DFC8D9081D8
:103BD0008BA1892B8083DF91CF910895EF92FF9283
:103BE0000F931F93CF93DF93EC010E943807EB8D67
:103BF000FC8D90818FA1892380838A8D811122C0C1
:103C0000ED89E150E33040F4F0E0EE0FFF1FE45E99
:103C1000FE4F4081518102C040E350E163E070E01B
:103C2000CE010E9486190A851B850150110928853D
:103C300039852150310940E050E060E070E0CE016C
:103C40000E943D108A8D813089F4ED89E150E33086
:103C500028F4F0E0E75EFE4F408101C040E066E1FD
:103C6000CE010E94F019CE010E94CA1D8A8D8230B9
:103C700039F58D89813071F050F0823029F0833030
:103C800059F458E2E52E08C068E4E62E05C048E87D
:103C9000E42E02C038EEE32E4E2D66E3CE010E94E4
:103CA000F0190A851B850150110928853985215095
:103CB000310940E050E060E070E0CE010E943D102C
:103CC0008A8D833031F58D89813069F048F08230FA
:103CD00029F0833051F420E6F22E07C0F12C05C004
:103CE00090ECF92E02C080EAF82E4F2D66E3CE014B
:103CF0000E94F0190A851B85015011092885398514
:103D00002150310940E050E060E070E0CE010E94B7
:103D10003D10DF91CF911F910F91FF90EF9008958B
:103D20008F929F92AF92BF92CF92DF92EF92FF92CB
:103D30000F931F93CF93DF93EC01470112161306E5
:103D40000CF06BC0101611060CF067C0A885B98581
:103D50006A177B070CF061C0CA84DB844C155D05D3
:103D60000CF05BC05B01A20EB31EC501019797FD6D
:103D700054C07A01E00EF11EF7013197F7FD4DC0F6
:103D800077FF49C060E070E057FD02C0780102C0D3
:103D900040E050E08A179B072CF0CD0101975D01B0
:103DA000A61AB70AEC15FD052CF0F601319776013D
:103DB000E41AF50A8F019C01CE010E943D10970183
:103DC000D5010E9408319B01AC01B401CE010E94D3
:103DD0002C1A8A8D811110C00A851B85015011098A
:103DE000288539852150310940E050E060E070E0DD
:103DF000CE010E943D1011C0CE01DF91CF911F91E5
:103E00000F91FF90EF90DF90CF90BF90AF909F9079
:103E10008F900C94CA1D5901B7CFDF91CF911F919C
:103E20000F91FF90EF90DF90CF90BF90AF909F9059
:103E30008F900895CF92DF92EF92FF920F931F938E
:103E4000CF93DF93EC016801121613060CF04FC0FC
:103E500077FD4DC088859985681779070CF047C0B4
:103E6000EA85FB854E175F070CF041C07A01E20E30
:103E7000F31E87010150110917FD39C057FF35C0E6
:103E800040E050E00E171F0734F08F010150110978
:103E90007F01E41AF50A9B01CE010E943D109701B3
:103EA000FF0C440B550BB601CE010E942C1A8A8DD3
:103EB000811110C00A851B8501501109288539859B
:103EC0002150310940E050E060E070E0CE010E94F6
:103ED0003D100DC0CE01DF91CF911F910F91FF904A
:103EE000EF90DF90CF900C94CA1D7901CBCFDF917A
:103EF000CF911F910F91FF90EF90DF90CF90089599
:103F0000CF92DF92EF92FF920F931F93CF93DF93A5
:103F1000EC016801121613060CF04EC057FD4CC0A0
:103F20008A859B85481759070CF046C0E885F985B6
:103F30006E177F070CF040C07B01E20EF31EC70135
:103F4000019797FD39C077FF35C060E070E08E17AC
:103F50009F072CF0CF0101977F01E61AF70A8A012B
:103F60009C01CE010E943D109701FF0C440B550BA4
:103F7000B601CE010E942C1A8A8D811110C00A85CB
:103F80001B8501501109288539852150310940E0F0
:103F900050E060E070E0CE010E943D100DC0CE0107
:103FA000DF91CF911F910F91FF90EF90DF90CF9015
:103FB0000C94CA1D7901CBCFDF91CF911F910F9146
:103FC000FF90EF90DF90CF900895682F8CE594E0FC
:103FD0000C945C0D1F93CF93DF93EC018C856130C3
:103FE00011F48F5F01C081508C872C852F73822F35
:103FF00090E0203148F4E2E3F1E0E81BF90B408166
:10400000FC01EE5DFE4F20C030EF320F303138F44E
:10401000FC01EE5EFE4F4081E2E4F1E013C030EEC1
:10402000320F303148F4E2E5F1E0E81BF90B408152
:10403000FC01EE5FFE4F08C0FC01EE50FF4F4081D7
:10404000E2E6F1E0E81BF90B10812C8780E1489F44
:10405000A00111246C818D859E850E94991180E1BB
:10406000189FA00111246F818D859E850E94991152
:104070008C85803110F413E001C010E090EF980FB0
:10408000903108F4166090EE980F903108F41C609F
:104090008053803108F419608D859E8520E030E0E2
:1040A00010FF03C040E050E102C040E050E06E81EC
:1040B000CB960E940D118D859E8520E030E011FF8A
:1040C00003C040E050E102C040E050E06885CB967C
:1040D0000E940D118D859E8520E030E012FF03C007
:1040E00040E050E102C040E050E06D81CB960E947C
:1040F0000D118D859E8520E030E013FF03C040E068
:1041000050E102C040E050E06985CB960E940D115D
:104110008C85DF91CF911F910895E5E7F3E0A089A9
:10412000B18982E08C93A485B5851C92A685B7855C
:1041300080E18C93108EA489B58986E08C93A28946
:10414000B3898C9180618C93A289B3898C918860AA
:104150008C93A289B3898C9180688C930288F389AF
:10416000E02D80818F7D80830895CF93DF93C09170
:104170005404D091550468E072E0CE010E9474238B
:1041800067E272E0CE01DF91CF910C947423AB0112
:10419000770F660B770B77FD0C94D2232AE00C94F3
:1041A0008923BF92CF92DF92EF92FF920F931F93DA
:1041B000CF93DF93B82E0E94CD166B017C0102E1F4
:1041C00014E0C4E5D4E06FE072E0888199810E9438
:1041D00019244B2D50E060E070E02AE0888199813D
:1041E0000E94892366E172E0888199810E941924E6
:1041F0002AE0B701A601888199810E94892368E19C
:1042000072E0888199810E941924F8018681978142
:10421000A085B185B701A601481B590B6A0B7B0B22
:104220002AE0888199810E94892368E172E088816F
:1042300099810E941924F801468157816085718512
:1042400082859385A485B585481B590B6A0B7B0B2A
:104250002AE088819981DF91CF911F910F91FF9082
:10426000EF90DF90CF90BF900C9489230F931F9312
:1042700081111BC00E94CD160091140410911504E9
:104280002091160430911704DC01CB01801B910BA7
:10429000A20BB30B4997A105B10538F463E070E0B8
:1042A00080E090E00E946716E5CF0E94CD166093F3
:1042B000140470931504809316049093170481E0FE
:1042C0001F910F910895CF92DF92EF92FF920F937B
:1042D0001F93CF93DF936C017A018B01C0E0D0E094
:1042E000CE15DF0589F0D8016D918D01D601ED91D4
:1042F000FC910190F081E02DC6010995892B11F404
:104300007E0102C02196ECCFC701DF91CF911F91B2
:104310000F91FF90EF90DF90CF9008952F923F92F2
:104320004F925F926F927F928F929F92AF92BF92C5
:10433000CF92DF92EF92FF920F931F93CF93DF9371
:1043400000D000D000D0CDB7DEB73C016B015901E1
:104350004801290183E0480E511CE12CF12CE3E0D7
:10436000F0E0FE83ED838AEF9FEF9A8389832EEF3F
:10437000222E33243A94942F91709B8342704C8365
:10438000EFEFEE1AFE0AC2018A199B09280E391EA8
:10439000FB81FF2309F12D813E81220F331F2F5F07
:1043A0003F4F2A0D3B1D8401A6018D819E81481B34
:1043B000590BB3016E0D7F1D8BE395E00E94F10B4D
:1043C0009201A6014E195F096D817E81660D771DF0
:1043D0008BE395E00E94F10B9C81992311F12D81D3
:1043E0003E81220F331F2F5F3F4F2A0D3B1D84015B
:1043F000A601ED81FE814E1B5F0BB3016E197F0993
:104400008BE395E00E94F10B9201A6014E195F0922
:10441000B3018D819E81681B790B8BE395E00E942F
:10442000F10BED81FE81EE16FF0694F437FC0CC013
:10443000ED81FE813197FE83ED8389819A81029619
:104440009A838983280E391E92E0490E511C98CF19
:1044500026960FB6F894DEBF0FBECDBFDF91CF9189
:104460001F910F91FF90EF90DF90CF90BF90AF9092
:104470009F908F907F906F905F904F903F902F9084
:1044800008954F925F926F927F928F929F92AF9218
:10449000BF92CF92DF92EF92FF920F931F93CF9331
:1044A000DF933C01EB015A01690148012C0183E0D3
:1044B000480E511C9A012650310978018601AB0142
:1044C000B2018BE395E00E94D50B87E0C81AD108B2
:1044D0002396C3018A0D9B1D8401960141E0BE0114
:1044E00004970E948E21960142E0BE01C2010E9403
:1044F0008E21DF91CF911F910F91FF90EF90DF9070
:10450000CF90BF90AF909F908F907F906F905F9073
:104510004F900895E0915605F09157059081809154
:104520005E05892B8083E0915A05F0915B059081AF
:1045300080916005892B8083E0915C05F0915D0599
:10454000908180916105892B808380916605882305
:1045500071F060E00E94BF1562E070E080E090E0E2
:104560000E94671661E0809166050E94BF15E09188
:104570005605F091570590818091620589238083CB
:10458000E0915805F0915905908180916305892348
:1045900080838BB183708BB985B18C7F85B9E091B5
:1045A0005A05F0915B059081809164058923808391
:1045B000E0915A05F0915B05908180916005892B0F
:1045C000808383E0E0915A05F0915B052081909112
:1045D000640592239083E0915A05F0915B05208158
:1045E00090916005922B9083815061F7E091560580
:1045F000F0915705908180915E05892B8083089505
:1046000080918D0587FF0CC08091790590E09C0119
:1046100046E0220F331F4A95E1F7822B932B089532
:1046200085FF09C08091810590E0982F882720910F
:104630008205822B08958091710590E00895EF9294
:10464000FF920F931F93CF93DF93EC017B018A01BD
:1046500088819981009729F02A813B8124173507A9
:10466000F8F4B8016F5F7F4F0E944A32009759F00B
:10467000998388831B830A832C813D81232B81F4BA
:10468000FC0110820DC088819981009711F00E9471
:10469000B231198218821D821C821B821A8207C0C5
:1046A0001D830C83B701888199810E942B33CE0131
:1046B000DF91CF911F910F91FF90EF900895FC0132
:1046C0001182108213821282158214826115710583
:1046D00051F0FB0101900020E9F73197AF01461B33
:1046E000570B0C941F2308956115710579F0FB0198
:1046F00001900020E9F73197AF01461B570BDC0111
:10470000ED91FC910280F381E02D099480E090E02E
:1047100008954F925F926F927F92EF92FF920F9364
:104720001F93CF93DF93CDB7DEB7A1970FB6F89461
:10473000DEBF0FBECDBF7C01FA01CB0119A2223032
:1047400008F42AE08E010F5D1F4F422E512C612C80
:10475000712CBF01A30192010E942B2FF901CA0104
:10476000015011096A3014F4605D01C0695CD80120
:104770006C93232B242B252B61F7B801C7010E94D2
:104780007423A1960FB6F894DEBF0FBECDBFDF91A4
:10479000CF911F910F91FF90EF907F906F905F905E
:1047A0004F900895CF92DF92EF92FF920F931F9355
:1047B000CF93DF93EC016A017B01E881F9810190DD
:1047C000F081E02D6DE209958C0144275527BA014F
:1047D0004C195D096E097F092AE0CE010E948923E8
:1047E000800F911FDF91CF911F910F91FF90EF905C
:1047F000DF90CF900895CF93DF93AC01990F660BB4
:10480000770B77FF05C085E793E00E94D22305C0B0
:104810002AE085E793E00E948923EC0167E272E0D9
:1048200085E793E00E9474238C0F9D1FDF91CF9149
:1048300008950C947423CF9390912804992309F43C
:1048400065C0C82F8091540490915504DC01ED910E
:10485000FC910480F581E02D0995811117C085E652
:1048600056C08091540490915504DC01ED91FC9167
:104870000680F781E02D0995883609F447C0A0F03D
:10488000813709F443C0863709F441C0809154044C
:1048900090915504DC01ED91FC910480F581E02DAF
:1048A00009958111DECFDBCF883571F1833671F741
:1048B0000E94CD166093140470931504809316041F
:1048C000909317046AE172E080915404909155042A
:1048D0000E9419244C2F50E060E070E02AE08091A3
:1048E0005404909155040E94892361E272E0809102
:1048F0005404909155040E94192462E370E080E012
:1049000090E00E94671602C01092280483E6CF91BF
:104910000895CF93DF93C3E3D5E0269788819981EB
:104920000E94B23184E0CD3CD807B9F7DF91CF9136
:104930000895CF93DF93CDB7DEB72E970FB6F894D7
:10494000DEBF0FBECDBF789484B5826084BD84B5D0
:10495000816084BD85B5826085BD85B5816085BD7A
:1049600080916E00816080936E0010928100809132
:1049700081008260809381008091810081608093BA
:104980008100809180008160809380008091B100DF
:1049900084608093B1008091B00081608093B0000A
:1049A00080917A00846080937A0080917A0082609E
:1049B00080937A0080917A00816080937A00809160
:1049C0007A00806880937A001092C1001092560499
:1049D0001092570410925804109259041092140423
:1049E00010921504109216041092170460ED77E0EF
:1049F00080E090E00E94671685E793E0909355046D
:104A0000809354040E948D200E94CD16609314045C
:104A10007093150480931604909317046DE871E069
:104A200080915404909155040E9419246AE070E02A
:104A300080E090E00E94671611E0109328040E9425
:104A40008D206FE971E085E793E00E941924609161
:104A500043057091440585E793E00E94C7206CEA06
:104A600071E085E793E00E941924809145059091BB
:104A700046050E94FB238EE19FE09093C80280933D
:104A8000C7021093C60288EC90E09093CA0280930C
:104A9000C90289EC90E09093CC028093CB028AEC1F
:104AA00090E09093CE028093CD028BEC90E09093B7
:104AB000D0028093CF028CEC90E09093D20280934E
:104AC000D1028DEC90E09093D4028093D3028EECCF
:104AD00090E09093D6028093D5028FEC90E0909373
:104AE000D8028093D7028091DF029091E002A091DA
:104AF000E102B091E202892B8A2B8B2B91F5109267
:104B00007705109278051092DD021092DC02109267
:104B1000DB021092DA021092D9021092D80210929F
:104B2000D7020E9442166093DF027093E0028093E6
:104B3000E1029093E20281EA96E19093040180936E
:104B40000301809169008C7F816080936900E89AFD
:104B50008EEA93E190935B0480935A0482E0809301
:104B6000DE020E948A220E948A2268EC70E080E0C5
:104B700090E00E94671610925505E0915605F0915D
:104B80005705908180916205892380830FEC1CE09A
:104B9000F80165917491F8013296459154916F3FF7
:104BA000710531F4BA0180E090E00E94671604C0FC
:104BB0008BE395E00E9486190C5F1F4F2DE00B39A7
:104BC000120731F7609150058BE395E00E94EE1DCE
:104BD0000FE311E02FEE30E040E050E060E070E0E5
:104BE0008BE395E00E943D1063E08BE395E00E942B
:104BF000EE1D60E070E08BE395E00E943F1C61E0F9
:104C00008DE00E94EF158FEF9FEF90934E058093FC
:104C10004D0590934C0580934B0584EB9DE090935C
:104C200054058093530580913505909136052EE10A
:104C300030E0309348052093470590934A058093D0
:104C400049050BE91DE0F8016491611116C067E2A6
:104C500072E08BE395E00E9474238091530590915C
:104C60005405892BC9F08091490590914A05069712
:104C700090934A05809349050FC0E0913B05F09160
:104C80003C050190F081E02D8BE395E009950F5FE5
:104C90001F4F892BC1F6DBCF10925405109253059C
:104CA00068EE73E080E090E00E94671660E070E0DC
:104CB0008BE395E00E943F1C809143059091440551
:104CC0005C01F5E2AF1AB108B7FE04C05C0122E254
:104CD000A21AB108B594A794B594A79410924E0562
:104CE00010924D0510924C0510924B05BDEC8B2E89
:104CF000B4E09B2EC12CD12C612C712C6114710459
:104D000009F49AC4CA0CDB1C83E0C80ED11CFFEE68
:104D1000EF2EFBE7FF2E04E110E0950146E050E0A6
:104D2000B6018BE395E00E94901E1A8219821C82C4
:104D30001B821E821D82F4016081718161157105E3
:104D400031F044815581CE0101960E941F234D8090
:104D50005E80E980FA8022242A9433243A9400E089
:104D600010E026E0209FF001219FF00D1124E35375
:104D7000FB4F848195818415950521F58081918172
:104D8000009721F0E114F104A9F40DC0E114F1043D
:104D9000B1F04114510499F0F701808190E09195B0
:104DA000819591090AC04114510449F0FC018081A8
:104DB00090E003C0B7010E942233892B19F481E1EE
:104DC00090E002C0C80181010196813191051CF477
:104DD00018018C01C6CF000F111FF801E95DFC4FCF
:104DE000D182C082C8018B5F9C4F7C0186E090E03D
:104DF000F701918380830D511D4F81E090E0F80110
:104E000091838083C6010E94FB23F70180819181F9
:104E10000E94FB23F801808191810E94FB238981FC
:104E20009A810E94B231C601029690934805809300
:104E3000470589E090E090934A0580934905F40185
:104E400044815581608171818BE395E00E946321EB
:104E50008091530590915405892B49F08091490523
:104E600090914A05069790934A05809349051092C0
:104E7000540510925305FFEF6F1A7F0A26E0820E49
:104E8000911C84E06816710409F038CF2091450523
:104E90003091460520523109409143055091440517
:104EA0004C50510908E116EC6AE170E086E090E0B0
:104EB0000E94412220914505309146052652310934
:104EC00040914305509144054251510900E010E0E2
:104ED0006DE170E089E090E00E94412268EB7BE0A8
:104EE00080E090E00E94671674EF472E552453949B
:104EF000612C712C61E08DE00E94BF15A0916C05C2
:104F0000B0E0FD01EF5FF14FE49080916905682FFB
:104F100070E0FB01EF5FF14F049140916B0550E0B1
:104F2000FA01EF5FF14FB49020916A0530E0F9018A
:104F3000EF5FF14FF490FD01ED51F24FD490FB0182
:104F4000ED51F24FC490FA01ED51F24FA490F901E6
:104F5000ED51F24F2491288760E00E94EF1560E048
:104F600080916A050E94EF1510E0000F111F095093
:104F7000124FF801A591B4918C912C2D2095298781
:104F800082238C93EF2DF0E0EE0FFF1FCF018950AD
:104F9000924F4C01FC01A591B4919C91888580951C
:104FA00089238C9361E080916C050E94EF1561E08C
:104FB00080916B050E94EF15F12CF701EE0FFF1F9A
:104FC000CF018950924F7C01FC01A591B4918C9145
:104FD0008D298C93EB2DF0E0EE0FFF1FE950F24F7F
:104FE000A591B4914C91A094A422AC9280916905B2
:104FF0000E942B169C01809169052D873E870E9497
:105000002B165C0122242A9463E0362E281A390AD2
:1050100060E080916C050E94EF1560E080916B0567
:105020000E94EF15F701A591B4918C91D094DA8686
:105030008D218C9361E0809169050E94EF15F80144
:10504000A591B491EC91CE2ACC9261E080916A0551
:105050000E94EF1580916B050E942B16AC01809188
:105060006B054B875C870E942B166C014B855C851A
:105070002D853E854817590729F491E09F832A150D
:105080003B0509F01F8261E080916C050E94EF15DD
:10509000F701A591B491EC912A85E223EC93F401F8
:1050A000A591B491EC912885E22BEC93F801A591A0
:1050B000B4918C91298582238C9360E0809169055D
:1050C0000E94EF1580916B050E942B168C01809138
:1050D00069050E942B16E0906D05F0906E05E114B5
:1050E000F10409F440C0BC01990F880B990B0E9490
:1050F0000E2E4B015C01B801110F880B990B0E9419
:105100000E2E9B01AC01C501B4010E94003020E0CD
:1051100030E040E85FE30E94932F4B015C01B10156
:10512000032C000C880B990B0E940E2E9B01AC01E6
:10513000C501B4010E946D2E4B015C01B70180E0F6
:1051400090E00E940C2E9B01AC01C501B4010E94AD
:105150006D2E20E030E040E85AE30E946D2E0E9460
:1051600072308B0104C0081B190B01501C4F8F813A
:10517000811102C000E010E0809167059091680500
:10518000801791070CF051C24092200450922104E4
:105190006092220470922304109224041092250439
:1051A00010922604109227048091180490911904FB
:1051B000A0911A04B0911B0480931C0490931D04C9
:1051C000A0931E04B0931F040E94CD166093180490
:1051D0007093190480931A0490931B0480E00E943A
:1051E00036218823A1F084E00E94D1206EEA71E08C
:1051F00080915404909155040E941924B801809123
:105200005404909155040E94C7200E94B5200FEFCE
:1052100013E00C191D0962E070E080E090E00E944C
:1052200067160E94CD16609318047093190480933A
:105230001A0490931B0462E370E080E090E00E9407
:105240006716B10160557E4F85E793E00E94742395
:1052500067E272E085E793E00E947423B8016A5424
:105260007E4F85E793E00E941924B101330C880B2F
:10527000990B0E940E2E20E030E84EE554E40E9487
:1052800000306B017C016091430570914405072E4D
:10529000000C880B990B0E940E2E9B01AC01C701DC
:1052A000B6010E946D2E0E9472307B014092200454
:1052B00050922104609222047092230410922404DC
:1052C000109225041092260410922704809118044D
:1052D00090911904A0911A04B0911B0480931C04AE
:1052E00090931D04A0931E04B0931F040E94CD163A
:1052F000609318047093190480931A0490931B040C
:1053000062E070E080E090E00E9467166AE070E082
:1053100080E090E00E94671695E6909329048091C2
:105320002904833609F451C0853609F042C08091C2
:10533000240490912504A0912604B091270401969D
:10534000A11DB11D8093240490932504A0932604ED
:10535000B0932704409120045091210460912204CD
:1053600070912304452B462B472B21F4892B8A2B44
:105370008B2BF9F480E00E9436218823A1F083E092
:105380000E94D1206EEA71E08091540490915504FE
:105390000E941924B70180915404909155040E94F1
:1053A000C7200E94B52064EF71E080E090E00E9489
:1053B00067166AE070E080E090E00E94671683E084
:1053C0000E941B2480932904AACF0E94CD166B0152
:1053D0007C01609318047093190480931A049093CD
:1053E0001B04B801012E000C880B990B0E940E2E95
:1053F00020E030E04AE253E40E9400304B015C01BF
:105400006091450570914605072E000C880B990B9D
:105410000E940E2E9B01AC01C501B4010E946D2EAD
:105420000E9472305B0140922004509221046092ED
:1054300022047092230410922404109225041092E6
:10544000260410922704C0921C04D0921D04E092FE
:105450001E04F0921F040E94CD16609318047093EE
:10546000190480931A0490931B0462E070E080E0BA
:1054700090E00E9467166AE070E080E090E00E9491
:105480006716E5E6E093290480912904833609F440
:1054900070C0853609F061C0809124049091250484
:1054A000A0912604B09127040196A11DB11D8093FF
:1054B000240490932504A0932604B09327044091DC
:1054C0002004509121046091220470912304452B03
:1054D000462B472B21F4892B8A2B8B2BF1F580E06F
:1054E0000E943621882399F182E00E94D1206EEA41
:1054F00071E080915404909155040E941924B501E3
:1055000080915404909155040E94C7206EEA71E086
:1055100080915404909155040E9419246EE873E020
:1055200080915404909155040E94C7206EEA71E066
:1055300080915404909155040E941924B8018091DF
:105540005404909155040E94C7200E94B52064EF36
:1055500071E080E090E00E9467166AE070E080E011
:1055600090E00E94671682E00E941B248093290429
:105570008BCF0E94CD16609318047093190480930A
:105580001A0490931B0440922004509221046092CC
:105590002204709223041092240410922504109285
:1055A00026041092270460931C0470931D048093BA
:1055B0001E0490931F040E94CD16609318047093EC
:1055C000190480931A0490931B0480E00E943621F2
:1055D0008823A9F081E00E94D1206EEA71E08091D9
:1055E0005404909155040E94192460E070E0809169
:1055F0005404909155040E94C7200E94B52062E097
:1056000070E080E090E00E9467160E94CD166093E3
:1056100018047093190480931A0490931B046DEB83
:1056200071E085E793E00E94192460E08DE00E941C
:10563000BF150E94A2135ECC88E1E82E86ECF82EFE
:1056400004E110E0950146E050E06EE070E08BE38D
:1056500095E00E94901E9EE0C92ED12C66CBDF9271
:10566000EF92FF920F931F93CF93DF9310927803E3
:105670001092770388EE93E0A0E0B0E08093790386
:1056800090937A03A0937B03B0937C0327E331E0EC
:10569000309376032093750325EC30E0309382033A
:1056A0002093810324EC30E0309384032093830320
:1056B00020EC30E0309386032093850321EC30E02A
:1056C000309388032093870322EC30E030938A03E1
:1056D0002093890326EC30E030938C0320938B03D6
:1056E00010928E0310928F031092900310929103E8
:1056F000109218041092190410921A0410921B04AC
:1057000010921C0410921D0410921E0410921F048B
:10571000109220041092210410922204109223046B
:10572000109224041092250410922604109227044B
:105730002DEA33E130935B0420935A0410925F0406
:1057400010925E048093600490936104A0936204BD
:10575000B093630487E491E090935D0480935C04CC
:1057600081E18093690580E180936B0589E08093F6
:105770006A0588E080936C058CE291E090936E0559
:1057800080936D058AE090E09093680580936705AB
:1057900010923E0510923D0500EF10E01093400579
:1057A00000933F05C0E4D1E0D0934205C09341058A
:1057B0001093440500934305D0934605C0934505D7
:1057C00010925005109248051092470510924A0514
:1057D00010924905DD24D394D0924F05EE24EA942B
:1057E000FE2CF0924E05E0924D05F0924C05E092B1
:1057F0004B05D0925105109252051092540510920B
:10580000530587E691E090933C0580933B0582E148
:1058100080936605E2E1FEE0E491F0E0EE0FFF1F09
:10582000E950F24FA591B491B0935705A093560556
:10583000E1E1FEE0E491F0E0EE0FFF1FE950F24FEE
:10584000859194919093590580935805E0E1FEE08D
:10585000E491F0E0EE0FFF1FE950F24F8591949133
:1058600090935B0580935A05EFE0FEE0E491F0E051
:10587000EE0FFF1FE950F24F8591949190935D05D3
:1058800080935C05E4EFFDE0849180935E05E3EF97
:10589000FDE0349130935F05E2EFFDE02491209329
:1058A0006005E1EFFDE0949190936105482F4095EC
:1058B00040936205E32FE095E0936305E22FE095C6
:1058C000E0936405E92FE095E0936505EC91E82B02
:1058D000EC93E0915805F0915905908180915F0516
:1058E000892B8083E0915A05F0915B05908180912E
:1058F0006005892B8083E0915C05F0915D059081C6
:1059000080916105892B808361E081E10E94EF1520
:1059100061E080E10E94EF1561E08FE00E94EF15E9
:1059200061E08EE00E94EF1561E082E10E94BF1508
:1059300061E082E10E94EF158AB18C6F8AB984B16F
:10594000836084B910925005109248051092470563
:1059500010924A0510924905D0924F05F0924C05DD
:10596000E0924B051093440500934305D093460500
:10597000C0934505E2EDFDE08491E6EEFDE0D491B3
:10598000E4E0FEE0C491CC2391F081110E949615D1
:10599000EC2FF0E0EE0FFF1FEB53F24FA591B49107
:1059A000EC91ED2391E080E021F490E002C090E0E2
:1059B00080E09093390580933A0580914505909158
:1059C000460597FD019695958795909338058093A8
:1059D0003705809143059091440597FD0196959573
:1059E0008795909336058093350588E790E09093EE
:1059F00034058093330560ED71E08DEC94E00E94F6
:105A00005F2368ED71E083ED94E00E945F236FED0A
:105A100071E089ED94E00E945F2369EE71E08FED03
:105A200094E00E945F2366ED71E085EE94E00E94B1
:105A30005F2361EF71E08BEE94E00E945F2363EFE0
:105A400071E081EF94E00E945F2365EF71E087EFE2
:105A500094E00E945F2367EF71E08DEF94E00E9475
:105A60005F2369EF71E083E095E00E945F236BEFB5
:105A700071E089E095E00E945F236DEF71E08FE0B7
:105A800095E00E945F236EEF71E085E195E00E9452
:105A90005F2360E072E08BE195E00E945F2361E0AC
:105AA00072E081E295E00E945F2363E072E087E2AA
:105AB00095E00E945F2369E272E08DE295E00E942A
:105AC0005F23E6E9F4E01282118213821082DF0183
:105AD00011971C9211971C92369684E0EE3AF807C3
