:100000000C940D070C9452150C942B150C9427107E
:100010000C9427100C9427100C9435070C9435077A
:100020000C9435070C9435070C9435070C94350760
:100030000C9435070C9435070C9435070C94350750
:100040000C94E1140C9435070C9498130C947213CF
:100050000C9435070C9435070C9435070C94350730
:100060000C9431100C94350700000000003E5B4FEB
:100070005B3E3E6B4F6B3E1C3E7C3E1C183C7E3C08
:10008000181C577D571C1C5E7F5E1C00183C180016
:10009000FFE7C3E7FF0018241800FFE7DBE7FF30A6
:1000A000483A060E2629792926407F050507407F14
:1000B00005253F5A3CE73C5A7F3E1C1C08081C1C87
:1000C0003E7F14227F22145F5F005F5F06097F017D
:1000D0007F006689956A606060606094A2FFA29468
:1000E00008047E040810207E201008082A1C080836
:1000F0001C2A08081E101010100C1E0C1E0C303884
:100100003E3830060E3E0E06000000000000005F84
:1001100000000007000700147F147F14242A7F2AA0
:100120001223130864623649562050000807030062
:10013000001C2241000041221C002A1C7F1C2A08AE
:10014000083E080800807030000808080808000011
:1001500060600020100804023E5149453E00427F85
:10016000400072494949462141494D331814127FD4
:100170001027454545393C4A494931412111090774
:100180003649494936464949291E000014000000F5
:1001900040340000000814224114141414140041C7
:1001A00022140802015909063E415D594E7C121184
:1001B000127C7F494949363E414141227F414141BC
:1001C0003E7F494949417F090909013E4141517337
:1001D0007F0808087F00417F41002040413F017FA8
:1001E000081422417F404040407F021C027F7F0470
:1001F00008107F3E4141413E7F090909063E4151B9
:10020000215E7F09192946264949493203017F01A8
:10021000033F4040403F1F2040201F3F4038403FA9
:10022000631408146303047804036159494D4300BF
:100230007F4141410204081020004141417F0402F6
:10024000010204404040404000030708002054548D
:1002500078407F284444383844444428384444286B
:100260007F385454541800087E090218A4A49C78BE
:100270007F0804047800447D40002040403D007F1A
:100280001028440000417F40007C047804787C08FA
:100290000404783844444438FC18242418182424CE
:1002A00018FC7C08040408485454542404043F44B3
:1002B000243C4040207C1C2040201C3C4030403CE2
:1002C00044281028444C9090907C4464544C440042
:1002D00008364100000077000000413608000201A6
:1002E0000204023C2623263C1EA1A161123A404092
:1002F000207A38545455592155557941225454780F
:1003000042215554784020545579400C1E527212A7
:100310003955555559395454545939555454580030
:1003200000457C410002457D420001457C407D1234
:1003300011127DF0282528F07C5455450020545496
:100340007C547C0A097F4932494949323A44444441
:100350003A324A4848303A4141217A3A424020787C
:10036000009DA0A07D3D4242423D3D4040403D3C7D
:1003700024FF2424487E4943662B2FFC2F2BFF09A2
:1003800029F620C0887E0903205454794100004496
:100390007D413048484A32384040227A007A0A0A81
:1003A000727D0D19317D2629292F282629292926F4
:1003B00030484D4020380808080808080808382F39
:1003C00010C8ACBA2F102834FA00007B00000814C3
:1003D0002A142222142A14085500550055AA55AA99
:1003E00055AAFF55FF55FF000000FF00101010FF39
:1003F00000141414FF001010FF00FF1010F010F094
:10040000141414FC001414F700FF0000FF00FF1484
:1004100014F404FC141417101F10101F101F1414D0
:10042000141F00101010F0000000001F101010101A
:100430001F10101010F010000000FF10101010100E
:1004400010101010FF10000000FF140000FF00FF4C
:1004500000001F10170000FC04F4141417101714E8
:1004600014F404F40000FF00F7141414141414140A
:10047000F700F7141414171410101F101F1414147D
:10048000F4141010F010F000001F101F0000001FE7
:1004900014000000FC140000F010F01010FF10FF1A
:1004A000141414FF141010101F00000000F010FFAF
:1004B000FFFFFFFFF0F0F0F0F0FFFFFF0000000093
:1004C00000FFFF0F0F0F0F0F3844443844FC4A4A17
:1004D0004A347E02020606027E027E0263554941CC
:1004E000633844443C04407E201E2006027E020203
:1004F00099A5E7A5991C2A492A1C4C7201724C3017
:100500004A4D4D303048784830BC625A463D3E49ED
:100510004949007E0101017E2A2A2A2A2A44445F91
:10052000444440514A444040444A51400000FF0185
:1005300003E080FF000008086B6B08361236243693
:10054000060F090F060000181800000010100030F8
:1005500040FF0101001F01011E00191D1712003C80
:100560003C3C3C00000000000000000005000100D1
:1005700000030D0602F4050007050901F40A000A4C
:100580000C0A00F51900090F0A01F32A00100D10DA
:1005900000F444000C0D0D01F4580003050501F4AE
:1005A0005A0006110601F4670006110600F47400F3
:1005B00005060701F4780007080B02F97F00030520
:1005C0000401FF810005020600FB83000302040111
:1005D000FF8400050D0500F48D00090D0A01F49C4F
:1005E00000050D0A02F4A500090D0A01F4B4000883
:1005F0000D0A01F4C100080D0A02F4CE00090D0A2B
:1006000001F4DD00090D0A01F4EC00090D0A00F403
:10061000FB000A0D0A00F40C01090D0A01F41B018C
:1006200003090401F81F01030C0401F8240109095E
:100630000B01F82F0109060B01FA360109090B011C
:10064000F84101090D0B01F45001100F1200F46E76
:10065000010C0D0D00F482010B0D0D01F494010C41
:100660000D0D01F4A8010C0D0D01F4BC01090D0CD8
:1006700001F4CB01090D0B01F4DA010B0D0E01F4AD
:10068000EC010B0D0D01F4FE01030D0601F4030254
:10069000080D0A01F410020C0D0D01F42402080DDE
:1006A0000B01F431020E0D1001F448020B0D0E0186
:1006B000F45A020D0D0E01F470020B0D0C01F482C0
:1006C000020D0E0E01F499020C0D0D01F4AD020B9A
:1006D0000D0C01F4BF02090D0C02F4CE020B0D0D3E
:1006E00001F4E0020C0D0C00F4F402110D1100F401
:1006F00010030C0D0C00F424030B0D0C01F4360355
:10070000090D0B01F4450304110601F44E03050D18
:100710000500F4570304110600F4600308080B01F8
:10072000F468030A010A00046A0303020500F46B7B
:10073000030A0A0A01F778030A0D0B01F489030979
:100740000A0A01F79503090D0B01F4A403090A0A2B
:1007500001F7B003050D0601F4B903090E0B01F70B
:10076000C903090D0B01F4D803030D0501F4DD03E2
:1007700004110500F4E603090D0A01F4F503030D65
:100780000501F4FA030E0A1001F70C04090A0B0123
:10079000F718040A0A0B01F725040A0E0B01F737B4
:1007A00004090E0B01F74704060A0701F74F040975
:1007B0000A0A01F75B04050C0601F56304090A0B3C
:1007C00001F76F040A0A0A00F77C040E0A0E00F70C
:1007D0008E040A0A0A00F79B040A0E0A00F7AD0409
:1007E000080A0901F7B70404110701F4C004011154
:1007F0000502F4C30404110702F4CC040802090042
:10080000FCFFFFFE487EEFDFBF7440198667FDFFE7
:10081000330CC333FEFF99866190101F1FDEFF3F2C
:1008200083C0FC1F09FCFEF7F1E04038107C30C6A5
:1008300020C640C6407C80399C013E0363026304AD
:10084000630C3E081C0E01F83B83B83F01E03E6795
:1008500076E3EE1CF3C7FE3F70FFF418631C738E43
:1008600038E38E1870C3060861830E3871C71C7197
:10087000C638E31840213E45283870E7FFE70E1CD4
:10088000FC9CFFC0FC08C4231084621188003E3F1A
:100890009DDC7E3F1F8FC7E3F1DDCFE3E008FFF370
:1008A0009CE739CE73803E3FB8FC70381C1C1C1C82
:1008B0001C1C0FF7F83C7FE7E7070C0E0707E7E77C
:1008C0007E3C0E1E1E2E2E4E4E8EFFFF0E0E0E7FF7
:1008D0003F90180DE7FB9E070381F1FFE7C03E3F05
:1008E0009CFC0EE7FBDFC7E3F1DDEFE3E0FFFFC0B9
:1008F000E0E0607030381C0C0E0703803F1FEE3FB5
:1009000087E3CFC7FBCFE1F87F3DFE3F003E3FBD11
:10091000DC7E3F1FDEFF3B81F9CFE3C0FC0007E038
:10092000FC0007E5E00083C7DF0C0780F81F0180AB
:10093000FFFFC0000FFFFC00703F03E0387DF1E0D7
:1009400080003E3FB8FC70381C1C1C1C0E0003814C
:10095000C003F00FFC1E0E380270E96319C219C6FD
:1009600011C633C63263FE73DC3C001FF807F00784
:1009700000F00F80F81D819C19C38C3FE7FE706664
:1009800007E070FF9FFB83F07E0FFF3FF706E0FC60
:100990001F83FFEFF81F83FE78E707E00E00E00EED
:1009A00000E0070778F3FE1F80FF8FFCE0EE0EE00B
:1009B0007E07E07E07E07E0EE0EFFCFF80FFFFF8A1
:1009C0001C0E07FBFDC0E070381FFFF8FFFFF81C8E
:1009D0000E07FBFDC0E070381C0E000F87F9E3B86E
:1009E0003E01C038FF1FE06E0DE39FD0F2E0FC1F18
:1009F00083F07E0FFFFFFF07E0FC1F83F07E0EFFFA
:100A0000FFFFFFFE0707070707070707E7E7E77E80
:100A10003CE0EE1CE38E70EE0FC0FE0F70E70E3868
:100A2000E1CE0EE0E0E0E0E0E0E0E0E0E0E0E0E0A9
:100A3000FFFFF87FE1FF87FE1FEC7FB37ECDFB3722
:100A4000ECDF9E7E79F9E7E79CE0FE1FC3FC7FCFD9
:100A5000D9FBBF37E7FC7F87F0FE0E0F81FF1E3CFE
:100A6000E0EE03F01F80FC07E03B839E3C7FC0F874
:100A700000FF9FFB87F07E0FC3FFF7FCE01C0380A5
:100A8000700E000F81FF1E3CE0EE03F01F80FC079C
:100A9000E1BB8F9E3C7FE0FB8008FF8FFCE0EE0E09
:100AA000E0EE0EFFCFFCE0EE0EE0EE0EE0F03F0FCA
:100AB000FBC7F07E01FC1FF03F00FC1DC7BFE1F843
:100AC000FFFFC70381C0E070381C0E070381C0E040
:100AD000FC1F83F07E0FC1F83F07E0FC1FC7BFE19A
:100AE000F060670E70E30C30C39C1981981F80F092
:100AF0000F00F0060061C3B8E19C70CE3CE3367194
:100B00009B30ED98367C1B3C0F1E078F01C380E1A4
:100B10008070E78E39C1F81F80F00700F01F819CBC
:100B200039C70E70E0E0FC39C718C3B83607C0708B
:100B30000E01C0380700E0FFFFC0E0E0F070707009
:100B40007838381FFFF8FFEEEEEEEEEEEEEFF086AF
:100B50001086108430843080FF7777777777777FBF
:100B6000F0181C3C3E366663C3FFC0CC3F1FEE3816
:100B70000E3F9EEE3B9EFF9EE0E0380E03BCFFBCA6
:100B8000EE1F87E1F87F3BFEEF001F3FDC7C0E0786
:100B90000380E37F8F000381C0E777FBBF8FC7E34C
:100BA000F1FDEFF3B83E3F9CDC3FFFFF81C37F8F39
:100BB000003BDDFFB9CE739CE7003BBFDDFC7E3F11
:100BC0001F8FEF7F9DC0FC77F1F0E070381DEFFFC5
:100BD0009F8FC7E3F1F8FC7E38FC7FFFFFFE7707AD
:100BE00077777777777FE0E070381C7E7773F1F85E
:100BF000FE7739DC6E38FFFFFFFFFEEF7BFFFE392B
:100C0000F8E7E39F8E7E39F8E7E39F8E70EF7FF879
:100C1000FC7E3F1F8FC7E3F1C01E1FE73B87E1F853
:100C20007E1DCE7F8780EF3FEF3B87E1F87E1FCEB2
:100C3000FFBBCE0380E038003BBFFDFC7E3F1F8F33
:100C4000EF7F9DC0E070381CEFFF38E38E38E38003
:100C50003E3FB8FC0FC3FC3FC7FF1F0073BFF7390F
:100C6000CE739E70E3F1F8FC7E3F1F8FC7FFBDC0BF
:100C7000E1986739CC330DC3E0781E0700E31D9E71
:100C8000667999E677B8D2C3CF0F3C3CF073807396
:100C90009CE3F0781E0781E0FC739CE0E1D86739A3
:100CA000CE330EC3E0781E0300C070380E00FEFE87
:100CB0000E1C383870E0FFFF3766666EE6666667C2
:100CC00030FFFF80CE6666677666666EC0718E0006
:100CD000000100FF003200010000010200000703D4
:100CE0000030100400000008000202090000000AA1
:100CF0000000000C0000000D0000000F00000010BC
:100D0000000000110007001200000013000000FFA7
:100D100000C8001000901611002702FF00320012D8
:100D2000001A00FF0032001300001829002A00FFFB
:100D300000320030000000310000003200000035B9
:100D400000060236000808370007003800010239A3
:100D50000000003C0000003D0000002000000021D9
:100D6000000000500000005100EF0052000000534E
:100D7000003F01600000A7610003006A00000090CE
:100D800000100092000000930003009500001197EE
:100D90000000009800000007003301444343204353
:100DA0006F6E74726F6C6C6564205475726E7461D2
:100DB000626C650001086805207E160000000025B1
:100DC0000028002B0000000000240027002A00005B
:100DD0000000002300260029000404040404040485
:100DE00004020202020202030303030303010204DA
:100DF000081020408001020408102001020408109D
:100E000020000000080002010000030407000000A9
:100E10000000000000001B27492111241FBECFEF56
:100E2000D8E0DEBFCDBF26E0AAE1B2E001C01D924E
:100E3000A236B207E1F712E0A0E0B1E0E4EBFDE595
:100E400002C005900D92AA31B107D9F717E0CCE0A6
:100E5000D7E004C02197FE010E94B22CCB30D1070D
:100E6000C9F70E9459210C94CD2E0C9400002F92AA
:100E70003F924F925F926F927F928F929F92AF922A
:100E8000BF92CF92DF92EF92FF920F931F93CF9377
:100E9000DF93CDB7DEB76C970FB6F894DEBF0FBE09
:100EA000CDBF9C8F8B8F1B012A0118870F83FE8279
:100EB000ED82CA82DC0158964D915C91599741159B
:100EC000510509F0B2C018968D919C911997681739
:100ED00079070CF096C11A968D919C911B97481634
:100EE00059060CF08EC1AC2CB12CCB01B6E0CB9ED8
:100EF000800D911D1124181619060CF082C1C50130
:100F000033E0880F991F3A95E1F7840D951D181667
:100F100019060CF076C1AB8DBC8D57968C91811162
:100F200003C0203B08F02F5FAB8DBC8DED91FC9191
:100F300011970680F781E02DCD012A8F09952A8D22
:100F4000B5E02B9F90011124610141011B82F90141
:100F5000E219F309FA87E9879201285F3F4F3C873E
:100F60002B873B81353049F0E985FA85E80DF91D7D
:100F7000E859FF4F4491498301C01982320112019F
:100F8000598150FF13C0AB8DBC8DED91FC91BA819E
:100F9000B13031F40084F185E02D2F81388519C0FE
:100FA0000284F385E02DEF80F8841EC0ED81FE8180
:100FB0002F813885E217F307F1F0AB8DBC8DED91F1
:100FC000FC91BA81B13059F40084F185E02D2D8176
:100FD0003E81A301B4018B8D9C8D09950CC00284C8
:100FE000F385E02DED80FE8085019501A101B6011C
:100FF0008B8D9C8D0995E981E695E983FFEF6F1A4A
:101000007F0A2A0C3B1C2B853C856216730609F06F
:10101000B7CF3B813F5F3B834FEF841A940ACA0CE2
:10102000DB1C363009F09DCFCAC0FA01349694918A
:10103000329765917491291BCB01B7E02B9F800DEE
:10104000911D1124FA01259134913A8B298BFC01D1
:1010500065907490FC01329634913D8331964491B1
:101060004B873296C490319614915A81523058F081
:101070008C2C0C2C000C9908812F012E000C990B44
:101080009C838B8304C01C821B82812C912CAB8D92
:10109000BC8DED91FC9111970680F781E02DCD017B
:1010A0000995BA81AB2EB12C8A9CC0018B9C900D06
:1010B0009A9C900D1124FC01E20DF31DF88BEF8733
:1010C0001982912C812CEC2DCC0CFF0B91012E0F51
:1010D0003F1F3A87298761013D81C30ED11CA601BC
:1010E0004E0F5F1F5F8B4E8BC201810F911D17FD4D
:1010F0009A95998F888F5B85851608F060C0882D3A
:1011000090E04B815C81480F591F4A9D90014B9D97
:10111000300D5A9D300D1124D901A40DB51DBE8787
:10112000AD87C984DA842F843888B981E985BE1BEC
:10113000BB8B288D398D280F391F3D8B2C8B8B89CC
:101140008C0D2E893F89C216D30699F1877041F420
:10115000C3010196E989FA89E60DF71D94903C01D7
:1011600097FE20C0AB8DBC8DED91FC91BA81B13062
:1011700061F40084F185E02D2F8138854C895D89EB
:10118000B6018B8D9C8D09950DC00284F385E02DF1
:10119000EF80F884850195014D855E85B1018B8DC9
:1011A0009C8D0995990CEFEFCE1ADE0A2A0C3B1C98
:1011B000C6CF39814D81340F398383949CCFAB8D59
:1011C000BC8DED91FC9111970288F389E02DCD0142
:1011D0006C960FB6F894DEBF0FBECDBFDF91CF91F6
:1011E0001F910F91FF90EF90DF90CF90BF90AF9045
:1011F0009F908F907F906F905F904F903F902F9037
:1012000009946C960FB6F894DEBF0FBECDBFDF9188
:10121000CF911F910F91FF90EF90DF90CF90BF90F3
:10122000AF909F908F907F906F905F904F903F9086
:101230002F900895AF92BF92CF92EF92FF920F93AB
:101240001F93CF93DF93EC01262F888D998D009704
:1012500009F042C06A3069F42C898E859F8538E098
:10126000239F800D911D11249F878E871D861C86CC
:10127000ACC06D3009F4A9C08E898823C1F03C89C7
:101280008C859D8546E0349F800D911D11244885F5
:101290005985841795075CF01D861C868E859F8571
:1012A000E8E03E9F800D911D11249F878E87EA887C
:1012B000FB88088919894E855F856C857D85CC887A
:1012C000CE010E9437072C898C859D85F6E02F9FE3
:1012D000800D911D112441C06A3079F41D861C8651
:1012E0002C89FC013696E4918E859F852E9F800D7A
:1012F000911D11249F878E8768C06D3009F465C0E9
:10130000AC014C5F5F4FFA013491631708F45DC084
:101310003196E491E61708F458C0FA014491362F4B
:10132000341BFC013296A590B490F7E03F9FA00CCF
:10133000B11C1124F501329634913196E491332396
:1013400011F0E1110DC0F5013496E4912C898C85E2
:101350009D85E29F800D911D11249D878C8735C04E
:10136000F501359644915E89552311F16C89E32F7F
:10137000F0E0E40FF11D47FDFA956E9FD0016F9FDD
:10138000B00D11244C855D854A0F5B1FE885F985FA
:101390004E175F076CF01D861C86FC013696E491A3
:1013A0008E859F856E9F800D911D11249F878E874E
:1013B000EA88FB88088919894E855F856C857D855B
:1013C000CC88CE010E943707BECF81E090E0DF914C
:1013D000CF911F910F91FF90EF90CF90BF90AF9062
:1013E00008956F927F928F929F92AF92BF92CF9209
:1013F000DF92EF92FF920F931F93CF93DF93EC0155
:101400004B015A0169013801E881F9810680F781B1
:10141000E02D0995E881F9810684F785E02D8701A3
:101420009601A501B401CE010995E881F981A501D4
:10143000460D571D415051090684F785E02D960150
:10144000B401CE010995E881F9810484F585E02D88
:101450009301A501B401CE010995E881F981C80C79
:10146000D91CB601615071090484F585E02D930102
:10147000A501CE010995E881F9810288F389E02D63
:10148000CE01DF91CF911F910F91FF90EF90DF90F0
:10149000CF90BF90AF909F908F907F906F90099466
:1014A000CF92DF92EF92FF920F931F93CF93DF9330
:1014B00000D000D000D0CDB7DEB76C01DC01ED91DB
:1014C000FC916217730789F4041715072CF4942F05
:1014D000852FA801092F182F041B150B98012F5FCA
:1014E0003F4F008CF18DE02D12C04017510709F5D8
:1014F000261737072CF4962F872FB901292F382F5D
:10150000261B370B2F5F3F4F028CF38DE02D870199
:10151000C601099526960FB6F894DEBF0FBECDBF63
:10152000DF91CF911F910F91FF90EF90DF90CF90BF
:1015300008950680F781E02D2D833E834B835C83E5
:1015400069837A830995D601ED91FC910088F18930
:10155000E02D2D813E814B815C8169817A81C601BC
:101560000995D601ED91FC910288F389E02DC60121
:1015700026960FB6F894DEBF0FBECDBFDF91CF9198
:101580001F910F91FF90EF90DF90CF900994EF9211
:10159000FF920F931F93DC01ED91FC9111971A9626
:1015A0000D911C911B9718962D913C911997048CC5
:1015B000F58DE02D7B0140E050E060E070E00995A2
:1015C0001F910F91FF90EF9008954F925F926F924D
:1015D0007F928F929F92AF92BF92CF92DF92EF92C3
:1015E000FF920F931F93CF93DF9300D0CDB7DEB759
:1015F0006C015A0139014801DC01ED91FC91068032
:10160000F781E02D69837A8309956981462E7A8175
:10161000572E640C751CD601ED91FC9146145704AD
:101620006CF40484F585E02D87019401A501B201D5
:10163000C6010995BFEF4B1A5B0AEDCF0288F3890B
:10164000E02DC6010F900F90DF91CF911F910F9168
:10165000FF90EF90DF90CF90BF90AF909F908F90D2
:101660007F906F905F904F900994AF92BF92CF920E
:10167000DF92EF92FF920F931F93CF93DF9300D0EF
:1016800000D0CDB7DEB75C016901DC01ED91FC91C2
:101690000680F781E02D4B835C8369837A8309950B
:1016A000D501ED91FC9169817A819B012C0D3D1D45
:1016B000215031090088F189E02D78014B815C814E
:1016C0008A01C5010995D501ED91FC910288F38944
:1016D000E02DC5010F900F900F900F90DF91CF91EB
:1016E0001F910F91FF90EF90DF90CF90BF90AF9040
:1016F0000994AF92BF92CF92DF92EF92FF920F9335
:101700001F93CF93DF9300D000D0CDB7DEB75C013D
:101710006901DC01ED91FC910680F781E02D4B839E
:101720005C8369837A830995D501ED91FC914B81A6
:101730005C81C40ED51EB1E0CB1AD1080088F189B6
:10174000E02D7801860169817A819B01C5010995A7
:10175000D501ED91FC910288F389E02DC5010F9030
:101760000F900F900F90DF91CF911F910F91FF90ED
:10177000EF90DF90CF90BF90AF9009940895EF92D3
:10178000FF920F931F93DC01ED91FC91048CF58D7A
:10179000E02D09951F910F91FF90EF9008950F9301
:1017A0001F93DC01ED91FC91028CF38DE02D0995E6
:1017B0001F910F9108950F931F93DC01ED91FC9100
:1017C000008CF18DE02D09951F910F910895DC019A
:1017D000ED91FC910480F581E02D099408952F92FC
:1017E0003F924F925F926F927F928F929F92AF92B1
:1017F000BF92CF92DF92EF92FF920F931F93CF93FE
:10180000DF9300D01F92CDB7DEB74C017B836A8394
:101810006A01590117019801241B350B37FF03C0DA
:10182000319521953109C5014A815B81841B950B56
:1018300097FF03C091958195910951E059838217D3
:10184000930714F019820BC09A2D8B2D5801092F84
:10185000182F9A818B81DB82CA82C92ED82E8A8169
:101860009B81A816B9065CF49C2D8D2D6801092F6B
:10187000182F9A818B81BB82AA82A92EB82E2501AE
:10188000AA81BB814A1A5B0A38016C187D0877FE71
:1018900003C0719461947108720157FE03C0BFEFD9
:1018A000EB1AFB0AF594E794C016D1061CF00FEF73
:1018B0001FEF1FC001E010E01CC0D401ED91FC91AE
:1018C000B9810084F185E02D9101BB23C1F04A81EB
:1018D0005B81B601C4010995E618F708F7FE04C05C
:1018E000C00ED11EE40CF51CEA81FB813196FB830E
:1018F000EA834A815B81A416B506FCF604C0A60102
:101900006A817B81E7CF0F900F900F90DF91CF918D
:101910001F910F91FF90EF90DF90CF90BF90AF900D
:101920009F908F907F906F905F904F903F902F90FF
:101930000895CF93DF93EC0120E030E0A9016F859B
:10194000788989899A890E941B2C18161CF4EBA1AE
:10195000FCA102C0EDA1FEA1DF91CF910994DC01B1
:1019600012962C91213069F028F0223089F0243031
:10197000B1F00895DC01ED91FC910280F381E02D3E
:101980000994DC01ED91FC910480F581E02D0DC0FE
:10199000DC01ED91FC910680F781E02D06C0DC01B1
:1019A000ED91FC910084F185E02D099485ED809303
:1019B000BC008091BC0084FDFCCF10922B030895E5
:1019C00040914402262F30E0240F311D2132310591
:1019D000DCF420912B032430C9F4FC0180E090E07A
:1019E000861758F4309144022191DC01AE5DBD4F61
:1019F000A30FB11D2C930196F3CF80914402680F81
:101A00006093440280E0089581E0089582E00895A3
:101A100008958FEF9FEF08958FEF9FEF08958091C6
:101A2000210290E09195819591090895CF92DF92DE
:101A3000EF92FF920F931F93CF93DF937C01262F9A
:101A4000972F8A0180912C03882391F0C62FD72FDE
:101A50006E01C40ED51ECC15DD0571F06991D7015C
:101A6000ED91FC910190F081E02DC7010995F3CF34
:101A7000642F822F0E94E00CC801DF91CF911F914B
:101A80000F91FF90EF90DF90CF900895CF93DF9369
:101A90001F92CDB7DEB7698320912C032223D1F0AA
:101AA00020914E03203240F021E030E0FC013383EE
:101AB000228380E090E015C080912D03E82FF0E0B4
:101AC000E25DFC4F998190838F5F80932D0380931B
:101AD0004E0305C061E0CE0101960E94E00C81E05A
:101AE00090E00F90DF91CF910895CF93DF93EC01B9
:101AF000613089F050F06230E1F0633061F561E00F
:101B00008B810E94F31360E019C061E08B810E9419
:101B1000F31360E005C060E08B810E94F31361E085
:101B20008C810E94F31361E08D810E94F31360E0C9
:101B30000DC060E08B810E94F31361E08C810E94F4
:101B4000F31360E08D810E94F31361E08E81DF91D9
:101B5000CF910C94F313DF91CF910895CF93DF933E
:101B6000EC01613049F030F0623061F06330A1F493
:101B700060E009C060E001C061E08B810E94F31366
:101B800061E005C061E08B810E94F31360E08C810D
:101B9000DF91CF910C94F313DF91CF9108951F93B0
:101BA000CF93DF93EC0111E020E030E0A9016F85D5
:101BB000788989899A890E941B2C18160CF010E0EC
:101BC000612F8C810E94F31361E08B810E94F313DB
:101BD00060E08B81DF91CF911F910C94F3138F9272
:101BE0009F92AF92BF92CF92DF92EF92FF920F93AC
:101BF0001F93CF93DF93EC018B859C85AD85BE85CC
:101C00000F81188529853A85BC01CD01601B710BB8
:101C1000820B930B09F4D0C08AF00E9481299B01AA
:101C2000AC010E94072B2F89388D498D5A8D0E9457
:101C3000E0290E94262C6B017C011BC090958095A9
:101C4000709561957F4F8F4F9F4F0E9481299B0117
:101C5000AC010E94072B2F89388D498D5A8D0E9427
:101C6000E0290E94262C6B017C01F7FAF094F7F82A
:101C7000F0948F849888A988BA88A5019401C70137
:101C8000B6010E941B2C18160CF043C020E030E077
:101C9000A901C501B4010E947A2981110BC06F8985
:101CA000788D898D9A8D9B01AC010E94072B0E9433
:101CB000262C1BC0A50194016F89788D898D9A8D82
:101CC0000E94732B6B017C0120E030E0A9010E948F
:101CD0001B2C181624F0F7FAF094F7F8F094A701EB
:101CE0009601C501B4010E94072B7B018C01BB88C2
:101CF000CC88DD88CE892B2D3C2D4D2D5C2F0E946C
:101D00001B2C18160CF05DC03B2D7C2D8D2D9C2FAF
:101D10005FC0A5019401C701B6010E947A2987FF1F
:101D200054C020E030E0A901C501B4010E947A2925
:101D3000811111C06F89788D898D9A8D9B01AC01BD
:101D40000E94072B0E94262C6B017C01F7FAF0946D
:101D5000F7F8F0941DC0A50194016F89788D898DE5
:101D60009A8D0E94732B6B017C0120E030E0A90169
:101D70000E941B2C181624F0F7FAF094F7F8F09450
:101D8000A7019601C501B4010E94062B6B017C01DD
:101D90008B889C88AD88BE88B7FAB094B7F8B094A9
:101DA000A5019401C701B6010E947A2987FF0DC0E1
:101DB000382D792DC5010CC030E070E080E090E056
:101DC00007C03E2D7F2DC80103C03C2D7D2DC701CE
:101DD000C32ED72E7C01C701B601DF91CF911F9191
:101DE0000F91FF90EF90DF90CF90BF90AF909F90BA
:101DF0008F90089561E080918D0490918E040C94F1
:101E00001A1E62E080918D0490918E040C941A1E2B
:101E10002F923F924F925F926F927F928F929F92FA
:101E2000AF92BF92CF92DF92EF92FF920F931F93E8
:101E3000CF93DF93880F991F880F991F0397242F43
:101E4000267030E0359527954C01820E931E417027
:101E5000342E02E712E0C0E0D0E0222423946AE0AE
:101E6000A62EB12CF801819191918F0188169906C7
:101E700009F0D5C030922002D0931F02C0931E02F9
:101E800020921D024091710450917204609173047C
:101E90007091740480916D0490916E04A0916F0410
:101EA000B0917004481759076A077B0709F493C07B
:101EB0000E94D5146B017C014091810450918204F1
:101EC00060918304709184048091850490918604CC
:101ED000A0918704B0918804840F951FA61FB71F97
:101EE0008C159D05AE05BF0508F075C040907504C2
:101EF00050907604609077047090780420E030E091
:101F0000A901C301B2010E941B2C181664F4809130
:101F10006D0490916E04A0916F04B09170040196CD
:101F2000A11DB11D14C020E030E0A901C301B20120
:101F30000E947A2987FF13C080916D0490916E04EE
:101F4000A0916F04B09170040197A109B109809329
:101F50006D0490936E04A0936F04B093700460912D
:101F60006D04637086E694E00E94AF0CC092850415
:101F7000D0928604E0928704F092880486E694E08A
:101F80000E94EF0D9B01AC01609375047093760481
:101F9000809377049093780460E070E08AE794E49B
:101FA0000E94732B6B017C0120E030E0A9010E94AC
:101FB0001B2C18161CF4C701B60103C0C701B601DB
:101FC00090580E94EC2B609381047093820480935C
:101FD00083049093840480911D02882399F02092B9
:101FE0001A0280911B0290911C0297FF09C00A9768
:101FF00090931C0280931B02B0920101A0920001F9
:1020000010921D0280911B0290911C0297FF03C049
:102010001092020104C0892B11F020920201219636
:10202000C730D10509F01ECFDF91CF911F910F91DD
:10203000FF90EF90DF90CF90BF90AF909F908F90E8
:102040007F906F905F904F903F902F9008951F92D8
:102050000F920FB60F9211240F900FBE0F901F908A
:1020600018951F920F920FB60F9211242F933F9342
:102070004F935F936F937F938F939F93AF93BF9390
:10208000EF93FF938091B900887F803609F49CC05C
:1020900068F5883209F45BC090F4803109F454C0CB
:1020A00038F4882309F4F6C0883009F44DC0F6C02E
:1020B000883109F44CC0803209F45DC0EFC080342F
:1020C00009F468C048F4803309F455C0883309F036
:1020D000E5C080932903D8C0803509F44FC0883506
:1020E00009F45DC0883409F0D9C0D6C0883909F434
:1020F000C7C0A8F4883709F467C038F4883609F4F3
:1021000063C0803709F460C0C9C0883809F4B8C01A
:10211000803909F45FC0803809F0C0C05BC0803BE3
:1021200009F486C038F4803A09F466C0883A09F4A4
:102130007FC0B4C0803C09F4A7C0883C09F4A4C0A7
:10214000883B09F48AC0AAC08091060310C0909110
:10215000280380912703981770F5E091280381E008
:102160008E0F80932803F0E0E95FFC4F808180931D
:10217000BB0085EC86C0809329038EC0E0912803C4
:1021800081E08E0F809328038091BB00F0E0E95F2F
:10219000FC4F808390912803809127036EC0E091CB
:1021A000280381E08E0F809328038091BB00F0E02C
:1021B000E95FFC4F808380912A0381116DC081E02B
:1021C0008093050384EA61C083E080932B0310921F
:1021D0006802CFCF80916802803208F051C0E09150
:1021E000680281E08E0F809368028091BB00F0E06E
:1021F000E85BFD4F8083BDCF85EC8093BC001092DF
:102200002B0380916802803230F4E0916802F0E0A4
:10221000E85BFD4F10826091680270E0E091460239
:10222000F091470288E492E009951092680236C066
:1022300084E080932B031092450210924402E091B7
:102240004202F0914302099580914402811105C038
:1022500081E08093440210922202E091450281E0E5
:102260008E0F80934502F0E0EE5DFD4F80818093FC
:10227000BB009091450280914402981708F479CFF1
:1022800085E88093BC000AC085EC8093BC00109266
:102290002B0304C0109229030E94D60CFF91EF91EA
:1022A000BF91AF919F918F917F916F915F914F916E
:1022B0003F912F910F900FBE0F901F9018956F9226
:1022C0007F928F929F92AF92BF92CF92DF92EF92C6
:1022D000FF920F931F93CF93DF939B01845B910930
:1022E00066EC72E00E947B2C809141059091420542
:1022F000689FF001699FF00D789FF00D1124C901CE
:102300008A5A910964EE72E00E947B2C8091430509
:1023100090914405689FA001699F500D789F500DD2
:10232000112480916D0290916E0297FF06C081E0AA
:1023300090E09C012E1B3F0BF90180916B02909164
:102340006C0297FF06C081E090E0DC01A41BB50B96
:10235000AD0100ED12E08EEAE82E82E0F82E9CE856
:10236000C92E92E0D92E20E030E08FEF9FEFD80108
:102370006D907D908D01D7016D917D917D01D6018C
:10238000AD90BD906D01B1E0AB16B10451F0A2E08B
:10239000AA16B10459F4CEE1D0E0AEE18A2E912C18
:1023A00005C0C0E0D0E0B4E18B2E912C6E167F0604
:1023B0007CF4D301AC0FBD1FEA17FB074CF4641784
:1023C000750734F4680D791D461757070CF4C901D9
:1023D0002F5F3F4F2131310551F6DF91CF911F9192
:1023E0000F91FF90EF90DF90CF90BF90AF909F90B4
:1023F0008F907F906F900895FC01918D828D98173A
:1024000061F0828DDF01A80FB11D5D968C91928DD8
:102410009F5F9F73928F90E008958FEF9FEF0895D5
:10242000FC01918D828D981731F0828DE80FF11D9E
:10243000858D90E008958FEF9FEF0895FC01918DB9
:10244000228D892F90E0805C9F4F821B91098F73B2
:102450009927089583E793E00E941E1221E0892BBB
:1024600009F420E0822F0895FC01848DDF01A80F7C
:10247000B11DA35ABF4F2C91848D90E001968F73AC
:102480009927848FA689B7892C93A089B1898C91CB
:1024900080648C93938D848D981306C00288F38991
:1024A000E02D80818F7D80830895EF92FF920F93BE
:1024B0001F93CF93DF93EC0181E0888F9B8D8C8DF0
:1024C000981305C0E889F989808185FD24C0F62E1E
:1024D0000B8D10E00F5F1F4F0F731127E02E8C8DB7
:1024E000E8120CC00FB607FCFACFE889F9898081A1
:1024F00085FFF5CFCE010E943412F1CF8B8DFE0106
:10250000E80FF11DE35AFF4FF0820B8FEA89FB8938
:102510008081806207C0EE89FF896083E889F9893C
:1025200080818064808381E090E0DF91CF911F9172
:102530000F91FF90EF900895CF93DF93EC01888D7A
:102540008823C9F0EA89FB89808185FD05C0A889B7
:10255000B9898C9186FD0FC00FB607FCF5CF80813D
:1025600085FFF2CFA889B9898C9185FFEDCFCE0187
:102570000E943412E7CFDF91CF91089580E090E080
:10258000892B29F00E942A1281110C9400000895D1
:10259000089542988BB1962F907D8F72892B8BB9BD
:1025A00085B16F72807D682B65B94198419A429AD6
:1025B0008BB1942F907D8F72892B8BB985B14F721F
:1025C000807D482B45B94198419A08950E94AF2ECD
:1025D0008F929F92AF92BF92CF92DF92EF92FF9233
:1025E0000F931F93CF93DF93EC014701121613064D
:1025F0000CF06BC0101611060CF067C0A885B985E9
:102600006A177B070CF061C0CA84DB844C155D053A
:102610000CF05BC05B01A20EB31EC501019797FDD4
:1026200054C07A01E00EF11EF7013197F7FD4DC05D
:1026300077FF49C060E070E057FD02C0780102C03A
:1026400040E050E08A179B072CF0CD0101975D0117
:10265000A61AB70AEC15FD052CF0F60131977601A4
:10266000E41AF50A8F019C01CE010E94E91B970133
:10267000D5010E948F2C9B01AC01B401CE010E94B8
:10268000E01A8A8D811110C00A851B85015011093D
:10269000288539852150310940E050E060E070E044
:1026A000CE010E94E91B11C0CE01DF91CF911F9195
:1026B0000F91FF90EF90DF90CF90BF90AF909F90E1
:1026C0008F900C94D01B5901B7CFDF91CF911F9100
:1026D0000F91FF90EF90DF90CF90BF90AF909F90C1
:1026E0008F9008951F920F920FB60F9211242F937F
:1026F0003F934F935F936F937F938F939F93AF938A
:10270000BF93EF93FF9383E793E00E943412FF910E
:10271000EF91BF91AF919F918F917F916F915F9159
:102720004F913F912F910F900FBE0F901F901895D2
:102730001F920F920FB60F9211242F938F939F9396
:10274000EF93FF93E0918303F09184038081E09104
:102750008903F0918A0382FD12C0908180918C03DD
:102760008F5F8F7320918D03821751F0E0918C035E
:10277000F0E0ED58FC4F958F80938C0301C0808171
:10278000FF91EF919F918F912F910F900FBE0F901E
:102790001F901895833081F028F4813099F08230B1
:1027A000A1F008958730A9F08830B9F08430D1F4D1
:1027B000809180008F7D03C0809180008F7780930F
:1027C0008000089584B58F7702C084B58F7D84BD65
:1027D00008958091B0008F7703C08091B0008F7D05
:1027E0008093B00008951F93CF93DF93282F30E09C
:1027F000F901EF5FF14F8491F901E351F24FD49168
:10280000F901E752F24FC491CC23C9F0162F811180
:102810000E94CA13EC2FF0E0EE0FFF1FE554F24FB9
:10282000A591B4918FB7F894111105C09C91ED2F2B
:10283000E095E92302C0EC91ED2BEC938FBFDF9183
:10284000CF911F910895CF93DF9390E0FC01E35166
:10285000F24F2491FC01E752F24F8491882361F1F9
:1028600090E0880F991FFC01EB53F24FC591D49172
:10287000FC01E554F24FA591B491611109C09FB7D5
:10288000F8948881209582238883EC912E230BC0B5
:10289000623061F49FB7F8943881822F809583234A
:1028A0008883EC912E2B2C939FBF06C08FB7F89492
:1028B000E8812E2B28838FBFDF91CF9108958E3032
:1028C00008F08E508770806480937C0080917A003D
:1028D000806480937A0080917A0086FDFCCF80919D
:1028E00078002091790090E0922B08953FB7F894FA
:1028F0008091010390910203A0910303B09104031E
:1029000026B5A89B05C02F3F19F00196A11DB11D4A
:102910003FBFBA2FA92F982F8827820F911DA11D85
:10292000B11DBC01CD0142E0660F771F881F991FC2
:102930004A95D1F708958F929F92AF92BF92CF920E
:10294000DF92EF92FF926B017C010E9476144B01A3
:102950005C01C114D104E104F104F1F00E94761489
:10296000DC01CB0188199909AA09BB09883E93406B
:10297000A105B10570F321E0C21AD108E108F10800
:1029800088EE880E83E0981EA11CB11CC114D104EE
:10299000E104F10419F7DDCFFF90EF90DF90CF90C5
:1029A000BF90AF909F908F9008952FB7F89460914B
:1029B000FD027091FE028091FF02909100032FBFF3
:1029C00008951F920F920FB60F9211242F933F93E9
:1029D0008F939F93AF93BF938091FD029091FE02DE
:1029E000A091FF02B09100033091FC0223E0230F7D
:1029F0002D3720F40196A11DB11D05C026E8230F37
:102A00000296A11DB11D2093FC028093FD029093BC
:102A1000FE02A093FF02B093000380910103909106
:102A20000203A0910303B09104030196A11DB11DFF
:102A30008093010390930203A0930303B0930403D4
:102A4000BF91AF919F918F913F912F910F900FBEAA
:102A50000F901F9018951F920F920FB60F9211248E
:102A60002F933F934F935F936F937F938F939F9396
:102A7000AF93BF93EF93FF93E0910501F0910601AF
:102A80000995FF91EF91BF91AF919F918F917F91A8
:102A90006F915F914F913F912F910F900FBE0F90CB
:102AA0001F9018951F920F920FB60F9211242F931B
:102AB0003F934F935F936F937F938F939F93AF93C6
:102AC000BF93EF93FF93E0910301F0910401099507
:102AD000FF91EF91BF91AF919F918F917F916F91F6
:102AE0005F914F913F912F910F900FBE0F901F90CC
:102AF0001895CF92DF92EF92FF92439842988BB154
:102B0000962F907D8F72892B8BB985B16F72807DE6
:102B1000682B65B94198419A429A83E290E0FC01A2
:102B20003197F1F77BB1C52EDD24EE24FF246C2D07
:102B3000607D7F72762B7BB965B17C2D7F72607D65
:102B4000672B65B94198419AFC013197F1F77BB148
:102B50006A01EE24FF246C2D607D7F72762B7BB999
:102B600065B17C2D7F72607D672B65B94198419A74
:102B7000FC013197F1F77BB1C32ED42EE52EFF2453
:102B80006C2D607D7F72762B7BB965B17C2D7F7259
:102B9000607D672B65B94198419A0197F1F78BB138
:102BA000922F907D8F72892B8BB985B12F72807D8A
:102BB000282B25B94198419A439AFF90EF90DF90D6
:102BC000CF90089542988BB1962F907D8F72892B6C
:102BD0008BB985B16F72807D682B65B94198419A38
:102BE000429A8BB1932F907D8F72892B8BB985B1CF
:102BF0003F72807D382B35B94198419A42988BB10C
:102C0000942F907D8F72892B8BB985B14F72807D07
:102C1000482B45B94198419A429A8BB1922F907DA9
:102C20008F72892B8BB985B12F72807D282B25B9A6
:102C30004198419A089542988BB1972F907D8F7259
:102C4000892B8BB985B17F72807D782B75B94198BE
:102C5000419A8BB1962F907D8F72892B8BB985B15C
:102C60006F72807D682B65B94198419A429A8BB109
:102C7000952F907D8F72892B8BB985B15F72807D86
:102C8000582B55B94198419A8BB1942F907D8F72F2
:102C9000892B8BB985B14F72807D482B45B94198FE
:102CA000419A0895EF92FF920F931F93CF93DF9372
:102CB000EC010E94B01943988A8D811122C0ED89E0
:102CC000E150E33040F4F0E0EE0FFF1FE45EFE4F12
:102CD0004081518102C040E350E163E070E0CE01E9
:102CE0000E941B160A851B8501501109288539850C
:102CF0002150310940E050E060E070E0CE010E94D8
:102D0000E91B8A8D813089F4ED89E150E33028F4A4
:102D1000F0E0E75EFE4F408101C040E066E1CE0199
:102D20000E94C912CE010E94D01B8A8D823039F5D3
:102D30008D89813071F050F0823029F0833059F460
:102D400058E2E52E08C068E4E62E05C048E8E42E07
:102D500002C038EEE32E4E2D66E3CE010E94C9126A
:102D60000A851B85015011092885398521503109B3
:102D700040E050E060E070E0CE010E94E91B8A8DE7
:102D8000833031F58D89813069F048F0823029F047
:102D9000833051F420E6F22E07C0F12C05C090ECF0
:102DA000F92E02C080EAF82E4F2D66E3CE010E9474
:102DB000C9120A851B8501501109288539852150C2
:102DC000310940E050E060E070E0CE010E94E91B74
:102DD000DF91CF911F910F91FF90EF900895AF92E7
:102DE000BF92CF92DF92EF92FF920F931F93CF93F8
:102DF000DF93EC017B016A01B22EA32E77FDC4C0E4
:102E000057FDC2C088859985681779070CF0BCC04A
:102E10008A859B85481759070CF0B6C043988A8D60
:102E2000811135C08D89823059F08330B1F0813005
:102E3000D1F48FEE90E0841B950B6B017C0113C0E5
:102E40008FEE90E09C01261B370B79018FE391E018
:102E50009C01241B350B690106C08FE391E0861BA2
:102E6000970B7A016C01A70160E270E0CE010E942D
:102E70001B16A60161E270E0CE010E941B164B2DCD
:102E80005A2D62E270E0CE010E941B167CC0813098
:102E900009F041C0ED89E150E33028F4F0E0EA5E4A
:102EA000FE4F408101C040E066E1CE010E94C912A0
:102EB000970143E062E0CE010E94E215960147E0EF
:102EC00066E0CE010E94E21542988BB18F728BB9F9
:102ED00085B1807D826285B94198419A429A8BB1D1
:102EE0009A2D907D8F72892B8BB985B19A2D9F7207
:102EF000807DA92EA82AA5B84198419A8BB19B2D17
:102F0000907D8F72892B8BB985B19B2D9F72807DAF
:102F1000B92EB82A35C082508230A8F50A851B85A3
:102F2000015011092885398521503109CE010E94AF
:102F3000E91B439842988BB18F728BB985B1807D24
:102F40008C6285B94198419A429A8BB19A2D907DB5
:102F50008F72892B8BB995B18A2D8F72907DA82E97
:102F6000A92AA5B84198419A8BB19B2D907D8F726B
:102F7000892B8BB995B18B2D8F72907DB82EB92A84
:102F8000B5B84198419A439ADF91CF911F910F9123
:102F9000FF90EF90DF90CF90BF90AF900895EF92A9
:102FA000FF920F931F93CF93DF937C01EB01FC0102
:102FB000828D811124C025892150233078F430E09E
:102FC000F901ED5EFE4F8081482F50E0220F331F44
:102FD000F901E35FFE4F0081118104C000E010E0C1
:102FE00040E050E0439860E270E0C7010E941B1689
:102FF000A80161E270E0C7010E941B1613C0815056
:10300000833080F4F7010285138501501109208572
:1030100031852150310940E050E060E070E0C701A7
:103020000E94E91B20E03CE241E050E0BE01C70104
:10303000DF91CF911F910F91FF90EF900C94E01AC8
:10304000089510927203809187028336B8F54091FB
:103050006E0350916F036091700370917103409300
:103060006A0350936B0360936C0370936D03843019
:1030700081F058F4833011F5409366035093670351
:10308000609368037093690319C08650833050F0D1
:1030900015C040936203509363036093640370937D
:1030A00065030CC080916103882341F040935D0368
:1030B00050935E0360935F037093600310925C0310
:1030C00010925B0310925A03109259031092580306
:1030D000109257031092560380E880935503F8949A
:1030E00080915403882379F02091800230918102ED
:1030F00091E080E0409152035091530342175307EF
:1031000021F090E002C090E080E090935003809323
:103110005103109281021092800210925303109278
:1031200052037894109254038BE998E190935904D8
:10313000809358040895F8948091800290918102C0
:1031400020915203309153038217930711F478941E
:1031500008958091800290918102821B930B0297C7
:1031600048F0789481E298E1909359048093580450
:1031700087E625C0209182023091830280918402EB
:1031800090918502409180025091810250935303A7
:10319000409352037894B9016453710941E06D3052
:1031A000710580F040E02A553109273B364250F046
:1031B00081E298E1909359048093580488E68093C3
:1031C000870208959C01245331092D30310530F0D8
:1031D0008A559109873B964268F0EACF442361F013
:1031E00080915003909151030196909351038093E5
:1031F00050030895442391F0F894809184029091B3
:103200008502909383028093820281E080938602FC
:1032100078941092510310925003089580915003B6
:10322000909151030A97ACF38BE199E19093590483
:10323000809358040895F8948091800290918102BF
:1032400020915203309153038217930711F478941D
:1032500008958091800290918102821B930B0297C6
:1032600048F0789481E298E190935904809358044F
:1032700087E672C0409182025091830220918402BD
:103280003091850280918002909181029093530346
:10329000809352037894BA016453710991E06D30C0
:1032A000710570F090E04A555109473B564240F095
:1032B00081E298E1909359048093580488E64CC0C9
:1032C00081E0A901445351094D30510530F080E0AF
:1032D0002A553109273B364258F79813E9CF809198
:1032E0005503882381F0992341F0E0915603F0E0E3
:1032F000E95AFC4F9081982B908390E095958795A3
:103300008093550308958091560321E0280F209360
:10331000560330E8309355039923A9F091E0909338
:1033200054038250843038F485EC99E19093590429
:1033300080935804089581E298E190935904809312
:10334000580489E609C0263048F081E298E190935C
:103350005904809358048AE680938702089508955B
:10336000FC016370658B8481958126813781613092
:1033700039F0633029F09187808733872287089559
:10338000318720879387828708951F93CF93DF9398
:1033900090915803809157038927C0915603C430F8
:1033A00068F0909159038927C43041F090915A03F5
:1033B0008927C53019F090915B038927EC2FF0E045
:1033C000EA5AFC4F9081891741F081E298E190938D
:1033D00059048093580484E6B8C00E94D5146093C1
:1033E0006E0370936F038093700390937103109238
:1033F0006103C33009F07DC01091580380915703D9
:10340000111115C08F3F49F481E298E1909359045E
:1034100080935804C0938702A3C0811108C081E241
:1034200098E1909359048093580484E08EC0982FBB
:10343000907C9038D1F517FF38C0C12FD0E0C095EF
:10344000D095C077DD27CC0FDD1FCC0FDD1F8F732C
:10345000C80FD11D0E942E2021E0C817D90709F0FE
:1034600020E020936103211107C0CF33D10521F063
:1034700080916F02882389F08091720381110DC0C1
:10348000E0917002F0917102309739F0412F47704E
:1034900013FB662760F9CE01099581E298E19093CC
:1034A00059048093580487E050C087FF08C081E228
:1034B00098E1909359048093580485E646C0107CA7
:1034C000103441F081E298E19093590480935804BC
:1034D00086E63BC091E020915E05821390E09093D8
:1034E000610381E298E1909359048093580486E047
:1034F0002CC0C43069F590915703892F807C8038A7
:1035000039F580915803282F2578213009F5C82FE7
:10351000C670D0E0DC2FCC27807724E0829FC00DDE
:10352000D11D11249F73C90FD11D0E942E2021E0AF
:10353000C817D90709F020E02093610381E298E1E0
:10354000909359048093580488E08093870208C0C0
:1035500081E298E190935904809358041092870275
:10356000DF91CF911F9108950E947614A091860259
:103570004A2F50E02091880230918902FB01E21B22
:10358000F30B9F01FA01EE0FFF1FEE57FD4F318342
:103590002083609388027093890280938A029093BB
:1035A0008B022091800230918102240F351F3093CD
:1035B00081022093800281E08A2780938602089509
:1035C000CF92DF92EF92FF920F931F93439842980E
:1035D000FC01828D823069F0811109C08BB18F723C
:1035E0008BB985B1807D85B94198419A09C08330F6
:1035F00039F48BB18F728BB985B1807D8C6206C036
:103600008BB18F728BB985B1807D826285B941980B
:10361000419A429A8BB1E72FE07D8F728E2B8BB946
:1036200085B1F72FFF72807D8F2B85B94198419A24
:103630008BB1A62FA07D8F728A2B8BB985B1B62F47
:10364000BF72807D8B2B85B94198419A89019A017F
:1036500001501109210931096801790186E0F694C8
:10366000E794D794C7948A95D1F7C60176137AC0A8
:103670000197A0F060E14198419A4198419A4198A0
:10368000419A4198419A4198419A4198419A41986A
:10369000419A4198419A615071F7EACF202F2F73D8
:1036A000215028F04198419A4198419AF9CF439A84
:1036B0001F910F91FF90EF90DF90CF9008956BB125
:1036C0006F726E2B6BB965B1607D6F2B65B94198D8
:1036D000419A6BB16F726A2B6BB965B1607D6B2BD0
:1036E00065B94198419A6BB16F726E2B6BB965B138
:1036F000607D6F2B65B94198419A6BB16F726A2BEF
:103700006BB965B1607D6B2B65B94198419A6BB11E
:103710006F726E2B6BB965B1607D6F2B65B9419887
:10372000419A6BB16F726A2B6BB965B1607D6B2B7F
:1037300065B94198419A6BB16F726E2B6BB965B1E7
:10374000607D6F2B65B94198419A6BB16F726A2B9E
:103750006BB965B1607D6B2B65B94198419A715029
:1037600009F0ADCF019710F070E1A9CF202F2F7392
:10377000215008F49CCF8BB18F728E2B8BB985B101
:10378000807D8F2B85B94198419A8BB18F728A2B9E
:103790008BB985B1807D8B2B85B94198419AE8CF53
:1037A000CF93DF93EC014398288539852150310967
:1037B00045E064E00E94E2152A853B8521503109ED
:1037C00049E068E0CE010E94E215439ADF91CF9173
:1037D00008958F929F92AF92BF92CF92DF92EF9215
:1037E000FF920F931F93CF93DF93EC017A0169014E
:1037F00043982A8D21115EC02D89223089F0233013
:1038000021F1213081F52FEE30E0A901401B510B51
:103810005B0149018E189F08860164017B0113C07A
:103820002FEE30E0A9014C195D096901C61AD70ACB
:103830008FE391E09C01201B310B8C010E191F09B5
:10384000580146017901BA0110C02FE331E0A90106
:103850004C195D095901A61AB70A4701680185018B
:10386000B7017A0102C05A014B01AB0160E570E07B
:10387000CE010E941B16A60161E570E0CE010E94F8
:103880001B16A70162E570E0CE010E941B16A8017D
:1038900063E570E0CE010E941B16A40160E270E0B7
:1038A000CE010E941B16A50161E270E0CE010E94CC
:1038B0001B1647C02130C1F49B0143E062E00E9427
:1038C000E215970147E066E0CE010E94E2159601FD
:1038D00045E064E0CE010E94E215980149E068E00D
:1038E000CE010E94E2152DC02250223050F5CB01AE
:1038F000770FAA0BBB0BDC0199278827A601DD0CEB
:10390000660B770B9A01AB01282B392B4A2B5B2BCB
:103910006AE2CE010E947915C701FF0CAA0BBB0B0E
:10392000DC0199278827A801110F660B770B9A01F4
:10393000AB01282B392B4A2B5B2B6BE2CE010E946B
:103940007915439ADF91CF911F910F91FF90EF90DE
:10395000DF90CF90BF90AF909F908F900895CF92BF
:10396000DF92EF92FF920F931F93CF93DF93EC01BF
:103970006801121613060CF04FC077FD4DC0888504
:103980009985681779070CF047C0EA85FB854E17C3
:103990005F070CF041C07A01E20EF31E870101506F
:1039A000110917FD39C057FF35C040E050E00E1730
:1039B0001F0734F08F01015011097F01E41AF50A45
:1039C0009B01CE010E94E91B9701FF0C440B550B94
:1039D000B601CE010E94E01A8A8D811110C00A85BD
:1039E0001B8501501109288539852150310940E096
:1039F00050E060E070E0CE010E94E91B0DC0CE01F6
:103A0000DF91CF911F910F91FF90EF90DF90CF90BA
:103A10000C94D01B7901CBCFDF91CF911F910F91E7
:103A2000FF90EF90DF90CF900895CF92DF92EF92CA
:103A3000FF920F931F93CF93DF93EC01680112164F
:103A400013060CF04EC057FD4CC08A859B85481765
:103A500059070CF046C0E885F9856E177F070CF012
:103A600040C07B01E20EF31EC701019797FD39C0EC
:103A700077FF35C060E070E08E179F072CF0CF0114
:103A800001977F01E61AF70A8A019C01CE010E9484
:103A9000E91B9701FF0C440B550BB601CE010E94A8
:103AA000E01A8A8D811110C00A851B850150110909
:103AB000288539852150310940E050E060E070E010
:103AC000CE010E94E91B0DC0CE01DF91CF911F9165
:103AD0000F91FF90EF90DF90CF900C94D01B790165
:103AE000CBCFDF91CF911F910F91FF90EF90DF909F
:103AF000CF900895FF920F931F93CF93DF9300D041
:103B0000CDB7DEB7152FF32EFC01008181E0809345
:103B10002C0300934F0310922D0310924E03F4E0F8
:103B20006F9FB00111246A5F7F4F8AE594E02A837A
:103B300049830E94460D4981842F912F0E94151EB2
:103B4000812F90E00E94151E2A81822F9F2D0E94B6
:103B5000151E8F2D90E00E94151E80914E0381321C
:103B600008F046C090912B039111FCCF92E0909306
:103B70002B0391E090932A039FEF909329031092D7
:103B8000280380932703AEE2B3E027E033E0F90196
:103B90009E2F921B981718F49D919193F9CF109234
:103BA000060380910603000F802B8093060380910B
:103BB0000503813061F41092050380910603809320
:103BC000BB008091BC0083FDF8CF85EC01C085EE81
:103BD0008093BC0080912B038230E1F38091290314
:103BE0008F3F31F080912903803211F080912903B9
:103BF00010922D0310924E0310922C030F900F90F1
:103C0000DF91CF911F910F91FF9008959A01CB966C
:103C1000211540E1340728F020E030E040E050E199
:103C200002C040E050E00C947A1D682F8AE594E0D1
:103C30000C94460D1F93CF93DF93EC018C8561307C
:103C400011F48F5F01C081508C872C852F73822FD8
:103C500090E0203148F4E2E3F1E0E81BF90B408109
:103C6000FC01EE5DFE4F20C030EF320F303138F4F2
:103C7000FC01EE5EFE4F4081E2E4F1E013C030EE65
:103C8000320F303148F4E2E5F1E0E81BF90B4081F6
:103C9000FC01EE5FFE4F08C0FC01EE50FF4F40817B
:103CA000E2E6F1E0E81BF90B10812C8780E1489FE8
:103CB000A00111246C818D859E850E94061E80E1E5
:103CC000189FA00111246F818D859E850E94061E7C
:103CD0008C85803110F413E001C010E090EF980F54
:103CE000903108F4166090EE980F903108F41C6043
:103CF0008053803108F419608D859E8520E030E086
:103D000010FF03C040E050E102C040E050E06E818F
:103D1000CB960E947A1D8D859E8520E030E011FFB4
:103D200003C040E050E102C040E050E06885CB961F
:103D30000E947A1D8D859E8520E030E012FF03C031
:103D400040E050E102C040E050E06D81CB960E941F
:103D50007A1D8D859E8520E030E013FF03C040E092
:103D600050E102C040E050E06985CB960E947A1D88
:103D70008C85DF91CF911F910895CF92DF92EF92C2
:103D8000FF920F931F93CF93DF936C017A018B0106
:103D9000C0E0D0E0CE15DF0589F0D8016D918D012E
:103DA000D601ED91FC910190F081E02DC6010995BD
:103DB000892B11F47E0102C02196ECCFC701DF915F
:103DC000CF911F910F91FF90EF90DF90CF900895CA
:103DD0002F923F924F925F926F927F928F929F921B
:103DE000AF92BF92CF92DF92EF92FF920F931F9309
:103DF000CF93DF9300D000D000D0CDB7DEB73C0129
:103E00006B0159014801290183E0480E511CE12C46
:103E1000F12CE3E0F0E0FE83ED838AEF9FEF9A83DD
:103E200089832EEF222E33243A94942F91709B8312
:103E300042704C83EFEFEE1AFE0AC2018A199B0909
:103E4000280E391EFB81FF2309F12D813E81220FAF
:103E5000331F2F5F3F4F2A0D3B1D8401A6018D812B
:103E60009E81481B590BB3016E0D7F1D89E395E0C0
:103E70000E94DB0B9201A6014E195F096D817E81C4
:103E8000660D771D89E395E00E94DB0B9C819923E9
:103E900011F12D813E81220F331F2F5F3F4F2A0DDD
:103EA0003B1D8401A601ED81FE814E1B5F0BB3011A
:103EB0006E197F0989E395E00E94DB0B9201A60150
:103EC0004E195F09B3018D819E81681B790B89E3CF
:103ED00095E00E94DB0BED81FE81EE16FF0694F467
:103EE00037FC0CC0ED81FE813197FE83ED83898123
:103EF0009A8102969A838983280E391E92E0490E90
:103F0000511C98CF26960FB6F894DEBF0FBECDBFDA
:103F1000DF91CF911F910F91FF90EF90DF90CF90A5
:103F2000BF90AF909F908F907F906F905F904F90D9
:103F30003F902F900895E3E7F3E0A089B18982E0F4
:103F40008C93A485B5851C92A685B78580E18C935A
:103F5000108EA489B58986E08C93A289B3898C914F
:103F600080618C93A289B3898C9188608C93A2899B
:103F7000B3898C9180688C930288F389E02D8081CD
:103F80008F7D808308954F925F926F927F928F9280
:103F90009F92AF92BF92CF92DF92EF92FF920F93D8
:103FA0001F93CF93DF933C01EB015A016901480154
:103FB0002C0183E0480E511C9A01265031097801EA
:103FC0008601AB01B20189E395E00E94BF0B87E057
:103FD000C81AD1082396C3018A0D9B1D840196013E
:103FE00041E0BE0104970E94E81E960142E0BE0136
:103FF000C2010E94E81EDF91CF911F910F91FF90A7
:10400000EF90DF90CF90BF90AF909F908F907F9078
:104010006F905F904F900895439A419A409A60E064
:1040200085E00E94F31362E070E080E090E00E947F
:104030009B1461E085E00E94F313439842988BB192
:104040008F728BB985B1807D85B94198419A83E0A3
:104050004198419A8150E1F7439A089580917A05F9
:1040600087FF0CC08091660590E09C0146E0220F1E
:10407000331F4A95E1F7822B932B089585FF09C0E2
:1040800080916E0590E0982F882720916F05822BF4
:10409000089580915E0590E00895EF92FF920F934E
:1040A0001F93CF93DF93EC017B018A018881998173
:1040B000009729F02A813B8124173507F8F4B801CD
:1040C0006F5F7F4F0E94E52D009759F09983888399
:1040D0001B830A832C813D81232B81F4FC011082F8
:1040E0000DC088819981009711F00E944D2D198291
:1040F00018821D821C821B821A8207C01D830C83BA
:10410000B701888199810E94C62ECE01DF91CF919F
:104110001F910F91FF90EF900895FC011182108282
:1041200013821282158214826115710551F0FB0110
:1041300001900020E9F73197AF01461B570B0C9413
:104140004D2008956115710579F0FB010190002063
:10415000E9F73197AF01461B570BDC01ED91FC915C
:104160000280F381E02D099480E090E008954F9261
:104170005F926F927F92EF92FF920F931F93CF9374
:10418000DF93CDB7DEB7A1970FB6F894DEBF0FBEB1
:10419000CDBF7C01FA01CB0119A2223008F42AE03C
:1041A0008E010F5D1F4F422E512C612C712CBF01CF
:1041B000A30192010E949E2AF901CA01015011092E
:1041C0006A3014F4605D01C0695CD8016C93232BE4
:1041D000242B252B61F7B801C7010E94A220A196CC
:1041E0000FB6F894DEBF0FBECDBFDF91CF911F9108
:1041F0000F91FF90EF907F906F905F904F90089598
:10420000CF92DF92EF92FF92CF93DF936B017C010D
:10421000E0917303F09174030190F081E02D6DE261
:1042200083E793E00995EC0144275527BA014C191F
:104230005D096E097F092AE083E793E00E94B720B9
:104240008C0F9D1FDF91CF91FF90EF90DF90CF906B
:104250000895CF93DF93AC01990F660B770B77FF2F
:1042600005C0CB01BA010E94002105C02AE083E706
:1042700093E00E94B720EC016CE971E083E793E0E2
:104280000E94A2208C0F9D1FDF91CF9108950C9466
:10429000A220CF93DF93C1E3D5E02697888199814F
:1042A0000E944D2D84E0CB3CD807B9F7DF91CF9128
:1042B0000895CF93DF93CDB7DEB72D970FB6F8945F
:1042C000DEBF0FBECDBF789484B5826084BD84B557
:1042D000816084BD85B5826085BD85B5816085BD01
:1042E00080916E00816080936E00109281008091B9
:1042F0008100826080938100809181008160809341
:104300008100809180008160809380008091B10065
:1043100084608093B1008091B00081608093B00090
:1043200080917A00846080937A0080917A00826024
:1043300080937A0080917A00816080937A008091E6
:104340007A00806880937A001092C1001092540421
:1043500010925504109256041092570410921204B1
:1043600010921304109214041092150460ED77E07B
:1043700080E090E00E949B1483E793E090935304C5
:10438000809352040E949B1F0E94D51460931204D4
:104390007093130480931404909315046DE871E0F6
:1043A00080915204909153040E9447216AE070E08A
:1043B00080E090E00E949B1481E0809326040E949C
:1043C0009B1F6FE971E083E793E00E9447214091D2
:1043D000410550914205052E000C660B770B77FFC7
:1043E00005C0CB01BA010E94002105C02AE083E785
:1043F00093E00E94B7206CEA71E083E793E00E94AB
:10440000472180914305909144050E9429211092F3
:104410006E0210926D028FEF9FEF90936C0280936B
:104420006B0288E09FE0909371028093700281E0BC
:1044300080936F0288EC90E09093730280937202F5
:1044400089EC90E090937502809374028AEC90E07E
:1044500090937702809376028BEC90E090937902B0
:10446000809378028CEC90E090937B0280937A02A8
:104470008DEC90E090937D0280937C028EEC90E036
:1044800090937F0280937E028FEC90E09093810264
:10449000809380028091880290918902A0918A0283
:1044A000B0918B02892B8A2B8B2B91F5109264058E
:1044B0001092650510928602109285021092840275
:1044C0001092830210928202109281021092800256
:1044D0000E947614609388027093890280938A0206
:1044E00090938B0284EB9AE19093040180930301F3
:1044F000809169008C7F816080936900E89A81E2F5
:1045000098E1909359048093580482E08093870245
:104510000E940C200E940C2068EC70E080E090E08B
:104520000E949B141092530543980FEC1CE0F80175
:1045300065917491F8013296459154916F3F7105E0
:1045400031F4BA0180E090E00E949B1404C089E33A
:1045500095E00E941B160C5F1F4F2DE00B391207D0
:1045600031F760914E0589E395E00E9452160FE302
:1045700011E02FEE30E040E050E060E070E089E3D1
:1045800095E00E94E91B63E089E395E00E945216E2
:1045900060E070E089E395E00E94CF1761E08DE074
:1045A0000E9423148FEF9FEF90934C0580934B054F
:1045B00090934A058093490584EB9DE090935205C2
:1045C0008093510580913305909134052EE130E0C0
:1045D0003093460520934505909348058093470501
:1045E0000BE91DE0F8016491611116C06CE971E0FE
:1045F00089E395E00E94A220809151059091520597
:10460000892BC9F0809147059091480506979093B2
:104610004805809347050FC0E0913905F0913A05B0
:104620000190F081E02D89E395E009950F5F1F4F20
:10463000892BC1F6DBCF109252051092510568EE1E
:1046400073E080E090E00E949B1460E070E089E3FA
:1046500095E00E94CF1780914105909142055C0141
:10466000F5E2AF1AB108B7FE04C05C0122E2A21A5B
:10467000B108B594A794B594A79410924C051092E4
:104680004B0510924A05109249054BEC842E44E0EC
:10469000942EC12CD12C612C712C6114710409F45D
:1046A000B7C3CA0CDB1C83E0C80ED11C2FEEE22E70
:1046B0002BE7F22E04E110E0950146E050E0B60150
:1046C00089E395E00E94E8121A8219821C821B82FB
:1046D0001E821D82F401608171816115710531F0C6
:1046E00044815581CE0101960E944D204D805E800F
:1046F000E980FA8022242A9433243A9400E010E0DE
:1047000026E0209FF001219FF00D1124E553FB4F7F
:10471000848195818415950521F58081918100978B
:1047200021F0E114F104A9F40DC0E114F104B1F099
:104730004114510499F0F701808190E091958195A1
:1047400091090AC04114510449F0FC01808190E0B4
:1047500003C0B7010E94BD2E892B19F481E190E0BE
:1047600002C0C80181010196813191051CF4180134
:104770008C01C6CF000F111FF801E053FD4FD1820D
:10478000C082C80182559D4F7C0186E090E0F70110
:104790009183808304571D4F81E090E0F80191835D
:1047A0008083C6010E942921F701808191810E94A6
:1047B0002921F801808191810E94292189819A8192
:1047C0000E944D2DC60102969093460580934505A3
:1047D00099E0E92EF12CF0924805E0924705F401AA
:1047E000448155816081718189E395E00E94BD1EFD
:1047F0008091510590915205892B49F08091470590
:10480000909148050697909348058093470510922C
:10481000520510925105FFEF6F1A7F0A26E0820EB3
:10482000911C84E06816710409F037CF209143058C
:104830003091440520523109409141055091420583
:104840004C50510908E116EC6AE170E086E090E016
:104850000E94C31F2091430530914405265231091F
:1048600040914105509142054251510900E010E04C
:104870006DE170E089E090E00E94C31F68EB7BE08F
:1048800080E090E00E949B14B4EF4B2E552453948B
:10489000612C712C0E94D514672B682B692B41F475
:1048A0000E94D514623071058105910508F40AC192
:1048B0000E94D5146093F8027093F9028093FA0273
:1048C0009093FB020091F4021091F5022091F60200
:1048D0003091F702601771078207930740F46093E5
:1048E000F4027093F5028093F6029093F702009120
:1048F000F4021091F5022091F6023091F7026B015B
:104900007C01C01AD10AE20AF30A970186010A3F24
:1049100011052105310508F4D5C06093F4027093A8
:10492000F5028093F6029093F70240921E04509293
:104930001F046092200470922104109222041092AD
:10494000230410922404109225048091160490915F
:104950001704A0911804B091190480931A0490933D
:104960001B04A0931C04B0931D040E94D5146093F3
:1049700016047093170480931804909319040E94EE
:10498000D5146093120470931304809314049093CD
:1049900015040E94D5146B017C016EEA71E08091D0
:1049A0005204909153040E9447212AE041E050E0D4
:1049B00060E070E080915204909153040E94B7200F
:1049C00065EB71E080915204909153040E9447215D
:1049D0002AE0B701A60180915204909153040E94ED
:1049E000B72067EB71E080915204909153040E94CC
:1049F00047218091160490911704A0911804B0915A
:104A00001904B701A601481B590B6A0B7B0B2AE05E
:104A100080915204909153040E94B72067EB71E09B
:104A200080915204909153040E94472140911604B2
:104A300050911704609118047091190480911A0420
:104A400090911B04A0911C04B0911D04481B590BAC
:104A50006A0B7B0B2AE080915204909153040E94D0
:104A6000B72069EB71E080915204909153040E9449
:104A700047210E94D514AB01BC012AE08091520469
:104A8000909153040E94B720009152041091530456
:104A90006BEB71E0C8010E94A2206CE971E0C801D3
:104AA0000E94A22065E070E080E090E00E949B14EC
:104AB0000E94D51460931604709317048093180411
:104AC0009093190461E08DE00E94F313A0915905C1
:104AD000B0E0FD01E752F24FE49080915605682F57
:104AE00070E0FB01E752F24F04914091580550E00D
:104AF000FA01E752F24FD4902091570530E0F901C6
:104B0000E752F24F2490FD01E351F24FB490FB01C4
:104B1000E351F24FA490FA01E351F24FC490F9012E
:104B2000E351F24FF490FF8260E00E94231460E0B2
:104B3000809157050E94231410E0000F111F0554A7
:104B4000124FF801A591B4918C912A2D20952C87B4
:104B500082238C93312CF101EE0FFF1FCF0185547E
:104B6000924F1C01FC01A591B4919C918F2D8095D1
:104B700089238C9361E0809159050E94231461E0A0
:104B8000809158050E942314F12CF701EE0FFF1FAE
:104B9000CF018554924F7C01FC01A591B4918C9179
:104BA0008B298C93ED2DF0E0EE0FFF1FE554F24FB3
:104BB000A591B4914C91C094C422CC928091560599
:104BC0000E945F146C01809156050E945F1496014B
:104BD000281B390B2C5F3F4F2930310538F48C0DE1
:104BE0009D1D95958795E1E0EB8701C01B86CC2440
:104BF000CA9433E0D32EC81AD90A60E080915905CF
:104C00000E94231460E0809158050E942314F7014C
:104C1000A591B4918C91B094BD868B218C9361E069
:104C2000809156050E942314F801A591B491EC914E
:104C3000AE2AAC9261E0809157050E9423148091C6
:104C400058050E945F144C01809158050E945F1422
:104C50005C01C4018A199B090496099728F4A80CE1
:104C6000B91CB594A79401C01B8661E080915905D9
:104C70000E942314F701A591B491EC91ED84EE21EB
:104C8000EC93F101A591B491EC91FF80EF29EC93A5
:104C9000F801A591B4918C912C8582238C9360E0CE
:104CA000809156050E942314809158050E945F143C
:104CB0008C01809156050E945F14E0905A05F09097
:104CC0005B05E114F10409F44BC0BC01990F880B9A
:104CD000990B0E9481296F83788789879A87B80109
:104CE000110F880B990B0E9481299B01AC016F81E8
:104CF000788589859A850E94732B20E030E040E812
:104D00005FE30E94062B6F83788789879A87B601B5
:104D10000D2C000C880B990B0E9481299B01AC0182
:104D20006F81788589859A850E94E0296F837887CD
:104D300089879A87B70180E090E00E947F299B01D4
:104D4000AC016F81788589859A850E94E02920E0F1
:104D500030E040E85AE30E94E0290E94E52B05C0BC
:104D6000081B190BB80161507C4FEB84E11002C0A5
:104D700060E070E080915405909155058617970783
:104D80000CF03FC00FEF13E00A191B0962E370E05B
:104D900080E090E00E949B14B6016E537E4F83E743
:104DA00093E00E94A2206CE971E083E793E00E9407
:104DB000A220B80168537E4F83E793E00E94472109
:104DC000B801C6010E945F118430910514F4019668
:104DD00069F48091F2029091F3021816190634F4E6
:104DE00082E090E09093F3028093F202B801C60152
:104DF0000E945F11BC0161537E4F83E793E00E94E4
:104E0000472160E08DE00E94F3130E94BE1242CD64
:104E100088E1E82E86ECF82E04E110E0950146E0EA
:104E200050E06EE070E089E395E00E94E8129EE0B9
:104E3000C92ED12C49CCDF92EF92FF920F931F9392
:104E4000CF93DF93109276031092750388EE93E070
:104E5000A0E0B0E08093770390937803A093790368
:104E6000B0937A0327E331E0309374032093730304
:104E700025EC30E03093800320937F0324EC30E076
:104E8000309382032093810320EC30E0309384033D
:104E90002093830321EC30E0309386032093850335
:104EA00022EC30E0309388032093870326EC30E037
:104EB00030938A032093890310928C0310928D0300
:104EC00010928E0310928F03109216041092170402
:104ED000109218041092190410921A0410921B04D4
:104EE00010921C0410921D0410921E0410921F04B4
:104EF0001092200410922104109222041092230494
:104F0000109224041092250420E238E130935904D1
:104F10002093580410925D0410925C0480935E0408
:104F200090935F04A0936004B093610487E491E0E0
:104F300090935B0480935A0481E18093560580E14D
:104F40008093580589E08093570588E08093590540
:104F50008CE291E090935B0580935A058AE090E0A3
:104F6000909355058093540510923C0510923B0593
:104F700000EF10E010933E0500933D05C0E4D1E042
:104F8000D0934005C0933F0510934205009341051F
:104F9000D0934405C093430510924E0510924605E8
:104FA000109245051092480510924705DD24D394D0
:104FB000D0924D05EE24EA94FE2CF0924C05E0923E
:104FC0004B05F0924A05E0924905D0924F051092A8
:104FD0005005109252051092510587E691E090938A
:104FE0003A0580933905439A419A409A429A61E082
:104FF00085E00E94F31361E081E10E94231461E0E7
:1050000080E10E94231461E08FE00E94231461E09C
:105010008EE00E94231461E085E00E9423148AB18F
:10502000806D8AB984B18F6284B910924E05109256
:105030004605109245051092480510924705D092FA
:105040004D05F0924A05E092490510934205009300
:105050004105D0934405C0934305E4E0FEE084910C
:10506000E0EFFDE0D491ECEDFDE0C491CC2391F0B4
:1050700081110E94CA13EC2FF0E0EE0FFF1FE153E5
:10508000F24FA591B491EC91ED2391E080E021F4F1
:1050900090E002C090E080E090933705809338055F
:1050A000809143059091440597FD019695958795CC
:1050B0009093360580933505809141059091420586
:1050C00097FD0196959587959093340580933305C8
:1050D00088E790E0909332058093310562EE71E0AD
:1050E0008BEC94E00E948D206AEE71E081ED94E0FB
:1050F0000E948D2061EF71E087ED94E00E948D2089
:105100006BEF71E08DED94E00E948D2068EE71E010
:1051100083EE94E00E948D2063E072E089EE94E0DB
:105120000E948D2065E072E08FEE94E00E948D2059
:1051300067E072E085EF94E00E948D2069E072E004
:105140008BEF94E00E948D206BE072E081E095E0AF
:105150000E948D206DE072E087E095E00E948D2036
:105160006FE072E08DE095E00E948D2060E172E0DA
:1051700083E195E00E948D2062E172E089E195E093
:105180000E948D2063E172E08FE195E00E948D2006
:1051900065E172E085E295E00E948D206EE971E0A4
:1051A0008BE295E00E948D20E4E9F4E01282118206
:1051B00013821082DF0111971C9211971C92369670
:1051C00084E0EC3AF80791F71092B6041092B90413
:1051D0001092B5041092B4041092C60480E6809335
:1051E0008F048093CA0481E08093C90488EC90E026
:1051F0009093C5048093C4048FE894E09093C8040E
:105200008093C70482E08093BE0487E08093C1044A
:1052100084E08093BF0483E08093C00485E08093A2
:10522000C20486E08093C3048AEB94E090938E04DA
:1052300080938D0487E591E09093670480936604E2
:105240001092680410926D0410926E0410926F0414
:1052500010927004109271041092720410927304F0
:1052600010927404109275041092760410927704D0
:105270001092780480E090E0A0E8BFE38093790486
:1052800090937A04A0937B04B0937C0480937D0474
:1052900090937E04A0937F04B093800410928104C5
:1052A0001092820410928304109284041092850458
:1052B0001092860410928704109288041092690458
:1052C00010926A0410926B0410926C048AEF9EE0B4
:1052D00090938A048093890481E09FE090938C04EA
:1052E00080938B04DF91CF911F910F91FF90EF90EE
:1052F000DF9008950E94BC2908F481E00895E894A5
:1053000009C097FB3EF490958095709561957F4F0D
:105310008F4F9F4F9923A9F0F92F96E9BB279395BB
:10532000F695879577956795B795F111F8CFFAF4CB
:10533000BB0F11F460FF1BC06F5F7F4F8F4F9F4FFC
:1053400016C0882311F096E911C0772321F09EE85A
:10535000872F762F05C0662371F096E8862F70E0C0
:1053600060E02AF09A95660F771F881FDAF7880F9A
:105370009695879597F90895990F0008550FAA0BF0
:10538000E0E8FEEF16161706E807F907C0F0121658
:105390001306E407F50798F0621B730B840B950B5B
:1053A00039F40A2661F0232B242B252B21F40895B0
:1053B0000A2609F4A140A6958FEF811D811D08954D
:1053C0000E94F3290C94642A0E94562A38F00E9405
:1053D0005D2A20F0952311F00C944D2A0C94532A49
:1053E00011240C94982A0E94752A70F3959FC1F39A
:1053F000950F50E0551F629FF001729FBB27F00D83
:10540000B11D639FAA27F00DB11DAA1F649F6627D7
:10541000B00DA11D661F829F2227B00DA11D621F26
:10542000739FB00DA11D621F839FA00D611D221FE0
:10543000749F3327A00D611D231F849F600D211DC4
:10544000822F762F6A2F11249F5750409AF0F1F047
:1054500088234AF0EE0FFF1FBB1F661F771F881FB0
:1054600091505040A9F79E3F510580F00C944D2A71
:105470000C94982A5F3FE4F3983ED4F38695779591
:105480006795B795F795E7959F5FC1F7FE2B880F56
:10549000911D9695879597F9089597F99F6780E8EC
:1054A00070E060E008959FEF80EC089500240A9476
:1054B0001616170618060906089500240A941216EF
:1054C0001306140605060895092E0394000C11F422
:1054D000882352F0BB0F40F4BF2B11F460FF04C0CF
:1054E0006F5F7F4F8F4F9F4F089557FD9058440F28
:1054F000551F59F05F3F71F04795880F97FB991F33
:1055000061F09F3F79F087950895121613061406EF
:10551000551FF2CF4695F1DF08C01616170618067C
:10552000991FF1CF86957105610508940895E89457
:10553000BB2766277727CB0197F90895A1E21A2E9A
:10554000AA1BBB1BFD010DC0AA1FBB1FEE1FFF1F27
:10555000A217B307E407F50720F0A21BB30BE40B77
:10556000F50B661F771F881F991F1A9469F76095BE
:105570007095809590959B01AC01BD01CF01089578
:105580002F923F924F925F926F927F928F929F9253
:10559000AF92BF92CF92DF92EF92FF920F931F9341
:1055A000CF93DF93CDB7DEB7CA1BDB0B0FB6F894F2
:1055B000DEBF0FBECDBF09942A88398848885F8432
:1055C0006E847D848C849B84AA84B984C884DF80A3
:1055D000EE80FD800C811B81AA81B981CE0FD11D87
:1055E0000FB6F894DEBF0FBECDBFED010895A29FA8
:1055F000B001B39FC001A39F700D811D1124911DA7
:10560000B29F700D811D1124911D08955058BB2724
:10561000AA270E941E2B0C94642A0E94562A38F056
:105620000E945D2A20F039F49F3F19F426F40C946F
:10563000532A0EF4E095E7FB0C944D2AE92F0E94C3
:10564000752A58F3BA17620773078407950720F085
:1056500079F4A6F50C94972A0EF4E0950B2EBA2F48
:10566000A02D0B01B90190010C01CA01A001112468
:10567000FF27591B99F0593F50F4503E68F11A1614
:10568000F040A22F232F342F4427585FF3CF4695A5
:1056900037952795A795F0405395C9F77EF41F16C7
:1056A000BA0B620B730B840BBAF09150A1F0FF0F91
:1056B000BB1F661F771F881FC2F70EC0BA0F621F7D
:1056C000731F841F48F4879577956795B795F7956D
:1056D0009E3F08F0B0CF9395880F08F09927EE0F02
:1056E0009795879508950E94872B0C94642A0E94B1
:1056F0005D2A58F00E94562A40F029F45F3F29F0B5
:105700000C944D2A51110C94982A0C94532A0E94FF
:10571000752A68F39923B1F3552391F3951B550B23
:10572000BB27AA2762177307840738F09F5F5F4F74
:10573000220F331F441FAA1FA9F335D00E2E3AF0B3
:10574000E0E832D091505040E695001CCAF72BD0CB
:10575000FE2F29D0660F771F881FBB1F261737071C
:105760004807AB07B0E809F0BB0B802DBF01FF274E
:1057700093585F4F3AF09E3F510578F00C944D2AB4
:105780000C94982A5F3FE4F3983ED4F3869577957E
:105790006795B795F7959F5FC9F7880F911D969507
:1057A000879597F90895E1E0660F771F881FBB1F63
:1057B000621773078407BA0720F0621B730B840B10
:1057C000BA0BEE1F88F7E09508950E94EC2B6894C1
:1057D000B1110C94982A08950E947D2A88F09F5751
:1057E00098F0B92F9927B751B0F0E1F0660F771F05
:1057F000881F991F1AF0BA95C9F714C0B13091F0FB
:105800000E94972AB1E008950C94972A672F782F69
:105810008827B85F39F0B93FCCF3869577956795BF
:10582000B395D9F73EF490958095709561957F4F2B
:105830008F4F9F4F08950E94BC2908F48FEF089561
:1058400019F416F40C94532A0C94662C0E947D2AA9
:10585000B8F39923C9F3B6F39F57550B87FF0E94FE
:10586000742C0024A0E640EA900180585695979544
:1058700028F4805C660F771F881F20F026173707F3
:10588000480730F4621B730B840B202931294A2B03
:10589000A69517940794202531254A2758F7660FB7
:1058A000771F881F20F026173707480730F4620B50
:1058B000730B840B200D311D411DA09581F7B9019B
:1058C000842F9158880F9695879508959F3F31F0C2
:1058D000915020F4879577956795B795880F911D1E
:1058E0009695879597F9089591505040660F771FC8
:1058F000881FD2F7089597FB072E16F4009407D05F
:1059000077FD09D00E949E2C07FC05D03EF49095AF
:1059100081959F4F0895709561957F4F08950E94DE
:10592000F72A332312F48A1B9B0B0C94992C0E94A8
:10593000F72AB7FF0895821B930B0895AA1BBB1B80
:1059400051E107C0AA1FBB1FA617B70710F0A61B7F
:10595000B70B881F991F5A95A9F780959095BC01A0
:10596000CD010895EE0FFF1F0590F491E02D0994ED
:10597000CF93DF938230910510F482E090E0E091C4
:105980006006F091610620E030E0C0E0D0E03097A2
:1059900011F14081518148175907C0F04817590744
:1059A00061F482819381209719F09B838A832BC0B5
:1059B000909361068093600626C02115310519F089
:1059C0004217530718F49A01BE01DF01EF0102806C
:1059D000F381E02DDCCF2115310509F1281B390BAE
:1059E0002430310590F412968D919C911397611596
:1059F000710521F0FB019383828304C090936106BB
:105A000080936006FD01329644C0FD01E20FF31F52
:105A100081939193225031092D933C933AC0209168
:105A20005E0630915F06232B41F4209109013091ED
:105A30000A0130935F0620935E06209107013091A2
:105A400008012115310541F42DB73EB740910B01F6
:105A500050910C01241B350BE0915E06F0915F061E
:105A6000E217F307A0F42E1B3F0B2817390778F035
:105A7000AC014E5F5F4F2417350748F04E0F5F1F94
:105A800050935F0640935E068193919302C0E0E0DD
:105A9000F0E0CF01DF91CF9108950F931F93CF9343
:105AA000DF93009709F48CC0FC01329713821282B5
:105AB00000916006109161060115110581F42081A5
:105AC0003181820F931F20915E0630915F06281767
:105AD000390779F5F0935F06E0935E0671C0D8014F
