:100000000C9481070C94BE140C9497140C94780CE7
:100010000C94780C0C94780C0C94A9070C94A907F8
:100020000C94A9070C94A9070C94A9070C94A90790
:100030000C94A9070C94A9070C94A9070C94A90780
:100040000C944D140C94A9070C9404130C94DE1218
:100050000C94A9070C94A9070C94A9070C94A90760
:100060000C94820C0C94A907084AD73B3BCE016E36
:1000700084BCBFFDC12F3D6C74319ABD56833DDAFF
:100080003D00C77F11BED9E4BB4C3E916BAAAABE0E
:10009000000000803F05A84CCDB2D44EB93836A937
:1000A000020C50B9918688083CA6AAAA2ABE000074
:1000B00000803F00000001010300002A0005050642
:1000C00000F82E0005060801F9330003010601FCC3
:1000D0003500050905FFF83B0005080801F8400058
:1000E00003080600F8430004080701F84700050864
:1000F0000700F84C0005080700F851000508070044
:10010000F8560005080801F85B0005080801F860CA
:100110000005080801F8650005080801F86D0004ED
:10012000070701F9730005060701FA92000608089F
:1001300001F800255CA5002109F210E0108462108E
:100140008840746318C62E3C9249691126CF7242CA
:1001500060852E119CAD7C427A10E0852E3221E81C
:10016000C62EF8C42311887462E8C62E74631784FF
:100170004C017CE3008706EC007328A082289C00D9
:10018000000101020000010001040200FC02000164
:10019000020301FC030004040400FC050003050540
:1001A00000FC070004040601FC090004040400FC30
:1001B0000B0001020200FC0C0002070300FB0E0012
:1001C00002070300FB100003030300FC12000303FB
:1001D0000400FD1400020202FFFF150002010200EC
:1001E000FE160001010200FF170002050300FC19C2
:1001F0000003040400FC1B0002040400FC1C0004B7
:10020000040500FC1E0003040400FC200004040498
:1002100000FC220003040400FC240003040400FC8E
:10022000260003040400FC280003040400FC2A0048
:1002300003040400FC2C0001030200FD2D00020455
:1002400002FFFD2E0002030400FD2F000302040044
:10025000FD3000030304FFFD320002040300FC3301
:100260000005050600FC370004040400FC39000307
:10027000040400FC3B0003040400FC3D00030404F0
:1002800000FC3F0003040400FC410003040400FCE4
:10029000430003040400FC450003040400FC470081
:1002A00001040200FC480003040400FC4A000304AB
:1002B0000400FC4C0003040400FC4E000404050090
:1002C000FC500003040400FC520003040400FC542E
:1002D0000003040400FC560003050400FC5800035E
:1002E000040400FC5A0004040500FC5C0003040440
:1002F00000FC5E0003040400FC600004040400FC35
:10030000620005040500FC650003040400FC6700AE
:1003100003040400FC690003040501FC6B000206F1
:100320000200FB6D0003050300FC6F00020602FFE4
:10033000FB710002020300FC720003010300007362
:100340000002010300FC740003030501FD760003B5
:10035000040400FC780003030400FD7A0003040495
:1003600000FC7C0002030501FD7D00030502FFFB8C
:100370007F0003040400FD810003040400FC8300EB
:1003800001040200FC8400020502FFFC8600030455
:100390000300FC880001040200FC8900050306003C
:1003A000FD8B0003030400FD8D0003030400FD8F9B
:1003B0000003040400FD910003040400FD93000207
:1003C000040300FC9400030304FFFD9600030402F1
:1003D000FFFC980003030400FD9A0003030300FDE3
:1003E0009C0004030500FD9E0003030300FDA00024
:1003F00003040300FDA20003030501FDA40003079D
:1004000002FFFBA70001050200FCA800030702FF92
:10041000FB00F0806CE01D148CA6C4EA800A800505
:100420004010005D000080806A00D6E0D56244285C
:10043000E0266248D05AE02520EAE0D5A0A040643A
:10044000D84400D0757BE4004C68FAD07230D6E016
:10045000DA409340D2B0BED0F024D0BB5092409945
:10046000FDB7D0D6E0D740D6E2D75064264920B6B3
:10047000E0AAC4A594A0A950B9204A40AAA09220FD
:100480005550B0C080DB009AE0D2003ED0FC092479
:10049000F6F09ED0F055409A60F0FD6AF680D700E5
:1004A000D740F6B02A6D804920B6808900DEA0DAF8
:1004B00000C9005200094480F809248000000101AD
:1004C000020000010002040401FC02000201040118
:1004D000FC030003040400FC050004050500FC08FF
:1004E0000004040601FC0A0004040601FC0C0001DF
:1004F000010200FC0D0002070401FB0F00020704CB
:1005000000FB110003030300FC130003030400FDC0
:10051000150002020400FF160002010300FE17008E
:1005200002010200FF1800030503FFFC1A00030488
:100530000601FC1C0002040400FC1D00040405006C
:10054000FC1F0003040400FC210004040500FC233C
:100550000003040500FC250003040500FC2700033C
:10056000040400FC290003040501FC2B000304061D
:1005700001FC2D0002030200FD2E0003050400FD16
:10058000300002030501FD310003020400FD3200CA
:1005900002030501FD3300030403FFFC35000405DD
:1005A0000701FC380004040400FC3A0003040501C0
:1005B000FC3C0004040501FC3E0003040601FC4071
:1005C0000003040501FC420003040501FC44000390
:1005D000040601FC460003040601FC480001040473
:1005E00001FC490003040500FC4B0004040501FC68
:1005F0004D0003040501FC4F0004040701FC5100F9
:1006000003040601FC530003040601FC5500030427
:100610000501FC570003050601FC59000304050110
:10062000FC5B0004040500FC5D00050404FFFC60A5
:100630000003040601FC620004040400FC640005DD
:10064000040500FC670004040400FC6900050404C0
:10065000FFFC6C0003040501FC6E0002060401FBB4
:10066000700003050300FC720002060400FB740026
:1006700003020300FC750003010300007600020181
:100680000300FC770003030501FD79000304060164
:10069000FC7B0003030501FD7D0003040601FC7FD4
:1006A0000003030501FD810003040400FC83000333
:1006B000040601FD850002040501FC860002040415
:1006C00001FC870003050400FC890003040501FC0C
:1006D0008B0001040401FC8C0003030601FD8E0065
:1006E00002030501FD8F0003030601FD91000304D1
:1006F0000601FD930003040601FD950002040401B8
:10070000FC960003030500FD980003040400FC9A16
:100710000002030501FD9B0003030400FD9D00048E
:10072000030500FD9F0003030400FDA10003040472
:1007300000FDA30003030501FDA50003070400FB62
:10074000A80001040401FCA90003070400FB00AA9F
:10075000805F802466208C6244EE002AA025600819
:10076000005D0040C0802924F6F0D5622768B026DD
:10077000627CB04EB0E520CB60F7A088412064FCDD
:100780009864106FDF604A6ADB60EAAED6E0FA7008
:10079000F340F6F0BED0F026B0ACCA92709FFDBF19
:1007A000D0F6F0DB40F6E2D7606426710840B6F080
:1007B000AAC4B59CA0A44A530840EA70AAA09124F8
:1007C000555058C080DB009EF0D7003EF0DB006D36
:1007D00020F7F0BFAA492C9B60F0FF80FCF780F760
:1007E000C0F7903A69804920FCD900EEA0CB00C93F
:1007F00040D300094480F00924803201B400207EF7
:100800000D11047F01207E074E07BC04207E0700E7
:10081000000101030000AF0007080700F8B6000759
:10082000080700F8210107080700F86E0105060611
:1008300000FA720106080700F87C0106080700F8B4
:10084000820106060600FAAA0103080400F8B301B3
:10085000070606FFFAB90106060700FACB010407EE
:100860000500F9D30104080400F8D70106060600C4
:10087000FA0038C9120C19933C78D91224D9B278ED
:100880007C20418306081072DFBD386107924B2D32
:10089000AC0C3792CB6D9E312FB0D1C06D25B63CDC
:1008A000489366C980312CB2D9C00744CC8066E435
:1008B00044464924B6D9E000000100FF003200019F
:1008C00000000102000007030030100400000008CF
:1008D000000202090000000A0000000C0000000DE8
:1008E0000000000F000000100000001100070012BF
:1008F00000000013000000FF00C800100090161157
:10090000002702FF00320012001A00FF003200131D
:1009100000001829002A00FF0032003000000031DA
:1009200000000032000000350006023600080837DB
:1009300000070038000102390000003C0000003DC3
:1009400000000020000000210000005000000051C5
:1009500000EF005200000053003F01600000A7615B
:100960000003006A00000090001000920000009355
:100970000003009500001197000000980000000798
:1009800000330144434320436F6E74726F6C6C6597
:1009900064205475726E7461626C650071080F0892
:1009A000207E0D00000000250028002B0000000024
:1009B00000240027002A0000000000230026002950
:1009C00000040404040404040402020202020203F8
:1009D0000303030303010204081020408001020402
:1009E0000810200102040810200000000800020185
:1009F00000000304070000000000000000000000E9
:100A000000003E5B4F5B3E3E6B4F6B3E1C3E7C3EB0
:100A10001C183C7E3C181C577D571C1C5E7F5E1CBE
:100A200000183C1800FFE7C3E7FF0018241800FF78
:100A3000E7DBE7FF30483A060E2629792926407F72
:100A4000050507407F05253F5A3CE73C5A7F3E1C81
:100A50001C08081C1C3E7F14227F22145F5F005F6D
:100A60005F06097F017F006689956A60606060604B
:100A700094A2FFA29408047E040810207E2010088F
:100A8000082A1C08081C2A08081E101010100C1E2A
:100A90000C1E0C30383E3830060E3E0E06000000AC
:100AA000000000005F00000007000700147F147FB3
:100AB00014242A7F2A1223130864623649562050D0
:100AC0000008070300001C2241000041221C002AEC
:100AD0001C7F1C2A08083E080800807030000808A7
:100AE000080808000060600020100804023E514918
:100AF000453E00427F400072494949462141494DE7
:100B0000331814127F1027454545393C4A4949316D
:100B100041211109073649494936464949291E00EC
:100B20000014000000403400000008142241141496
:100B3000141414004122140802015909063E415DB3
:100B4000594E7C1211127C7F494949363E41414140
:100B5000227F4141413E7F494949417F09090901BD
:100B60003E414151737F0808087F00417F410020CA
:100B700040413F017F081422417F404040407F02B6
:100B80001C027F7F0408107F3E4141413E7F0909DE
:100B900009063E4151215E7F0919294626494949E6
:100BA0003203017F01033F4040403F1F2040201F90
:100BB0003F4038403F631408146303047804036122
:100BC00059494D43007F4141410204081020004132
:100BD00041417F04020102044040404040000307BD
:100BE000080020545478407F284444383844444412
:100BF00028384444287F385454541800087E090289
:100C000018A4A49C787F0804047800447D40002048
:100C100040403D007F1028440000417F40007C049C
:100C20007804787C080404783844444438FC182458
:100C3000241818242418FC7C08040408485454542C
:100C40002404043F44243C4040207C1C2040201CC1
:100C50003C4030403C44281028444C9090907C44C8
:100C600064544C4400083641000000770000004105
:100C700036080002010204023C2623263C1EA1A1E4
:100C800061123A4040207A385454555921555579CB
:100C9000412254547842215554784020545579408B
:100CA0000C1E5272123955555559395454545939EC
:100CB000555454580000457C410002457D420001D6
:100CC000457C407D1211127DF0282528F07C54557A
:100CD00045002054547C547C0A097F4932494949D3
:100CE000323A4444443A324A4848303A4141217AFF
:100CF0003A42402078009DA0A07D3D4242423D3DC9
:100D00004040403D3C24FF2424487E4943662B2F2D
:100D1000FC2F2BFF0929F620C0887E09032054549C
:100D200079410000447D413048484A3238404022F1
:100D30007A007A0A0A727D0D19317D2629292F2819
:100D4000262929292630484D402038080808080857
:100D5000080808382F10C8ACBA2F102834FA000041
:100D60007B000008142A142222142A140855005566
:100D70000055AA55AA55AAFF55FF55FF000000FFD0
:100D800000101010FF00141414FF001010FF00FFDB
:100D90001010F010F0141414FC001414F700FF00ED
:100DA00000FF00FF1414F404FC141417101F10109B
:100DB0001F101F1414141F00101010F0000000006A
:100DC0001F101010101F10101010F010000000FF66
:100DD000101010101010101010FF10000000FF1461
:100DE0000000FF00FF00001F10170000FC04F414B7
:100DF000141710171414F404F40000FF00F714146F
:100E00001414141414F700F7141414171410101FEA
:100E1000101F141414F4141010F010F000001F1020
:100E20001F0000001F14000000FC140000F010F070
:100E30001010FF10FF141414FF141010101F0000E6
:100E40000000F010FFFFFFFFFFF0F0F0F0F0FFFFF9
:100E5000FF0000000000FFFF0F0F0F0F0F3844448A
:100E60003844FC4A4A4A347E02020606027E027E6A
:100E70000263554941633844443C04407E201E20AF
:100E800006027E020299A5E7A5991C2A492A1C4C54
:100E90007201724C304A4D4D303048784830BC6257
:100EA0005A463D3E494949007E0101017E2A2A2ACF
:100EB0002A2A44445F444440514A444040444A51F1
:100EC000400000FF0103E080FF000008086B6B0892
:100ED0003612362436060F090F06000018180000D7
:100EE000001010003040FF0101001F01011E001919
:100EF0001D1712003C3C3C3C000000000000322D5D
:100F0000F42711241FBECFEFD8E0DEBFCDBF26E00F
:100F1000A6E2B2E001C01D92AA36B207E1F712E0E4
:100F2000A0E0B1E0E2E3FCE602C005900D92A6323B
:100F3000B107D9F717E0C0E8D7E004C02197FE0158
:100F40000E94F133CF37D107C9F70E9403280C94D0
:100F50000C360C9400000F931F93DC01ED91FC9173
:100F6000028CF38DE02D09951F910F9108950F9339
:100F70001F93DC01ED91FC91008CF18DE02D099522
:100F80001F910F910895DC01ED91FC910480F58192
:100F9000E02D099408952F923F924F925F926F92A5
:100FA0007F928F929F92AF92BF92CF92DF92EF92F9
:100FB000FF920F931F93CF93DF9300D01F92CDB773
:100FC000DEB74C017B836A836A01590117019801DE
:100FD000241B350B37FF03C0319521953109C5011D
:100FE0004A815B81841B950B97FF03C09195819586
:100FF000910951E059838217930714F019820BC0AD
:101000009A2D8B2D5801092F182F9A818B81DB8205
:10101000CA82C92ED82E8A819B81A816B9065CF493
:101020009C2D8D2D6801092F182F9A818B81BB82F1
:10103000AA82A92EB82E2501AA81BB814A1A5B0A71
:1010400038016C187D0877FE03C0719461947108B3
:10105000720157FE03C0BFEFEB1AFB0AF594E79449
:10106000C016D1061CF00FEF1FEF1FC001E010E00B
:101070001CC0D401ED91FC91B9810084F185E02D73
:101080009101BB23C1F04A815B81B601C40109957E
:10109000E618F708F7FE04C0C00ED11EE40CF51CDC
:1010A000EA81FB813196FB83EA834A815B81A41646
:1010B000B506FCF604C0A6016A817B81E7CF0F90DC
:1010C0000F900F90DF91CF911F910F91FF90EF90B4
:1010D000DF90CF90BF90AF909F908F907F906F9058
:1010E0005F904F903F902F900895CF93DF93EC0146
:1010F00020E030E0A9016F85788989899A890E946A
:10110000353318161CF4EBA1FCA102C0EDA1FEA121
:10111000DF91CF910994DC0112962C91213069F076
:1011200028F0223089F02430B1F00895DC01ED91EF
:10113000FC910280F381E02D0994DC01ED91FC919A
:101140000480F581E02D0DC0DC01ED91FC9106805D
:10115000F781E02D06C0DC01ED91FC910084F18562
:10116000E02D099485ED8093BC008091BC0084FD46
:10117000FCCF10923F0508954091B602262F30E033
:10118000240F311D21323105DCF420913F0524303C
:10119000C9F4FC0180E090E0861758F43091B60263
:1011A0002191DC01AC56BD4FA30FB11D2C930196CC
:1011B000F3CF8091B602680F6093B60280E0089585
:1011C00081E0089582E0089508958FEF9FEF0895DC
:1011D0008FEF9FEF08958091930290E09195819514
:1011E00091090895CF92DF92EF92FF920F931F9390
:1011F000CF93DF937C01262F972F8A0180914005A2
:10120000882391F0C62FD72F6E01C40ED51ECC15A2
:10121000DD0571F06991D701ED91FC910190F081AC
:10122000E02DC7010995F3CF642F822F0E94BC08DF
:10123000C801DF91CF911F910F91FF90EF90DF9048
:10124000CF900895CF93DF931F92CDB7DEB7698318
:10125000209140052223D1F020916205203240F0F8
:1012600021E030E0FC013383228380E090E015C070
:1012700080914105E82FF0E0EE5BFA4F9981908371
:101280008F5F809341058093620505C061E0CE01C8
:1012900001960E94BC0881E090E00F90DF91CF9111
:1012A0000895CF93DF93EC01613089F050F0623004
:1012B000E1F0633061F561E08B810E945F1360E0D3
:1012C00019C061E08B810E945F1360E005C060E09F
:1012D0008B810E945F1361E08C810E945F1361E04B
:1012E0008D810E945F1360E00DC060E08B810E94E1
:1012F0005F1361E08C810E945F1360E08D810E942A
:101300005F1361E08E81DF91CF910C945F13DF91C9
:10131000CF910895CF93DF93EC01613049F030F025
:10132000623061F06330A1F460E009C060E001C0A8
:1013300061E08B810E945F1361E005C061E08B81F9
:101340000E945F1360E08C81DF91CF910C945F135A
:10135000DF91CF9108951F93CF93DF93EC0111E0BC
:1013600020E030E0A9016F85788989899A890E94F7
:10137000353318160CF010E0612F8C810E945F133A
:1013800061E08B810E945F1360E08B81DF91CF91E0
:101390001F910C945F138F929F92AF92BF92CF9246
:1013A000DF92EF92FF920F931F93CF93DF93EC01A5
:1013B0008B859C85AD85BE850F81188529853A85ED
:1013C000BC01CD01601B710B820B930B09F4D0C0E3
:1013D0008AF00E94BE2F9B01AC010E9444312F89EC
:1013E000388D498D5A8D0E941D300E9448336B0103
:1013F0007C011BC090958095709561957F4F8F4FB4
:101400009F4F0E94BE2F9B01AC010E9444312F8947
:10141000388D498D5A8D0E941D300E9448336B01D2
:101420007C01F7FAF094F7F8F0948F849888A988F3
:10143000BA88A5019401C701B6010E943533181678
:101440000CF043C020E030E0A901C501B4010E94C6
:10145000B72F81110BC06F89788D898D9A8D9B0173
:10146000AC010E9444310E9448331BC0A501940185
:101470006F89788D898D9A8D0E9427326B017C014E
:1014800020E030E0A9010E943533181624F0F7FA65
:10149000F094F7F8F094A7019601C501B4010E94F9
:1014A00044317B018C01BB88CC88DD88CE892B2D13
:1014B0003C2D4D2D5C2F0E94353318160CF05DC06D
:1014C0003B2D7C2D8D2D9C2F5FC0A5019401C70164
:1014D000B6010E94B72F87FF54C020E030E0A90179
:1014E000C501B4010E94B72F811111C06F89788D99
:1014F000898D9A8D9B01AC010E9444310E94483332
:101500006B017C01F7FAF094F7F8F0941DC0A50187
:1015100094016F89788D898D9A8D0E9427326B0195
:101520007C0120E030E0A9010E943533181624F038
:10153000F7FAF094F7F8F094A7019601C501B40109
:101540000E9443316B017C018B889C88AD88BE88EA
:10155000B7FAB094B7F8B094A5019401C701B601E9
:101560000E94B72F87FF0DC0382D792DC5010CC003
:1015700030E070E080E090E007C03E2D7F2DC80194
:1015800003C03C2D7D2DC701C32ED72E7C01C70182
:10159000B601DF91CF911F910F91FF90EF90DF90F7
:1015A000CF90BF90AF909F908F90089561E0809111
:1015B0004C0490914D040C945F1D62E080914C04AA
:1015C00090914D040C945F1D6F927F928F929F9229
:1015D000AF92BF92CF92DF92EF92FF920F931F9341
:1015E000CF93DF935C017B016A018901FC01848058
:1015F00095808AE8682E84E0782ED0E0CFEFF30162
:10160000848195818815990539F4B501C3010E943B
:101610001626892B09F4CD2FDF5FF6E06F0E711CC3
:10162000D13169F786E0C89FF0011124E35DFD4FD9
:10163000F182E082D382C28215830483DF91CF914D
:101640001F910F91FF90EF90DF90CF90BF90AF90E0
:101650009F908F907F906F900895CF92DF92EF923E
:10166000FF920F931F93CF93DF937C01FC01C48003
:10167000D5800AE814E0C0E0DFEFF80184819581AD
:101680008C159D0539F4B701C8010E941626892BD7
:1016900009F4DC2FCF5F0A5F1F4FC13171F78D2F27
:1016A00090E0DF91CF911F910F91FF90EF90DF902D
:1016B000CF9008953F924F925F926F927F928F9258
:1016C0009F92AF92BF92CF92DF92EF92FF920F93D1
:1016D0001F93CF93DF93880F991F880F991FEC01F9
:1016E0002397242F267030E035952795C20FD31FFE
:1016F0004170F42E60EEC62E62E0D62E00E010E0BF
:10170000EE24E3947AE0372E0730110509F4DEC0A9
:10171000F601819191916F01C817D90709F0D3C0E3
:10172000F0922C0210932B0200932A02E0922902DD
:10173000409130045091310460913204709133042F
:1017400080912C0490912D04A0912E04B0912F042F
:10175000481759076A077B0709F493C00E94411490
:101760004B015C014091400450914104609142045E
:10177000709143048091440490914504A0914604E3
:10178000B0914704840F951FA61FB71F88159905B0
:10179000AA05BB0508F075C040903404509035048C
:1017A000609036047090370420E030E0A901C30156
:1017B000B2010E943533181664F480912C04909184
:1017C0002D04A0912E04B0912F040196A11DB11DEE
:1017D00014C020E030E0A901C301B2010E94B72F7C
:1017E00087FF13C080912C0490912D04A0912E04AA
:1017F000B0912F040197A109B10980932C04909313
:101800002D04A0932E04B0932F0460912C046370D8
:1018100085E294E00E948B088092440490924504F3
:10182000A0924604B092470485E294E00E94CB095E
:101830009B01AC01609334047093350480933604AB
:101840009093370460E070E08AE794E40E942732C6
:101850004B015C0120E030E0A9010E9435331816ED
:101860001CF4C501B40103C0C501B40190580E9425
:10187000A03260934004709341048093420490939B
:10188000430480912902882389F0E0922602809106
:1018900027029091280297FF07C00A979093280289
:1018A0008093270230920001109229028091270232
:1018B0009091280297FF03C01092010104C0892B68
:1018C00011F0E09201010F5F1F4F1ECFDF91CF910A
:1018D0001F910F91FF90EF90DF90CF90BF90AF904E
:1018E0009F908F907F906F905F904F903F90089562
:1018F0001F920F920FB60F9211240F900FBE0F90F0
:101900001F9018951F920F920FB60F9211242F93CC
:101910003F934F935F936F937F938F939F93AF9377
:10192000BF93EF93FF938091B900887F803609F4CD
:101930009CC068F5883209F45BC090F4803109F4EA
:1019400054C038F4882309F4F6C0883009F44DC037
:10195000F6C0883109F44CC0803209F45DC0EFC094
:10196000803409F468C048F4803309F455C08833E2
:1019700009F0E5C080933D05D8C0803509F44FC01B
:10198000883509F45DC0883409F0D9C0D6C08839DB
:1019900009F4C7C0A8F4883709F467C038F488365A
:1019A00009F463C0803709F460C0C9C0883809F4FD
:1019B000B8C0803909F45FC0803809F0C0C05BC08E
:1019C000803B09F486C038F4803A09F466C0883A4E
:1019D00009F47FC0B4C0803C09F4A7C0883C09F476
:1019E000A4C0883B09F48AC0AAC080911A0510C01F
:1019F00090913C0580913B05981770F5E0913C056E
:101A000081E08E0F80933C05F0E0E55EFA4F808127
:101A10008093BB0085EC86C080933D058EC0E0912D
:101A20003C0581E08E0F80933C058091BB00F0E087
:101A3000E55EFA4F808390913C0580913B056EC036
:101A4000E0913C0581E08E0F80933C058091BB00C6
:101A5000F0E0E55EFA4F808380913E0581116DC014
:101A600081E08093190584EA61C083E080933F059B
:101A70001092DA02CFCF8091DA02803208F051C0A2
:101A8000E091DA0281E08E0F8093DA028091BB0050
:101A9000F0E0E654FD4F8083BDCF85EC8093BC0021
:101AA00010923F058091DA02803230F4E091DA0240
:101AB000F0E0E654FD4F10826091DA0270E0E091B0
:101AC000B802F091B9028AEB92E009951092DA021D
:101AD00036C084E080933F051092B7021092B602A0
:101AE000E091B402F091B50209958091B60281119E
:101AF00005C081E08093B60210929402E091B70293
:101B000081E08E0F8093B702F0E0EC56FD4F8081AC
:101B10008093BB009091B7028091B602981708F4A9
:101B200079CF85E88093BC000AC085EC8093BC0027
:101B300010923F0504C010923D050E94B208FF912B
:101B4000EF91BF91AF919F918F917F916F915F9135
:101B50004F913F912F910F900FBE0F901F901895AE
:101B6000BF92CF92DF92EF92FF920F931F93CF938A
:101B7000DF9300D000D0CDB7DEB78C01B62EBA010E
:101B8000550F880B990B0E94BE2F2BED3FE049E4C7
:101B900050E40E941D3020E030E044E353E40E9412
:101BA00027320E9422329B01AC01B801110F880B31
:101BB000990B29833A834B835C830E94BE2F6B0170
:101BC0007C016B2D70E080E090E00E94BE2F2981A7
:101BD0003A814B815C810E941D309B01AC01C701A1
:101BE000B6010E9444310E949932CB010F900F90B0
:101BF0000F900F90DF91CF911F910F91FF90EF9079
:101C0000DF90CF90BF900895BF92CF92DF92EF9276
:101C1000FF920F931F93CF93DF9300D000D0CDB7E7
:101C2000DEB78C01B62EBA01550F880B990B0E94B6
:101C3000BE2F2BED3FE049E450E40E941D3020E030
:101C400030E044E353E40E9427320E9422329B0199
:101C5000AC01B801110F880B990B29833A834B8390
:101C60005C830E94BE2F6B017C016B2D70E080E0D5
:101C700090E00E94BE2F29813A814B815C810E94B5
:101C80001D309B01AC01C701B6010E9444310E9486
:101C90009932CB010F900F900F900F90DF91CF9161
:101CA0001F910F91FF90EF90DF90CF90BF9008951C
:101CB0005F926F927F928F929F92AF92BF92CF92DC
:101CC000DF92EF92FF920F931F93CF93DF934C011C
:101CD0005B01542E122FC090F304D12CAC01652D62
:101CE000C6010E94040E3C01C091F204D0E0699646
:101CF000A401652DCE010E94B00D4C01A501612FFC
:101D0000C6010E94040E6C01A501612FCE010E9444
:101D1000B00D402F50E08C01040F151F480D591DC8
:101D20009601B30186EF94E00E943121DF91CF91BB
:101D30001F910F91FF90EF90DF90CF90BF90AF90E9
:101D40009F908F907F906F905F9008952F923F9219
:101D50004F925F926F927F928F929F92AF92BF92BB
:101D6000CF92DF92EF92FF920F931F93CF93DF9367
:101D7000CDB7DEB76A970FB6F894DEBF0FBECDBF02
:101D8000182F1B861A861D861C861F861E864AE013
:101D9000CE0101966C01BC0181E090E00E948D2F84
:101DA000F60101900020E9F73197AF014C195D0968
:101DB000B601CE010A960E944626112351F041E059
:101DC00050E067EE71E0CE010A960E9446261E8A18
:101DD00002C091E09E8B8E89E82FF0E0EE0FFF1F8E
:101DE000E45FFE4F60817181072E000C880B990B18
:101DF0000E94BE2F20E030E048E455E40E942732E4
:101E000020E030E044EB53E40E941D309B01AC0124
:101E100060E070E084EB92E40E9443314B015C018E
:101E200042E00E94182768EA71E082E393E00E9492
:101E3000BA26C501B4010E9499322B013C0198E6F3
:101E4000292E332433942418350820E1E22E24E887
:101E5000F22E0DEF29E64BE4B101C1010E94580EAC
:101E600003E029E64BE4B101C1010E94580EBE0116
:101E7000665F7F4FCE0140960E948B2642E0C501EF
:101E8000B4010E94182768EA71E082E393E00E949F
:101E9000BA26BE01605F7F4FC6010E948B2668E5AF
:101EA000C6010E942D0B5C01C6010E948626BE0160
:101EB000605F7F4FC6010E948B2669E5C6010E94C4
:101EC0002D0B4C01C6010E948626A114B10419F005
:101ED0008114910401F58091F304A20169E690E078
:101EE0000E94040E5C018091F204A20169E690E078
:101EF0000E94B00D4C01BE01605F7F4FC6010E9481
:101F00008B2622E030E0A401B501C6010E94E40A5C
:101F1000C6010E9486268091F204B401681B7109F3
:101F2000072E000C880B990B0E94BE2F9B01AC0161
:101F30008091F304B501681B7109072E000C880B12
:101F4000990B2F8B388F498F5A8F0E94BE2F2F8964
:101F5000388D498D5A8D0E94C33120EE3EE245E610
:101F600052E40E941D300E9499329B0177FF02C00B
:101F700028593E4FC9016DE270E00E94BA336111E9
:101F800002C082EE01C081EF2401481A5108E12C01
:101F9000F12C04E010E02EE130E04EE150E0B2011F
:101FA000C501815F91090E94702575019FEEE91AB4
:101FB000F108A2014250510900E010E024E130E0B4
:101FC000B70186EF94E00E94AB07A201475E5F4F26
:101FD00024E130E0B70186EF94E00E94AB073201C4
:101FE00082E0680E711CB501635F710924E130E085
:101FF000A30186EF94E00E94B707B501685D7109FF
:1020000024E130E0A30186EF94E00E94B70741E0AD
:10201000B301C7010E94B42485010C5D110942E09F
:10202000B301C8010E94B42495E1490E511C44E05B
:10203000B201C8010E94B42448E0B201C7010E9465
:10204000B4248AE0A80EB11CB0920305A092020548
:102050009AE0890E911C90920505809204058AEF02
:1020600097E00E949424109209051092080510929E
:102070000705109206054C895D896889798986EF84
:1020800094E00E944B2380E090E00E949424CE01D3
:1020900040960E9486268E898F5F8E8B873009F04E
:1020A0009ACECE010A960E9486266A960FB6F894BA
:1020B000DEBF0FBECDBFDF91CF911F910F91FF907B
:1020C000EF90DF90CF90BF90AF909F908F907F90D8
:1020D0006F905F904F903F902F9008952F923F9276
:1020E0004F925F926F927F928F929F92AF92BF9228
:1020F000CF92DF92EF92FF920F931F93CF93DF93D4
:1021000000D000D000D0CDB7DEB7382E2091FE042D
:102110003091FF04C901859797FD039695958795A2
:1021200095958795582E492E10920905109208050D
:1021300010920705109206054AE8A42E44E0B42E3A
:10214000912C5EE0852E69E0662E712C73E0272EBF
:10215000280EC82CD12C391012C028E1E22E26EC12
:10216000F22E04E110E0252D342D46E050E0B601BA
:1021700086EF94E00E94051C88E098E011C09FEE75
:10218000E92E9BE7F92E04E110E0252D342D46E0E1
:1021900050E0B60186EF94E00E94051C81E098E0D3
:1021A0000E949424B501CE0101960E948B2621E065
:1021B00030E046E050E0B601CE0101960E94E40A0C
:1021C000CE0101960E948626E2E0CE0ED11CD0926E
:1021D0000305C09202057092050560920405F501A1
:1021E000448155816081718186EF94E00E944B2388
:1021F00080E090E00E9494249394F4E09F1629F0EC
:10220000820C86E0A80EB11CA4CF2091000530916D
:102210000105205231094091FE045091FF044C50B9
:10222000510988E1E82E86ECF82E03E010E06AE11F
:1022300070E086E090E00E947025209100053091CA
:102240000105265231094091FE045091FF0442518C
:102250005109E12CF12C6DE170E089E090E00E94E1
:10226000702526960FB6F894DEBF0FBECDBFDF9166
:10227000CF911F910F91FF90EF90DF90CF90BF9083
:10228000AF909F908F907F906F905F904F903F9016
:102290002F9008956F927F928F929F92AF92BF92EC
:1022A000CF92DF92EF92FF920F931F93CF93DF9322
:1022B000162FEC01DD278091F204BE01680F711D1D
:1022C0008091F30420E130E04BE450E090E00E9484
:1022D0003D248091F204BE01680F711D8091F304CA
:1022E00020E030E047E450E090E00E943D2481E0AF
:1022F0000E94A60E8091F0049091F104EC01CA5561
:10230000D10928E631E0281B390BC217D3070CF49A
:10231000EC014E018BE9881A8EEF980A6E0187EB6B
:10232000C80ED11C3E0183E0680E711C5E0181EB7A
:10233000A80EB11CE12CF12C00E024E444E4B60129
:10234000C4010E94580E01E024E444E4B601C40133
:102350000E94580E00E024E444E4B501C3010E9449
:10236000580E01E024E444E4B501C3010E94580E74
:1023700000E024E444E4B301C4010E94580E24E4C4
:1023800044E4B501C6010E94580E40E050E060E40C
:1023900070E0CE0188599E4F0E946C2440E050E0CE
:1023A00060E470E0CE018C549F4F0E946C24812F1A
:1023B000DF91CF911F910F91FF90EF90DF90CF9021
:1023C000BF90AF909F908F907F906F900C94A60ECF
:1023D0001092FA0280E00E946E1060E080E090E0CF
:1023E0000C944A11FC01918D828D981761F0828DB9
:1023F000DF01A80FB11D5D968C91928D9F5F9F7339
:10240000928F90E008958FEF9FEF0895FC01918DDA
:10241000828D981731F0828DE80FF11D858D90E047
:1024200008958FEF9FEF0895FC01918D228D892FE4
:1024300090E0805C9F4F821B91098F7399270895CC
:1024400082E393E00E94141221E0892B09F420E03A
:10245000822F0895FC01848DDF01A80FB11DA35ABE
:10246000BF4F2C91848D90E001968F739927848FB4
:10247000A689B7892C93A089B1898C9180648C93AB
:10248000938D848D981306C00288F389E02D808196
:102490008F7D80830895EF92FF920F931F93CF93C8
:1024A000DF93EC0181E0888F9B8D8C8D981305C0A4
:1024B000E889F989808185FD24C0F62E0B8D10E016
:1024C0000F5F1F4F0F731127E02E8C8DE8120CC089
:1024D0000FB607FCFACFE889F989808185FFF5CF2F
:1024E000CE010E942A12F1CF8B8DFE01E80FF11D63
:1024F000E35AFF4FF0820B8FEA89FB89808180626B
:1025000007C0EE89FF896083E889F989808180644A
:10251000808381E090E0DF91CF911F910F91FF9038
:10252000EF900895CF93DF93EC01888D8823C9F055
:10253000EA89FB89808185FD05C0A889B9898C91CC
:1025400086FD0FC00FB607FCF5CF808185FFF2CF67
:10255000A889B9898C9185FFEDCFCE010E942A12FE
:10256000E7CFDF91CF91089580E090E0892B29F0AB
:102570000E94201281110C94000008950895429841
:102580008BB1962F907D8F72892B8BB985B16F722D
:10259000807D682B65B94198419A429A8BB1942FFE
:1025A000907D8F72892B8BB985B14F72807D482BBE
:1025B00045B94198419A08950E94EE351F920F92B5
:1025C0000FB60F9211242F933F934F935F936F9306
:1025D0007F938F939F93AF93BF93EF93FF9382E388
:1025E00093E00E942A12FF91EF91BF91AF919F91CA
:1025F0008F917F916F915F914F913F912F910F90AC
:102600000FBE0F901F9018951F920F920FB60F924A
:1026100011242F938F939F93EF93FF93E0914203A5
:10262000F09143038081E0914803F091490382FDDA
:1026300012C0908180914B038F5F8F7320914C0368
:10264000821751F0E0914B03F0E0EE5CFC4F958F68
:1026500080934B0301C08081FF91EF919F918F91F7
:102660002F910F900FBE0F901F901895833081F01F
:1026700028F4813099F08230A1F008958730A9F0D4
:102680008830B9F08430D1F4809180008F7D03C010
:10269000809180008F7780938000089584B58F7734
:1026A00002C084B58F7D84BD08958091B0008F777E
:1026B00003C08091B0008F7D8093B00008951F9378
:1026C000CF93DF93282F30E0F901E751F64F849143
:1026D000F901EB52F64FD491F901EF53F64FC49143
:1026E000CC23C9F0162F81110E943613EC2FF0E095
:1026F000EE0FFF1FED55F64FA591B4918FB7F894EB
:10270000111105C09C91ED2FE095E92302C0EC91D9
:10271000ED2BEC938FBFDF91CF911F910895CF9355
:10272000DF9390E0FC01EB52F64F2491FC01EF5354
:10273000F64F8491882361F190E0880F991FFC0186
:10274000E355F64FC591D491FC01ED55F64FA59197
:10275000B491611109C09FB7F894888120958223B4
:102760008883EC912E230BC0623061F49FB7F894FC
:102770003881822F809583238883EC912E2B2C9394
:102780009FBF06C08FB7F894E8812E2B28838FBF98
:10279000DF91CF9108958E3008F08E50877080645D
:1027A00080937C0080917A00806480937A0080918D
:1027B0007A0086FDFCCF809178002091790090E02E
:1027C000922B08953FB7F89480910B0390910C03DE
:1027D000A0910D03B0910E0326B5A89B05C02F3F15
:1027E00019F00196A11DB11D3FBFBA2FA92F982F37
:1027F0008827820F911DA11DB11DBC01CD0142E0B2
:10280000660F771F881F991F4A95D1F708958F92F9
:102810009F92AF92BF92CF92DF92EF92FF926B01A5
:102820007C010E94E2134B015C01C114D104E1045C
:10283000F104F1F00E94E213DC01CB01881999093F
:10284000AA09BB09883E9340A105B10570F321E0B8
:10285000C21AD108E108F10888EE880E83E0981EBC
:10286000A11CB11CC114D104E104F10419F7DDCF9E
:10287000FF90EF90DF90CF90BF90AF909F908F90A0
:1028800008952FB7F8946091070370910803809121
:10289000090390910A032FBF08951F920F920FB65C
:1028A0000F9211242F933F938F939F93AF93BF93D6
:1028B0008091070390910803A0910903B0910A0346
:1028C0003091060323E0230F2D3720F40196A11D3C
:1028D000B11D05C026E8230F0296A11DB11D20934E
:1028E00006038093070390930803A0930903B09312
:1028F0000A0380910B0390910C03A0910D03B091FA
:102900000E030196A11DB11D80930B0390930C0340
:10291000A0930D03B0930E03BF91AF919F918F9140
:102920003F912F910F900FBE0F901F9018951F92FF
:102930000F920FB60F9211242F933F934F935F93F3
:102940006F937F938F939F93AF93BF93EF93FF9377
:10295000E0910401F09105010995FF91EF91BF917C
:10296000AF919F918F917F916F915F914F913F9127
:102970002F910F900FBE0F901F9018951F920F92DE
:102980000FB60F9211242F933F934F935F936F9342
:102990007F938F939F93AF93BF93EF93FF93E091B8
:1029A0000201F09103010995FF91EF91BF91AF9161
:1029B0009F918F917F916F915F914F913F912F9157
:1029C0000F900FBE0F901F901895CF92DF92EF924D
:1029D000FF92439842988BB1962F907D8F72892BEE
:1029E0008BB985B16F72807D682B65B94198419A2A
:1029F000429A83E290E0FC013197F1F77BB1C52E5A
:102A0000DD24EE24FF246C2D607D7F72762B7BB954
:102A100065B17C2D7F72607D672B65B94198419AC5
:102A2000FC013197F1F77BB16A01EE24FF246C2D94
:102A3000607D7F72762B7BB965B17C2D7F72607D66
:102A4000672B65B94198419AFC013197F1F77BB149
:102A5000C32ED42EE52EFF246C2D607D7F72762B45
:102A60007BB965B17C2D7F72607D672B65B941981C
:102A7000419A0197F1F78BB1922F907D8F72892B3C
:102A80008BB985B12F72807D282B25B94198419A49
:102A9000439AFF90EF90DF90CF90089542988BB1CA
:102AA000962F907D8F72892B8BB985B16F72807D47
:102AB000682B65B94198419A429A8BB1932F907DCA
:102AC0008F72892B8BB985B13F72807D382B35B9D8
:102AD0004198419A42988BB1942F907D8F72892BA7
:102AE0008BB985B14F72807D482B45B94198419A89
:102AF000429A8BB1922F907D8F72892B8BB985B1C1
:102B00002F72807D282B25B94198419A08954298CB
:102B10008BB1972F907D8F72892B8BB985B17F7286
:102B2000807D782B75B94198419A8BB1962F907D15
:102B30008F72892B8BB985B16F72807D682B65B9D7
:102B40004198419A429A8BB1952F907D8F72892B33
:102B50008BB985B15F72807D582B55B94198419AE8
:102B60008BB1942F907D8F72892B8BB985B14F7269
:102B7000807D482B45B94198419A0895EF92FF9284
:102B80000F931F93CF93DF93EC010E94031E439892
:102B90008A8D811122C0ED89E150E33040F4F0E0EC
:102BA000EE0FFF1FE75DFE4F4081518102C040E301
:102BB00050E163E070E0CE010E9487150A851B8515
:102BC00001501109288539852150310940E050E034
:102BD00060E070E0CE010E943F1B8A8D813089F455
:102BE000ED89E150E33028F4F0E0EA5DFE4F4081EA
:102BF00001C040E066E1CE010E94BF12CE010E94FA
:102C0000261B8A8D823039F58D89813071F050F024
:102C1000823029F0833059F458E2E52E08C068E488
:102C2000E62E05C048E8E42E02C038EEE32E4E2D15
:102C300066E3CE010E94BF120A851B85015011096F
:102C4000288539852150310940E050E060E070E08E
:102C5000CE010E943F1B8A8D833031F58D898130F2
:102C600069F048F0823029F0833051F420E6F22EEA
:102C700007C0F12C05C090ECF92E02C080EAF82EB6
:102C80004F2D66E3CE010E94BF120A851B850150BD
:102C90001109288539852150310940E050E060E074
:102CA00070E0CE010E943F1BDF91CF911F910F91E9
:102CB000FF90EF900895AF92BF92CF92DF92EF9284
:102CC000FF920F931F93CF93DF93EC017B016A0177
:102CD000B22EA32E77FDC4C057FDC2C0888599854A
:102CE000681779070CF0BCC08A859B85481759077F
:102CF0000CF0B6C043988A8D811135C08D89823021
:102D000059F08330B1F08130D1F48FEE90E0841B24
:102D1000950B6B017C0113C08FEE90E09C01261B8C
:102D2000370B79018FE391E09C01241B350B69017E
:102D300006C08FE391E0861B970B7A016C01A70117
:102D400060E270E0CE010E948715A60161E270E0AA
:102D5000CE010E9487154B2D5A2D62E270E0CE0104
:102D60000E9487157CC0813009F041C0ED89E15097
:102D7000E33028F4F0E0ED5DFE4F408101C040E01B
:102D800066E1CE010E94BF12970143E062E0CE01EE
:102D90000E944E15960147E066E0CE010E944E1556
:102DA00042988BB18F728BB985B1807D826285B973
:102DB0004198419A429A8BB19A2D907D8F72892BBE
:102DC0008BB985B19A2D9F72807DA92EA82AA5B8AE
:102DD0004198419A8BB19B2D907D8F72892B8BB935
:102DE00085B19B2D9F72807DB92EB82A35C0825047
:102DF0008230A8F50A851B8501501109288539857F
:102E000021503109CE010E943F1B439842988BB15B
:102E10008F728BB985B1807D8C6285B94198419A5A
:102E2000429A8BB19A2D907D8F72892B8BB995B177
:102E30008A2D8F72907DA82EA92AA5B84198419A13
:102E40008BB19B2D907D8F72892B8BB995B18B2D7A
:102E50008F72907DB82EB92AB5B84198419A439A9D
:102E6000DF91CF911F910F91FF90EF90DF90CF9066
:102E7000BF90AF900895EF92FF920F931F93CF935F
:102E8000DF937C01EB01FC01828D811124C0258937
:102E90002150233078F430E0F901E05EFE4F80816C
:102EA000482F50E0220F331FF901E65EFE4F0081EC
:102EB000118104C000E010E040E050E0439860E27F
:102EC00070E0C7010E948715A80161E270E0C701A8
:102ED0000E94871513C08150833080F4F70102856A
:102EE000138501501109208531852150310940E0B9
:102EF00050E060E070E0C7010E943F1B20E03CE230
:102F000041E050E0BE01C701DF91CF911F910F91C9
:102F1000FF90EF900C94361A08951092310380912F
:102F2000F5028336B8F540912D0350912E03609140
:102F30002F03709130034093290350932A03609329
:102F40002B0370932C03843081F058F4833011F5F7
:102F5000409325035093260360932703709328031F
:102F600019C08650833050F015C040932103509310
:102F7000220360932303709324030CC080912003E9
:102F8000882341F040931C0350931D0360931E035C
:102F900070931F0310921B0310921A0310921903CF
:102FA0001092180310921703109216031092150333
:102FB00080E880931403F89480911303882379F0B8
:102FC0002091EE023091EF0291E080E040911103F8
:102FD000509112034217530721F090E002C090E095
:102FE00080E090930F03809310031092EF021092F1
:102FF000EE021092120310921103789410921303B0
:1030000087E098E190931804809317040895F8944A
:103010008091EE029091EF02209111033091120302
:103020008217930711F4789408958091EE0290919D
:10303000EF02821B930B029748F078948DE897E19A
:10304000909318048093170487E625C02091F0021E
:103050003091F1028091F2029091F3024091EE02E0
:103060005091EF0250931203409311037894B901E9
:103070006453710941E06D30710580F040E02A55DC
:103080003109273B364250F08DE897E190931804C0
:103090008093170488E68093F50208959C012453D9
:1030A00031092D30310530F08A559109873B964220
:1030B00068F0EACF442361F080910F0390911003F0
:1030C00001969093100380930F030895442391F089
:1030D000F8948091F2029091F3029093F102809320
:1030E000F00281E08093F402789410921003109221
:1030F0000F03089580910F03909110030A97ACF38A
:1031000087E898E190931804809317040895F89441
:103110008091EE029091EF02209111033091120301
:103120008217930711F4789408958091EE0290919C
:10313000EF02821B930B029748F078948DE897E199
:10314000909318048093170487E672C04091F002B0
:103150005091F1022091F2023091F3028091EE023F
:103160009091EF0290931203809311037894BA0127
:103170006453710991E06D30710570F090E04A552B
:103180005109473B564240F08DE897E1909318046F
:103190008093170488E64CC081E0A901445351098B
:1031A0004D30510530F080E02A553109273B364239
:1031B00058F79813E9CF80911403882381F099235D
:1031C00041F0E0911503F0E0EA5EFC4F9081982B0E
:1031D000908390E09595879580931403089580914E
:1031E000150321E0280F2093150330E830931403D2
:1031F0009923A9F091E0909313038250843038F41E
:103200008BE199E1909318048093170408958DE859
:1032100097E1909318048093170489E609C026303B
:1032200048F08DE897E190931804809317048AE69C
:103230008093F50208951F93CF93DF939091170326
:10324000809116038927C0911503C43068F09091CE
:1032500018038927C43041F0909119038927C5309C
:1032600019F090911A038927EC2FF0E0EB5EFC4FE8
:103270009081891741F08DE897E19093180480932D
:10328000170484E6B8C00E94411460932D03709324
:103290002E0380932F039093300310922003C330AA
:1032A00009F07DC01091170380911603111115C00C
:1032B0008F3F49F48DE897E19093180480931704A9
:1032C000C093F502A3C0811108C08DE897E19093E7
:1032D00018048093170484E08EC0982F907C903857
:1032E000D1F517FF38C0C12FD0E0C095D095C07779
:1032F000DD27CC0FDD1FCC0FDD1F8F73C80FD11D55
:103300000E94F72521E0C817D90709F020E0209393
:103310002003211107C0CF33D10521F08091DD02B8
:10332000882389F08091310381110DC0E091DE0284
:10333000F091DF02309739F0412F477013FB662779
:1033400060F9CE0109958DE897E190931804809378
:10335000170487E050C087FF08C08DE897E190937D
:1033600018048093170485E646C0107C103441F0A1
:103370008DE897E1909318048093170486E63BC08C
:1033800091E020916605821390E0909320038DE8F0
:1033900097E1909318048093170486E02CC0C43002
:1033A00069F590911603892F807C803839F58091DA
:1033B0001703282F2578213009F5C82FC670D0E0D3
:1033C000DC2FCC27807724E0829FC00DD11D1124F3
:1033D0009F73C90FD11D0E94F72521E0C817D90797
:1033E00009F020E0209320038DE897E190931804E2
:1033F0008093170488E08093F50208C08DE897E178
:1034000090931804809317041092F502DF91CF91E6
:103410001F9108950E94E213A091F4024A2F50E0F8
:103420002091F6023091F702FB01E21BF30B9F01A2
:10343000FA01EE0FFF1FE051FD4F318320836093AF
:10344000F6027093F7028093F8029093F9022091AC
:10345000EE023091EF02240F351F3093EF022093DC
:10346000EE0281E08A278093F4020895CF92DF92E2
:10347000EF92FF920F931F9343984298FC01828D25
:10348000823069F0811109C08BB18F728BB985B11F
:10349000807D85B94198419A09C0833039F48BB158
:1034A0008F728BB985B1807D8C6206C08BB18F72B3
:1034B0008BB985B1807D826285B94198419A429AE3
:1034C0008BB1E72FE07D8F728E2B8BB985B1F72FF3
:1034D000FF72807D8F2B85B94198419A8BB1A62FC1
:1034E000A07D8F728A2B8BB985B1B62FBF72807D7C
:1034F0008B2B85B94198419A89019A010150110994
:10350000210931096801790186E0F694E794D7949E
:10351000C7948A95D1F7C60176137AC00197A0F0B7
:1035200060E14198419A4198419A4198419A419865
:10353000419A4198419A4198419A4198419A4198BB
:10354000419A615071F7EACF202F2F73215028F054
:103550004198419A4198419AF9CF439A1F910F910E
:10356000FF90EF90DF90CF9008956BB16F726E2B4C
:103570006BB965B1607D6F2B65B94198419A6BB1AC
:103580006F726A2B6BB965B1607D6B2B65B9419821
:10359000419A6BB16F726E2B6BB965B1607D6F2B09
:1035A00065B94198419A6BB16F726A2B6BB965B17D
:1035B000607D6B2B65B94198419A6BB16F726E2B30
:1035C0006BB965B1607D6F2B65B94198419A6BB15C
:1035D0006F726A2B6BB965B1607D6B2B65B94198D1
:1035E000419A6BB16F726E2B6BB965B1607D6F2BB9
:1035F00065B94198419A6BB16F726A2B6BB965B12D
:10360000607D6B2B65B94198419A715009F0ADCF3F
:10361000019710F070E1A9CF202F2F73215008F4EB
:103620009CCF8BB18F728E2B8BB985B1807D8F2B08
:1036300085B94198419A8BB18F728A2B8BB985B12C
:10364000807D8B2B85B94198419AE8CFCF93DF934A
:10365000EC014398288539852150310945E064E023
:103660000E944E152A853B852150310949E068E0CA
:10367000CE010E944E15439ADF91CF9108958F920B
:103680009F92AF92BF92CF92DF92EF92FF920F93F1
:103690001F93CF93DF93EC017A01690143982A8D40
:1036A00021115EC02D89223089F0233021F1213093
:1036B00081F52FEE30E0A901401B510B5B01490160
:1036C0008E189F08860164017B0113C02FEE30E045
:1036D000A9014C195D096901C61AD70A8FE391E067
:1036E0009C01201B310B8C010E191F09580146014A
:1036F0007901BA0110C02FE331E0A9014C195D092D
:103700005901A61AB70A470168018501B7017A0174
:1037100002C05A014B01AB0160E570E0CE010E948E
:103720008715A60161E570E0CE010E948715A7010B
:1037300062E570E0CE010E948715A80163E570E0A4
:10374000CE010E948715A40160E270E0CE010E94C4
:103750008715A50161E270E0CE010E94871547C080
:103760002130C1F49B0143E062E00E944E159701B5
:1037700047E066E0CE010E944E15960145E064E008
:10378000CE010E944E15980149E068E0CE010E94EA
:103790004E152DC02250223050F5CB01770FAA0BC9
:1037A000BB0BDC0199278827A601DD0C660B770B84
:1037B0009A01AB01282B392B4A2B5B2B6AE2CE01F5
:1037C0000E94E514C701FF0CAA0BBB0BDC01992773
:1037D0008827A801110F660B770B9A01AB01282BE4
:1037E000392B4A2B5B2B6BE2CE010E94E514439AE6
:1037F000DF91CF911F910F91FF90EF90DF90CF90CD
:10380000BF90AF909F908F9008958F929F92AF92AC
:10381000BF92CF92DF92EF92FF920F931F93CF93BD
:10382000DF93EC014701121613060CF06BC0101663
:1038300011060CF067C0A885B9856A177B070CF0E4
:1038400061C0CA84DB844C155D050CF05BC05B0174
:10385000A20EB31EC501019797FD54C07A01E00E78
:10386000F11EF7013197F7FD4DC077FF49C060E0C9
:1038700070E057FD02C0780102C040E050E08A17B6
:103880009B072CF0CD0101975D01A61AB70AEC1534
:10389000FD052CF0F60131977601E41AF50A8F0147
:1038A0009C01CE010E943F1B9701D5010E94CE339F
:1038B0009B01AC01B401CE010E94361A8A8D8111A0
:1038C00010C00A851B8501501109288539852150B2
:1038D000310940E050E060E070E0CE010E943F1B03
:1038E00011C0CE01DF91CF911F910F91FF90EF900A
:1038F000DF90CF90BF90AF909F908F900C94261B3D
:103900005901B7CFDF91CF911F910F91FF90EF90A9
:10391000DF90CF90BF90AF909F908F900895CF92FF
:10392000DF92EF92FF920F931F93CF93DF93EC01FF
:103930006801121613060CF04FC077FD4DC0888544
:103940009985681779070CF047C0EA85FB854E1703
:103950005F070CF041C07A01E20EF31E87010150AF
:10396000110917FD39C057FF35C040E050E00E1770
:103970001F0734F08F01015011097F01E41AF50A85
:103980009B01CE010E943F1B9701FF0C440B550B7E
:10399000B601CE010E94361A8A8D811110C00A85A7
:1039A0001B8501501109288539852150310940E0D6
:1039B00050E060E070E0CE010E943F1B0DC0CE01E0
:1039C000DF91CF911F910F91FF90EF90DF90CF90FB
:1039D0000C94261B7901CBCFDF91CF911F910F91D2
:1039E000FF90EF90DF90CF900895CF92DF92EF920B
:1039F000FF920F931F93CF93DF93EC016801121690
:103A000013060CF04EC057FD4CC08A859B854817A5
:103A100059070CF046C0E885F9856E177F070CF052
:103A200040C07B01E20EF31EC701019797FD39C02C
:103A300077FF35C060E070E08E179F072CF0CF0154
:103A400001977F01E61AF70A8A019C01CE010E94C4
:103A50003F1B9701FF0C440B550BB601CE010E9492
:103A6000361A8A8D811110C00A851B8501501109F3
:103A7000288539852150310940E050E060E070E050
:103A8000CE010E943F1B0DC0CE01DF91CF911F914F
:103A90000F91FF90EF90DF90CF900C94261B79014F
:103AA000CBCFDF91CF911F910F91FF90EF90DF90DF
:103AB000CF900895682F89E194E00C9422091F9318
:103AC000CF93DF93EC018C85613011F48F5F01C0DF
:103AD00081508C872C852F73822F90E0203148F401
:103AE000EFE3F1E0E81BF90B4081FC01E15DFE4FE3
:103AF00020C030EF320F303138F4FC01E15EFE4F70
:103B00004081EFE4F1E013C030EE320F303148F481
:103B1000EFE5F1E0E81BF90B4081FC01E15FFE4FAE
:103B200008C0FC01E150FF4F4081EFE6F1E0E81BE7
:103B3000F90B10812C8780E1489FA00111246C8132
:103B40008D859E850E943C2380E1189FA001112451
:103B50006F818D859E850E943C238C85803110F479
:103B600013E001C010E090EF980F903108F4166058
:103B700090EE980F903108F41C608053803108F467
:103B800019608D859E8520E030E010FF03C040E085
:103B900050E102C040E050E06E81CB960E94B0221E
:103BA0008D859E8520E030E011FF03C040E050E1AC
:103BB00002C040E050E06885CB960E94B0228D851F
:103BC0009E8520E030E012FF03C040E050E102C0DB
:103BD00040E050E06D81CB960E94B0228D859E859D
:103BE00020E030E013FF03C040E050E102C040E0BD
:103BF00050E06985CB960E94B0228C85DF91CF91F1
:103C00001F9108950895FC016370658B84819581EF
:103C100026813781613039F0633029F091878087C0
:103C20003387228708953187208793878287089575
:103C30002F923F924F925F926F927F928F929F92BC
:103C4000AF92BF92CF92DF92EF92FF920F931F93AA
:103C5000CF93DF93CDB7DEB76C970FB6F894DEBF86
:103C60000FBECDBF9C8F8B8F1B012A0118870F833E
:103C7000FE82ED82CA82DC0158964D915C91599783
:103C80004115510509F0B2C018968D919C91199774
:103C9000681779070CF096C11A968D919C911B9725
:103CA000481659060CF08EC1AC2CB12CCB01B6E0F5
:103CB000CB9E800D911D1124181619060CF082C19F
:103CC000C50133E0880F991F3A95E1F7840D951DE2
:103CD000181619060CF076C1AB8DBC8D57968C91D9
:103CE000811103C0203B08F02F5FAB8DBC8DED919F
:103CF000FC9111970680F781E02DCD012A8F09955F
:103D00002A8DB5E02B9F90011124610141011B8296
:103D1000F901E219F309FA87E9879201285F3F4F19
:103D20003C872B873B81353049F0E985FA85E80DE2
:103D3000F91DE350F64F4491498301C019823201C5
:103D40001201598150FF13C0AB8DBC8DED91FC91D8
:103D5000BA81B13031F40084F185E02D2F813885AE
:103D600019C00284F385E02DEF80F8841EC0ED8138
:103D7000FE812F813885E217F307F1F0AB8DBC8D02
:103D8000ED91FC91BA81B13059F40084F185E02DB8
:103D90002D813E81A301B4018B8D9C8D09950CC0B2
:103DA0000284F385E02DED80FE8085019501A1015F
:103DB000B6018B8D9C8D0995E981E695E983FFEF2E
:103DC0006F1A7F0A2A0C3B1C2B853C8562167306F2
:103DD00009F0B7CF3B813F5F3B834FEF841A940AD2
:103DE000CA0CDB1C363009F09DCFCAC0FA013496EC
:103DF0009491329765917491291BCB01B7E02B9F69
:103E0000800D911D1124FA01259134913A8B298B53
:103E1000FC0165907490FC01329634913D8331969B
:103E200044914B873296C490319614915A81523006
:103E300058F08C2C0C2C000C9908812F012E000CB2
:103E4000990B9C838B8304C01C821B82812C912C38
:103E5000AB8DBC8DED91FC9111970680F781E02D23
:103E6000CD010995BA81AB2EB12C8A9CC0018B9CE7
:103E7000900D9A9C900D1124FC01E20DF31DF88B1E
:103E8000EF871982912C812CEC2DCC0CFF0B91012A
:103E90002E0F3F1F3A87298761013D81C30ED11C38
:103EA000A6014E0F5F1F5F8B4E8BC201810F911DCC
:103EB00017FD9A95998F888F5B85851608F060C0ED
:103EC000882D90E04B815C81480F591F4A9D9001DD
:103ED0004B9D300D5A9D300D1124D901A40DB51DF7
:103EE000BE87AD87C984DA842F843888B981E98593
:103EF000BE1BBB8B288D398D280F391F3D8B2C8B1A
:103F00008B898C0D2E893F89C216D30699F1877053
:103F100041F4C3010196E989FA89E60DF71D9490F1
:103F20003C0197FE20C0AB8DBC8DED91FC91BA8118
:103F3000B13061F40084F185E02D2F8138854C8902
:103F40005D89B6018B8D9C8D09950DC00284F3852A
:103F5000E02DEF80F884850195014D855E85B101E6
:103F60008B8D9C8D0995990CEFEFCE1ADE0A2A0CE9
:103F70003B1CC6CF39814D81340F398383949CCF4C
:103F8000AB8DBC8DED91FC9111970288F389E02DEA
:103F9000CD016C960FB6F894DEBF0FBECDBFDF919A
:103FA000CF911F910F91FF90EF90DF90CF90BF9036
:103FB000AF909F908F907F906F905F904F903F90C9
:103FC0002F9009946C960FB6F894DEBF0FBECDBF4C
:103FD000DF91CF911F910F91FF90EF90DF90CF90E5
:103FE000BF90AF909F908F907F906F905F904F9019
:103FF0003F902F900895AF92BF92CF92EF92FF9291
:104000000F931F93CF93DF93EC01262F888D998D0B
:10401000009709F042C06A3069F42C898E859F852B
:1040200038E0239F800D911D11249F878E871D8668
:104030001C86ACC06D3009F4A9C08E898823C1F0FC
:104040003C898C859D8546E0349F800D911D11240F
:1040500048855985841795075CF01D861C868E85DA
:104060009F85E8E03E9F800D911D11249F878E87DC
:10407000EA88FB88088919894E855F856C857D856E
:10408000CC88CE010E94181E2C898C859D85F6E077
:104090002F9F800D911D112441C06A3079F41D8637
:1040A0001C862C89FC013696E4918E859F852E9F77
:1040B000800D911D11249F878E8768C06D3009F493
:1040C00065C0AC014C5F5F4FFA013491631708F48F
:1040D0005DC03196E491E61708F458C0FA014491A6
:1040E000362F341BFC013296A590B490F7E03F9F29
:1040F000A00CB11C1124F501329634913196E49153
:10410000332311F0E1110DC0F5013496E4912C89AF
:104110008C859D85E29F800D911D11249D878C8744
:1041200035C0F501359644915E89552311F16C89AE
:10413000E32FF0E0E40FF11D47FDFA956E9FD001EB
:104140006F9FB00D11244C855D854A0F5B1FE8857C
:10415000F9854E175F076CF01D861C86FC013696AC
:10416000E4918E859F856E9F800D911D11249F8700
:104170008E87EA88FB88088919894E855F856C855A
:104180007D85CC88CE010E94181EBECF81E090E0D4
:10419000DF91CF911F910F91FF90EF90CF90BF9043
:1041A000AF9008956F927F928F929F92AF92BF923D
:1041B000CF92DF92EF92FF920F931F93CF93DF93F3
:1041C000EC014B015A0169013801E881F98106804F
:1041D000F781E02D0995E881F9810684F785E02DC6
:1041E00087019601A501B401CE010995E881F98105
:1041F000A501460D571D415051090684F785E02D54
:104200009601B401CE010995E881F9810484F58510
:10421000E02D9301A501B401CE010995E881F98152
:10422000C80CD91CB601615071090484F585E02DD4
:104230009301A501CE010995E881F9810288F389EE
:10424000E02DCE01DF91CF911F910F91FF90EF9064
:10425000DF90CF90BF90AF909F908F907F906F90A6
:104260000994CF92DF92EF92FF920F931F93CF9317
:10427000DF9300D000D000D0CDB7DEB76C01DC01F9
:10428000ED91FC916217730789F4041715072CF45C
:10429000942F852FA801092F182F041B150B9801A7
:1042A0002F5F3F4F008CF18DE02D12C0401751075A
:1042B00009F5261737072CF4962F872FB901292FD8
:1042C000382F261B370B2F5F3F4F028CF38DE02DCD
:1042D0008701C601099526960FB6F894DEBF0FBE7A
:1042E000CDBFDF91CF911F910F91FF90EF90DF90A5
:1042F000CF9008950680F781E02D2D833E834B8378
:104300005C8369837A830995D601ED91FC910088DD
:10431000F189E02D2D813E814B815C8169817A811B
:10432000C6010995D601ED91FC910288F389E02D33
:10433000C60126960FB6F894DEBF0FBECDBFDF9143
:10434000CF911F910F91FF90EF90DF90CF90099444
:10435000EF92FF920F931F93DC01ED91FC91119767
:104360001A960D911C911B9718962D913C911997B7
:10437000048CF58DE02D7B0140E050E060E070E0C2
:1043800009951F910F91FF90EF9008954F925F92C2
:104390006F927F928F929F92AF92BF92CF92DF9255
:1043A000EF92FF920F931F93CF93DF9300D0CDB77F
:1043B000DEB76C015A0139014801DC01ED91FC9135
:1043C0000680F781E02D69837A8309956981462EFD
:1043D0007A81572E640C751CD601ED91FC91461420
:1043E00057046CF40484F585E02D87019401A50140
:1043F000B201C6010995BFEF4B1A5B0AEDCF0288E7
:10440000F389E02DC6010F900F90DF91CF911F919E
:104410000F91FF90EF90DF90CF90BF90AF909F9063
:104420008F907F906F905F904F900994AF92BF9262
:10443000CF92DF92EF92FF920F931F93CF93DF9370
:1044400000D000D0CDB7DEB75C016901DC01ED9191
:10445000FC910680F781E02D4B835C8369837A832E
:104460000995D501ED91FC9169817A819B012C0D13
:104470003D1D215031090088F189E02D78014B81E3
:104480005C818A01C5010995D501ED91FC910288F5
:10449000F389E02DC5010F900F900F900F90DF91E1
:1044A000CF911F910F91FF90EF90DF90CF90BF9031
:1044B000AF900994AF92BF92CF92DF92EF92FF92AA
:1044C0000F931F93CF93DF9300D000D0CDB7DEB70B
:1044D0005C016901DC01ED91FC910680F781E02D22
:1044E0004B835C8369837A830995D501ED91FC91B7
:1044F0004B815C81C40ED51EB1E0CB1AD108008877
:10450000F189E02D7801860169817A819B01C501DD
:104510000995D501ED91FC910288F389E02DC50143
:104520000F900F900F900F90DF91CF911F910F91EF
:10453000FF90EF90DF90CF90BF90AF9009940895D7
:10454000EF92FF920F931F93DC01ED91FC91048C8D
:10455000F58DE02D09951F910F91FF90EF90089533
:10456000FF920F931F93CF93DF9300D0CDB7DEB7A9
:10457000152FF32EFC01008181E08093400500930C
:1045800063051092410510926205F4E06F9FB0013F
:1045900011246A5F7F4F89E194E02A8349830E9456
:1045A00022094981842F912F0E945A1D812F90E06A
:1045B0000E945A1D2A81822F9F2D0E945A1D8F2DE5
:1045C00090E00E945A1D80916205813208F046C039
:1045D00090913F059111FCCF92E090933F0591E0BF
:1045E00090933E059FEF90933D0510923C0580937C
:1045F0003B05A2E4B5E02BE135E0F9019E2F921BCB
:10460000981718F49D919193F9CF10921A05809103
:104610001A05000F802B80931A05809119058130AF
:1046200061F41092190580911A058093BB00809166
:10463000BC0083FDF8CF85EC01C085EE8093BC0003
:1046400080913F058230E1F380913D058F3F31F04D
:1046500080913D05803211F080913D051092410519
:1046600010926205109240050F900F90DF91CF914C
:104670001F910F91FF9008959A01CB96211540E16B
:10468000340728F020E030E040E050E102C040E094
:1046900050E00C94B022CF92DF92EF92FF920F93F2
:1046A0001F93CF93DF936C017A018B01C0E0D0E0C0
:1046B000CE15DF0589F0D8016D918D01D601ED9100
:1046C000FC910190F081E02DC6010995892B11F430
:1046D0007E0102C02196ECCFC701DF91CF911F91DF
:1046E0000F91FF90EF90DF90CF9008952F923F921F
:1046F0004F925F926F927F928F929F92AF92BF92F2
:10470000CF92DF92EF92FF920F931F93CF93DF939D
:1047100000D000D000D0CDB7DEB75C014B015E8386
:104720004D83280181E090E03C01641A750ACA01BA
:10473000919581959109AC01440F551F5A83498386
:104740001801CC24C394D12C522F51705B8322705A
:104750002C83C60101972D813E81821793070CF0AF
:1047600068C077FC0CC08D819E8101979E838D83EC
:10477000E981FA813296FA83E9836E0E7F1EC601C3
:10478000880F991F0196680E791EFB81FF2319F18E
:104790002D813E81220F331F2F5F3F4F240D351D8A
:1047A0008701A4018D819E81481B590BB6016A0DBA
:1047B0007B1D86EF94E00E94B70791012D5F3F4F6C
:1047C000A4014C195D096D817E816A0D7B1D86EF08
:1047D00094E00E94B7079C81992321F12D813E81AD
:1047E000220F331F2F5F3F4F240D351D8701A4017A
:1047F000ED81FE814E1B5F0BB5016C197D0986EFC3
:1048000094E00E94B70791012D5F3F4FA4014C191E
:104810005D09B5018D819E81681B790B86EF94E05F
:104820000E94B7079FEFC91AD90AE2E02E0E311C89
:1048300090CF26960FB6F894DEBF0FBECDBFDF91A6
:10484000CF911F910F91FF90EF90DF90CF90BF908D
:10485000AF909F908F907F906F905F904F903F9020
:104860002F900895E0913203F09133030190F0818D
:10487000E02D682F82E393E00994AF92BF92CF922C
:10488000DF92EF92FF920F931F93CF93DF936C0110
:104890005B01EA0179019A01220F331F2F5F3F4F1D
:1048A000AB014C1B5D0B8701B60186EF94E00E94C3
:1048B000B70700E010E023E0AE01B501C6010E9499
:1048C0007623DF91CF911F910F91FF90EF90DF90B2
:1048D000CF90BF90AF900895CF92DF92EF92FF926A
:1048E0000F931F93CF938C01C62F6A018091F3041D
:1048F000A80190E00E94040E7C01E091F2048E2F4A
:1049000090E0A8016C2F49960E94B00D960142E0FC
:1049100050E0BC01C701CF911F910F91FF90EF9024
:10492000DF90CF900C943D2420910E0530910F051F
:10493000009749F0232B99F4209104053091050547
:104940002A5F3F4F08C0232B51F02091040530917E
:1049500005052650310930930505209304059093F1
:104960000F0580930E0508952F923F924F925F920C
:104970006F927F928F929F92AF92BF92CF92DF926F
:10498000EF92FF920F931F93CF93DF937C016B0104
:1049900066246394712C00E010E0C4E0D0E098EF4E
:1049A000892E99249A942DEFA22EBB24BA94842F99
:1049B0008470582E842F8270482E842F8870382E51
:1049C0004170242E0F5F1F4F82E0680E711CA60CF1
:1049D000B71C5520C1F020E030E0A6014C0F5D1F50
:1049E000B701600F711F86EF94E00E94C30720E0BB
:1049F00030E0A601400F511FB7016C0F7D1F86EFFD
:104A000094E00E94C3074420C1F020E030E0A601FA
:104A10004C1B5D0BB701600F711F86EF94E00E9485
:104A2000C30720E030E0A601401B510BB7016C0F1B
:104A30007D1F86EF94E00E94C3073320C1F020E081
:104A400030E0A601400F511FB7016C1B7D0B86EFB4
:104A500094E00E94C30720E030E0A6014C0F5D1FE8
:104A6000B701601B710B86EF94E00E94C307222000
:104A7000C1F020E030E0A601401B510BB7016C1BD8
:104A80007D0B86EF94E00E94C30720E030E0A60192
:104A90004C1B5D0BB701601B710B86EF94E00E940D
:104AA000C3070C171D074CF4B7FC8CCF219782E08D
:104AB000880E911CA80CB91C85CFDF91CF911F9156
:104AC0000F91FF90EF90DF90CF90BF90AF909F90AD
:104AD0008F907F906F905F904F903F902F900895B0
:104AE0002F923F924F925F926F927F928F929F92FE
:104AF000AF92BF92CF92DF92EF92FF920F931F93EC
:104B0000CF93DF9300D000D0CDB7DEB72C015B018F
:104B10001A013901680188279927801B910B9C0194
:104B2000220F331F3C832B83C201800F911F9A8376
:104B30008983240F351F8301AB01BC0186EF94E00C
:104B40000E94A022EB81FC816E0E7F1EF1E06F1AA5
:104B50007108AC0CBD1C420C531CC2018C199D0980
:104B6000830121E0A601B50101970E94762322E08E
:104B7000A601B50189819A810E9476230F900F903A
:104B80000F900F90DF91CF911F910F91FF90EF90B9
:104B9000DF90CF90BF90AF909F908F907F906F905D
:104BA0005F904F903F902F900895439A419A409A7A
:104BB00060E085E00E945F1362E070E080E090E0DA
:104BC0000E94071461E085E00E945F1343984298B9
:104BD0008BB18F728BB985B1807D85B94198419A2F
:104BE00083E04198419A8150E1F7439A089580917A
:104BF000820587FF0CC080916E0590E09C0146E025
:104C0000220F331F4A95E1F7822B932B089585FFDE
:104C100009C08091760590E0982F8827209177052C
:104C2000822B08958091660590E00895CF93DF93DD
:104C3000DC01ED91FC91EB01A881B981309711F075
:104C40001097C9F4109759F0EB012C813D81232B6B
:104C500031F08C9190E091958195910914C0309735
:104C600081F0DC0114968D919C911597892B49F068
:104C7000808190E008C0BD01CF01DF91CF910C94FD
:104C8000FC3580E090E0DF91CF910895EF92FF92A4
:104C90000F931F93CF93DF93EC017B018A018881EF
:104CA0009981009729F02A813B8124173507F8F470
:104CB000B8016F5F7F4F0E942435009759F09983A8
:104CC00088831B830A832C813D81232B81F4FC0183
:104CD00010820DC088819981009711F00E948C3458
:104CE000198218821D821C821B821A8207C01D83B2
:104CF0000C83B701888199810E940536CE01DF912E
:104D0000CF911F910F91FF90EF900895FC0180814A
:104D100091810C948C34FB01DC0111961C921E9243
:104D200013961C921E92129715961C921E9214971F
:104D30008617970749F0608171816115710521F02F
:104D4000448155810C9446260895FC0111821082FD
:104D500013821282158214826115710551F0FB01D4
:104D600001900020E9F73197AF01461B570B0C94D7
:104D7000462608956115710579F0FB010190002028
:104D8000E9F73197AF01461B570BDC01ED91FC9120
:104D90000280F381E02D099480E090E008954F9225
:104DA0005F926F927F92EF92FF920F931F93CF9338
:104DB000DF93CDB7DEB7A1970FB6F894DEBF0FBE75
:104DC000CDBF7C01FA01CB0119A2223008F42AE000
:104DD0008E010F5D1F4F422E512C612C712CBF0193
:104DE000A30192010E94DB30F901CA0101501109AF
:104DF0006A3014F4605D01C0695CD8016C93232BA8
:104E0000242B252B61F7B801C7010E94BA26A19671
:104E10000FB6F894DEBF0FBECDBFDF91CF911F91CB
:104E20000F91FF90EF907F906F905F904F9008955B
:104E30004F925F926F927F928F929F92AF92BF92AA
:104E4000CF92DF92EF92FF926B017C01B42E9B0117
:104E5000AC010E948C33882319F069E172E027C00D
:104E600026013701E89477F82FEF3FEF4FE75FE730
:104E7000C301B2010E948C3381110DC02FEF3FEFAF
:104E80004FE75FE7C301B2010E94B72F18161CF469
:104E90006DE172E00CC02FEF3FEF4FE75FE4C70119
:104EA000B6010E943533181694F461E272E082E391
:104EB00093E0FF90EF90DF90CF90BF90AF909F90E6
:104EC0008F907F906F905F904F900C94BA262FEF49
:104ED0003FEF4FE75FECC701B6010E94B72F87FD98
:104EE000E4CF20E030E0A901C701B6010E94B72F4E
:104EF00087FF09C08DE20E9432244C01F7FAF0943A
:104F0000F7F8F09402C0812C912CA12C60E070E0A5
:104F100080E09FE3AB1441F020E030E040E251E458
:104F20000E942732A394F6CF9B01AC01C701B601C2
:104F30000E9444312B013C010E94A0326B017C0194
:104F40000E94BC2F9B01AC01C301B2010E944331FE
:104F50002B013C012AE0B701A60182E393E00E9405
:104F6000CF267C01E80CF91CBB2029F08EE20E94C0
:104F70003224E80EF91EDB2CDD2031F120E030E098
:104F800040E251E4C301B2010E941D302B013C01FB
:104F90000E94A0324B01A12CB12C2AE0B501A40142
:104FA00082E393E00E94CF26E80EF91EC501B4010A
:104FB0000E94BC2F9B01AC01C301B2010E9443318E
:104FC0002B013C01DA94D8CFC701FF90EF90DF901E
:104FD000CF90BF90AF909F908F907F906F905F9099
:104FE0004F9008950C94BA26CF93DF93C0EFD4E08E
:104FF0002697CE010E94862684E0CA38D807C1F7DA
:10500000DF91CF910895CF93DF93CDB7DEB7299786
:105010000FB6F894DEBF0FBECDBF789484B5826022
:1050200084BD84B5816084BD85B5826085BD85B54C
:10503000816085BD80916E00816080936E001092CA
:105040008100809181008260809381008091810045
:1050500081608093810080918000816080938000D6
:105060008091B10084608093B1008091B000816034
:105070008093B00080917A00846080937A00809160
:105080007A00826080937A0080917A0081608093B8
:105090007A0080917A00806880937A001092C10033
:1050A0001092130410921404109215041092160416
:1050B0001092D1031092D2031092D3031092D40312
:1050C00060ED77E080E090E00E94071482E393E0D7
:1050D0009093120480931104E0914203F0914303F2
:1050E00012E01083E0913E03F0913F031082E091C3
:1050F0004003F091410380E1808310924A03E091E4
:105100004603F091470306E00083E0914403F091E9
:105110004503808180618083E0914403F0914503E1
:10512000808188608083E0914403F0914503808111
:1051300080688083E0914403F091450380818F7DF6
:1051400080830E9441146093D1037093D2038093B3
:10515000D3039093D40369E971E080911104909195
:1051600012040E94F2276AE070E080E090E00E9462
:10517000071481E08093E503E0914203F09143033B
:105180001083E0913E03F0913F031082E0914003D1
:10519000F09141038FEC808310924A03E091460323
:1051A000F09147030083E0914403F091450380812F
:1051B00080618083E0914403F091450380818860A1
:1051C0008083E0914403F09145038081806880836F
:1051D000E0914403F091450380818F7D80836BEAE9
:1051E00071E082E393E00E94F2274091FE04509127
:1051F000FF04052E000C660B770B77FF12C08DE2C3
:105200004C835D836E837F830E9432244C815D8159
:105210006E817F8170956095509541955F4F6F4F7E
:105220007F4F2AE082E393E00E94CF2668EB71E093
:1052300082E393E00E94F22740910005509101051E
:10524000052E000C660B770B77FF12C08DE24C83A6
:105250005D836E837F830E9432244C815D816E81E9
:105260007F8170956095509541955F4F6F4F7F4F4F
:105270002AE082E393E00E94CF2668EA71E082E3AD
:1052800093E00E94BA268AE59BE09093DF02809328
:10529000DE0281E08093DD0288EC90E09093E102F1
:1052A0008093E00289EC90E09093E3028093E20225
:1052B0008AEC90E09093E5028093E4028BEC90E01E
:1052C0009093E7028093E6028CEC90E09093E902E1
:1052D0008093E8028DEC90E09093EB028093EA02D9
:1052E0008EEC90E09093ED028093EC028FEC90E0D6
:1052F0009093EF028093EE028091F6029091F70274
:10530000A091F802B091F902892B8A2B8B2B91F591
:1053100010926C0510926D051092F4021092F30237
:105320001092F2021092F1021092F0021092EF022B
:105330001092EE020E94E2136093F6027093F7025D
:105340008093F8029093F9028AE09AE19093030126
:1053500080930201809169008C7F81608093690055
:10536000E89A8DE897E1909318048093170482E0FF
:105370008093F5020E94D5250E94D52568EC70E047
:1053800080E090E00E94071410921005439807EB0C
:1053900018E0F80165917491F801329645915491A5
:1053A0006F3F710531F4BA0180E090E00E9407146C
:1053B00004C086EF94E00E9487150C5F1F4F29E020
:1053C0000338120731F760910B0586EF94E00E94D5
:1053D000BE150FE311E02FEE30E040E050E060E05A
:1053E00070E086EF94E00E943F1B63E086EF94E05C
:1053F0000E94BE1560E070E086EF94E00E943B17CB
:1054000061E08DE00E948F1385E090E090930305AA
:10541000809302058FE090E090930505809304054A
:105420008FEF9FEF909309058093080590930705F0
:10543000809306058CE999E00E9494248091F204FF
:1054400090E02EE130E03093030520930205909325
:1054500005058093040503E819E0F80164916111E2
:105460002AC068EA71E086EF94E00E94BA2680E0E4
:1054700090E00E94942468EE73E080E090E00E9447
:10548000071460E070E086EF94E00E943B1780E034
:105490000E946E1068EB7BE080E090E00E940714B1
:1054A00022242A9463E0362E74EF472E5524539419
:1054B000612C712C62C1E091F604F091F704019027
:1054C000F081E02D86EF94E009950F5F1F4F892B47
:1054D00021F6C7CF0296909305038093040361E001
:1054E0008DE00E945F13A0911605B0E0FD01EF531F
:1054F000F64F049180911305682F70E0FB01EF5384
:10550000F64F14914091150550E0FA01EF53F64F14
:10551000D4902091140530E0F901EF53F64FE49058
:10552000FD01EB52F64F8490FB01EB52F64FF490E5
:10553000F982FA01EB52F64FC490F901EB52F64FA3
:1055400024912A8360E00E948F1360E0809114050B
:105550000E948F13812F90E0880F991F9C012D5579
:10556000364F39872887F901A591B4918C91F09431
:10557000FB828F218C93F12CF701EE0FFF1FCF01DF
:105580008D55964F7C01FC01A591B4919C918A8127
:10559000809589238C9361E0809116050E948F137A
:1055A00061E0809115050E948F1310E0000F111F1C
:1055B0000D55164FF801A591B4918C9188298C93C3
:1055C000ED2DF0E0EE0FFF1FED55F64FA591B491D4
:1055D000EC91C094CE22CC92809113050E94CB1303
:1055E0006C01809113050E94CB135C01C6018A19DE
:1055F0009B090496099708F0DAC0AC0CBD1CB59461
:10560000A7949924939460E0809116050E948F13CB
:1056100060E0809115050E948F13F801A591B49167
:105620008C91809488218C9361E0809113050E9475
:105630008F13E885F985A591B491EC91C980EC2987
:10564000EC9361E0809114050E948F138091150501
:105650000E94CB136C01809115050E94CB13C81AD0
:10566000D90A24E0C20ED11C39E0C316D10408F0D7
:10567000912C61E0809116050E948F13F801A5918D
:10568000B491EC918E228C92F701A591B491EC919A
:105690004A81E42BEC93E885F985A591B4918C912E
:1056A000CB808C218C9360E0809113050E948F1336
:1056B000809115050E94CB139987888780911305E7
:1056C0000E94CB13009117051091180501151105C3
:1056D00009F46FC0BC01990F880B990B0E94BE2F73
:1056E0006B017C0128853985B901330F880B990B33
:1056F0000E94BE2F9B01AC01C701B6010E94273258
:1057000020E030E040E85FE30E9443316B017C0120
:10571000B1016A197B09072E000C880B990B0E94B6
:10572000BE2F9B01AC01C701B6010E941D306B0169
:105730007C01B80180E090E00E94BC2F9B01AC018D
:10574000C701B6010E941D3020E030E040E85AE376
:105750000E941D300E949932911002C060E070E0FA
:105760008091110590911205861797074CF160E022
:105770008DE00E945F130E94B41280910403909107
:1057800005039C012F5F3F4F3093050320930403D3
:10579000203335470CF49ECECC24C394C092FB0238
:1057A00060E070E086EF94E00E943B1798CE912C69
:1057B0002ACF68857985681B790B61507C4FCCCFE7
:1057C00062E370E080E090E00E940714109205030D
:1057D000109204030E944114672B682B692B41F43B
:1057E0000E944114623071058105910508F40AC1D7
:1057F0000E9441146093000370930103809302039D
:10580000909303030091FC021091FD022091FE028F
:105810003091FF02601771078207930740F460938D
:10582000FC027093FD028093FE029093FF020091B0
:10583000FC021091FD022091FE023091FF026B01EB
:105840007C01C01AD10AE20AF30A970186010A3FD5
:1058500011052105310508F4D5C06093FC02709351
:10586000FD028093FE029093FF024092DD0350926E
:10587000DE036092DF037092E0031092E103109266
:10588000E2031092E3031092E4038091D503909118
:10589000D603A091D703B091D8038093D9039093F6
:1058A000DA03A093DB03B093DC030E9441146093FE
:1058B000D5037093D6038093D7039093D8030E94A7
:1058C00041146093D1037093D2038093D3039093D8
:1058D000D4030E9441146B017C016AEB71E080915A
:1058E0001104909112040E94F2272AE041E050E056
:1058F00060E070E080911104909112040E94CF2624
:1059000061EC71E080911104909112040E94F227E1
:105910002AE0B701A60180911104909112040E941F
:10592000CF2663EC71E080911104909112040E94E3
:10593000F2278091D5039091D603A091D703B0911F
:10594000D803B701A601481B590B6A0B7B0B2AE051
:1059500080911104909112040E94CF2663EC71E0B3
:1059600080911104909112040E94F2274091D50376
:105970005091D6036091D7037091D8038091D903D9
:105980009091DA03A091DB03B091DC03481B590B23
:105990006A0B7B0B2AE080911104909112040E9403
:1059A000CF2665EC71E080911104909112040E9461
:1059B000F2270E944114AB01BC012AE0809111043E
:1059C000909112040E94CF260091110410911204AC
:1059D00067EC71E0C8010E94BA2668EA71E0C8016C
:1059E0000E94BA2665E070E080E090E00E94071413
:1059F0000E9441146093D5037093D6038093D7031C
:105A00009093D8038091FB02882319F18091FA02C8
:105A1000813061F040F0823091F08330D1F4809396
:105A2000FA0283E00FC00E94E81113C08093FA02CB
:105A300081E00E946E1060E080E090E008C08093FA
:105A4000FA0282E00E946E1061E089E190E00E941B
:105A50004A110E94E8116EEC71E082E393E00E942B
:105A6000F22785CEDF92EF92FF920F931F93CF9391
:105A7000DF93109235031092340388EE93E0A0E098
:105A8000B0E08093360390933703A0933803B0932C
:105A9000390324E431E0309333032093320325ECBF
:105AA00030E030933F0320933E0324EC30E030930A
:105AB00041032093400320EC30E0309343032093D4
:105AC000420321EC30E0309345032093440322EC61
:105AD00030E0309347032093460326EC30E03093C8
