:100000000C94A40C0C94391B0C94121B0C947B13B1
:100010000C947B130C947B130C94CC0C0C94CC0C94
:100020000C94CC0C0C94CC0C0C94CC0C0C94CC0CF0
:100030000C94CC0C0C94CC0C0C94CC0C0C94CC0CE0
:100040000C94C81A0C94CC0C0C94B0190C948A190A
:100050000C94CC0C0C94CC0C0C94CC0C0C94CC0CC0
:100060000C9485130C94CC0C05A84CCDB2D44EB98D
:100070003836A9020C50B9918688083CA6AAAA2A4B
:10008000BE000000803F00000000003E5B4F5B3E72
:100090003E6B4F6B3E1C3E7C3E1C183C7E3C181C4D
:1000A000577D571C1C5E7F5E1C00183C1800FFE744
:1000B000C3E7FF0018241800FFE7DBE7FF30483AEA
:1000C000060E2629792926407F050507407F05254C
:1000D0003F5A3CE73C5A7F3E1C1C08081C1C3E7FD4
:1000E00014227F22145F5F005F5F06097F017F009B
:1000F0006689956A606060606094A2FFA2940804BB
:100100007E040810207E201008082A1C08081C2ADB
:1001100008081E101010100C1E0C1E0C30383E3833
:1001200030060E3E0E06000000000000005F0000DA
:100130000007000700147F147F14242A7F2A12234B
:100140001308646236495620500008070300001C5B
:100150002241000041221C002A1C7F1C2A08083E64
:100160000808008070300008080808080000606077
:100170000020100804023E5149453E00427F4000E5
:1001800072494949462141494D331814127F1027BD
:10019000454545393C4A494931412111090736490C
:1001A000494936464949291E0000140000004034E0
:1001B00000000008142241141414141400412214E5
:1001C0000802015909063E415D594E7C1211127C0C
:1001D0007F494949363E414141227F4141413E7F6D
:1001E000494949417F090909013E414151737F084D
:1001F00008087F00417F41002040413F017F0814F3
:1002000022417F404040407F021C027F7F04081053
:100210007F3E4141413E7F090909063E4151215E31
:100220007F09192946264949493203017F01033FC5
:100230004040403F1F2040201F3F4038403F631454
:1002400008146303047804036159494D43007F4156
:1002500041410204081020004141417F0402010293
:1002600004404040404000030708002054547840B8
:100270007F284444383844444428384444287F384C
:100280005454541800087E090218A4A49C787F08CE
:1002900004047800447D40002040403D007F102849
:1002A000440000417F40007C047804787C0804040A
:1002B000783844444438FC1824241818242418FCA2
:1002C0007C08040408485454542404043F44243C47
:1002D0004040207C1C2040201C3C4030403C4428B6
:1002E0001028444C9090907C4464544C4400083650
:1002F00041000000770000004136080002010204BE
:10030000023C2623263C1EA1A161123A4040207ADD
:100310003854545559215555794122545478422125
:100320005554784020545579400C1E52721239555C
:100330005555593954545459395554545800004559
:100340007C410002457D420001457C407D12111236
:100350007DF0282528F07C545545002054547C54C9
:100360007C0A097F4932494949323A4444443A3285
:100370004A4848303A4141217A3A42402078009D2B
:10038000A0A07D3D4242423D3D4040403D3C24FFD7
:100390002424487E4943662B2FFC2F2BFF0929F686
:1003A00020C0887E090320545479410000447D41D7
:1003B0003048484A32384040227A007A0A0A727D30
:1003C0000D19317D2629292F28262929292630484B
:1003D0004D4020380808080808080808382F10C8B9
:1003E000ACBA2F102834FA00007B000008142A143D
:1003F0002222142A14085500550055AA55AA55AAB8
:10040000FF55FF55FF000000FF00101010FF001403
:100410001414FF001010FF00FF1010F010F014145F
:1004200014FC001414F700FF0000FF00FF1414F484
:1004300004FC141417101F10101F101F1414141F85
:1004400000101010F0000000001F101010101F10FE
:10045000101010F010000000FF10101010101010FD
:100460001010FF10000000FF140000FF00FF00004C
:100470001F10170000FC04F414141710171414F4C0
:1004800004F40000FF00F714141414141414F700FB
:10049000F7141414171410101F101F141414F4144C
:1004A0001010F010F000001F101F0000001F1400BB
:1004B0000000FC140000F010F01010FF10FF1414E6
:1004C00014FF141010101F00000000F010FFFFFFB9
:1004D000FFFFF0F0F0F0F0FFFFFF0000000000FF72
:1004E000FF0F0F0F0F0F3844443844FC4A4A4A3478
:1004F0007E02020606027E027E026355494163388F
:1005000044443C04407E201E2006027E020299A53F
:10051000E7A5991C2A492A1C4C7201724C304A4D9D
:100520004D303048784830BC625A463D3E494949D2
:10053000007E0101017E2A2A2A2A2A44445F44447B
:1005400040514A444040444A51400000FF0103E00A
:1005500080FF000008086B6B083612362436060F41
:10056000090F06000018180000001010003040FFAE
:100570000101001F01011E00191D1712003C3C3C27
:100580003C00000000000000000007000100000423
:10059000110803F009000A060B01EF11000D100D00
:1005A00000F12B000D140D00EF4C0013111501F09C
:1005B000750010111101F0970004060601EF9A0072
:1005C00006160801EFAB0006160801EFBC0007088D
:1005D0000901EFC3000B0B0E02F6D300040706015E
:1005E000FED70006030801F9DA0004030601FEDC69
:1005F0000006110700F0E9000C110D01F0030107DE
:10060000110E03F012010C110D01F02C010C110D53
:1006100001F046010B110D01F05E010C110D01F00E
:1006200078010C110D01F092010B110D01F0AA01DE
:100630000C110D01F0C4010C110D01F0DE01040CD0
:100640000601F5E40104100601F5EC010C0C0E01A5
:10065000F5FE010C090E01F70C020C0C0E01F51E43
:10066000020C120F02EF390215151701EF7102107B
:10067000121100EF95020E121102EFB502101211C5
:1006800001EFD9020F121102EFFB020D121002EF5F
:1006900019030C120F02EF340310121201EF58036A
:1006A0000E121202EF780304120702EF81030B12FD
:1006B0000E01EF9A0310121102EFBE030B120F028C
:1006C000EFD70311121502EFFE030F121202EF20F3
:1006D0000411121301EF47040E121002EF67041108
:1006E000131301EF900410121102EFB4040F121053
:1006F00001EFD6040C120F02EFF1040E121202EFFA
:1007000011050F121000EF330517121700EF6705E0
:100710000F121001EF890510120F00EFAD050D1239
:100720000F01EFCB0506170802EFDD0507110700E3
:10073000F0EC0506170800EFFE050C0B0E01F00F9C
:10074000060F020DFF04130604030600EF15060D45
:100750000D0E01F42B060D120F02EF49060C0D0DC4
:1007600001F45D060D120F01EF7B060D0D0E01F475
:10077000910607120801EFA1060D120F01F4BF0642
:100780000C120E02EFDA0604120702EFE306061758
:100790000700EFF5060C120E02EF10070412060216
:1007A000EF1907130D1502F438070C0D0F02F44C66
:1007B000070D0D0F01F462070D120F02F480070DF3
:1007C000120F01F49E07080D0902F4AB070C0D0D82
:1007D00001F4BF07060F0801F2CB070C0D0F02F45E
:1007E000DF070D0D0D00F4F507120D1300F41308CB
:1007F0000D0D0D00F429080D120D00F447080A0D27
:100800000C01F4580806170901EF6A0802160702DE
:10081000EF700806170903EF82080C050C00F9FFBA
:10082000FFFFFF766660FFF0F3FCFF3FCF6198604B
:100830000E70738318FFF7FFBFFC73831818C7FF90
:10084000BFFDFFE31839C1CE0E7002007E0FF87FA6
:10085000E7AFB93DC80F403F00FF00FC05FF27F997
:100860003FEBEFFE3FE07C008004003C060FC181BF
:10087000FC30738C0C3181CE601FCC03F3003C67DD
:100880008019F8027F80CE7011860639C187F83052
:100890007E0C078007801FC03FE03CE03CE03EE06C
:1008A0000FC007003F8C7FCCF1FCF0F8F078F8F82F
:1008B0007FFC3FDE1F8EFFFF660C738E71C738E32F
:1008C0008E38E38E1C71C38E1870C3871C38E38783
:1008D0001C71C71C71CE38E71C638010235FF3873F
:1008E0001B140E01C038070FFFFFFFF8700E01C088
:1008F0003800FFF336C0FFFFC0FFF00C30861861F0
:100900000C30C218618430C01F83FC7FE79EF0FF6B
:100910000FF0FF0FF0FF0FF0FF0FF0F79E7FE3FCEB
:100920000F00061C7FFFE3C78F1E3C78F1E3C78FE3
:100930001E1F83FC7FEF9FF0FF0F00F00F01E03CD4
:100940000F81E03C03807FF7FF7FF01F07FCFFEF84
:100950001EF1E01E03C07807C01E00F00FF0FF1F5D
:100960007FE7FC1F8003C0F81F07E1BC278CF31E44
:1009700063D87BFFFFFFFE0780F01E03C03FE7FE4A
:100980007FE7006006F87FCFFEF1F00F00F00F0068
:10099000FE1EFFE7FC3F000F83FC7FE79FF00F7810
:1009A000FFCFFEF9FF0FF0FF0FF0F79F7FE3FC0F83
:1009B00080FFFFFFFF80E01C0701E0380F01C078D7
:1009C0000F01E0380F01E03C000F03FC7FC79E7071
:1009D000E70E39C1F83FC79EF0FF0FF0FF9F7FE39E
:1009E000FC1F801F03FC7FEF9EF0EF0FF0FF0FF95D
:1009F000F7FF3FF1EF00EF1E7FE7FC1F00FFF00065
:100A0000000FFFFFF000000FFF116C00100703F153
:100A1000FC7E0F80E00FC03F807F00F003FFFFFFF0
:100A2000FFF000000000FFFFFFFFF0000E00FC07DA
:100A3000F00FE01F00F07F1F8FE0F008001F07FCA1
:100A40007FEF9FF0FF0F00F00F01E03C0780F00EFA
:100A500000E00000F00F00F000FE001FFC03C0F0FB
:100A60003801C38007183D9987EC6C71C3C3061E1B
:100A70001830F181878C187C60C3638E3B8FDF8CCC
:100A80003CF0700001C0000780801FFE001FC00006
:100A900003E003E003E007F007F007700F780E783B
:100AA0000E381E3C1C3C3FFC3FFE3FFE780E780F8C
:100AB000700FF007FFC3FFCFFF3C3EF07BC1EF0F8D
:100AC000BFFCFFE3FFCF07BC0FF03FC0FF07FFFEF7
:100AD000FFFBFF8007E01FF83FFC7C3E781FF80F0C
:100AE000F000F000F000F000F000F000F80F781FC8
:100AF0007C3E3FFE1FFC07F0FFE1FFE3FFE783EFD3
:100B000003DE07FC07F80FF01FE03FC07F80FF0304
:100B1000FE07BC1F7FFCFFF1FF80FFF7FFBFFDE07A
:100B20000F007803C01FFCFFE7FF3C01E00F0078D7
:100B300003C01FFFFFFFFFC0FFFFFFFFFF00F00F1D
:100B400000F00FFEFFEFFEF00F00F00F00F00F00BF
:100B5000F00F0003F00FFC3FFE3E1F78077800F017
:100B600000F000F07FF07FF07FF00778077C0F3E09
:100B70001F3FFB0FFB03E3F03FC0FF03FC0FF03F01
:100B8000C0FF03FFFFFFFFFFFF03FC0FF03FC0FFAD
:100B900003FC0FF03FC0F0FFFFFFFFFFFFFFFFFF71
:100BA00001E03C0780F01E03C0780F01E03C07F82D
:100BB000FF1FE3FC7BFE7FC3E0F03EF03CF078F0EB
:100BC000F0F1E0F3C0F780FF00FF80FF80FBC0F191
:100BD000E0F0F0F0F0F078F03CF03EF01EF01E0394
:100BE000C0780F01E03C0780F01E03C0780F01E0E1
:100BF0003C07FFFFFFFCF81FFE0FFF0FFF87FFC33F
:100C0000FFE1FFF9FFFCEFFE77FB3BFDDDFEFCFFA4
:100C10007E7F9F3FCF9FE78FF3C7F8E3C0F01FF0C1
:100C20003FF07FE0FFE1FFC3FDC7FB8FF39FE73F8E
:100C3000C77F8FFF0FFE1FFC1FF81FF03FE03C0334
:100C4000E00FFC0FFF87C7C780F3C07BC01FE00F1A
:100C5000F007F803FC01FE00F780F3C078F0F87F9E
:100C6000FC1FFC03F800FFE3FFEFFFBC1FF03FC0D9
:100C7000FF03FC1FFFFBFFCFFE3C00F003C00F0093
:100C80003C00F003C00003E00FFC0FFF87C7C780E4
:100C9000F3C07BC01FE00FF007F803FC01FE04F770
:100CA00087F3C3F8F0F87FFC1FFF83F1800000FF9B
:100CB000F8FFFCFFFCF03EF01EF01EF01EF03CFFC3
:100CC000F8FFF0FFF8F03CF03CF03CF03CF03CF07A
:100CD0003CF01F0FC07FE1FFE7C3EF03DE003C00E5
:100CE0007F007FF03FF80FF801F001FE03DE0FBF39
:100CF000FE3FF81FC0FFFFFFFFF0F00F00F00F00F6
:100D0000F00F00F00F00F00F00F00F00F00F00F0F8
:100D1000F03FC0FF03FC0FF03FC0FF03FC0FF03FAC
:100D2000C0FF03FC0FF03FC0F7879FFE3FF03F007E
:100D3000700EF03DE079C0E381C787870E0E1C1E60
:100D4000781CE039C073807E00FC01F801E003C02C
:100D5000078070381CE0F079E1F0F3C3E1E387C36A
:100D6000870F870E3B9E1E77381CEE7039CCE073E0
:100D700099C06E3F00FC7E01F8FC03F0F803E1E04F
:100D80000783C00F0780F03CF0F9E1E1E783CF0370
:100D9000FC03F007E007800F003F00FF01FE079E05
:100DA0000F1E3C3CF83DE078F01E781E783C3C3C41
:100DB0003C781E780E700FF007E007E003C003C018
:100DC00003C003C003C003C003C003C0FFFFFFFF95
:100DD000FE01F00F00F00F00F807807807807C0319
:100DE000C03C03C01FFFFFFFFFC0FFFFFCF3CF3C71
:100DF000F3CF3CF3CF3CF3CF3CFFFFC0C1810306F0
:100E0000040C1810306040C1810306FFFFCF3CF393
:100E1000CF3CF3CF3CF3CF3CF3CFFFFFC00F00F04C
:100E20000F01F81B839C39C30C70E70EE070FFFFC5
:100E3000FFFCE6301F83FF1FFDE1E00F03F9FFDF3A
:100E40001EF0F78FBFFCFFE3CF80F007803C01E08E
:100E50000F007BC3FF9FFEF8F783FC1FE0FF07F83E
:100E60003FE3DFFEFFE7BE000F83FE7FF78FF07FDB
:100E700000F00F00F0778F7FF3FE0F80007803C043
:100E80001E00F0078FBCFFEFFF78FF83FC1FE0FF21
:100E900007F83DE3EFFF3FF8FBC01F81FE1FF9F1AC
:100EA000CF077FFBFFDE00F003C39FFC7FC0F8008D
:100EB0003EFDFBC79FBF3C78F1E3C78F1E3C78F037
:100EC0001E79FBDFFEF1FF07F83FC1FE0FF07FC781
:100ED000DFFE7FF1F7803C01FF1E7FF0FE00F00F88
:100EE00000F00F00F00F7CFFEFFFF9FF0FF0FF0F96
:100EF000F0FF0FF0FF0FF0FF0FFFF00FFFFFFFFFFE
:100F0000FFFF3CF3C000F3CF3CF3CF3CF3CF3CF307
:100F1000CFFFFF80F00F00F00F00F00F0FF1EF3C5C
:100F2000F78FF0FF0FF8FF8F3CF1CF1EF0EF0FFFB0
:100F3000FFFFFFFFFFFFFFFFF78F9FFBFBFFFFFCA4
:100F4000F8FF1E1FE3C3FC787F8F0FF1E1FE3C3FEB
:100F5000C787F8F0FF1E1EF7CFFEFFFF9FF0FF0FC1
:100F6000F0FF0FF0FF0FF0FF0FF0F00F81FF1FFCFD
:100F7000F1EF07F83FC1FE0FF07BC79FFC7FC0F881
:100F800000F7C7FF3FFDF1EF07F83FC1FE0FF07F0D
:100F9000C7BFFDFFCF787803C01E00F00780000FA9
:100FA00079FFDFFEF1FF07F83FC1FE0FF07BC7DFDF
:100FB000FE7FF1F7803C01E00F007803C0F3F7FFFC
:100FC000F8F0F0F0F0F0F0F0F0F01F87FCFFEF0F1A
:100FD000F80FF07FE0FF01FF0FFFE7FE1F8079E7CA
:100FE000BFFDE79E79E79E7DF3C0F0FF0FF0FF0F96
:100FF000F0FF0FF0FF0FF0FF1FFFF7FF3EF0F07B59
:10100000839E1CF1E38E1C707783B81DC07E03E0C5
:101010001F007000F0E1DC78771F3DE7CF79B38ED9
:101020006CE3BB38EEFC1F3F07C7C1F1F07C780EC4
:101030001E0078F3C78F783B81FC07C01E01F01FAC
:10104000C0EF0F78F1E78700F07B839E1C71E38E81
:101050001E707383B81FC07E03E00F007003803CD6
:1010600007C03E01E000FFFFFFFC0F0783C1E0F077
:10107000783C0FFFFFFFC01CF3CE38E38E38E3BC93
:10108000F0E38E38E38E3CF1C0FFFFFFFFFFF0E39B
:101090008F1C71C71C71C70F3DC71C71C71CF3CED5
:1010A00000780FE0CF307F01E00000000005000174
:1010B0000000030D0602F4050007050901F40A000B
:1010C0000A0C0A00F51900090F0A01F32A00100D95
:1010D0001000F444000C0D0D01F458000305050147
:1010E000F45A0006110601F4670006110600F474B4
:1010F0000005060701F4780007080B02F97F0003DA
:10110000050401FF810005020600FB8300030204C1
:1011100001FF8400050D0500F48D00090D0A01F49E
:101120009C00050D0A02F4A500090D0A01F4B400A3
:10113000080D0A01F4C100080D0A02F4CE00090DE1
:101140000A01F4DD00090D0A01F4EC00090D0A00A2
:10115000F4FB000A0D0A00F40C01090D0A01F41B4E
:101160000103090401F81F01030C0401F82401091B
:10117000090B01F82F0109060B01FA360109090BC9
:1011800001F84101090D0B01F45001100F1200F498
:101190006E010C0D0D00F482010B0D0D01F4940194
:1011A0000C0D0D01F4A8010C0D0D01F4BC01090D8D
:1011B0000C01F4CB01090D0B01F4DA010B0D0E014A
:1011C000F4EC010B0D0D01F4FE01030D0601F40317
:1011D00002080D0A01F410020C0D0D01F42402089E
:1011E0000D0B01F431020E0D1001F448020B0D0E2F
:1011F00001F45A020D0D0E01F470020B0D0C01F4F6
:1012000082020D0E0E01F499020C0D0D01F4AD02D7
:101210000B0D0C01F4BF02090D0C02F4CE020B0DF4
:101220000D01F4E0020C0D0C00F4F402110D11009C
:10123000F410030C0D0C00F424030B0D0C01F43618
:1012400003090D0B01F4450304110601F44E0305D7
:101250000D0500F4570304110600F4600308080BA1
:1012600001F468030A010A00046A0303020500F49A
:101270006B030A0A0A01F778030A0D0B01F48903CC
:10128000090A0A01F79503090D0B01F4A403090AE1
:101290000A01F7B003050D0601F4B903090E0B01AD
:1012A000F7C903090D0B01F4D803030D0501F4DDA3
:1012B0000304110500F4E603090D0A01F4F5030324
:1012C0000D0501F4FA030E0A1001F70C04090A0BCC
:1012D00001F718040A0A0B01F725040A0E0B01F79F
:1012E0003704090E0B01F74704060A0701F74F04FC
:1012F000090A0A01F75B04050C0601F56304090AF3
:101300000B01F76F040A0A0A00F77C040E0A0E00AC
:10131000F78E040A0A0A00F79B040A0E0A00F7ADCA
:1013200004080A0901F7B70404110701F4C0040115
:10133000110502F4C30404110702F4CC04080209E5
:1013400000FCFFFFFE487EEFDFBF7440198667FD9B
:10135000FF330CC333FEFF99866190101F1FDEFF21
:101360003F83C0FC1F09FCFEF7F1E04038107C30E1
:10137000C620C640C6407C80399C013E03630263A0
:1013800004630C3E081C0E01F83B83B83F01E03EAD
:101390006776E3EE1CF3C7FE3F70FFF418631C731F
:1013A0008E38E38E1870C3060861830E3871C71C2F
:1013B00071C638E31840213E45283870E7FFE70E34
:1013C0001CFC9CFFC0FC08C4231084621188003EF2
:1013D0003F9DDC7E3F1F8FC7E3F1DDCFE3E008FFD9
:1013E000F39CE739CE73803E3FB8FC70381C1C1C60
:1013F0001C1C1C0FF7F83C7FE7E7070C0E0707E7FC
:10140000E77E3C0E1E1E2E2E4E4E8EFFFF0E0E0E43
:101410007F3F90180DE7FB9E070381F1FFE7C03E79
:101420003F9CFC0EE7FBDFC7E3F1DDEFE3E0FFFFEE
:10143000C0E0E0607030381C0C0E0703803F1FEEE8
:101440003F87E3CFC7FBCFE1F87F3DFE3F003E3F44
:10145000BDDC7E3F1FDEFF3B81F9CFE3C0FC000710
:10146000E0FC0007E5E00083C7DF0C0780F81F0100
:1014700080FFFFC0000FFFFC00703F03E0387DF1EC
:10148000E080003E3FB8FC70381C1C1C1C0E0003A2
:1014900081C003F00FFC1E0E380270E96319C219F7
:1014A000C611C633C63263FE73DC3C001FF807F07A
:1014B0000700F00F80F81D819C19C38C3FE7FE7078
:1014C0006607E070FF9FFB83F07E0FFF3FF706E0AB
:1014D000FC1F83FFEFF81F83FE78E707E00E00E0B4
:1014E0000E00E0070778F3FE1F80FF8FFCE0EE0E92
:1014F000E07E07E07E07E07E0EE0EFFCFF80FFFF6E
:10150000F81C0E07FBFDC0E070381FFFF8FFFFF866
:101510001C0E07FBFDC0E070381C0E000F87F9E3BE
:10152000B83E01C038FF1FE06E0DE39FD0F2E0FC33
:101530001F83F07E0FFFFFFF07E0FC1F83F07E0E8E
:10154000FFFFFFFFFE0707070707070707E7E7E7B4
:101550007E3CE0EE1CE38E70EE0FC0FE0F70E70ED7
:1015600038E1CE0EE0E0E0E0E0E0E0E0E0E0E0E006
:10157000E0FFFFF87FE1FF87FE1FEC7FB37ECDFB2E
:1015800037ECDF9E7E79F9E7E79CE0FE1FC3FC7F26
:10159000CFD9FBBF37E7FC7F87F0FE0E0F81FF1E20
:1015A0003CE0EE03F01F80FC07E03B839E3C7FC0E5
:1015B000F800FF9FFB87F07E0FC3FFF7FCE01C03E2
:1015C00080700E000F81FF1E3CE0EE03F01F80FCD8
:1015D00007E1BB8F9E3C7FE0FB8008FF8FFCE0EEC5
:1015E0000EE0EE0EFFCFFCE0EE0EE0EE0EE0F03F80
:1015F0000FFBC7F07E01FC1FF03F00FC1DC7BFE1E1
:10160000F8FFFFC70381C0E070381C0E070381C0DC
:10161000E0FC1F83F07E0FC1F83F07E0FC1FC7BF4F
:10162000E1F060670E70E30C30C39C1981981F8055
:10163000F00F00F0060061C3B8E19C70CE3CE336C9
:10164000719B30ED98367C1B3C0F1E078F01C380C9
:10165000E18070E78E39C1F81F80F00700F01F812C
:101660009C39C70E70E0E0FC39C718C3B83607C014
:10167000700E01C0380700E0FFFFC0E0E0F07070BE
:10168000707838381FFFF8FFEEEEEEEEEEEEEFF07A
:10169000861086108430843080FF7777777777776D
:1016A0007FF0181C3C3E366663C3FFC0CC3F1FEE84
:1016B000380E3F9EEE3B9EFF9EE0E0380E03BCFFDF
:1016C000BCEE1F87E1F87F3BFEEF001F3FDC7C0E86
:1016D000070380E37F8F000381C0E777FBBF8FC7DD
:1016E000E3F1FDEFF3B83E3F9CDC3FFFFF81C37F9A
:1016F0008F003BDDFFB9CE739CE7003BBFDDFC7E76
:101700003F1F8FEF7F9DC0FC77F1F0E070381DEF39
:10171000FF9F8FC7E3F1F8FC7E38FC7FFFFFFE7769
:101720000777777777777FE0E070381C7E7773F103
:10173000F8FE7739DC6E38FFFFFFFFFEEF7BFFFE20
:1017400039F8E7E39F8E7E39F8E7E39F8E70EF7FED
:10175000F8FC7E3F1F8FC7E3F1C01E1FE73B87E108
:10176000F87E1DCE7F8780EF3FEF3B87E1F87E1F3D
:10177000CEFFBBCE0380E038003BBFFDFC7E3F1FA9
:101780008FEF7F9DC0E070381CEFFF38E38E38E3A9
:10179000803E3FB8FC0FC3FC3FC7FF1F0073BFF77D
:1017A00039CE739E70E3F1F8FC7E3F1F8FC7FFBDFB
:1017B000C0E1986739CC330DC3E0781E0700E31D04
:1017C0009E667999E677B8D2C3CF0F3C3CF0738020
:1017D000739CE3F0781E0781E0FC739CE0E1D8671E
:1017E00039CE330EC3E0781E0300C070380E00FE01
:1017F000FE0E1C383870E0FFFF3766666EE66666E0
:101800006730FFFF80CE6666677666666EC0718E53
:1018100000000100FF00320001000001020000078B
:10182000030030100400000008000202090000005C
:101830000A0000000C0000000D0000000F00000076
:10184000100000001100070012000000130000004B
:10185000FF00C8001000901611002702FF003200A0
:1018600012001A00FF0032001300001829002A009D
:10187000FF003200300000003100000032000000A4
:10188000350006023600080837000700380001025C
:10189000390000003C0000003D0000002000000076
:1018A00021000000500000005100EF005200000035
:1018B00053003F01600000A7610003006A000000C0
:1018C00090001000920000009300030095000011AA
:1018D0009700000098000000070033011F088605EC
:1018E000207E1D4213A910207E1600000000240057
:1018F00027002A0000000000230026002900000025
:1019000000080002010000030407000000000000BE
:101910000000010204081020408001020408102089
:1019200001020408102000000000250028002B0000
:101930000404040404040404020202020202030375
:10194000030303031F2FCC2711241FBECFEFD8E0C2
:10195000DEBFCDBF24E0A0E1B2E001C01D92AB3AF2
:10196000B207E1F712E0A0E0B1E0EAE8FEE602C06B
:1019700005900D92A031B107D9F71CE0C3EADCE075
:1019800004C02197FE010E941D35C23AD107C9F754
:101990000E94DB270C9438370C9400000895FC015A
:1019A0006370658B8481958126813781613039F040
:1019B000633029F0918780873387228708953187A4
:1019C00020879387828708952F923F924F925F924C
:1019D0006F927F928F929F92AF92BF92CF92DF923F
:1019E000EF92FF920F931F93CF93DF93CDB7DEB7A4
:1019F0006C970FB6F894DEBF0FBECDBF9C8F8B8F58
:101A00001B012A0118870F83FE82ED82CA82DC0146
:101A100058964D915C9159974115510509F0B2C006
:101A200018968D919C911997681779070CF096C1BB
:101A30001A968D919C911B97481659060CF08EC1F1
:101A4000AC2CB12CCB01B6E0CB9E800D911D1124A6
:101A5000181619060CF082C1C50133E0880F991FD2
:101A60003A95E1F7840D951D181619060CF076C10C
:101A7000AB8DBC8D57968C91811103C0203B08F033
:101A80002F5FAB8DBC8DED91FC9111970680F78196
:101A9000E02DCD012A8F09952A8DB5E02B9F90016D
:101AA0001124610141011B82F901E219F309FA874E
:101AB000E9879201285F3F4F3C872B873B81353078
:101AC00049F0E985FA85E80DF91DEA57FF4F449181
:101AD000498301C0198232011201598150FF13C09C
:101AE000AB8DBC8DED91FC91BA81B13031F40084A5
:101AF000F185E02D2F81388519C00284F385E02D12
:101B0000EF80F8841EC0ED81FE812F813885E217B9
:101B1000F307F1F0AB8DBC8DED91FC91BA81B13042
:101B200059F40084F185E02D2D813E81A301B4019B
:101B30008B8D9C8D09950CC00284F385E02DED8082
:101B4000FE8085019501A101B6018B8D9C8D0995C3
:101B5000E981E695E983FFEF6F1A7F0A2A0C3B1CA7
:101B60002B853C856216730609F0B7CF3B813F5F3A
:101B70003B834FEF841A940ACA0CDB1C363009F001
:101B80009DCFCAC0FA0134969491329765917491B1
:101B9000291BCB01B7E02B9F800D911D1124FA0169
:101BA000259134913A8B298BFC0165907490FC014E
:101BB000329634913D83319644914B873296C4904E
:101BC000319614915A81523058F08C2C0C2C000C08
:101BD0009908812F012E000C990B9C838B8304C0E4
:101BE0001C821B82812C912CAB8DBC8DED91FC91C4
:101BF00011970680F781E02DCD010995BA81AB2EB2
:101C0000B12C8A9CC0018B9C900D9A9C900D112444
:101C1000FC01E20DF31DF88BEF871982912C812CCA
:101C2000EC2DCC0CFF0B91012E0F3F1F3A8729871B
:101C300061013D81C30ED11CA6014E0F5F1F5F8B5A
:101C40004E8BC201810F911D17FD9A95998F888F38
:101C50005B85851608F060C0882D90E04B815C8123
:101C6000480F591F4A9D90014B9D300D5A9D300DD4
:101C70001124D901A40DB51DBE87AD87C984DA84AE
:101C80002F843888B981E985BE1BBB8B288D398D9F
:101C9000280F391F3D8B2C8B8B898C0D2E893F890A
:101CA000C216D30699F1877041F4C3010196E98900
:101CB000FA89E60DF71D94903C0197FE20C0AB8D8C
:101CC000BC8DED91FC91BA81B13061F40084F18555
:101CD000E02D2F8138854C895D89B6018B8D9C8DD7
:101CE00009950DC00284F385E02DEF80F88485010D
:101CF00095014D855E85B1018B8D9C8D0995990C63
:101D0000EFEFCE1ADE0A2A0C3B1CC6CF39814D817B
:101D1000340F398383949CCFAB8DBC8DED91FC91B6
:101D200011970288F389E02DCD016C960FB6F894D7
:101D3000DEBF0FBECDBFDF91CF911F910F91FF90FE
:101D4000EF90DF90CF90BF90AF909F908F907F905B
:101D50006F905F904F903F902F9009946C960FB6C4
:101D6000F894DEBF0FBECDBFDF91CF911F910F91D1
:101D7000FF90EF90DF90CF90BF90AF909F908F90AB
:101D80007F906F905F904F903F902F900895AF920B
:101D9000BF92CF92EF92FF920F931F93CF93DF9357
:101DA000EC01262F888D998D009709F042C06A308A
:101DB00069F42C898E859F8538E0239F800D911DC5
:101DC00011249F878E871D861C86ACC06D3009F458
:101DD000A9C08E898823C1F03C898C859D8546E009
:101DE000349F800D911D11244885598584179507CE
:101DF0005CF01D861C868E859F85E8E03E9F800DE9
:101E0000911D11249F878E87EA88FB88088919898C
:101E10004E855F856C857D85CC88CE010E94E40C63
:101E20002C898C859D85F6E02F9F800D911D1124B6
:101E300041C06A3079F41D861C862C89FC013696D7
:101E4000E4918E859F852E9F800D911D11249F8783
:101E50008E8768C06D3009F465C0AC014C5F5F4F80
:101E6000FA013491631708F45DC03196E491E617E6
:101E700008F458C0FA014491362F341BFC01329605
:101E8000A590B490F7E03F9FA00CB11C1124F50180
:101E9000329634913196E491332311F0E1110DC063
:101EA000F5013496E4912C898C859D85E29F800D07
:101EB000911D11249D878C8735C0F501359644917D
:101EC0005E89552311F16C89E32FF0E0E40FF11DD9
:101ED00047FDFA956E9FD0016F9FB00D11244C8580
:101EE0005D854A0F5B1FE885F9854E175F076CF02B
:101EF0001D861C86FC013696E4918E859F856E9F1B
:101F0000800D911D11249F878E87EA88FB880889A0
:101F100019894E855F856C857D85CC88CE010E94B0
:101F2000E40CBECF81E090E0DF91CF911F910F9143
:101F3000FF90EF90CF90BF90AF9008956F927F92F7
:101F40008F929F92AF92BF92CF92DF92EF92FF92C9
:101F50000F931F93CF93DF93EC014B015A0169015B
:101F60003801E881F9810680F781E02D0995E88143
:101F7000F9810684F785E02D87019601A501B4015A
:101F8000CE010995E881F981A501460D571D415003
:101F900051090684F785E02D9601B401CE0109951B
:101FA000E881F9810484F585E02D9301A501B40150
:101FB000CE010995E881F981C80CD91CB6016150A0
:101FC00071090484F585E02D9301A501CE010995E1
:101FD000E881F9810288F389E02DCE01DF91CF916C
:101FE0001F910F91FF90EF90DF90CF90BF90AF9037
:101FF0009F908F907F906F900994CF92DF92EF9295
:10200000FF920F931F93CF93DF9300D000D000D0A7
:10201000CDB7DEB76C01DC01ED91FC91621773075F
:1020200089F4041715072CF4942F852FA801092F84
:10203000182F041B150B98012F5F3F4F008CF18D5B
:10204000E02D12C04017510709F5261737072CF469
:10205000962F872FB901292F382F261B370B2F5F7B
:102060003F4F028CF38DE02D8701C601099526961E
:102070000FB6F894DEBF0FBECDBFDF91CF911F9199
:102080000F91FF90EF90DF90CF9008950680F78139
:10209000E02D2D833E834B835C8369837A8309958E
:1020A000D601ED91FC910088F189E02D2D813E81D2
:1020B0004B815C8169817A81C6010995D601ED91D8
:1020C000FC910288F389E02DC60126960FB6F8949C
:1020D000DEBF0FBECDBFDF91CF911F910F91FF905B
:1020E000EF90DF90CF900994EF92FF920F931F93A0
:1020F000DC01ED91FC9111971A960D911C911B97A3
:1021000018962D913C911997048CF58DE02D7B014B
:1021100040E050E060E070E009951F910F91FF9062
:10212000EF9008954F925F926F927F928F929F925D
:10213000AF92BF92CF92DF92EF92FF920F931F93D5
:10214000CF93DF9300D0CDB7DEB76C015A013901D0
:102150004801DC01ED91FC910680F781E02D698357
:102160007A8309956981462E7A81572E640C751CF5
:10217000D601ED91FC91461457046CF40484F58566
:10218000E02D87019401A501B201C6010995BFEFB9
:102190004B1A5B0AEDCF0288F389E02DC6010F9040
:1021A0000F90DF91CF911F910F91FF90EF90DF90F3
:1021B000CF90BF90AF909F908F907F906F905F90E7
:1021C0004F900994AF92BF92CF92DF92EF92FF921D
:1021D0000F931F93CF93DF9300D000D0CDB7DEB71E
:1021E0005C016901DC01ED91FC910680F781E02D35
:1021F0004B835C8369837A830995D501ED91FC91CA
:1022000069817A819B012C0D3D1D21503109008887
:10221000F189E02D78014B815C818A01C501099526
:10222000D501ED91FC910288F389E02DC5010F9055
:102230000F900F900F90DF91CF911F910F91FF9012
:10224000EF90DF90CF90BF90AF900994AF92BF9284
:10225000CF92DF92EF92FF920F931F93CF93DF9372
:1022600000D000D0CDB7DEB75C016901DC01ED9193
:10227000FC910680F781E02D4B835C8369837A8330
:102280000995D501ED91FC914B815C81C40ED51E61
:10229000B1E0CB1AD1080088F189E02D78018601E0
:1022A00069817A819B01C5010995D501ED91FC9168
:1022B0000288F389E02DC5010F900F900F900F90C9
:1022C000DF91CF911F910F91FF90EF90DF90CF9012
:1022D000BF90AF9009940895EF92FF920F931F93D0
:1022E000DC01ED91FC91048CF58DE02D09951F9199
:1022F0000F91FF90EF9008950F931F93DC01ED91E4
:10230000FC91028CF38DE02D09951F910F9108959A
:102310000F931F93DC01ED91FC91008CF18DE02D6A
:1023200009951F910F910895DC01ED91FC910480B6
:10233000F581E02D099408952F923F924F925F927C
:102340006F927F928F929F92AF92BF92CF92DF92C5
:10235000EF92FF920F931F93CF93DF9300D01F92C2
:10236000CDB7DEB74C017B836A836A01590117013F
:102370009801241B350B37FF03C031952195310996
:10238000C5014A815B81841B950B97FF03C0919522
:102390008195910951E059838217930714F01982AE
:1023A0000BC09A2D8B2D5801092F182F9A818B81E4
:1023B000DB82CA82C92ED82E8A819B81A816B906D3
:1023C0005CF49C2D8D2D6801092F182F9A818B812B
:1023D000BB82AA82A92EB82E2501AA81BB814A1AE6
:1023E0005B0A38016C187D0877FE03C07194619414
:1023F0007108720157FE03C0BFEFEB1AFB0AF59498
:10240000E794C016D1061CF00FEF1FEF1FC001E0CC
:1024100010E01CC0D401ED91FC91B9810084F185DC
:10242000E02D9101BB23C1F04A815B81B601C4015B
:102430000995E618F708F7FE04C0C00ED11EE40C9B
:10244000F51CEA81FB813196FB83EA834A815B813B
:10245000A416B506FCF604C0A6016A817B81E7CF0D
:102460000F900F900F90DF91CF911F910F91FF90E0
:10247000EF90DF90CF90BF90AF909F908F907F9024
:102480006F905F904F903F902F90089585ED8093CF
:10249000BC008091BC0084FDFCCF10925F020895C7
:1024A00040913902262F30E0240F311D21323105B1
:1024B000DCF420915F022430C9F4FC0180E090E05C
:1024C000861758F4309139022191DC01A95EBD4F85
:1024D000A30FB11D2C930196F3CF80913902680FA1
:1024E0006093390280E0089581E0089582E00895C4
:1024F00008958FEF9FEF08958FEF9FEF08958091DC
:10250000160290E09195819591090895CF93DF93FC
:1025100000D0CDB7DEB7CB01642F49835A830E9428
:1025200050124981842F5A81952F0F900F90DF917F
:10253000CF910895CF93DF931F92CDB7DEB7698314
:1025400061E0CE0101960E94501281E090E00F9070
:10255000DF91CF9108958F929F92AF92BF92CF92C9
:10256000DF92EF92FF920F931F93CF93DF93EC01D3
:102570007A016901EB8DFC8D30812FA1232320830B
:102580002A8D21115EC02D89223089F0233021F15E
:10259000213081F52FEE30E0A901401B510B5B018A
:1025A00049018E189F08860164017B0113C02FEE3C
:1025B00030E0A9014C195D096901C61AD70A8FE3F9
:1025C00091E09C01201B310B8C010E191F09580151
:1025D00046017901BA0110C02FE331E0A9014C197D
:1025E0005D095901A61AB70A470168018501B701BB
:1025F0007A0102C05A014B01AB0160E570E0CE01E7
:102600000E94861CA60161E570E0CE010E94861C36
:10261000A70162E570E0CE010E94861CA80163E577
:1026200070E0CE010E94861CA40160E270E0CE0141
:102630000E94861CA50161E270E0CE010E94861C0A
:1026400047C02130C1F49B0143E062E00E94101CAE
:10265000970147E066E0CE010E94101C960145E01C
:1026600064E0CE010E94101C980149E068E0CE01B0
:102670000E94101C2DC02250223050F5CB01770F44
:10268000AA0BBB0BDC0199278827A601DD0C660B82
:10269000770B9A01AB01282B392B4A2B5B2B6AE273
:1026A000CE010E94601BC701FF0CAA0BBB0BDC0113
:1026B00099278827A801110F660B770B9A01AB01A8
:1026C000282B392B4A2B5B2B6BE2CE010E94601B1F
:1026D000EB8DFC8D90818BA1892B8083DF91CF9135
:1026E0001F910F91FF90EF90DF90CF90BF90AF9030
:1026F0009F908F9008951F920F920FB60F92112402
:102700000F900FBE0F901F9018951F920F920FB64B
:102710000F9211242F933F934F935F936F937F9367
:102720008F939F93AF93BF93EF93FF938091B900E3
:10273000887F803609F49CC068F5883209F45BC054
:1027400090F4803109F454C038F4882309F4F6C0B9
:10275000883009F44DC0F6C0883109F44CC080328D
:1027600009F45DC0EFC0803409F468C048F48033D8
:1027700009F455C0883309F0E5C080935E02D8C0E3
:10278000803509F44FC0883509F45DC0883409F0FC
:10279000D9C0D6C0883909F4C7C0A8F4883709F46D
:1027A00067C038F4883609F463C0803709F460C024
:1027B000C9C0883809F4B8C0803909F45FC08038CE
:1027C00009F0C0C05BC0803B09F486C038F4803A91
:1027D00009F466C0883A09F47FC0B4C0803C09F4AB
:1027E000A7C0883C09F4A4C0883B09F48AC0AAC0E9
:1027F0008091840210C09091830280918202981788
:1028000070F5E091830281E08E0F80938302F0E007
:10281000EE59FD4F80818093BB0085EC86C080938C
:102820005E028EC0E091830281E08E0F809383026E
:102830008091BB00F0E0EE59FD4F808390918302C0
:10284000809182026EC0E091830281E08E0F8093BE
:1028500083028091BB00F0E0EE59FD4F80838091B0
:10286000610281116DC081E08093600284EA61C0E1
:1028700083E080935F0210925D02CFCF80915D0272
:10288000803208F051C0E0915D0281E08E0F8093AC
:102890005D028091BB00F0E0E35CFD4F8083BDCF23
:1028A00085EC8093BC0010925F0280915D028032C3
:1028B00030F4E0915D02F0E0E35CFD4F1082609146
:1028C0005D0270E0E0913B02F0913C028DE392E00A
:1028D000099510925D0236C084E080935F021092E9
:1028E0003A0210923902E0913702F09138020995CC
:1028F00080913902811105C081E0809339021092E4
:102900001702E0913A0281E08E0F80933A02F0E0E4
:10291000E95EFD4F80818093BB0090913A028091E7
:102920003902981708F479CF85E88093BC000AC073
:1029300085EC8093BC0010925F0204C010925E028E
:102940000E944612FF91EF91BF91AF919F918F919D
:102950007F916F915F914F913F912F910F900FBE9B
:102960000F901F901895AF92BF92CF92DF92EF9287
:10297000FF920F931F93CF93DF93CDB7DEB76E9780
:102980000FB6F894DEBF0FBECDBF00E011E08DE8BA
:10299000A82E82E0B82E9DEAC92E92E0D92E23E01F
:1029A000E22E24E0F22EF801619171918F014AE04C
:1029B000CE0149960E945027F501619171915F0106
:1029C0004AE0CE0143960E945027F6016191719131
:1029D0006F014AE0CE010D960E945027B701CE014B
:1029E00007960E94882765E971E0CE0101960E9452
:1029F000A227BE01695F7F4FCE0101960E94172773
:102A00006DE971E00E948C22BE01635F7F4F0E94DE
:102A1000172763EA71E00E948C22BE016D5E7F4F32
:102A20000E94172769EA71E00E948C22BE01675E4E
:102A30007F4F0E9417270E94B021CE0101960E946D
:102A40004B27CE0107960E944B27CE010D960E9480
:102A50004B27CE0143960E944B27CE0149960E94F8
:102A60004B27F6E0EF0EF11C81E00032180709F069
:102A70009ACF6E960FB6F894DEBF0FBECDBFDF9132
:102A8000CF911F910F91FF90EF90DF90CF90BF906B
:102A9000AF9008958F929F92AF92BF92CF92DF92A4
:102AA000EF92FF920F931F93CF93DF935C016B0123
:102AB000FC018480958033E0E32E34E0F32E00E0C7
:102AC00010E0CFEFDFEFF70184819581881599053C
:102AD00039F4B501C7010E945C22892B09F4E80191
:102AE0000F5F1F4FF6E0EF0EF11C0031110559F793
:102AF00082E0C816D10461F0E3E0CE16D10469F09B
:102B0000CA94CD2889F4CC0FDD1FC355DD4F09C011
:102B1000CC0FDD1FC357DD4F04C0CC0FDD1FC050ED
:102B2000DF4F8881998101C0CE01DF91CF911F9144
:102B30000F91FF90EF90DF90CF90BF90AF909F905C
:102B40008F9008955F926F927F928F929F92AF9233
:102B5000BF92CF92DF92EF92FF920F931F93CF938A
:102B6000DF938C015B016A017901FC01848095800F
:102B7000612C712CCFEFDFEF46E0542E569CC00144
:102B8000579C900D11248D5F9B4FFC012481358152
:102B90002815390549F4B8010E945C22892B21F4DB
:102BA000E30130E1632E712CFFEF6F1A7F0A80E1A1
:102BB000681671041CF3CE01880F991FFC01E355C0
:102BC000FD4FB182A082FC01E357FD4FD182C0824C
:102BD000FC01E050FF4FF182E082DF91CF911F9125
:102BE0000F91FF90EF90DF90CF90BF90AF909F90AC
:102BF0008F907F906F905F9008950F931F93CF9366
:102C0000DF93EC018EE091E00E944120CE0168E666
:102C100071E00E94E634EC01C25FDE4FCE010E94FB
:102C20004120C83681E0D80714F0C856D140CE0103
:102C30000E944120CE01DF91CF911F910F91089505
:102C4000AF92BF92CF92DF92EF92FF920F931F93BA
:102C5000CF93DF9300D000D0CDB7DEB78C015B01FE
:102C6000BA01550F880B990B0E94DB312BED3FE029
:102C700049E450E40E94163220E030E044E353E49B
:102C80000E94AE330E9495349B01AC01B801110F34
:102C9000880B990B29833A834B835C830E94DB3139
:102CA0006B017C01B501BB0C880B990B0E94DB31D9
:102CB00029813A814B815C810E9416329B01AC01D3
:102CC000C701B6010E943D330E942034CB010F9012
:102CD0000F900F900F90DF91CF911F910F91FF9068
:102CE000EF90DF90CF90BF90AF900895AF92BF92DA
:102CF000CF92DF92EF92FF920F931F93CF93DF93C8
:102D000000D000D0CDB7DEB78C015B01BA01550F02
:102D1000880B990B0E94DB312BED3FE049E450E436
:102D20000E94163220E030E044E353E40E94AE33C8
:102D30000E94A9339B01AC01B801110F880B990BBC
:102D400029833A834B835C830E94DB316B017C01D6
:102D5000B501BB0C880B990B0E94DB3129813A81AC
:102D60004B815C810E9416329B01AC01C701B60108
:102D70000E943D330E942034CB010F900F900F90A2
:102D80000F90DF91CF911F910F91FF90EF90DF9007
:102D9000CF90BF90AF9008954F925F926F927F92C5
:102DA0008F929F92AF92BF92CF92DF92EF92FF925B
:102DB0000F931F93CF93DF9300D000D000D0CDB7F7
:102DC000DEB73C0120916D0430916E04C9018597F6
:102DD00097FD0396959587959595879590938C0289
:102DE00080938B02109278041092770410927604EC
:102DF0001092750433E0A32E34E0B32E812C912C75
:102E00004EE0C42ED12C59E0452E512C20918B023E
:102E100030918C026814790429F498E1E92E96EC3B
:102E2000F92E04C08FEEE82E8BE7F82E04E110E0B7
:102E300046E050E0B60185E694E00E943025B501F9
:102E4000CE0101960E94882721E030E046E050E064
:102E5000B601CE0101960E94A215CE0101960E94F4
:102E60004B27C6010296909372048093710450928E
:102E7000740440927304F50144815581608171812D
:102E800085E694E00E94852680917D0490917E04E1
:102E9000892B49F080917304909174040697909364
:102EA00074048093730410927E0410927D04FFEFEB
:102EB0008F1A9F0A84E08816910469F080918B0232
:102EC00090918C02C80ED91E83E0C80ED11CE6E09A
:102ED000AE0EB11C9BCF26960FB6F894DEBF0FBE88
:102EE000CDBFDF91CF911F910F91FF90EF90DF90B9
:102EF000CF90BF90AF909F908F907F906F905F909A
:102F00004F9008952F923F924F925F926F927F92CF
:102F10008F929F92AF92BF92CF92DF92EF92FF92E9
:102F20000F931F93CF93DF934C016B015A01E9017B
:102F300027016090010470900204AC01B501C30147
:102F40000E9476161C01E090FD03F090FE03A401A0
:102F5000B501C7010E9420165C01A601BE01C30194
:102F60000E9476164C01A601BE01C7010E942016E0
:102F7000800F911FA501400F511F72018C01940118
:102F8000B10185E694E00E94FD0FDF91CF911F9182
:102F90000F91FF90EF90DF90CF90BF90AF909F90F8
:102FA0008F907F906F905F904F903F902F900895FB
:102FB0008F929F92AF92BF92CF92DF92EF92FF9249
:102FC0000F931F93CF93DF93C1E08091CD02909137
:102FD000CE02029709F4C0E0D0E04E01880C991CA3
:102FE000A12CB12CF501E80DF91DE65DFE4F6081C5
:102FF0007181072E000C880B990B0E94DB3120E0B9
:1030000030E048E455E40E94AE3320E030E044EB89
:1030100053E40E9416320E942034CB010E94FD1519
:103020006C0180E1E82E84E8F82E04E010E025E54C
:1030300030E04CE350E0B601C6010E9482170CEF6D
:103040001FEF25E530E04CE350E0B601C6010E94D9
:103050008217219682E0A80EB11CC730D10514F268
:10306000DF91CF911F910F91FF90EF90DF90CF9064
:10307000BF90AF909F908F9008956091FD037091E5
:10308000FE0320E134E84CE350E08091010490918C
:1030900002040E94851F6091FD037091FE0320E0F1
:1030A00030E048E350E080910104909102040C94D8
:1030B000851FFC01918D828D981761F0828DDF0153
:1030C000A80FB11D5D968C91928D9F5F9F73928F1B
:1030D00090E008958FEF9FEF0895FC01918D828D10
:1030E000981731F0828DE80FF11D858D90E00895DD
:1030F0008FEF9FEF0895FC01918D228D892F90E035
:10310000805C9F4F821B91098F73992708958AEDE8
:1031100092E00E947B1821E0892B09F420E0822FA5
:103120000895FC01848DDF01A80FB11DA35ABF4F84
:103130002C91848D90E001968F739927848FA689B6
:10314000B7892C93A089B1898C9180648C93938DDD
:10315000848D981306C00288F389E02D80818F7DCD
:1031600080830895EF92FF920F931F93CF93DF9385
:10317000EC0181E0888F9B8D8C8D981305C0E889C8
:10318000F989808185FD24C0F62E0B8D10E00F5F3C
:103190001F4F0F731127E02E8C8DE8120CC00FB655
:1031A00007FCFACFE889F989808185FFF5CFCE0148
:1031B0000E949118F1CF8B8DFE01E80FF11DE35AAB
:1031C000FF4FF0820B8FEA89FB898081806207C004
:1031D000EE89FF896083E889F98980818064808332
:1031E00081E090E0DF91CF911F910F91FF90EF90E0
:1031F0000895CF93DF93EC01888D8823C9F0EA8985
:10320000FB89808185FD05C0A889B9898C9186FDDF
:103210000FC00FB607FCF5CF808185FFF2CFA889DC
:10322000B9898C9185FFEDCFCE010E949118E7CF2F
:10323000DF91CF91089580E090E0892B29F00E94E2
:10324000871881110C94000008953FB7F89480917D
:10325000D6029091D702A091D802B091D90226B59A
:10326000A89B05C02F3F19F00196A11DB11D3FBFBE
:10327000BA2FA92F982F8827820F911DA11DB11D4C
:10328000BC01CD0142E0660F771F881F991F4A9548
:10329000D1F7089508950895FC01A58DB68D9C91F0
:1032A00080A589238C938BB1962F9C7F8370892B6B
:1032B0008BB985B163708C7F682B65B9A78DB0A180
:1032C0009C9181A589238C93A78DB0A19C9185A108
:1032D000892B8C93A58DB68D9C9184A1892B8C9381
:1032E0008BB1942F9C7F8370892B8BB985B14370F0
:1032F0008C7F482B45B9A78DB0A19C9181A58923CE
:103300008C93A78DB0A19C9185A1892B8C93089556
:103310000E941A371F920F920FB60F9211242F930B
:103320003F934F935F936F937F938F939F93AF934D
:10333000BF93EF93FF938AED92E00E949118FF9163
:10334000EF91BF91AF919F918F917F916F915F911D
:103350004F913F912F910F900FBE0F901F90189596
:103360001F920F920FB60F9211242F938F939F935A
:10337000EF93FF93E091EA02F091EB028081E091FC
:10338000F002F091F10282FD12C090818091F3026F
:103390008F5F8F732091F402821751F0E091F30256
:1033A000F0E0E652FD4F958F8093F30201C08081DB
:1033B000FF91EF919F918F912F910F900FBE0F90E2
:1033C0001F901895833081F028F4813099F0823075
:1033D000A1F008958730A9F08830B9F08430D1F495
:1033E000809180008F7D03C0809180008F778093D3
:1033F0008000089584B58F7702C084B58F7D84BD29
:1034000008958091B0008F7703C08091B0008F7DC8
:103410008093B00008951F93CF93DF93282F30E05F
:10342000F901E250F74E8491F901EE5EF64ED49127
:10343000F901E05DF64EC491CC23C9F0162F81113D
:103440000E94E219EC2FF0E0EE0FFF1FEA5DF64E4E
:10345000A591B4918FB7F894111105C09C91ED2FEF
:10346000E095E92302C0EC91ED2BEC938FBFDF9147
:10347000CF911F910895CF93DF9390E0FC01EE5E12
:10348000F64E2491FC01E05DF64E8491882361F1B3
:1034900090E0880F991FFC01E651F74EC591D49139
:1034A000FC01EA5DF64EA591B491611109C09FB788
:1034B000F8948881209582238883EC912E230BC079
:1034C000623061F49FB7F8943881822F809583230E
:1034D0008883EC912E2B2C939FBF06C08FB7F89456
:1034E000E8812E2B28838FBFDF91CF9108958E30F6
:1034F00008F08E508770806480937C0080917A0001
:10350000806480937A0080917A0086FDFCCF809160
:1035100078002091790090E0922B08958F929F92ED
:10352000AF92BF92CF92DF92EF92FF926B017C013C
:103530000E9425194B015C01C114D104E104F1047E
:10354000F1F00E942519DC01CB0188199909AA091B
:10355000BB09883E9340A105B10570F321E0C21A72
:10356000D108E108F10888EE880E83E0981EA11CBE
:10357000B11CC114D104E104F10419F7DDCFFF90AF
:10358000EF90DF90CF90BF90AF909F908F90089575
:103590001F920F920FB60F9211242F933F938F9388
:1035A0009F93AF93BF938091870290918802A091DF
:1035B0008902B0918A023091D50223E0230F2D3782
:1035C00020F40196A11DB11D05C026E8230F029627
:1035D000A11DB11D2093D50280938702909388028C
:1035E000A0938902B0938A028091D6029091D7026B
:1035F000A091D802B091D9020196A11DB11D80936E
:10360000D6029093D702A093D802B093D902BF916B
:10361000AF919F918F913F912F910F900FBE0F907F
:103620001F9018951F920F920FB60F9211242F938F
:103630003F934F935F936F937F938F939F93AF933A
:10364000BF93EF93FF93E0912201F091230109953D
:10365000FF91EF91BF91AF919F918F917F916F916A
:103660005F914F913F912F910F900FBE0F901F9040
:1036700018951F920F920FB60F9211242F933F931C
:103680004F935F936F937F938F939F93AF93BF936A
:10369000EF93FF93E0912001F09121010995FF91B3
:1036A000EF91BF91AF919F918F917F916F915F91BA
:1036B0004F913F912F910F900FBE0F901F90189533
:1036C000CF92DF92EF92FF92FC01A38DB48D9C917B
:1036D00087A189238C93A58DB68D9C9180A5892384
:1036E0008C938BB1962F9C7F8370892B8BB985B17E
:1036F00063708C7F682B65B9A78DB0A19C9181A563
:1037000089238C93A78DB0A19C9185A1892B8C9343
:10371000A58DB68D9C9184A1892B8C9383E290E03A
:10372000DC011197F1F77BB1C52EDD24EE24FF24D7
:103730006C2D6C7F7370762B7BB965B17C2D7370AB
:103740006C7F672B65B9A78DB0A17C9161A56723BC
:103750006C93A78DB0A17C9165A1672B6C93DC0164
:103760001197F1F77BB16A01EE24FF246C2D6C7F79
:103770007370762B7BB965B17C2D73706C7F672B72
:1037800065B9A78DB0A17C9161A567236C93A78DC6
:10379000B0A17C9165A1672B6C93DC011197F1F7C7
:1037A0007BB1C32ED42EE52EFF246C2D6C7F73705D
:1037B000762B7BB965B17C2D73706C7F672B65B9F7
:1037C000A78DB0A17C9161A567236C93A78DB0A153
:1037D0007C9165A1672B6C930197F1F78BB1922FC8
:1037E0009C7F8370892B8BB985B123708C7F282BAC
:1037F00025B9A78DB0A19C9181A589238C93A78D14
:10380000B0A19C9185A1892B8C93A38DB48D9C91A3
:1038100083A1892B8C93FF90EF90DF90CF90089538
:10382000FC01A58DB68D9C9180A589238C938BB1CD
:10383000962F9C7F8370892B8BB985B163708C7FA9
:10384000682B65B9A78DB0A19C9181A589238C9324
:10385000A78DB0A19C9185A1892B8C93A58DB68D48
:103860009C9184A1892B8C938BB1932F9C7F837027
:10387000892B8BB985B133708C7F382B35B9A78DE7
:10388000B0A19C9181A589238C93A78DB0A19C9117
:1038900085A1892B8C93A58DB68D9C9180A58923BC
:1038A0008C938BB1942F9C7F8370892B8BB985B1BE
:1038B00043708C7F482B45B9A78DB0A19C9181A501
:1038C00089238C93A78DB0A19C9185A1892B8C9382
:1038D000A58DB68D9C9184A1892B8C938BB1922F51
:1038E0009C7F8370892B8BB985B123708C7F282BAB
:1038F00025B9A78DB0A19C9181A589238C93A78D13
:10390000B0A19C9185A1892B8C930895FC01A58D74
:10391000B68D9C9180A589238C938BB1972F9C7F2A
:103920008370892B8BB985B173708C7F782B75B9B7
:10393000A78DB0A19C9181A589238C93A78DB0A15F
:103940009C9185A1892B8C938BB1962F9C7F837042
:10395000892B8BB985B163708C7F682B65B9A78D76
:10396000B0A19C9181A589238C93A78DB0A19C9136
:1039700085A1892B8C93A58DB68D9C9184A1892BD3
:103980008C938BB1952F9C7F8370892B8BB985B1DC
:1039900053708C7F582B55B9A78DB0A19C9181A5F0
:1039A00089238C93A78DB0A19C9185A1892B8C93A1
:1039B0008BB1942F9C7F8370892B8BB985B1437019
:1039C0008C7F482B45B9A78DB0A19C9181A58923F7
:1039D0008C93A78DB0A19C9185A1892B8C93089580
:1039E000EF92FF920F931F93CF93DF93EC010E940E
:1039F000CF0CEB8DFC8D90818FA1892380838A8DE4
:103A0000811122C0ED89E150E33040F4F0E0EE0F87
:103A1000FF1FE25CFE4F4081518102C040E350E154
:103A200063E070E0CE010E94861C0A851B85015070
:103A30001109288539852150310940E050E060E0C6
:103A400070E0CE010E94AB128A8D813089F4ED893D
:103A5000E150E33028F4F0E0E55CFE4F408101C026
:103A600040E066E1CE010E944C19CE010E940C2577
:103A70008A8D823039F58D89813071F050F0823035
:103A800029F0833059F458E2E52E08C068E4E62EA8
:103A900005C048E8E42E02C038EEE32E4E2D66E362
:103AA000CE010E944C190A851B85015011092885F9
:103AB00039852150310940E050E060E070E0CE01EE
:103AC0000E94AB128A8D833031F58D89813069F087
:103AD00048F0823029F0833051F420E6F22E07C0FE
:103AE000F12C05C090ECF92E02C080EAF82E4F2D83
:103AF00066E3CE010E944C190A851B85015011090D
:103B0000288539852150310940E050E060E070E0BF
:103B1000CE010E94AB12DF91CF911F910F91FF90C8
:103B2000EF900895AF92BF92CF92DF92EF92FF9203
:103B30000F931F93CF93DF93EC017B016A01B22EA9
:103B4000A32E77FD1BC157FD19C18885998568177C
:103B500079070CF013C18A859B85481759070CF02B
:103B60000DC1EB8DFC8D90818FA1892380838A8D7F
:103B7000811135C08D89823059F08330B1F08130A8
:103B8000D1F48FEE90E0841B950B6B017C0113C088
:103B90008FEE90E09C01261B370B79018FE391E0BB
:103BA0009C01241B350B690106C08FE391E0861B45
:103BB000970B7A016C01A70160E270E0CE010E94D0
:103BC000861CA60161E270E0CE010E94861C4B2D8E
:103BD0005A2D62E270E0CE010E94861CC9C081307D
:103BE00009F060C0ED89E150E33028F4F0E0E85CD2
:103BF000FE4F408101C040E066E1CE010E944C19B9
:103C0000970143E062E0CE010E94101C960147E05C
:103C100066E0CE010E94101CED8DFE8D908188A57E
:103C2000892380838BB1837080628BB985B18C7F4F
:103C3000826085B9EF8DF8A1908189A58923808361
:103C4000EF8DF8A190818DA1892B8083ED8DFE8D64
:103C500090818CA1892B80838BB19A2D9C7F83705E
:103C6000892B8BB985B19A2D93708C7FA92EA82AA8
:103C7000A5B8EF8DF8A1908189A589238083EF8D68
:103C8000F8A190818DA1892B80838BB19B2D9C7F86
:103C90008370892B8BB985B19B2D93708C7FB92E46
:103CA000B82A59C08250823008F062C00A851B854C
:103CB000015011092885398521503109CE010E9412
:103CC000AB12EB8DFC8D90818FA189238083ED8DCC
:103CD000FE8D908188A5892380838BB183708C624F
:103CE0008BB985B18C7F85B9EF8DF8A1908189A5BD
:103CF00089238083EF8DF8A190818DA1892B80830A
:103D0000ED8DFE8D90818CA1892B80838BB19A2DB6
:103D10009C7F8370892B8BB995B18A2D83709C7F92
:103D2000A82EA92AA5B8EF8DF8A1908189A589238D
:103D30008083EF8DF8A190818DA1892B80838BB139
:103D40009B2D9C7F8370892B8BB995B18B2D8370B4
:103D50009C7FB82EB92AB5B8EF8DF8A1908189A5BE
:103D600089238083EF8DF8A190818DA1892B808399
:103D7000EB8DFC8D90818BA1892B8083DF91CF917E
:103D80001F910F91FF90EF90DF90CF90BF90AF9079
:103D900008952F923F924F925F926F927F928F92EF
:103DA0009F92AF92BF92CF92DF92EF92FF920F93CA
:103DB0001F93CF93DF9300D000D000D0CDB7DEB7F4
:103DC0005C014B015E834D83280181E090E03C0162
:103DD000641A750ACA01919581959109AC01440F45
:103DE000551F5A8349831801CC24C394D12C522FD8
:103DF00051705B8322702C83C60101972D813E8117
:103E0000821793070CF068C077FC0CC08D819E81EF
:103E100001979E838D83E981FA813296FA83E98343
:103E20006E0E7F1EC601880F991F0196680E791EBF
:103E3000FB81FF2319F12D813E81220F331F2F5F5C
:103E40003F4F240D351D8701A4018D819E81481BA4
:103E5000590BB6016A0D7B1D85E694E00E9488111E
:103E600091012D5F3F4FA4014C195D096D817E8149
:103E70006A0D7B1D85E694E00E9488119C81992340
:103E800021F12D813E81220F331F2F5F3F4F240DE3
:103E9000351D8701A401ED81FE814E1B5F0BB5012D
:103EA0006C197D0985E694E00E94881191012D5FCF
:103EB0003F4FA4014C195D09B5018D819E81681B9E
:103EC000790B85E694E00E9488119FEFC91AD90A00
:103ED000E2E02E0E311C90CF26960FB6F894DEBF8E
:103EE0000FBECDBFDF91CF911F910F91FF90EF904B
:103EF000DF90CF90BF90AF909F908F907F906F900A
:103F00005F904F903F902F900895AF92BF92CF92C5
:103F1000DF92EF92FF920F931F93CF93DF936C0189
:103F20005B01EA0179019A01220F331F2F5F3F4F96
:103F3000AB014C1B5D0B8701B60185E694E00E9446
:103F4000881100E010E023E0AE01B501C6010E9437
:103F5000C91EDF91CF911F910F91FF90EF90DF90DD
:103F6000CF90BF90AF9008952F923F924F925F9263
:103F70006F927F928F929F92AF92BF92CF92DF9279
:103F8000EF92FF920F931F93CF93DF9300D000D057
:103F9000CDB7DEB72C015B011A0139016801882712
:103FA0009927801B910B9C01220F331F3C832B838D
:103FB000C201800F911F9A838983240F351F8301CB
:103FC000AB01BC0185E694E00E946C11EB81FC81A1
:103FD0006E0E7F1EF1E06F1A7108AC0CBD1C420C16
:103FE000531CC2018C199D09830121E0A601B50172
:103FF00001970E94C91E22E0A601B50189819A811C
:104000000E94C91E0F900F900F900F90DF91CF91DB
:104010001F910F91FF90EF90DF90CF90BF90AF90E6
:104020009F908F907F906F905F904F903F902F90D8
:104030000895EF92FF920F931F93CF93DF93EC01BC
:104040007B01AC0160E370E0809101049091020477
:104050000E9476168C01AE0160E370E08091FD0352
:104060009091FE030E942016970142E050E0BC01AF
:10407000C801DF91CF911F910F91FF90EF900C94A9
:10408000851F8F929F92AF92BF92CF92DF92EF9255
:10409000FF920F931F93CF93DF93CDB7DEB7A19716
:1040A0000FB6F894DEBF0FBECDBF6C01990FEE08BE
:1040B000FF08F7FE33C0E091DA02F091DB020190D5
:1040C000F081E02D6DE28AED92E009958C012227C6
:1040D0003327A9012C193D094E095F0919A2CE0108
:1040E00081967C019AE0892E912CA12CB12CCA01D9
:1040F000B901A50194010E94D432605DF701629379
:104100007F01211531054105510589F7BF018AED70
:1041100092E00E94B727080F191F20C0A70196013F
:1041200019A28E010F5D1F4F8AE0C82ED12CE12C01
:10413000F12CCA01B901A70196010E94D432605D39
:10414000F80162938F01211531054105510589F769
:10415000BF018AED92E00E94B7278C016EEB71E0FF
:104160008AED92E00E94B727800F911FA1960FB6AB
:10417000F894DEBF0FBECDBFDF91CF911F910F919D
:10418000FF90EF90DF90CF90BF90AF909F908F9077
:1041900008952F923F924F925F926F927F928F92EB
:1041A0009F92AF92BF92CF92DF92EF92FF920F93C6
:1041B0001F93CF93DF9300D000D000D0CDB7DEB7F0
:1041C0007C016B015E834D83890181E090E03C01BD
:1041D000641A750ACA019195819591099C01220F73
:1041E000331F3A832983460F571F9801B70185E68D
:1041F00094E00E949411A6018D819E81481B590B69
:104200009801B70185E694E00E9494116D817E814A
:104210006E0D7F1D9801A60185E694E00E94941121
:10422000B701ED81FE816E1B7F0B9801A60185E62B
:1042300094E00E949411A12CB12C21E030E03C8349
:104240002B832D813E81A216B3060CF070C077FC43
:104250000CC08D819E8101979E838D83E981FA81B7
:104260003296FA83E9836E0E7F1EFFEFAF1ABF0A04
:104270002B813C812E5F3F4F3C832B83620E731E4C
:1042800025014E0C5F1C98018D809E808C0C9D1C1E
:10429000A401B20185E694E00E94941117012A1846
:1042A0003B089801A401B10185E694E00E949411B5
:1042B000980146018D819E81881A990AA401B20154
:1042C00085E694E00E9494119801A401B10185E66D
:1042D00094E00E94941145018C0C9D1C9801A4014E
:1042E0004D805E804E0C5F1CB20185E694E00E941A
:1042F00094119801A4011701ED81FE812E1A3F0A45
:10430000B10185E694E00E94941146018A189B0849
:104310009801A401B20185E694E00E9494119801ED
:10432000A401B10185E694E00E9494118ACF2696FB
:104330000FB6F894DEBF0FBECDBFDF91CF911F91B6
:104340000F91FF90EF90DF90CF90BF90AF909F9034
:104350008F907F906F905F904F903F902F90089537
:10436000CF93DF93FC0144815581608171818AED97
:1043700092E00E948526EC016EEB71E08AED92E0FE
:104380000E94B7278C0F9D1FDF91CF910895E09178
:104390008004F0918104908180918804892B80832E
:1043A000E0918404F0918504908180918A04892BA6
:1043B0008083E0918604F0918704908180918B0442
:1043C000892B808380919004882371F060E00E94A3
:1043D0000B1A62E070E080E090E00E948E1A61E0CB
:1043E000809190040E940B1AE0918004F091810466
:1043F000908180918C0489238083E0918204F091E4
:104400008304908180918D04892380838BB1837094
:104410008BB985B18C7F85B9E0918404F0918504D6
:10442000908180918E0489238083E0918404F091AF
:104430008504908180918A04892B808383E0E091B8
:104440008404F0918504208190918E0492239083BE
:10445000E0918404F0918504208190918A04922B4C
:104460009083815061F7E0918004F0918104908104
:1044700080918804892B80830895FC0124813581F3
:10448000232B31F421E061157105A1F0FB0108C077
:10449000FC01808191816115710531F421E0FC01FD
:1044A0008081882339F005C00E94283721E0892BBC
:1044B00009F020E0822F0895CF93DF93DC01ED9186
:1044C000FC91EB01A881B981309711F01097C9F4E4
:1044D000109759F0EB012C813D81232B31F08C9109
:1044E00090E091958195910914C0309781F0DC019D
:1044F00014968D919C911597892B49F0808190E0BD
:1045000008C0BD01CF01DF91CF910C94283780E026
:1045100090E0DF91CF910895CF93DF93EC01611587
:10452000710561F0FB0101900020E9F73197AF01BF
:10453000461B570B0E94D726811103C0CE010E9453
:104540000527CE01DF91CF910895AF92BF92CF9210
:10455000DF92EF92FF920F931F93CF93DF93FC01B3
:10456000A38DB48D9C9187A189238C93A58DB68D45
:104570009C9180A589238C93828D8230B9F0811122
:1045800013C08BB183708BB985B18C7F85B9A78D32
:10459000B0A19C9181A589238C93A78DB0A19C91FA
:1045A00085A1892B8C9309C0833039F48BB183703A
:1045B0008C628BB985B18C7F07C08BB183708062B0
:1045C0008BB985B18C7F826085B9A78DB0A19C9194
:1045D00081A589238C93A78DB0A19C9185A1892B5E
:1045E0008C93A58DB68D9C9184A1892B8C938BB1D6
:1045F000972F9C7FB92E8370892B8BB985B1A72FFC
:10460000A370AA2E8C7F8A2B85B9C78DD0A19881E3
:1046100081A589238883C78DD0A1988185A1892B05
:1046200088838BB1C62FCC7F83708C2B8BB985B1DF
:10463000D62FD3708C7F8D2B85B9078D10A1D80113
:104640009C9181A589238C93078D10A1D8019C9101
:1046500085A1892B8C9321503109410951096901A8
:104660007A0186E0F694E794D794C7948A95D1F7B7
:10467000C601761348C1019708F465C060E1A78DB3
:10468000B0A1CC9171A57C237C93A78DB0A1CC91D6
:1046900075A17C2B7C93A78DB0A1CC9171A57C23B7
:1046A0007C93A78DB0A1CC9175A17C2B7C93A78D19
:1046B000B0A1CC9171A57C237C93A78DB0A1CC91A6
:1046C00075A17C2B7C93A78DB0A1CC9171A57C2387
:1046D0007C93A78DB0A1CC9175A17C2B7C93A78DE9
:1046E000B0A1CC9171A57C237C93A78DB0A1CC9176
:1046F00075A17C2B7C93A78DB0A1CC9171A57C2357
:104700007C93A78DB0A1CC9175A17C2B7C93A78DB8
:10471000B0A1CC9171A57C237C93A78DB0A1CC9145
:1047200075A17C2B7C93A78DB0A1CC9171A57C2326
:104730007C93A78DB0A1CC9175A17C2B7C9361500B
:1047400009F09DCF98CF2F732150C8F0A78DB0A14D
:104750009C9181A589238C93A78DB0A19C9185A163
:10476000892B8C93A78DB0A19C9181A589238C93D3
:10477000A78DB0A19C9185A1892B8C93E5CFA38DAA
:10478000B48D9C9183A1892B8C93DF91CF911F9144
:104790000F91FF90EF90DF90CF90BF90AF90089572
:1047A0006BB163706B296BB965B16C7F6A2965B9B0
:1047B000078D10A1D801FC9061A56F216C93078D26
:1047C00010A1D801FC9065A16F296C936BB1637047
:1047D0006C2B6BB965B16C7F6D2B65B9078D10A122
:1047E000D801FC9061A56F216C93078D10A1D801B1
:1047F000FC9065A16F296C936BB163706B296BB9E9
:1048000065B16C7F6A2965B9078D10A1D801FC904C
:1048100061A56F216C93078D10A1D801FC9065A153
:104820006F296C936BB163706C2B6BB965B16C7F46
:104830006D2B65B9078D10A1D801FC9061A56F2182
:104840006C93078D10A1D801FC9065A16F296C9322
:104850006BB163706B296BB965B16C7F6A2965B9FF
:10486000078D10A1D801FC9061A56F216C93078D75
:1048700010A1D801FC9065A16F296C936BB1637096
:104880006C2B6BB965B16C7F6D2B65B9078D10A171
:10489000D801FC9061A56F216C93078D10A1D80100
:1048A000FC9065A16F296C936BB163706B296BB938
:1048B00065B16C7F6A2965B9078D10A1D801FC909C
:1048C00061A56F216C93078D10A1D801FC9065A1A3
:1048D0006F296C936BB163706C2B6BB965B16C7F96
:1048E0006D2B65B9078D10A1D801FC9061A56F21D2
:1048F0006C93078D10A1D801FC9065A16F296C9372
:10490000715009F04DCF019710F070E149CF2F732E
:10491000215008F434CF8BB183708B298BB985B1CA
:104920008C7F8A2985B9478D50A1DA019C9181A598
:1049300089238C93478D50A1DA019C9185A1892B05
:104940008C938BB183708C2B8BB985B18C7F8D2B25
:1049500085B9478D50A1DA019C9181A589238C935B
:10496000478D50A1DA019C9185A1892B8C93D0CFE2
:10497000EF92FF920F931F93CF93DF93EC017B0194
:104980008A8D811129C02D892150233078F430E09F
:10499000F901EE56FE4F8081482F50E0220F331F61
:1049A000F901E457FE4F0081118104C000E010E0DE
:1049B00040E050E0EB8DFC8D30812FA1232320833C
:1049C00060E270E0CE010E94861CA80161E270E006
:1049D000CE010E94861C12C08150833078F40A8573
:1049E0001B8501501109288539852150310940E086
:1049F00050E060E070E0CE010E94AB1220E03CE2AB
:104A000041E050E0B701CE01DF91CF911F910F91AE
:104A1000FF90EF900C94A522CF93DF93EC01EB8DE8
:104A2000FC8D90818FA18923808328853985215031
:104A3000310945E064E0CE010E94101C2A853B85C7
:104A40002150310949E068E0CE010E94101CEB8D35
:104A5000FC8D90818BA1892B8083DF91CF9108956C
:104A60008F929F92AF92BF92CF92DF92EF92FF927E
:104A70000F931F93CF93DF93EC0147011216130698
:104A80000CF06BC0101611060CF067C0A885B98534
:104A90006A177B070CF061C0CA84DB844C155D0586
:104AA0000CF05BC05B01A20EB31EC501019797FD20
:104AB00054C07A01E00EF11EF7013197F7FD4DC0A9
:104AC00077FF49C060E070E057FD02C0780102C086
:104AD00040E050E08A179B072CF0CD0101975D0163
:104AE000A61AB70AEC15FD052CF0F60131977601F0
:104AF000E41AF50A8F019C01CE010E94AB129701C6
:104B0000D5010E94FA349B01AC01B401CE010E9490
:104B1000A5228A8D811110C00A851B8501501109BB
:104B2000288539852150310940E050E060E070E08F
:104B3000CE010E94AB1211C0CE01DF91CF911F9127
:104B40000F91FF90EF90DF90CF90BF90AF909F902C
:104B50008F900C940C255901B7CFDF91CF911F9105
:104B60000F91FF90EF90DF90CF90BF90AF909F900C
:104B70008F900895CF92DF92EF92FF920F931F9341
:104B8000CF93DF93EC016801121613060CF04FC0AF
:104B900077FD4DC088859985681779070CF047C067
:104BA000EA85FB854E175F070CF041C07A01E20EE3
:104BB000F31E87010150110917FD39C057FF35C099
:104BC00040E050E00E171F0734F08F01015011092B
:104BD0007F01E41AF50A9B01CE010E94AB129701F6
:104BE000FF0C440B550BB601CE010E94A5228A8D05
:104BF000811110C00A851B8501501109288539854E
:104C00002150310940E050E060E070E0CE010E94A8
:104C1000AB120DC0CE01DF91CF911F910F91FF908C
:104C2000EF90DF90CF900C940C257901CBCFDF91E2
:104C3000CF911F910F91FF90EF90DF90CF9008954B
:104C4000CF92DF92EF92FF920F931F93CF93DF9358
:104C5000EC016801121613060CF04EC057FD4CC053
:104C60008A859B85481759070CF046C0E885F98569
:104C70006E177F070CF040C07B01E20EF31EC701E8
:104C8000019797FD39C077FF35C060E070E08E175F
:104C90009F072CF0CF0101977F01E61AF70A8A01DE
:104CA0009C01CE010E94AB129701FF0C440B550BE7
:104CB000B601CE010E94A5228A8D811110C00A85FD
:104CC0001B8501501109288539852150310940E0A3
:104CD00050E060E070E0CE010E94AB120DC0CE014A
:104CE000DF91CF911F910F91FF90EF90DF90CF90C8
:104CF0000C940C257901CBCFDF91CF911F910F91AF
:104D0000FF90EF90DF90CF900895CF92DF92EF92D7
:104D1000FF920F931F93CF93DF936C017A018B0166
:104D2000C0E0D0E0CE15DF0589F0D8016D918D018E
:104D3000D601ED91FC910190F081E02DC60109951D
:104D4000892B11F47E0102C02196ECCFC701DF91BF
:104D5000CF911F910F91FF90EF90DF90CF9008952A
:104D60000F931F93CF93DF93EC0188819981009774
:104D700029F02A813B812617370788F48B016F5F62
:104D80007F4F0E945036009761F0998388831B8380
:104D90000A832C813D81232B11F4FC01108281E0D8
:104DA00001C080E0DF91CF911F910F910895EF92A4
:104DB000FF920F931F93CF93DF93FC0124813581E2
:104DC0006115710511F480E019C041155105A9F074
:104DD0007B01EC018A01020F131FB8010E94B0266B
:104DE000882389F3288139818C819D81B701820FC5
:104DF000931F0E9431371D830C8381E0DF91CF9197
:104E00001F910F91FF90EF900895CF93DF93EC01E6
:104E100088819981009711F00E94B8351982188213
:104E20001D821C821B821A82DF91CF910895CF933D
:104E3000DF93EC01FB0144815581608171810E9407
:104E4000D726811103C0CE010E940527CE01DF9134
:104E5000CF910895EF92FF920F931F93CF93DF931B
:104E6000EC017B018A01BA010E94B026811104C0C5
:104E7000CE010E94052707C01D830C83B7018881DE
:104E800099810E943137CE01DF91CF911F910F910F
:104E9000FF90EF900895FC01808191810C94B835CA
:104EA000EF92FF920F931F93CF93DF93CDB7DEB7AF
:104EB00062970FB6F894DEBF0FBECDBF8C01CB0159
:104EC000F80111821082138212821582148250E03E
:104ED0009E012F5F3F4F7901B9010E949931F7017F
:104EE00001900020E9F73197AF014E195F09B70132
:104EF000C8010E942A2762960FB6F894DEBF0FBE43
:104F0000CDBFDF91CF911F910F91FF90EF9008954A
:104F1000FB01DC0111961C921E9213961C921E92AC
:104F2000129715961C921E9214978617970749F0B0
:104F3000608171816115710521F0448155810C9466
:104F40002A270895FC011182108213821282158291
:104F500014826115710551F0FB0101900020E9F701
:104F60003197AF01461B570B0C942A270895611502
:104F7000710579F0FB0101900020E9F73197AF014D
:104F8000461B570BDC01ED91FC910280F381E02D73
:104F9000099480E090E00895CF93DF93C3E6D4E0D6
:104FA0002697CE010E944B2784E0C330D807C1F773
:104FB000DF91CF910895CF93DF93CDB7DEB7E2971E
:104FC0000FB6F894DEBF0FBECDBF789484B5826073
:104FD00084BD84B5816084BD85B5826085BD85B59D
:104FE000816085BD80916E00816080936E0010921B
:104FF0008100809181008260809381008091810096
:105000008160809381008091800081608093800026
:105010008091B10084608093B1008091B000816084
:105020008093B00080917A00846080937A008091B0
:105030007A00826080937A0080917A008160809308
:105040007A0080917A00806880937A001092C10083
:105050001092BB031092BC031092BD031092BE03CA
:105060001092790310927A0310927B0310927C03C2
:1050700068EB7BE080E090E00E948E1A8AED92E07F
:105080009093BA038093B903E091EA02F091EB02A6
:1050900082E08083E091E602F091E7021082E091E5
:1050A000E802F091E90280E180831092F202E0913F
:1050B000EE02F091EF0286E08083E091EC02F09145
:1050C000ED02808180618083E091EC02F091ED023D
:1050D000808188608083E091EC02F091ED02808114
:1050E00080688083E091EC02F091ED0280818F7DF9
:1050F00080832FB7F8948091870290918802A091C5
:105100008902B0918A022FBF8093790390937A032A
:10511000A0937B03B0937C036FEA71E08091B903A5
:105120009091BA030E94B7276AE070E080E090E0B7
:105130000E948E1A81E080938D030E94C7210E94F5
:10514000C72168EC70E080E090E00E948E1A109217
:105150007F04E0918004F0918104908180918C041F
:105160008923808300E118E1F80165917491F801C9
:105170003296459154916F3F710531F4BA0180E048
:1051800090E00E948E1A04C085E694E00E94861C7E
:105190000C5F1F4F28E10C3D120731F760917A0434
:1051A00085E694E00E94F01C0FE311E02FEE30E062
:1051B00040E050E060E070E085E694E00E94AB12D1
:1051C00063E085E694E00E94F01C60E070E085E614
:1051D00094E00E94B82461E08DE00E943B1A80E0D8
:1051E00090E00E94CC1620916F0430917004205200
:1051F000310940916D0450916E044C50510968E1A1
:10520000E62E66ECF62E03E010E06AE170E086E040
:1052100090E00E94B41F20916F04309170042652D8
:10522000310940916D0450916E0442515109E12CB5
:10523000F12C6DE170E089E090E00E94B41F0E94C3
:105240003D187AE2A72E71E0B72EEBE1EE2EE4E0F6
:10525000FE2E00E010E0D5016D917D915D01072EDD
:10526000000C880B990B0E94DB3120E030E048E411
:1052700055E40E94AE3320E030E044EB53E40E945A
:1052800016320E942034CB010E94FD153C01809112
:105290000104909102048090FF0390900004A30108
:1052A0000115110551F466E470E00E9476160F971F
:1052B0006C01A3016CE470E009C064E670E00E9438
:1052C00076160F976C01A30164E670E0C4010E949A
:1052D00020160F974C01B701CE0107960E94882730
:1052E000BE01695F7F4FCE0101960E94882722E0B0
:1052F00030E0A401B601CE0101960E94A215CE01B4
:1053000001960E944B2720E23DEF43E050E0B401BC
:10531000C6010E94C920CE0107960E944B270F5F4D
:105320001F4FB6E0EB0EF11C0730110509F093CFCB
:1053300020E038EF42E050E068E270E08091010444
:10534000909102040E94C92020E23DEF43E050E02A
:1053500068E270E088E290E00E94C92020E23DEF20
:1053600043E050E068E270E08AE590E00E94C920E6
:1053700080916D0490916E0420E23DEF43E050E097
:1053800068E270E0865491090E94C92080916D0402
:1053900090916E0420E23DEF43E050E068E270E05F
:1053A000885791090E94C92060916F047091700420
:1053B0006A52710980916D0490916E0420E23DEF74
:1053C00043E050E08A970E94C92061EC71E0CE0171
:1053D00001960E94A22723E030E048E250E068E214
:1053E00070E0CE0101960E94A215CE0101960E94A6
:1053F0004B2762EC71E0CE0101960E94A22723E0C8
:1054000030E048E250E06AE570E0CE0101960E948B
:10541000A215CE0101960E944B2700916D041091B8
:105420006E040654110964EC71E0CE0101960E94ED
:10543000A22723E030E048E250E0B801CE01019617
:105440000E94A215CE0101960E944B2700916D0487
:1054500010916E040857110965EC71E0CE010196B8
:105460000E94A22723E030E048E250E0B801CE01DC
:1054700001960E94A215CE0101960E944B27E09052
:105480006F04F0907004EAE2EE1AF10800916D04E6
:1054900010916E040A52110967EC71E0CE01019679
:1054A0000E94A22723E030E0A701B801CE010196B7
:1054B0000E94A215CE0101960E944B270E94B314B0
:1054C00068EB7BE080E090E00E948E1A61E08DE066
:1054D0000E940B1A2091960430E0F901E05DF64E2F
:1054E000A49080919304A82FB0E0FD01E05DF64EFA
:1054F00004916091950470E0FB01E05DF64ED4905C
:105500004091940450E0FA01E05DF64E2490F901D8
:10551000EE5EF64EE490FD01EE5EF64EF490FB0179
:10552000EE5EF64EC490FA01EE5EF64E24912DA387
:1055300060E00E943B1A60E0809194040E943B1A54
:1055400010E0000F111F0A5D164EF801A591B491ED
:105550008C913F2D309539A783238C93312CF10109
:10556000EE0FFF1FAF014A5D564E1A01FA01A591D9
:10557000B4919C918DA1809589238C9361E0809159
:1055800096040E943B1A61E0809195040E943B1AA8
:10559000B12CF501EE0FFF1FCF018A5D964E5C0125
:1055A000FC01A591B4918C918E298C93ED2DF0E0A6
:1055B000EE0FFF1FEA5DF64EA591B491EC91C094F9
:1055C000CE22CC92809193040E94771A4C01809154
:1055D00093040E94771A2C018FEF93E06C01C4189A
:1055E000D50860E0809196040E943B1A60E08091AB
:1055F00095040E943B1AF501A591B4918C91E09419
:10560000EDA68E218C9361E0809193040E943B1A59
:10561000F801A591B491EC91FE2AFC9261E0809191
:1056200094040E943B1A809195040E94771A3C01D1
:10563000809195040E94771A7C016816790629F4F6
:10564000772473948414950409F0712C61E080919F
:1056500096040E943B1AF501A591B491EC912DA5F9
:10566000E223EC93F101A591B491EC913DA1E32BE0
:10567000EC93F801A591B4918C9149A584238C9366
:1056800060E0809193040E943B1A809195040E94EF
:10569000771A8C01809193040E94771AA090970446
:1056A000B0909804A114B10409F440C0BC01990F52
:1056B000880B990B0E94DB311B012C01B801110FE3
:1056C000880B990B0E94DB319B01AC01C201B10137
:1056D0000E94AE3320E030E040E85FE30E943C33BC
:1056E0001B012C01B6010D2C000C880B990B0E949C
:1056F000DB319B01AC01C201B1010E9416321B01DA
:105700002C01B50180E090E00E94D9319B01AC01F1
:10571000C201B1010E94163220E030E040E85AE3B5
:105720000E9416320E9420348B0104C0081B190B02
:1057300001501C4F711002C000E010E060E08DE0ED
:105740000E940B1A61E080E10E943B1A61E081E156
:105750000E943B1AB80163537109653B734008F01E
:1057600066C326010D2C000C6608770885EAC8166A
:10577000D1047CF4C301B2010E94DB314B015C0116
:1057800020E030E041E654E42DA33EA34FA358A708
:1057900022C035E8C31633E0D3067CF0C301B20162
:1057A0000E94DB316DA37EA38FA398A7812C912C3F
:1057B00005E2A02E03E4B02E0EC0812C912C15E240
:1057C000A12E13E4B12E80E090E0A1E6B4E48DA315
:1057D0009EA3AFA3B8A78FEF93E08E199F099C01FA
:1057E000092E000C440B550B2DA73EA74FA758AB15
:1057F000803A91057CF4CA01B9010E94DB316B014A
:105800007C0180E090E8A3E6B4E489A79AA7ABA75F
:10581000BCA722C08F3893408CF06DA57EA58FA5C4
:1058200098A90E94DB3169A77AA78BA79CA7C12CF6
:10583000D12CB0E2EB2EB3E4FB2E0EC0C12CD12C48
:10584000A0E2EA2EA3E4FA2E20E030E843E654E496
:1058500029A73AA74BA75CA76DA57EA58FA598A9F8
:105860000E94DB31A70196010E943C336DA77EA701
:105870008FA798ABA701960169A57AA58BA59CA5D2
:105880000E943C339B01AC016DA57EA58FA598A914
:105890000E94AE339B01AC0160E070E080E89FE3C2
:1058A0000E943C336B017C0160916D0470916E0429
:1058B000072E000C880B990B0E94DB319B01AC0179
:1058C000C701B6010E9416320E9420347B017093FA
:1058D000D2026093D102C301B2010E94DB31A50163
:1058E00094010E943C332B013C01A50194016DA160
:1058F0007EA18FA198A50E943C339B01AC01C301FE
:10590000B2010E94AE339B01AC0160E070E080E820
:105910009FE30E943C334B015C0180916F049091A6
:105920007004BC01990F880B990B0E94DB319B011D
:10593000AC01C501B4010E9416320E9420348B01D3
:105940007093D4026093D302D0908B02C0908C02EB
:1059500040E050E0A0E0B0E022242A94322C80E025
:1059600090E0BC01660F771FFB01E355FD4F2081DE
:105970003181FB01E357FD4FA080B18060507F4F24
:10598000FB01608171816130710531F054F0643048
:1059900071050CF44FC205C04D2D5C2DA4E1B0E0A3
:1059A00002C0672B21F02E153F05BCF405C02E1553
:1059B0003F05C4F480E190E0240F351FE216F306A2
:1059C00064F4A016B1064CF4F501EA0FFB1F0E17A4
:1059D0001F071CF41C0180E190E0019680319105C5
:1059E0000CF4BFCF8091CF029091D00228163906D7
:1059F00009F41DC2C1010E944120F4E02F163104B8
:105A000008F011C21092CE021092CD02C1010E9484
:105A1000CC1622E02216310409F401C233E0231629
:105A2000310409F4FCC141E02416310409F0FBC142
:105A30003092CE022092CD020E943D1880E090E08C
:105A40000E94FD156C014C015DE9851A5EEF950A17
:105A50002C0189EB480E511C360195E0690E711C32
:105A60005601AFEAAA0EB11C50E1E52E54E8F52E1E
:105A700000E010E024E330E044E350E0B201C40170
:105A80000E94821724E330E044E350E0B501C301F3
:105A90000E94821724E330E044E350E0B301C401E4
:105AA0000E94821724E330E044E350E0B501C201D4
:105AB0000E94821760EE77E0C6010E94192060E024
:105AC00078EFC601845B91090E94192080E00E9452
:105AD000D81781E00E94D8170E94B3146BE1C62E3C
