:100000000C9426070C94A9280C9482280C94010CBB
:100010000C94010C0C94010C0C944E070C944E079C
:100020000C944E070C944E070C944E070C944E07FC
:100030000C944E070C944E070C944E070C944E07EC
:100040000C9438280C944E070C94EF260C94C92677
:100050000C944E070C944E070C944E070C944E07CC
:100060000C940B0C0C944E07084AD73B3BCE016E08
:1000700084BCBFFDC12F3D6C74319ABD56833DDAFF
:100080003D00C77F11BED9E4BB4C3E916BAAAABE0E
:10009000000000803F05A84CCDB2D44EB93836A937
:1000A000020C50B9918688083CA6AAAA2ABE000074
:1000B00000803F00000000000500010000030D0665
:1000C00002F4050007050901F40A000A0C0A00F50C
:1000D0001900090F0A01F32A00100D1000F4440062
:1000E0000C0D0D01F4580003050501F45A0006112A
:1000F0000601F4670006110600F474000506070106
:10010000F4780007080B02F97F0003050401FF8162
:100110000005020600FB830003020401FF840005C2
:100120000D0500F48D00090D0A01F49C00050D0A6F
:1001300002F4A500090D0A01F4B400080D0A01F447
:10014000C100080D0A02F4CE00090D0A01F4DD0019
:10015000090D0A01F4EC00090D0A00F4FB000A0D78
:100160000A00F40C01090D0A01F41B010309040142
:10017000F81F01030C0401F8240109090B01F82FF1
:100180000109060B01FA360109090B01F8410109C1
:100190000D0B01F45001100F1200F46E010C0D0D47
:1001A00000F482010B0D0D01F494010C0D0D01F40E
:1001B000A8010C0D0D01F4BC01090D0C01F4CB01DB
:1001C000090D0B01F4DA010B0D0E01F4EC010B0D1E
:1001D0000D01F4FE01030D0601F40302080D0A01EE
:1001E000F410020C0D0D01F42402080D0B01F43182
:1001F000020E0D1001F448020B0D0E01F45A020D0F
:100200000D0E01F470020B0D0C01F482020D0E0EA6
:1002100001F499020C0D0D01F4AD020B0D0C01F46B
:10022000BF02090D0C02F4CE020B0D0D01F4E00229
:100230000C0D0C00F4F402110D1100F410030C0D60
:100240000C00F424030B0D0C01F43603090D0B0113
:10025000F4450304110601F44E03050D0500F4579F
:100260000304110600F4600308080B01F468030A94
:10027000010A00046A0303020500F46B030A0A0A78
:1002800001F778030A0D0B01F48903090A0A01F743
:100290009503090D0B01F4A403090A0A01F7B00341
:1002A000050D0601F4B903090E0B01F7C903090D89
:1002B0000B01F4D803030D0501F4DD03041105005F
:1002C000F4E603090D0A01F4F503030D0501F4FA40
:1002D000030E0A1001F70C04090A0B01F718040AAF
:1002E0000A0B01F725040A0E0B01F73704090E0B60
:1002F00001F74704060A0701F74F04090A0A01F744
:100300005B04050C0601F56304090A0B01F76F0491
:100310000A0A0A00F77C040E0A0E00F78E040A0A85
:100320000A00F79B040A0E0A00F7AD04080A090147
:10033000F7B70404110701F4C00401110502F4C366
:100340000404110702F4CC0408020900FCFFFFFEBC
:10035000487EEFDFBF7440198667FDFF330CC3335F
:10036000FEFF99866190101F1FDEFF3F83C0FC1FB8
:1003700009FCFEF7F1E04038107C30C620C640C6CC
:10038000407C80399C013E0363026304630C3E0899
:100390001C0E01F83B83B83F01E03E6776E3EE1C9C
:1003A000F3C7FE3F70FFF418631C738E38E38E189A
:1003B00070C3060861830E3871C71C71C638E31814
:1003C00040213E45283870E7FFE70E1CFC9CFFC02B
:1003D000FC08C4231084621188003E3F9DDC7E3FF0
:1003E0001F8FC7E3F1DDCFE3E008FFF39CE739CED1
:1003F00073803E3FB8FC70381C1C1C1C1C1C0FF783
:10040000F83C7FE7E7070C0E0707E7E77E3C0E1E88
:100410001E2E2E4E4E8EFFFF0E0E0E7F3F90180D9D
:10042000E7FB9E070381F1FFE7C03E3F9CFC0EE720
:10043000FBDFC7E3F1DDEFE3E0FFFFC0E0E060706A
:1004400030381C0C0E0703803F1FEE3F87E3CFC7F9
:10045000FBCFE1F87F3DFE3F003E3FBDDC7E3F1F0E
:10046000DEFF3B81F9CFE3C0FC0007E0FC0007E5BD
:10047000E00083C7DF0C0780F81F0180FFFFC0008A
:100480000FFFFC00703F03E0387DF1E080003E3F4D
:10049000B8FC70381C1C1C1C0E000381C003F00F3C
:1004A000FC1E0E380270E96319C219C611C633C6A4
:1004B0003263FE73DC3C001FF807F00700F00F808A
:1004C000F81D819C19C38C3FE7FE706607E070FF42
:1004D0009FFB83F07E0FFF3FF706E0FC1F83FFEFDB
:1004E000F81F83FE78E707E00E00E00E00E0070744
:1004F00078F3FE1F80FF8FFCE0EE0EE07E07E07ECB
:1005000007E07E0EE0EFFCFF80FFFFF81C0E07FB0C
:10051000FDC0E070381FFFF8FFFFF81C0E07FBFD61
:10052000C0E070381C0E000F87F9E3B83E01C038F8
:10053000FF1FE06E0DE39FD0F2E0FC1F83F07E0F03
:10054000FFFFFF07E0FC1F83F07E0EFFFFFFFFFEB3
:100550000707070707070707E7E7E77E3CE0EE1C0A
:10056000E38E70EE0FC0FE0F70E70E38E1CE0EE0A6
:10057000E0E0E0E0E0E0E0E0E0E0E0E0FFFFF87F86
:10058000E1FF87FE1FEC7FB37ECDFB37ECDF9E7E65
:1005900079F9E7E79CE0FE1FC3FC7FCFD9FBBF37AB
:1005A000E7FC7F87F0FE0E0F81FF1E3CE0EE03F0BC
:1005B0001F80FC07E03B839E3C7FC0F800FF9FFB51
:1005C00087F07E0FC3FFF7FCE01C0380700E000F66
:1005D00081FF1E3CE0EE03F01F80FC07E1BB8F9E15
:1005E0003C7FE0FB8008FF8FFCE0EE0EE0EE0EFFAC
:1005F000CFFCE0EE0EE0EE0EE0F03F0FFBC7F07E2A
:1006000001FC1FF03F00FC1DC7BFE1F8FFFFC7035F
:1006100081C0E070381C0E070381C0E0FC1F83F02E
:100620007E0FC1F83F07E0FC1FC7BFE1F060670E17
:1006300070E30C30C39C1981981F80F00F00F00606
:100640000061C3B8E19C70CE3CE336719B30ED98FD
:10065000367C1B3C0F1E078F01C380E18070E78E44
:1006600039C1F81F80F00700F01F819C39C70E7058
:10067000E0E0FC39C718C3B83607C0700E01C038B7
:100680000700E0FFFFC0E0E0F07070707838381FBE
:10069000FFF8FFEEEEEEEEEEEEEFF0861086108441
:1006A00030843080FF7777777777777FF0181C3C3E
:1006B0003E366663C3FFC0CC3F1FEE380E3F9EEE52
:1006C0003B9EFF9EE0E0380E03BCFFBCEE1F87E1BF
:1006D000F87F3BFEEF001F3FDC7C0E070380E37FCB
:1006E0008F000381C0E777FBBF8FC7E3F1FDEFF316
:1006F000B83E3F9CDC3FFFFF81C37F8F003BDDFFA7
:10070000B9CE739CE7003BBFDDFC7E3F1F8FEF7FC0
:100710009DC0FC77F1F0E070381DEFFF9F8FC7E3BD
:10072000F1F8FC7E38FC7FFFFFFE7707777777775D
:10073000777FE0E070381C7E7773F1F8FE7739DC64
:100740006E38FFFFFFFFFEEF7BFFFE39F8E7E39F08
:100750008E7E39F8E7E39F8E70EF7FF8FC7E3F1FB7
:100760008FC7E3F1C01E1FE73B87E1F87E1DCE7FF8
:100770008780EF3FEF3B87E1F87E1FCEFFBBCE03C4
:1007800080E038003BBFFDFC7E3F1F8FEF7F9DC0A8
:10079000E070381CEFFF38E38E38E3803E3FB8FC52
:1007A0000FC3FC3FC7FF1F0073BFF739CE739E70A6
:1007B000E3F1F8FC7E3F1F8FC7FFBDC0E1986739AA
:1007C000CC330DC3E0781E0700E31D9E667999E6E1
:1007D00077B8D2C3CF0F3C3CF07380739CE3F078C2
:1007E0001E0781E0FC739CE0E1D86739CE330EC36D
:1007F000E0781E0300C070380E00FEFE0E1C383874
:1008000070E0FFFF3766666EE666666730FFFF8062
:10081000CE6666677666666EC0718E00000100FF68
:100820000032000100000102000007030030100444
:1008300000000008000202090000000A0000000C8D
:100840000000000D0000000F00000010000000116B
:100850000007001200000013000000FF00C8001095
:1008600000901611002702FF00320012001A00FF4C
:100870000032001300001829002A00FF0032003067
:100880000000003100000032000000350006023692
:100890000008083700070038000102390000003C5A
:1008A0000000003D0000002000000021000000507A
:1008B0000000005100EF005200000053003F0160B3
:1008C0000000A7610003006A000000900010009281
:1008D00000000093000300950000119700000098AD
:1008E000000000070033014D03B400207E16000015
:1008F0000000003E5B4F5B3E3E6B4F6B3E1C3E7C00
:100900003E1C183C7E3C181C577D571C1C5E7F5EAD
:100910001C00183C1800FFE7C3E7FF00182418006C
:10092000FFE7DBE7FF30483A060E26297929264003
:100930007F050507407F05253F5A3CE73C5A7F3E2F
:100940001C1C08081C1C3E7F14227F22145F5F00C1
:100950005F5F06097F017F006689956A606060605D
:100960006094A2FFA29408047E040810207E201048
:1009700008082A1C08081C2A08081E101010100C51
:100980001E0C1E0C30383E3830060E3E0E0600009F
:1009900000000000005F00000007000700147F1443
:1009A0007F14242A7F2A12231308646236495620B2
:1009B000500008070300001C2241000041221C00D7
:1009C0002A1C7F1C2A08083E080800807030000896
:1009D00008080808000060600020100804023E516A
:1009E00049453E00427F40007249494946214149FC
:1009F0004D331814127F1027454545393C4A494963
:100A00003141211109073649494936464949291ECC
:100A100000001400000040340000000814224114BB
:100A200014141414004122140802015909063E410D
:100A30005D594E7C1211127C7F494949363E414135
:100A400041227F4141413E7F494949417F0909098E
:100A5000013E414151737F0808087F00417F4100FA
:100A60002040413F017F081422417F404040407FA9
:100A7000021C027F7F0408107F3E4141413E7F09F6
:100A80000909063E4151215E7F0919294626494937
:100A9000493203017F01033F4040403F1F20402077
:100AA0001F3F4038403F6314081463030478040375
:100AB0006159494D43007F41414102040810200023
:100AC0004141417F04020102044040404040000394
:100AD00007080020545478407F2844443838444460
:100AE0004428384444287F385454541800087E0958
:100AF0000218A4A49C787F0804047800447D400078
:100B00002040403D007F1028440000417F40007C91
:100B1000047804787C080404783844444438FC1889
:100B200024241818242418FC7C080404084854546D
:100B3000542404043F44243C4040207C1C2040209A
:100B40001C3C4030403C44281028444C9090907C01
:100B50004464544C44000836410000007700000013
:100B60004136080002010204023C2623263C1EA155
:100B7000A161123A4040207A3854545559215555B4
:100B80007941225454784221555478402054557963
:100B9000400C1E52721239555555593954545459F6
:100BA00039555454580000457C410002457D4200AF
:100BB00001457C407D1211127DF0282528F07C54DF
:100BC0005545002054547C547C0A097F49324949D8
:100BD00049323A4444443A324A4848303A41412141
:100BE0007A3A42402078009DA0A07D3D4242423D9D
:100BF0003D4040403D3C24FF2424487E4943662B31
:100C00002FFC2F2BFF0929F620C0887E09032054D2
:100C10005479410000447D413048484A32384040D0
:100C2000227A007A0A0A727D0D19317D2629292F30
:100C300028262929292630484D4020380808080848
:100C400008080808382F10C8ACBA2F102834FA004A
:100C5000007B000008142A142222142A14085500CC
:100C6000550055AA55AA55AAFF55FF55FF0000008B
:100C7000FF00101010FF00141414FF001010FF00EC
:100C8000FF1010F010F0141414FC001414F700FFFF
:100C90000000FF00FF1414F404FC141417101F10BC
:100CA000101F101F1414141F00101010F00000006B
:100CB000001F101010101F10101010F01000000076
:100CC000FF101010101010101010FF10000000FF87
:100CD000140000FF00FF00001F10170000FC04F4C8
:100CE00014141710171414F404F40000FF00F71480
:100CF000141414141414F700F71414141714101007
:100D00001F101F141414F4141010F010F000001F22
:100D1000101F0000001F14000000FC140000F01061
:100D2000F01010FF10FF141414FF141010101F0007
:100D3000000000F010FFFFFFFFFFF0F0F0F0F0FF09
:100D4000FFFF0000000000FFFF0F0F0F0F0F3844E0
:100D5000443844FC4A4A4A347E02020606027E02B5
:100D60007E0263554941633844443C04407E201E62
:100D70002006027E020299A5E7A5991C2A492A1C91
:100D80004C7201724C304A4D4D303048784830BC7E
:100D9000625A463D3E494949007E0101017E2A2AA8
:100DA0002A2A2A44445F444440514A444040444A29
:100DB00051400000FF0103E080FF000008086B6B5A
:100DC000083612362436060F090F060000181800E0
:100DD00000001010003040FF0101001F01011E0043
:100DE000191D1712003C3C3C3C00000000000000B4
:100DF0000000230026002900000000080002010076
:100E000000030407000000000000000001020408C5
:100E10001020408001020408102001020408102064
:100E200000000000250028002B0004040404040432
:100E3000040402020202020203030303030300008C
:100E40000000240027002A00982E892E11241FBE9E
:100E5000CFEFD8E0DEBFCDBF26E0A4E0B2E001C016
:100E60001D92A536B207E1F712E0A0E0B1E0E8E19B
:100E7000F0E702C005900D92A430B107D9F717E052
:100E8000C5E2D7E004C02197FE010E94E435C432D8
:100E9000D107C9F70E94D0280C94FF370C940000AA
:100EA000EF92FF920F931F93DC01ED91FC9111974C
:100EB0001A960D911C911B9718962D913C9119979C
:100EC0000684F785E02D7B0140E050E060E070E0B3
:100ED00009951F910F91FF90EF9008956F927F9267
:100EE0008F929F92AF92BF92CF92DF92EF92FF923A
:100EF0000F931F93CF93DF936C015A014801EB01CD
:100F00003B01620E731EC615D70574F4D601ED9130
:100F1000FC910084F185E02D87019401A501BE01BB
:100F2000C60109952196EFCFDF91CF911F910F91C7
:100F3000FF90EF90DF90CF90BF90AF909F908F90F9
:100F40007F906F900895EF92FF920F931F93DC01B3
:100F5000ED91FC91260F371F215031090680F78152
:100F6000E02D78018A0109951F910F91FF90EF9074
:100F70000895EF92FF920F931F937801DC01ED919A
:100F8000FC91240F351F8901015011090680F7815A
:100F9000E02D9B0109951F910F91FF90EF9008950F
:100FA0006F927F928F929F92AF92BF92CF92DF9279
:100FB000EF92FF920F931F93CF93DF93EC014B01BE
:100FC0005A0169013801E881F9810284F385E02D35
:100FD00087010995E881F981A501460D571D41500A
:100FE00051090284F385E02D9601B401CE010995E3
:100FF000E881F9810084F185E02D9301A501B40118
:10100000CE010995E881F981C80CD91CB60161505F
:1010100071090084F185E02D9301A501CE010995A8
:10102000DF91CF911F910F91FF90EF90DF90CF90C4
:10103000BF90AF909F908F907F906F9008952F9268
:101040003F924F925F926F927F928F929F92AF9258
:10105000BF92CF92DF92EF92FF920F931F93CF93A5
:10106000DF9300D01F92CDB7DEB74C017B836A833C
:101070006A01590117019801241B350B37FF03C082
:10108000319521953109C5014A815B81841B950BFE
:1010900097FF03C091958195910951E0598382177B
:1010A000930714F019820BC09A2D8B2D5801092F2C
:1010B000182F9A818B81DB82CA82C92ED82E8A8111
:1010C0009B81A816B9065CF49C2D8D2D6801092F13
:1010D000182F9A818B81BB82AA82A92EB82E250156
:1010E000AA81BB814A1A5B0A38016C187D0877FE19
:1010F00003C0719461947108720157FE03C0BFEF81
:10110000EB1AFB0AF594E794C016D1061CF00FEF1A
:101110001FEF1FC001E010E01CC0D401ED91FC9155
:10112000B9810480F581E02D9101BB23C1F04A8192
:101130005B81B601C4010995E618F708F7FE04C003
:10114000C00ED11EE40CF51CEA81FB813196FB83B5
:10115000EA834A815B81A416B506FCF604C0A601A9
:101160006A817B81E7CF0F900F900F90DF91CF9135
:101170001F910F91FF90EF90DF90CF90BF90AF90B5
:101180009F908F907F906F905F904F903F902F90A7
:101190000895CF93DF93EC0120E030E0A9016F8543
:1011A000788989899A890E94253518161CF4EBA143
:1011B000FCA102C0EDA1FEA1DF91CF910994DC0159
:1011C00012962C91213069F028F0223089F02430D9
:1011D000B1F00895DC01ED91FC910280F381E02DE6
:1011E0000994DC01ED91FC910480F581E02D0DC0A6
:1011F000DC01ED91FC910680F781E02D06C0DC0159
:10120000ED91FC910084F185E02D099485ED8093AA
:10121000BC008091BC0084FDFCCF109214030895A3
:101220004091BE02262F30E0240F311D21323105BE
:10123000DCF4209114032430C9F4FC0180E090E038
:10124000861758F43091BE022191DC01A456BD4F9F
:10125000A30FB11D2C930196F3CF8091BE02680FAE
:101260006093BE0280E0089581E0089582E00895D1
:1012700008958FEF9FEF08958FEF9FEF089580916E
:101280009B0290E09195819591090895CF92DF920C
:10129000EF92FF920F931F93CF93DF937C01262F42
:1012A000972F8A0180911503882391F0C62FD72F9D
:1012B0006E01C40ED51ECC15DD0571F06991D70104
:1012C000ED91FC910190F081E02DC7010995F3CFDC
:1012D000642F822F0E941009C801DF91CF911F91C6
:1012E0000F91FF90EF90DF90CF900895CF93DF9311
:1012F0001F92CDB7DEB76983209115032223D1F069
:1013000020913703203240F021E030E0FC013383AC
:10131000228380E090E015C080911603E82FF0E072
:10132000E95EFC4F998190838F5F809316038093D1
:10133000370305C061E0CE0101960E94100981E0EB
:1013400090E00F90DF91CF910895AF92BF92CF922E
:10135000EF92FF920F931F93CF93DF93EC01262F11
:10136000888D998D009709F042C06A3069F42C8904
:101370008E859F8538E0239F800D911D11249F87C6
:101380008E871D861C86ACC06D3009F4A9C08E897D
:101390008823C1F03C898C859D8546E0349F800D73
:1013A000911D112448855985841795075CF01D8689
:1013B0001C868E859F85E8E03E9F800D911D11243F
:1013C0009F878E87EA88FB88088919894E855F8503
:1013D0006C857D85CC88CE010E94D11C2C898C85A2
:1013E0009D85F6E02F9F800D911D112441C06A302C
:1013F00079F41D861C862C89FC013696E4918E8535
:101400009F852E9F800D911D11249F878E8768C018
:101410006D3009F465C0AC014C5F5F4FFA01349147
:10142000631708F45DC03196E491E61708F458C0DC
:10143000FA014491362F341BFC013296A590B490EA
:10144000F7E03F9FA00CB11C1124F50132963491B6
:101450003196E491332311F0E1110DC0F50134967A
:10146000E4912C898C859D85E29F800D911D11242E
:101470009D878C8735C0F501359644915E8955234B
:1014800011F16C89E32FF0E0E40FF11D47FDFA95AF
:101490006E9FD0016F9FB00D11244C855D854A0F62
:1014A0005B1FE885F9854E175F076CF01D861C866B
:1014B000FC013696E4918E859F856E9F800D911D6F
:1014C00011249F878E87EA88FB88088919894E85B1
:1014D0005F856C857D85CC88CE010E94D11CBECFF6
:1014E00081E090E0DF91CF911F910F91FF90EF90FD
:1014F000CF90BF90AF900895CF93DF93EC01613010
:1015000089F050F06230E1F0633061F561E08B8189
:101510000E944A2760E019C061E08B810E944A273F
:1015200060E005C060E08B810E944A2761E08C8109
:101530000E944A2761E08D810E944A2760E00DC029
:1015400060E08B810E944A2761E08C810E944A27DB
:1015500060E08D810E944A2761E08E81DF91CF910A
:101560000C944A27DF91CF910895CF93DF93EC013C
:10157000613049F030F0623061F06330A1F460E036
:1015800009C060E001C061E08B810E944A2761E0F0
:1015900005C061E08B810E944A2760E08C81DF9169
:1015A000CF910C944A27DF91CF9108951F93CF9349
:1015B000DF93EC0111E020E030E0A9016F8578892C
:1015C00089899A890E94253518160CF010E0612F40
:1015D0008C810E944A2761E08B810E944A2760E04B
:1015E0008B81DF91CF911F910C944A278F929F920C
:1015F000AF92BF92CF92DF92EF92FF920F931F9321
:10160000CF93DF93EC018B859C85AD85BE850F81E3
:10161000188529853A85BC01CD01601B710B820BB1
:10162000930B09F4D0C08AF00E94AE319B01AC014B
:101630000E9434332F89388D498D5A8D0E940D3286
:101640000E9440356B017C011BC090958095709580
:1016500061957F4F8F4F9F4F0E94AE319B01AC0130
:101660000E9434332F89388D498D5A8D0E940D3256
:101670000E9440356B017C01F7FAF094F7F8F09482
:101680008F849888A988BA88A5019401C701B601FA
:101690000E94253518160CF043C020E030E0A90167
:1016A000C501B4010E94A73181110BC06F89788DEB
:1016B000898D9A8D9B01AC010E9434330E94403584
:1016C0001BC0A50194016F89788D898D9A8D0E9428
:1016D00017346B017C0120E030E0A9010E94253520
:1016E000181624F0F7FAF094F7F8F094A701960191
:1016F000C501B4010E9434337B018C01BB88CC88C6
:10170000DD88CE892B2D3C2D4D2D5C2F0E9425355B
:1017100018160CF05DC03B2D7C2D8D2D9C2F5FC0CD
:10172000A5019401C701B6010E94A73187FF54C0EB
:1017300020E030E0A901C501B4010E94A731811168
:1017400011C06F89788D898D9A8D9B01AC010E94A3
:1017500034330E9440356B017C01F7FAF094F7F8BE
:10176000F0941DC0A50194016F89788D898D9A8DA3
:101770000E9417346B017C0120E030E0A9010E9437
:101780002535181624F0F7FAF094F7F8F094A7012D
:101790009601C501B4010E9433336B017C018B8833
:1017A0009C88AD88BE88B7FAB094B7F8B094A5010C
:1017B0009401C701B6010E94A73187FF0DC0382DE3
:1017C000792DC5010CC030E070E080E090E007C0EA
:1017D0003E2D7F2DC80103C03C2D7D2DC701C32E9A
:1017E000D72E7C01C701B601DF91CF911F910F91D8
:1017F000FF90EF90DF90CF90BF90AF909F908F9031
:1018000008951F920F920FB60F9211240F900FBEE2
:101810000F901F9018951F920F920FB60F921124E0
:101820002F933F934F935F936F937F938F939F93E8
:10183000AF93BF93EF93FF938091B900887F803679
:1018400009F49CC068F5883209F45BC090F48031DB
:1018500009F454C038F4882309F4F6C0883009F438
:101860004DC0F6C0883109F44CC0803209F45DC027
:10187000EFC0803409F468C048F4803309F455C0DF
:10188000883309F0E5C080931203D8C0803509F48D
:101890004FC0883509F45DC0883409F0D9C0D6C07E
:1018A000883909F4C7C0A8F4883709F467C038F448
:1018B000883609F463C0803709F460C0C9C088382D
:1018C00009F4B8C0803909F45FC0803809F0C0C09D
:1018D0005BC0803B09F486C038F4803A09F466C0E6
:1018E000883A09F47FC0B4C0803C09F4A7C0883CA2
:1018F00009F4A4C0883B09F48AC0AAC08091EF0211
:1019000010C09091110380911003981770F5E09129
:10191000110381E08E0F80931103F0E0E051FD4F41
:1019200080818093BB0085EC86C0809312038EC0BB
:10193000E091110381E08E0F809311038091BB0031
:10194000F0E0E051FD4F80839091110380911003EE
:101950006EC0E091110381E08E0F8093110380919E
:10196000BB00F0E0E051FD4F8083809113038111B3
:101970006DC081E08093EE0284EA61C083E08093D1
:1019800014031092E202CFCF8091E202803208F07D
:1019900051C0E091E20281E08E0F8093E2028091DB
:1019A000BB00F0E0EE53FD4F8083BDCF85EC80930C
:1019B000BC00109214038091E202803230F4E09176
:1019C000E202F0E0EE53FD4F10826091E20270E01F
:1019D000E091C002F091C10282EC92E00995109270
:1019E000E20236C084E0809314031092BF0210928A
:1019F000BE02E091BC02F091BD0209958091BE0249
:101A0000811105C081E08093BE0210929C02E0919A
:101A1000BF0281E08E0F8093BF02F0E0E456FD4FDD
:101A200080818093BB009091BF028091BE02981785
:101A300008F479CF85E88093BC000AC085EC8093D8
:101A4000BC001092140304C0109212030E940609F5
:101A5000FF91EF91BF91AF919F918F917F916F9186
:101A60005F914F913F912F910F900FBE0F901F905C
:101A700018951F93CF93DF93909137068091360688
:101A80008927E0913506E43068F09091380689277F
:101A9000E43041F0909139068927E53019F09091B2
:101AA0003A068927F0E0EB5CF94F9081891741F005
:101AB00089E395E290931F0480931E0484E6BAC0E4
:101AC0000E942C2860933D0670933E0680933F064B
:101AD0009093400610923C0690913506933009F0A1
:101AE0007DC01091370680913606111115C08F3FC9
:101AF00049F429E335E230931F0420931E049093A8
:101B00001C02A3C0811108C089E395E290931F04D1
:101B100080931E0484E08EC0982F907C9038D1F57D
:101B200017FF38C0C12FD0E0C095D095C077DD2712
:101B3000CC0FDD1FCC0FDD1F8F73C80FD11D0E948E
:101B40004A2321E0C817D90709F020E020933C067A
:101B5000211107C0CF33D10521F0809104028823E1
:101B600089F08091410681110DC0E0910502F0914C
:101B70000602309739F0412F477013FB662760F952
:101B8000CE01099589E395E290931F0480931E048A
:101B900087E050C087FF08C089E395E290931F0457
:101BA00080931E0485E646C0107C103441F089E322
:101BB00095E290931F0480931E0486E63BC091E05B
:101BC00020913505821390E090933C0689E395E2DD
:101BD00090931F0480931E0486E02CC0943069F516
:101BE00090913606892F807C803839F580913706B0
:101BF000282F2578213009F5C82FC670D0E0DC2FBA
:101C0000CC27807724E0829FC00DD11D11249F73C3
:101C1000C90FD11D0E944A2321E0C817D90709F036
:101C200020E020933C0689E395E290931F04809383
:101C30001E0488E080931C0208C089E395E290931B
:101C40001F0480931E0410921C02DF91CF911F91FC
:101C500008950E94CD27A0911B024A2F50E02091A9
:101C60001D0230911E02FB01E21BF30B9F01FA01E2
:101C7000EE0FFF1FE95EFD4F3183208360931D024D
:101C800070931E0280931F029093200220911502F0
:101C900030911602240F351F30931602209315023F
:101CA00081E08A2780931B0208958F929F92AF92C2
:101CB000BF92CF92DF92EF92FF920F931F93CF9339
:101CC000DF93EC014701121613060CF06BC01016DF
:101CD00011060CF067C0A885B9856A177B070CF060
:101CE00061C0CA84DB844C155D050CF05BC05B01F0
:101CF000A20EB31EC501019797FD54C07A01E00EF4
:101D0000F11EF7013197F7FD4DC077FF49C060E044
:101D100070E057FD02C0780102C040E050E08A1731
:101D20009B072CF0CD0101975D01A61AB70AEC15AF
:101D3000FD052CF0F60131977601E41AF50A8F01C2
:101D40009C01CE010E94661B9701D5010E94C135FE
:101D50009B01AC01B401CE010E942F198A8D811123
:101D600010C00A851B85015011092885398521502D
:101D7000310940E050E060E070E0CE010E94661B57
:101D800011C0CE01DF91CF911F910F91FF90EF9085
:101D9000DF90CF90BF90AF909F908F900C94421B9C
:101DA0005901B7CFDF91CF911F910F91FF90EF9025
:101DB000DF90CF90BF90AF909F908F900895CF927B
:101DC000DF92EF92FF920F931F93CF93DF93EC017B
:101DD0006801121613060CF04FC077FD4DC08885C0
:101DE0009985681779070CF047C0EA85FB854E177F
:101DF0005F070CF041C07A01E20EF31E870101502B
:101E0000110917FD39C057FF35C040E050E00E17EB
:101E10001F0734F08F01015011097F01E41AF50A00
:101E20009B01CE010E94661B9701FF0C440B550BD2
:101E3000B601CE010E942F198A8D811110C00A852A
:101E40001B8501501109288539852150310940E051
:101E500050E060E070E0CE010E94661B0DC0CE0134
:101E6000DF91CF911F910F91FF90EF90DF90CF9076
:101E70000C94421B7901CBCFDF91CF911F910F9131
:101E8000FF90EF90DF90CF900895CF92DF92EF9286
:101E9000FF920F931F93CF93DF93EC01680112160B
:101EA00013060CF04EC057FD4CC08A859B85481721
:101EB00059070CF046C0E885F9856E177F070CF0CE
:101EC00040C07B01E20EF31EC701019797FD39C0A8
:101ED00077FF35C060E070E08E179F072CF0CF01D0
:101EE00001977F01E61AF70A8A019C01CE010E9440
:101EF000661B9701FF0C440B550BB601CE010E94E7
:101F00002F198A8D811110C00A851B850150110976
:101F1000288539852150310940E050E060E070E0CB
:101F2000CE010E94661B0DC0CE01DF91CF911F91A3
:101F30000F91FF90EF90DF90CF900C94421B7901AE
:101F4000CBCFDF91CF911F910F91FF90EF90DF905A
:101F5000CF900895CF92DF92EF92FF92FC01A38D74
:101F6000B48D9C9187A189238C93A58DB68D9C916E
:101F700080A589238C938BB1962F9C7F8370892BAE
:101F80008BB985B163708C7F682B65B9A78DB0A1C3
:101F90009C9181A589238C93A78DB0A19C9185A14B
:101FA000892B8C93A58DB68D9C9184A1892B8C93C4
:101FB00083E290E0DC011197F1F77BB1C52EDD24BF
:101FC000EE24FF246C2D6C7F7370762B7BB965B18A
:101FD0007C2D73706C7F672B65B9A78DB0A17C9148
:101FE00061A567236C93A78DB0A17C9165A1672B38
:101FF0006C93DC011197F1F77BB16A01EE24FF24A9
:102000006C2D6C7F7370762B7BB965B17C2D7370F2
:102010006C7F672B65B9A78DB0A17C9161A5672303
:102020006C93A78DB0A17C9165A1672B6C93DC01AB
:102030001197F1F77BB1C32ED42EE52EFF246C2D22
:102040006C7F7370762B7BB965B17C2D73706C7F60
:10205000672B65B9A78DB0A17C9161A567236C93AF
:10206000A78DB0A17C9165A1672B6C930197F1F7C7
:102070008BB1922F9C7F8370892B8BB985B1237094
:102080008C7F282B25B9A78DB0A19C9181A5892390
:102090008C93A78DB0A19C9185A1892B8C93A38D46
:1020A000B48D9C9183A1892B8C93FF90EF90DF904E
:1020B000CF900895FC01A58DB68D9C9180A58923B4
:1020C0008C938BB1962F9C7F8370892B8BB985B1B4
:1020D00063708C7F682B65B9A78DB0A19C9181A599
:1020E00089238C93A78DB0A19C9185A1892B8C937A
:1020F000A58DB68D9C9184A1892B8C938BB1932F48
:102100009C7F8370892B8BB985B133708C7F382B82
:1021100035B9A78DB0A19C9181A589238C93A78DFA
:10212000B0A19C9185A1892B8C93A58DB68D9C9196
:1021300080A589238C938BB1942F9C7F8370892BEE
:102140008BB985B143708C7F482B45B9A78DB0A161
:102150009C9181A589238C93A78DB0A19C9185A189
:10216000892B8C93A58DB68D9C9184A1892B8C9302
:102170008BB1922F9C7F8370892B8BB985B1237093
:102180008C7F282B25B9A78DB0A19C9181A589238F
:102190008C93A78DB0A19C9185A1892B8C930895D8
:1021A000FC01A58DB68D9C9180A589238C938BB164
:1021B000972F9C7F8370892B8BB985B173708C7F2F
:1021C000782B75B9A78DB0A19C9181A589238C939B
:1021D000A78DB0A19C9185A1892B8C938BB1962F53
:1021E0009C7F8370892B8BB985B163708C7F682B42
:1021F00065B9A78DB0A19C9181A589238C93A78DEA
:10220000B0A19C9185A1892B8C93A58DB68D9C91B5
:1022100084A1892B8C938BB1952F9C7F8370892B04
:102220008BB985B153708C7F582B55B9A78DB0A150
:102230009C9181A589238C93A78DB0A19C9185A1A8
:10224000892B8C938BB1942F9C7F8370892B8BB9B6
:1022500085B143708C7F482B45B9A78DB0A19C9167
:1022600081A589238C93A78DB0A19C9185A1892BF1
:102270008C930895EF92FF920F931F93CF93DF9368
:10228000EC017B018A8D811129C02D8921502330D9
:1022900078F430E0F901ED5EFE4F8081482F50E088
:1022A000220F331FF901E35FFE4F0081118104C04B
:1022B00000E010E040E050E0EB8DFC8D30812FA17C
:1022C0002323208360E270E0CE010E94D010A80199
:1022D00061E270E0CE010E94D01012C081508330C4
:1022E00078F40A851B85015011092885398521500C
:1022F000310940E050E060E070E0CE010E94661BD2
:1023000020E03CE241E050E0B701CE01DF91CF9107
:102310001F910F91FF90EF900C942F19FC01A58D48
:10232000B68D9C9180A589238C938BB1962F9C7F31
:102330008370892B8BB985B163708C7F682B65B9ED
:10234000A78DB0A19C9181A589238C93A78DB0A165
:102350009C9185A1892B8C93A58DB68D9C9184A190
:10236000892B8C938BB1942F9C7F8370892B8BB995
:1023700085B143708C7F482B45B9A78DB0A19C9146
:1023800081A589238C93A78DB0A19C9185A1892BD0
:102390008C930895AF92BF92CF92DF92EF92FF920B
:1023A0000F931F93CF93DF93EC017B016A01B22E51
:1023B000A32E77FD1BC157FD19C188859985681724
:1023C00079070CF013C18A859B85481759070CF0D3
:1023D0000DC1EB8DFC8D90818FA1892380838A8D27
:1023E000811135C08D89823059F08330B1F0813050
:1023F000D1F48FEE90E0841B950B6B017C0113C030
:102400008FEE90E09C01261B370B79018FE391E062
:102410009C01241B350B690106C08FE391E0861BEC
:10242000970B7A016C01A70160E270E0CE010E9477
:10243000D010A60161E270E0CE010E94D0104B2DB9
:102440005A2D62E270E0CE010E94D010C9C08130E6
:1024500009F060C0ED89E150E33028F4F0E0EA5E75
:10246000FE4F408101C040E066E1CE010E948E1126
:10247000970143E062E0CE010E945A10960147E0C6
:1024800066E0CE010E945A10ED8DFE8D908188A5E8
:10249000892380838BB1837080628BB985B18C7FF7
:1024A000826085B9EF8DF8A1908189A58923808309
:1024B000EF8DF8A190818DA1892B8083ED8DFE8D0C
:1024C00090818CA1892B80838BB19A2D9C7F837006
:1024D000892B8BB985B19A2D93708C7FA92EA82A50
:1024E000A5B8EF8DF8A1908189A589238083EF8D10
:1024F000F8A190818DA1892B80838BB19B2D9C7F2E
:102500008370892B8BB985B19B2D93708C7FB92EED
:10251000B82A59C08250823008F062C00A851B85F3
:10252000015011092885398521503109CE010E94B9
:10253000661BEB8DFC8D90818FA189238083ED8DAF
:10254000FE8D908188A5892380838BB183708C62F6
:102550008BB985B18C7F85B9EF8DF8A1908189A564
:1025600089238083EF8DF8A190818DA1892B8083B1
:10257000ED8DFE8D90818CA1892B80838BB19A2D5E
:102580009C7F8370892B8BB995B18A2D83709C7F3A
:10259000A82EA92AA5B8EF8DF8A1908189A5892335
:1025A0008083EF8DF8A190818DA1892B80838BB1E1
:1025B0009B2D9C7F8370892B8BB995B18B2D83705C
:1025C0009C7FB82EB92AB5B8EF8DF8A1908189A566
:1025D00089238083EF8DF8A190818DA1892B808341
:1025E000EB8DFC8D90818BA1892B8083DF91CF9126
:1025F0001F910F91FF90EF90DF90CF90BF90AF9021
:1026000008955F926F927F928F929F92AF92BF9246
:10261000CF92DF92EF92FF920F931F93CF93DF93AE
:102620008C015B016A017901FC0184809580612C39
:10263000712CCFEFDFEF46E0542E569CC001579C23
:10264000900D11248B569B4FFC0124813581281558
:10265000390549F4B8010E946923892B21F4E3016B
:1026600031E1632E712CFFEF6F1A7F0A81E168164A
:1026700071041CF3CE01880F991FFC01E959FD4F2D
:10268000B182A082FC01EB5BFD4FD182C082FC01D4
:10269000ED5DFD4FF182E082DF91CF911F910F91AF
:1026A000FF90EF90DF90CF90BF90AF909F908F9072
:1026B0007F906F905F9008952F923F924F925F921C
:1026C0006F927F928F929F92AF92BF92CF92DF9242
:1026D000EF92FF920F931F93CF93DF93880F991F71
:1026E000880F991F0397242F267030E03595279582
:1026F0004C01820E931E4170342E07E012E0C0E0C0
:10270000D0E0222423946AE0A62EB12CF801819116
:1027100091918F018816990609F0D5C03092EB028D
:10272000D093EA02C093E9022092E8024091370474
:10273000509138046091390470913A0480913304C7
:1027400090913404A0913504B0913604481759078C
:102750006A077B0709F493C00E942C286B017C0157
:1027600040914704509148046091490470914A0493
:1027700080914B0490914C04A0914D04B0914E0473
:10278000840F951FA61FB71F8C159D05AE05BF05AD
:1027900008F075C040903B0450903C0460903D04AC
:1027A00070903E0420E030E0A901C301B2010E9414
:1027B0002535181664F48091330490913404A09167
:1027C0003504B09136040196A11DB11D14C020E05E
:1027D00030E0A901C301B2010E94A73187FF13C0F5
:1027E0008091330490913404A0913504B091360463
:1027F0000197A109B1098093330490933404A09305
:102800003504B09336046091330463708CE294E035
:102810000E94DF08C0924B04D0924C04E0924D0419
:10282000F0924E048CE294E00E94F60A9B01AC0107
:1028300060933B0470933C0480933D0490933E046A
:1028400060E070E08AE794E40E9417346B017C0139
:1028500020E030E0A9010E94253518161CF4C701BC
:10286000B60103C0C701B60190580E94903460932E
:102870004704709348048093490490934A048091DC
:10288000E802882399F02092E5028091E602909177
:10289000E70297FF09C00A979093E7028093E60248
:1028A000B0920501A09204011092E8028091E60224
:1028B0009091E70297FF03C01092060104C0892B94
:1028C00011F0209206012196C730D10509F01ECFE4
:1028D000DF91CF911F910F91FF90EF90DF90CF90FC
:1028E000BF90AF909F908F907F906F905F904F9030
:1028F0003F902F90089562E080915304909154048A
:102900000C947C1E61E080915304909154040C94CB
:102910007C1EAF92BF92CF92DF92EF92FF920F9305
:102920001F93CF93DF9300D000D0CDB7DEB78C01DB
:102930005B01BA01550F880B990B0E94AE312BED4C
:102940003FE049E450E40E940D3220E030E044E3EF
:1029500053E40E9417340E9432359B01AC01B80148
:10296000110F880B990B29833A834B835C830E9458
:10297000AE316B017C01B501BB0C880B990B0E9439
:10298000AE3129813A814B815C810E940D329B01DD
:10299000AC01C701B6010E9434330E948934CB01D7
:1029A0000F900F900F900F90DF91CF911F910F918B
:1029B000FF90EF90DF90CF90BF90AF900895AF92CF
:1029C000BF92CF92DF92EF92FF920F931F93CF931C
:1029D000DF9300D000D0CDB7DEB78C015B01BA0128
:1029E000550F880B990B0E94AE312BED3FE049E467
:1029F00050E40E940D3220E030E044E353E40E94B2
:102A000017340E9412349B01AC01B801110F880BDE
:102A1000990B29833A834B835C830E94AE316B010F
:102A20007C01B501BB0C880B990B0E94AE3129814A
:102A30003A814B815C810E940D329B01AC01C70140
:102A4000B6010E9434330E948934CB010F900F905D
:102A50000F900F90DF91CF911F910F91FF90EF900A
:102A6000DF90CF90BF90AF9008952F923F924F92FA
:102A70005F926F927F928F929F92AF92BF92CF920E
:102A8000DF92EF92FF920F931F93CF93DF934C014E
:102A90006B015A01E901270160909304709094043E
:102AA000AC01B501C3010E94DF141C01E090910448
:102AB000F090920489E1E80EF11CA401B501C70170
:102AC0000E9489145C01A601BE01C3010E94DF14AB
:102AD0004C01A601BE01C7010E948914800F911FFD
:102AE000A501400F511F72018C019401B1018FEFBC
:102AF00094E00E941F08DF91CF911F910F91FF90EA
:102B0000EF90DF90CF90BF90AF909F908F907F908D
:102B10006F905F904F903F902F9008954F925F92EB
:102B20006F927F928F929F92AF92BF92CF92DF92DD
:102B3000EF92FF920F931F93CF93DF9300D000D0BB
:102B400000D0CDB7DEB73C012091070530910805D4
:102B5000C901859797FD03969595879595958795D6
:102B60009093220280932102109212051092110577
:102B70001092100510920F0535E9A32E34E0B32E04
:102B8000812C912C4EE0C42ED12C5CE0452E512C92
:102B900020912102309122026814790429F498E1ED
:102BA000E92E96ECF92E04C08FEEE82E8BE7F82E76
:102BB00004E110E046E050E0B6018FEF94E00E949F
:102BC000550EB501CE0101960E94DE2321E030E0D2
:102BD00046E050E0B601CE0101960E940113CE01FD
:102BE00001960E94D923C601089690930C05809304
:102BF0000B0550920E0540920D05F501448155815B
:102C0000608171818FEF94E00E94F31F809117051E
:102C100090911805892B49F080910D0590910E0532
:102C2000069790930E0580930D051092180510924B
:102C300017057092ED026092EC02FFEF8F1A9F0A67
:102C400084E08816910469F080912102909122021B
:102C5000C80ED91E83E0C80ED11CE6E0AE0EB11C32
:102C600097CF26960FB6F894DEBF0FBECDBFDF918B
:102C7000CF911F910F91FF90EF90DF90CF90BF9079
:102C8000AF909F908F907F906F905F904F9008953E
:102C90002F923F924F925F926F927F928F929F926C
:102CA000AF92BF92CF92DF92EF92FF920F931F935A
:102CB000CF93DF93CDB7DEB7AA970FB6F894DEBFF8
:102CC0000FBECDBF6C01362E2091090530910A054B
:102CD000265231094091070550910805425151098A
:102CE000E12CF12C03E010E06DE170E089E090E070
:102CF0000E947B2060919104709192046C0D7D1D67
:102D000020E134E841E450E08091930490919404F0
:102D10000E9446202091910430919204B601620FE6
:102D2000731F20E030E04DE350E0809193049091D8
:102D300094040E9446208091FB049091FC042C0195
:102D400028E6421A21E0520A28E631E0281B390B16
:102D5000421653060CF42C0142018BE9881A8EEFBF
:102D6000980A620197EBC90ED11C3201E3E06E0EA6
:102D7000711C5201F1EBAF0EB11C70E1E72E74E84B
:102D8000F72E00E010E02AE330E04AE350E0B6011D
:102D9000C4010E94351501E010E02AE330E04AE367
:102DA00050E0B601C4010E94351500E010E02AE3AE
:102DB00030E04AE350E0B501C3010E94351501E05F
:102DC00010E02AE330E04AE350E0B501C3010E947D
:102DD000351500E010E02AE330E04AE350E0B301AB
:102DE000C4010E9435152AE330E04AE350E0B50102
:102DF000C6010E94351540EE57E066E370E0C2015F
:102E000088599E4F0E94EA2040E058EF66E370E048
:102E1000C2018C549F4F0E94EA201A8E198E1C8E7C
:102E20001B8E1E8E1D8E4AE0CE0101962C01BC0128
:102E300081E090E00E947231F20101900020E9F7F8
:102E40003197AF0144195509B201CE0149960E944C
:102E50009923332059F041E050E062ED71E0CE015A
:102E600049960E949923212C312C03C022242394BB
:102E7000312CF101EE0FFF1FFEA3EDA318A21F8E50
:102E8000EF8DF8A18DA19EA1E80FF91FE75EFE4F1F
:102E900060817181072E000C880B990B0E94AE3166
:102EA00020E030E048E455E40E94173420E030E0B0
:102EB00044EB53E40E940D329B01AC0160E070E0F2
:102EC00084EB92E40E9433330E94893469A37AA38D
:102ED0008BA39CA328E6C22EDD24D394E9A1FAA1FA
:102EE000CE1ADF0A30E1E32E34E8F32E0DEF1FEFA8
:102EF0002FE530E041E450E0B601C6010E943515EF
:102F000003E010E02FE530E041E450E0B601C601F7
:102F10000E943515BE01675E7F4FCE0143960E9429
:102F2000DE23BE016D5E7F4FC2010E94DE238D80D5
:102F30009E8045E9E42E44E0F42E57010FEF1FEF89
:102F4000C12CD12CF501848195818815990539F41E
:102F5000B201C5010E946923892B09F48601FFEFA4
:102F6000CF1ADF0A26E0A20EB11C81E1C816D104F7
:102F700049F7000F111FF801E959FD4F808091803A
:102F8000C2010E94D923BE016D5E7F4FC2010E9423
:102F9000DE23CD80DE800FEF1FEFA12CB12CF701D7
:102FA000848195818C159D0539F4B201C7010E9479
:102FB0006923892B09F48501FFEFAF1ABF0A26E0C8
:102FC000E20EF11C81E1A816B10449F7000F111FB0
:102FD000F801EB5BFD4FC080D180C2010E94D92374
:102FE0008114910419F0C114D10431F549A15AA1F9
:102FF0006FE570E080919304909194040E94DF1437
:103000004C0149A15AA16FE570E080919104909123
:1030100092040E9489146C01BE016D5E7F4FC20153
:103020000E94DE2322E030E0A601B401C2010E942A
:103030000113C2010E94D9238091910490919204BE
:10304000B601681B790B072E000C880B990B0E94A8
:10305000AE319B01AC018091930490919404B40132
:10306000681B790B072E000C880B990B2FA338A730
:1030700049A75AA70E94AE312FA138A549A55AA544
:103080000E94B33320EE3EE245E652E40E940D3248
:103090000E9489349B0177FF02C028593E4FC90125
:1030A0006DE270E00E94AD35672B19F482EE9FEF60
:1030B00002C081EF9FEF3601681A790AE12CF12CEA
:1030C00004E010E02EE130E04EE150E0B301C40135
:1030D0000F960E947B20740191E1E90EF11CE091B2
:1030E000FF04F0910005A301425051090284F385C9
:1030F000E02D00E010E024E130E0B7018FEF94E034
:103100000995E091FF04F0910005A301475E5F4F30
:103110000284F385E02D24E130E0B7018FEF94E0E5
:1031200009955301E2E0AE0EB11CE091FF04F0916D
:103130000005B401635F7F4F0084F185E02D24E139
:1031400030E0A5018FEF94E00995E091FF04F09144
:103150000005B401685D7F4F0084F185E02D24E116
:1031600030E0A5018FEF94E0099541E0B501C7017A
:103170000E94152184010C5D1F4F42E0B501C8017A
:103180000E941521F5E16F0E711C44E0B301C801E6
:103190000E94152148E0B301C7010E9415212AE0D1
:1031A000820E911C90920C0580920B058AE0C80E4D
:1031B000D11CD0920E05C0920D05109212051092EE
:1031C00011051092100510920F054F89588D6B89CB
:1031D0007C898FEF94E00E94F31F809117059091F6
:1031E0001805892B49F080910D0590910E050697E1
:1031F00090930E0580930D051092180510921705F7
:10320000CE0143960E94D9239FEF291A390AEF8DE8
:10321000F8A13296F8A3EF8FF7E02F16310409F0EA
:103220002FCECE0149960E94D923AA960FB6F894C4
:10323000DEBF0FBECDBFDF91CF911F910F91FF90E9
:10324000EF90DF90CF90BF90AF909F908F907F9046
:103250006F905F904F903F902F9008950895AF9298
:10326000BF92CF92DF92EF92FF920F931F93CF9373
:10327000DF93FC01A38DB48D9C9187A189238C934E
:10328000A58DB68D9C9180A589238C93828D8230EB
:10329000B9F0811113C08BB183708BB985B18C7F6C
:1032A00085B9A78DB0A19C9181A589238C93A78D09
:1032B000B0A19C9185A1892B8C9309C0833039F4EE
:1032C0008BB183708C628BB985B18C7F07C08BB159
:1032D000837080628BB985B18C7F826085B9A78D40
:1032E000B0A19C9181A589238C93A78DB0A19C91BD
:1032F00085A1892B8C93A58DB68D9C9184A1892B5A
:103300008C938BB1972F9C7FB92E8370892B8BB9AF
:1033100085B1A72FA370AA2E8C7F8A2B85B9C78D64
:10332000D0A1988181A589238883C78DD0A1988158
:1033300085A1892B88838BB1C62FCC7F83708C2B82
:103340008BB985B1D62FD3708C7F8D2B85B9078D26
:1033500010A1D8019C9181A589238C93078D10A180
:10336000D8019C9185A1892B8C9321503109410969
:10337000510969017A0186E0F694E794D794C794DD
:103380008A95D1F7C601761348C1019708F465C044
:1033900060E1A78DB0A1CC9171A57C237C93A78D12
:1033A000B0A1CC9175A17C2B7C93A78DB0A1CC91C1
:1033B00071A57C237C93A78DB0A1CC9175A17C2BAA
:1033C0007C93A78DB0A1CC9171A57C237C93A78D14
:1033D000B0A1CC9175A17C2B7C93A78DB0A1CC9191
:1033E00071A57C237C93A78DB0A1CC9175A17C2B7A
:1033F0007C93A78DB0A1CC9171A57C237C93A78DE4
:10340000B0A1CC9175A17C2B7C93A78DB0A1CC9160
:1034100071A57C237C93A78DB0A1CC9175A17C2B49
:103420007C93A78DB0A1CC9171A57C237C93A78DB3
:10343000B0A1CC9175A17C2B7C93A78DB0A1CC9130
:1034400071A57C237C93A78DB0A1CC9175A17C2B19
:103450007C93615009F09DCF98CF2F732150C8F015
:10346000A78DB0A19C9181A589238C93A78DB0A134
:103470009C9185A1892B8C93A78DB0A19C9181A54E
:1034800089238C93A78DB0A19C9185A1892B8C93C6
:10349000E5CFA38DB48D9C9183A1892B8C93DF9173
:1034A000CF911F910F91FF90EF90DF90CF90BF9041
:1034B000AF9008956BB163706B296BB965B16C7F88
:1034C0006A2965B9078D10A1D801FC9061A56F210B
:1034D0006C93078D10A1D801FC9065A16F296C93A6
:1034E0006BB163706C2B6BB965B16C7F6D2B65B97B
:1034F000078D10A1D801FC9061A56F216C93078DF9
:1035000010A1D801FC9065A16F296C936BB1637019
:103510006B296BB965B16C7F6A2965B9078D10A1FC
:10352000D801FC9061A56F216C93078D10A1D80183
:10353000FC9065A16F296C936BB163706C2B6BB9B8
:1035400065B16C7F6D2B65B9078D10A1D801FC901A
:1035500061A56F216C93078D10A1D801FC9065A126
:103560006F296C936BB163706B296BB965B16C7F1C
:103570006A2965B9078D10A1D801FC9061A56F215A
:103580006C93078D10A1D801FC9065A16F296C93F5
:103590006BB163706C2B6BB965B16C7F6D2B65B9CA
:1035A000078D10A1D801FC9061A56F216C93078D48
:1035B00010A1D801FC9065A16F296C936BB1637069
:1035C0006B296BB965B16C7F6A2965B9078D10A14C
:1035D000D801FC9061A56F216C93078D10A1D801D3
:1035E000FC9065A16F296C936BB163706C2B6BB908
:1035F00065B16C7F6D2B65B9078D10A1D801FC906A
:1036000061A56F216C93078D10A1D801FC9065A175
:103610006F296C93715009F04DCF019710F070E154
:1036200049CF2F73215008F434CF8BB183708B298D
:103630008BB985B18C7F8A2985B9478D50A1DA0174
:103640009C9181A589238C93478D50A1DA019C918F
:1036500085A1892B8C938BB183708C2B8BB985B111
:103660008C7F8D2B85B9478D50A1DA019C9181A566
:1036700089238C93478D50A1DA019C9185A1892BD8
:103680008C93D0CFCF93DF93EC01EB8DFC8D9081A9
:103690008FA189238083288539852150310945E010
:1036A00064E0CE010E945A102A853B8521503109E1
:1036B00049E068E0CE010E945A10EB8DFC8D9081AC
:1036C0008BA1892B8083DF91CF9108958F929F9258
:1036D000AF92BF92CF92DF92EF92FF920F931F9320
:1036E000CF93DF93EC017A016901EB8DFC8D308182
:1036F0002FA1232320832A8D21115EC02D89223002
:1037000089F0233021F1213081F52FEE30E0A9013D
:10371000401B510B5B0149018E189F088601640113
:103720007B0113C02FEE30E0A9014C195D0969013E
:10373000C61AD70A8FE391E09C01201B310B8C0144
:103740000E191F09580146017901BA0110C02FE373
:1037500031E0A9014C195D095901A61AB70A4701C0
:1037600068018501B7017A0102C05A014B01AB0122
:1037700060E570E0CE010E94D010A60161E570E026
:10378000CE010E94D010A70162E570E0CE010E9438
:10379000D010A80163E570E0CE010E94D010A40112
:1037A00060E270E0CE010E94D010A50161E270E0FD
:1037B000CE010E94D01047C02130C1F49B0143E0EC
:1037C00062E00E945A10970147E066E0CE010E9435
:1037D0005A10960145E064E0CE010E945A1098010B
:1037E00049E068E0CE010E945A102DC022502230DC
:1037F00050F5CB01770FAA0BBB0BDC01992788276B
:10380000A601DD0C660B770B9A01AB01282B392B37
:103810004A2B5B2B6AE2CE010E94AA0FC701FF0C64
:10382000AA0BBB0BDC0199278827A801110F660B97
:10383000770B9A01AB01282B392B4A2B5B2B6BE2C0
:10384000CE010E94AA0FEB8DFC8D90818BA1892B5C
:103850008083DF91CF911F910F91FF90EF90DF90C8
:10386000CF90BF90AF909F908F900895FF920F934D
:103870001F93CF93DF9300D0CDB7DEB7152FF32E74
:10388000FC01008181E080931503009338031092BE
:10389000160310923703F4E06F9FB00111246A5FA2
:1038A0007F4F80E294E02A8349830E947609498110
:1038B000842F912F0E94771E812F90E00E94771E07
:1038C0002A81822F9F2D0E94771E8F2D90E00E94CB
:1038D000771E80913703813208F046C0909114031F
:1038E0009111FCCF92E09093140391E09093130315
:1038F0009FEF909312031092110380931003A7E19E
:10390000B3E020EF32E0F9019E2F921B981718F4D4
:103910009D919193F9CF1092EF028091EF02000FE9
:10392000802B8093EF028091EE02813061F410923F
:10393000EE028091EF028093BB008091BC0083FD7A
:10394000F8CF85EC01C085EE8093BC008091140314
:103950008230E1F3809112038F3F31F080911203A6
:10396000803211F0809112031092160310923703E7
:10397000109215030F900F90DF91CF911F910F912F
:10398000FF9008959A01CB96211540E1340728F065
:1039900020E030E040E050E102C040E050E00C9414
:1039A000361C2F923F924F925F926F927F928F922E
:1039B0009F92AF92BF92CF92DF92EF92FF920F93BE
:1039C0001F93CF93DF93CDB7DEB76B970FB6F89405
:1039D000DEBF0FBECDBF4C015A8349831F830E83C8
:1039E000FD82EC82CB82DC0158964D915C91599717
:1039F0004115510509F0A5C018968D919C91199714
:103A0000681779070CF05AC11A968D919C911B97F3
:103A1000E981FA81E817F9070CF050C1D12CCB01EC
:103A20003B81F6E03F9F800D911D11241816190669
:103A30000CF044C1C60133E0880F991F3A95E1F7B5
:103A400049815A81840F951F181619060CF036C14A
:103A500057968C91811103C0203B08F02F5F55E0F1
:103A6000259F900111247E876D875B01212CC90160
:103A7000861B970B99878887A981BA811896BB877F
:103A8000AA87B5E02B1641F0E885F985EA0DFB1D04
:103A9000E251F74F349001C0312C69807A802301C4
:103AA00030FE12C0D401ED91FC91BB81B13031F4F4
:103AB0000480F581E02D2E813F8118C00684F785B2
:103AC000E02DEE80FF801CC0EC81FD812E813F81C6
:103AD000E217F307E1F0D401ED91FC91BB81B13025
:103AE00051F40480F581E02D2C813D81A301B501C5
:103AF000C40109950CC00684F785E02DEC80FD809B
:103B000086019601A2016D857E85C40109953694D2
:103B1000EFEF6E1A7E0A4C0C5D1C2A853B856216FF
:103B2000730609F0BDCF23943FEFA31AB30A4D8566
:103B30005E854C0D5D1D5E874D8756E02512A1CF39
:103B4000BDC0FA0134963491329785919491231B2C
:103B5000A7E02A9F800D911D1124FA01259134912F
:103B60003A8B298BFC0125903490FC0132963491DC
:103B70003887319644914C873196E491FC01359613
:103B8000A491319684915B81523050F06A2E0A2EB6
:103B9000000C7708E82F082E000CFF0BFB87EA8744
:103BA000FB81CF2ED12C6C9C90016D9C300D7C9CA8
:103BB000300D1124A901460F571F588B4F871C82C7
:103BC000A12CEA2FAA0FFF0B3B016E0E7F1E58851A
:103BD000650F711DDB01AE0FBF1FBF8BAE8BE9817F
:103BE000FA81E80FF11D87FDFA95F98FE88F9C8522
:103BF000A91608F063C08A2D90E04A855B85480FBE
:103C0000591F4C9D90014D9D300D5C9D300D112430
:103C1000A981BA81A20FB31FBE87AD877B8E6A8E42
:103C20004F845888BC81B619BB8BE88DF98DE80F9D
:103C3000F91FFD8BEC8B8B89FA8D8F0F2A8D3B8DB5
:103C40004E895F892417350799F1877041F4C101C6
:103C50000196E989FA89E20DF31DB4901C01B7FEC3
:103C60001EC0D401ED91FC91BB81B13061F40480A0
:103C7000F581E02D2E813F814C895D896A8D7B8D98
:103C8000C40109950CC00684F785E02DEE80FF8005
:103C9000860196014D855E85B201C4010995BB0C74
:103CA000EA8DFB8D3196FB8FEA8F4C0C5D1CC3CFE8
:103CB0005C818885580F5C83A39499CF6B960FB66F
:103CC000F894DEBF0FBECDBFDF91CF911F910F9152
:103CD000FF90EF90DF90CF90BF90AF909F908F902C
:103CE0007F906F905F904F903F902F900895682F36
:103CF00080E294E00C9476091F93CF93DF93EC015C
:103D00008C85613011F48F5F01C081508C872C85C8
:103D10002F73822F90E0203148F4E7E3F1E0E81BB5
:103D2000F90B4081FC01E95DFE4F20C030EF320FFE
:103D3000303138F4FC01E95EFE4F4081E7E4F1E008
:103D400013C030EE320F303148F4E7E5F1E0E81B04
:103D5000F90B4081FC01E95FFE4F08C0FC01E9500E
:103D6000FF4F4081E7E6F1E0E81BF90B10812C875B
:103D700080E1489FA00111246C818D859E850E9461
:103D8000C21C80E1189FA00111246F818D859E8542
:103D90000E94C21C8C85803110F413E001C010E039
:103DA00090EF980F903108F4166090EE980F9031D4
:103DB00008F41C608053803108F419608D859E855D
:103DC00020E030E010FF03C040E050E102C040E0DE
:103DD00050E06E81CB960E94361C8D859E8520E03A
:103DE00030E011FF03C040E050E102C040E050E08D
:103DF0006885CB960E94361C8D859E8520E030E03C
:103E000012FF03C040E050E102C040E050E06D818D
:103E1000CB960E94361C8D859E8520E030E013FFF6
:103E200003C040E050E102C040E050E06985CB961D
:103E30000E94361C8C85DF91CF911F9108952F929F
:103E40003F924F925F926F927F928F929F92AF922A
:103E5000BF92CF92DF92EF92FF920F931F93CF9377
:103E6000DF9300D000D000D0CDB7DEB75C014B01AE
:103E70005E834D83280181E090E03C01641A750A5D
:103E8000CA01919581959109AC01440F551F5A8340
:103E900049831801CC24C394D12C522F51705B83D9
:103EA00022702C83C60101972D813E8182179307D2
:103EB0000CF080C077FC0CC08D819E8101979E83A1
:103EC0008D83E981FA813296FA83E9836E0E7F1E33
:103ED000C601880F991F0196680E791EFB81FF238A
:103EE00079F1E091FF04F09100052D813E81220FD0
:103EF000331F2F5F3F4F240D351D0084F185E02DCA
:103F00008701A4018D819E81481B590BB6016A0D62
:103F10007B1D8FEF94E00995E091FF04F09100057F
:103F20000084F185E02D91012D5F3F4FA4014C19D4
:103F30005D096D817E816A0D7B1D8FEF94E009958F
:103F40009C81992381F1E091FF04F09100052D817E
:103F50003E81220F331F2F5F3F4F240D351D0084FC
:103F6000F185E02D8701A4018D819E81481B590BAD
:103F7000B5016C197D098FEF94E00995E091FF047C
:103F8000F09100050084F185E02D91012D5F3F4FF8
:103F9000A4014C195D09B5018D819E81681B790BC7
:103FA0008FEF94E009959FEFC91AD90AE2E02E0E2F
:103FB000311C78CF26960FB6F894DEBF0FBECDBF6A
:103FC000DF91CF911F910F91FF90EF90DF90CF90F5
:103FD000BF90AF909F908F907F906F905F904F9029
:103FE0003F902F900895CF92DF92EF92FF920F9320
:103FF0001F93CF93DF936C017A018B01C0E0D0E077
:10400000CE15DF0589F0D8016D918D01D601ED91B6
:10401000FC910190F081E02DC6010995892B11F4E6
:104020007E0102C02196ECCFC701DF91CF911F9195
:104030000F91FF90EF90DF90CF900895E9E3F3E0C8
:10404000A089B18982E08C93A485B5851C92A68550
:10405000B78580E18C93108EA489B58986E08C9316
:10406000A289B3898C9180618C93A289B3898C9148
:1040700088608C93A289B3898C9180688C93028824
:10408000F389E02D80818F7D80830895AF92BF9268
:10409000CF92DF92EF92FF920F931F93CF93DF9314
:1040A0006C015B01EA017901E091FF04F0910005E8
:1040B0009A01220F331F2F5F3F4FAB014C1B5D0B4B
:1040C0000084F185E02D8701B6018FEF94E009951A
:1040D00000E010E023E0AE01B501C6010E941F1F01
:1040E000DF91CF911F910F91FF90EF90DF90CF90D4
:1040F000BF90AF9008952F923F924F925F926F9230
:104100007F928F929F92AF92BF92CF92DF92EF9267
:10411000FF920F931F93CF93DF9300D000D0CDB7C2
:10412000DEB73C015B012A013C832B8368018827B1
:104130009927801B910B9C01220F331F3A832983FF
:104140001301200E311EE091FF04F0910005240FB1
:10415000351F0684F785E02D0B811C81AB01B10171
:104160008FEF94E009952B813C8189819A81280FFA
:10417000391FD9011197BA83A983AC0CBD1C640CFB
:10418000751CC3018C199D098D0121E0A601B501A3
:1041900001970E941F1F09811A8122E0A601B50123
:1041A000C1010E941F1F0F900F900F900F90DF9181
:1041B000CF911F910F91FF90EF90DF90CF90BF9024
:1041C000AF909F908F907F906F905F904F903F90B7
:1041D0002F900895CF92DF92EF92FF920F931F934B
:1041E000CF93DF938C01EB016A01AC0180919304C2
:1041F000909194040E94DF147C018091910490912D
:104200009204A801BE0149960E948914960142E0D9
:1042100050E0BC01C701DF91CF911F910F91FF903A
:10422000EF90DF90CF900C9446202F923F924F92C8
:104230005F926F927F928F929F92AF92BF92CF9236
:10424000DF92EF92FF920F931F93CF93DF937C0146
:104250006B0166246394712C00E010E0C4E0D0E0B0
:1042600098EF892E99249A942DEFA22EBB24BA940C
:10427000842F8470582E842F8270482E842F88704B
:10428000382E4170242E0F5F1F4F82E0680E711C84
:10429000A60CB71C552021F1E091FF04F091000518
:1042A0000480F581E02D20E030E0A6014C0F5D1F79
:1042B000B701600F711F8FEF94E00995E091FF0443
:1042C000F09100050480F581E02D20E030E0A601AA
:1042D000400F511FB7016C0F7D1F8FEF94E00995C0
:1042E000442021F1E091FF04F09100050480F58164
:1042F000E02D20E030E0A6014C1B5D0BB701600F04
:10430000711F8FEF94E00995E091FF04F091000593
:104310000480F581E02D20E030E0A601401B510B28
:10432000B7016C0F7D1F8FEF94E00995332021F1C9
:10433000E091FF04F09100050480F581E02D20E07C
:1043400030E0A601400F511FB7016C1B7D0B8FEFB2
:1043500094E00995E091FF04F09100050480F58157
:10436000E02D20E030E0A6014C0F5D1FB701601B7F
:10437000710B8FEF94E00995222021F1E091FF0469
:10438000F09100050480F581E02D20E030E0A601E9
:10439000401B510BB7016C1B7D0B8FEF94E009950F
:1043A000E091FF04F09100050480F581E02D20E00C
:1043B00030E0A6014C1B5D0BB701601B710B8FEF4A
:1043C00094E009950C171D074CF4B7FC5CCF2197BE
:1043D00082E0880E911CA80CB91C55CFDF91CF91BB
:1043E0001F910F91FF90EF90DF90CF90BF90AF9013
:1043F0009F908F907F906F905F904F903F902F9005
:1044000008950F931F93CF93DF93837080931405C8
:104410002091030530910405409105055091060552
:10442000813059F0833049F0309308052093070517
:1044300050930A054093090508C05093080540931E
:10444000070530930A0520930905E0911A05F091BC
:104450001B05908180912605892380838091190511
:10446000811129C0E0911405E150E33040F4F0E0FF
:10447000EE0FFF1FEB57FE4F4081518102C040E31A
:1044800050E163E070E08FEF94E00E94D010009163
:10449000090510910A050150110920910705309175
:1044A00008052150310940E050E060E070E08FEFF6
:1044B00094E00E94661B809119058130A1F4E0917F
:1044C0001405E150E33028F4F0E0EE57FE4F408150
:1044D00001C040E066E18FEF94E00E948E118FEF03
:1044E00094E00E94421B80911905823051F5809121
:1044F0001405813059F040F0823021F0833039F4D6
:10450000D8E205C0D8E403C0D8E801C0D8EE4D2FEA
:1045100066E38FEF94E00E948E11009109051091DF
:104520000A05015011092091070530910805215015
:10453000310940E050E060E070E08FEF94E00E94CD
:10454000661B80911905833051F5809114058130E7
:1045500059F040F0823021F0833039F4C0E605C0D4
:10456000C0E003C0C0EC01C0C0EA4C2F66E38FEF8F
:1045700094E00E948E110091090510910A050150E6
:10458000110920910705309108052150310940E0BB
:1045900050E060E070E08FEF94E00E94661BDF91D6
:1045A000CF911F910F910895E0911A05F0911B058D
:1045B000908180912205892B8083E0911E05F091E6
:1045C0001F05908180912405892B8083E09120052F
:1045D000F0912105908180912505892B8083809120
:1045E0002A05882371F060E00E944A2762E070E0AB
:1045F00080E090E00E94F22761E080912A050E940D
:104600004A27E0911A05F0911B05908180912605BB
:1046100089238083E0911C05F0911D059081809194
:104620002705892380838BB183708BB985B18C7FFB
:1046300085B9E0911E05F0911F05908180912805B4
:1046400089238083E0911E05F0911F059081809160
:104650002405892B808383E0E0911E05F0911F05DE
:1046600020819091280592239083E0911E05F0917E
:104670001F05208190912405922B9083815061F732
:10468000E0911A05F0911B05908180912205892BFC
:10469000808308958091510587FF0CC080913D056E
:1046A00090E09C0146E0220F331F4A95E1F7822BF0
:1046B000932B089585FF09C08091450590E0982FC0
:1046C000882720914605822B08958091350590E03A
:1046D0000895CF93DF93DC01ED91FC91EB01A8816C
:1046E000B981309711F01097C9F4109759F0EB0188
:1046F0002C813D81232B31F08C9190E09195819517
:10470000910914C0309781F0DC0114968D919C9131
:104710001597892B49F0808190E008C0BD01CF0139
:10472000DF91CF910C94EF3780E090E0DF91CF9153
:104730000895EF92FF920F931F93CF93DF93EC01B5
:104740007B018A0188819981009729F02A813B8128
:1047500024173507F8F4B8016F5F7F4F0E941737B1
:10476000009759F0998388831B830A832C813D81AC
:10477000232B81F4FC0110820DC088819981009760
:1047800011F00E947F36198218821D821C821B82C2
:104790001A8207C01D830C83B701888199810E940A
:1047A000F837CE01DF91CF911F910F91FF90EF90DD
:1047B0000895FC01808191810C947F36FB01DC011E
:1047C00011961C921E9213961C921E921297159689
:1047D0001C921E9214978617970749F06081718189
:1047E0006115710521F0448155810C949923089538
:1047F000FC011182108213821282158214826115CB
:10480000710551F0FB0101900020E9F73197AF01EC
:10481000461B570B0C94992308956115710579F087
:10482000FB0101900020E9F73197AF01461B570BC0
:10483000DC01ED91FC910280F381E02D099480E090
:1048400090E008954F925F926F927F92EF92FF9265
:104850000F931F93CF93DF93CDB7DEB7A1970FB61A
:10486000F894DEBF0FBECDBF7C01FA01CB0119A2C7
:10487000223008F42AE08E010F5D1F4F422E512C8A
:10488000612C712CBF01A30192010E94CB32F9016E
:10489000CA01015011096A3014F4605D01C0695CFD
:1048A000D8016C93232B242B252B61F7B801C7016A
:1048B0000E940D24A1960FB6F894DEBF0FBECDBFA7
:1048C000DF91CF911F910F91FF90EF907F906F90AC
:1048D0005F904F900895FC01918D828D981761F043
:1048E000828DDF01A80FB11D5D968C91928D9F5F27
:1048F0009F73928F90E008958FEF9FEF0895FC01D2
:10490000918D828D981731F0828DE80FF11D858D84
:1049100090E008958FEF9FEF0895FC01918D228D17
:10492000892F90E0805C9F4F821B91098F7399279C
:10493000089589E393E00E948D2421E0892B09F4F6
:1049400020E0822F0895FC01848DDF01A80FB11DA6
:10495000A35ABF4F2C91848D90E001968F739927B5
:10496000848FA689B7892C93A089B1898C918064A2
:104970008C93938D848D981306C00288F389E02D63
:1049800080818F7D80830895EF92FF920F931F9314
:10499000CF93DF93EC0181E0888F9B8D8C8D9813F2
:1049A00005C0E889F989808185FD24C0F62E0B8D2C
:1049B00010E00F5F1F4F0F731127E02E8C8DE81250
:1049C0000CC00FB607FCFACFE889F989808185FF12
:1049D000F5CFCE010E94A324F1CF8B8DFE01E80F0D
:1049E000F11DE35AFF4FF0820B8FEA89FB8980812A
:1049F000806207C0EE89FF896083E889F989808138
:104A00008064808381E090E0DF91CF911F910F91CE
:104A1000FF90EF900895CF93DF93EC01888D88236A
:104A2000C9F0EA89FB89808185FD05C0A889B9891B
:104A30008C9186FD0FC00FB607FCF5CF808185FFF6
:104A4000F2CFA889B9898C9185FFEDCFCE010E9464
:104A5000A324E7CFDF91CF91089580E090E0892BE8
:104A600029F00E94992481110C9400000895089562
:104A700008951092410680911C028336B8F540914A
:104A80003D0650913E0660913F067091400640936E
:104A9000540650935506609356067093570684301B
:104AA00081F058F4833011F540935006509351062D
:104AB000609352067093530619C08650833050F0AD
:104AC00015C040934C0650934D0660934E0670936C
:104AD0004F060CC080913C06882341F04093480665
:104AE0005093490660934A0670934B0610923B061A
:104AF00010923A0610923906109238061092370634
:104B0000109236061092350680E880934706F89496
:104B100080914606882379F0209115023091160283
:104B200091E080E0409144065091450642175307BA
:104B300021F090E002C090E080E0909342068093E4
:104B4000430610921602109215021092450610921A
:104B5000440678941092460683EB95E290931F04E6
:104B600080931E040895F894809115029091160286
:104B700020914406309145068217930711F47894EA
:104B800008958091150290911602821B930B029753
:104B900048F0789489E395E290931F0480931E0473
:104BA00087E625C0209117023091180280911902E2
:104BB00090911A02409115025091160250934506A9
:104BC000409344067894B9016453710941E06D3013
:104BD000710580F040E02A553109273B364250F0FC
:104BE00089E395E290931F0480931E0488E68093E6
:104BF0001C0208959C01245331092D30310530F0F9
:104C00008A559109873B964268F0EACF442361F0C8
:104C100080914206909143060196909343068093BB
:104C200042060895442391F0F894809119029091DE
:104C30001A02909318028093170281E080931B025E
:104C4000789410924306109242060895809142068D
:104C5000909143060A97ACF383E396E290931F0486
:104C600080931E040895F894809115029091160285
:104C700020914406309145068217930711F47894E9
:104C800008958091150290911602821B930B029752
:104C900048F0789489E395E290931F0480931E0472
:104CA00087E672C0409117025091180220911902B4
:104CB00030911A0280911502909116029093450648
:104CC000809344067894BA016453710991E06D3081
:104CD000710570F090E04A555109473B564240F04B
:104CE00089E395E290931F0480931E0488E64CC0EC
:104CF00081E0A901445351094D30510530F080E065
:104D00002A553109273B364258F79813E9CF80914D
:104D10004706882381F0992341F0E0913506F0E0C1
:104D2000EA5CF94F9081982B908390E09595879558
:104D30008093470608958091350621E0280F20933F
:104D4000350630E8309347069923A9F091E0909317
:104D500046068250843038F489E39DE090931F0426
:104D600080931E04089589E395E290931F04809335
:104D70001E0489E609C0263048F089E395E2909345
:104D80001F0480931E048AE680931C0208950E94EB
:104D9000E1371F920F920FB60F9211242F933F937A
:104DA0004F935F936F937F938F939F93AF93BF9333
:104DB000EF93FF9389E393E00E94A324FF91EF9187
:104DC000BF91AF919F918F917F916F915F914F9123
:104DD0003F912F910F900FBE0F901F9018951F922B
:104DE0000F920FB60F9211242F938F939F93EF93EF
:104DF000FF93E0914903F0914A038081E0914F03D2
:104E0000F091500382FD12C09081809152038F5F18
:104E10008F7320915303821751F0E0915203F0E019
:104E2000E75CFC4F958F8093520301C08081FF9116
:104E3000EF919F918F912F910F900FBE0F901F9028
:104E40001895833081F028F4813099F08230A1F0F8
:104E500008958730A9F08830B9F08430D1F480917A
:104E600080008F7D03C0809180008F7780938000C9
:104E7000089584B58F7702C084B58F7D84BD089571
:104E80008091B0008F7703C08091B0008F7D8093B8
:104E9000B00008951F93CF93DF93282F30E0F901DE
:104EA000E850F24F8491F901E45FF14FD491F90198
:104EB000E65DF14FC491CC23C9F0162F81110E94F9
:104EC0002127EC2FF0E0EE0FFF1FE05EF14FA591E0
:104ED000B4918FB7F894111105C09C91ED2FE09516
:104EE000E92302C0EC91ED2BEC938FBFDF91CF91C2
:104EF0001F910895CF93DF9390E0FC01E45FF14FA1
:104F00002491FC01E65DF14F8491882361F190E0EA
:104F1000880F991FFC01E25CF14FC591D491FC010F
:104F2000E05EF14FA591B491611109C09FB7F8946B
:104F30008881209582238883EC912E230BC06230D8
:104F400061F49FB7F8943881822F809583238883FA
:104F5000EC912E2B2C939FBF06C08FB7F894E8815D
:104F60002E2B28838FBFDF91CF9108958E3008F0CC
:104F70008E508770806480937C0080917A0080647A
:104F800080937A0080917A0086FDFCCF8091780032
:104F90002091790090E0922B08953FB7F89480918A
:104FA0005D0690915E06A0915F06B091600626B501
:104FB000A89B05C02F3F19F00196A11DB11D3FBF51
:104FC000BA2FA92F982F8827820F911DA11DB11DDF
:104FD000BC01CD0142E0660F771F881F991F4A95DB
:104FE000D1F708958F929F92AF92BF92CF92DF92A6
:104FF000EF92FF926B017C010E94CD274B015C0177
:10500000C114D104E104F104F1F00E94CD27DC01C8
:10501000CB0188199909AA09BB09883E9340A105CB
:10502000B10570F321E0C21AD108E108F10888EE59
:10503000880E83E0981EA11CB11CC114D104E104A8
:10504000F10419F7DDCFFF90EF90DF90CF90BF9084
:10505000AF909F908F9008952FB7F8946091590664
:1050600070915A0680915B0690915C062FBF08955F
:105070001F920F920FB60F9211242F933F938F938D
:105080009F93AF93BF938091590690915A06A09138
:105090005B06B0915C063091580623E0230F2D3754
:1050A00020F40196A11DB11D05C026E8230F02962C
:1050B000A11DB11D209358068093590690935A065E
:1050C000A0935B06B0935C0680915D0690915E06AE
:1050D000A0915F06B09160060196A11DB11D80935D
:1050E0005D0690935E06A0935F06B0936006BF9145
:1050F000AF919F918F913F912F910F900FBE0F9085
:105100001F9018951F920F920FB60F9211242F9394
:105110003F934F935F936F937F938F939F93AF933F
:10512000BF93EF93FF93E0910201F0910301099582
:10513000FF91EF91BF91AF919F918F917F916F916F
:105140005F914F913F912F910F900FBE0F901F9045
:1051500018951F920F920FB60F9211242F933F9321
:105160004F935F936F937F938F939F93AF93BF936F
:10517000EF93FF93E0910001F09101010995FF91F8
:10518000EF91BF91AF919F918F917F916F915F91BF
:105190004F913F912F910F900FBE0F901F90189538
:1051A000CF93DF93CDB7DEB72E970FB6F894DEBF5F
:1051B0000FBECDBF789484B5826084BD84B5816014
:1051C00084BD85B5826085BD85B5816085BD8091D2
:1051D0006E00816080936E0010928100809181004A
:1051E0008260809381008091810081608093810042
:1051F000809180008160809380008091B100846004
:105200008093B1008091B00081608093B000809164
:105210007A00846080937A0080917A008260809323
:105220007A0080917A00816080937A0080917A0080
:10523000806880937A001092C10010921A04109234
:105240001B0410921C0410921D041092D80310929B
:10525000D9031092DA031092DB0368EB7BE080E065
:1052600090E00E94F22789E393E0909319048093E1
:1052700018040E941E200E942C286093D80370936B
:10528000D9038093DA039093DB036DE871E080919A
:105290001804909119040E940D246AE070E080E0E7
:1052A00090E00E94F22711E01093EC030E941E2070
:1052B0008CE593E19093060280930502109304021B
:1052C00088EC90E0909308028093070289EC90E0CC
:1052D00090930A02809309028AEC90E090930C026A
:1052E00080930B028BEC90E090930E0280930D0262
:1052F0008CEC90E09093100280930F028DEC90E084
:1053000090931202809311028EEC90E0909314021D
:10531000809313028FEC90E0909316028093150215
:1053200080911D0290911E02A0911F02B091200257
:10533000892B8A2B8B2B91F510923B0510923C0503
:1053400010921B0210921A02109219021092180267
:105350001092170210921602109215020E94CD2789
:1053600060931D0270931E0280931F02909320028F
:1053700089E29EE090930101809300018091690091
:105380008C7F816080936900E89A89E395E290932D
:105390001F0480931E0482E080931C020E94D4228A
:1053A0000E94D42268EC70E080E090E00E94F22736
:1053B00010921905E0911A05F0911B0590818091DA
:1053C0002605892380830BE118E0F801659174912B
:1053D000F8013296459154916F3F710531F4BA014D
:1053E00080E090E00E94F22704C08FEF94E00E94DA
:1053F000D0100C5F1F4F28E0073E120731F7809155
:1054000014050E9401220FE311E02FEE30E040E08E
:1054100050E060E070E08FEF94E00E94661B83E054
:105420000E94012260E070E08FEF94E00E943A1148
:1054300061E08DE00E947A278FEF9FEF9093120535
:10544000809311059093100580930F0587EE98E0E7
:105450009093180580931705809191049091920480
:105460002EE130E030930C0520930B0590930E0550
:1054700080930D056FE971E08FEF94E00E940D2499
:105480006CE971E08FEF94E00E940D248091170584
:1054900090911805892B49F080910D0590910E058A
:1054A000069790930E0580930D05109218051092A3
:1054B000170568EE73E080E090E00E94F22760E05C
:1054C00070E08FEF94E00E943A1180E090E00E943B
:1054D0008E152091090530910A052052310940911D
:1054E0000705509108054C50510968E1E62E66EC1D
:1054F000F62E03E010E06AE170E086E090E00E94A2
:105500007B202091090530910A05265231094091EE
:1055100007055091080542515109E12CF12C6DE12C
:1055200070E089E090E00E947B200E942C28672B8D
:10553000682B692B41F40E942C286230710581058B
:10554000910508F40EC10E942C2860939702709375
:1055500098028093990290939A020091930210917D
:10556000940220919502309196026017710782078C
:10557000930740F460939302709394028093950292
:1055800090939602009193021091940220919502BB
:10559000309196026B017C01C01AD10AE20AF30A2B
:1055A000970186010A3F11052105310508F4D9C08C
:1055B0006093930270939402809395029093960265
:1055C00084EF91E0A0E0B0E08093E4039093E503E2
:1055D000A093E603B093E7031092E8031092E90367
:1055E0001092EA031092EB038091DC039091DD03AB
:1055F000A091DE03B091DF038093E0039093E10379
:10560000A093E203B093E3030E942C286093DC0391
:105610007093DD038093DE039093DF030E942C28B8
:105620006093D8037093D9038093DA039093DB03DC
:105630000E942C286B017C0168EB71E080911804BA
:10564000909119040E940D242AE041E050E060E0AE
:1056500070E080911804909119040E9422246FEB4D
:1056600071E080911804909119040E940D242AE0A1
:10567000B701A60180911804909119040E94222478
:1056800061EC71E080911804909119040E940D243E
:105690008091DC039091DD03A091DE03B091DF03E4
:1056A000B701A601481B590B6A0B7B0B2AE08091BE
:1056B0001804909119040E94222461EC71E08091F9
:1056C0001804909119040E940D244091DC0350911C
:1056D000DD036091DE037091DF038091E003909120
:1056E000E103A091E203B091E303481B590B6A0B5D
:1056F0007B0B2AE080911804909119040E942224C7
:1057000063EC71E080911804909119040E940D24BB
:105710000E942C28AB01BC012AE0809118049091D2
:1057200019040E942224009118041091190465ECB8
:1057300071E0C8010E940D246CE971E0C8010E946B
:105740000D2465E070E080E090E00E94F2270E9466
:105750002C286093DC037093DD038093DE03909329
:10576000DF0361E08DE00E944A276091300570E020
:10577000FB01E65DF14FE49080912D05A82FB0E08C
:10578000FD01E65DF14F049140912F0550E0FA01D3
:10579000E65DF14FB49020912E0530E0F901E65D11
:1057A000F14FC490FB01E45FF14F3490FD01E45FE1
:1057B000F14F7490FA01E45FF14FA490F901E45FB6
:1057C000F14F249060E00E947A2760E080912E05DE
:1057D0000E947A2710E0000F111F005E114FF801A0
:1057E000A591B4918C91D72CD094D9828D218C9392
:1057F000D12CF601EE0FFF1F9F01205E314F690192
:10580000F901A591B4919C91822D809589238C9367
:1058100061E0809130050E947A2761E080912F0538
:105820000E947A27F12CF701EE0FFF1FCF01805E57
:10583000914F7C01FC01A591B4918C9183298C93AB
:10584000EB2DF0E0EE0FFF1FE05EF14FA591B4915C
:10585000EC91A094EA21EC9380912D050E94B6274B
:105860004C0180912D050E94B6272C01AA24AA94F0
:1058700093E0B92EA418B50860E0809130050E942D
:105880007A2760E080912F050E947A27F701A59181
:10589000B4918C91309483218C9361E080912D059B
:1058A0000E947A27F801A591B491EC91E729EC9335
:1058B00061E080912E050E947A2780912F050E9439
:1058C000B6273C0180912F050E94B6279E878D87C1
:1058D0006816790629F4772473948414950409F0E2
:1058E000712C61E0809130050E947A27F701A59123
:1058F000B491EC913E223C92F601A591B491EC91C9
:105900002E2A2C92F801A591B4918C91C9808C21FA
:105910008C9360E080912D050E947A2780912F055D
:105920000E94B6278C0180912D050E94B627E09039
:105930003105F0903205E114F10409F440C0BC01D6
:10594000990F880B990B0E94AE311B012C01B801F5
:10595000110F880B990B0E94AE319B01AC01C20163
:10596000B1010E94173420E030E040E85FE30E947C
:1059700033331B012C01B5010B2C000C880B990B48
:105980000E94AE319B01AC01C201B1010E940D32F7
:105990001B012C01B70180E090E00E94AC319B011B
:1059A000AC01C201B1010E940D3220E030E040E8BC
:1059B0005AE30E940D320E9489348B0104C0081BF7
:1059C000190B01501C4F711002C000E010E060E0A4
:1059D0008DE00E944A2761E080E10E947A2761E021
:1059E00081E10E947A27B80163537109653B7340D6
:1059F00008F08CC165010B2C000CEE08FF08C9866D
:105A0000DA86EB86FC8625EAA216B1044CF4C701BF
:105A1000B6010E94AE3169837A838B839C8324C054
:105A200025E8A21623E0B206ACF069857A858B855D
:105A30009C850E94AE316D837E838F839887C12CB5
:105A4000D12CE5E2EE2EE3E4FE2EC982DA82EB826F
:105A5000FC8214C0C12CD12C75E2E72E73E4F72E22
:105A6000C982DA82EB82FC82C12CD12C61E6E62E5F
:105A700064E4F62ECD82DE82EF82F8868FEF93E02B
:105A8000ED84FE848E199F092C01092E000C6608F6
:105A90007708803A91053CF4C301B2010E94AE310F
:105AA0006B017C0116C08F3893406CF0C301B201CA
:105AB0000E94AE314B015C01C12CD12C50E2E52E8D
:105AC00053E4F52E0DC0C12CD12C40E2E42E43E46A
:105AD000F42E812C30E8932E33E6A32E34E4B32E3B
