:100000000C9400070C948B1E0C94641E0C949B1192
:100010000C949B110C949B110C9428070C942807AA
:100020000C9428070C9428070C9428070C94280794
:100030000C9428070C9428070C9428070C94280784
:100040000C941A1E0C9428070C94B61B0C94901B4D
:100050000C9428070C9428070C9428070C94280764
:100060000C94A5110C94280700000000003E5B4F83
:100070005B3E3E6B4F6B3E1C3E7C3E1C183C7E3C08
:10008000181C577D571C1C5E7F5E1C00183C180016
:10009000FFE7C3E7FF0018241800FFE7DBE7FF30A6
:1000A000483A060E2629792926407F050507407F14
:1000B00005253F5A3CE73C5A7F3E1C1C08081C1C87
:1000C0003E7F14227F22145F5F005F5F06097F017D
:1000D0007F006689956A606060606094A2FFA29468
:1000E00008047E040810207E201008082A1C080836
:1000F0001C2A08081E101010100C1E0C1E0C303884
:100100003E3830060E3E0E06000000000000005F84
:1001100000000007000700147F147F14242A7F2AA0
:100120001223130864623649562050000807030062
:10013000001C2241000041221C002A1C7F1C2A08AE
:10014000083E080800807030000808080808000011
:1001500060600020100804023E5149453E00427F85
:10016000400072494949462141494D331814127FD4
:100170001027454545393C4A494931412111090774
:100180003649494936464949291E000014000000F5
:1001900040340000000814224114141414140041C7
:1001A00022140802015909063E415D594E7C121184
:1001B000127C7F494949363E414141227F414141BC
:1001C0003E7F494949417F090909013E4141517337
:1001D0007F0808087F00417F41002040413F017FA8
:1001E000081422417F404040407F021C027F7F0470
:1001F00008107F3E4141413E7F090909063E4151B9
:10020000215E7F09192946264949493203017F01A8
:10021000033F4040403F1F2040201F3F4038403FA9
:10022000631408146303047804036159494D4300BF
:100230007F4141410204081020004141417F0402F6
:10024000010204404040404000030708002054548D
:1002500078407F284444383844444428384444286B
:100260007F385454541800087E090218A4A49C78BE
:100270007F0804047800447D40002040403D007F1A
:100280001028440000417F40007C047804787C08FA
:100290000404783844444438FC18242418182424CE
:1002A00018FC7C08040408485454542404043F44B3
:1002B000243C4040207C1C2040201C3C4030403CE2
:1002C00044281028444C9090907C4464544C440042
:1002D00008364100000077000000413608000201A6
:1002E0000204023C2623263C1EA1A161123A404092
:1002F000207A38545455592155557941225454780F
:1003000042215554784020545579400C1E527212A7
:100310003955555559395454545939555454580030
:1003200000457C410002457D420001457C407D1234
:1003300011127DF0282528F07C5455450020545496
:100340007C547C0A097F4932494949323A44444441
:100350003A324A4848303A4141217A3A424020787C
:10036000009DA0A07D3D4242423D3D4040403D3C7D
:1003700024FF2424487E4943662B2FFC2F2BFF09A2
:1003800029F620C0887E0903205454794100004496
:100390007D413048484A32384040227A007A0A0A81
:1003A000727D0D19317D2629292F282629292926F4
:1003B00030484D4020380808080808080808382F39
:1003C00010C8ACBA2F102834FA00007B00000814C3
:1003D0002A142222142A14085500550055AA55AA99
:1003E00055AAFF55FF55FF000000FF00101010FF39
:1003F00000141414FF001010FF00FF1010F010F094
:10040000141414FC001414F700FF0000FF00FF1484
:1004100014F404FC141417101F10101F101F1414D0
:10042000141F00101010F0000000001F101010101A
:100430001F10101010F010000000FF10101010100E
:1004400010101010FF10000000FF140000FF00FF4C
:1004500000001F10170000FC04F4141417101714E8
:1004600014F404F40000FF00F7141414141414140A
:10047000F700F7141414171410101F101F1414147D
:10048000F4141010F010F000001F101F0000001FE7
:1004900014000000FC140000F010F01010FF10FF1A
:1004A000141414FF141010101F00000000F010FFAF
:1004B000FFFFFFFFF0F0F0F0F0FFFFFF0000000093
:1004C00000FFFF0F0F0F0F0F3844443844FC4A4A17
:1004D0004A347E02020606027E027E0263554941CC
:1004E000633844443C04407E201E2006027E020203
:1004F00099A5E7A5991C2A492A1C4C7201724C3017
:100500004A4D4D303048784830BC625A463D3E49ED
:100510004949007E0101017E2A2A2A2A2A44445F91
:10052000444440514A444040444A51400000FF0185
:1005300003E080FF000008086B6B08361236243693
:10054000060F090F060000181800000010100030F8
:1005500040FF0101001F01011E00191D1712003C80
:100560003C3C3C00000000000000000005000100D1
:1005700000030D0602F4050007050901F40A000A4C
:100580000C0A00F51900090F0A01F32A00100D10DA
:1005900000F444000C0D0D01F4580003050501F4AE
:1005A0005A0006110601F4670006110600F47400F3
:1005B00005060701F4780007080B02F97F00030520
:1005C0000401FF810005020600FB83000302040111
:1005D000FF8400050D0500F48D00090D0A01F49C4F
:1005E00000050D0A02F4A500090D0A01F4B4000883
:1005F0000D0A01F4C100080D0A02F4CE00090D0A2B
:1006000001F4DD00090D0A01F4EC00090D0A00F403
:10061000FB000A0D0A00F40C01090D0A01F41B018C
:1006200003090401F81F01030C0401F8240109095E
:100630000B01F82F0109060B01FA360109090B011C
:10064000F84101090D0B01F45001100F1200F46E76
:10065000010C0D0D00F482010B0D0D01F494010C41
:100660000D0D01F4A8010C0D0D01F4BC01090D0CD8
:1006700001F4CB01090D0B01F4DA010B0D0E01F4AD
:10068000EC010B0D0D01F4FE01030D0601F4030254
:10069000080D0A01F410020C0D0D01F42402080DDE
:1006A0000B01F431020E0D1001F448020B0D0E0186
:1006B000F45A020D0D0E01F470020B0D0C01F482C0
:1006C000020D0E0E01F499020C0D0D01F4AD020B9A
:1006D0000D0C01F4BF02090D0C02F4CE020B0D0D3E
:1006E00001F4E0020C0D0C00F4F402110D1100F401
:1006F00010030C0D0C00F424030B0D0C01F4360355
:10070000090D0B01F4450304110601F44E03050D18
:100710000500F4570304110600F4600308080B01F8
:10072000F468030A010A00046A0303020500F46B7B
:10073000030A0A0A01F778030A0D0B01F489030979
:100740000A0A01F79503090D0B01F4A403090A0A2B
:1007500001F7B003050D0601F4B903090E0B01F70B
:10076000C903090D0B01F4D803030D0501F4DD03E2
:1007700004110500F4E603090D0A01F4F503030D65
:100780000501F4FA030E0A1001F70C04090A0B0123
:10079000F718040A0A0B01F725040A0E0B01F737B4
:1007A00004090E0B01F74704060A0701F74F040975
:1007B0000A0A01F75B04050C0601F56304090A0B3C
:1007C00001F76F040A0A0A00F77C040E0A0E00F70C
:1007D0008E040A0A0A00F79B040A0E0A00F7AD0409
:1007E000080A0901F7B70404110701F4C004011154
:1007F0000502F4C30404110702F4CC040802090042
:10080000FCFFFFFE487EEFDFBF7440198667FDFFE7
:10081000330CC333FEFF99866190101F1FDEFF3F2C
:1008200083C0FC1F09FCFEF7F1E04038107C30C6A5
:1008300020C640C6407C80399C013E0363026304AD
:10084000630C3E081C0E01F83B83B83F01E03E6795
:1008500076E3EE1CF3C7FE3F70FFF418631C738E43
:1008600038E38E1870C3060861830E3871C71C7197
:10087000C638E31840213E45283870E7FFE70E1CD4
:10088000FC9CFFC0FC08C4231084621188003E3F1A
:100890009DDC7E3F1F8FC7E3F1DDCFE3E008FFF370
:1008A0009CE739CE73803E3FB8FC70381C1C1C1C82
:1008B0001C1C0FF7F83C7FE7E7070C0E0707E7E77C
:1008C0007E3C0E1E1E2E2E4E4E8EFFFF0E0E0E7FF7
:1008D0003F90180DE7FB9E070381F1FFE7C03E3F05
:1008E0009CFC0EE7FBDFC7E3F1DDEFE3E0FFFFC0B9
:1008F000E0E0607030381C0C0E0703803F1FEE3FB5
:1009000087E3CFC7FBCFE1F87F3DFE3F003E3FBD11
:10091000DC7E3F1FDEFF3B81F9CFE3C0FC0007E038
:10092000FC0007E5E00083C7DF0C0780F81F0180AB
:10093000FFFFC0000FFFFC00703F03E0387DF1E0D7
:1009400080003E3FB8FC70381C1C1C1C0E0003814C
:10095000C003F00FFC1E0E380270E96319C219C6FD
:1009600011C633C63263FE73DC3C001FF807F00784
:1009700000F00F80F81D819C19C38C3FE7FE706664
:1009800007E070FF9FFB83F07E0FFF3FF706E0FC60
:100990001F83FFEFF81F83FE78E707E00E00E00EED
:1009A00000E0070778F3FE1F80FF8FFCE0EE0EE00B
:1009B0007E07E07E07E07E0EE0EFFCFF80FFFFF8A1
:1009C0001C0E07FBFDC0E070381FFFF8FFFFF81C8E
:1009D0000E07FBFDC0E070381C0E000F87F9E3B86E
:1009E0003E01C038FF1FE06E0DE39FD0F2E0FC1F18
:1009F00083F07E0FFFFFFF07E0FC1F83F07E0EFFFA
:100A0000FFFFFFFE0707070707070707E7E7E77E80
:100A10003CE0EE1CE38E70EE0FC0FE0F70E70E3868
:100A2000E1CE0EE0E0E0E0E0E0E0E0E0E0E0E0E0A9
:100A3000FFFFF87FE1FF87FE1FEC7FB37ECDFB3722
:100A4000ECDF9E7E79F9E7E79CE0FE1FC3FC7FCFD9
:100A5000D9FBBF37E7FC7F87F0FE0E0F81FF1E3CFE
:100A6000E0EE03F01F80FC07E03B839E3C7FC0F874
:100A700000FF9FFB87F07E0FC3FFF7FCE01C0380A5
:100A8000700E000F81FF1E3CE0EE03F01F80FC079C
:100A9000E1BB8F9E3C7FE0FB8008FF8FFCE0EE0E09
:100AA000E0EE0EFFCFFCE0EE0EE0EE0EE0F03F0FCA
:100AB000FBC7F07E01FC1FF03F00FC1DC7BFE1F843
:100AC000FFFFC70381C0E070381C0E070381C0E040
:100AD000FC1F83F07E0FC1F83F07E0FC1FC7BFE19A
:100AE000F060670E70E30C30C39C1981981F80F092
:100AF0000F00F0060061C3B8E19C70CE3CE3367194
:100B00009B30ED98367C1B3C0F1E078F01C380E1A4
:100B10008070E78E39C1F81F80F00700F01F819CBC
:100B200039C70E70E0E0FC39C718C3B83607C0708B
:100B30000E01C0380700E0FFFFC0E0E0F070707009
:100B40007838381FFFF8FFEEEEEEEEEEEEEFF086AF
:100B50001086108430843080FF7777777777777FBF
:100B6000F0181C3C3E366663C3FFC0CC3F1FEE3816
:100B70000E3F9EEE3B9EFF9EE0E0380E03BCFFBCA6
:100B8000EE1F87E1F87F3BFEEF001F3FDC7C0E0786
:100B90000380E37F8F000381C0E777FBBF8FC7E34C
:100BA000F1FDEFF3B83E3F9CDC3FFFFF81C37F8F39
:100BB000003BDDFFB9CE739CE7003BBFDDFC7E3F11
:100BC0001F8FEF7F9DC0FC77F1F0E070381DEFFFC5
:100BD0009F8FC7E3F1F8FC7E38FC7FFFFFFE7707AD
:100BE00077777777777FE0E070381C7E7773F1F85E
:100BF000FE7739DC6E38FFFFFFFFFEEF7BFFFE392B
:100C0000F8E7E39F8E7E39F8E7E39F8E70EF7FF879
:100C1000FC7E3F1F8FC7E3F1C01E1FE73B87E1F853
:100C20007E1DCE7F8780EF3FEF3B87E1F87E1FCEB2
:100C3000FFBBCE0380E038003BBFFDFC7E3F1F8F33
:100C4000EF7F9DC0E070381CEFFF38E38E38E38003
:100C50003E3FB8FC0FC3FC3FC7FF1F0073BFF7390F
:100C6000CE739E70E3F1F8FC7E3F1F8FC7FFBDC0BF
:100C7000E1986739CC330DC3E0781E0700E31D9E71
:100C8000667999E677B8D2C3CF0F3C3CF073807396
:100C90009CE3F0781E0781E0FC739CE0E1D86739A3
:100CA000CE330EC3E0781E0300C070380E00FEFE87
:100CB0000E1C383870E0FFFF3766666EE6666667C2
:100CC00030FFFF80CE6666677666666EC0718E0006
:100CD000000100FF003200010000010200000703D4
:100CE0000030100400000008000202090000000AA1
:100CF0000000000C0000000D0000000F00000010BC
:100D0000000000110007001200000013000000FFA7
:100D100000C8001000901611002702FF00320012D8
:100D2000001A00FF0032001300001829002A00FFFB
:100D300000320030000000310000003200000035B9
:100D400000060236000808370007003800010239A3
:100D50000000003C0000003D0000002000000021D9
:100D6000000000500000005100EF0052000000534E
:100D7000003F01600000A7610003006A00000090CE
:100D800000100092000000930003009500001197EE
:100D900000000098000000070033010108680520EA
:100DA0007E1600000000240027002A00000000003A
:100DB00023002600290000000008000201000003B3
:100DC00004070000000000000000010204081020D9
:100DD00040800102040810200102040810200000D5
:100DE0000000250028002B0004040404040404046B
:100DF000020202020202030303030303562DD3245B
:100E000011241FBECFEFD8E0DEBFCDBF26E0A8E89B
:100E1000B2E001C01D92AB3DB207E1F712E0A0E0E5
:100E2000B1E0ECE4FBE602C005900D92A838B107F2
:100E3000D9F716E0CFEFD6E004C02197FE010E945B
:100E40007E33CE3FD107C9F70E94E2240C94993536
:100E50000C9400000895FC016370658B848195817A
:100E600026813781613039F0633029F0918780879E
:100E70003387228708953187208793878287089553
:100E80002F923F924F925F926F927F928F929F929A
:100E9000AF92BF92CF92DF92EF92FF920F931F9388
:100EA000CF93DF93CDB7DEB76C970FB6F894DEBF64
:100EB0000FBECDBF9C8F8B8F1B012A0118870F831C
:100EC000FE82ED82CA82DC0158964D915C91599761
:100ED0004115510509F0B2C018968D919C91199752
:100EE000681779070CF096C11A968D919C911B9703
:100EF000481659060CF08EC1AC2CB12CCB01B6E0D3
:100F0000CB9E800D911D1124181619060CF082C17C
:100F1000C50133E0880F991F3A95E1F7840D951DBF
:100F2000181619060CF076C1AB8DBC8D57968C91B6
:100F3000811103C0203B08F02F5FAB8DBC8DED917C
:100F4000FC9111970680F781E02DCD012A8F09953C
:100F50002A8DB5E02B9F90011124610141011B8274
:100F6000F901E219F309FA87E9879201285F3F4FF7
:100F70003C872B873B81353049F0E985FA85E80DC0
:100F8000F91DE859FF4F4491498301C0198232018C
:100F90001201598150FF13C0AB8DBC8DED91FC91B6
:100FA000BA81B13031F40084F185E02D2F8138858C
:100FB00019C00284F385E02DEF80F8841EC0ED8116
:100FC000FE812F813885E217F307F1F0AB8DBC8DE0
:100FD000ED91FC91BA81B13059F40084F185E02D96
:100FE0002D813E81A301B4018B8D9C8D09950CC090
:100FF0000284F385E02DED80FE8085019501A1013D
:10100000B6018B8D9C8D0995E981E695E983FFEF0B
:101010006F1A7F0A2A0C3B1C2B853C8562167306CF
:1010200009F0B7CF3B813F5F3B834FEF841A940AAF
:10103000CA0CDB1C363009F09DCFCAC0FA013496C9
:101040009491329765917491291BCB01B7E02B9F46
:10105000800D911D1124FA01259134913A8B298B31
:10106000FC0165907490FC01329634913D83319679
:1010700044914B873296C490319614915A815230E4
:1010800058F08C2C0C2C000C9908812F012E000C90
:10109000990B9C838B8304C01C821B82812C912C16
:1010A000AB8DBC8DED91FC9111970680F781E02D01
:1010B000CD010995BA81AB2EB12C8A9CC0018B9CC5
:1010C000900D9A9C900D1124FC01E20DF31DF88BFC
:1010D000EF871982912C812CEC2DCC0CFF0B910108
:1010E0002E0F3F1F3A87298761013D81C30ED11C16
:1010F000A6014E0F5F1F5F8B4E8BC201810F911DAA
:1011000017FD9A95998F888F5B85851608F060C0CA
:10111000882D90E04B815C81480F591F4A9D9001BA
:101120004B9D300D5A9D300D1124D901A40DB51DD4
:10113000BE87AD87C984DA842F843888B981E98570
:10114000BE1BBB8B288D398D280F391F3D8B2C8BF7
:101150008B898C0D2E893F89C216D30699F1877031
:1011600041F4C3010196E989FA89E60DF71D9490CF
:101170003C0197FE20C0AB8DBC8DED91FC91BA81F6
:10118000B13061F40084F185E02D2F8138854C89E0
:101190005D89B6018B8D9C8D09950DC00284F38508
:1011A000E02DEF80F884850195014D855E85B101C4
:1011B0008B8D9C8D0995990CEFEFCE1ADE0A2A0CC7
:1011C0003B1CC6CF39814D81340F398383949CCF2A
:1011D000AB8DBC8DED91FC9111970288F389E02DC8
:1011E000CD016C960FB6F894DEBF0FBECDBFDF9178
:1011F000CF911F910F91FF90EF90DF90CF90BF9014
:10120000AF909F908F907F906F905F904F903F90A6
:101210002F9009946C960FB6F894DEBF0FBECDBF29
:10122000DF91CF911F910F91FF90EF90DF90CF90C2
:10123000BF90AF909F908F907F906F905F904F90F6
:101240003F902F900895AF92BF92CF92EF92FF926E
:101250000F931F93CF93DF93EC01262F888D998DE9
:10126000009709F042C06A3069F42C898E859F8509
:1012700038E0239F800D911D11249F878E871D8646
:101280001C86ACC06D3009F4A9C08E898823C1F0DA
:101290003C898C859D8546E0349F800D911D1124ED
:1012A00048855985841795075CF01D861C868E85B8
:1012B0009F85E8E03E9F800D911D11249F878E87BA
:1012C000EA88FB88088919894E855F856C857D854C
:1012D000CC88CE010E9440072C898C859D85F6E044
:1012E0002F9F800D911D112441C06A3079F41D8615
:1012F0001C862C89FC013696E4918E859F852E9F55
:10130000800D911D11249F878E8768C06D3009F470
:1013100065C0AC014C5F5F4FFA013491631708F46C
:101320005DC03196E491E61708F458C0FA01449183
:10133000362F341BFC013296A590B490F7E03F9F06
:10134000A00CB11C1124F501329634913196E49130
:10135000332311F0E1110DC0F5013496E4912C898D
:101360008C859D85E29F800D911D11249D878C8722
:1013700035C0F501359644915E89552311F16C898C
:10138000E32FF0E0E40FF11D47FDFA956E9FD001C9
:101390006F9FB00D11244C855D854A0F5B1FE8855A
:1013A000F9854E175F076CF01D861C86FC0136968A
:1013B000E4918E859F856E9F800D911D11249F87DE
:1013C0008E87EA88FB88088919894E855F856C8538
:1013D0007D85CC88CE010E944007BECF81E090E0A1
:1013E000DF91CF911F910F91FF90EF90CF90BF9021
:1013F000AF9008956F927F928F929F92AF92BF921B
:10140000CF92DF92EF92FF920F931F93CF93DF93D0
:10141000EC014B015A0169013801E881F98106802C
:10142000F781E02D0995E881F9810684F785E02DA3
:1014300087019601A501B401CE010995E881F981E2
:10144000A501460D571D415051090684F785E02D31
:101450009601B401CE010995E881F9810484F585EE
:10146000E02D9301A501B401CE010995E881F98130
:10147000C80CD91CB601615071090484F585E02DB2
:101480009301A501CE010995E881F9810288F389CC
:10149000E02DCE01DF91CF911F910F91FF90EF9042
:1014A000DF90CF90BF90AF909F908F907F906F9084
:1014B0000994CF92DF92EF92FF920F931F93CF93F5
:1014C000DF9300D000D000D0CDB7DEB76C01DC01D7
:1014D000ED91FC916217730789F4041715072CF43A
:1014E000942F852FA801092F182F041B150B980185
:1014F0002F5F3F4F008CF18DE02D12C04017510738
:1015000009F5261737072CF4962F872FB901292FB5
:10151000382F261B370B2F5F3F4F028CF38DE02DAA
:101520008701C601099526960FB6F894DEBF0FBE57
:10153000CDBFDF91CF911F910F91FF90EF90DF9082
:10154000CF9008950680F781E02D2D833E834B8355
:101550005C8369837A830995D601ED91FC910088BB
:10156000F189E02D2D813E814B815C8169817A81F9
:10157000C6010995D601ED91FC910288F389E02D11
:10158000C60126960FB6F894DEBF0FBECDBFDF9121
:10159000CF911F910F91FF90EF90DF90CF90099422
:1015A000EF92FF920F931F93DC01ED91FC91119745
:1015B0001A960D911C911B9718962D913C91199795
:1015C000048CF58DE02D7B0140E050E060E070E0A0
:1015D00009951F910F91FF90EF9008954F925F92A0
:1015E0006F927F928F929F92AF92BF92CF92DF9233
:1015F000EF92FF920F931F93CF93DF9300D0CDB75D
:10160000DEB76C015A0139014801DC01ED91FC9112
:101610000680F781E02D69837A8309956981462EDA
:101620007A81572E640C751CD601ED91FC914614FD
:1016300057046CF40484F585E02D87019401A5011D
:10164000B201C6010995BFEF4B1A5B0AEDCF0288C4
:10165000F389E02DC6010F900F90DF91CF911F917C
:101660000F91FF90EF90DF90CF90BF90AF909F9041
:101670008F907F906F905F904F900994AF92BF9240
:10168000CF92DF92EF92FF920F931F93CF93DF934E
:1016900000D000D0CDB7DEB75C016901DC01ED916F
:1016A000FC910680F781E02D4B835C8369837A830C
:1016B0000995D501ED91FC9169817A819B012C0DF1
:1016C0003D1D215031090088F189E02D78014B81C1
:1016D0005C818A01C5010995D501ED91FC910288D3
:1016E000F389E02DC5010F900F900F900F90DF91BF
:1016F000CF911F910F91FF90EF90DF90CF90BF900F
:10170000AF900994AF92BF92CF92DF92EF92FF9287
:101710000F931F93CF93DF9300D000D0CDB7DEB7E8
:101720005C016901DC01ED91FC910680F781E02DFF
:101730004B835C8369837A830995D501ED91FC9194
:101740004B815C81C40ED51EB1E0CB1AD108008854
:10175000F189E02D7801860169817A819B01C501BB
:101760000995D501ED91FC910288F389E02DC50121
:101770000F900F900F900F90DF91CF911F910F91CD
:10178000FF90EF90DF90CF90BF90AF9009940895B5
:10179000EF92FF920F931F93DC01ED91FC91048C6B
:1017A000F58DE02D09951F910F91FF90EF90089511
:1017B0000F931F93DC01ED91FC91028CF38DE02DD2
:1017C00009951F910F9108950F931F93DC01ED91DF
:1017D000FC91008CF18DE02D09951F910F910895DA
:1017E000DC01ED91FC910480F581E02D09940895D0
:1017F0002F923F924F925F926F927F928F929F9221
:10180000AF92BF92CF92DF92EF92FF920F931F930E
:10181000CF93DF9300D01F92CDB7DEB74C017B830F
:101820006A836A01590117019801241B350B37FFA0
:1018300003C0319521953109C5014A815B81841B23
:10184000950B97FF03C091958195910951E05983BC
:101850008217930714F019820BC09A2D8B2D580113
:10186000092F182F9A818B81DB82CA82C92ED82E2C
:101870008A819B81A816B9065CF49C2D8D2D680188
:10188000092F182F9A818B81BB82AA82A92EB82E8C
:101890002501AA81BB814A1A5B0A38016C187D08B0
:1018A00077FE03C0719461947108720157FE03C002
:1018B000BFEFEB1AFB0AF594E794C016D1061CF0B3
:1018C0000FEF1FEF1FC001E010E01CC0D401ED912D
:1018D000FC91B9810084F185E02D9101BB23C1F019
:1018E0004A815B81B601C4010995E618F708F7FE45
:1018F00004C0C00ED11EE40CF51CEA81FB813196B8
:10190000FB83EA834A815B81A416B506FCF604C01A
:10191000A6016A817B81E7CF0F900F900F90DF9136
:10192000CF911F910F91FF90EF90DF90CF90BF90DC
:10193000AF909F908F907F906F905F904F903F906F
:101940002F900895CF93DF93EC0120E030E0A901C0
:101950006F85788989899A890E940F3318161CF43B
:10196000EBA1FCA102C0EDA1FEA1DF91CF910994F2
:10197000DC0112962C91213069F028F0223089F098
:101980002430B1F00895DC01ED91FC910280F381E7
:10199000E02D0994DC01ED91FC910480F581E02DAE
:1019A0000DC0DC01ED91FC910680F781E02D06C0B1
:1019B000DC01ED91FC910084F185E02D099485ED29
:1019C0008093BC008091BC0084FDFCCF1092FF028C
:1019D00008954091B202262F30E0240F311D2132AC
:1019E0003105DCF42091FF022430C9F4FC0180E0D1
:1019F00090E0861758F43091B2022191DC01A05793
:101A0000BD4FA30FB11D2C930196F3CF8091B2026D
:101A1000680F6093B20280E0089581E0089582E04B
:101A2000089508958FEF9FEF08958FEF9FEF08952A
:101A300080918F0290E09195819591090895CF92C0
:101A4000DF92EF92FF920F931F93CF93DF937C016E
:101A5000262F972F8A0180910003882391F0C62FAB
:101A6000D72F6E01C40ED51ECC15DD0571F069911E
:101A7000D701ED91FC910190F081E02DC70109950E
:101A8000F3CF642F822F0E94E90CC801DF91CF9120
:101A90001F910F91FF90EF90DF90CF900895CF931B
:101AA000DF931F92CDB7DEB7698320910003222315
:101AB000D1F020912303203240F021E030E0FC01FE
:101AC0003383228380E090E015C080910103E82FEA
:101AD000F0E0EE5FFC4F998190838F5F809301036C
:101AE0008093230305C061E0CE0101960E94E90CBA
:101AF00081E090E00F90DF91CF910895CF93DF9335
:101B0000EC01613089F050F06230E1F0633061F552
:101B100061E08B810E94111C60E019C061E08B8143
:101B20000E94111C60E005C060E08B810E94111CC6
:101B300061E08C810E94111C61E08D810E94111C6A
:101B400060E00DC060E08B810E94111C61E08C811F
:101B50000E94111C60E08D810E94111C61E08E8149
:101B6000DF91CF910C94111CDF91CF910895CF9309
:101B7000DF93EC01613049F030F0623061F06330A6
:101B8000A1F460E009C060E001C061E08B810E94C7
:101B9000111C61E005C061E08B810E94111C60E0B6
:101BA0008C81DF91CF910C94111CDF91CF9108951E
:101BB0001F93CF93DF93EC0111E020E030E0A90107
:101BC0006F85788989899A890E940F3318160CF0DD
:101BD00010E0612F8C810E94111C61E08B810E94BA
:101BE000111C60E08B81DF91CF911F910C94111C2F
:101BF0008F929F92AF92BF92CF92DF92EF92FF921D
:101C00000F931F93CF93DF93EC018B859C85AD855C
:101C1000BE850F81188529853A85BC01CD01601BE1
:101C2000710B820B930B09F4D0C08AF00E947530BF
:101C30009B01AC010E94FB312F89388D498D5A8D53
:101C40000E94D4300E941A336B017C011BC0909516
:101C50008095709561957F4F8F4F9F4F0E94753093
:101C60009B01AC010E94FB312F89388D498D5A8D23
:101C70000E94D4300E941A336B017C01F7FAF09471
:101C8000F7F8F0948F849888A988BA88A501940100
:101C9000C701B6010E940F3318160CF043C020E0B4
:101CA00030E0A901C501B4010E946E3081110BC062
:101CB0006F89788D898D9A8D9B01AC010E94FB31D3
:101CC0000E941A331BC0A50194016F89788D898DFC
:101CD0009A8D0E9467326B017C0120E030E0A901FF
:101CE0000E940F33181624F0F7FAF094F7F8F094E6
:101CF000A7019601C501B4010E94FB317B018C0153
:101D0000BB88CC88DD88CE892B2D3C2D4D2D5C2FBA
:101D10000E940F3318160CF05DC03B2D7C2D8D2DCD
:101D20009C2F5FC0A5019401C701B6010E946E30CF
:101D300087FF54C020E030E0A901C501B4010E9432
:101D40006E30811111C06F89788D898D9A8D9B01BC
:101D5000AC010E94FB310E941A336B017C01F7FA3F
:101D6000F094F7F8F0941DC0A50194016F89788D67
:101D7000898D9A8D0E9467326B017C0120E030E0F2
:101D8000A9010E940F33181624F0F7FAF094F7F81F
:101D9000F094A7019601C501B4010E94FA316B01CC
:101DA0007C018B889C88AD88BE88B7FAB094B7F860
:101DB000B094A5019401C701B6010E946E3087FF5F
:101DC0000DC0382D792DC5010CC030E070E080E0E9
:101DD00090E007C03E2D7F2DC80103C03C2D7D2D16
:101DE000C701C32ED72E7C01C701B601DF91CF9169
:101DF0001F910F91FF90EF90DF90CF90BF90AF9029
:101E00009F908F90089561E08091F5049091F60481
:101E10000C94DD1F62E08091F5049091F6040C941F
:101E2000DD1F2F923F924F925F926F927F928F921F
:101E30009F92AF92BF92CF92DF92EF92FF920F9359
:101E40001F93CF93DF93880F991F880F991F0397D4
:101E5000242F267030E0359527954C01820E931E75
:101E60004170342E07E213E0C0E0D0E02224239436
:101E70006AE0A62EB12CF801819191918F0188160C
:101E8000990609F0D5C030928E02D0938D02C0938E
:101E90008C0220928B024091D9045091DA04609117
:101EA000DB047091DC048091D5049091D604A0915C
:101EB000D704B091D804481759076A077B0709F47B
:101EC00093C00E941F1D6B017C014091E904509159
:101ED000EA046091EB047091EC048091ED04909120
:101EE000EE04A091EF04B091F004840F951FA61F9B
:101EF000B71F8C159D05AE05BF0508F075C0409055
:101F0000DD045090DE046090DF047090E00420E077
:101F100030E0A901C301B2010E940F33181664F426
:101F20008091D5049091D604A091D704B091D804A3
:101F30000196A11DB11D14C020E030E0A901C3012C
:101F4000B2010E946E3087FF13C08091D50490913A
:101F5000D604A091D704B091D8040197A109B10982
:101F60008093D5049093D604A093D704B093D8045B
:101F70006091D50463708EEC94E00E94B80CC0921E
:101F8000ED04D092EE04E092EF04F092F0048EECB7
:101F900094E00E94F80D9B01AC016093DD04709306
:101FA000DE048093DF049093E00460E070E08AE751
:101FB00094E40E9467326B017C0120E030E0A901CB
:101FC0000E940F3318161CF4C701B60103C0C701E5
:101FD000B60190580E94E0326093E9047093EA04DD
:101FE0008093EB049093EC0480918B02882399F00A
:101FF000209288028091890290918A0297FF09C0FD
:102000000A9790938A0280938902B0920101A0926C
:10201000000110928B028091890290918A0297FFB1
:1020200003C01092020104C0892B11F0209202011A
:102030002196C730D10509F01ECFDF91CF911F91B6
:102040000F91FF90EF90DF90CF90BF90AF909F9057
:102050008F907F906F905F904F903F902F9008955A
:102060008F929F92AF92BF92CF92DF92EF92FF92A8
:102070000F931F93CF93DF93EC017A016901EB8DEE
:10208000FC8D30812FA1232320832A8D21115EC056
:102090002D89223089F0233021F1213081F52FEE76
:1020A00030E0A901401B510B5B0149018E189F08CC
:1020B000860164017B0113C02FEE30E0A9014C19A9
:1020C0005D096901C61AD70A8FE391E09C01201BC4
:1020D000310B8C010E191F09580146017901BA0113
:1020E00010C02FE331E0A9014C195D095901A61A6E
:1020F000B70A470168018501B7017A0102C05A0198
:102100004B01AB0160E570E0CE010E949B16A60179
:1021100061E570E0CE010E949B16A70162E570E0C8
:10212000CE010E949B16A80163E570E0CE010E94DB
:102130009B16A40160E270E0CE010E949B16A501EF
:1021400061E270E0CE010E949B1647C02130C1F4CD
:102150009B0143E062E00E94621F970147E066E056
:10216000CE010E94621F960145E064E0CE010E940C
:10217000621F980149E068E0CE010E94621F2DC0F5
:102180002250223050F5CB01770FAA0BBB0BDC019C
:1021900099278827A601DD0C660B770B9A01AB0106
:1021A000282B392B4A2B5B2B6AE2CE010E94B21EF0
:1021B000C701FF0CAA0BBB0BDC0199278827A801DC
:1021C000110F660B770B9A01AB01282B392B4A2B89
:1021D0005B2B6BE2CE010E94B21EEB8DFC8D9081D9
:1021E0008BA1892B8083DF91CF911F910F91FF905D
:1021F000EF90DF90CF90BF90AF909F908F90089519
:10220000FF920F931F93CF93DF9300D0CDB7DEB72C
:10221000152FF32EFC01008181E0809300030093D1
:1022200022031092010310922303F4E06F9FB00188
:1022300011246A5F7F4F82EC94E02A8349830E94D5
:102240004F0D4981842F912F0E94D81F812F90E03C
:102250000E94D81F2A81822F9F2D0E94D81F8F2D68
:1022600090E00E94D81F80912303813208F046C07D
:102270009091FF029111FCCF92E09093FF0291E0C8
:102280009093FE029FEF9093FD021092FC028093C8
:10229000FB02A2E0B3E02BED32E0F9019E2F921B8E
:1022A000981718F49D919193F9CF1092DA028091CA
:1022B000DA02000F802B8093DA028091D9028130FC
:1022C00061F41092D9028091DA028093BB00809170
:1022D000BC0083FDF8CF85EC01C085EE8093BC0087
:1022E0008091FF028230E1F38091FD028F3F31F057
:1022F0008091FD02803211F08091FD021092010365
:1023000010922303109200030F900F90DF91CF9152
:102310001F910F91FF9008959A01CB96211540E1EE
:10232000340728F020E030E040E050E102C040E017
:1023300050E00C9400111F920F920FB60F921124CF
:102340000F900FBE0F901F9018951F920F920FB60F
:102350000F9211242F933F934F935F936F937F932B
:102360008F939F93AF93BF93EF93FF938091B900A7
:10237000887F803609F49CC068F5883209F45BC018
:1023800090F4803109F454C038F4882309F4F6C07D
:10239000883009F44DC0F6C0883109F44CC0803251
:1023A00009F45DC0EFC0803409F468C048F480339C
:1023B00009F455C0883309F0E5C08093FD02D8C008
:1023C000803509F44FC0883509F45DC0883409F0C0
:1023D000D9C0D6C0883909F4C7C0A8F4883709F431
:1023E00067C038F4883609F463C0803709F460C0E8
:1023F000C9C0883809F4B8C0803909F45FC0803892
:1024000009F0C0C05BC0803B09F486C038F4803A54
:1024100009F466C0883A09F47FC0B4C0803C09F46E
:10242000A7C0883C09F4A4C0883B09F48AC0AAC0AC
:102430008091DA0210C09091FC028091FB02981703
:1024400070F5E091FC0281E08E0F8093FC02F0E0D9
:10245000E552FD4F80818093BB0085EC86C0809360
:10246000FD028EC0E091FC0281E08E0F8093FC02A1
:102470008091BB00F0E0E552FD4F80839091FC021B
:102480008091FB026EC0E091FC0281E08E0F809390
:10249000FC028091BB00F0E0E552FD4F808380910B
:1024A000FE0281116DC081E08093D90284EA61C08F
:1024B00083E08093FF021092D602CFCF8091D602A4
:1024C000803208F051C0E091D60281E08E0F8093F7
:1024D000D6028091BB00F0E0EA54FD4F8083BDCF6F
:1024E00085EC8093BC001092FF028091D60280326E
:1024F00030F4E091D602F0E0EA54FD4F1082609192
:10250000D60270E0E091B402F091B50286EB92E061
:1025100009951092D60236C084E08093FF02109293
:10252000B3021092B202E091B002F091B1020995AB
:102530008091B202811105C081E08093B2021092B5
:102540009002E091B30281E08E0F8093B302F0E03D
:10255000E057FD4F80818093BB009091B302809142
:10256000B202981708F479CF85E88093BC000AC0BE
:1025700085EC8093BC001092FF0204C01092FD0213
:102580000E94DF0CFF91EF91BF91AF919F918F91CE
:102590007F916F915F914F913F912F910F900FBE5F
:1025A0000F901F901895FC01A58DB68D9C9180A56C
:1025B00089238C938BB1962F9C7F8370892B8BB949
:1025C00085B163708C7F682B65B9A78DB0A19C9194
:1025D00081A589238C93A78DB0A19C9185A1892B7E
:1025E0008C93A58DB68D9C9184A1892B8C938BB1F6
:1025F000942F9C7F8370892B8BB985B143708C7F1E
:10260000482B45B9A78DB0A19C9181A589238C93B6
:10261000A78DB0A19C9185A1892B8C930895AF9231
:10262000BF92CF92DF92EF92FF920F931F93CF93BF
:10263000DF93FC01A38DB48D9C9187A189238C939A
:10264000A58DB68D9C9180A589238C93828D823037
:10265000B9F0811113C08BB183708BB985B18C7FB8
:1026600085B9A78DB0A19C9181A589238C93A78D55
:10267000B0A19C9185A1892B8C9309C0833039F43A
:102680008BB183708C628BB985B18C7F07C08BB1A5
:10269000837080628BB985B18C7F826085B9A78D8C
:1026A000B0A19C9181A589238C93A78DB0A19C9109
:1026B00085A1892B8C93A58DB68D9C9184A1892BA6
:1026C0008C938BB1972F9C7FB92E8370892B8BB9FC
:1026D00085B1A72FA370AA2E8C7F8A2B85B9C78DB1
:1026E000D0A1988181A589238883C78DD0A19881A5
:1026F00085A1892B88838BB1C62FCC7F83708C2BCF
:102700008BB985B1D62FD3708C7F8D2B85B9078D72
:1027100010A1D8019C9181A589238C93078D10A1CC
:10272000D8019C9185A1892B8C93215031094109B5
:10273000510969017A0186E0F694E794D794C79429
:102740008A95D1F7C601761348C1019708F465C090
:1027500060E1A78DB0A1CC9171A57C237C93A78D5E
:10276000B0A1CC9175A17C2B7C93A78DB0A1CC910D
:1027700071A57C237C93A78DB0A1CC9175A17C2BF6
:102780007C93A78DB0A1CC9171A57C237C93A78D60
:10279000B0A1CC9175A17C2B7C93A78DB0A1CC91DD
:1027A00071A57C237C93A78DB0A1CC9175A17C2BC6
:1027B0007C93A78DB0A1CC9171A57C237C93A78D30
:1027C000B0A1CC9175A17C2B7C93A78DB0A1CC91AD
:1027D00071A57C237C93A78DB0A1CC9175A17C2B96
:1027E0007C93A78DB0A1CC9171A57C237C93A78D00
:1027F000B0A1CC9175A17C2B7C93A78DB0A1CC917D
:1028000071A57C237C93A78DB0A1CC9175A17C2B65
:102810007C93615009F09DCF98CF2F732150C8F061
:10282000A78DB0A19C9181A589238C93A78DB0A180
:102830009C9185A1892B8C93A78DB0A19C9181A59A
:1028400089238C93A78DB0A19C9185A1892B8C9312
:10285000E5CFA38DB48D9C9183A1892B8C93DF91BF
:10286000CF911F910F91FF90EF90DF90CF90BF908D
:10287000AF9008956BB163706B296BB965B16C7FD4
:102880006A2965B9078D10A1D801FC9061A56F2157
:102890006C93078D10A1D801FC9065A16F296C93F2
:1028A0006BB163706C2B6BB965B16C7F6D2B65B9C7
:1028B000078D10A1D801FC9061A56F216C93078D45
:1028C00010A1D801FC9065A16F296C936BB1637066
:1028D0006B296BB965B16C7F6A2965B9078D10A149
:1028E000D801FC9061A56F216C93078D10A1D801D0
:1028F000FC9065A16F296C936BB163706C2B6BB905
:1029000065B16C7F6D2B65B9078D10A1D801FC9066
:1029100061A56F216C93078D10A1D801FC9065A172
:102920006F296C936BB163706B296BB965B16C7F68
:102930006A2965B9078D10A1D801FC9061A56F21A6
:102940006C93078D10A1D801FC9065A16F296C9341
:102950006BB163706C2B6BB965B16C7F6D2B65B916
:10296000078D10A1D801FC9061A56F216C93078D94
:1029700010A1D801FC9065A16F296C936BB16370B5
:102980006B296BB965B16C7F6A2965B9078D10A198
:10299000D801FC9061A56F216C93078D10A1D8011F
:1029A000FC9065A16F296C936BB163706C2B6BB954
:1029B00065B16C7F6D2B65B9078D10A1D801FC90B6
:1029C00061A56F216C93078D10A1D801FC9065A1C2
:1029D0006F296C93715009F04DCF019710F070E1A1
:1029E00049CF2F73215008F434CF8BB183708B29DA
:1029F0008BB985B18C7F8A2985B9478D50A1DA01C1
:102A00009C9181A589238C93478D50A1DA019C91DB
:102A100085A1892B8C938BB183708C2B8BB985B15D
:102A20008C7F8D2B85B9478D50A1DA019C9181A5B2
:102A300089238C93478D50A1DA019C9185A1892B24
:102A40008C93D0CFCF93DF93EC01EB8DFC8D9081F5
:102A50008FA189238083288539852150310945E05C
:102A600064E0CE010E94621F2A853B852150310916
:102A700049E068E0CE010E94621FEB8DFC8D9081E1
:102A80008BA1892B8083DF91CF9108958F929F92A4
:102A9000AF92BF92CF92DF92EF92FF920F931F936C
:102AA000CF93DF93EC014701121613060CF06BC0B5
:102AB000101611060CF067C0A885B9856A177B0748
:102AC0000CF061C0CA84DB844C155D050CF05BC062
:102AD0005B01A20EB31EC501019797FD54C07A0198
:102AE000E00EF11EF7013197F7FD4DC077FF49C0A9
:102AF00060E070E057FD02C0780102C040E050E0A5
:102B00008A179B072CF0CD0101975D01A61AB70A21
:102B1000EC15FD052CF0F60131977601E41AF50A63
:102B20008F019C01CE010E9430109701D5010E94B7
:102B30006F339B01AC01B401CE010E940F138A8D4B
:102B4000811110C00A851B8501501109288539851E
:102B50002150310940E050E060E070E0CE010E9479
:102B6000301011C0CE01DF91CF911F910F91FF90D6
:102B7000EF90DF90CF90BF90AF909F908F900C948C
:102B800022155901B7CFDF91CF911F910F91FF907F
:102B9000EF90DF90CF90BF90AF909F908F9008956F
:102BA000CF92DF92EF92FF920F931F93CF93DF9319
:102BB000EC016801121613060CF04FC077FD4DC0F2
:102BC00088859985681779070CF047C0EA85FB85E9
:102BD0004E175F070CF041C07A01E20EF31E870129
:102BE0000150110917FD39C057FF35C040E050E0D2
:102BF0000E171F0734F08F01015011097F01E41AED
:102C0000F50A9B01CE010E9430109701FF0C440B86
:102C1000550BB601CE010E940F138A8D811110C091
:102C20000A851B85015011092885398521503109F4
:102C300040E050E060E070E0CE010E9430100DC036
:102C4000CE01DF91CF911F910F91FF90EF90DF9018
:102C5000CF900C9422157901CBCFDF91CF911F91AA
:102C60000F91FF90EF90DF90CF900895CF92DF9279
:102C7000EF92FF920F931F93CF93DF93EC016801C4
:102C8000121613060CF04EC057FD4CC08A859B856A
:102C9000481759070CF046C0E885F9856E177F077D
:102CA0000CF040C07B01E20EF31EC701019797FDB7
:102CB00039C077FF35C060E070E08E179F072CF0B9
:102CC000CF0101977F01E61AF70A8A019C01CE0124
:102CD0000E9430109701FF0C440B550BB601CE013A
:102CE0000E940F138A8D811110C00A851B85015027
:102CF0001109288539852150310940E050E060E014
:102D000070E0CE010E9430100DC0CE01DF91CF9156
:102D10001F910F91FF90EF90DF90CF900C942215B0
:102D20007901CBCFDF91CF911F910F91FF90EF9061
:102D3000DF90CF900895FC01A58DB68D9C9180A564
:102D400089238C938BB1972F9C7F8370892B8BB9B0
:102D500085B173708C7F782B75B9A78DB0A19C91CC
:102D600081A589238C93A78DB0A19C9185A1892BE6
:102D70008C938BB1962F9C7F8370892B8BB985B1F7
:102D800063708C7F682B65B9A78DB0A19C9181A5DC
:102D900089238C93A78DB0A19C9185A1892B8C93BD
:102DA000A58DB68D9C9184A1892B8C938BB1952F89
:102DB0009C7F8370892B8BB985B153708C7F582B86
:102DC00055B9A78DB0A19C9181A589238C93A78D1E
:102DD000B0A19C9185A1892B8C938BB1942F9C7F62
:102DE0008370892B8BB985B143708C7F482B45B993
:102DF000A78DB0A19C9181A589238C93A78DB0A1AB
:102E00009C9185A1892B8C930895EF92FF920F934B
:102E10001F93CF93DF93EC010E942B07EB8DFC8D6A
:102E200090818FA1892380838A8D811122C0ED89B1
:102E3000E150E33040F4F0E0EE0FFF1FE45EFE4FA0
:102E40004081518102C040E350E163E070E0CE0177
:102E50000E949B160A851B8501501109288539851A
:102E60002150310940E050E060E070E0CE010E9466
:102E700030108A8D813089F4ED89E150E33028F4F7
:102E8000F0E0E75EFE4F408101C040E066E1CE0128
:102E90000E94D312CE010E9422158A8D823039F50C
:102EA0008D89813071F050F0823029F0833059F4EF
:102EB00058E2E52E08C068E4E62E05C048E8E42E96
:102EC00002C038EEE32E4E2D66E3CE010E94D312EF
:102ED0000A851B8501501109288539852150310942
:102EE00040E050E060E070E0CE010E9430108A8D3A
:102EF000833031F58D89813069F048F0823029F0D6
:102F0000833051F420E6F22E07C0F12C05C090EC7E
:102F1000F92E02C080EAF82E4F2D66E3CE010E9402
:102F2000D3120A851B850150110928853985215046
:102F3000310940E050E060E070E0CE010E943010C6
:102F4000DF91CF911F910F91FF90EF900895AF9275
:102F5000BF92CF92DF92EF92FF920F931F93CF9386
:102F6000DF93EC017B016A01B22EA32E77FD1BC11A
:102F700057FD19C188859985681779070CF013C129
:102F80008A859B85481759070CF00DC1EB8DFC8D88
:102F900090818FA1892380838A8D811135C08D898D
:102FA000823059F08330B1F08130D1F48FEE90E06F
:102FB000841B950B6B017C0113C08FEE90E09C018C
:102FC000261B370B79018FE391E09C01241B350B05
:102FD000690106C08FE391E0861B970B7A016C01B3
:102FE000A70160E270E0CE010E949B16A60161E29B
:102FF00070E0CE010E949B164B2D5A2D62E270E0CC
:10300000CE010E949B16C9C0813009F060C0ED89D5
:10301000E150E33028F4F0E0EA5EFE4F408101C069
:1030200040E066E1CE010E94D312970143E062E0E6
:10303000CE010E94621F960147E066E0CE010E9429
:10304000621FED8DFE8D908188A5892380838BB1D1
:10305000837080628BB985B18C7F826085B9EF8D7A
:10306000F8A1908189A589238083EF8DF8A19081B3
:103070008DA1892B8083ED8DFE8D90818CA1892B74
:1030800080838BB19A2D9C7F8370892B8BB985B1FE
:103090009A2D93708C7FA92EA82AA5B8EF8DF8A140
:1030A000908189A589238083EF8DF8A190818DA1DE
:1030B000892B80838BB19B2D9C7F8370892B8BB94F
:1030C00085B19B2D93708C7FB92EB82A59C0825040
:1030D000823008F062C00A851B85015011092885DD
:1030E000398521503109CE010E943010EB8DFC8DC5
:1030F00090818FA189238083ED8DFE8D908188A59D
:10310000892380838BB183708C628BB985B18C7F6E
:1031100085B9EF8DF8A1908189A589238083EF8DF2
:10312000F8A190818DA1892B8083ED8DFE8D9081FA
:103130008CA1892B80838BB19A2D9C7F8370892BE6
:103140008BB995B18A2D83709C7FA82EA92AA5B82A
:10315000EF8DF8A1908189A589238083EF8DF8A157
:1031600090818DA1892B80838BB19B2D9C7F837057
:10317000892B8BB995B18B2D83709C7FB82EB92A82
:10318000B5B8EF8DF8A1908189A589238083EF8D53
:10319000F8A190818DA1892B8083EB8DFC8D90818E
:1031A0008BA1892B8083DF91CF911F910F91FF908D
:1031B000EF90DF90CF90BF90AF900895EF92FF9285
:1031C0000F931F93CF93DF93EC017B018A8D8111C5
:1031D00029C02D892150233078F430E0F901ED5ECB
:1031E000FE4F8081482F50E0220F331FF901E35F2B
:1031F000FE4F0081118104C000E010E040E050E08B
:10320000EB8DFC8D30812FA12323208360E270E0C1
:10321000CE010E949B16A80161E270E0CE010E94DF
:103220009B1612C08150833078F40A851B850150AB
:103230001109288539852150310940E050E060E0CE
:1032400070E0CE010E94301020E03CE241E050E00E
:10325000B701CE01DF91CF911F910F91FF90EF90B9
:103260000C940F13FC01918D828D981761F0828D63
:10327000DF01A80FB11D5D968C91928D9F5F9F73AA
:10328000928F90E008958FEF9FEF0895FC01918D4C
:10329000828D981731F0828DE80FF11D858D90E0B9
:1032A00008958FEF9FEF0895FC01918D228D892F56
:1032B00090E0805C9F4F821B91098F73992708953E
:1032C0008BED93E00E94541921E0892B09F420E052
:1032D000822F0895FC01848DDF01A80FB11DA35A30
:1032E000BF4F2C91848D90E001968F739927848F26
:1032F000A689B7892C93A089B1898C9180648C931D
:10330000938D848D981306C00288F389E02D808107
:103310008F7D80830895EF92FF920F931F93CF9339
:10332000DF93EC0181E0888F9B8D8C8D981305C015
:10333000E889F989808185FD24C0F62E0B8D10E087
:103340000F5F1F4F0F731127E02E8C8DE8120CC0FA
:103350000FB607FCFACFE889F989808185FFF5CFA0
:10336000CE010E946A19F1CF8B8DFE01E80FF11D8D
:10337000E35AFF4FF0820B8FEA89FB8980818062DC
:1033800007C0EE89FF896083E889F98980818064BC
:10339000808381E090E0DF91CF911F910F91FF90AA
:1033A000EF900895CF93DF93EC01888D8823C9F0C7
:1033B000EA89FB89808185FD05C0A889B9898C913E
:1033C00086FD0FC00FB607FCF5CF808185FFF2CFD9
:1033D000A889B9898C9185FFEDCFCE010E946A1929
:1033E000E7CFDF91CF91089580E090E0892B29F01D
:1033F0000E94601981110C940000089508950895A9
:103400001092D10380913C038336B8F54091CD03EF
:103410005091CE036091CF037091D0034093C903C4
:103420005093CA036093CB037093CC03843081F034
:1034300058F4833011F54093C5035093C60360934D
:10344000C7037093C80319C08650833050F015C06D
:103450004093C1035093C2036093C3037093C403AA
:103460000CC08091C003882341F04093BC0350936B
:10347000BD036093BE037093BF031092BB03109211
:10348000BA031092B9031092B8031092B7031092C6
:10349000B6031092B50380E88093B403F89480914A
:1034A000B303882379F0209135033091360391E0FE
:1034B00080E04091B1035091B2034217530721F0CD
:1034C00090E002C090E080E09093AF038093B0035F
:1034D00010923603109235031092B2031092B1038A
:1034E00078941092B3038AE79AE19093C104809391
:1034F000C0040895F894809135039091360320918B
:10350000B1033091B2038217930711F478940895B0
:103510008091350390913603821B930B029748F0FC
:10352000789480E09AE19093C1048093C00487E688
:1035300025C0209137033091380380913903909151
:103540003A0340913503509136035093B2034093B0
:10355000B1037894B9016453710941E06D3071058C
:1035600080F040E02A553109273B364250F080E098
:103570009AE19093C1048093C00488E680933C0351
:1035800008959C01245331092D30310530F08A55BE
:103590009109873B964268F0EACF442361F080911D
:1035A000AF039091B00301969093B0038093AF0363
:1035B0000895442391F0F8948091390390913A034F
:1035C000909338038093370381E080933B03789492
:1035D0001092B0031092AF0308958091AF039091C1
:1035E000B0030A97ACF38AEF9AE19093C1048093F9
:1035F000C0040895F894809135039091360320918A
:10360000B1033091B2038217930711F478940895AF
:103610008091350390913603821B930B029748F0FB
:10362000789480E09AE19093C1048093C00487E687
:1036300072C0409137035091380320913903309183
:103640003A0380913503909136039093B2038093AF
:10365000B1037894BA016453710991E06D3071053A
:1036600070F090E04A555109473B564240F080E0E7
:103670009AE19093C1048093C00488E64CC081E035
:10368000A901445351094D30510530F080E02A55CD
:103690003109273B364258F79813E9CF8091B4039C
:1036A000882381F0992341F0E091B503F0E0EA54DA
:1036B000FC4F9081982B908390E09595879580930F
:1036C000B40308958091B50321E0280F2093B5033A
:1036D00030E83093B4039923A9F091E09093B303B9
:1036E0008250843038F48BE29DE19093C104809342
:1036F000C004089580E09AE19093C1048093C004CF
:1037000089E609C0263048F080E09AE19093C10430
:103710008093C0048AE680933C0308950E947B3521
:103720001F920F920FB60F9211242F933F934F9336
:103730005F936F937F938F939F93AF93BF93EF9319
:10374000FF938BED93E00E946A19FF91EF91BF9177
:10375000AF919F918F917F916F915F914F913F9129
:103760002F910F900FBE0F901F9018951F920F92E0
:103770000FB60F9211242F938F939F93EF93FF9384
:10378000E091EB03F091EC038081E091F103F09183
:10379000F20382FD12C090818091F4038F5F8F73DA
:1037A0002091F503821751F0E091F403F0E0E55227
:1037B000FC4F958F8093F40301C08081FF91EF91BE
:1037C0009F918F912F910F900FBE0F901F90189582
:1037D000833081F028F4813099F08230A1F008958F
:1037E0008730A9F08830B9F08430D1F4809180001E
:1037F0008F7D03C0809180008F7780938000089533
:1038000084B58F7702C084B58F7D84BD0895809183
:10381000B0008F7703C08091B0008F7D8093B0009F
:1038200008951F93CF93DF93282F30E0F901EA54D6
:10383000F24F8491F901E653F24FD491F901E85126
:10384000F24FC491CC23C9F0162F81110E94E81BBE
:10385000EC2FF0E0EE0FFF1FE252F24FA591B49172
:103860008FB7F894111105C09C91ED2FE095E923D5
:1038700002C0EC91ED2BEC938FBFDF91CF911F91A4
:103880000895CF93DF9390E0FC01E653F24F24912B
:10389000FC01E851F24F8491882361F190E0880F98
:1038A000991FFC01EE55F24FC591D491FC01E252F3
:1038B000F24FA591B491611109C09FB7F894888126
:1038C000209582238883EC912E230BC0623061F413
:1038D0009FB7F8943881822F809583238883EC9159
:1038E0002E2B2C939FBF06C08FB7F894E8812E2B08
:1038F00028838FBFDF91CF9108958E3008F08E50CE
:103900008770806480937C0080917A0080648093CB
:103910007A0080917A0086FDFCCF8091780020911A
:10392000790090E0922B08953FB7F8948091D703E7
:103930009091D803A091D903B091DA0326B5A89B42
:1039400005C02F3F19F00196A11DB11D3FBFBA2F31
:10395000A92F982F8827820F911DA11DB11DBC0191
:10396000CD0142E0660F771F881F991F4A95D1F756
:1039700008958F929F92AF92BF92CF92DF92EF9273
:10398000FF926B017C010E94941C4B015C01C114ED
:10399000D104E104F104F1F00E94941CDC01CB019C
:1039A00088199909AA09BB09883E9340A105B10568
:1039B00070F321E0C21AD108E108F10888EE880E00
:1039C00083E0981EA11CB11CC114D104E104F104D0
:1039D00019F7DDCFFF90EF90DF90CF90BF90AF90C1
:1039E0009F908F9008950E94941CA0913B034A2FB2
:1039F00050E020913D0330913E03FB01E21BF30BAD
:103A00009F01FA01EE0FFF1FE95CFC4F3183208319
:103A100060933D0370933E0380933F039093400374
:103A20002091350330913603240F351F3093360330
:103A30002093350381E08A2780933B0308952FB7B5
:103A4000F8946091D3037091D4038091D503909141
:103A5000D6032FBF08951F93CF93DF939091B703A1
:103A60008091B6038927C091B503C43068F0909166
:103A7000B8038927C43041F09091B9038927C53034
:103A800019F09091BA038927EC2FF0E0EB54FC4F2A
:103A90009081891741F080E09AE19093C10480936E
:103AA000C00484E6B8C00E941F1D6093CD037093CC
:103AB000CE038093CF039093D0031092C003C33002
:103AC00009F07DC01091B7038091B603111115C0A4
:103AD0008F3F49F480E09AE19093C1048093C00441
:103AE000C0933C03A3C0811108C080E09AE1909389
:103AF000C1048093C00484E08EC0982F907C9038DD
:103B0000D1F517FF38C0C12FD0E0C095D095C07750
:103B1000DD27CC0FDD1FCC0FDD1F8F73C80FD11D2C
:103B20000E946A2221E0C817D90709F020E02093FB
:103B3000C003211107C0CF33D10521F080912403A8
:103B4000882389F08091D10381110DC0E091250374
:103B5000F0912603309739F0412F477013FB662709
:103B600060F9CE01099580E09AE19093C1048093B9
:103B7000C00487E050C087FF08C080E09AE19093BE
:103B8000C1048093C00485E646C0107C103441F027
:103B900080E09AE19093C1048093C00486E63BC024
:103BA00091E02091D705821390E09093C00380E0CC
:103BB0009AE19093C1048093C00486E02CC0C43085
:103BC00069F59091B603892F807C803839F5809112
:103BD000B703282F2578213009F5C82FC670D0E00B
:103BE000DC2FCC27807724E0829FC00DD11D1124CB
:103BF0009F73C90FD11D0E946A2221E0C817D907FF
:103C000009F020E02093C00380E09AE19093C10482
:103C10008093C00488E080933C0308C080E09AE170
:103C20009093C1048093C00410923C03DF91CF9124
:103C30001F9108951F920F920FB60F9211242F9388
:103C40003F938F939F93AF93BF938091D3039091B2
:103C5000D403A091D503B091D6033091D20323E0D1
:103C6000230F2D3720F40196A11DB11D05C026E8B4
:103C7000230F0296A11DB11D2093D2038093D3037D
:103C80009093D403A093D503B093D6038091D70328
:103C90009091D803A091D903B091DA030196A11DA8
:103CA000B11D8093D7039093D803A093D903B09309
:103CB000DA03BF91AF919F918F913F912F910F9018
:103CC0000FBE0F901F9018951F920F920FB60F9274
:103CD00011242F933F934F935F936F937F938F9311
:103CE0009F93AF93BF93EF93FF93E0910501F09102
:103CF00006010995FF91EF91BF91AF919F918F912F
:103D00007F916F915F914F913F912F910F900FBED7
:103D10000F901F9018951F920F920FB60F921124BB
:103D20002F933F934F935F936F937F938F939F93C3
:103D3000AF93BF93EF93FF93E0910301F0910401E0
:103D40000995FF91EF91BF91AF919F918F917F91D5
:103D50006F915F914F913F912F910F900FBE0F90F8
:103D60001F901895CF92DF92EF92FF92FC01A38DE6
:103D7000B48D9C9187A189238C93A58DB68D9C9140
:103D800080A589238C938BB1962F9C7F8370892B80
:103D90008BB985B163708C7F682B65B9A78DB0A195
:103DA0009C9181A589238C93A78DB0A19C9185A11D
:103DB000892B8C93A58DB68D9C9184A1892B8C9396
:103DC00083E290E0DC011197F1F77BB1C52EDD2491
:103DD000EE24FF246C2D6C7F7370762B7BB965B15C
:103DE0007C2D73706C7F672B65B9A78DB0A17C911A
:103DF00061A567236C93A78DB0A17C9165A1672B0A
:103E00006C93DC011197F1F77BB16A01EE24FF247A
:103E10006C2D6C7F7370762B7BB965B17C2D7370C4
:103E20006C7F672B65B9A78DB0A17C9161A56723D5
:103E30006C93A78DB0A17C9165A1672B6C93DC017D
:103E40001197F1F77BB1C32ED42EE52EFF246C2DF4
:103E50006C7F7370762B7BB965B17C2D73706C7F32
:103E6000672B65B9A78DB0A17C9161A567236C9381
:103E7000A78DB0A17C9165A1672B6C930197F1F799
:103E80008BB1922F9C7F8370892B8BB985B1237066
:103E90008C7F282B25B9A78DB0A19C9181A5892362
:103EA0008C93A78DB0A19C9185A1892B8C93A38D18
:103EB000B48D9C9183A1892B8C93FF90EF90DF9020
:103EC000CF900895FC01A58DB68D9C9180A5892386
:103ED0008C938BB1962F9C7F8370892B8BB985B186
:103EE00063708C7F682B65B9A78DB0A19C9181A56B
:103EF00089238C93A78DB0A19C9185A1892B8C934C
:103F0000A58DB68D9C9184A1892B8C938BB1932F19
:103F10009C7F8370892B8BB985B133708C7F382B54
:103F200035B9A78DB0A19C9181A589238C93A78DCC
:103F3000B0A19C9185A1892B8C93A58DB68D9C9168
:103F400080A589238C938BB1942F9C7F8370892BC0
:103F50008BB985B143708C7F482B45B9A78DB0A133
:103F60009C9181A589238C93A78DB0A19C9185A15B
:103F7000892B8C93A58DB68D9C9184A1892B8C93D4
:103F80008BB1922F9C7F8370892B8BB985B1237065
:103F90008C7F282B25B9A78DB0A19C9181A5892361
:103FA0008C93A78DB0A19C9185A1892B8C930895AA
:103FB000682F82EC94E00C944F0D1F93CF93DF9306
:103FC000EC018C85613011F48F5F01C081508C87CA
:103FD0002C852F73822F90E0203148F4E2E3F1E04A
:103FE000E81BF90B4081FC01EE5DFE4F20C030EF75
:103FF000320F303138F4FC01EE5EFE4F4081E2E4D6
:10400000F1E013C030EE320F303148F4E2E5F1E078
:10401000E81BF90B4081FC01EE5FFE4F08C0FC017C
:10402000EE50FF4F4081E2E6F1E0E81BF90B108112
:104030002C8780E1489FA00111246C818D859E858D
:104040000E948C1180E1189FA00111246F818D8541
:104050009E850E948C118C85803110F413E001C084
:1040600010E090EF980F903108F4166090EE980FE2
:10407000903108F41C608053803108F419608D85FC
:104080009E8520E030E010FF03C040E050E102C018
:1040900040E050E06E81CB960E9400118D859E8598
:1040A00020E030E011FF03C040E050E102C040E0FA
:1040B00050E06885CB960E9400118D859E8520E09A
:1040C00030E012FF03C040E050E102C040E050E0A9
:1040D0006D81CB960E9400118D859E8520E030E099
:1040E00013FF03C040E050E102C040E050E06985AA
:1040F000CB960E9400118C85DF91CF911F9108957E
:104100002F923F924F925F926F927F928F929F92E7
:10411000AF92BF92CF92DF92EF92FF920F931F93D5
:10412000CF93DF9300D000D000D0CDB7DEB73C01F5
:104130006B0159014801290183E0480E511CE12C13
:10414000F12CE3E0F0E0FE83ED838AEF9FEF9A83AA
:1041500089832EEF222E33243A94942F91709B83DF
:1041600042704C83EFEFEE1AFE0AC2018A199B09D6
:10417000280E391EFB81FF2309F12D813E81220F7C
:10418000331F2F5F3F4F2A0D3B1D8401A6018D81F8
:104190009E81481B590BB3016E0D7F1D81EA95E08E
:1041A0000E94E40B9201A6014E195F096D817E8188
:1041B000660D771D81EA95E00E94E40B9C819923AE
:1041C00011F12D813E81220F331F2F5F3F4F2A0DAA
:1041D0003B1D8401A601ED81FE814E1B5F0BB301E7
:1041E0006E197F0981EA95E00E94E40B9201A60115
:1041F0004E195F09B3018D819E81681B790B81EA9D
:1042000095E00E94E40BED81FE81EE16FF0694F42A
:1042100037FC0CC0ED81FE813197FE83ED838981EF
:104220009A8102969A838983280E391E92E0490E5C
:10423000511C98CF26960FB6F894DEBF0FBECDBFA7
:10424000DF91CF911F910F91FF90EF90DF90CF9072
:10425000BF90AF909F908F907F906F905F904F90A6
:104260003F902F9008950F931F93CF93DF93EC010E
:1042700088819981009729F02A813B812617370789
:1042800088F48B016F5F7F4F0E94B134009761F01B
:10429000998388831B830A832C813D81232B11F40E
:1042A000FC01108281E001C080E0DF91CF911F917D
:1042B0000F910895CF93DF93EC0188819981009746
:1042C00011F00E941934198218821D821C821B82EF
:1042D0001A82DF91CF910895EBEDF3E0A089B189C7
:1042E00082E08C93A485B5851C92A685B78580E174
:1042F0008C93108EA489B58986E08C93A289B389AA
:104300008C9180618C93A289B3898C9188608C9305
:10431000A289B3898C9180688C930288F389E02DFF
:1043200080818F7D808308954F925F926F927F92FC
:104330008F929F92AF92BF92CF92DF92EF92FF92B5
:104340000F931F93CF93DF933C01EB015A01690157
:1043500048012C0183E0480E511C9A012650310976
:1043600078018601AB01B20181EA95E00E94C80B99
:1043700087E0C81AD1082396C3018A0D9B1D8401CA
:10438000960141E0BE0104970E948020960142E020
:10439000BE01C2010E948020DF91CF911F910F9139
:1043A000FF90EF90DF90CF90BF90AF909F908F9055
:1043B0007F906F905F904F900895CF93DF93FC01B3
:1043C00044815581608171818BED93E00E947D2451
:1043D000EC016AE772E08BED93E00E94A8248C0F59
:1043E0009D1FDF91CF910895E091BC05F091BD052F
:1043F00090818091C405892B8083E091C005F09164
:10440000C10590818091C605892B8083E091C2050A
:10441000F091C30590818091C705892B808380919D
:10442000CC05882371F060E00E94111C62E070E00E
:1044300080E090E00E94B91C61E08091CC050E9470
:10444000111CE091BC05F091BD0590818091C805DB
:1044500089238083E091BE05F091BF059081809112
:10446000C905892380838BB183708BB985B18C7F1B
:1044700085B9E091C005F091C10590818091CA0590
:1044800089238083E091C005F091C10590818091DE
:10449000C605892B808383E0E091C005F091C105BA
:1044A00020819091CA0592239083E091C005F091FC
:1044B000C10520819091C605922B9083815061F7B0
:1044C000E091BC05F091BD0590818091C405892BD8
:1044D000808308958091F30587FF0CC08091DF05EC
:1044E00090E09C0146E0220F331F4A95E1F7822BB2
:1044F000932B089585FF09C08091E70590E0982FE0
:1045000088272091E805822B08958091D70590E0B7
:104510000895EF92FF920F931F93CF93DF93EC01D7
:10452000FB0184819581E080F1800C811D81E11483
:10453000F104B1F00097B9F0080F191FB801CE01CE
:104540000E943321882361F0288139818C819D81EB
:10455000B701820F931F0E9492351D830C8303C005
:10456000CE010E945A21CE01DF91CF911F910F9170
:10457000FF90EF900895EF92FF920F931F93CF93C8
:10458000DF93EC017B018A01BA010E943321811182
:1045900004C0CE010E945A2107C01D830C83B701BD
:1045A000888199810E949235CE01DF91CF911F9130
:1045B0000F91FF90EF900895FC01808191810C9400
:1045C0001934EF92FF920F931F93CF93DF93CDB7E0
:1045D000DEB762970FB6F894DEBF0FBECDBF8C0179
:1045E000CB01F8011182108213821282158214828B
:1045F00050E09E012F5F3F4F7901B9010E942E309C
:10460000F70101900020E9F73197AF014E195F09DA
:10461000B701C8010E94BB2262960FB6F894DEBFB4
:104620000FBECDBFDF91CF911F910F91FF90EF9003
:104630000895FC0111821082138212821582148265
:104640006115710551F0FB0101900020E9F73197E8
:10465000AF01461B570B0C94BB2208954F925F92FB
:104660006F927F92EF92FF920F931F93CF93DF93FE
:10467000CDB7DEB7A1970FB6F894DEBF0FBECDBFA2
:104680007C01FA01CB0119A2223008F42AE08E0144
:104690000F5D1F4F422E512C612C712CBF01A301C5
:1046A00092010E949231F901CA01015011096A3048
:1046B00014F4605D01C0695CD8016C93232B242B3A
:1046C000252B61F7B801C7010E94A824A1960FB657
:1046D000F894DEBF0FBECDBFDF91CF911F910F9138
:1046E000FF90EF907F906F905F904F900895CF93E1
:1046F00090918E04992309F465C0C82F8091BA0463
:104700009091BB04DC01ED91FC910480F581E02DDA
:104710000995811117C085E656C08091BA04909121
:10472000BB04DC01ED91FC910680F781E02D099539
:10473000883609F447C0A0F0813709F443C08637B2
:1047400009F441C08091BA049091BB04DC01ED9161
:10475000FC910480F581E02D09958111DECFDBCF3E
:10476000883571F1833671F70E941F1D60937A04BA
:1047700070937B0480937C0490937D046DE672E0DB
:104780008091BA049091BB040E94D1244C2F50E038
:1047900060E070E02AE08091BA049091BB040E942E
:1047A0002E2364E772E08091BA049091BB040E94CA
:1047B000D12462E370E080E090E00E94B91C02C066
:1047C00010928E0483E6CF910895BF92CF92DF922C
:1047D000EF92FF920F931F93CF93DF93B82E0E9417
:1047E0001F1D6B017C0108E714E0CAEBD4E06DE704
:1047F00072E0888199810E94D1244B2D50E060E0C5
:1048000070E02AE0888199810E942E2364E872E09A
:10481000888199810E94D1242AE0B701A60188816C
:1048200099810E942E2366E872E0888199810E9416
:10483000D124F80186819781A085B185B701A601B1
:10484000481B590B6A0B7B0B2AE0888199810E94D7
:104850002E2366E872E0888199810E94D124F801B4
:10486000468157816085718582859385A485B5854C
:10487000481B590B6A0B7B0B2AE088819981DF91D9
:10488000CF911F910F91FF90EF90DF90CF90BF904D
:104890000C942E23CF92DF92EF92FF920F931F93EF
:1048A000CF93DF93EC016A017B01E881F9810190EC
:1048B000F081E02D6DE209958C0144275527BA015E
:1048C0004C195D096E097F092AE0CE010E942E2352
:1048D000800F911FDF91CF911F910F91FF90EF906B
:1048E000DF90CF900895AB01770F660B770B77FDC4
:1048F0000C944A242AE00C942E23CF92DF92EF925C
:10490000FF920F931F93CF93DF936C017A018B017A
:10491000C0E0D0E0CE15DF0589F0D8016D918D01A2
:10492000D601ED91FC910190F081E02DC601099531
:10493000892B11F47E0102C02196ECCFC701DF91D3
:10494000CF911F910F91FF90EF90DF90CF9008953E
:104950006115710579F0FB0101900020E9F73197AD
:10496000AF01461B570BDC01ED91FC910280F381F6
:10497000E02D099480E090E008950F931F93CF936A
:10498000DF93EC010E94A8248C016AE772E0CE015B
:104990000E94A824800F911FDF91CF911F910F914A
:1049A00008950C94A824CF93DF93C9E9D5E0269706
:1049B000CE010E94DC2285E0C333D807C1F7DF9126
:1049C000CF910895CF93DF93CDB7DEB76C970FB635
:1049D000F894DEBF0FBECDBF789484B5826084BDED
:1049E00084B5816084BD85B5826085BD85B58160F3
:1049F00085BD80916E00816080936E001092810071
:104A0000809181008260809381008091810081602B
:104A100080938100809180008160809380008091EC
:104A2000B10084608093B1008091B0008160809378
:104A3000B00080917A00846080937A0080917A003F
:104A4000826080937A0080917A00816080937A00FE
:104A500080917A00806880937A001092C100109251
:104A6000BC041092BD041092BE041092BF041092B8
:104A70007A0410927B0410927C0410927D0468EBFF
:104A80007BE080E090E00E94B91C8BED93E0909376
:104A9000BB048093BA040E946C210E941F1D609386
:104AA0007A0470937B0480937C0490937D046DE87A
:104AB00071E08091BA049091BB040E94D1246AE015
:104AC00070E080E090E00E94B91C81E080938E0449
:104AD0000E946C216FE971E08BED93E00E94D1247C
:104AE0006091A9057091AA058BED93E00E94732453
:104AF0006CEA71E08BED93E00E94D1244091AB050C
:104B00005091AC05052E000C660B770B77FF05C0A6
:104B10008BED93E00E944A2405C02AE08BED93E0E0
:104B20000E942E236AE772E08BED93E00E94A82496
:104B300081E19FE0909326038093250381E0809399
:104B4000240388EC90E0909328038093270389EC5A
:104B500090E090932A03809329038AEC90E090934D
:104B60002C0380932B038BEC90E090932E03809387
:104B70002D038CEC90E09093300380932F038DEC09
:104B800090E090933203809331038EEC90E0909309
:104B90003403809333038FEC90E09093360380933B
:104BA000350380913D0390913E03A0913F03B09166
:104BB0004003892B8A2B8B2B91F51092DD051092E7
:104BC000DE0510923B0310923A03109239031092C3
:104BD00038031092370310923603109235030E9467
:104BE000941C60933D0370933E0380933F03909326
:104BF000400383EF9CE19093040180930301809133
:104C000069008C7F816080936900E89A80E09AE176
:104C10009093C1048093C00482E080933C030E947F
:104C2000F4210E94F42168EC70E080E090E00E94A2
:104C3000B91C1092BB05E091BC05F091BD059081B7
:104C40008091C805892380830FEC1CE0F8016591F1
:104C50007491F8013296459154916F3F710531F48A
:104C6000BA0180E090E00E94B91C04C081EA95E09E
:104C70000E949B160C5F1F4F2DE00B39120731F776
:104C80006091B60581EA95E00E9405170FE311E0F7
:104C90002FEE30E040E050E060E070E081EA95E027
:104CA0000E94301063E081EA95E00E94051760E001
:104CB00070E081EA95E00E94DE1861E08DE00E94DC
:104CC000411C8FEF9FEF9093B4058093B3059093B1
:104CD000B2058093B1058BE99DE09093BA0580936E
:104CE000B90580919B0590919C052EE130E03093B1
:104CF000AE052093AD059093B0058093AF056EEAA5
:104D000071E081EA95E00E94BD248091B9059091FF
:104D1000BA05892B49F08091AF059091B0050697AF
:104D20009093B0058093AF051092BA051092B90523
:104D300068EE73E080E090E00E94B91C60E070E0F3
:104D400081EA95E00E94DE182091A9053091AA051C
:104D5000C901859797FD03969595879595958795B4
:104D600090936603809365031092B4051092B30587
:104D70001092B2051092B10563E3A62E65E0B62E3F
:104D8000C12CD12C812C912C79E0672E712C209193
:104D90006503309166038114910409F475C6C20E4F
:104DA000D31E43E0C40ED11C4FEEE42E4BE7F42E8D
:104DB00004E110E046E050E0B60181EA95E00E948F
:104DC00046151A8219821C821B821E821D82D50101
:104DD0006D917C9111976115710541F014964D917B
:104DE0005C911597CE0101960E94BB224D805E809A
:104DF000E980FA8022242A9433243A9400E010E0D7
:104E0000B6E0B09FF001B19FF00D1124ED5CFA4FB8
:104E1000848195818415950521F580819181009784
:104E200021F0E114F104A9F40DC0E114F104B1F092
:104E30004114510499F0F701808190E0919581959A
:104E400091090AC04114510449F0DC018C9190E0B1
:104E500003C0B7010E948935892B19F481E190E0E4
:104E600002C0C80181010196813191051CF418012D
:104E70008C01C6CF000F111FF801E757FC4FD182FC
:104E8000C082F801E959FC4F86E090E0918380836D
:104E9000F801EF5BFC4F41E050E051834083CE01CD
:104EA00001960E94DC22C60102969093AE05809383
:104EB000AD057092B0056092AF05D50114964D9185
:104EC0005C9115976D917C9181EA95E00E947D241B
:104ED0008091B9059091BA05892B49F08091AF0571
:104EE0009091B00506979093B0058093AF0510920E
:104EF000BA051092B9051092640310926303BFEFD4
:104F00008B1A9B0AE6E0AE0EB11CF4E08F169104FA
:104F100009F03DCF2091AB053091AC05205231090D
:104F20004091A9055091AA054C50510908E116EC91
:104F30006AE170E086E090E00E9494212091AB0548
:104F40003091AC05265231094091A9055091AA052E
:104F50004251510900E010E06DE170E089E090E01D
:104F60000E94942161E08DE00E94111CA091D20565
:104F7000B0E0FD01E851F24FE4908091CF05682F39
:104F800070E0FB01E851F24F04914091D10550E0EF
:104F9000FA01E851F24FC4902091D00530E0F901B8
:104FA000E851F24F2490FD01E653F24FA490FB012B
:104FB000E653F24FB490FA01E653F24FD490F90160
:104FC000E653F24F24912D8760E00E94411C60E07F
:104FD0008091D0050E94411C10E0000F111F025269
:104FE000124FF801A591B4918C914B2D4095498BAE
:104FF00084238C93312CF101EE0FFF1FBF0162520D
:10500000724F1B01FB01A591B4919C918D858095F8
:1050100089238C9361E08091D2050E94411C61E05C
:105020008091D1050E94411CF12CF701EE0FFF1F6A
:10503000CF018252924F7C01FC01A591B4918C91D9
:105040008A298C93EC2DF0E0EE0FFF1FE252F24F15
:10505000A591B491EC91D094DE22DC928091CF05A1
:105060000E947D1C4C018091CF050E947D1C2C016B
:105070008FEF93E06C01C418D50860E08091D205F1
:105080000E94411C60E08091D1050E94411CF70103
:10509000A591B4918C91A094AD8A8A218C9361E002
:1050A0008091CF050E94411CF801A591B491EC912B
:1050B000BE2ABC9261E08091D0050E94411C809183
:1050C000D1050E947D1C3C018091D1050E947D1C70
:1050D0005C016816790629F4772473948414950486
:1050E00009F0712C61E08091D2050E94411CF7010A
:1050F000A591B491EC912D89E223EC93F101A59156
:10510000B491EC914D85E42BEC93F801A591B49109
:105110008C91598985238C9360E08091CF050E9402
:10512000411C8091D1050E947D1C8C018091CF058E
:105130000E947D1CE090D305F090D405E114F104A9
:1051400009F43FC0BC01990F880B990B0E94753080
:105150001B012C01B801110F880B990B0E947530AF
:105160009B01AC01C201B1010E94673220E030E036
:1051700040E85FE30E94FA311B012C01B6010D2CBF
:10518000000C880B990B0E9475309B01AC01C20189
:10519000B1010E94D4301B012C01B70180E090E0E6
:1051A0000E9473309B01AC01C201B1010E94D43056
:1051B00020E030E040E85AE30E94D4300E94D93227
:1051C00005C0081B190BB80161507C4F711002C05B
:1051D00060E070E063537109653B734008F051C4AF
:1051E000A6010D2C000C660B770B4D8B5E8B6F8B25
:1051F000788F55EAC516D1048CF46D897E898F8924
:10520000988D0E9475302B013C0160E070E081E6D2
:1052100094E46D877E878F87988B24C075E8C716C6
:1052200073E0D7068CF06D897E898F89988D0E94F6
:1052300075306D877E878F87988B412C512CF5E2D6
:105240006F2EF3E47F2E0EC0412C512CE5E26E2E22
:10525000E3E47E2E80E090E0A1E6B4E48D879E87B3
:10526000AF87B88B8FEF93E08A199B094C01092E09
:10527000000CAA08BB08803A91057CF4C501B40172
:105280000E9475306B017C0140E050E863E674E4F5
:10529000498B5A8B6B8B7C8B20C08F3893407CF072
:1052A000C501B4010E947530698B7A8B8B8B9C8B06
:1052B000C12CD12C70E2E72E73E4F72E0EC0C12C66
:1052C000D12C60E2E62E63E4F62E60E070E883E61F
:1052D00094E4698B7A8B8B8B9C8BC501B4010E9403
:1052E0007530A70196010E94FA314B015C01A701BC
:1052F000960169897A898B899C890E94FA319B0180
:10530000AC01C501B4010E9467329B01AC0160E0B1
:1053100070E080E89FE30E94FA316B017C016091AC
:10532000A9057091AA05072E000C880B990B0E9405
:1053300075309B01AC01C701B6010E94D4300E94B8
:10534000D9321B017093AC036093AB036D897E89E6
:105350008F89988D0E947530A30192010E94FA31C5
:105360006B017C01A30192016D857E858F859889F3
:105370000E94FA319B01AC01C701B6010E9467325D
:105380009B01AC0160E070E080E89FE30E94FA318D
:105390006B017C018091AB059091AC05BC01990F2C
:1053A000880B990B0E9475309B01AC01C701B601B7
:1053B0000E94D4300E94D9324B017093AE036093A7
:1053C000AD0389E893E09E878D87A7E6B3E0BA8FA7
:1053D000A98F21E433E0BE8BAD8B9A8B898B412C56
:1053E000512C612C712CC12CD12CA989BA89ED903A
:1053F000FD90BA8BA98BED89FE8901911191FE8BED
:10540000ED8BD901AD90BD909D0167EC71E08BED06
:1054100093E0AB8F3C8F0E94BD244AE0B601CE01E1
:1054200001960E94E1226BEE71E0CE0107960E9488
:105430001923BE016F5F7F4FCE0107960E9489221C
:105440000E94DD21CE0107960E94DC22CE0101964A
:105450000E94DC224AE0B101CE0101960E94E122C5
:105460006BEE71E0CE0107960E941923BE016F5FBB
:105470007F4FCE0107960E9489220E94DD21CE0136
:1054800007960E94DC22CE0101960E94DC224AE0AF
:10549000B401CE0101960E94E12261EF71E0CE01DC
:1054A00007960E941923BE016F5F7F4FCE010796BA
:1054B0000E9489220E94DD21CE0107960E94DC22F3
:1054C000CE0101960E94DC2267EC71E08BED93E047
:1054D0000E94BD242B8D3C8DB1E0AB16B10459F078
:1054E000E2E0AE16B10471F44EE1442E512C5EE1BF
:1054F000652E712C07C0409065035090660394E1BF
:10550000692E712CE114F104D9F001151105C1F0D7
:10551000E214F3046CF4E40CF51C2E143F0444F480
:10552000081519052CF4060D171D801691065CF060
:10553000FFEFCF1ADF0A41E1C416D10409F055CFBD
:10554000CC24CA94DC2C4AE0B601CE0101960E941C
:10555000E12267EF71E0CE0107960E941923BE0198
:105560006F5F7F4FCE0107960E9489220E94DD2146
:10557000CE0107960E94DC22CE0101960E94DC2219
:10558000AD85BE856D917D91BE87AD874AE0CE0128
:1055900001960E94E1226AE072E0CE0107960E9425
:1055A0001923BE016F5F7F4FCE0107960E948922AB
:1055B0000E94DD21CE0107960E94DC22CE010196D9
:1055C0000E94DC22E98DFA8D61917191FA8FE98F49
:1055D0004AE0CE0101960E94E1226BE172E0CE0129
:1055E00007960E941923BE016F5F7F4FCE01079679
:1055F0000E9489220E94DD21CE0107960E94DC22B2
:10560000CE0101960E94DC224D855E8541595340B2
:1056100009F0B6CF809163039091640320916503F4
:1056200030916603880F991FFC01E959FC4F4081B6
:105630005181FC01E757FC4F6081718100E2E02E4F
:105640000DEFF02E04E110E081EA95E00E9446158E
:1056500084EF91E0A0E0B0E080938604909387040B
:10566000A0938804B093890410928A0410928B044A
:1056700010928C0410928D0480917E0490917F048E
:10568000A0918004B091810480938204909383045C
:10569000A0938404B09385040E941F1D60937E0430
:1056A00070937F04809380049093810462E070E0A3
:1056B00080E090E00E94B91C6AE070E080E090E039
:1056C0000E94B91C85E680938F0480918F048336F5
:1056D00009F4B9C0853609F0ACC080918A04909174
:1056E0008B04A0918C04B0918D040196A11DB11D75
:1056F00080938A0490938B04A0938C04B0938D04C0
:1057000040918604509187046091880470918904C7
:10571000452B462B472B29F4892B8A2B8B2B09F001
:1057200088C00E941F1D00917A0410917B04209173
:105730007C0430917D04DC01CB01801B910BA20B1A
:10574000B30B4997A105B10538F463E070E080E040
:1057500090E00E94B91CE5CF0E941F1D60937A045F
:1057600070937B0480937C0490937D0484E00E947A
:10577000E5236CE272E08091BA049091BB040E9430
:10578000D124E0916303F0916403EE0FFF1FE7570C
:10579000FC4F608171818091BA049091BB040E949A
:1057A00073246CE272E08091BA049091BB040E9471
:1057B000D124E0916303F0916403EE0FFF1FE959D8
:1057C000FC4F608171818091BA049091BB040E946A
:1057D00073246CE272E08091BA049091BB040E9441
:1057E000D12460916503709166038091BA04909111
:1057F000BB040E9473246CE272E08091BA04909121
:10580000BB040E94D12464E170E08091BA049091BD
:10581000BB040E9473246EE272E08091BA049091FE
:10582000BB040E94BD2464EF71E080E090E00E9420
:10583000B91C6AE070E080E090E00E94B91C84E04E
:105840000E94772340CF0E941F1D60937E047093B7
:105850007F048093800490938104209165033091AC
:105860006603C601880F991FDC01A959BC4F5D0171
:105870004D915C91FC01E757FC4F6F016081718194
:10588000EFEEEE2EEBE7FE2E04E110E081EA95E06C
:105890000E94461544EF51E060E070E040938604BA
:1058A00050938704609388047093890410928A044B
:1058B00010928B0410928C0410928D0480917E04BF
:1058C00090917F04A0918004B09181048093820420
:1058D00090938304A0938404B09385040E941F1DB9
:1058E00060937E0470937F0480938004909381047E
:1058F00062E070E080E090E00E94B91C6AE070E035
:1059000080E090E00E94B91C85E680938F0480912E
:105910008F04833609F4ABC0853609F09EC08091B0
:105920008A0490918B04A0918C04B0918D0401960F
:10593000A11DB11D80938A0490938B04A0938C04C5
:10594000B0938D044091860450918704609188043F
:1059500070918904452B462B472B29F4892B8A2BE0
:105960008B2B09F07AC00E941F1D00917A041091C0
:105970007B0420917C0430917D04DC01CB01801BF1
:10598000910BA20BB30B4997A105B10538F463E065
:1059900070E080E090E00E94B91CE5CF0E941F1DDE
:1059A00060937A0470937B0480937C0490937D04CD
:1059B00083E00E94E5236CE272E08091BA0490914A
:1059C000BB040E94D124D6016D917C918091BA04D0
:1059D0009091BB040E9473246CE272E08091BA043F
:1059E0009091BB040E94D124F50160817181809166
:1059F000BA049091BB040E9473246CE272E080911F
:105A0000BA049091BB040E94D12460916503709107
:105A100066038091BA049091BB040E9473246CE2E7
:105A200072E08091BA049091BB040E94D12464E199
:105A300070E08091BA049091BB040E9473246EE2DE
:105A400072E08091BA049091BB040E94BD2464EF7F
:105A500071E080E090E00E94B91C6AE070E080E0B4
:105A600090E00E94B91C83E00E9477234ECF0E94F1
:105A70001F1D60937E0470937F0480938004909335
:105A800081040E94F4196ECA88E1E82E86ECF82E93
:105A900004E110E046E050E06EE070E081EA95E05D
:105AA0000E9446159EE0C92ED12C8BC9DF92EF9241
:105AB000FF920F931F93CF93DF931092DE03109208
:105AC000DD0388EE93E0A0E0B0E08093DF039093E5
:105AD000E003A093E103B093E20327E331E03093C6
