:100000000C94320C0C940D190C94E6180C944C11B1
:100010000C944C110C944C110C945A0C0C945A0CDA
:100020000C945A0C0C945A0C0C945A0C0C945A0CB8
:100030000C945A0C0C945A0C0C945A0C0C945A0CA8
:100040000C949C180C945A0C0C9484170C945E1706
:100050000C945A0C0C945A0C0C945A0C0C945A0C88
:100060000C9456110C945A0C05A84CCDB2D44EB930
:100070003836A9020C50B9918688083CA6AAAA2A4B
:10008000BE000000803F00000000050001000003EA
:100090000C0501F5050005050601F509000A0C0B24
:1000A00000F51800080E0A01F526000C0C0C00F5EE
:1000B00038000A0C0B01F5470002050301F5490061
:1000C00005100601F5530005100600F55D0007094F
:1000D0000800F4650009090B01F670000204040130
:1000E000FF710004020601FC720002020401FF73AA
:1000F00000050C0500F57B00070C0901F5860001E1
:100100000C0904F58800070C0901F59300070C0998
:1001100001F59E00080C0900F5AA00070C0901F57D
:10012000B500070C0901F5C000080C0901F5CC0069
:10013000070C0901F5D700070C0901F5E2000208D8
:100140000401F9E400020A0401F9E70009090B01BE
:10015000F6F20009040B01F8F70009090B01F60299
:1001600001040C0601F5080111111201F42D010C16
:100170000C0C00F53F01090C0A01F54D010B0C0DAB
:1001800001F55E010C0C0E01F57001070C0901F57B
:100190007B01070C0801F586010B0C0D01F5970199
:1001A0000B0C0D01F5A801020C0501F5AB010410C3
:1001B00005FFF5B3010B0C0C01F5C401080C090196
:1001C000F5D0010C0C0E01F5E2010C0C0E01F5F45A
:1001D000010D0C0F01F50802080C0901F514020DC0
:1001E0000E0F01F52B020A0C0B01F53A02070C0861
:1001F00001F545020B0C0B00F556020B0C0D01F539
:1002000067020B0C0B00F57802130C1300F5950236
:100210000D0C0D00F5A9020B0C0B00F5BA020B0C2E
:100220000C00F5CB0204100602F5D302050C050004
:10023000F5DB0204100600F5E30208070800F5EA02
:10024000020A010A0004EC0203030601F4EE0207AD
:10025000080800F9F502070C0901F5000306080873
:1002600001F90603070C0901F5110307080901F953
:100270001803050C0500F52003080C0800F92C03F1
:10028000070C0901F53703020B0401F63A03030FCB
:100290000400F64003080C0901F54C03020C0401AC
:1002A000F54F030C080E01F95B0307080901F96219
:1002B0000308080A01F96A03070C0901F975030725
:1002C0000C0901F9800306080701F98603050807F0
:1002D00001F98B03060A0600F7930307080901F9E1
:1002E0009A0308080800F9A2030D080D00F9AF03EE
:1002F00009080900F9B803080C0800F9C403070845
:100300000800F9CB0305110601F4D603011005021C
:10031000F5D80306110600F4E50309020B01FA5BA8
:1003200064920360DEF729000884210BFF11084264
:1003300013FF2318842108183EFEDAD8F87C1F1B0F
:100340009BFF7C18183847CCC487D03B00200400A2
:10035000DE0BE13333F21E3C1F8661983C0E078BA7
:10036000368731CFD9E7FE801188C46318C630863E
:1003700010C2420863086318C463110810234BA11C
:100380008FB48810080402010FF84020100800F60E
:10039000FFF0188423108C42310038FB1E38306087
:1003A000C1C78DF1C0FFF079FA342041820C30C111
:1003B000FFF079FA3020C70F07071BF3C002060EC3
:1003C0000E1E36667FFF0606067CF902078F8383C2
:1003D000071FF3C00838E3861FBFE3C38DF9E0FFB2
:1003E000FE060C0C0818103020606039FF1E3C6FB0
:1003F000BFE3838FFBE079FB1C3C7FCD871C70C182
:1004000000F00FF00F600187CF9E0C0780F81F01EE
:1004100080FF80001FF080781F81F0187DF9E08058
:10042000006733364C406603F007FE0F038600C6B4
:1004300039323E8B31C5106298214C31A73999FF72
:100440008473830018E03C3FF807F0000600600F5B
:1004500000F01981983083FC3FC606606C03FC7F76
:1004600031D86C67E3FD86C1E1FFDFC00F87FDC0B7
:10047000F00C0180300600E00E04FF87E0FF0FFC67
:10048000C0EC06C02C03C03C02C06C0CFFCFF0FFD8
:10049000FF060C1FFFE0C183FFF0FFFF060C1FFFEC
:1004A000E0C18306000FC7FDC0F00C0180307E0F55
:1004B000E06E0CFF87C0C0780F01E03C07FFFFFE35
:1004C00003C0780F01E030FFFFFF333333333333A2
:1004D00033FEC1986318660D81E0360660C6186366
:1004E000066060C0C0C0C0C0C0C0C0C0C0FFFFC008
:1004F0003E07F0FD9BCF3C63C63C03C03C03C03CC1
:1005000003C03E03F03D83CC3C63C23C33C1BC0F0F
:10051000C07C030F81FF1C1DC06C01E00F0078033D
:10052000E033838FF81F00FCFEC3C3C3FEFCC0C0D2
:10053000C0C0C00F81FF1C1DC06C01E00F0078031C
:10054000E03B838FF83F003F0070FC3F8C630CC69C
:100550003F8FC338C630CC1B0679FB140C0E0E0639
:10056000070FF3C0FFFFFC10020040080100200449
:100570000080100200C0780F01E03C0780F01E03ED
:10058000C06C19FF0F80C06819831043186206C041
:10059000D80E01C0100200C0C0681C19838330D877
:1005A000431318663204C6C0F0580E0E0181C030E5
:1005B0001002020060318306303B00F803801C010A
:1005C000B018C1871819C060E0CC18C60D80E018BB
:1005D0000100200400801002007FEFF80200C0300C
:1005E0000C010040180601FFBFF0FF88888888884A
:1005F00088FFC210C21086108610FF111111111150
:1006000011FF181C3434266243FFC0C88078FA10EA
:10061000E648913FC183060FDFF1E1C38FFFC03F82
:10062000FC20830FCF02040813AFF0C18385F9F0DB
:1006300039FB1FF8181F9E19D8CF798C6318C03F5B
:100640006746663C60607EC6C3E67CC183060DDFFC
:10065000F1E3C78F1E30F3FFFC6C36DB6DB790C043
:10066000C0C0C0C6CCD8F0D8CCC6C7FFFFFFFDEFD6
:10067000FEC63C63C63C63C63C63FDFF1E3C78F18E
:10068000E33C7EC38181C37E3CF9FF1E1C38FFFC26
:10069000C18306003FFF1C3878FF9F060C1830DB33
:1006A000FE70C30C3077F3E3C7FE0087FF61861846
:1006B0003CF0C78F1E3C78FFBBC34666243C18182D
:1006C00010C21A3899CC5B43DE1C60630208C33346
:1006D0000D8381C1B18D83C366663C3C1818103010
:1006E000206040FFF820C1041FBF39D8C63188867A
:1006F00018C6318738FFFFE3830C30C3040C730C3A
:1007000030C33CE0F8C78000000000070001000093
:1007100004110701F0090009060C01F010000E1287
:100720000E00F030000B140D01F04C0010111101FF
:10073000F06E0010111201F0900004060601F09313
:100740000008170901F0AA0008170900F0C1000A03
:100750000B0B01F0CF000C0B0E01F4E000040807B6
:1007600001FDE40006030801FAE70004040701FDA7
:10077000E90007110700F0F8000B110D01F010015E
:1007800003110D05F017010B110D01F02F010A11D6
:100790000D01F045010B110D01F05D0109100D0275
:1007A000F16F010B110D01F087010A110D02F09D8F
:1007B000010B110D01F0B5010B110D01F0CD01047C
:1007C0000B0701F6D301040F0701F6DB010C0D0E38
:1007D00001F2EF010C080E01F5FB010C0D0E01F208
:1007E0000F0207110901F01E0216161801F05B0234
:1007F00013111300F084020E111102F0A202101165
:100800001301F0C40210111302F0E6020C110F02E2
:10081000F000030B110F02F0180311111401F03D49
:100820000310111402F05F0304110802F0680307BB
:100830001508FFF07B030F111102F09B030C110F41
:1008400002F0B50311111502F0DA0310111402F0D1
:10085000FC0313111501F025040D111002F04104E1
:1008600013151501F073040E111002F091040D110F
:100870000F01F0AD0410111101F0CF04101114029A
:10088000F0F10411111100F016051C111C00F052BA
:100890000513111400F07B0511111100F0A00510D3
:1008A000111100F0C20508160B02F0D80507110758
:1008B00000F0E70509160B00F000060C090E01F028
:1008C0000E060C010C0003100608070A01F01706BB
:1008D0000C0B0D01F628060C110E01F042060A0B56
:1008E0000C01F650060C110E01F06A060B0B0D01FF
:1008F000F67A0609110700F08E060C110D01F6A814
:10090000060C110E01F0C20604110701F0CB06051A
:10091000170700F0DA060C110D02F0F406031107B8
:1009200002F0FB06140B1702F617070C0B0E01F66C
:1009300028070C0B0E01F639070C110E01F65307B0
:100940000C110E01F66D07090B0B02F67A07090B65
:100950000A01F68707090E0A00F397070C0B0E0130
:10096000F6A8070C0B0C00F6B907130B1300F6D40E
:10097000070D0B0D00F6E6070C110C00F600080C35
:100980000B0D00F6110808160901F02708031607D9
:1009900002F0300808160901F0460817181800EE92
:1009A0007FFFFF77662007FF70F3F9FCFC763B1CA6
:1009B0000E1838E0E3830E1C3BFFFFFFFFFF1870AB
:1009C000E18FFFFFFFFFFDC3870C1C3071C1C70023
:1009D0000C03F1FF766EC5D83F03E07F83F83F86B6
:1009E00070CF19FB7FFE3F0180300600380CFC18E9
:1009F000C618C630C660C660FCC039800180033CA2
:100A0000067E06E60CC718C718E6307E603C07C0B5
:100A10001FE03FF03CF03C703CE01FE01FC03F8710
:100A20007FCFFBFEF1FEF0FCF0F8FFFC7FFE1F1F06
:100A3000FFFE66070E1C1C38787870F0F0F0F0F0BE
:100A4000F0F0707878381C1C0E07E070383C1C1EE3
:100A50000E0F0F0F0F0F0F0F0F0F0E1E1C3C3870D5
:100A6000E01C070CCBA7FB830FBFA7CC8701C00FEF
:100A700000F00F00F0FFFFFFFFF0F00F00F00F009D
:100A80006FF7776CFFFFC07FF70E1870E1830E1CC5
:100A90003060C3870C1870E01F07F1FF3CE71FE3CD
:100AA000FC7F8FF1FE3FC7F8F71EF39FF1FC1F009C
:100AB000FFFFFFFFFFFFE01F0FF1FF31E83C038066
:100AC000F01E0380F01C0781E0380FFBFFFFE03EC3
:100AD0001FE7F91F03C0F0783C0F03E03C0F03E071
:100AE000FFFFFE7E0001C0380F03E0FC3F87F1DE10
:100AF00073DC7BFFFFFFFE0780F01E03C0FFFFFFDC
:100B0000FE0F0783F9FEFF83C0E0787FFFFDFC073F
:100B100081E03C0F01C0781FC3FE7FDE3FC7F8FFB6
:100B20001FE3DFF1FC1F00FFFFFFFC1E0781E0F069
:100B30003C0F0781E0703C0F0381E018001F07F1B4
:100B4000E738F71EE3DE71FC3F8F3BC7F8FF1FE37A
:100B5000DE79FE1F001F07F1FF38FF1FE3FC7F8FC8
:100B60007FE7F87F03C0781E07C0F03C007FF700E6
:100B700007FF707FF70006FF7776C000100F03F1C4
:100B8000FE7F8FC0F00FC07F81FE03F00F0010FFCB
:100B9000FFFFFFF000000FFFFFFFFF800F00FC07CB
:100BA000F81FE03F00F03F1FE7F8FC0F008000F95E
:100BB000FBF8F1E3CF1C38E0C1000E1E3C7000FED4
:100BC000001FFF00F01E07001C380039C3CE661F4F
:100BD000F9B8E3C7C7070F1C1C3CE071F381C6CE10
:100BE0000E1B3838CC71E639FFF063EF81C000731B
:100BF000C00383C03C07FFE003FC0003F0007E005D
:100C00000FC003FC007F800F7803CF0079F01F1E18
:100C100003C3C0783C1FFF83FFF8FFFF1E01F3C032
:100C20001EF803E0FFC3FF8FFF3C7CF0F3C3CF1E31
:100C30003FF0FFF3FFEF07BC1FF07FC1EFFFBFFCEA
:100C4000FFE003FC0FFF1FFF3F077C017800F80067
:100C5000F000F000F000F80078007C013F071FFF73
:100C60000FFF03F8FFC0FFF8FFFCF07EF03EF01F1F
:100C7000F00FF00FF00FF00FF00FF01FF03EF07ECE
:100C8000FFFCFFF8FFC0FFFFFFFFFF00F00F00F0C9
:100C90000FFEFFEFFEF00F00F00F00FFFFFFFFF071
:100CA000FFFFFFFFF80F01E03C07FFFFFFFFC078E9
:100CB0000F01E03C0780F00003FC07FF87FFC7E05F
:100CC000E7C00BC003E001E000F03FF81FFE0FEFAC
:100CD00000F7C079F07C7FFE1FFE03F800F00FF0F4
:100CE0000FF00FF00FF00FF00FFFFFFFFFFFFFF00F
:100CF0000FF00FF00FF00FF00FF00FF00FF00FFFED
:100D0000FFFFFFFFFFFFFFF01E3C78F1E3C78F1EE0
:100D10003C78F1E3C78F1E7FF7EF00F07DE1F3C76A
:100D2000C78F0F3E1E783DF07FC0FF01FF03DF0736
:100D30009F0F1F1E3E3C3E783EF03EF00F00F00F2E
:100D400000F00F00F00F00F00F00F00F00F00F00A8
:100D5000FFFFFFFFF0F007FC03FE03FF83FFE3FF4D
:100D6000F9FFFDFFFFFFF7F7F9F3FC71FE10FF003D
:100D70007F803FC01FE00FF00780F00FF80FFC0FDF
:100D8000FE0FFE0FFF0FFF8FF7CFF3EFF1FFF0FF26
:100D9000F0FFF07FF03FF01FF00FF00703F801FFC6
:100DA000C07FFC1F07C7C07CF007BE00FF800FF0AC
:100DB00001FE003FE00FBC01E7C07C7C1F07FFC0C5
:100DC0007FF003F800FFC7FF3FFDE1EF0FF87FC39F
:100DD000DFFEFFE7FE3C01E00F007803C01E00F0DD
:100DE0000003F801FFC07FFC1F07C7C07CF007BEEF
:100DF00000FF800FF001FE003FE00FBC01E7C07C68
:100E00007C1F07FFC07FF003F8001FC001FF800FA9
:100E1000E00078FFC3FF8FFF3C3CF0FBC3CF0F3FE8
:100E2000F8FFC3FF0F3E3C7CF0F3C3EF07BC1EF09E
:100E30007C1FC1FF9FFDF06F007C03F80FF83FE0BF
:100E40007F807C01F80FF07BFFCFFC1F80FFFFFF4E
:100E5000FFFFFF03C003C003C003C003C003C00300
:100E6000C003C003C003C003C003C003C003C0F07D
:100E70000FF00FF00FF00FF00FF00FF00FF00FF07A
:100E80000FF00FF00FF00FF81F7C3E7FFE3FF80FC2
:100E9000E0F807BC07DF03C783E3E1E0F1F078F097
:100EA0003E780F7807FC01FE00FE003F001F0007A0
:100EB00080038000C000F80F01F780F01E781F81CA
:100EC000E7C1F83E3C3FC3C3E3FC7C1E7FE781E7FC
:100ED0009E780FF9FF00FF0FF00FF0FF007E07E094
:100EE00007E07E003E07C003C03C001C0380018079
:100EF0001800FC07E7C1F8FC3E0F8F80FBE00FF8FD
:100F000000FF001FC001F8007F001FF007FF00FB7B
:100F1000F03E3F0F83E3F03EFC03E0F80FBE0F8F7F
:100F200007C7C7C1F7C07BE03FE00FF003F001F057
:100F300000F8007C003E001F000F8007C003E000A7
:100F40007FFF7FFE7FFC007C00F801F801F003E0EA
:100F500003E007C00F800F801F003E003FFF7FFFB0
:100F6000FFFFFFFFFFF0F0F0F0F0F0F0F0F0F0F036
:100F7000F0F0F0F0F0FFFFFFE0C183070E0C18382F
:100F80007060C1C383060EFFFFFFE0F0783C1E0FC8
:100F90000783C1E0F0783C1E0F0783C1FFFFFFFC11
:100FA0000700F00F81F81F839C39C70EF0F0FFF0A7
:100FB000107EE7C7C7E67E7F8FF8C3C83C0FC3FC2F
:100FC000F3CE3CE3DFFF7DE0F00F00F00F00F00F09
:100FD00000F78FFEF1EF0FF07F07F0FF0FF1EFFE4C
:100FE000F7801F8FF787C0F03C0F03C0784FF1F8F0
:100FF00000F00F00F00F00F00F1FF7FF78FF0FE079
:10100000FE0FE0FF0F70F7FF1EF01F8FF9C3F87F90
:10101000FFFFFC0780782FFC7F00078FC7078381C5
:10102000C3F9FC381C0E070381C0E07038001FF7BD
:10103000FF71CF1EE1E71C7FC1F07803F83FEF3E60
:10104000E0EE0EF1E7FC3F80F00F00F00F00F00F34
:1010500000F3CFFEF9EF0FF0FF0FF0FF0FF0FF0FDF
:10106000F0F06FF6007777777777703BDE7000E708
:1010700039CE739CE739DEFF7980E00E00E00E0088
:10108000E00E00E1EE3CE78EF0FE0FF0EF0E78E3AD
:10109000CE3CE1F0FFFFFFFFFFFFE0E7878FFCFEA4
:1010A000F1F9EE0F0EE0E0FE0E0FE0E0FE0E0FE0B5
:1010B000E0FE0E0FE0E0F0F7CFFEF8EF0EF0FF0FCE
:1010C000F0FF0FF0FF0FF0F01F83FE78EF0FF07FBF
:1010D00007F07F0F78F3FE1F80F78FFEF0EF0FF021
:1010E0007F07F07F0FF1EFFEFF8F00F00F00F00F92
:1010F00000F0001EF7FF70FF0FE0FE0FE0FF0F781B
:10110000F7FF1FF00F00F00F00F00F00F0E777FF80
:10111000DF2F070381C0E07038003E3FB85F0FE368
:10112000F8FC1F877F9F80080C0E0FFFF9C0E0704E
:10113000381C0E0791F878F0FF0FF0FF0FF0FF0F4B
:10114000F0FF0F71F7FF3EF0F0F70F79E39E3DC11E
:10115000FC1F80F80F00F00600F0E1EE1C39E78F6D
:101160001CF9C3BF787F7E07EFC0F8F00F1E01C3E4
:10117000C0183000F8FBC78F783F80F803C03E03EB
:10118000F83DE3C7BC1EF0F70F79E39E3DC1FC1F9D
:1011900081F80F80F00F00E01E01C03C0380780052
:1011A0007FF7FE03C07C0780F01F01E03C07FFFFD4
:1011B000F00F1F3C38383838383870E0F07838385D
:1011C000383838383C1F0FFFFFFFFFFFFFFFFFC01D
:1011D000E0F0383838383838381C0F1F3C38383889
:1011E00038383838F0E07FFFFD10004620008C4092
:1011F00001188002310004620008C4001188002335
:1012000010004620008C3FFE1800003000006000F7
:1012100000C1FFC1821F83043F06087E0C10FC182A
:1012200021F82843F04887E08FFFFE00000100FF0F
:10123000003200010000010200000703003010042A
:1012400000000008000202090000000A0000000C73
:101250000000000D0000000F000000100000001151
:101260000007001200000013000000FF00C800107B
:1012700000901611002702FF00320012001A00FF32
:101280000032001300001829002A00FF003200304D
:101290000000003100000032000000350006023678
:1012A0000008083700070038000102390000003C40
:1012B0000000003D00000020000000210000005060
:1012C0000000005100EF005200000053003F016099
:1012D0000000A7610003006A000000900010009267
:1012E0000000009300030095000011970000009893
:1012F000000000070033011F038600207E14A009B0
:101300000707207E1B00000000003E5B4F5B3E3E57
:101310006B4F6B3E1C3E7C3E1C183C7E3C181C57A1
:101320007D571C1C5E7F5E1C00183C1800FFE7C345
:10133000E7FF0018241800FFE7DBE7FF30483A0614
:101340000E2629792926407F050507407F05253F80
:101350005A3CE73C5A7F3E1C1C08081C1C3E7F146C
:10136000227F22145F5F005F5F06097F017F0066B6
:1013700089956A606060606094A2FFA29408047E10
:10138000040810207E201008082A1C08081C2A08BF
:10139000081E101010100C1E0C1E0C30383E383079
:1013A000060E3E0E06000000000000005F00000078
:1013B00007000700147F147F14242A7F2A122313A6
:1013C00008646236495620500008070300001C22BA
:1013D00041000041221C002A1C7F1C2A08083E08EC
:1013E00008008070300008080808080000606000ED
:1013F00020100804023E5149453E00427F400072E1
:10140000494949462141494D331814127F10274557
:101410004545393C4A494931412111090736494975
:101420004936464949291E00001400000040340096
:10143000000008142241141414141400412214084A
:1014400002015909063E415D594E7C1211127C7F02
:10145000494949363E414141227F4141413E7F4910
:101460004949417F090909013E414151737F0808FB
:10147000087F00417F41002040413F017F08142246
:10148000417F404040407F021C027F7F0408107F64
:101490003E4141413E7F090909063E4151215E7F9F
:1014A00009192946264949493203017F01033F4072
:1014B00040403F1F2040201F3F4038403F631408FA
:1014C000146303047804036159494D43007F41418B
:1014D000410204081020004141417F04020102043E
:1014E0004040404040000307080020545478407FAB
:1014F000284444383844444428384444287F3854E5
:1015000054541800087E090218A4A49C787F08048B
:10151000047800447D40002040403D007F10284476
:101520000000417F40007C047804787C0804047843
:101530003844444438FC1824241818242418FC7C0B
:1015400008040408485454542404043F44243C40F0
:1015500040207C1C2040201C3C4030403C44281053
:1015600028444C9090907C4464544C44000836418C
:10157000000000770000004136080002010204026A
:101580003C2623263C1EA1A161123A4040207A3815
:101590005454555921555579412254547842215576
:1015A00054784020545579400C1E527212395555CA
:1015B0005559395454545939555454580000457CA0
:1015C000410002457D420001457C407D1211127DA3
:1015D000F0282528F07C545545002054547C547C38
:1015E0000A097F4932494949323A4444443A324A25
:1015F0004848303A4141217A3A42402078009DA043
:10160000A07D3D4242423D3D4040403D3C24FF24C0
:1016100024487E4943662B2FFC2F2BFF0929F620F7
:10162000C0887E090320545479410000447D413034
:1016300048484A32384040227A007A0A0A727D0DC0
:1016400019317D2629292F28262929292630484D78
:101650004020380808080808080808382F10C8ACC7
:10166000BA2F102834FA00007B000008142A142234
:1016700022142A14085500550055AA55AA55AAFF48
:1016800055FF55FF000000FF00101010FF0014145C
:1016900014FF001010FF00FF1010F010F0141414CD
:1016A000FC001414F700FF0000FF00FF1414F40402
:1016B000FC141417101F10101F101F1414141F00F7
:1016C000101010F0000000001F101010101F10105C
:1016D0001010F010000000FF10101010101010106B
:1016E00010FF10000000FF140000FF00FF00001FAB
:1016F00010170000FC04F414141710171414F40449
:10170000F40000FF00F714141414141414F700F775
:10171000141414171410101F101F141414F41410A0
:1017200010F010F000001F101F0000001F14000038
:1017300000FC140000F010F01010FF10FF1414143F
:10174000FF141010101F00000000F010FFFFFFFF3B
:10175000FFF0F0F0F0F0FFFFFF0000000000FFFFDF
:101760000F0F0F0F0F3844443844FC4A4A4A347E66
:1017700002020606027E027E026355494163384436
:10178000443C04407E201E2006027E020299A5E70A
:10179000A5991C2A492A1C4C7201724C304A4D4DA5
:1017A000303048784830BC625A463D3E494949008D
:1017B0007E0101017E2A2A2A2A2A44445F444440A9
:1017C000514A444040444A51400000FF0103E08038
:1017D000FF000008086B6B083612362436060F0926
:1017E0000F06000018180000001010003040FF0124
:1017F00001001F01011E00191D1712003C3C3C3C5A
:10180000000000000000000000240027002A000063
:10181000000000230026002900000000080002014B
:1018200000000304070000000000000000010204A3
:101830000810204080010204081020010204081052
:101840002000000000250028002B000404040404EC
:10185000040404020202020202030303030303005E
:10186000D12EC22E11241FBECFEFD8E0DEBFCDBFD8
:1018700024E0A6E1B2E001C01D92A13BB207E1F76E
:1018800012E0A0E0B1E0EEEEFDE602C005900D92A0
:10189000A631B107D9F71CE0C1E3DCE004C0219711
:1018A000FE010E94CF34C033D107C9F70E94ED2654
:1018B0000C94EA360C9400006F927F928F929F9264
:1018C000AF92BF92CF92DF92EF92FF920F931F934E
:1018D000CF93DF93EC014B015A0169013801E88194
:1018E000F9810680F781E02D0995E881F981068468
:1018F000F785E02D87019601A501B401CE01099578
:10190000E881F981A501460D571D41505109068412
:10191000F785E02D9601B401CE010995E881F981A2
:101920000484F585E02D9301A501B401CE0109954C
:10193000E881F981C80CD91CB60161507109048491
:10194000F585E02D9301A501CE010995E881F98186
:101950000288F389E02DCE01DF91CF911F910F9185
:10196000FF90EF90DF90CF90BF90AF909F908F90BF
:101970007F906F900994CF92DF92EF92FF920F9336
:101980001F93CF93DF9300D000D000D0CDB7DEB748
:101990006C01DC01ED91FC916217730789F4041767
:1019A00015072CF4942F852FA801092F182F041B3D
:1019B000150B98012F5F3F4F008CF18DE02D12C069
:1019C0004017510709F5261737072CF4962F872F54
:1019D000B901292F382F261B370B2F5F3F4F028C61
:1019E000F38DE02D8701C601099526960FB6F89470
:1019F000DEBF0FBECDBFDF91CF911F910F91FF9042
:101A0000EF90DF90CF9008950680F781E02D2D8331
:101A10003E834B835C8369837A830995D601ED917C
:101A2000FC910088F189E02D2D813E814B815C8104
:101A300069817A81C6010995D601ED91FC910288F0
:101A4000F389E02DC60126960FB6F894DEBF0FBECF
:101A5000CDBFDF91CF911F910F91FF90EF90DF905D
:101A6000CF900994EF92FF920F931F93DC01ED91B9
:101A7000FC9111971A960D911C911B9718962D9118
:101A80003C911997048CF58DE02D7B0140E050E0EE
:101A900060E070E009951F910F91FF90EF9008951D
:101AA0004F925F926F927F928F929F92AF92BF926E
:101AB000CF92DF92EF92FF920F931F93CF93DF931A
:101AC00000D0CDB7DEB76C015A0139014801DC0105
:101AD000ED91FC910680F781E02D69837A83099569
:101AE0006981462E7A81572E640C751CD601ED91C2
:101AF000FC91461457046CF40484F585E02D8701AD
:101B00009401A501B201C6010995BFEF4B1A5B0A0A
:101B1000EDCF0288F389E02DC6010F900F90DF9181
:101B2000CF911F910F91FF90EF90DF90CF90BF90DA
:101B3000AF909F908F907F906F905F904F9009949F
:101B4000AF92BF92CF92DF92EF92FF920F931F93CB
:101B5000CF93DF9300D000D0CDB7DEB75C01690131
:101B6000DC01ED91FC910680F781E02D4B835C83D5
:101B700069837A830995D501ED91FC9169817A8118
:101B80009B012C0D3D1D215031090088F189E02D6C
:101B900078014B815C818A01C5010995D501ED91E0
:101BA000FC910288F389E02DC5010F900F900F90F2
:101BB0000F90DF91CF911F910F91FF90EF90DF90E9
:101BC000CF90BF90AF900994AF92BF92CF92DF9227
:101BD000EF92FF920F931F93CF93DF9300D000D02B
:101BE000CDB7DEB75C016901DC01ED91FC910680A7
:101BF000F781E02D4B835C8369837A830995D50156
:101C0000ED91FC914B815C81C40ED51EB1E0CB1AE5
:101C1000D1080088F189E02D7801860169817A81F7
:101C20009B01C5010995D501ED91FC910288F389CD
:101C3000E02DC5010F900F900F900F90DF91CF9185
:101C40001F910F91FF90EF90DF90CF90BF90AF90DA
:101C500009940895EF92FF920F931F93DC01ED9189
:101C6000FC91048CF58DE02D09951F910F91FF904B
:101C7000EF9008950F931F93DC01ED91FC91028C7E
:101C8000F38DE02D09951F910F9108950F931F93E8
:101C9000DC01ED91FC91008CF18DE02D09951F91F7
:101CA0000F910895DC01ED91FC910480F581E02D08
:101CB000099408952F923F924F925F926F927F9274
:101CC0008F929F92AF92BF92CF92DF92EF92FF924C
:101CD0000F931F93CF93DF9300D01F92CDB7DEB742
:101CE0004C017B836A836A01590117019801241B07
:101CF000350B37FF03C0319521953109C5014A8164
:101D00005B81841B950B97FF03C091958195910989
:101D100051E059838217930714F019820BC09A2D52
:101D20008B2D5801092F182F9A818B81DB82CA8253
:101D3000C92ED82E8A819B81A816B9065CF49C2DE9
:101D40008D2D6801092F182F9A818B81BB82AA8261
:101D5000A92EB82E2501AA81BB814A1A5B0A380137
:101D60006C187D0877FE03C071946194710872014C
:101D700057FE03C0BFEFEB1AFB0AF594E794C016B9
:101D8000D1061CF00FEF1FEF1FC001E010E01CC0D8
:101D9000D401ED91FC91B9810084F185E02D910190
:101DA000BB23C1F04A815B81B601C4010995E618E5
:101DB000F708F7FE04C0C00ED11EE40CF51CEA8142
:101DC000FB813196FB83EA834A815B81A416B506C9
:101DD000FCF604C0A6016A817B81E7CF0F900F90CB
:101DE0000F90DF91CF911F910F91FF90EF90DF90B7
:101DF000CF90BF90AF909F908F907F906F905F90AB
:101E00004F903F902F90089585ED8093BC00809176
:101E1000BC0084FDFCCF1092B302089540918D0266
:101E2000262F30E0240F311D21323105DCF42091C2
:101E3000B3022430C9F4FC0180E090E0861758F426
:101E400030918D022191DC01A559BD4FA30FB11D29
:101E50002C930196F3CF80918D02680F60938D02D1
:101E600080E0089581E0089582E0089508958FEF5D
:101E70009FEF08958FEF9FEF089580916A0290E0A1
:101E80009195819591090895CF93DF9300D0CDB7B7
:101E9000DEB7CB01642F49835A830E940E0F49811C
:101EA000842F5A81952F0F900F90DF91CF91089535
:101EB000CF93DF931F92CDB7DEB7698361E0CE0188
:101EC00001960E940E0F81E090E00F90DF91CF917C
:101ED00008952F923F924F925F926F927F928F92CE
:101EE0009F92AF92BF92CF92DF92EF92FF920F93A9
:101EF0001F93CF93DF93CDB7DEB76C970FB6F894EF
:101F0000DEBF0FBECDBF9C8F8B8F1B012A011887B0
:101F10000F83FE82ED82CA82DC0158964D915C915E
:101F200059974115510509F0B2C018968D919C91B1
:101F30001997681779070CF096C11A968D919C91A4
:101F40001B97481659060CF08EC1AC2CB12CCB0156
:101F5000B6E0CB9E800D911D1124181619060CF0C9
:101F600082C1C50133E0880F991F3A95E1F7840DCE
:101F7000951D181619060CF076C1AB8DBC8D5796C1
:101F80008C91811103C0203B08F02F5FAB8DBC8D7D
:101F9000ED91FC9111970680F781E02DCD012A8FFC
:101FA00009952A8DB5E02B9F900111246101410113
:101FB0001B82F901E219F309FA87E9879201285F88
:101FC0003F4F3C872B873B81353049F0E985FA85C7
:101FD000E80DF91DEB5FFC4E4491498301C0198265
:101FE00032011201598150FF13C0AB8DBC8DED91B0
:101FF000FC91BA81B13031F40084F185E02D2F815C
:10200000388519C00284F385E02DEF80F8841EC066
:10201000ED81FE812F813885E217F307F1F0AB8D5A
:10202000BC8DED91FC91BA81B13059F40084F185F9
:10203000E02D2D813E81A301B4018B8D9C8D0995EE
:102040000CC00284F385E02DED80FE8085019501B2
:10205000A101B6018B8D9C8D0995E981E695E983F7
:10206000FFEF6F1A7F0A2A0C3B1C2B853C856216FA
:10207000730609F0B7CF3B813F5F3B834FEF841A74
:10208000940ACA0CDB1C363009F09DCFCAC0FA0195
:1020900034969491329765917491291BCB01B7E0E6
:1020A0002B9F800D911D1124FA01259134913A8BBB
:1020B000298BFC0165907490FC01329634913D832C
:1020C000319644914B873296C490319614915A813F
:1020D000523058F08C2C0C2C000C9908812F012EBA
:1020E000000C990B9C838B8304C01C821B82812C67
:1020F000912CAB8DBC8DED91FC9111970680F781F1
:10210000E02DCD010995BA81AB2EB12C8A9CC0017E
:102110008B9C900D9A9C900D1124FC01E20DF31DF7
:10212000F88BEF871982912C812CEC2DCC0CFF0BB6
:1021300091012E0F3F1F3A87298761013D81C30E10
:10214000D11CA6014E0F5F1F5F8B4E8BC201810F0A
:10215000911D17FD9A95998F888F5B85851608F0DC
:1021600060C0882D90E04B815C81480F591F4A9DCB
:1021700090014B9D300D5A9D300D1124D901A40DB5
:10218000B51DBE87AD87C984DA842F843888B981AC
:10219000E985BE1BBB8B288D398D280F391F3D8BE0
:1021A0002C8B8B898C0D2E893F89C216D30699F111
:1021B000877041F4C3010196E989FA89E60DF71D9C
:1021C00094903C0197FE20C0AB8DBC8DED91FC91AD
:1021D000BA81B13061F40084F185E02D2F8138851A
:1021E0004C895D89B6018B8D9C8D09950DC002844B
:1021F000F385E02DEF80F884850195014D855E859E
:10220000B1018B8D9C8D0995990CEFEFCE1ADE0AEA
:102210002A0C3B1CC6CF39814D81340F39838394FE
:102220009CCFAB8DBC8DED91FC9111970288F38909
:10223000E02DCD016C960FB6F894DEBF0FBECDBF7A
:10224000DF91CF911F910F91FF90EF90DF90CF9092
:10225000BF90AF909F908F907F906F905F904F90C6
:102260003F902F9009946C960FB6F894DEBF0FBE86
:10227000CDBFDF91CF911F910F91FF90EF90DF9035
:10228000CF90BF90AF909F908F907F906F905F9016
:102290004F903F902F9008951F920F920FB60F927C
:1022A00011240F900FBE0F901F9018951F920F9240
:1022B0000FB60F9211242F933F934F935F936F9319
:1022C0007F938F939F93AF93BF93EF93FF938091EF
:1022D000B900887F803609F49CC068F5883209F41B
:1022E0005BC090F4803109F454C038F4882309F4B9
:1022F000F6C0883009F44DC0F6C0883109F44CC0EE
:10230000803209F45DC0EFC0803409F468C048F43D
:10231000803309F455C0883309F0E5C08093B202D8
:10232000D8C0803509F44FC0883509F45DC08834C1
:1023300009F0D9C0D6C0883909F4C7C0A8F48837D5
:1023400009F467C038F4883609F463C0803709F4AB
:1023500060C0C9C0883809F4B8C0803909F45FC0CA
:10236000803809F0C0C05BC0803B09F486C038F4F7
:10237000803A09F466C0883A09F47FC0B4C0803C52
:1023800009F4A7C0883C09F4A4C0883B09F48AC0BA
:10239000AAC08091D80210C09091D7028091D60235
:1023A000981770F5E091D70281E08E0F8093D702E5
:1023B000F0E0EA54FD4F80818093BB0085EC86C03D
:1023C0008093B2028EC0E091D70281E08E0F80939D
:1023D000D7028091BB00F0E0EA54FD4F80839091DA
:1023E000D7028091D6026EC0E091D70281E08E0FB5
:1023F0008093D7028091BB00F0E0EA54FD4F8083C8
:102400008091B50281116DC081E08093B40284EAAD
:1024100061C083E08093B3021092B102CFCF80916C
:10242000B102803208F051C0E091B10281E08E0F1C
:102430008093B1028091BB00F0E0EF56FD4F8083A6
:10244000BDCF85EC8093BC001092B3028091B102A5
:10245000803230F4E091B102F0E0EF56FD4F10828F
:102460006091B10270E0E0918F02F091900281E9F9
:1024700092E009951092B10236C084E08093B302D5
:1024800010928E0210928D02E0918B02F0918C02DC
:10249000099580918D02811105C081E080938D02A4
:1024A00010926B02E0918E0281E08E0F80938E027B
:1024B000F0E0E559FD4F80818093BB0090918E0242
:1024C00080918D02981708F479CF85E88093BC003D
:1024D0000AC085EC8093BC001092B30204C0109235
:1024E000B2020E94040FFF91EF91BF91AF919F91B3
:1024F0008F917F916F915F914F913F912F910F90AD
:102500000FBE0F901F901895AF92BF92CF92DF929F
:10251000EF92FF920F931F93CF93DF93CDB7DEB768
:102520006E970FB6F894DEBF0FBECDBF00E011E08E
:102530008CE1A82E82E0B82E9CE3C92E92E0D92E21
:1025400029E0E22E24E0F22EF801619171918F01D1
:102550004AE0CE0149960E941921F50161917191DD
:102560005F014AE0CE0143960E941921F601619174
:1025700071916F014AE0CE010D960E941921B701B9
:10258000CE0107960E9451216EEC71E0CE010196BA
:102590000E946B21BE01695F7F4FCE0101960E94B0
:1025A000012166ED71E00E94E820BE01635F7F4F6C
:1025B0000E9401216CED71E00E94E820BE016D5E79
:1025C0007F4F0E94012162EE71E00E94E820BE016F
:1025D000675E7F4F0E940121BC0180EE92E00E9465
:1025E000802164EA71E080EE92E00E948E21CE01AB
:1025F00001960E941421CE0107960E941421CE015B
:102600000D960E941421CE0143960E941421CE0102
:1026100049960E941421F6E0EF0EF11C81E0003291
:10262000180709F091CF6E960FB6F894DEBF0FBE73
:10263000CDBFDF91CF911F910F91FF90EF90DF9071
:10264000CF90BF90AF9008958F929F92AF92BF921C
:10265000CF92DF92EF92FF920F931F93CF93DF936E
:102660005C016B01FC018480958039E0E32E34E04D
:10267000F32E00E010E0CFEFDFEFF70184819581CA
:102680008815990539F4B501C7010E94B820892B36
:1026900009F4E8010F5F1F4FF6E0EF0EF11C003167
:1026A000110559F782E0C816D10461F0E3E0CE16B7
:1026B000D10469F0CA94CD2889F4CC0FDD1FC45C25
:1026C000DD4F09C0CC0FDD1FC45EDD4F04C0CC0F51
:1026D000DD1FC050DF4F8881998101C0CE01DF919D
:1026E000CF911F910F91FF90EF90DF90CF90BF900F
:1026F000AF909F908F9008955F926F927F928F928C
:102700009F92AF92BF92CF92DF92EF92FF920F9380
:102710001F93CF93DF938C015B016A017901FC0168
:1027200084809580612C712CCFEFDFEF46E0542E32
:10273000569CC001579C900D1124875F9B4FFC0154
:10274000248135812815390549F4B8010E94B82043
:10275000892B21F4E30130E1632E712CFFEF6F1A16
:102760007F0A80E1681671041CF3CE01880F991F5F
:10277000FC01E45CFD4FB182A082FC01E45EFD4FF0
:10278000D182C082FC01E050FF4FF182E082DF91F4
:10279000CF911F910F91FF90EF90DF90CF90BF905E
:1027A000AF909F908F907F906F905F900895109260
:1027B0007E0410927D0410927C0410927B04809120
:1027C000830490918404892B49F08091790490913D
:1027D0007A04069790937A04809379041092840483
:1027E000109283040895AF92BF92CF92DF92EF923E
:1027F000FF920F931F93CF93DF9300D000D0CDB7FC
:10280000DEB78C015B01BA01550F880B990B0E9452
:102810008D312BED3FE049E450E40E94C83120E0C7
:1028200030E044E353E40E9460330E9447349B014C
:10283000AC01B801110F880B990B29833A834B83A4
:102840005C830E948D316B017C01B501BB0C880B50
:10285000990B0E948D3129813A814B815C810E94C4
:10286000C8319B01AC01C701B6010E94EF320E9442
:10287000D233CB010F900F900F900F90DF91CF913B
:102880001F910F91FF90EF90DF90CF90BF90AF908E
:102890000895AF92BF92CF92DF92EF92FF920F9383
:1028A0001F93CF93DF9300D000D0CDB7DEB78C015C
:1028B0005B01BA01550F880B990B0E948D312BEDEE
:1028C0003FE049E450E40E94C83120E030E044E3B6
:1028D00053E40E9460330E945B339B01AC01B8015A
:1028E000110F880B990B29833A834B835C830E94D9
:1028F0008D316B017C01B501BB0C880B990B0E94DB
:102900008D3129813A814B815C810E94C8319B01C4
:10291000AC01C701B6010E94EF320E94D233CB0155
:102920000F900F900F900F90DF91CF911F910F910B
:10293000FF90EF90DF90CF90BF90AF9008954F92AF
:102940005F926F927F928F929F92AF92BF92CF923F
:10295000DF92EF92FF920F931F93CF93DF9300D0FC
:1029600000D000D0CDB7DEB73C0120917304309188
:102970007404C901859797FD03969595879595955C
:10298000879590931B0280931A0210927E041092F6
:102990007D0410927C0410927B0439E0832E34E095
:1029A000932EA12CB12C4EE0C42ED12C59E0452EF3
:1029B000512C20911A0230911B026A147B0429F4D5
:1029C00098E1E92E96ECF92E04C08FEEE82E8BE705
:1029D000F82E04E110E046E050E0B6018BE694E00A
:1029E0000E949825B401CE0101960E94512121E058
:1029F00030E046E050E0B601CE0101960E947C1323
:102A0000CE0101960E941421C6010296909378048B
:102A10008093770450927A0440927904B4018BE653
:102A200094E00E9480210E94D7138FEFA81AB80A61
:102A300084E0A816B10469F080911A0290911B02FB
:102A4000C80ED91E83E0C80ED11C86E0880E911CEA
:102A5000B0CF26960FB6F894DEBF0FBECDBFDF9184
:102A6000CF911F910F91FF90EF90DF90CF90BF908B
:102A7000AF909F908F907F906F905F904F90089550
:102A80002F923F924F925F926F927F928F929F927E
:102A9000AF92BF92CF92DF92EF92FF920F931F936C
:102AA000CF93DF934C016B015A01E901270160903C
:102AB000070470900804AC01B501C3010E944914D9
:102AC0001C01E0900304F0900404A401B501C701C7
:102AD0000E94F3135C01A601BE01C3010E944914C8
:102AE0004C01A601BE01C7010E94F313800F911F84
:102AF000A501400F511F72018C019401B1018BE6B9
:102B000094E00E94BB0CDF91CF911F910F91FF9039
:102B1000EF90DF90CF90BF90AF909F908F907F907D
:102B20006F905F904F903F902F9008956F927F929B
:102B30008F929F92AF92BF92CF92DF92EF92FF92CD
:102B40000F931F93CF93DF93C1E080915C0290912C
:102B50005D02029709F4C0E0D0E05E01AA0CBB1C44
:102B6000C12CD12C28E6822E99249394F601EA0DEB
:102B7000FB1DE65DFE4F60817181072E000C880B06
:102B8000990B0E948D3120E030E048E455E40E942A
:102B9000603320E030E044EB53E40E94C8310E94EF
:102BA000D233CB01B4010E9498343C0122EF621A67
:102BB0002EEF720A28E6621621E0720624F03C012C
:102BC0002AE5621A710880E1E82E84E8F82E04E014
:102BD00010E025E530E04CE350E0B301C3010E9472
:102BE00040150CEF1FEF25E530E04CE350E0B3015A
:102BF000C3010E944015219682E0C80ED11CC73047
:102C0000D1050CF4B3CFDF91CF911F910F91FF90BD
:102C1000EF90DF90CF90BF90AF909F908F907F907C
:102C20006F900895609103047091040420E134E8EA
:102C30004CE350E080910704909108040E94601ECC
:102C4000609103047091040420E030E048E350E018
:102C500080910704909108040C94601EFC01918DF2
:102C6000828D981761F0828DDF01A80FB11D5D96EE
:102C70008C91928D9F5F9F73928F90E008958FEF5C
:102C80009FEF0895FC01918D828D981731F0828D10
:102C9000E80FF11D858D90E008958FEF9FEF089567
:102CA000FC01918D228D892F90E0805C9F4F821BCB
:102CB00091098F739927089580EE92E00E94501633
:102CC00021E0892B09F420E0822F0895FC01848DF6
:102CD000DF01A80FB11DA35ABF4F2C91848D90E046
:102CE00001968F739927848FA689B7892C93A08921
:102CF000B1898C9180648C93938D848D981306C0D8
:102D00000288F389E02D80818F7D80830895EF9282
:102D1000FF920F931F93CF93DF93EC0181E0888F95
:102D20009B8D8C8D981305C0E889F989808185FD7C
:102D300024C0F62E0B8D10E00F5F1F4F0F7311276D
:102D4000E02E8C8DE8120CC00FB607FCFACFE88994
:102D5000F989808185FFF5CFCE010E946616F1CFFB
:102D60008B8DFE01E80FF11DE35AFF4FF0820B8FB0
:102D7000EA89FB898081806207C0EE89FF896083D0
:102D8000E889F98980818064808381E090E0DF9127
:102D9000CF911F910F91FF90EF900895CF93DF9304
:102DA000EC01888D8823C9F0EA89FB89808185FD43
:102DB00005C0A889B9898C9186FD0FC00FB607FCA4
:102DC000F5CF808185FFF2CFA889B9898C9185FFE5
:102DD000EDCFCE010E946616E7CFDF91CF91089527
:102DE00080E090E0892B29F00E945C1681110C9400
:102DF000000008953FB7F8948091DC029091DD02C5
:102E0000A091DE02B091DF0226B5A89B05C02F3F3E
:102E100019F00196A11DB11D3FBFBA2FA92F982F00
:102E20008827820F911DA11DB11DBC01CD0142E07B
:102E3000660F771F881F991F4A95D1F70895089547
:102E4000FC01A58DB68D9C9180A589238C938BB1B7
:102E5000962F9C7F8370892B8BB985B163708C7F93
:102E6000682B65B9A78DB0A19C9181A589238C930E
:102E7000A78DB0A19C9185A1892B8C93A58DB68D32
:102E80009C9184A1892B8C938BB1942F9C7F837010
:102E9000892B8BB985B143708C7F482B45B9A78DA1
:102EA000B0A19C9181A589238C93A78DB0A19C9101
:102EB00085A1892B8C9308950E94CC361F920F9286
:102EC0000FB60F9211242F933F934F935F936F93FD
:102ED0007F938F939F93AF93BF93EF93FF9380EE76
:102EE00092E00E946616FF91EF91BF91AF919F9182
:102EF0008F917F916F915F914F913F912F910F90A3
:102F00000FBE0F901F9018951F920F920FB60F9241
:102F100011242F938F939F93EF93FF93E091F002EF
:102F2000F091F1028081E091F602F091F70282FDCA
:102F300012C090818091F9028F5F8F732091FA0205
:102F4000821751F0E091F902F0E0E052FD4F958FC9
:102F50008093F90201C08081FF91EF919F918F9141
:102F60002F910F900FBE0F901F901895833081F016
:102F700028F4813099F08230A1F008958730A9F0CB
:102F80008830B9F08430D1F4809180008F7D03C007
:102F9000809180008F7780938000089584B58F772B
:102FA00002C084B58F7D84BD08958091B0008F7775
:102FB00003C08091B0008F7D8093B00008951F936F
:102FC000CF93DF93282F30E0F901E75EF74E84912D
:102FD000F901E35DF74ED491F901E55BF74EC49139
:102FE000CC23C9F0162F81110E94B617EC2FF0E008
:102FF000EE0FFF1FEF5BF74EA591B4918FB7F894DA
:10300000111105C09C91ED2FE095E92302C0EC91D0
:10301000ED2BEC938FBFDF91CF911F910895CF934C
:10302000DF9390E0FC01E35DF74E2491FC01E55B4A
:10303000F74E8491882361F190E0880F991FFC017D
:10304000EB5FF74EC591D491FC01EF5BF74EA59174
:10305000B491611109C09FB7F894888120958223AB
:103060008883EC912E230BC0623061F49FB7F894F3
:103070003881822F809583238883EC912E2B2C938B
:103080009FBF06C08FB7F894E8812E2B28838FBF8F
:10309000DF91CF9108958E3008F08E508770806454
:1030A00080937C0080917A00806480937A00809184
:1030B0007A0086FDFCCF809178002091790090E025
:1030C000922B08958F929F92AF92BF92CF92DF92F0
:1030D000EF92FF926B017C010E94FA164B015C019A
:1030E000C114D104E104F104F1F00E94FA16DC01EC
:1030F000CB0188199909AA09BB09883E9340A1050B
:10310000B10570F321E0C21AD108E108F10888EE98
:10311000880E83E0981EA11CB11CC114D104E104E7
:10312000F10419F7DDCFFF90EF90DF90CF90BF90C3
:10313000AF909F908F9008951F920F920FB60F92AD
:1031400011242F933F938F939F93AF93BF938091BD
:10315000160290911702A0911802B09119023091B5
:10316000DB0223E0230F2D3720F40196A11DB11DB2
:1031700005C026E8230F0296A11DB11D2093DB0296
:103180008093160290931702A0931802B09319022D
:103190008091DC029091DD02A091DE02B091DF020D
:1031A0000196A11DB11D8093DC029093DD02A093D6
:1031B000DE02B093DF02BF91AF919F918F913F915B
:1031C0002F910F900FBE0F901F9018951F920F9286
:1031D0000FB60F9211242F933F934F935F936F93EA
:1031E0007F938F939F93AF93BF93EF93FF93E09160
:1031F0002201F09123010995FF91EF91BF91AF91C9
:103200009F918F917F916F915F914F913F912F91FE
:103210000F900FBE0F901F9018951F920F920FB630
:103220000F9211242F933F934F935F936F937F934C
:103230008F939F93AF93BF93EF93FF93E091200100
:10324000F09121010995FF91EF91BF91AF919F916D
:103250008F917F916F915F914F913F912F910F903F
:103260000FBE0F901F901895CF92DF92EF92FF92B2
:10327000FC01A38DB48D9C9187A189238C93A58D8E
:10328000B68D9C9180A589238C938BB1962F9C7FC2
:103290008370892B8BB985B163708C7F682B65B97E
:1032A000A78DB0A19C9181A589238C93A78DB0A1F6
:1032B0009C9185A1892B8C93A58DB68D9C9184A121
:1032C000892B8C9383E290E0DC011197F1F77BB1BD
:1032D000C52EDD24EE24FF246C2D6C7F7370762BBD
:1032E0007BB965B17C2D73706C7F672B65B9A78D39
:1032F000B0A17C9161A567236C93A78DB0A17C914F
:1033000065A1672B6C93DC011197F1F77BB16A0122
:10331000EE24FF246C2D6C7F7370762B7BB965B126
:103320007C2D73706C7F672B65B9A78DB0A17C91E4
:1033300061A567236C93A78DB0A17C9165A1672BD4
:103340006C93DC011197F1F77BB1C32ED42EE52EDF
:10335000FF246C2D6C7F7370762B7BB965B17C2D4F
:1033600073706C7F672B65B9A78DB0A17C9161A547
:1033700067236C93A78DB0A17C9165A1672B6C939B
:103380000197F1F78BB1922F9C7F8370892B8BB9BA
:1033900085B123708C7F282B25B9A78DB0A19C9176
:1033A00081A589238C93A78DB0A19C9185A1892BA0
:1033B0008C93A38DB48D9C9183A1892B8C93FF90CA
:1033C000EF90DF90CF900895FC01A58DB68D9C9174
:1033D00080A589238C938BB1962F9C7F8370892B3A
:1033E0008BB985B163708C7F682B65B9A78DB0A14F
:1033F0009C9181A589238C93A78DB0A19C9185A1D7
:10340000892B8C93A58DB68D9C9184A1892B8C934F
:103410008BB1932F9C7F8370892B8BB985B13370CF
:103420008C7F382B35B9A78DB0A19C9181A58923BC
:103430008C93A78DB0A19C9185A1892B8C93A58D90
:10344000B68D9C9180A589238C938BB1942F9C7F02
:103450008370892B8BB985B143708C7F482B45B91C
:10346000A78DB0A19C9181A589238C93A78DB0A134
:103470009C9185A1892B8C93A58DB68D9C9184A15F
:10348000892B8C938BB1922F9C7F8370892B8BB966
:1034900085B123708C7F282B25B9A78DB0A19C9175
:1034A00081A589238C93A78DB0A19C9185A1892B9F
:1034B0008C930895FC01A58DB68D9C9180A58923E0
:1034C0008C938BB1972F9C7F8370892B8BB985B19F
:1034D00073708C7F782B75B9A78DB0A19C9181A555
:1034E00089238C93A78DB0A19C9185A1892B8C9366
:1034F0008BB1962F9C7F8370892B8BB985B16370BC
:103500008C7F682B65B9A78DB0A19C9181A589237B
:103510008C93A78DB0A19C9185A1892B8C93A58DAF
:10352000B68D9C9184A1892B8C938BB1952F9C7F18
:103530008370892B8BB985B153708C7F582B55B90B
:10354000A78DB0A19C9181A589238C93A78DB0A153
:103550009C9185A1892B8C938BB1942F9C7F837038
:10356000892B8BB985B143708C7F482B45B9A78DCA
:10357000B0A19C9181A589238C93A78DB0A19C912A
:1035800085A1892B8C930895EF92FF920F931F933F
:10359000CF93DF93EC010E94A521EB8DFC8D9081F0
:1035A0008FA1892380838A8D811122C0ED89E1500A
:1035B000E33040F4F0E0EE0FFF1FE95BFE4F408187
:1035C000518102C040E350E163E070E0CE010E940F
:1035D0005A1A0A851B850150110928853985215001
:1035E000310940E050E060E070E0CE010E94C82464
:1035F0008A8D813089F4ED89E150E33028F4F0E0E0
:10360000EC5BFE4F408101C040E066E1CE010E94CC
:103610002017CE010E94A4248A8D823039F58D892D
:10362000813071F050F0823029F0833059F458E243
:10363000E52E08C068E4E62E05C048E8E42E02C086
:1036400038EEE32E4E2D66E3CE010E9420170A8548
:103650001B8501501109288539852150310940E029
:1036600050E060E070E0CE010E94C8248A8D833073
:1036700031F58D89813069F048F0823029F083304E
:1036800051F420E6F22E07C0F12C05C090ECF92E83
:1036900002C080EAF82E4F2D66E3CE010E9420176B
:1036A0000A851B850150110928853985215031096A
:1036B00040E050E060E070E0CE010E94C824DF915D
:1036C000CF911F910F91FF90EF900895AF92BF920D
:1036D000CF92DF92EF92FF920F931F93CF93DF93DE
:1036E000EC017B016A01B22EA32E77FD1BC157FDB1
:1036F00019C188859985681779070CF013C18A85E7
:103700009B85481759070CF00DC1EB8DFC8D9081FE
:103710008FA1892380838A8D811135C08D89823064
:1037200059F08330B1F08130D1F48FEE90E0841BFA
:10373000950B6B017C0113C08FEE90E09C01261B62
:10374000370B79018FE391E09C01241B350B690154
:1037500006C08FE391E0861B970B7A016C01A701ED
:1037600060E270E0CE010E945A1AA60161E270E0A8
:10377000CE010E945A1A4B2D5A2D62E270E0CE0102
:103780000E945A1AC9C0813009F060C0ED89E15029
:10379000E33028F4F0E0EF5BFE4F408101C040E0F1
:1037A00066E1CE010E942017970143E062E0CE015E
:1037B0000E94E419960147E066E0CE010E94E419F8
:1037C000ED8DFE8D908188A5892380838BB18370D8
:1037D00080628BB985B18C7F826085B9EF8DF8A14D
:1037E000908189A589238083EF8DF8A190818DA197
:1037F000892B8083ED8DFE8D90818CA1892B808318
:103800008BB19A2D9C7F8370892B8BB985B19A2DB2
:1038100093708C7FA92EA82AA5B8EF8DF8A190816E
:1038200089A589238083EF8DF8A190818DA1892BB3
:1038300080838BB19B2D9C7F8370892B8BB985B145
:103840009B2D93708C7FB92EB82A59C0825082303C
:1038500008F062C00A851B85015011092885398549
:1038600021503109CE010E94C824EB8DFC8D90813E
:103870008FA189238083ED8DFE8D908188A589237A
:1038800080838BB183708C628BB985B18C7F85B955
:10389000EF8DF8A1908189A589238083EF8DF8A110
:1038A00090818DA1892B8083ED8DFE8D90818CA1DF
:1038B000892B80838BB19A2D9C7F8370892B8BB948
:1038C00095B18A2D83709C7FA82EA92AA5B8EF8D6B
:1038D000F8A1908189A589238083EF8DF8A190813B
:1038E0008DA1892B80838BB19B2D9C7F8370892B2D
:1038F0008BB995B18B2D83709C7FB82EB92AB5B842
:10390000EF8DF8A1908189A589238083EF8DF8A19F
:1039100090818DA1892B8083EB8DFC8D90818BA173
:10392000892B8083DF91CF911F910F91FF90EF90B2
:10393000DF90CF90BF90AF900895EF92FF920F93DA
:103940001F93CF93DF93EC017B018A8D811129C0F6
:103950002D892150233078F430E0F901E25CFE4FEC
:103960008081482F50E0220F331FF901E85CFE4FA1
:103970000081118104C000E010E040E050E0EB8DD8
:10398000FC8D30812FA12323208360E270E0CE01E3
:103990000E945A1AA80161E270E0CE010E945A1AF0
:1039A00012C08150833078F40A851B8501501109BB
:1039B000288539852150310940E050E060E070E011
:1039C000CE010E94C82420E03CE241E050E0B70173
:1039D000CE01DF91CF911F910F91FF90EF900C944A
:1039E0009122CF92DF92EF92FF920F931F93CF938A
:1039F000DF936C017A018B01C0E0D0E0CE15DF05CA
:103A000089F0D8016D918D01D601ED91FC91019065
:103A1000F081E02DC6010995892B11F47E0102C0C9
:103A20002196ECCFC701DF91CF911F910F91FF90AD
:103A3000EF90DF90CF9008952F923F924F925F9238
:103A40006F927F928F929F92AF92BF92CF92DF92AE
:103A5000EF92FF920F931F93CF93DF9300D000D08C
:103A600000D0CDB7DEB75C014B015E834D832801EA
:103A700081E090E03C01641A750ACA019195819534
:103A80009109AC01440F551F5A8349831801CC2476
:103A9000C394D12C522F51705B8322702C83C601AA
:103AA00001972D813E81821793070CF068C077FC47
:103AB0000CC08D819E8101979E838D83E981FA815F
:103AC0003296FA83E9836E0E7F1EC601880F991F16
:103AD0000196680E791EFB81FF2319F12D813E812D
:103AE000220F331F2F5F3F4F240D351D8701A40187
:103AF0008D819E81481B590BB6016A0D7B1D8BE69B
:103B000094E00E94460E91012D5F3F4FA4014C1995
:103B10005D096D817E816A0D7B1D8BE694E00E94BC
:103B2000460E9C81992321F12D813E81220F331F66
:103B30002F5F3F4F240D351D8701A401ED81FE81CC
:103B40004E1B5F0BB5016C197D098BE694E00E945A
:103B5000460E91012D5F3F4FA4014C195D09B5013F
:103B60008D819E81681B790B8BE694E00E94460E46
:103B70009FEFC91AD90AE2E02E0E311C90CF26968B
:103B80000FB6F894DEBF0FBECDBFDF91CF911F916E
:103B90000F91FF90EF90DF90CF90BF90AF909F90EC
:103BA0008F907F906F905F904F903F902F900895EF
:103BB0000F931F93CF93DF93EC0188819981009736
:103BC00029F02A813B812617370788F48B016F5F24
:103BD0007F4F0E940236009761F0998388831B8390
:103BE0000A832C813D81232B11F4FC01108281E09A
:103BF00001C080E0DF91CF911F910F910895EF9266
:103C0000FF920F931F93CF93DF93FC0124813581A3
:103C10006115710511F480E019C041155105A9F035
:103C20007B01EC018A01020F131FB8010E94D81D0D
:103C3000882389F3288139818C819D81B701820F86
:103C4000931F0E94E3361D830C8381E0DF91CF91A7
:103C50001F910F91FF90EF900895CF93DF93EC01A8
:103C600088819981009711F00E946A351982188223
:103C70001D821C821B821A82DF91CF910895EF92E0
:103C8000FF920F931F93CF93DF93EC017B018A0187
:103C9000BA010E94D81D811104C0CE010E942D1EC0
:103CA00007C01D830C83B701888199810E94E33688
:103CB000CE01DF91CF911F910F91FF90EF9008956A
:103CC000AF92BF92CF92DF92EF92FF920F931F932A
:103CD000CF93DF936C015B01EA0179019A01220F16
:103CE000331F2F5F3F4FAB014C1B5D0B8701B601AC
:103CF0008BE694E00E94460E00E010E023E0AE0167
:103D0000B501C6010E941C1DDF91CF911F910F913B
:103D1000FF90EF90DF90CF90BF90AF9008952F92DB
:103D20003F924F925F926F927F928F929F92AF924B
:103D3000BF92CF92DF92EF92FF920F931F93CF9398
:103D4000DF9300D000D0CDB7DEB72C015B011A01A4
:103D50003901680188279927801B910B9C01220F4C
:103D6000331F3C832B83C201800F911F9A83898369
:103D7000240F351F8301AB01BC018BE694E00E9448
:103D80002A0EEB81FC816E0E7F1EF1E06F1A710826
:103D9000AC0CBD1C420C531CC2018C199D09830143
:103DA00021E0A601B50101970E941C1D22E0A60199
:103DB000B50189819A810E941C1D0F900F900F9070
:103DC0000F90DF91CF911F910F91FF90EF90DF90B7
:103DD000CF90BF90AF909F908F907F906F905F90AB
:103DE0004F903F902F9008952F923F924F925F9265
:103DF0006F927F928F929F92AF92BF92CF92DF92FB
:103E0000EF92FF920F931F93CF93DF9300D000D0D8
:103E100000D0CDB7DEB77C016B015E834D83890195
:103E200081E090E03C01641A750ACA019195819580
:103E300091099C01220F331F3A832983460F571F94
:103E40009801B7018BE694E00E94520EA6018D8185
:103E50009E81481B590B9801B7018BE694E00E94A4
:103E6000520E6D817E816E0D7F1D9801A6018BE63D
:103E700094E00E94520EB701ED81FE816E1B7F0B14
:103E80009801A6018BE694E00E94520EA12CB12C61
:103E900021E030E03C832B832D813E81A216B306C6
:103EA0000CF070C077FC0CC08D819E8101979E83C1
:103EB0008D83E981FA813296FA83E9836E0E7F1E43
:103EC000FFEFAF1ABF0A2B813C812E5F3F4F3C832F
:103ED0002B83620E731E25014E0C5F1C98018D8092
:103EE0009E808C0C9D1CA401B2018BE694E00E9484
:103EF000520E17012A183B089801A401B1018BE664
:103F000094E00E94520E980146018D819E81881A8C
:103F1000990AA401B2018BE694E00E94520E980126
:103F2000A401B1018BE694E00E94520E45018C0C75
:103F30009D1C9801A4014D805E804E0C5F1CB20157
:103F40008BE694E00E94520E9801A4011701ED81C6
:103F5000FE812E1A3F0AB1018BE694E00E94520EB8
:103F600046018A189B089801A401B2018BE694E0EF
:103F70000E94520E9801A401B1018BE694E00E94C8
:103F8000520E8ACF26960FB6F894DEBF0FBECDBF75
:103F9000DF91CF911F910F91FF90EF90DF90CF9025
:103FA000BF90AF909F908F907F906F905F904F9059
:103FB0003F902F900895AF92BF92CF92DF92EF92F1
:103FC000FF920F931F93CF93DF931F92CDB7DEB76E
:103FD0006C018B017A01AC0160E370E08091070411
:103FE0009091080429830E9449145C01A60160E3B2
:103FF00070E080910304909104040E94F313BC01CB
:104000002981222381F09701A801C5010F90DF913A
:10401000CF911F910F91FF90EF90DF90CF90BF90C5
:10402000AF900C94601E9701A801C5010F90DF911D
:10403000CF911F910F91FF90EF90DF90CF90BF90A5
:10404000AF900C94F41EE0918604F0918704908167
:1040500080918E04892B8083E0918A04F0918B04F7
:10406000908180919004892B8083E0918C04F09161
:104070008D04908180919104892B80838091960496
:10408000882371F060E00E94DF1762E070E080E05A
:1040900090E00E94621861E0809196040E94DF1710
:1040A000E0918604F09187049081809192048923A5
:1040B0008083E0918804F091890490818091930439
:1040C000892380838BB183708BB985B18C7F85B94F
:1040D000E0918A04F0918B0490818091940489236B
:1040E0008083E0918A04F0918B0490818091900408
:1040F000892B808383E0E0918A04F0918B042081F6
:104100009091940492239083E0918A04F0918B041F
:10411000208190919004922B9083815061F7E091DF
:104120008604F0918704908180918E04892B80838E
:104130000895FC0124813581232B31F421E06115A0
:104140007105A1F0FB0108C0FC018081918161151E
:10415000710531F421E0FC018081882339F005C02C
:104160000E94DA3621E0892B09F020E0822F0895A1
:10417000CF93DF93DC01ED91FC91EB01A881B98134
:10418000309711F01097C9F4109759F0EB012C817A
:104190003D81232B31F08C9190E09195819591098F
:1041A00014C0309781F0DC0114968D919C91159785
:1041B000892B49F0808190E008C0BD01CF01DF91DB
:1041C000CF910C94DA3680E090E0DF91CF910895A2
:1041D000CF93DF93EC016115710561F0FB01019054
:1041E0000020E9F73197AF01461B570B0E94FF1DD6
:1041F000811103C0CE010E942D1ECE01DF91CF910F
:104200000895CF93DF93EC01FB01448155816081D8
:1042100071810E94FF1D811103C0CE010E942D1EDD
:10422000CE01DF91CF910895FC01808191810C94A2
:104230006A35EF92FF920F931F93CF93DF93CDB721
:10424000DEB762970FB6F894DEBF0FBECDBF8C010C
:10425000CB01F8011182108213821282158214821E
:1042600050E09E012F5F3F4F7901B9010E944B3111
:10427000F70101900020E9F73197AF014E195F096E
:10428000B701C8010E943F1E62960FB6F894DEBFC8
:104290000FBECDBFDF91CF911F910F91FF90EF9097
:1042A0000895FB01DC0111961C921E9213961C923C
:1042B0001E92129715961C921E92149786179707B6
:1042C00049F0608171816115710521F0448155814A
:1042D0000C943F1E0895FC011182108213821282F9
:1042E000158214826115710551F0FB0101900020C7
:1042F000E9F73197AF01461B570B0C943F1E089509
:10430000DC01ED91FC91DB0114964D915C911597C8
:104310006D917C910280F381E02D09946115710506
:1043200079F0FB0101900020E9F73197AF01461BBE
:10433000570BDC01ED91FC910280F381E02D099493
:1043400080E090E0089508950895FC016370658B06
:104350008481958126813781613039F0633029F07D
:1043600091878087338722870895318720879387B5
:1043700082870895AF92BF92CF92EF92FF920F93F0
:104380001F93CF93DF93EC01262F888D998D009793
:1043900009F042C06A3069F42C898E859F8538E027
:1043A000239F800D911D11249F878E871D861C865B
:1043B000ACC06D3009F4A9C08E898823C1F03C8956
:1043C0008C859D8546E0349F800D911D1124488584
:1043D0005985841795075CF01D861C868E859F8500
:1043E000E8E03E9F800D911D11249F878E87EA880B
:1043F000FB88088919894E855F856C857D85CC8809
:10440000CE010E94690F2C898C859D85F6E02F9F37
:10441000800D911D112441C06A3079F41D861C86DF
:104420002C89FC013696E4918E859F852E9F800D08
:10443000911D11249F878E8768C06D3009F465C077
:10444000AC014C5F5F4FFA013491631708F45DC013
:104450003196E491E61708F458C0FA014491362FDA
:10446000341BFC013296A590B490F7E03F9FA00C5E
:10447000B11C1124F501329634913196E491332325
:1044800011F0E1110DC0F5013496E4912C898C8571
:104490009D85E29F800D911D11249D878C8735C0DD
:1044A000F501359644915E89552311F16C89E32F0E
:1044B000F0E0E40FF11D47FDFA956E9FD0016F9F6C
:1044C000B00D11244C855D854A0F5B1FE885F98589
:1044D0004E175F076CF01D861C86FC013696E49132
:1044E0008E859F856E9F800D911D11249F878E87DD
:1044F000EA88FB88088919894E855F856C857D85EA
:10450000CC88CE010E94690FBECF81E090E0DF91A0
:10451000CF911F910F91FF90EF90CF90BF90AF90F0
:104520000895AF92BF92CF92DF92EF92FF920F93D6
:104530001F93CF93DF93FC01A38DB48D9C9187A132
:1045400089238C93A58DB68D9C9180A589238C930E
:10455000828D8230B9F0811113C08BB183708BB919
:1045600085B18C7F85B9A78DB0A19C9181A5892348
:104570008C93A78DB0A19C9185A1892B8C9309C0A8
:10458000833039F48BB183708C628BB985B18C7FA9
:1045900007C08BB1837080628BB985B18C7F8260DC
:1045A00085B9A78DB0A19C9181A589238C93A78DF6
:1045B000B0A19C9185A1892B8C93A58DB68D9C91E2
:1045C00084A1892B8C938BB1972F9C7FB92E8370FC
:1045D000892B8BB985B1A72FA370AA2E8C7F8A2B2C
:1045E00085B9C78DD0A1988181A589238883C78D7E
:1045F000D0A1988185A1892B88838BB1C62FCC7FD0
:1046000083708C2B8BB985B1D62FD3708C7F8D2B7B
:1046100085B9078D10A1D8019C9181A589238C9320
:10462000078D10A1D8019C9185A1892B8C932150D5
:1046300031094109510969017A0186E0F694E7944C
:10464000D794C7948A95D1F7C601761348C10197CC
:1046500008F465C060E1A78DB0A1CC9171A57C2361
:104660007C93A78DB0A1CC9175A17C2B7C93A78D59
:10467000B0A1CC9171A57C237C93A78DB0A1CC91E6
:1046800075A17C2B7C93A78DB0A1CC9171A57C23C7
:104690007C93A78DB0A1CC9175A17C2B7C93A78D29
:1046A000B0A1CC9171A57C237C93A78DB0A1CC91B6
:1046B00075A17C2B7C93A78DB0A1CC9171A57C2397
:1046C0007C93A78DB0A1CC9175A17C2B7C93A78DF9
:1046D000B0A1CC9171A57C237C93A78DB0A1CC9186
:1046E00075A17C2B7C93A78DB0A1CC9171A57C2367
:1046F0007C93A78DB0A1CC9175A17C2B7C93A78DC9
:10470000B0A1CC9171A57C237C93A78DB0A1CC9155
:1047100075A17C2B7C93615009F09DCF98CF2F73AE
:104720002150C8F0A78DB0A19C9181A589238C93BD
:10473000A78DB0A19C9185A1892B8C93A78DB0A149
:104740009C9181A589238C93A78DB0A19C9185A173
:10475000892B8C93E5CFA38DB48D9C9183A1892B5C
:104760008C93DF91CF911F910F91FF90EF90DF908D
:10477000CF90BF90AF9008956BB163706B296BB908
:1047800065B16C7F6A2965B9078D10A1D801FC90CD
:1047900061A56F216C93078D10A1D801FC9065A1D4
:1047A0006F296C936BB163706C2B6BB965B16C7FC7
:1047B0006D2B65B9078D10A1D801FC9061A56F2103
:1047C0006C93078D10A1D801FC9065A16F296C93A3
:1047D0006BB163706B296BB965B16C7F6A2965B980
:1047E000078D10A1D801FC9061A56F216C93078DF6
:1047F00010A1D801FC9065A16F296C936BB1637017
:104800006C2B6BB965B16C7F6D2B65B9078D10A1F1
:10481000D801FC9061A56F216C93078D10A1D80180
:10482000FC9065A16F296C936BB163706B296BB9B8
:1048300065B16C7F6A2965B9078D10A1D801FC901C
:1048400061A56F216C93078D10A1D801FC9065A123
:104850006F296C936BB163706C2B6BB965B16C7F16
:104860006D2B65B9078D10A1D801FC9061A56F2152
:104870006C93078D10A1D801FC9065A16F296C93F2
:104880006BB163706B296BB965B16C7F6A2965B9CF
:10489000078D10A1D801FC9061A56F216C93078D45
:1048A00010A1D801FC9065A16F296C936BB1637066
:1048B0006C2B6BB965B16C7F6D2B65B9078D10A141
:1048C000D801FC9061A56F216C93078D10A1D801D0
:1048D000FC9065A16F296C93715009F04DCF019741
:1048E00010F070E149CF2F73215008F434CF8BB111
:1048F00083708B298BB985B18C7F8A2985B9478DC7
:1049000050A1DA019C9181A589238C93478D50A1F8
:10491000DA019C9185A1892B8C938BB183708C2BB0
:104920008BB985B18C7F8D2B85B9478D50A1DA016C
:104930009C9181A589238C93478D50A1DA019C918C
:1049400085A1892B8C93D0CFCF93DF93EC01EB8D96
:10495000FC8D90818FA18923808328853985215002
:10496000310945E064E0CE010E94E4192A853B85C7
:104970002150310949E068E0CE010E94E419EB8D35
:10498000FC8D90818BA1892B8083DF91CF9108953D
:104990008F929F92AF92BF92CF92DF92EF92FF924F
:1049A0000F931F93CF93DF93EC017A016901EB8D95
:1049B000FC8D30812FA1232320832A8D21115EC0FD
:1049C0002D89223089F0233021F1213081F52FEE1D
:1049D00030E0A901401B510B5B0149018E189F0873
:1049E000860164017B0113C02FEE30E0A9014C1950
:1049F0005D096901C61AD70A8FE391E09C01201B6B
:104A0000310B8C010E191F09580146017901BA01B9
:104A100010C02FE331E0A9014C195D095901A61A14
:104A2000B70A470168018501B7017A0102C05A013E
:104A30004B01AB0160E570E0CE010E945A1AA6015D
:104A400061E570E0CE010E945A1AA70162E570E0AC
:104A5000CE010E945A1AA80163E570E0CE010E94BF
:104A60005A1AA40160E270E0CE010E945A1AA50110
:104A700061E270E0CE010E945A1A47C02130C1F4B1
:104A80009B0143E062E00E94E419970147E066E081
:104A9000CE010E94E419960145E064E0CE010E9437
:104AA000E419980149E068E0CE010E94E4192DC0A4
:104AB0002250223050F5CB01770FAA0BBB0BDC0143
:104AC00099278827A601DD0C660B770B9A01AB01AD
:104AD000282B392B4A2B5B2B6AE2CE010E9434191A
:104AE000C701FF0CAA0BBB0BDC0199278827A80183
:104AF000110F660B770B9A01AB01282B392B4A2B30
:104B00005B2B6BE2CE010E943419EB8DFC8D908102
:104B10008BA1892B8083DF91CF911F910F91FF9003
:104B2000EF90DF90CF90BF90AF909F908F900895BF
:104B30008F929F92AF92BF92CF92DF92EF92FF92AD
:104B40000F931F93CF93DF93EC01470112161306C7
:104B50000CF06BC0101611060CF067C0A885B98563
:104B60006A177B070CF061C0CA84DB844C155D05B5
:104B70000CF05BC05B01A20EB31EC501019797FD4F
:104B800054C07A01E00EF11EF7013197F7FD4DC0D8
:104B900077FF49C060E070E057FD02C0780102C0B5
:104BA00040E050E08A179B072CF0CD0101975D0192
:104BB000A61AB70AEC15FD052CF0F601319776011F
:104BC000E41AF50A8F019C01CE010E94C8249701C6
:104BD000D5010E94AC349B01AC01B401CE010E940E
:104BE00091228A8D811110C00A851B8501501109FF
:104BF000288539852150310940E050E060E070E0BF
:104C0000CE010E94C82411C0CE01DF91CF911F9127
:104C10000F91FF90EF90DF90CF90BF90AF909F905B
:104C20008F900C94A4245901B7CFDF91CF911F919D
:104C30000F91FF90EF90DF90CF90BF90AF909F903B
:104C40008F900895CF92DF92EF92FF920F931F9370
:104C5000CF93DF93EC016801121613060CF04FC0DE
:104C600077FD4DC088859985681779070CF047C096
:104C7000EA85FB854E175F070CF041C07A01E20E12
:104C8000F31E87010150110917FD39C057FF35C0C8
:104C900040E050E00E171F0734F08F01015011095A
:104CA0007F01E41AF50A9B01CE010E94C8249701F6
:104CB000FF0C440B550BB601CE010E9491228A8D48
:104CC000811110C00A851B8501501109288539857D
:104CD0002150310940E050E060E070E0CE010E94D8
:104CE000C8240DC0CE01DF91CF911F910F91FF908D
:104CF000EF90DF90CF900C94A4247901CBCFDF917B
:104D0000CF911F910F91FF90EF90DF90CF9008957A
:104D1000CF92DF92EF92FF920F931F93CF93DF9387
:104D2000EC016801121613060CF04EC057FD4CC082
:104D30008A859B85481759070CF046C0E885F98598
:104D40006E177F070CF040C07B01E20EF31EC70117
:104D5000019797FD39C077FF35C060E070E08E178E
:104D60009F072CF0CF0101977F01E61AF70A8A010D
:104D70009C01CE010E94C8249701FF0C440B550BE7
:104D8000B601CE010E9491228A8D811110C00A8540
:104D90001B8501501109288539852150310940E0D2
:104DA00050E060E070E0CE010E94C8240DC0CE014A
:104DB000DF91CF911F910F91FF90EF90DF90CF90F7
:104DC0000C94A4247901CBCFDF91CF911F910F9147
:104DD000FF90EF90DF90CF900895CF93DF93CDB702
:104DE000DEB7CB54D1090FB6F894DEBF0FBECDBFEE
:104DF000789484B5826084BD84B5816084BD85B5B6
:104E0000826085BD85B5816085BD80916E008160C1
:104E100080936E0010928100809181008260809367
:104E20008100809181008160809381008091800069
:104E30008160809380008091B10084608093B10094
:104E40008091B00081608093B00080917A0084608E
:104E500080937A0080917A00826080937A008091BA
:104E60007A00816080937A0080917A0080688093D4
:104E70007A001092C1001092C1031092C2031092E6
:104E8000C3031092C40310927F0310928003109208
:104E900081031092820368EB7BE080E090E00E9447
:104EA000621880EE92E09093C0038093BF03E0917C
:104EB000F002F091F10282E08083E091EC02F09147
:104EC000ED021082E091EE02F091EF0280E180832A
:104ED0001092F802E091F402F091F50286E08083EE
:104EE000E091F202F091F302808180618083E09191
:104EF000F202F091F302808188608083E091F202F7
:104F0000F091F302808180688083E091F202F09159
:104F1000F30280818F7D80832FB7F89480911602F1
:104F200090911702A0911802B09119022FBF80939F
:104F30007F0390938003A0938103B093820365E97C
:104F400071E08091BF039091C0030E948E216AE0BE
:104F500070E080E090E00E94621881E0809393030B
:104F60000E9423200E94232068EC70E080E090E003
:104F70000E94621810928504E0918604F0918704E3
:104F8000908180919204892380830BE212E1F801E1
:104F900065917491F8013296459154916F3F710576
:104FA00031F4BA0180E090E00E94621804C08BE600
:104FB00094E00E945A1A0C5F1F4F22E1073F12072C
:104FC00031F7609180048BE694E00E94C41A0FE3ED
:104FD00011E02FEE30E040E050E060E070E08BE662
:104FE00094E00E94C82463E08BE694E00E94C41A17
:104FF00060E070E08BE694E00E949D1C61E08DE033
:105000000E940F1880E090E00E949F142091750488
:105010003091760420523109409173045091740408
:105020004C505109F8E1EF2EF6ECFF2E03E010E0B2
:105030006AE170E086E090E00E948F1E2091750486
:1050400030917604265231094091730450917404D2
:1050500042515109E12CF12C6DE170E089E090E0C2
:105060000E948F1E0E941216AAE24A2EA1E05A2E1A
:1050700001E214E0B8E68B2E99249394D2016D914D
:105080007D912D01072E000C880B990B0E948D310C
:1050900020E030E048E455E40E94603320E030E056
:1050A00044EB53E40E94C8310E94D233CB01B401D7
:1050B0000E9498343C01B2EF6B1ABEEF7B0AE8E61F
:1050C0006E16E1E07E0624F03C01FAE56F1A7108E5
:1050D0008091070490910804A0900504B090060404
:1050E000A301E114F10451F466E470E00E94491454
:1050F0000F976C01A3016CE470E009C064E670E0F6
:105100000E9449140F976C01A30164E670E0C50189
:105110000E94F3130F975C01B801CE0182960E94A2
:105120005121BE016E5D7F4FCE0101960E9451213B
:1051300022E030E0A501B601CE0101960E947C1369
:10514000CE0101960E94142120E23DEF43E050E0A1
:10515000B501C6010E94F41ECE0182960E94142160
:105160002FEFE21AF20A0A5F1F4F87E0E816F104F8
:1051700009F084CF20E038EF42E050E068E270E0D0
:1051800080910704909108040E94F41E20E23DEFF4
:1051900043E050E068E270E088E290E00E94F41E94
:1051A00020E23DEF43E050E068E270E08AE590E005
:1051B0000E94F41E809173049091740420E23DEFEC
:1051C00043E050E068E270E0865491090E94F41ECA
:1051D000809173049091740420E23DEF43E050E02D
:1051E00068E270E0885791090E94F41E609175048E
:1051F000709176046A5271098091730490917404DD
:1052000020E23DEF43E050E08A970E94F41E67EAF7
:1052100071E0CE0101960E946B2123E030E048E26C
:1052200050E068E270E0CE0101960E947C13CE014E
:1052300001960E94142168EA71E0CE0101960E9455
:105240006B2123E030E048E250E06AE570E0CE01F7
:1052500001960E947C13CE0101960E9414210091B8
:10526000730410917404065411096AEA71E0CE01C6
:1052700001960E946B2123E030E048E250E0B80143
:10528000CE0101960E947C13CE0101960E9414214A
:105290000091730410917404085711096BEA71E0CE
:1052A000CE0101960E946B2123E030E048E250E0FD
:1052B000B801CE0101960E947C13CE0101960E9496
:1052C0001421E0907504F09076049AE2E91AF1084E
:1052D00000917304109174040A5211096DEA71E08F
:1052E000CE0101960E946B2123E030E0A701B801B6
:1052F000CE0101960E947C13CE0101960E941421DA
:105300000E94841281E00E9496150DE411E0093696
:10531000A1E01A0708F42AC520E040E154E863E060
:1053200070E0C801885691400E94DB1F0C5E1F4F41
:105330000531B2E01B0759F76FEA71E0CE01019623
:105340000E946B21209173043091740437FF02C0D6
:105350002F5F3F4F6901D594C794E8E3CE1AD10877
:10536000A0900704B0900804AC18BD0880907504A4
:1053700090907604CC0CDD1CA4014E515109EE2412
:10538000EA94FE2C0FE010E09601B5018BE694E064
:105390000E945C0CF2E0AF0EB11CB0927804A092B7
:1053A0007704C401419790937A04809379042D8106
:1053B0003E8149E0429FC001439F900D112425E0AA
:1053C000C21AD108C816D90630F18FEF9FEF90931B
:1053D0007E0480937D0490937C0480937B04809171
:1053E000830490918404892B39F48BE0881A910806
:1053F00090927A048092790487EF92E190938404EA
:1054000080938304BE016F5F7F4F8BE694E00E9420
:1054100080210E94D713CE0101960E94142168EBCF
:105420007BE080E090E00E94621861E08DE00E94E5
:10543000DF17A0919C04B0E0FD01E55BF74EA4905E
:1054400080919904682F70E0FB01E55BF74E0491B1
:1054500040919B0450E0FA01E55BF74EE490209107
:105460009A0430E0F901E55BF74E8490FD01E35DBD
:10547000F74E7490FB01E35DF74ED490FA01E35DC3
:10548000F74EF490F901E35DF74E349060E00E942E
:105490000F1860E080919A040E940F1810E0000F2E
:1054A000111F0F5B174EF801A591B4918C912D2C13
:1054B000209482218C93912CF401EE0FFF1FDF01C9
:1054C000AF5BB74E4D01FD01A591B4919C91832D29
:1054D000809589238C9361E080919C040E940F1831
:1054E00061E080919B040E940F18B12CF501EE0F32
:1054F000FF1FCF018F5B974E5C01FC01A591B4911A
:105500008C9187298C93EE2DF0E0EE0FFF1FEF5B5F
:10551000F74EA591B491EC91F094FE22FC9280910B
:1055200099040E944B187C01809199040E944B18A9
:105530009C01C701821B930B0496099738F42E0D2A
:105540003F1D359527956624639401C0612C8FEF2C
:1055500093E07C01E21AF30A60E080919C040E94CF
:105560000F1860E080919B040E940F18F501A5912F
:10557000B4918C91709487218C9361E0809199040F
:105580000E940F18F801A591B491EC91DE2ADC92EB
:1055900061E080919A040E940F1880919B040E9400
:1055A0004B182C0180919B040E944B186C01C20186
:1055B0008C199D090496099728F4C40CD51CD59420
:1055C000C79401C0612C61E080919C040E940F1877
:1055D000F501A591B491EC917E227C92F401A59104
:1055E000B491EC913E2A3C92F801A591B4918C9132
:1055F00028222C9260E0809199040E940F188091DB
:105600009B040E944B188C01809199040E944B18B6
:10561000A0909D04B0909E04A114B10409F440C070
:10562000BC01990F880B990B0E948D311B012C0135
:10563000B801110F880B990B0E948D319B01AC01B1
:10564000C201B1010E94603320E030E040E85FE336
:105650000E94EE321B012C01B7010F2C000C880BAD
:10566000990B0E948D319B01AC01C201B1010E94D6
:10567000C8311B012C01B50180E090E00E948B3104
:105680009B01AC01C201B1010E94C83120E030E0B1
:1056900040E85AE30E94C8310E94D2338B0104C013
:1056A000081B190B01501C4F611002C000E010E0F4
:1056B00060E08DE00E94DF1761E080E10E940F183A
:1056C00061E081E10E940F18B80163537109653BE5
:1056D000734008F048C3C7010F2C000CAA0BBB0B8A
:1056E0002C968CAF9DAFAEAFBFAF2C9795EAE91665
:1056F000F1045CF42C966CAD7DAD8EAD9FAD2C9716
:105700000E948D312B013C0120C095E8E91693E001
:10571000F906ACF02C966CAD7DAD8EAD9FAD2C979F
:105720000E948D3124966CAF7DAF8EAF9FAF2497D2
:10573000412C512C05E2602E03E4702E10C0412C48
:10574000512C15E2612E13E4712E80E090E0A1E669
:10575000B4E424968CAF9DAFAEAFBFAF24978FEF6C
:1057600093E08C199D096C01092E000CEE08FF08CE
:10577000803A91053CF4C701B6010E948D314B017E
:105780005C011AC08F3893408CF0C701B6010E94AB
:105790008D3128966CAF7DAF8EAF9FAF2897812C4F
:1057A000912CB0E2AB2EB3E4BB2E10C0812C912C17
:1057B000A0E2AA2EA3E4BA2E80E090E8A3E6B4E427
:1057C00028968CAF9DAFAEAFBFAF2897C701B6018B
:1057D0000E948D31A50194010E94EE326B017C0183
:1057E000A501940128966CAD7DAD8EAD9FAD289737
:1057F0000E94EE329B01AC01C701B6010E946033EA
:105800009B01AC0160E070E080E89FE30E94EE3213
:105810006B017C016091730470917404072E000C7D
:10582000880B990B0E948D319B01AC01C701B60119
:105830000E94C8310E94D2335B0170936102609371
:1058400060022C966CAD7DAD8EAD9FAD2C970E9405
:105850008D31A30192010E94EE326B017C01A30104
:10586000920124966CAD7DAD8EAD9FAD24970E94C4
:10587000EE329B01AC01C701B6010E9460339B016F
:10588000AC0160E070E080E89FE30E94EE326B01C3
:105890007C018091750490917604BC01990F880B6E
:1058A000990B0E948D319B01AC01C701B6010E948A
:1058B000C8310E94D2338B017093630260936202FD
:1058C000F0901A02E0901B0240E050E0A0E0B0E04F
:1058D000CC24CA94DC2C80E090E0BC01660F771FDA
:1058E000FB01E45CFD4F20813181FB01E45EFD4F53
:1058F0008080918060507F4FFB01608171816130B9
:10590000710531F054F0643071050CF436C205C0F5
:105910004F2D5E2DA4E1B0E002C0672B21F02A15C7
:105920003B05BCF405C02A153B05C4F480E190E0BA
:10593000240F351FA216B30664F4801691064CF4AA
:10594000F401EA0FFB1F0E171F071CF46C0180E126
:1059500090E00196803191050CF4BFCF80915E02FA
:1059600090915F02C816D90609F4FDC146010D2CBD
:10597000000CAA08BB08B7FE28C0E091E002F09135
:10598000E1020190F081E02D6DE280EE92E0099558
:1059900022273327A901281939094A095B0919A2C5
:1059A0008E010F5D1F4FCA01B9012AE030E040E0CF
:1059B00050E00E948632605DD8016E938D01211502
:1059C00031054105510579F717C0A501940119A2C8
:1059D0008E010F5D1F4FCA01B9012AE030E040E09F
:1059E00050E00E948632605DF80162938F012115BC
:1059F00031054105510579F7B80180EE92E00E942A
:105A00008E2164EA71E080EE92E00E948E21F4E043
:105A1000CF16D10408F0A3C110925D0210925C026F
:105A2000C6010E949F1422E0C216D10409F493C15A
:105A300083E0C816D10409F48EC191E0C916D104DF
:105A400009F08DC1D0925D02C0925C020E941216D4
:105A5000609103047091040420E134E843E050E0D5
:105A600080910704909108040E94F41E40E1E42E06
:105A700044E8F42E00E010E024E330E044E350E09A
:105A800067EC71E081E792E00E94401524E330E08A
:105A900044E350E06DEB71E083E191E00E9440153A
:105AA00024E330E044E350E063E171E081E792E019
:105AB0000E94401524E330E044E350E06DEB71E0D8
:105AC00087EC91E00E94401521E040E050E062E068
:105AD00070E08EE091E00E94DB1F21E040E050E0AA
