:100000000C946F0C0C9439100C9412100C94B722B1
:100010000C94B7220C94B7220C94970C0C94970C68
:100020000C94970C0C94970C0C94970C0C94970CC4
:100030000C94970C0C94970C0C94970C0C94970CB4
:100040000C94C80F0C94970C0C94A40E0C947E0E78
:100050000C94970C0C94970C0C94970C0C94970C94
:100060000C94C1220C94970C05A84CCDB2D44EB977
:100070003836A9020C50B9918688083CA6AAAA2A4B
:10008000BE000000803F00000000050001000003EA
:100090000C0501F5050005050601F509000A0C0B24
:1000A00000F51800080E0A01F526000C0C0C00F5EE
:1000B00038000A0C0B01F5470002050301F5490061
:1000C00005100601F5530005100600F55D0007094F
:1000D0000800F4650009090B01F670000204040130
:1000E000FF710004020601FC720002020401FF73AA
:1000F00000050C0500F57B00070C0901F5860001E1
:100100000C0904F58800070C0901F59300070C0998
:1001100001F59E00080C0900F5AA00070C0901F57D
:10012000B500070C0901F5C000080C0901F5CC0069
:10013000070C0901F5D700070C0901F5E2000208D8
:100140000401F9E400020A0401F9E70009090B01BE
:10015000F6F20009040B01F8F70009090B01F60299
:1001600001040C0601F5080111111201F42D010C16
:100170000C0C00F53F01090C0A01F54D010B0C0DAB
:1001800001F55E010C0C0E01F57001070C0901F57B
:100190007B01070C0801F586010B0C0D01F5970199
:1001A0000B0C0D01F5A801020C0501F5AB010410C3
:1001B00005FFF5B3010B0C0C01F5C401080C090196
:1001C000F5D0010C0C0E01F5E2010C0C0E01F5F45A
:1001D000010D0C0F01F50802080C0901F514020DC0
:1001E0000E0F01F52B020A0C0B01F53A02070C0861
:1001F00001F545020B0C0B00F556020B0C0D01F539
:1002000067020B0C0B00F57802130C1300F5950236
:100210000D0C0D00F5A9020B0C0B00F5BA020B0C2E
:100220000C00F5CB0204100602F5D302050C050004
:10023000F5DB0204100600F5E30208070800F5EA02
:10024000020A010A0004EC0203030601F4EE0207AD
:10025000080800F9F502070C0901F5000306080873
:1002600001F90603070C0901F5110307080901F953
:100270001803050C0500F52003080C0800F92C03F1
:10028000070C0901F53703020B0401F63A03030FCB
:100290000400F64003080C0901F54C03020C0401AC
:1002A000F54F030C080E01F95B0307080901F96219
:1002B0000308080A01F96A03070C0901F975030725
:1002C0000C0901F9800306080701F98603050807F0
:1002D00001F98B03060A0600F7930307080901F9E1
:1002E0009A0308080800F9A2030D080D00F9AF03EE
:1002F00009080900F9B803080C0800F9C403070845
:100300000800F9CB0305110601F4D603011005021C
:10031000F5D80306110600F4E50309020B01FA5BA8
:1003200064920360DEF729000884210BFF11084264
:1003300013FF2318842108183EFEDAD8F87C1F1B0F
:100340009BFF7C18183847CCC487D03B00200400A2
:10035000DE0BE13333F21E3C1F8661983C0E078BA7
:10036000368731CFD9E7FE801188C46318C630863E
:1003700010C2420863086318C463110810234BA11C
:100380008FB48810080402010FF84020100800F60E
:10039000FFF0188423108C42310038FB1E38306087
:1003A000C1C78DF1C0FFF079FA342041820C30C111
:1003B000FFF079FA3020C70F07071BF3C002060EC3
:1003C0000E1E36667FFF0606067CF902078F8383C2
:1003D000071FF3C00838E3861FBFE3C38DF9E0FFB2
:1003E000FE060C0C0818103020606039FF1E3C6FB0
:1003F000BFE3838FFBE079FB1C3C7FCD871C70C182
:1004000000F00FF00F600187CF9E0C0780F81F01EE
:1004100080FF80001FF080781F81F0187DF9E08058
:10042000006733364C406603F007FE0F038600C6B4
:1004300039323E8B31C5106298214C31A73999FF72
:100440008473830018E03C3FF807F0000600600F5B
:1004500000F01981983083FC3FC606606C03FC7F76
:1004600031D86C67E3FD86C1E1FFDFC00F87FDC0B7
:10047000F00C0180300600E00E04FF87E0FF0FFC67
:10048000C0EC06C02C03C03C02C06C0CFFCFF0FFD8
:10049000FF060C1FFFE0C183FFF0FFFF060C1FFFEC
:1004A000E0C18306000FC7FDC0F00C0180307E0F55
:1004B000E06E0CFF87C0C0780F01E03C07FFFFFE35
:1004C00003C0780F01E030FFFFFF333333333333A2
:1004D00033FEC1986318660D81E0360660C6186366
:1004E000066060C0C0C0C0C0C0C0C0C0C0FFFFC008
:1004F0003E07F0FD9BCF3C63C63C03C03C03C03CC1
:1005000003C03E03F03D83CC3C63C23C33C1BC0F0F
:10051000C07C030F81FF1C1DC06C01E00F0078033D
:10052000E033838FF81F00FCFEC3C3C3FEFCC0C0D2
:10053000C0C0C00F81FF1C1DC06C01E00F0078031C
:10054000E03B838FF83F003F0070FC3F8C630CC69C
:100550003F8FC338C630CC1B0679FB140C0E0E0639
:10056000070FF3C0FFFFFC10020040080100200449
:100570000080100200C0780F01E03C0780F01E03ED
:10058000C06C19FF0F80C06819831043186206C041
:10059000D80E01C0100200C0C0681C19838330D877
:1005A000431318663204C6C0F0580E0E0181C030E5
:1005B0001002020060318306303B00F803801C010A
:1005C000B018C1871819C060E0CC18C60D80E018BB
:1005D0000100200400801002007FEFF80200C0300C
:1005E0000C010040180601FFBFF0FF88888888884A
:1005F00088FFC210C21086108610FF111111111150
:1006000011FF181C3434266243FFC0C88078FA10EA
:10061000E648913FC183060FDFF1E1C38FFFC03F82
:10062000FC20830FCF02040813AFF0C18385F9F0DB
:1006300039FB1FF8181F9E19D8CF798C6318C03F5B
:100640006746663C60607EC6C3E67CC183060DDFFC
:10065000F1E3C78F1E30F3FFFC6C36DB6DB790C043
:10066000C0C0C0C6CCD8F0D8CCC6C7FFFFFFFDEFD6
:10067000FEC63C63C63C63C63C63FDFF1E3C78F18E
:10068000E33C7EC38181C37E3CF9FF1E1C38FFFC26
:10069000C18306003FFF1C3878FF9F060C1830DB33
:1006A000FE70C30C3077F3E3C7FE0087FF61861846
:1006B0003CF0C78F1E3C78FFBBC34666243C18182D
:1006C00010C21A3899CC5B43DE1C60630208C33346
:1006D0000D8381C1B18D83C366663C3C1818103010
:1006E000206040FFF820C1041FBF39D8C63188867A
:1006F00018C6318738FFFFE3830C30C3040C730C3A
:1007000030C33CE0F8C78000000000070001000093
:1007100004110701F0090009060C01F010000E1287
:100720000E00F030000B140D01F04C0010111101FF
:10073000F06E0010111201F0900004060601F09313
:100740000008170901F0AA0008170900F0C1000A03
:100750000B0B01F0CF000C0B0E01F4E000040807B6
:1007600001FDE40006030801FAE70004040701FDA7
:10077000E90007110700F0F8000B110D01F010015E
:1007800003110D05F017010B110D01F02F010A11D6
:100790000D01F045010B110D01F05D0109100D0275
:1007A000F16F010B110D01F087010A110D02F09D8F
:1007B000010B110D01F0B5010B110D01F0CD01047C
:1007C0000B0701F6D301040F0701F6DB010C0D0E38
:1007D00001F2EF010C080E01F5FB010C0D0E01F208
:1007E0000F0207110901F01E0216161801F05B0234
:1007F00013111300F084020E111102F0A202101165
:100800001301F0C40210111302F0E6020C110F02E2
:10081000F000030B110F02F0180311111401F03D49
:100820000310111402F05F0304110802F0680307BB
:100830001508FFF07B030F111102F09B030C110F41
:1008400002F0B50311111502F0DA0310111402F0D1
:10085000FC0313111501F025040D111002F04104E1
:1008600013151501F073040E111002F091040D110F
:100870000F01F0AD0410111101F0CF04101114029A
:10088000F0F10411111100F016051C111C00F052BA
:100890000513111400F07B0511111100F0A00510D3
:1008A000111100F0C20508160B02F0D80507110758
:1008B00000F0E70509160B00F000060C090E01F028
:1008C0000E060C010C0003100608070A01F01706BB
:1008D0000C0B0D01F628060C110E01F042060A0B56
:1008E0000C01F650060C110E01F06A060B0B0D01FF
:1008F000F67A0609110700F08E060C110D01F6A814
:10090000060C110E01F0C20604110701F0CB06051A
:10091000170700F0DA060C110D02F0F406031107B8
:1009200002F0FB06140B1702F617070C0B0E01F66C
:1009300028070C0B0E01F639070C110E01F65307B0
:100940000C110E01F66D07090B0B02F67A07090B65
:100950000A01F68707090E0A00F397070C0B0E0130
:10096000F6A8070C0B0C00F6B907130B1300F6D40E
:10097000070D0B0D00F6E6070C110C00F600080C35
:100980000B0D00F6110816151801F04B0818141A73
:1009900001F0870816151A02EFC10817181800EEA3
:1009A0007FFFFF77662007FF70F3F9FCFC763B1CA6
:1009B0000E1838E0E3830E1C3BFFFFFFFFFF1870AB
:1009C000E18FFFFFFFFFFDC3870C1C3071C1C70023
:1009D0000C03F1FF766EC5D83F03E07F83F83F86B6
:1009E00070CF19FB7FFE3F0180300600380CFC18E9
:1009F000C618C630C660C660FCC039800180033CA2
:100A0000067E06E60CC718C718E6307E603C07C0B5
:100A10001FE03FF03CF03C703CE01FE01FC03F8710
:100A20007FCFFBFEF1FEF0FCF0F8FFFC7FFE1F1F06
:100A3000FFFE66070E1C1C38787870F0F0F0F0F0BE
:100A4000F0F0707878381C1C0E07E070383C1C1EE3
:100A50000E0F0F0F0F0F0F0F0F0F0E1E1C3C3870D5
:100A6000E01C070CCBA7FB830FBFA7CC8701C00FEF
:100A700000F00F00F0FFFFFFFFF0F00F00F00F009D
:100A80006FF7776CFFFFC07FF70E1870E1830E1CC5
:100A90003060C3870C1870E01F07F1FF3CE71FE3CD
:100AA000FC7F8FF1FE3FC7F8F71EF39FF1FC1F009C
:100AB000FFFFFFFFFFFFE01F0FF1FF31E83C038066
:100AC000F01E0380F01C0781E0380FFBFFFFE03EC3
:100AD0001FE7F91F03C0F0783C0F03E03C0F03E071
:100AE000FFFFFE7E0001C0380F03E0FC3F87F1DE10
:100AF00073DC7BFFFFFFFE0780F01E03C0FFFFFFDC
:100B0000FE0F0783F9FEFF83C0E0787FFFFDFC073F
:100B100081E03C0F01C0781FC3FE7FDE3FC7F8FFB6
:100B20001FE3DFF1FC1F00FFFFFFFC1E0781E0F069
:100B30003C0F0781E0703C0F0381E018001F07F1B4
:100B4000E738F71EE3DE71FC3F8F3BC7F8FF1FE37A
:100B5000DE79FE1F001F07F1FF38FF1FE3FC7F8FC8
:100B60007FE7F87F03C0781E07C0F03C007FF700E6
:100B700007FF707FF70006FF7776C000100F03F1C4
:100B8000FE7F8FC0F00FC07F81FE03F00F0010FFCB
:100B9000FFFFFFF000000FFFFFFFFF800F00FC07CB
:100BA000F81FE03F00F03F1FE7F8FC0F008000F95E
:100BB000FBF8F1E3CF1C38E0C1000E1E3C7000FED4
:100BC000001FFF00F01E07001C380039C3CE661F4F
:100BD000F9B8E3C7C7070F1C1C3CE071F381C6CE10
:100BE0000E1B3838CC71E639FFF063EF81C000731B
:100BF000C00383C03C07FFE003FC0003F0007E005D
:100C00000FC003FC007F800F7803CF0079F01F1E18
:100C100003C3C0783C1FFF83FFF8FFFF1E01F3C032
:100C20001EF803E0FFC3FF8FFF3C7CF0F3C3CF1E31
:100C30003FF0FFF3FFEF07BC1FF07FC1EFFFBFFCEA
:100C4000FFE003FC0FFF1FFF3F077C017800F80067
:100C5000F000F000F000F80078007C013F071FFF73
:100C60000FFF03F8FFC0FFF8FFFCF07EF03EF01F1F
:100C7000F00FF00FF00FF00FF00FF01FF03EF07ECE
:100C8000FFFCFFF8FFC0FFFFFFFFFF00F00F00F0C9
:100C90000FFEFFEFFEF00F00F00F00FFFFFFFFF071
:100CA000FFFFFFFFF80F01E03C07FFFFFFFFC078E9
:100CB0000F01E03C0780F00003FC07FF87FFC7E05F
:100CC000E7C00BC003E001E000F03FF81FFE0FEFAC
:100CD00000F7C079F07C7FFE1FFE03F800F00FF0F4
:100CE0000FF00FF00FF00FF00FFFFFFFFFFFFFF00F
:100CF0000FF00FF00FF00FF00FF00FF00FF00FFFED
:100D0000FFFFFFFFFFFFFFF01E3C78F1E3C78F1EE0
:100D10003C78F1E3C78F1E7FF7EF00F07DE1F3C76A
:100D2000C78F0F3E1E783DF07FC0FF01FF03DF0736
:100D30009F0F1F1E3E3C3E783EF03EF00F00F00F2E
:100D400000F00F00F00F00F00F00F00F00F00F00A8
:100D5000FFFFFFFFF0F007FC03FE03FF83FFE3FF4D
:100D6000F9FFFDFFFFFFF7F7F9F3FC71FE10FF003D
:100D70007F803FC01FE00FF00780F00FF80FFC0FDF
:100D8000FE0FFE0FFF0FFF8FF7CFF3EFF1FFF0FF26
:100D9000F0FFF07FF03FF01FF00FF00703F801FFC6
:100DA000C07FFC1F07C7C07CF007BE00FF800FF0AC
:100DB00001FE003FE00FBC01E7C07C7C1F07FFC0C5
:100DC0007FF003F800FFC7FF3FFDE1EF0FF87FC39F
:100DD000DFFEFFE7FE3C01E00F007803C01E00F0DD
:100DE0000003F801FFC07FFC1F07C7C07CF007BEEF
:100DF00000FF800FF001FE003FE00FBC01E7C07C68
:100E00007C1F07FFC07FF003F8001FC001FF800FA9
:100E1000E00078FFC3FF8FFF3C3CF0FBC3CF0F3FE8
:100E2000F8FFC3FF0F3E3C7CF0F3C3EF07BC1EF09E
:100E30007C1FC1FF9FFDF06F007C03F80FF83FE0BF
:100E40007F807C01F80FF07BFFCFFC1F80FFFFFF4E
:100E5000FFFFFF03C003C003C003C003C003C00300
:100E6000C003C003C003C003C003C003C003C0F07D
:100E70000FF00FF00FF00FF00FF00FF00FF00FF07A
:100E80000FF00FF00FF00FF81F7C3E7FFE3FF80FC2
:100E9000E0F807BC07DF03C783E3E1E0F1F078F097
:100EA0003E780F7807FC01FE00FE003F001F0007A0
:100EB00080038000C000F80F01F780F01E781F81CA
:100EC000E7C1F83E3C3FC3C3E3FC7C1E7FE781E7FC
:100ED0009E780FF9FF00FF0FF00FF0FF007E07E094
:100EE00007E07E003E07C003C03C001C0380018079
:100EF0001800FC07E7C1F8FC3E0F8F80FBE00FF8FD
:100F000000FF001FC001F8007F001FF007FF00FB7B
:100F1000F03E3F0F83E3F03EFC03E0F80FBE0F8F7F
:100F200007C7C7C1F7C07BE03FE00FF003F001F057
:100F300000F8007C003E001F000F8007C003E000A7
:100F40007FFF7FFE7FFC007C00F801F801F003E0EA
:100F500003E007C00F800F801F003E003FFF7FFFB0
:100F6000FFFFFFFFFFF0F0F0F0F0F0F0F0F0F0F036
:100F7000F0F0F0F0F0FFFFFFE0C183070E0C18382F
:100F80007060C1C383060EFFFFFFE0F0783C1E0FC8
:100F90000783C1E0F0783C1E0F0783C1FFFFFFFC11
:100FA0000700F00F81F81F839C39C70EF0F0FFF0A7
:100FB000107EE7C7C7E67E7F8FF8C3C83C0FC3FC2F
:100FC000F3CE3CE3DFFF7DE0F00F00F00F00F00F09
:100FD00000F78FFEF1EF0FF07F07F0FF0FF1EFFE4C
:100FE000F7801F8FF787C0F03C0F03C0784FF1F8F0
:100FF00000F00F00F00F00F00F1FF7FF78FF0FE079
:10100000FE0FE0FF0F70F7FF1EF01F8FF9C3F87F90
:10101000FFFFFC0780782FFC7F00078FC7078381C5
:10102000C3F9FC381C0E070381C0E07038001FF7BD
:10103000FF71CF1EE1E71C7FC1F07803F83FEF3E60
:10104000E0EE0EF1E7FC3F80F00F00F00F00F00F34
:1010500000F3CFFEF9EF0FF0FF0FF0FF0FF0FF0FDF
:10106000F0F06FF6007777777777703BDE7000E708
:1010700039CE739CE739DEFF7980E00E00E00E0088
:10108000E00E00E1EE3CE78EF0FE0FF0EF0E78E3AD
:10109000CE3CE1F0FFFFFFFFFFFFE0E7878FFCFEA4
:1010A000F1F9EE0F0EE0E0FE0E0FE0E0FE0E0FE0B5
:1010B000E0FE0E0FE0E0F0F7CFFEF8EF0EF0FF0FCE
:1010C000F0FF0FF0FF0FF0F01F83FE78EF0FF07FBF
:1010D00007F07F0F78F3FE1F80F78FFEF0EF0FF021
:1010E0007F07F07F0FF1EFFEFF8F00F00F00F00F92
:1010F00000F0001EF7FF70FF0FE0FE0FE0FF0F781B
:10110000F7FF1FF00F00F00F00F00F00F0E777FF80
:10111000DF2F070381C0E07038003E3FB85F0FE368
:10112000F8FC1F877F9F80080C0E0FFFF9C0E0704E
:10113000381C0E0791F878F0FF0FF0FF0FF0FF0F4B
:10114000F0FF0F71F7FF3EF0F0F70F79E39E3DC11E
:10115000FC1F80F80F00F00600F0E1EE1C39E78F6D
:101160001CF9C3BF787F7E07EFC0F8F00F1E01C3E4
:10117000C0183000F8FBC78F783F80F803C03E03EB
:10118000F83DE3C7BC1EF0F70F79E39E3DC1FC1F9D
:1011900081F80F80F00F00E01E01C03C0380780052
:1011A0007FF7FE03C07C0780F01F01E03C07FFFFD4
:1011B000F000000400006000030000180001C000FF
:1011C0000E000070000380000C00006000030000AF
:1011D0001C00F0E001C300039C000660001F8000BB
:1011E0003C0000F000038000040000007E0001FFCE
:1011F0008003E3E00300E010007030003830001896
:10120000780018FC001C30001C30003F38003E38CD
:10121000001C18000C1C00080E00000781C003FF12
:10122000C001FF00007C00040000300000C0000787
:10123000003C1E01F8780F80F07C03E3E0079F007C
:101240000FF8001FC0003E0000F80007F0003FE06C
:1012500001E7C00F8FC0FC1FFFE03F9F003E100062
:10126000007FFFFD10004620008C400118800231F5
:101270000004620008C4001188002310004620000A
:101280008C3FFE180000300000600000C1FFC182EA
:101290001F83043F06087E0C10FC1821F82843F039
:1012A0004887E08FFFFE00000100FF0032000100D0
:1012B00000010200000703003010040000000800D5
:1012C0000202090000000A0000000C0000000D00EE
:1012D00000000F00000010000000110007001200C5
:1012E000000013000000FF00C8001000901611005D
:1012F0002702FF00320012001A00FF003200130024
:10130000001829002A00FF003200300000003100E0
:1013100000003200000035000602360008083700E1
:10132000070038000102390000003C0000003D00C9
:1013300000002000000021000000500000005100CB
:10134000EF005200000053003F01600000A7610061
:1013500003006A000000900010009200000093005B
:10136000030095000011970000009800000007009E
:1013700033011F038600207E14A0090707207E1B6F
:1013800000000000240027002A0000000000003EAA
:101390005B4F5B3E3E6B4F6B3E1C3E7C3E1C183CE5
:1013A0007E3C181C577D571C1C5E7F5E1C00183C41
:1013B0001800FFE7C3E7FF0018241800FFE7DBE78A
:1013C000FF30483A060E2629792926407F05050771
:1013D000407F05253F5A3CE73C5A7F3E1C1C0808CD
:1013E0001C1C3E7F14227F22145F5F005F5F060992
:1013F0007F017F006689956A606060606094A2FFEB
:10140000A29408047E040810207E201008082A1CDC
:1014100008081C2A08081E101010100C1E0C1E0CA8
:1014200030383E3830060E3E0E0600000000000048
:10143000005F00000007000700147F147F14242AB7
:101440007F2A122313086462364956205000080789
:101450000300001C2241000041221C002A1C7F1CAA
:101460002A08083E080800807030000808080808AC
:10147000000060600020100804023E5149453E0013
:10148000427F400072494949462141494D33181471
:10149000127F1027454545393C4A494931412111C0
:1014A00009073649494936464949291E00001400B2
:1014B00000004034000000081422411414141414D5
:1014C000004122140802015909063E415D594E7C33
:1014D0001211127C7F494949363E414141227F41E8
:1014E00041413E7F494949417F090909013E414146
:1014F00051737F0808087F00417F41002040413F31
:10150000017F081422417F404040407F021C027F3F
:101510007F0408107F3E4141413E7F090909063E94
:101520004151215E7F091929462649494932030163
:101530007F01033F4040403F1F2040201F3F403875
:10154000403F631408146303047804036159494D50
:1015500043007F4141410204081020004141417F86
:1015600004020102044040404040000307080020FC
:10157000545478407F2844443838444444283844FC
:1015800044287F385454541800087E090218A4A433
:101590009C787F0804047800447D40002040403D52
:1015A000007F1028440000417F40007C04780478CC
:1015B0007C080404783844444438FC18242418185F
:1015C000242418FC7C0804040848545454240404BB
:1015D0003F44243C4040207C1C2040201C3C4030A8
:1015E000403C44281028444C9090907C4464544CD7
:1015F0004400083641000000770000004136080032
:1016000002010204023C2623263C1EA1A161123ADB
:101610004040207A38545455592155557941225427
:10162000547842215554784020545579400C1E522C
:1016300072123955555559395454545939555454D1
:10164000580000457C410002457D420001457C4038
:101650007D1211127DF0282528F07C54554500207C
:1016600054547C547C0A097F4932494949323A44EE
:1016700044443A324A4848303A4141217A3A424059
:101680002078009DA0A07D3D4242423D3D4040402B
:101690003D3C24FF2424487E4943662B2FFC2F2BFE
:1016A000FF0929F620C0887E09032054547941009F
:1016B00000447D413048484A32384040227A007A1E
:1016C0000A0A727D0D19317D2629292F28262929FC
:1016D000292630484D40203808080808080808081E
:1016E000382F10C8ACBA2F102834FA00007B000045
:1016F00008142A142222142A14085500550055AA49
:1017000055AA55AAFF55FF55FF000000FF00101015
:1017100010FF00141414FF001010FF00FF1010F051
:1017200010F0141414FC001414F700FF0000FF0064
:10173000FF1414F404FC141417101F10101F101FB2
:101740001414141F00101010F0000000001F1010DF
:1017500010101F10101010F010000000FF101010DB
:10176000101010101010FF10000000FF140000FFF8
:1017700000FF00001F10170000FC04F414141710E1
:10178000171414F404F40000FF00F71414141414D4
:101790001414F700F7141414171410101F101F144A
:1017A0001414F4141010F010F000001F101F0000AB
:1017B000001F14000000FC140000F010F01010FFD7
:1017C00010FF141414FF141010101F00000000F07C
:1017D00010FFFFFFFFFFF0F0F0F0F0FFFFFF000051
:1017E000000000FFFF0F0F0F0F0F3844443844FC78
:1017F0004A4A4A347E02020606027E027E0263558F
:101800004941633844443C04407E201E2006027E49
:10181000020299A5E7A5991C2A492A1C4C7201725B
:101820004C304A4D4D303048784830BC625A463DC5
:101830003E494949007E0101017E2A2A2A2A2A447A
:10184000445F444440514A444040444A51400000AF
:10185000FF0103E080FF000008086B6B08361236BA
:101860002436060F090F060000181800000010109B
:10187000003040FF0101001F01011E00191D171259
:10188000003C3C3C3C000000000000000000230045
:1018900026002900000000080002010000030407E0
:1018A0000000000000000000010204081020408039
:1018B00001020408102001020408102000000000AA
:1018C000250028002B00040404040404040402027C
:1018D00002020202030303030303BB30AC301124F2
:1018E0001FBECFEFD8E0DEBFCDBF24E0ACE2B2E058
:1018F00001C01D92AF3CB207E1F712E0A0E0B1E0F9
:10190000E2ECF1E702C005900D92AC32B107D9F7D5
:101910001CE0CEE6DCE004C02197FE010E94B9364F
:10192000CD36D107C9F70E947E280C94D4380C9488
:101930000000FC01918D828D981761F0828DDF018E
:10194000A80FB11D5D968C91928D9F5F9F73928FB2
:1019500090E008958FEF9FEF0895FC01918D828DA7
:10196000981731F0828DE80FF11D858D90E0089574
:101970008FEF9FEF0895FC01918D228D892F90E0CC
:10198000805C9F4F821B91098F73992708958EEF7A
:1019900092E00E94BB0C21E0892B09F420E0822F09
:1019A0000895FC01848DDF01A80FB11DA35ABF4F1C
:1019B0002C91848D90E001968F739927848FA6894E
:1019C000B7892C93A089B1898C9180648C93938D75
:1019D000848D981306C00288F389E02D80818F7D65
:1019E00080830895EF92FF920F931F93CF93DF931D
:1019F000EC0181E0888F9B8D8C8D981305C0E88960
:101A0000F989808185FD24C0F62E0B8D10E00F5FD3
:101A10001F4F0F731127E02E8C8DE8120CC00FB6EC
:101A200007FCFACFE889F989808185FFF5CFCE01DF
:101A30000E94D10CF1CF8B8DFE01E80FF11DE35A0E
:101A4000FF4FF0820B8FEA89FB898081806207C09B
:101A5000EE89FF896083E889F989808180648083C9
:101A600081E090E0DF91CF911F910F91FF90EF9077
:101A70000895CF93DF93EC01888D8823C9F0EA891C
:101A8000FB89808185FD05C0A889B9898C9186FD77
:101A90000FC00FB607FCF5CF808185FFF2CFA88974
:101AA000B9898C9185FFEDCFCE010E94D10CE7CF93
:101AB000DF91CF91089580E090E0892B29F00E947A
:101AC000C70C81110C94000008953FB7F8948091E1
:101AD000830290918402A0918502B091860226B57E
:101AE000A89B05C02F3F19F00196A11DB11D3FBF56
:101AF000BA2FA92F982F8827820F911DA11DB11DE4
:101B0000BC01CD0142E0660F771F881F991F4A95DF
:101B1000D1F70895089508950E94B6388F929F9244
:101B2000AF92BF92CF92DF92EF92FF920F931F93EB
:101B3000CF93DF93EC014701121613060CF06BC034
:101B4000101611060CF067C0A885B9856A177B07C7
:101B50000CF061C0CA84DB844C155D050CF05BC0E1
:101B60005B01A20EB31EC501019797FD54C07A0117
:101B7000E00EF11EF7013197F7FD4DC077FF49C028
:101B800060E070E057FD02C0780102C040E050E024
:101B90008A179B072CF0CD0101975D01A61AB70AA1
:101BA000EC15FD052CF0F60131977601E41AF50AE3
:101BB0008F019C01CE010E94E5199701D5010E9479
:101BC00096369B01AC01B401CE010E94AE178A8DFE
:101BD000811110C00A851B8501501109288539859E
:101BE0002150310940E050E060E070E0CE010E94F9
:101BF000E51911C0CE01DF91CF911F910F91FF9098
:101C0000EF90DF90CF90BF90AF909F908F900C940B
:101C1000C1195901B7CFDF91CF911F910F91FF905B
:101C2000EF90DF90CF90BF90AF909F908F900895EE
:101C3000CF92DF92EF92FF920F931F93CF93DF9398
:101C4000EC016801121613060CF04FC077FD4DC071
:101C500088859985681779070CF047C0EA85FB8568
:101C60004E175F070CF041C07A01E20EF31E8701A8
:101C70000150110917FD39C057FF35C040E050E051
:101C80000E171F0734F08F01015011097F01E41A6C
:101C9000F50A9B01CE010E94E5199701FF0C440B48
:101CA000550BB601CE010E94AE178A8D811110C06E
:101CB0000A851B8501501109288539852150310974
:101CC00040E050E060E070E0CE010E94E5190DC0F8
:101CD000CE01DF91CF911F910F91FF90EF90DF9098
:101CE000CF900C94C1197901CBCFDF91CF911F9187
:101CF0000F91FF90EF90DF90CF9008951F920F9279
:101D00000FB60F9211242F933F934F935F936F93CE
:101D10007F938F939F93AF93BF93EF93FF938EEF38
:101D200092E00E94D10CFF91EF91BF91AF919F91F2
:101D30008F917F916F915F914F913F912F910F9074
:101D40000FBE0F901F9018951F920F920FB60F9213
:101D500011242F938F939F93EF93FF93E0910E03A2
:101D6000F0910F038081E0911403F091150382FD3F
:101D700012C09081809117038F5F8F732091180399
:101D8000821751F0E0911703F0E0E250FD4F958F7C
:101D90008093170301C08081FF91EF919F918F91F4
:101DA0002F910F900FBE0F901F901895833081F0E8
:101DB00028F4813099F08230A1F008958730A9F09D
:101DC0008830B9F08430D1F4809180008F7D03C0D9
:101DD000809180008F7780938000089584B58F77FD
:101DE00002C084B58F7D84BD08958091B0008F7747
:101DF00003C08091B0008F7D8093B00008951F9341
:101E0000CF93DF93282F30E0F901EC56F74E849101
:101E1000F901E855F74ED491F901EA53F74EC49110
:101E2000CC23C9F0162F81110E94D60EEC2FF0E0C2
:101E3000EE0FFF1FE454F74EA591B4918FB7F894BD
:101E4000111105C09C91ED2FE095E92302C0EC91A2
:101E5000ED2BEC938FBFDF91CF911F910895CF931E
:101E6000DF9390E0FC01E855F74E2491FC01EA5322
:101E7000F74E8491882361F190E0880F991FFC014F
:101E8000E058FC4EC591D491FC01E454F74EA59165
:101E9000B491611109C09FB7F8948881209582237D
:101EA0008883EC912E230BC0623061F49FB7F894C5
:101EB0003881822F809583238883EC912E2B2C935D
:101EC0009FBF06C08FB7F894E8812E2B28838FBF61
:101ED000DF91CF9108958E3008F08E508770806426
:101EE00080937C0080917A00806480937A00809156
:101EF0007A0086FDFCCF809178002091790090E0F7
:101F0000922B08958F929F92AF92BF92CF92DF92C1
:101F1000EF92FF926B017C010E94650D4B015C0109
:101F2000C114D104E104F104F1F00E94650DDC015B
:101F3000CB0188199909AA09BB09883E9340A105DC
:101F4000B10570F321E0C21AD108E108F10888EE6A
:101F5000880E83E0981EA11CB11CC114D104E104B9
:101F6000F10419F7DDCFFF90EF90DF90CF90BF9095
:101F7000AF909F908F9008952FB7F89460917F0253
:101F80007091800280918102909182022FBF08950A
:101F90001F920F920FB60F9211242F933F938F939E
:101FA0009F93AF93BF9380917F0290918002A09105
:101FB0008102B091820230917E0223E0230F2D37FF
:101FC00020F40196A11DB11D05C026E8230F02963D
:101FD000A11DB11D20937E0280937F029093800209
:101FE000A0938102B0938202809183029091840237
:101FF000A0918502B09186020196A11DB11D80932A
:10200000830290938402A0938502B0938602BF91CD
:10201000AF919F918F913F912F910F900FBE0F9095
:102020001F9018951F920F920FB60F9211242F93A5
:102030003F934F935F936F937F938F939F93AF9350
:10204000BF93EF93FF93E0912201F0912301099553
:10205000FF91EF91BF91AF919F918F917F916F9180
:102060005F914F913F912F910F900FBE0F901F9056
:1020700018951F920F920FB60F9211242F933F9332
:102080004F935F936F937F938F939F93AF93BF9380
:10209000EF93FF93E0912001F09121010995FF91C9
:1020A000EF91BF91AF919F918F917F916F915F91D0
:1020B0004F913F912F910F900FBE0F901F90189549
:1020C000CF92DF92EF92FF92FC01A38DB48D9C9191
:1020D00087A189238C93A58DB68D9C9180A589239A
:1020E0008C938BB1962F9C7F8370892B8BB985B194
:1020F00063708C7F682B65B9A78DB0A19C9181A579
:1021000089238C93A78DB0A19C9185A1892B8C9359
:10211000A58DB68D9C9184A1892B8C9383E290E050
:10212000DC011197F1F77BB1C52EDD24EE24FF24ED
:102130006C2D6C7F7370762B7BB965B17C2D7370C1
:102140006C7F672B65B9A78DB0A17C9161A56723D2
:102150006C93A78DB0A17C9165A1672B6C93DC017A
:102160001197F1F77BB16A01EE24FF246C2D6C7F8F
:102170007370762B7BB965B17C2D73706C7F672B88
:1021800065B9A78DB0A17C9161A567236C93A78DDC
:10219000B0A17C9165A1672B6C93DC011197F1F7DD
:1021A0007BB1C32ED42EE52EFF246C2D6C7F737073
:1021B000762B7BB965B17C2D73706C7F672B65B90D
:1021C000A78DB0A17C9161A567236C93A78DB0A169
:1021D0007C9165A1672B6C930197F1F78BB1922FDE
:1021E0009C7F8370892B8BB985B123708C7F282BC2
:1021F00025B9A78DB0A19C9181A589238C93A78D2A
:10220000B0A19C9185A1892B8C93A38DB48D9C91B9
:1022100083A1892B8C93FF90EF90DF90CF9008954E
:10222000FC01A58DB68D9C9180A589238C938BB1E3
:10223000962F9C7F8370892B8BB985B163708C7FBF
:10224000682B65B9A78DB0A19C9181A589238C933A
:10225000A78DB0A19C9185A1892B8C93A58DB68D5E
:102260009C9184A1892B8C938BB1932F9C7F83703D
:10227000892B8BB985B133708C7F382B35B9A78DFD
:10228000B0A19C9181A589238C93A78DB0A19C912D
:1022900085A1892B8C93A58DB68D9C9180A58923D2
:1022A0008C938BB1942F9C7F8370892B8BB985B1D4
:1022B00043708C7F482B45B9A78DB0A19C9181A517
:1022C00089238C93A78DB0A19C9185A1892B8C9398
:1022D000A58DB68D9C9184A1892B8C938BB1922F67
:1022E0009C7F8370892B8BB985B123708C7F282BC1
:1022F00025B9A78DB0A19C9181A589238C93A78D29
:10230000B0A19C9185A1892B8C930895FC01A58D8A
:10231000B68D9C9180A589238C938BB1972F9C7F40
:102320008370892B8BB985B173708C7F782B75B9CD
:10233000A78DB0A19C9181A589238C93A78DB0A175
:102340009C9185A1892B8C938BB1962F9C7F837058
:10235000892B8BB985B163708C7F682B65B9A78D8C
:10236000B0A19C9181A589238C93A78DB0A19C914C
:1023700085A1892B8C93A58DB68D9C9184A1892BE9
:102380008C938BB1952F9C7F8370892B8BB985B1F2
:1023900053708C7F582B55B9A78DB0A19C9181A506
:1023A00089238C93A78DB0A19C9185A1892B8C93B7
:1023B0008BB1942F9C7F8370892B8BB985B143702F
:1023C0008C7F482B45B9A78DB0A19C9181A589230D
:1023D0008C93A78DB0A19C9185A1892B8C93089596
:1023E000EF92FF920F931F93CF93DF93EC017B014A
:1023F0008A8D811129C02D892150233078F430E055
:10240000F901E25CFE4F8081482F50E0220F331F1C
:10241000F901E85CFE4F0081118104C000E010E08A
:1024200040E050E0EB8DFC8D30812FA123232083F1
:1024300060E270E0CE010E948611A80161E270E0C6
:10244000CE010E94861112C08150833078F40A8533
:102450001B8501501109288539852150310940E03B
:1024600050E060E070E0CE010E94E51920E03CE21F
:1024700041E050E0B701CE01DF91CF911F910F9164
:10248000FF90EF900C94AE17FC01A58DB68D9C913A
:1024900080A589238C938BB1962F9C7F8370892B89
:1024A0008BB985B163708C7F682B65B9A78DB0A19E
:1024B0009C9181A589238C93A78DB0A19C9185A126
:1024C000892B8C93A58DB68D9C9184A1892B8C939F
:1024D0008BB1942F9C7F8370892B8BB985B143700E
:1024E0008C7F482B45B9A78DB0A19C9181A58923EC
:1024F0008C93A78DB0A19C9185A1892B8C93089575
:10250000AF92BF92CF92DF92EF92FF920F931F9301
:10251000CF93DF93EC017B016A01B22EA32E77FDEE
:102520001BC157FD19C188859985681779070CF07B
:1025300013C18A859B85481759070CF00DC1EB8D97
:10254000FC8D90818FA1892380838A8D811135C074
:102550008D89823059F08330B1F08130D1F48FEE23
:1025600090E0841B950B6B017C0113C08FEE90E013
:102570009C01261B370B79018FE391E09C01241B02
:10258000350B690106C08FE391E0861B970B7A013A
:102590006C01A70160E270E0CE010E948611A601E5
:1025A00061E270E0CE010E9486114B2D5A2D62E24D
:1025B00070E0CE010E948611C9C0813009F060C070
:1025C000ED89E150E33028F4F0E0EF5BFE4F40810D
:1025D00001C040E066E1CE010E944412970143E051
:1025E00062E0CE010E941011960147E066E0CE0144
:1025F0000E941011ED8DFE8D908188A58923808326
:102600008BB1837080628BB985B18C7F826085B914
:10261000EF8DF8A1908189A589238083EF8DF8A1A2
:1026200090818DA1892B8083ED8DFE8D90818CA171
:10263000892B80838BB19A2D9C7F8370892B8BB9DA
:1026400085B19A2D93708C7FA92EA82AA5B8EF8DFD
:10265000F8A1908189A589238083EF8DF8A19081CD
:102660008DA1892B80838BB19B2D9C7F8370892BBF
:102670008BB985B19B2D93708C7FB92EB82A59C028
:102680008250823008F062C00A851B850150110912
:102690002885398521503109CE010E94E519EB8D3D
:1026A000FC8D90818FA189238083ED8DFE8D90819B
:1026B00088A5892380838BB183708C628BB985B1A7
:1026C0008C7F85B9EF8DF8A1908189A589238083BE
:1026D000EF8DF8A190818DA1892B8083ED8DFE8DEA
:1026E00090818CA1892B80838BB19A2D9C7F8370E4
:1026F000892B8BB995B18A2D83709C7FA82EA92A2E
:10270000A5B8EF8DF8A1908189A589238083EF8DED
:10271000F8A190818DA1892B80838BB19B2D9C7F0B
:102720008370892B8BB995B18B2D83709C7FB82ECC
:10273000B92AB5B8EF8DF8A1908189A58923808346
:10274000EF8DF8A190818DA1892B8083EB8DFC8D7D
:1027500090818BA1892B8083DF91CF911F910F9165
:10276000FF90EF90DF90CF90BF90AF9008950895C5
:102770002F923F924F925F926F927F928F929F9291
:10278000AF92BF92CF92DF92EF92FF920F931F937F
:10279000CF93DF93CDB7DEB76B970FB6F894DEBF5C
:1027A0000FBECDBF4C015A8349831F830E83FD8228
:1027B000EC82CB82DC0158964D915C915997411582
:1027C000510509F0A5C018968D919C91199768172D
:1027D00079070CF05AC11A968D919C911B97E9814B
:1027E000FA81E817F9070CF050C1D12CCB013B81DD
:1027F000F6E03F9F800D911D1124181619060CF06C
:1028000044C1C60133E0880F991F3A95E1F7498129
:102810005A81840F951F181619060CF036C1579669
:102820008C91811103C0203B08F02F5F55E0259F5C
:10283000900111247E876D875B01212CC901861BC5
:10284000970B99878887A981BA811896BB87AA8731
:10285000B5E02B1641F0E885F985EA0DFB1DE6573A
:10286000FC4E349001C0312C69807A80230130FE07
:1028700012C0D401ED91FC91BB81B13031F40480E0
:10288000F581E02D2E813F8118C00684F785E02D6B
:10289000EE80FF801CC0EC81FD812E813F81E2171C
:1028A000F307E1F0D401ED91FC91BB81B13051F41B
:1028B0000480F581E02D2C813D81A301B501C40187
:1028C00009950CC00684F785E02DEC80FD8086011B
:1028D0009601A2016D857E85C40109953694EFEFBE
:1028E0006E1A7E0A4C0C5D1C2A853B8562167306A7
:1028F00009F0BDCF23943FEFA31AB30A4D855E853F
:102900004C0D5D1D5E874D8756E02512A1CFBDC0E1
:10291000FA0134963491329785919491231BA7E064
:102920002A9F800D911D1124FA01259134913A8B33
:10293000298BFC0125903490FC0132963491388724
:10294000319644914C873196E491FC013596A491DF
:10295000319684915B81523050F06A2E0A2E000C21
:102960007708E82F082E000CFF0BFB87EA87FB8116
:10297000CF2ED12C6C9C90016D9C300D7C9C300D29
:102980001124A901460F571F588B4F871C82A12C79
:10299000EA2FAA0FFF0B3B016E0E7F1E5885650FB5
:1029A000711DDB01AE0FBF1FBF8BAE8BE981FA81BA
:1029B000E80FF11D87FDFA95F98FE88F9C85A91620
:1029C00008F063C08A2D90E04A855B85480F591F47
:1029D0004C9D90014D9D300D5C9D300D1124A981C1
:1029E000BA81A20FB31FBE87AD877B8E6A8E4F84DC
:1029F0005888BC81B619BB8BE88DF98DE80FF91F9B
:102A0000FD8BEC8B8B89FA8D8F0F2A8D3B8D4E8938
:102A10005F892417350799F1877041F4C101019648
:102A2000E989FA89E20DF31DB4901C01B7FE1EC0BE
:102A3000D401ED91FC91BB81B13061F40480F5814A
:102A4000E02D2E813F814C895D896A8D7B8DC4018B
:102A500009950CC00684F785E02DEE80FF80860185
:102A600096014D855E85B201C4010995BB0CEA8DC6
:102A7000FB8D3196FB8FEA8F4C0C5D1CC3CF5C81C4
:102A80008885580F5C83A39499CF6B960FB6F89402
:102A9000DEBF0FBECDBFDF91CF911F910F91FF9091
:102AA000EF90DF90CF90BF90AF909F908F907F90EE
:102AB0006F905F904F903F902F900895AF92BF928C
:102AC000CF92EF92FF920F931F93CF93DF93EC017E
:102AD000262F888D998D009709F042C06A3069F4DD
:102AE0002C898E859F8538E0239F800D911D1124B0
:102AF0009F878E871D861C86ACC06D3009F4A9C0E7
:102B00008E898823C1F03C898C859D8546E0349F61
:102B1000800D911D112448855985841795075CF017
:102B20001D861C868E859F85E8E03E9F800D911D49
:102B300011249F878E87EA88FB88088919894E852A
:102B40005F856C857D85CC88CE010E94B8132C8969
:102B50008C859D85F6E02F9F800D911D112441C02D
:102B60006A3079F41D861C862C89FC013696E49126
:102B70008E859F852E9F800D911D11249F878E87A6
:102B800068C06D3009F465C0AC014C5F5F4FFA015D
:102B90003491631708F45DC03196E491E61708F4A8
:102BA00058C0FA014491362F341BFC013296A5908F
:102BB000B490F7E03F9FA00CB11C1124F5013296B0
:102BC00034913196E491332311F0E1110DC0F501F8
:102BD0003496E4912C898C859D85E29F800D911D12
:102BE00011249D878C8735C0F501359644915E8907
:102BF000552311F16C89E32FF0E0E40FF11D47FD3F
:102C0000FA956E9FD0016F9FB00D11244C855D85A4
:102C10004A0F5B1FE885F9854E175F076CF01D862C
:102C20001C86FC013696E4918E859F856E9F800DF3
:102C3000911D11249F878E87EA88FB88088919894E
:102C40004E855F856C857D85CC88CE010E94B8134A
:102C5000BECF81E090E0DF91CF911F910F91FF9067
:102C6000EF90CF90BF90AF900895EF92FF920F93A7
:102C70001F93DC01ED91FC9111971A960D911C9117
:102C80001B9718962D913C9119970684F785E02D96
:102C90007B0140E050E060E070E009951F910F91EA
:102CA000FF90EF9008956F927F928F929F92AF92D4
:102CB000BF92CF92DF92EF92FF920F931F93CF9329
:102CC000DF936C015A014801EB013B01620E731E58
:102CD000C615D70574F4D601ED91FC910084F185F9
:102CE000E02D87019401A501BE01C6010995219639
:102CF000EFCFDF91CF911F910F91FF90EF90DF9079
:102D0000CF90BF90AF909F908F907F906F900895DD
:102D1000EF92FF920F931F93DC01ED91FC91260F30
:102D2000371F215031090680F781E02D78018A0193
:102D300009951F910F91FF90EF900895EF92FF92E8
:102D40000F931F937801DC01ED91FC91240F351F47
:102D50008901015011090680F781E02D9B01099539
:102D60001F910F91FF90EF9008956F927F928F9235
:102D70009F92AF92BF92CF92DF92EF92FF920F930A
:102D80001F93CF93DF93EC014B015A016901380186
:102D9000E881F9810284F385E02D87010995E881B6
:102DA000F981A501460D571D415051090284F38553
:102DB000E02D9601B401CE010995E881F9810084E6
:102DC000F185E02D9301A501B401CE010995E881BB
:102DD000F981C80CD91CB601615071090084F185D4
:102DE000E02D9301A501CE010995DF91CF911F91AF
:102DF0000F91FF90EF90DF90CF90BF90AF909F909A
:102E00008F907F906F9008952F923F924F925F9294
:102E10006F927F928F929F92AF92BF92CF92DF92EA
:102E2000EF92FF920F931F93CF93DF9300D01F92E7
:102E3000CDB7DEB74C017B836A836A015901170164
:102E40009801241B350B37FF03C0319521953109BB
:102E5000C5014A815B81841B950B97FF03C0919547
:102E60008195910951E059838217930714F01982D3
:102E70000BC09A2D8B2D5801092F182F9A818B8109
:102E8000DB82CA82C92ED82E8A819B81A816B906F8
:102E90005CF49C2D8D2D6801092F182F9A818B8150
:102EA000BB82AA82A92EB82E2501AA81BB814A1A0B
:102EB0005B0A38016C187D0877FE03C07194619439
:102EC0007108720157FE03C0BFEFEB1AFB0AF594BD
:102ED000E794C016D1061CF00FEF1FEF1FC001E0F2
:102EE00010E01CC0D401ED91FC91B9810480F58102
:102EF000E02D9101BB23C1F04A815B81B601C40181
:102F00000995E618F708F7FE04C0C00ED11EE40CC0
:102F1000F51CEA81FB813196FB83EA834A815B8160
:102F2000A416B506FCF604C0A6016A817B81E7CF32
:102F30000F900F900F90DF91CF911F910F91FF9005
:102F4000EF90DF90CF90BF90AF909F908F907F9049
:102F50006F905F904F903F902F900895AF92BF92E7
:102F6000CF92DF92EF92FF920F931F93CF93DF9355
:102F7000FC01A38DB48D9C9187A189238C93A58D91
:102F8000B68D9C9180A589238C93828D8230B9F077
:102F9000811113C08BB183708BB985B18C7F85B9DA
:102FA000A78DB0A19C9181A589238C93A78DB0A1F9
:102FB0009C9185A1892B8C9309C0833039F48BB106
:102FC00083708C628BB985B18C7F07C08BB18370A5
:102FD00080628BB985B18C7F826085B9A78DB0A1E5
:102FE0009C9181A589238C93A78DB0A19C9185A1EB
:102FF000892B8C93A58DB68D9C9184A1892B8C9364
:103000008BB1972F9C7FB92E8370892B8BB985B19B
:10301000A72FA370AA2E8C7F8A2B85B9C78DD0A12C
:10302000988181A589238883C78DD0A1988185A1A6
:10303000892B88838BB1C62FCC7F83708C2B8BB967
:1030400085B1D62FD3708C7F8D2B85B9078D10A1BC
:10305000D8019C9181A589238C93078D10A1D8015B
:103060009C9185A1892B8C932150310941095109EB
:1030700069017A0186E0F694E794D794C7948A951B
:10308000D1F7C601761348C1019708F465C060E125
:10309000A78DB0A1CC9171A57C237C93A78DB0A105
:1030A000CC9175A17C2B7C93A78DB0A1CC9171A5FF
:1030B0007C237C93A78DB0A1CC9175A17C2B7C93B4
:1030C000A78DB0A1CC9171A57C237C93A78DB0A1D5
:1030D000CC9175A17C2B7C93A78DB0A1CC9171A5CF
:1030E0007C237C93A78DB0A1CC9175A17C2B7C9384
:1030F000A78DB0A1CC9171A57C237C93A78DB0A1A5
:10310000CC9175A17C2B7C93A78DB0A1CC9171A59E
:103110007C237C93A78DB0A1CC9175A17C2B7C9353
:10312000A78DB0A1CC9171A57C237C93A78DB0A174
:10313000CC9175A17C2B7C93A78DB0A1CC9171A56E
:103140007C237C93A78DB0A1CC9175A17C2B7C9323
:10315000615009F09DCF98CF2F732150C8F0A78DF3
:10316000B0A19C9181A589238C93A78DB0A19C913E
:1031700085A1892B8C93A78DB0A19C9181A58923D2
:103180008C93A78DB0A19C9185A1892B8C93E5CFC1
:10319000A38DB48D9C9183A1892B8C93DF91CF91CA
:1031A0001F910F91FF90EF90DF90CF90BF90AF9065
:1031B00008956BB163706B296BB965B16C7F6A2937
:1031C00065B9078D10A1D801FC9061A56F216C93A2
:1031D000078D10A1D801FC9065A16F296C936BB18C
:1031E00063706C2B6BB965B16C7F6D2B65B9078D06
:1031F00010A1D801FC9061A56F216C93078D10A1DF
:10320000D801FC9065A16F296C936BB163706B2939
:103210006BB965B16C7F6A2965B9078D10A1D801BA
:10322000FC9061A56F216C93078D10A1D801FC90D3
:1032300065A16F296C936BB163706C2B6BB965B131
:103240006C7F6D2B65B9078D10A1D801FC9061A52D
:103250006F216C93078D10A1D801FC9065A16F2997
:103260006C936BB163706B296BB965B16C7F6A2924
:1032700065B9078D10A1D801FC9061A56F216C93F1
:10328000078D10A1D801FC9065A16F296C936BB1DB
:1032900063706C2B6BB965B16C7F6D2B65B9078D55
:1032A00010A1D801FC9061A56F216C93078D10A12E
:1032B000D801FC9065A16F296C936BB163706B2989
:1032C0006BB965B16C7F6A2965B9078D10A1D8010A
:1032D000FC9061A56F216C93078D10A1D801FC9023
:1032E00065A16F296C936BB163706C2B6BB965B181
:1032F0006C7F6D2B65B9078D10A1D801FC9061A57D
:103300006F216C93078D10A1D801FC9065A16F29E6
:103310006C93715009F04DCF019710F070E149CFD7
:103320002F73215008F434CF8BB183708B298BB964
:1033300085B18C7F8A2985B9478D50A1DA019C918E
:1033400081A589238C93478D50A1DA019C9185A199
:10335000892B8C938BB183708C2B8BB985B18C7F2F
:103360008D2B85B9478D50A1DA019C9181A58923C8
:103370008C93478D50A1DA019C9185A1892B8C9368
:10338000D0CFCF93DF93EC01EB8DFC8D90818FA19B
:1033900089238083288539852150310945E064E0FF
:1033A000CE010E9410112A853B852150310949E048
:1033B00068E0CE010E941011EB8DFC8D90818BA1F5
:1033C000892B8083DF91CF9108958F929F92AF9246
:1033D000BF92CF92DF92EF92FF920F931F93CF9302
:1033E000DF93EC017A016901EB8DFC8D30812FA117
:1033F000232320832A8D21115EC02D89223089F05C
:10340000233021F1213081F52FEE30E0A901401B5E
:10341000510B5B0149018E189F08860164017B01F5
:1034200013C02FEE30E0A9014C195D096901C61ADD
:10343000D70A8FE391E09C01201B310B8C010E1900
:103440001F09580146017901BA0110C02FE331E08C
:10345000A9014C195D095901A61AB70A470168016B
:103460008501B7017A0102C05A014B01AB0160E549
:1034700070E0CE010E948611A60161E570E0CE01E8
:103480000E948611A70162E570E0CE010E948611BC
:10349000A80163E570E0CE010E948611A40160E2FC
:1034A00070E0CE010E948611A50161E270E0CE01BC
:1034B0000E94861147C02130C1F49B0143E062E0C5
:1034C0000E941011970147E066E0CE010E941011A2
:1034D000960145E064E0CE010E941011980149E098
:1034E00068E0CE010E9410112DC02250223050F50C
:1034F000CB01770FAA0BBB0BDC0199278827A6010C
:10350000DD0C660B770B9A01AB01282B392B4A2B6C
:103510005B2B6AE2CE010E946010C701FF0CAA0B70
:10352000BB0BDC0199278827A801110F660B770BCD
:103530009A01AB01282B392B4A2B5B2B6BE2CE0176
:103540000E946010EB8DFC8D90818BA1892B808374
:10355000DF91CF911F910F91FF90EF90DF90CF906F
:10356000BF90AF909F908F900895CF92DF92EF928F
:10357000FF920F931F93CF93DF93EC016801121614
:1035800013060CF04EC057FD4CC08A859B8548172A
:1035900059070CF046C0E885F9856E177F070CF0D7
:1035A00040C07B01E20EF31EC701019797FD39C0B1
:1035B00077FF35C060E070E08E179F072CF0CF01D9
:1035C00001977F01E61AF70A8A019C01CE010E9449
:1035D000E5199701FF0C440B550BB601CE010E9473
:1035E000AE178A8D811110C00A851B850150110903
:1035F000288539852150310940E050E060E070E0D5
:10360000CE010E94E5190DC0CE01DF91CF911F912F
:103610000F91FF90EF90DF90CF900C94C11979013A
:10362000CBCFDF91CF911F910F91FF90EF90DF9063
:10363000CF9008952F923F924F925F926F927F9218
:103640008F929F92AF92BF92CF92DF92EF92FF92B2
:103650000F931F93CF93DF9300D000D000D0CDB74E
:10366000DEB75C014B015E834D83280181E090E071
:103670003C01641A750ACA01919581959109AC01C2
:10368000440F551F5A8349831801CC24C394D12C6D
:10369000522F51705B8322702C83C60101972D81BC
:1036A0003E81821793070CF080C077FC0CC08D819F
:1036B0009E8101979E838D83E981FA813296FA83F8
:1036C000E9836E0E7F1EC601880F991F0196680E52
:1036D000791EFB81FF2379F1E0918904F0918A043E
:1036E0002D813E81220F331F2F5F3F4F240D351D4B
:1036F0000084F185E02D8701A4018D819E81481B06
:10370000590BB6016A0D7B1D89E894E00995E0919B
:103710008904F0918A040084F185E02D91012D5FE8
:103720003F4FA4014C195D096D817E816A0D7B1D9F
:1037300089E894E009959C81992381F1E0918904BD
:10374000F0918A042D813E81220F331F2F5F3F4F5E
:10375000240D351D0084F185E02D8701A4018D81A4
:103760009E81481B590BB5016C197D0989E894E0CD
:103770000995E0918904F0918A040084F185E02D97
:1037800091012D5F3F4FA4014C195D09B5018D8159
:103790009E81681B790B89E894E009959FEFC91A0F
:1037A000D90AE2E02E0E311C78CF26960FB6F89497
:1037B000DEBF0FBECDBFDF91CF911F910F91FF9064
:1037C000EF90DF90CF90BF90AF909F908F907F90C1
:1037D0006F905F904F903F902F900895CF92DF921F
:1037E000EF92FF920F931F93CF93DF936C017A01B7
:1037F0008B01C0E0D0E0CE15DF0589F0D8016D91D6
:103800008D01D601ED91FC910190F081E02DC60172
:103810000995892B11F47E0102C02196ECCFC701D6
:10382000DF91CF911F910F91FF90EF90DF90CF909C
:1038300008950F931F93CF93DF93EC0188819981B3
:10384000009729F02A813B812617370788F48B01DE
:103850006F5F7F4F0E94EC37009761F099838883F8
:103860001B830A832C813D81232B11F4FC011082E0
:1038700081E001C080E0DF91CF911F910F91089509
:10388000EF92FF920F931F93CF93DF93FC0124815C
:1038900035816115710511F480E019C0411551059C
:1038A000A9F07B01EC018A01020F131FB8010E94ED
:1038B000191C882389F3288139818C819D81B70166
:1038C000820F931F0E94CD381D830C8381E0DF910E
:1038D000CF911F910F91FF90EF900895CF93DF93B9
:1038E000EC0188819981009711F00E945437198268
:1038F00018821D821C821B821A82DF91CF9108954B
:103900002F923F924F925F926F927F928F929F92EF
:10391000AF92BF92CF92DF92EF92FF920F931F93DD
:10392000CF93DF9300D000D0CDB7DEB73C015B0171
:103930002A013C832B83680188279927801B910BE0
:103940009C01220F331F3A8329831301200E311E5D
:10395000E0918904F0918A04240F351F0684F785CD
:10396000E02D0B811C81AB01B10189E894E0099540
:103970002B813C8189819A81280F391FD9011197A8
:10398000BA83A983AC0CBD1C640C751CC3018C19D3
:103990009D098D0121E0A601B50101970E941A1B26
:1039A00009811A8122E0A601B501C1010E941A1BFA
:1039B0000F900F900F900F90DF91CF911F910F916B
:1039C000FF90EF90DF90CF90BF90AF909F908F903F
:1039D0007F906F905F904F903F902F9008952F921F
:1039E0003F924F925F926F927F928F929F92AF928F
:1039F000BF92CF92DF92EF92FF920F931F93CF93DC
:103A0000DF9300D000D000D0CDB7DEB77C016B01D2
:103A10005E834D83890181E090E04C01841A950A10
:103A2000CA019195819591099C01220F331F3A8318
:103A30002983E0918904F0918A04460F571F04807E
:103A4000F581E02D9801B70189E894E00995E091AE
:103A50008904F0918A04A6018D819E81481B590B2F
:103A60000480F581E02D9801B70189E894E009957B
:103A7000E0918904F0918A046D817E816E0D7F1D35
:103A80000480F581E02D9801A60189E894E009956C
:103A9000E0918904F0918A04B7012D813E81621B77
:103AA000730B0480F581E02D9801A60189E894E06C
:103AB0000995A12CB12C81E090E09C838B83ED8152
:103AC000FE81AE16BF060CF0A0C097FC0DC0ED81C4
:103AD000FE813197FE83ED8329813A812E5F3F4F2E
:103AE0003A832983820E931E3FEFA31AB30A8B8178
:103AF0009C8102969C838B83880E991E25014E0C17
:103B00005F1CE0918904F0918A040480F581E02D26
:103B100098016D807E806C0C7D1CA301B20189E848
:103B200094E0099517012A183B08E0918904F09167
:103B30008A040480F581E02D9801A301B10189E890
:103B400094E00995E0918904F0918A040480F5815C
:103B5000E02D980136018D819E81681A790AA301B2
:103B6000B20189E894E00995E0918904F0918A0412
:103B70000480F581E02D9801A301B10189E894E06A
:103B8000099535016C0C7D1CE0918904F0918A0443
:103B90000480F581E02D9801A3014D805E804E0CDC
:103BA0005F1CB20189E894E00995E0918904F091E5
:103BB0008A040480F581E02D9801A30117018D810D
:103BC0009E81281A390AB10189E894E009953601E5
:103BD0006A187B08E0918904F0918A040480F581D9
:103BE000E02D9801A301B20189E894E00995E091E4
:103BF0008904F0918A040480F581E02D9801A301E5
:103C0000B10189E894E009955ACF26960FB6F89449
:103C1000DEBF0FBECDBFDF91CF911F910F91FF90FF
:103C2000EF90DF90CF90BF90AF909F908F907F905C
:103C30006F905F904F903F902F900895AF92BF92FA
:103C4000CF92DF92EF92FF920F931F93CF93DF9368
:103C50006C015B01EA017901E0918904F0918A0429
:103C60009A01220F331F2F5F3F4FAB014C1B5D0B9F
:103C70000084F185E02D8701B60189E894E009957B
:103C800000E010E023E0AE01B501C6010E941A1B5E
:103C9000DF91CF911F910F91FF90EF90DF90CF9028
:103CA000BF90AF9008950F931F93CF93DF938370CE
:103CB00080939E0420918D0430918E0440918F0456
:103CC00050919004813059F0833049F03093920440
:103CD00020939104509394044093930408C050930C
:103CE0009204409391043093940420939304E091C0
:103CF000A404F091A50490818091B004892380836D
:103D00008091A304811129C0E0919E04E150E33029
:103D100040F4F0E0EE0FFF1FE95BFE4F4081518160
:103D200002C040E350E163E070E089E894E00E9463
:103D3000861100919304109194040150110920916F
:103D40009104309192042150310940E050E060E04C
:103D500070E089E894E00E94E5198091A304813025
:103D6000A1F4E0919E04E150E33028F4F0E0EC5B34
:103D7000FE4F408101C040E066E189E894E00E9486
:103D8000441289E894E00E94C1198091A304823012
:103D900051F580919E04813059F040F0823021F03D
:103DA000833039F4D8E205C0D8E403C0D8E801C0B4
:103DB000D8EE4D2F66E389E894E00E94441200910A
:103DC00093041091940401501109209191043091B1
:103DD00092042150310940E050E060E070E089E851
:103DE00094E00E94E5198091A304833051F58091FD
:103DF0009E04813059F040F0823021F0833039F454
:103E0000C0E605C0C0E003C0C0EC01C0C0EA4C2F52
:103E100066E389E894E00E944412009193041091B3
:103E20009404015011092091910430919204215081
:103E3000310940E050E060E070E089E894E00E94E1
:103E4000E519DF91CF911F910F910895E091A4049E
:103E5000F091A50490818091AC04892B8083E0913E
:103E6000A804F091A90490818091AE04892B8083ED
:103E7000E091AA04F091AB0490818091AF04892B6A
:103E800080838091B404882371F060E00E94FF0E6B
:103E900062E070E080E090E00E94820F61E080913B
:103EA000B4040E94FF0EE091A404F091A504908157
:103EB0008091B00489238083E091A604F091A70447
:103EC00090818091B104892380838BB183708BB9F9
:103ED00085B18C7F85B9E091A804F091A904908107
:103EE0008091B20489238083E091A804F091A90411
:103EF00090818091AE04892B808383E0E091A804B7
:103F0000F091A90420819091B20492239083E091D2
:103F1000A804F091A90420819091AE04922B908383
:103F2000815061F7E091A404F091A5049081809103
:103F3000AC04892B80830895FC0124813581232BD7
:103F400031F421E061157105A1F0FB0108C0FC010D
:103F5000808191816115710531F421E0FC0180813E
:103F6000882339F005C00E94C43821E0892B09F06C
:103F700020E0822F0895CF93DF93DC01ED91FC9137
:103F8000EB01A881B981309711F01097C9F410970F
:103F900059F0EB012C813D81232B31F08C9190E085
:103FA00091958195910914C0309781F0DC011496A8
:103FB0008D919C911597892B49F0808190E008C0E4
:103FC000BD01CF01DF91CF910C94C43880E090E027
:103FD000DF91CF910895CF93DF93EC0161157105C7
:103FE00061F0FB0101900020E9F73197AF01461B1A
:103FF000570B0E94401C811103C0CE010E946E1C11
:10400000CE01DF91CF910895CF93DF93EC01FB01B7
:1040100044815581608171810E94401C811103C0DF
:10402000CE010E946E1CCE01DF91CF910895EF92D8
:10403000FF920F931F93CF93DF93EC017B018A01D3
:10404000BA010E94191C811104C0CE010E946E1C8D
:1040500007C01D830C83B701888199810E94CD38E8
:10406000CE01DF91CF911F910F91FF90EF900895B6
:10407000FC01808191810C945437EF92FF920F9351
:104080001F93CF93DF93CDB7DEB762970FB6F89447
:10409000DEBF0FBECDBF8C01CB01F80111821082B3
:1040A000138212821582148250E09E012F5F3F4FCF
:1040B0007901B9010E943533F70101900020E9F739
:1040C0003197AF014E195F09B701C8010E9417204F
:1040D00062960FB6F894DEBF0FBECDBFDF91CF91D1
:1040E0001F910F91FF90EF900895FB01DC01119655
:1040F0001C921E9213961C921E92129715961C9259
:104100001E9214978617970749F060817181611597
:10411000710521F0448155810C9417200895FC010C
:104120001182108213821282158214826115710528
:1041300051F0FB0101900020E9F73197AF01461BD8
:10414000570B0C9417200895DC01ED91FC91DB01D5
:1041500014964D915C9115976D917C910280F3813D
:10416000E02D09946115710579F0FB0101900020A3
:10417000E9F73197AF01461B570BDC01ED91FC913C
:104180000280F381E02D099480E090E008954F9241
:104190005F926F927F92EF92FF920F931F93CF9354
:1041A000DF93CDB7DEB7A1970FB6F894DEBF0FBE91
:1041B000CDBF7C01FA01CB0119A2223008F42AE01C
:1041C0008E010F5D1F4F422E512C612C712CBF01AF
:1041D000A30192010E947034F901CA010150110932
:1041E0006A3014F4605D01C0695CD8016C93232BC4
:1041F000242B252B61F7B801C7010E94B220A1969C
:104200000FB6F894DEBF0FBECDBFDF91CF911F91E7
:104210000F91FF90EF907F906F905F904F90089577
:10422000CF92DF92EF92FF920F931F93CF93DF9382
:10423000EC016A017B01E881F9810190F081E02DB8
:104240006DE209958C0144275527BA014C195D0987
:104250006E097F092AE0CE010E94C720800F911FBE
:10426000DF91CF911F910F91FF90EF90DF90CF9052
:1042700008950C94B2206F927F928F929F92AF928A
:10428000BF92CF92DF92EF92FF920F931F93CF9343
:10429000DF931F92CDB7DEB78C017B016A01AC01C1
:1042A00060E370E0809125049091260429830E94A8
:1042B000B4253C01A80160E370E080912104909155
:1042C00022040E945E258C012981222309F4D5C095
:1042D00084EF91E0A0E0B0E08093A9039093AA035B
:1042E000A093AB03B093AC031092AD031092AE0356
:1042F0001092AF031092B0038091A1039091A2039A
:10430000A091A303B091A4038093A5039093A60367
:10431000A093A703B093A8030E94BC0F6093A103CE
:104320007093A2038093A3039093A40365E070E0CD
:1043300080E090E00E94820F6AE070E080E090E010
:104340000E94820F85E68093B2038091B203833688
:1043500009F474C0853609F067C08091AD0390916F
:10436000AE03A091AF03B091B0030196A11DB11DA2
:104370008093AD039093AE03A093AF03B093B003CB
:104380004091A9035091AA036091AB037091AC03D3
:10439000452B462B472B29F4892B8A2B8B2B09F095
:1043A00043C00E94BC0F80909D0390909E03A090FC
:1043B0009F03B090A003DC01CB0188199909AA09D9
:1043C000BB09C297A105B10538F463E070E080E055
:1043D00090E00E94820FE5CF0E94BC0F60939D0386
:1043E00070939E0380939F039093A00383E00E94A9
:1043F00099276BEA71E08091DD039091DE030E94C2
:1044000039212AE041E050E060E070E08091DD0376
:104410009091DE030E94C7200E94FE2764EF71E0A6
:1044200080E090E00E94820F6AE070E080E090E01F
:104430000E94820F83E00E94102885CF0E94BC0F4B
:104440006093A1037093A2038093A3039093A403AA
:104450009601A701B801C3010F90DF91CF911F9181
:104460000F91FF90EF90DF90CF90BF90AF909F9013
:104470008F907F906F900C941E1E9601A701BC0137
:10448000C3010F90DF91CF911F910F91FF90EF909B
:10449000DF90CF90BF90AF909F908F907F906F9064
:1044A0000C94EF1C85ED8093BC008091BC0084FDD2
:1044B000FCCF1092D60208954091B002262F30E032
:1044C000240F311D21323105DCF42091D602243035
:1044D000C9F4FC0180E090E0861758F43091B002F6
:1044E0002191DC01A257BD4FA30FB11D2C93019662
:1044F000F3CF8091B002680F6093B00280E008951E
:1045000081E0089582E0089508958FEF9FEF089568
:104510008FEF9FEF089580918D0290E091958195A6
:1045200091090895CF93DF9300D0CDB7DEB7CB01CB
:10453000642F49835A830E945C224981842F5A81C7
:10454000952F0F900F90DF91CF910895CF93DF9328
:104550001F92CDB7DEB7698361E0CE0101960E945C
:104560005C2281E090E00F90DF91CF9108951F923F
:104570000F920FB60F9211240F900FBE0F901F9045
:1045800018951F920F920FB60F9211242F933F93FD
:104590004F935F936F937F938F939F93AF93BF934B
:1045A000EF93FF938091B900887F803609F49CC017
:1045B00068F5883209F45BC090F4803109F454C086
:1045C00038F4882309F4F6C0883009F44DC0F6C0E9
:1045D000883109F44CC0803209F45DC0EFC08034EA
:1045E00009F468C048F4803309F455C0883309F0F1
:1045F000E5C08093D502D8C0803509F44FC0883516
:1046000009F45DC0883409F0D9C0D6C0883909F4EE
:10461000C7C0A8F4883709F467C038F4883609F4AD
:1046200063C0803709F460C0C9C0883809F4B8C0D5
:10463000803909F45FC0803809F0C0C05BC0803B9E
:1046400009F486C038F4803A09F466C0883A09F45F
:104650007FC0B4C0803C09F4A7C0883C09F4A4C062
:10466000883B09F48AC0AAC08091FB0210C09091D7
:10467000FA028091F902981770F5E091FA0281E050
:104680008E0F8093FA02F0E0E752FD4F8081809315
:10469000BB0085EC86C08093D5028EC0E091FA0203
:1046A00081E08E0F8093FA028091BB00F0E0E75228
:1046B000FD4F80839091FA028091F9026EC0E091E3
:1046C000FA0281E08E0F8093FA028091BB00F0E045
:1046D000E752FD4F80838091D80281116DC081E047
:1046E0008093D70284EA61C083E08093D60210925F
:1046F000D402CFCF8091D402803208F051C0E09133
:10470000D40281E08E0F8093D4028091BB00F0E050
:10471000EC54FD4F8083BDCF85EC8093BC0010929C
:10472000D6028091D402803230F4E091D402F0E0DD
:10473000EC54FD4F10826091D40270E0E091B2021F
:10474000F091B30284EB92E009951092D40236C046
:1047500084E08093D6021092B1021092B002E091F0
:10476000AE02F091AF0209958091B002811105C0AF
:1047700081E08093B00210928E02E091B10281E05C
:104780008E0F8093B102F0E0E257FD4F808180935D
:10479000BB009091B1028091B002981708F479CFD4
:1047A00085E88093BC000AC085EC8093BC00109221
:1047B000D60204C01092D5020E945222FF91EF91BE
:1047C000BF91AF919F918F917F916F915F914F9129
:1047D0003F912F910F900FBE0F901F901895AF92A1
:1047E000BF92CF92DF92EF92FF920F931F93CF93DE
:1047F000DF93CDB7DEB76E970FB6F894DEBF0FBE6E
:10480000CDBF00E011E08EE2A82E82E0B82E9EE43B
:10481000C92E92E0D92E27E2E22E24E0F22EF801F2
:10482000619171918F014AE0CE0149960E943D202D
:10483000F501619171915F014AE0CE0143960E94BA
:104840003D20F601619171916F014AE0CE010D9614
:104850000E943D20B701CE0107960E94752062ECB0
:1048600071E0CE0101960E948F20BE01695F7F4FEB
:10487000CE0101960E9404206AEC71E00E94EB1FB9
:10488000BE01635F7F4F0E94042060ED71E00E94D3
:10489000EB1FBE016D5E7F4F0E94042066ED71E04C
:1048A0000E94EB1FBE01675E7F4F0E940420BC0187
:1048B0008EEF92E00E94A42068E272E08EEF92E018
:1048C0000E94B220CE0101960E943820CE010796A8
:1048D0000E943820CE010D960E943820CE014396CA
:1048E0000E943820CE0149960E943820F6E0EF0E53
:1048F000F11C81E00032180709F091CF6E960FB6D7
:10490000F894DEBF0FBECDBFDF91CF911F910F9105
:10491000FF90EF90DF90CF90BF90AF9008958F926F
:104920009F92AF92BF92CF92DF92EF92FF920F933E
:104930001F93CF93DF935C016B01FC018480958012
:1049400037E2E32E34E0F32E00E010E0CFEFDFEFAC
:10495000F701848195818815990539F4B501C7015E
:104960000E94BB1F892B09F4E8010F5F1F4FF6E07F
:10497000EF0EF11C0031110559F782E0C816D10481
:1049800061F0E3E0CE16D10469F0CA94CD2889F431
:10499000CC0FDD1FC25BDD4F09C0CC0FDD1FC25D38
:1049A000DD4F04C0CC0FDD1FC050DF4F88819981DF
:1049B00001C0CE01DF91CF911F910F91FF90EF9039
:1049C000DF90CF90BF90AF909F908F9008955F92AF
:1049D0006F927F928F929F92AF92BF92CF92DF920F
:1049E000EF92FF920F931F93CF93DF938C015B01A4
:1049F0006A017901FC0184809580612C712CCFEFD4
:104A0000DFEF46E0542E569CC001579C900D1124B8
:104A1000895D9B4FFC01248135812815390549F4B6
:104A2000B8010E94BB1F892B21F4E30130E1632E02
:104A3000712CFFEF6F1A7F0A80E1681671041CF376
:104A4000CE01880F991FFC01E25BFD4FB182A0826D
:104A5000FC01E25DFD4FD182C082FC01E050FF4FBE
:104A6000F182E082DF91CF911F910F91FF90EF9043
:104A7000DF90CF90BF90AF909F908F907F906F907E
:104A80005F90089510929C0410929B0410929A04D7
:104A9000109299048091A1049091A204892B49F06D
:104AA000809197049091980406979093980480932E
:104AB00097041092A2041092A1040895AF92BF929D
:104AC000CF92DF92EF92FF920F931F93CF93DF93DA
:104AD00000D000D0CDB7DEB78C015B01BA01550F15
:104AE000880B990B0E9477332BED3FE049E450E4AB
:104AF0000E94B23320E030E044E353E40E944A35A0
:104B00000E9431369B01AC01B801110F880B990B43
:104B100029833A834B835C830E9477336B017C014A
:104B2000B501BB0C880B990B0E94773329813A8120
:104B30004B815C810E94B2339B01AC01C701B6017D
:104B40000E94D9340E94BC35CB010F900F900F907A
:104B50000F90DF91CF911F910F91FF90EF90DF9019
:104B6000CF90BF90AF900895AF92BF92CF92DF9257
:104B7000EF92FF920F931F93CF93DF9300D000D05B
:104B8000CDB7DEB78C015B01BA01550F880B990BCD
:104B90000E9477332BED3FE049E450E40E94B233AA
:104BA00020E030E044E353E40E944A350E9445355A
:104BB0009B01AC01B801110F880B990B29833A8333
:104BC0004B835C830E9477336B017C01B501BB0C86
:104BD000880B990B0E94773329813A814B815C8144
:104BE0000E94B2339B01AC01C701B6010E94D934C7
:104BF0000E94BC35CB010F900F900F900F90DF916A
:104C0000CF911F910F91FF90EF90DF90CF90BF90C9
:104C1000AF9008954F925F926F927F928F929F9282
:104C2000AF92BF92CF92DF92EF92FF920F931F93BA
:104C3000CF93DF9300D000D000D0CDB7DEB73C01DA
:104C40002091910430919204C901859797FD0396B4
:104C5000959587959595879590932D0280932C0235
:104C600010929C0410929B0410929A041092990442
:104C700037E2832E34E0932EA12CB12C4EE0C42ECB
:104C8000D12C59E0452E512C20912C0230912D022F
:104C90006A147B0429F498E1E92E96ECF92E04C0FD
:104CA0008FEEE82E8BE7F82E04E110E046E050E0AE
:104CB000B60189E894E00E948E0DB401CE01019600
:104CC0000E94752021E030E046E050E0B601CE01C0
:104CD00001960E94E724CE0101960E943820C60169
:104CE0000296909396048093950450929804409273
:104CF0009704B40189E894E00E94A4200E94422510
:104D00008FEFA81AB80A84E0A816B10469F0809160
:104D10002C0290912D02C80ED91E83E0C80ED11C22
:104D200086E0880E911CB0CF26960FB6F894DEBFB1
:104D30000FBECDBFDF91CF911F910F91FF90EF90EC
:104D4000DF90CF90BF90AF909F908F907F906F90AB
:104D50005F904F9008952F923F924F925F926F9283
:104D60007F928F929F92AF92BF92CF92DF92EF92FB
:104D7000FF920F931F93CF93DF934C016B015A0166
:104D8000E90127016090250470902604AC01B5016B
:104D9000C3010E94B4251C01E0902104F09022047C
:104DA000A401B501C7010E945E255C01A601BE01F8
:104DB000C3010E94B4254C01A601BE01C7010E9497
:104DC0005E25800F911FA501400F511F72018C01BC
:104DD0009401B10189E894E00E940417DF91CF911A
:104DE0001F910F91FF90EF90DF90CF90BF90AF9009
:104DF0009F908F907F906F905F904F903F902F90FB
:104E000008956F927F928F929F92AF92BF92CF92AE
:104E1000DF92EF92FF920F931F93CF93DF93C1E046
:104E200080916E0290916F02029709F4C0E0D0E089
:104E30005E01AA0CBB1CC12CD12C28E6822E992421
:104E40009394F601EA0DFB1DE65DFE4F60817181D2
:104E5000072E000C880B990B0E94773320E030E07E
:104E600048E455E40E944A3520E030E044EB53E446
:104E70000E94B2330E94BC35CB01B4010E9482363D
:104E80003C0122EF621A2EEF720A28E6621621E038
:104E9000720624F03C012AE5621A710880E1E82ECE
:104EA00084E8F82E04E010E025E530E04CE350E023
:104EB000B301C3010E94AB260CEF1FEF25E530E0E4
:104EC0004CE350E0B301C3010E94AB26219682E07F
:104ED000C80ED11CC730D1050CF4B3CFDF91CF91F0
:104EE0001F910F91FF90EF90DF90CF90BF90AF9008
:104EF0009F908F907F906F900895609121047091A2
:104F0000220420E134E84CE350E0809125049091A4
:104F100026040E941E1E609121047091220420E04C
:104F200030E048E350E080912504909126040C94F1
:104F30001E1EBF92CF92DF92EF92FF920F931F93AC
:104F4000CF93DF93B82E0E94BC0F6B017C010BE95D
:104F500013E0CDEDD3E069E072E0888199810E9491
:104F600039214B2D50E060E070E02AE08881998182
:104F70000E94C72060E172E0888199810E943921F6
:104F80002AE0B701A601888199810E94C72062E1C9
:104F900072E0888199810E943921F8018681978188
:104FA000A085B185B701A601481B590B6A0B7B0B85
:104FB0002AE0888199810E94C72062E172E088819D
:104FC00099810E943921F801468157816085718558
:104FD00082859385A485B585481B590B6A0B7B0B8D
:104FE0002AE088819981DF91CF911F910F91FF90E5
:104FF000EF90DF90CF90BF900C94C720CF93DF93BA
:10500000C091DD03D091DE0364E172E0CE010E9425
:10501000B22068E272E0CE01DF91CF910C94B22011
:10502000CF939091B103992309F465C0C82F809163
:10503000DD039091DE03DC01ED91FC910480F581AC
:10504000E02D0995811117C085E656C08091DD03DA
:105050009091DE03DC01ED91FC910680F781E02D5B
:105060000995883609F447C0A0F0813709F443C098
:10507000863709F441C08091DD039091DE03DC01A5
:10508000ED91FC910480F581E02D09958111DECF31
:10509000DBCF883571F1833671F70E94BC0F6093C6
:1050A0009D0370939E0380939F039093A0036BE1F5
:1050B00072E08091DD039091DE030E9439214C2F34
:1050C00050E060E070E02AE08091DD039091DE0323
:1050D0000E94C72062E272E08091DD039091DE03BE
:1050E0000E94392162E370E080E090E00E94820F2C
:1050F00002C01092B10383E6CF910895CF93DF935E
:10510000CDB7DEB7E1970FB6F894DEBF0FBECDBFC7
:10511000789484B5826084BD84B5816084BD85B592
:10512000826085BD85B5816085BD80916E0081609E
:1051300080936E0010928100809181008260809344
:105140008100809181008160809381008091800046
:105150008160809380008091B10084608093B10071
:105160008091B00081608093B00080917A0084606B
:1051700080937A0080917A00826080937A00809197
:105180007A00816080937A0080917A0080688093B1
:105190007A001092C1001092DF031092E003109287
:1051A000E1031092E20310929D0310929E0310926D
:1051B0009F031092A00368EB7BE080E090E00E94E8
:1051C000820F8EEF92E09093DE038093DD03E091F7
:1051D0000E03F0910F0382E08083E0910A03F091C7
:1051E0000B031082E0910C03F0910D0380E18083AA
:1051F00010921603E0911203F091130386E080836E
:10520000E0911003F0911103808180618083E0912F
:105210001003F0911103808188608083E091100376
:10522000F0911103808180688083E0911003F091F8
:10523000110380818F7D80830E94BC0F60939D034A
:1052400070939E0380939F039093A00365E871E0A1
:105250008091DD039091DE030E9439216AE070E0C5
:1052600080E090E00E94820F81E08093B1030E9471
:10527000261F0E94261F68EC70E080E090E00E94EC
:10528000820F1092A304E091A404F091A5049081F0
:105290008091B0048923808306EA12E1F8016591C8
:1052A0007491F8013296459154916F3F710531F434
:1052B000BA0180E090E00E94820F04C089E894E087
:1052C0000E9486110C5F1F4F23E10237120731F74E
:1052D00080919E040E94531E0FE311E02FEE30E0F8
:1052E00040E050E060E070E089E894E00E94E51959
:1052F00083E00E94531E60E070E089E894E00E9421
:10530000F01161E08DE00E942F0F80E090E00E949C
:105310000A2620919304309194042052310940913F
:105320009104509192044C505109F8E1EF2EF6ECA3
:10533000FF2E03E010E06AE170E086E090E00E945A
:10534000801C20919304309194042652310940919D
:1053500091045091920442515109E12CF12C6DE1DC
:1053600070E089E090E00E94801C0E947D27AAE204
:105370004A2EA1E05A2EBFE3EB2EB4E0FB2E00E054
:1053800010E088E6882E99249394D2016D917D9146
:105390002D01072E000C880B990B0E94773320E01B
:1053A00030E048E455E40E944A3520E030E044EB28
:1053B00053E40E94B2330E94BC35CB01B4010E9479
:1053C00082363C01B2EF6B1ABEEF7B0AE8E66E163E
:1053D000E1E07E0624F03C01FAE56F1A7108809145
:1053E000250490912604A0902304B0902404A301E6
:1053F0000115110551F466E470E00E94B4250F9781
:105400006C01A3016CE470E009C064E670E00E94E6
:10541000B4250F976C01A30164E670E0C5010E94FA
:105420005E250F975C01B701CE0107960E9475209B
:10543000BE01695F7F4FCE0101960E94752022E078
:1054400030E0A501B601CE0101960E94E724CE010D
:1054500001960E94382020E23DEF43E050E0B50184
:10546000C6010E94EF1CCE0107960E9438200F5FF4
:105470001F4F26E0E20EF11C0730110509F085CF21
:1054800020E038EF42E050E068E270E080912504CF
:10549000909126040E94EF1C20E23DEF43E050E093
:1054A00068E270E088E290E00E94EF1C20E23DEFAD
:1054B00043E050E068E270E08AE590E00E94EF1C73
:1054C000809191049091920420E23DEF43E050E0FE
:1054D00068E270E0865491090E94EF1C809191046B
:1054E0009091920420E23DEF43E050E068E270E0EA
:1054F000885791090E94EF1C609193047091940465
:105500006A527109809191049091920420E23DEFDA
:1055100043E050E08A970E94EF1C67E971E0CE01FA
:1055200001960E948F2023E030E048E250E068E2DC
:1055300070E0CE0101960E94E724CE0101960E9400
:10554000382068E971E0CE0101960E948F2023E0A7
:1055500030E048E250E06AE570E0CE0101960E943A
:10556000E724CE0101960E94382000919104109109
:105570009204065411096AE971E0CE0101960E9475
:105580008F2023E030E048E250E0B801CE010196E0
:105590000E94E724CE0101960E94382000919104D8
:1055A00010919204085711096BE971E0CE01019640
:1055B0000E948F2023E030E048E250E0B801CE01A5
:1055C00001960E94E724CE0101960E943820E090C7
:1055D0009304F09094048AE2E81AF108009191048F
:1055E000109192040A5211096DE971E0CE01019601
:1055F0000E948F2023E030E0A701B801CE01019680
:105600000E94E724CE0101960E9438200E94EF23D9
:1056100081E00E9401270DE411E0093691E01907AD
:1056200008F48EC520E040E154E863E070E0C80172
:10563000885691400E943B210C5E1F4F0531A2E02D
:105640001A0759F76FE971E0CE0101960E948F2089
:10565000209191043091920437FF02C02F5F3F4F99
:105660006901D594C794B8E3CB1AD108A09025045A
:10567000B0902604AC18BD088090930490909404D8
:10568000CC0CDD1CA4014E515109EE24EA94FE2CF1
:1056900002E110E09601B50189E894E00E94B51698
:1056A000E2E0AE0EB11CB0929604A0929504C40143
:1056B000469790939804809397042D813E8149E00A
:1056C000429FC001439F900D1124F5E0CF1AD108ED
:1056D000C816D90630F18FEF9FEF90939C0480930A
:1056E0009B0490939A04809399048091A1049091D3
:1056F000A204892B39F420E1821A9108909298042F
:105700008092970482E793E19093A2048093A1048E
:10571000BE016F5F7F4F89E894E00E94A4200E9441
:105720004225CE0101960E94382068EB7BE080E0A4
:1057300090E00E94820F61E08DE00E94FF0E0E94C7
:10574000BC0F672B682B692B41F40E94BC0F6230A1
:1057500071058105910508F49DC00E94BC0F6093FE
:105760007A0270937B0280937C0290937D02009179
:1057700076021091770220917802309179026017B9
:1057800071078207930740F4609376027093770263
:1057900080937802909379020091760210917702BB
:1057A00020917802309179026B017C01C01AD10AF4
:1057B000E20AF30A970186010A3F11052105310526
:1057C00008F468C060937602709377028093780241
:1057D0009093790284EF91E0A0E0B0E08093A90378
:1057E0009093AA03A093AB03B093AC031092AD03C4
:1057F0001092AE031092AF031092B0038091A103F8
:105800009091A203A091A303B091A4038093A50358
:105810009093A603A093A703B093A8030E94BC0F84
:105820006093A1037093A2038093A3039093A403B6
:105830000E94BC0F60939D0370939E0380939F030F
:105840009093A00381E00E9499276BEA71E0809118
:10585000DD039091DE030E9439210E94BC0FAB0151
:10586000BC012AE08091DD039091DE030E94C720F5
:105870000E94FE2765E070E080E090E00E94820FC9
:105880000E94BC0F6093A1037093A2038093A303B3
:105890009093A403A091BA04B0E0FD01EA53F74E3F
:1058A000C4908091B704682F70E0FB01EA53F74E73
:1058B00004914091B90450E0FA01EA53F74EE490A4
:1058C0002091B80430E0F901EA53F74E2490FD012D
:1058D000E855F74E8490FB01E855F74E9490FA0195
:1058E000E855F74EF490F901E855F74ED490D9A653
:1058F00060E00E942F0F60E08091B8040E942F0F9B
:1059000010E0000F111F0454174EF801A591B49137
:105910008C91292D20952DA782238C93312CF10178
:10592000EE0FFF1FCF018454974E1C01FC01A5917F
:10593000B4919C918D2D809589238C9361E0809109
:10594000BA040E942F0F61E08091B9040E942F0FCA
:10595000D12CF601EE0FFF1FDF01A454B74E6D01ED
:10596000FD01A591B4918C9188298C93EE2DF0E0E6
:10597000EE0FFF1FE454F74EA591B491EC91F09413
:10598000FE22FC928091B7040E946B0F3C01809133
:10599000B7040E946B0F7C018FEF93E05C01AE189F
:1059A000BF0860E08091BA040E942F0F60E08091F0
:1059B000B9040E942F0FF601A591B4918C918094A7
:1059C00089AA88218C9361E08091B7040E942F0FEF
:1059D000F801A591B491EC919E2A9C9261E080918E
:1059E000B8040E942F0F8091B9040E946B0F2C0104
:1059F0008091B9040E946B0F4C014816590629F496
:105A0000B1E0BDA36E147F0409F01DA261E0809196
:105A1000BA040E942F0FF601A591B491EC91C9A888
:105A2000EC21EC93F101A591B491EC91D9A4ED296D
:105A3000EC93F801A591B4918C91EDA48E218C93F7
:105A400060E08091B7040E942F0F8091B9040E94FA
:105A50006B0F8C018091B7040E946B0FE090BB0428
:105A6000F090BC04E114F10409F440C0BC01990FAA
:105A7000880B990B0E9477332B013C01B801110F61
:105A8000880B990B0E9477339B01AC01C301B201D3
:105A90000E944A3520E030E040E85FE30E94D834BD
:105AA0002B013C01B5010B2C000C880B990B0E94BB
:105AB00077339B01AC01C301B2010E94B2332B01C9
:105AC0003C01B70180E090E00E9475339B01AC017E
:105AD000C301B2010E94B23320E030E040E85AE353
