:100000000C94ED080C94D0150C94A9150C94070EC3
:100010000C94070E0C94070E0C9415090C941509FA
:100020000C9415090C9415090C9415090C941509D8
:100030000C9415090C9415090C9415090C941509C8
:100040000C945F150C9415090C943B140C94151426
:100050000C9415090C9415090C9415090C941509A8
:100060000C94110E0C94150905A84CCDB2D44EB9C0
:100070003836A9020C50B9918688083CA6AAAA2A4B
:10008000BE000000803F00000000070001000004E7
:10009000110803F009000A060B01EF11000D100D05
:1000A00000F12B000D140D00EF4C0013111501F0A1
:1000B000750010111101F0970004060601EF9A0077
:1000C00006160801EFAB0006160801EFBC00070892
:1000D0000901EFC3000B0B0E02F6D3000407060163
:1000E000FED70006030801F9DA0004030601FEDC6E
:1000F0000006110700F0E9000C110D01F0030107E3
:10010000110E03F012010C110D01F02C010C110D58
:1001100001F046010B110D01F05E010C110D01F013
:1001200078010C110D01F092010B110D01F0AA01E3
:100130000C110D01F0C4010C110D01F0DE01040CD5
:100140000601F5E40104100601F5EC010C0C0E01AA
:10015000F5FE010C090E01F70C020C0C0E01F51E48
:10016000020C120F02EF390215151701EF71021080
:10017000121100EF95020E121102EFB502101211CA
:1001800001EFD9020F121102EFFB020D121002EF64
:1001900019030C120F02EF340310121201EF58036F
:1001A0000E121202EF780304120702EF81030B1202
:1001B0000E01EF9A0310121102EFBE030B120F0291
:1001C000EFD70311121502EFFE030F121202EF20F8
:1001D0000411121301EF47040E121002EF6704110D
:1001E000131301EF900410121102EFB4040F121058
:1001F00001EFD6040C120F02EFF1040E121202EFFF
:1002000011050F121000EF330517121700EF6705E5
:100210000F121001EF890510120F00EFAD050D123E
:100220000F01EFCB0506170802EFDD0507110700E8
:10023000F0EC0506170800EFFE050C0B0E01F00FA1
:10024000060F020DFF04130604030600EF15060D4A
:100250000D0E01F42B060D120F02EF49060C0D0DC9
:1002600001F45D060D120F01EF7B060D0D0E01F47A
:10027000910607120801EFA1060D120F01F4BF0647
:100280000C120E02EFDA0604120702EFE30606175D
:100290000700EFF5060C120E02EF1007041206021B
:1002A000EF1907130D1502F438070C0D0F02F44C6B
:1002B000070D0D0F01F462070D120F02F480070DF8
:1002C000120F01F49E07080D0902F4AB070C0D0D87
:1002D00001F4BF07060F0801F2CB070C0D0F02F463
:1002E000DF070D0D0D00F4F507120D1300F41308D0
:1002F0000D0D0D00F429080D120D00F447080A0D2C
:100300000C01F4580806170901EF6A0802160702E3
:10031000EF700806170903EF82080C050C00F9FFBF
:10032000FFFFFF766660FFF0F3FCFF3FCF61986050
:100330000E70738318FFF7FFBFFC73831818C7FF95
:10034000BFFDFFE31839C1CE0E7002007E0FF87FAB
:10035000E7AFB93DC80F403F00FF00FC05FF27F99C
:100360003FEBEFFE3FE07C008004003C060FC181C4
:10037000FC30738C0C3181CE601FCC03F3003C67E2
:100380008019F8027F80CE7011860639C187F83057
:100390007E0C078007801FC03FE03CE03CE03EE071
:1003A0000FC007003F8C7FCCF1FCF0F8F078F8F834
:1003B0007FFC3FDE1F8EFFFF660C738E71C738E334
:1003C0008E38E38E1C71C38E1870C3871C38E38788
:1003D0001C71C71C71CE38E71C638010235FF38744
:1003E0001B140E01C038070FFFFFFFF8700E01C08D
:1003F0003800FFF336C0FFFFC0FFF00C30861861F5
:100400000C30C218618430C01F83FC7FE79EF0FF70
:100410000FF0FF0FF0FF0FF0FF0FF0F79E7FE3FCF0
:100420000F00061C7FFFE3C78F1E3C78F1E3C78FE8
:100430001E1F83FC7FEF9FF0FF0F00F00F01E03CD9
:100440000F81E03C03807FF7FF7FF01F07FCFFEF89
:100450001EF1E01E03C07807C01E00F00FF0FF1F62
:100460007FE7FC1F8003C0F81F07E1BC278CF31E49
:1004700063D87BFFFFFFFE0780F01E03C03FE7FE4F
:100480007FE7006006F87FCFFEF1F00F00F00F006D
:10049000FE1EFFE7FC3F000F83FC7FE79FF00F7815
:1004A000FFCFFEF9FF0FF0FF0FF0F79F7FE3FC0F88
:1004B00080FFFFFFFF80E01C0701E0380F01C078DC
:1004C0000F01E0380F01E03C000F03FC7FC79E7076
:1004D000E70E39C1F83FC79EF0FF0FF0FF9F7FE3A3
:1004E000FC1F801F03FC7FEF9EF0EF0FF0FF0FF962
:1004F000F7FF3FF1EF00EF1E7FE7FC1F00FFF0006A
:10050000000FFFFFF000000FFF116C00100703F158
:10051000FC7E0F80E00FC03F807F00F003FFFFFFF5
:10052000FFF000000000FFFFFFFFF0000E00FC07DF
:10053000F00FE01F00F07F1F8FE0F008001F07FCA6
:100540007FEF9FF0FF0F00F00F01E03C0780F00EFF
:1005500000E00000F00F00F000FE001FFC03C0F000
:100560003801C38007183D9987EC6C71C3C3061E20
:100570001830F181878C187C60C3638E3B8FDF8CD1
:100580003CF0700001C0000780801FFE001FC0000B
:1005900003E003E003E007F007F007700F780E7840
:1005A0000E381E3C1C3C3FFC3FFE3FFE780E780F91
:1005B000700FF007FFC3FFCFFF3C3EF07BC1EF0F92
:1005C000BFFCFFE3FFCF07BC0FF03FC0FF07FFFEFC
:1005D000FFFBFF8007E01FF83FFC7C3E781FF80F11
:1005E000F000F000F000F000F000F000F80F781FCD
:1005F0007C3E3FFE1FFC07F0FFE1FFE3FFE783EFD8
:1006000003DE07FC07F80FF01FE03FC07F80FF0309
:10061000FE07BC1F7FFCFFF1FF80FFF7FFBFFDE07F
:100620000F007803C01FFCFFE7FF3C01E00F0078DC
:1006300003C01FFFFFFFFFC0FFFFFFFFFF00F00F22
:1006400000F00FFEFFEFFEF00F00F00F00F00F00C4
:10065000F00F0003F00FFC3FFE3E1F78077800F01C
:1006600000F000F07FF07FF07FF00778077C0F3E0E
:100670001F3FFB0FFB03E3F03FC0FF03FC0FF03F06
:10068000C0FF03FFFFFFFFFFFF03FC0FF03FC0FFB2
:1006900003FC0FF03FC0F0FFFFFFFFFFFFFFFFFF76
:1006A00001E03C0780F01E03C0780F01E03C07F832
:1006B000FF1FE3FC7BFE7FC3E0F03EF03CF078F0F0
:1006C000F0F1E0F3C0F780FF00FF80FF80FBC0F196
:1006D000E0F0F0F0F0F078F03CF03EF01EF01E0399
:1006E000C0780F01E03C0780F01E03C0780F01E0E6
:1006F0003C07FFFFFFFCF81FFE0FFF0FFF87FFC344
:10070000FFE1FFF9FFFCEFFE77FB3BFDDDFEFCFFA9
:100710007E7F9F3FCF9FE78FF3C7F8E3C0F01FF0C6
:100720003FF07FE0FFE1FFC3FDC7FB8FF39FE73F93
:10073000C77F8FFF0FFE1FFC1FF81FF03FE03C0339
:10074000E00FFC0FFF87C7C780F3C07BC01FE00F1F
:10075000F007F803FC01FE00F780F3C078F0F87FA3
:10076000FC1FFC03F800FFE3FFEFFFBC1FF03FC0DE
:10077000FF03FC1FFFFBFFCFFE3C00F003C00F0098
:100780003C00F003C00003E00FFC0FFF87C7C780E9
:10079000F3C07BC01FE00FF007F803FC01FE04F775
:1007A00087F3C3F8F0F87FFC1FFF83F1800000FFA0
:1007B000F8FFFCFFFCF03EF01EF01EF01EF03CFFC8
:1007C000F8FFF0FFF8F03CF03CF03CF03CF03CF07F
:1007D0003CF01F0FC07FE1FFE7C3EF03DE003C00EA
:1007E0007F007FF03FF80FF801F001FE03DE0FBF3E
:1007F000FE3FF81FC0FFFFFFFFF0F00F00F00F00FB
:10080000F00F00F00F00F00F00F00F00F00F00F0FD
:10081000F03FC0FF03FC0FF03FC0FF03FC0FF03FB1
:10082000C0FF03FC0FF03FC0F7879FFE3FF03F0083
:10083000700EF03DE079C0E381C787870E0E1C1E65
:10084000781CE039C073807E00FC01F801E003C031
:10085000078070381CE0F079E1F0F3C3E1E387C36F
:10086000870F870E3B9E1E77381CEE7039CCE073E5
:1008700099C06E3F00FC7E01F8FC03F0F803E1E054
:100880000783C00F0780F03CF0F9E1E1E783CF0375
:10089000FC03F007E007800F003F00FF01FE079E0A
:1008A0000F1E3C3CF83DE078F01E781E783C3C3C46
:1008B0003C781E780E700FF007E007E003C003C01D
:1008C00003C003C003C003C003C003C0FFFFFFFF9A
:1008D000FE01F00F00F00F00F807807807807C031E
:1008E000C03C03C01FFFFFFFFFC0FFFFFCF3CF3C76
:1008F000F3CF3CF3CF3CF3CF3CFFFFC0C1810306F5
:10090000040C1810306040C1810306FFFFCF3CF398
:10091000CF3CF3CF3CF3CF3CF3CFFFFFC00F00F051
:100920000F01F81B839C39C30C70E70EE070FFFFCA
:10093000FFFCE6301F83FF1FFDE1E00F03F9FFDF3F
:100940001EF0F78FBFFCFFE3CF80F007803C01E093
:100950000F007BC3FF9FFEF8F783FC1FE0FF07F843
:100960003FE3DFFEFFE7BE000F83FE7FF78FF07FE0
:1009700000F00F00F0778F7FF3FE0F80007803C048
:100980001E00F0078FBCFFEFFF78FF83FC1FE0FF26
:1009900007F83DE3EFFF3FF8FBC01F81FE1FF9F1B1
:1009A000CF077FFBFFDE00F003C39FFC7FC0F80092
:1009B0003EFDFBC79FBF3C78F1E3C78F1E3C78F03C
:1009C0001E79FBDFFEF1FF07F83FC1FE0FF07FC786
:1009D000DFFE7FF1F7803C01FF1E7FF0FE00F00F8D
:1009E00000F00F00F00F7CFFEFFFF9FF0FF0FF0F9B
:1009F000F0FF0FF0FF0FF0FF0FFFF00FFFFFFFFF03
:100A0000FFFF3CF3C000F3CF3CF3CF3CF3CF3CF30C
:100A1000CFFFFF80F00F00F00F00F00F0FF1EF3C61
:100A2000F78FF0FF0FF8FF8F3CF1CF1EF0EF0FFFB5
:100A3000FFFFFFFFFFFFFFFFF78F9FFBFBFFFFFCA9
:100A4000F8FF1E1FE3C3FC787F8F0FF1E1FE3C3FF0
:100A5000C787F8F0FF1E1EF7CFFEFFFF9FF0FF0FC6
:100A6000F0FF0FF0FF0FF0FF0FF0F00F81FF1FFC02
:100A7000F1EF07F83FC1FE0FF07BC79FFC7FC0F886
:100A800000F7C7FF3FFDF1EF07F83FC1FE0FF07F12
:100A9000C7BFFDFFCF787803C01E00F00780000FAE
:100AA00079FFDFFEF1FF07F83FC1FE0FF07BC7DFE4
:100AB000FE7FF1F7803C01E00F007803C0F3F7FF01
:100AC000F8F0F0F0F0F0F0F0F0F01F87FCFFEF0F1F
:100AD000F80FF07FE0FF01FF0FFFE7FE1F8079E7CF
:100AE000BFFDE79E79E79E7DF3C0F0FF0FF0FF0F9B
:100AF000F0FF0FF0FF0FF0FF1FFFF7FF3EF0F07B5E
:100B0000839E1CF1E38E1C707783B81DC07E03E0CA
:100B10001F007000F0E1DC78771F3DE7CF79B38EDE
:100B20006CE3BB38EEFC1F3F07C7C1F1F07C780EC9
:100B30001E0078F3C78F783B81FC07C01E01F01FB1
:100B4000C0EF0F78F1E78700F07B839E1C71E38E86
:100B50001E707383B81FC07E03E00F007003803CDB
:100B600007C03E01E000FFFFFFFC0F0783C1E0F07C
:100B7000783C0FFFFFFFC01CF3CE38E38E38E3BC98
:100B8000F0E38E38E38E3CF1C0FFFFFFFFFFF0E3A0
:100B90008F1C71C71C71C70F3DC71C71C71CF3CEDA
:100BA00000780FE0CF307F01E000000100FF00324D
:100BB00000010000010200000703003010040000E3
:100BC0000008000202090000000A0000000C0000FA
:100BD000000D0000000F00000010000000110007D1
:100BE000001200000013000000FF00C80010009079
:100BF0001611002702FF00320012001A00FF003217
:100C0000001300001829002A00FF00320030000005
:100C100000310000003200000035000602360008F6
:100C2000083700070038000102390000003C0000CE
:100C3000003D0000002000000021000000500000E6
:100C4000005100EF005200000053003F016000001F
:100C5000A7610003006A00000090001000920000ED
:100C60000093000300950000119700000098000019
:100C700000070033011F038600207E1D00000000D6
:100C8000003E5B4F5B3E3E6B4F6B3E1C3E7C3E1C12
:100C9000183C7E3C181C577D571C1C5E7F5E1C0058
:100CA000183C1800FFE7C3E7FF0018241800FFE70F
:100CB000DBE7FF30483A060E2629792926407F05D2
:100CC0000507407F05253F5A3CE73C5A7F3E1C1CE8
:100CD00008081C1C3E7F14227F22145F5F005F5FA8
:100CE00006097F017F006689956A60606060609494
:100CF000A2FFA29408047E040810207E2010080899
:100D00002A1C08081C2A08081E101010100C1E0CA3
:100D10001E0C30383E3830060E3E0E060000000035
:100D20000000005F00000007000700147F147F141C
:100D3000242A7F2A12231308646236495620500061
:100D400008070300001C2241000041221C002A1C4D
:100D50007F1C2A08083E0808008070300008080838
:100D60000808000060600020100804023E51494558
:100D70003E00427F400072494949462141494D3376
:100D80001814127F1027454545393C4A49493141DD
:100D9000211109073649494936464949291E0000AB
:100DA0001400000040340000000814224114141400
:100DB0001414004122140802015909063E415D59EC
:100DC0004E7C1211127C7F494949363E41414122F5
:100DD0007F4141413E7F494949417F090909013E1F
:100DE000414151737F0808087F00417F4100204046
:100DF000413F017F081422417F404040407F021C58
:100E0000027F7F0408107F3E4141413E7F0909096E
:100E1000063E4151215E7F0919294626494949323A
:100E200003017F01033F4040403F1F2040201F3F00
:100E30004038403F63140814630304780403615985
:100E4000494D43007F4141410204081020004141C7
:100E5000417F040201020440404040400003070873
:100E60000020545478407F2844443838444444286F
:100E7000384444287F385454541800087E09021816
:100E8000A4A49C787F0804047800447D400020409E
:100E9000403D007F1028440000417F40007C0478E2
:100EA00004787C080404783844444438FC1824242A
:100EB0001818242418FC7C080404084854545424AA
:100EC00004043F44243C4040207C1C2040201C3C27
:100ED0004030403C44281028444C9090907C44641E
:100EE000544C4400083641000000770000004136B1
:100EF000080002010204023C2623263C1EA1A16137
:100F0000123A4040207A3854545559215555794168
:100F10002254547842215554784020545579400C3D
:100F20001E52721239555555593954545459395520
:100F30005454580000457C410002457D4200014563
:100F40007C407D1211127DF0282528F07C545545F7
:100F5000002054547C547C0A097F49324949493263
:100F60003A4444443A324A4848303A4141217A3A74
:100F700042402078009DA0A07D3D4242423D3D4040
:100F800040403D3C24FF2424487E4943662B2FFCEF
:100F90002F2BFF0929F620C0887E0903205454799D
:100FA000410000447D413048484A32384040227A6E
:100FB000007A0A0A727D0D19317D2629292F2826EB
:100FC0002929292630484D402038080808080808F3
:100FD0000808382F10C8ACBA2F102834FA00007B4C
:100FE000000008142A142222142A1408550055005F
:100FF00055AA55AA55AAFF55FF55FF000000FF004E
:10100000101010FF00141414FF001010FF00FF1048
:1010100010F010F0141414FC001414F700FF00007A
:10102000FF00FF1414F404FC141417101F10101FF9
:10103000101F1414141F00101010F0000000001FE7
:10104000101010101F10101010F010000000FF10F2
:101050001010101010101010FF10000000FF1400EE
:1010600000FF00FF00001F10170000FC04F4141420
:101070001710171414F404F40000FF00F7141414EC
:1010800014141414F700F7141414171410101F106C
:101090001F141414F4141010F010F000001F101F8F
:1010A0000000001F14000000FC140000F010F010FD
:1010B00010FF10FF141414FF141010101F00000074
:1010C00000F010FFFFFFFFFFF0F0F0F0F0FFFFFF78
:1010D0000000000000FFFF0F0F0F0F0F38444438CF
:1010E00044FC4A4A4A347E02020606027E027E021E
:1010F00063554941633844443C04407E201E200629
:10110000027E020299A5E7A5991C2A492A1C4C7265
:1011100001724C304A4D4D303048784830BC625AEC
:10112000463D3E494949007E0101017E2A2A2A2A7C
:101130002A44445F444440514A444040444A514058
:101140000000FF0103E080FF000008086B6B083619
:1011500012362436060F090F06000018180000008A
:101160001010003040FF0101001F01011E00191D79
:101170001712003C3C3C3C00000000000000000056
:10118000240027002A000000000023002600290078
:101190000000000800020100000304070000000036
:1011A0000000000001020408102040800102040831
:1011B0001020010204081020000000002500280073
:1011C0002B000404040404040404020202020202C8
:1011D000030303030303DC2DCD2D11241FBECFEF2A
:1011E000D8E0DEBFCDBF24E0AEE2B2E001C01D9288
:1011F000A93CB207E1F712E0A0E0B1E0E4E0FCE6D0
:1012000002C005900D92AE32B107D9F718E0CCEECE
:10121000D8E004C02197FE010E94DA33CB3ED1070B
:10122000C9F70E9434250C94F5350C9400006F9298
:101230007F928F929F92AF92BF92CF92DF92EF9266
:10124000FF920F931F93CF93DF93EC014B015A0151
:1012500069013801E881F9810680F781E02D09955F
:10126000E881F9810684F785E02D87019601A501C3
:10127000B401CE010995E881F981A501460D571DFC
:10128000415051090684F785E02D9601B401CE0145
:101290000995E881F9810484F585E02D9301A50184
:1012A000B401CE010995E881F981C80CD91CB601B9
:1012B000615071090484F585E02D9301A501CE01EB
:1012C0000995E881F9810288F389E02DCE01DF914B
:1012D000CF911F910F91FF90EF90DF90CF90BF9033
:1012E000AF909F908F907F906F900994CF92DF92F4
:1012F000EF92FF920F931F93CF93DF9300D000D014
:1013000000D0CDB7DEB76C01DC01ED91FC91621726
:10131000730789F4041715072CF4942F852FA8015F
:10132000092F182F041B150B98012F5F3F4F008CBE
:10133000F18DE02D12C04017510709F52617370728
:101340002CF4962F872FB901292F382F261B370B06
:101350002F5F3F4F028CF38DE02D8701C601099569
:1013600026960FB6F894DEBF0FBECDBFDF91CF91AA
:101370001F910F91FF90EF90DF90CF90089506801E
:10138000F781E02D2D833E834B835C8369837A83D1
:101390000995D601ED91FC910088F189E02D2D8110
:1013A0003E814B815C8169817A81C6010995D601B4
:1013B000ED91FC910288F389E02DC60126960FB6C7
:1013C000F894DEBF0FBECDBFDF91CF911F910F917B
:1013D000FF90EF90DF90CF900994EF92FF920F93E0
:1013E0001F93DC01ED91FC9111971A960D911C91C0
:1013F0001B9718962D913C911997048CF58DE02D33
:101400007B0140E050E060E070E009951F910F9192
:10141000FF90EF9008954F925F926F927F928F921C
:101420009F92AF92BF92CF92DF92EF92FF920F9373
:101430001F93CF93DF9300D0CDB7DEB76C015A0175
:1014400039014801DC01ED91FC910680F781E02D26
:1014500069837A8309956981462E7A81572E640CB7
:10146000751CD601ED91FC91461457046CF404846C
:10147000F585E02D87019401A501B201C60109950A
:10148000BFEF4B1A5B0AEDCF0288F389E02DC6014E
:101490000F900F90DF91CF911F910F91FF90EF90E0
:1014A000DF90CF90BF90AF909F908F907F906F9084
:1014B0005F904F900994AF92BF92CF92DF92EF92DC
:1014C000FF920F931F93CF93DF9300D000D0CDB73F
:1014D000DEB75C016901DC01ED91FC910680F781CA
:1014E000E02D4B835C8369837A830995D501ED9167
:1014F000FC9169817A819B012C0D3D1D21503109A0
:101500000088F189E02D78014B815C818A01C50159
:101510000995D501ED91FC910288F389E02DC50173
:101520000F900F900F900F90DF91CF911F910F911F
:10153000FF90EF90DF90CF90BF90AF900994AF9263
:10154000BF92CF92DF92EF92FF920F931F93CF93B0
:10155000DF9300D000D0CDB7DEB75C016901DC01BC
:10156000ED91FC910680F781E02D4B835C836983CC
:101570007A830995D501ED91FC914B815C81C40E74
:10158000D51EB1E0CB1AD1080088F189E02D780191
:10159000860169817A819B01C5010995D501ED918B
:1015A000FC910288F389E02DC5010F900F900F90F8
:1015B0000F90DF91CF911F910F91FF90EF90DF90EF
:1015C000CF90BF90AF9009940895EF92FF920F9340
:1015D0001F93DC01ED91FC91048CF58DE02D0995B4
:1015E0001F910F91FF90EF9008950F931F93DC01CF
:1015F000ED91FC91028CF38DE02D09951F910F91D7
:1016000008950F931F93DC01ED91FC91008CF18DF7
:10161000E02D09951F910F910895DC01ED91FC914A
:101620000480F581E02D099408952F923F924F9206
:101630005F926F927F928F929F92AF92BF92CF9262
:10164000DF92EF92FF920F931F93CF93DF9300D01F
:101650001F92CDB7DEB74C017B836A836A015901C3
:1016600017019801241B350B37FF03C031952195D5
:101670003109C5014A815B81841B950B97FF03C02B
:1016800091958195910951E059838217930714F040
:1016900019820BC09A2D8B2D5801092F182F9A8172
:1016A0008B81DB82CA82C92ED82E8A819B81A816A3
:1016B000B9065CF49C2D8D2D6801092F182F9A8195
:1016C0008B81BB82AA82A92EB82E2501AA81BB815B
:1016D0004A1A5B0A38016C187D0877FE03C07194C2
:1016E00061947108720157FE03C0BFEFEB1AFB0A49
:1016F000F594E794C016D1061CF00FEF1FEF1FC042
:1017000001E010E01CC0D401ED91FC91B98100848E
:10171000F185E02D9101BB23C1F04A815B81B601C7
:10172000C4010995E618F708F7FE04C0C00ED11EE3
:10173000E40CF51CEA81FB813196FB83EA834A8144
:101740005B81A416B506FCF604C0A6016A817B8104
:10175000E7CF0F900F900F90DF91CF911F910F91D6
:10176000FF90EF90DF90CF90BF90AF909F908F90C1
:101770007F906F905F904F903F902F90089585EDF0
:101780008093BC008091BC0084FDFCCF1092C70206
:1017900008954091A102262F30E0240F311D2132FF
:1017A0003105DCF42091C7022430C9F4FC0180E04B
:1017B00090E0861758F43091A1022191DC01A158E4
:1017C000BD4FA30FB11D2C930196F3CF8091A102C1
:1017D000680F6093A10280E0089581E0089582E09F
:1017E000089508958FEF9FEF08958FEF9FEF08956D
:1017F00080917E0290E09195819591090895CF9313
:10180000DF9300D0CDB7DEB7CB01642F49835A8375
:101810000E94C90B4981842F5A81952F0F900F90F8
:10182000DF91CF910895CF93DF931F92CDB7DEB7AD
:10183000698361E0CE0101960E94C90B81E090E0CE
:101840000F90DF91CF9108952F923F924F925F9228
:101850006F927F928F929F92AF92BF92CF92DF92C0
:10186000EF92FF920F931F93CF93DF93CDB7DEB725
:101870006C970FB6F894DEBF0FBECDBF9C8F8B8FD9
:101880001B012A0118870F83FE82ED82CA82DC01C8
:1018900058964D915C9159974115510509F0B2C088
:1018A00018968D919C911997681779070CF096C13D
:1018B0001A968D919C911B97481659060CF08EC173
:1018C000AC2CB12CCB01B6E0CB9E800D911D112428
:1018D000181619060CF082C1C50133E0880F991F54
:1018E0003A95E1F7840D951D181619060CF076C18E
:1018F000AB8DBC8D57968C91811103C0203B08F0B5
:101900002F5FAB8DBC8DED91FC9111970680F78117
:10191000E02DCD012A8F09952A8DB5E02B9F9001EE
:101920001124610141011B82F901E219F309FA87CF
:10193000E9879201285F3F4F3C872B873B813530F9
:1019400049F0E985FA85E80DF91DE458F34F449113
:10195000498301C0198232011201598150FF13C01D
:10196000AB8DBC8DED91FC91BA81B13031F4008426
:10197000F185E02D2F81388519C00284F385E02D93
:10198000EF80F8841EC0ED81FE812F813885E2173B
:10199000F307F1F0AB8DBC8DED91FC91BA81B130C4
:1019A00059F40084F185E02D2D813E81A301B4011D
:1019B0008B8D9C8D09950CC00284F385E02DED8004
:1019C000FE8085019501A101B6018B8D9C8D099545
:1019D000E981E695E983FFEF6F1A7F0A2A0C3B1C29
:1019E0002B853C856216730609F0B7CF3B813F5FBC
:1019F0003B834FEF841A940ACA0CDB1C363009F083
:101A00009DCFCAC0FA013496949132976591749132
:101A1000291BCB01B7E02B9F800D911D1124FA01EA
:101A2000259134913A8B298BFC0165907490FC01CF
:101A3000329634913D83319644914B873296C490CF
:101A4000319614915A81523058F08C2C0C2C000C89
:101A50009908812F012E000C990B9C838B8304C065
:101A60001C821B82812C912CAB8DBC8DED91FC9145
:101A700011970680F781E02DCD010995BA81AB2E33
:101A8000B12C8A9CC0018B9C900D9A9C900D1124C6
:101A9000FC01E20DF31DF88BEF871982912C812C4C
:101AA000EC2DCC0CFF0B91012E0F3F1F3A8729879D
:101AB00061013D81C30ED11CA6014E0F5F1F5F8BDC
:101AC0004E8BC201810F911D17FD9A95998F888FBA
:101AD0005B85851608F060C0882D90E04B815C81A5
:101AE000480F591F4A9D90014B9D300D5A9D300D56
:101AF0001124D901A40DB51DBE87AD87C984DA8430
:101B00002F843888B981E985BE1BBB8B288D398D20
:101B1000280F391F3D8B2C8B8B898C0D2E893F898B
:101B2000C216D30699F1877041F4C3010196E98981
:101B3000FA89E60DF71D94903C0197FE20C0AB8D0D
:101B4000BC8DED91FC91BA81B13061F40084F185D6
:101B5000E02D2F8138854C895D89B6018B8D9C8D58
:101B600009950DC00284F385E02DEF80F88485018E
:101B700095014D855E85B1018B8D9C8D0995990CE4
:101B8000EFEFCE1ADE0A2A0C3B1CC6CF39814D81FD
:101B9000340F398383949CCFAB8DBC8DED91FC9138
:101BA00011970288F389E02DCD016C960FB6F89459
:101BB000DEBF0FBECDBFDF91CF911F910F91FF9080
:101BC000EF90DF90CF90BF90AF909F908F907F90DD
:101BD0006F905F904F903F902F9009946C960FB646
:101BE000F894DEBF0FBECDBFDF91CF911F910F9153
:101BF000FF90EF90DF90CF90BF90AF909F908F902D
:101C00007F906F905F904F903F902F9008951F921C
:101C10000F920FB60F9211240F900FBE0F901F90CE
:101C200018951F920F920FB60F9211242F933F9386
:101C30004F935F936F937F938F939F93AF93BF93D4
:101C4000EF93FF938091B900887F803609F49CC0A0
:101C500068F5883209F45BC090F4803109F454C00F
:101C600038F4882309F4F6C0883009F44DC0F6C072
:101C7000883109F44CC0803209F45DC0EFC0803473
:101C800009F468C048F4803309F455C0883309F07A
:101C9000E5C08093C602D8C0803509F44FC08835AE
:101CA00009F45DC0883409F0D9C0D6C0883909F478
:101CB000C7C0A8F4883709F467C038F4883609F437
:101CC00063C0803709F460C0C9C0883809F4B8C05F
:101CD000803909F45FC0803809F0C0C05BC0803B28
:101CE00009F486C038F4803A09F466C0883A09F4E9
:101CF0007FC0B4C0803C09F4A7C0883C09F4A4C0EC
:101D0000883B09F48AC0AAC08091EC0210C090916F
:101D1000EB028091EA02981770F5E091EB0281E006
:101D20008E0F8093EB02F0E0E653FD4F80818093AD
:101D3000BB0085EC86C08093C6028EC0E091EB02AA
:101D400081E08E0F8093EB028091BB00F0E0E653C0
:101D5000FD4F80839091EB028091EA026EC0E0918A
:101D6000EB0281E08E0F8093EB028091BB00F0E0EC
:101D7000E653FD4F80838091C90281116DC081E0DF
:101D80008093C80284EA61C083E08093C702109206
:101D9000C502CFCF8091C502803208F051C0E091DA
:101DA000C50281E08E0F8093C5028091BB00F0E0F8
:101DB000EB55FD4F8083BDCF85EC8093BC00109226
:101DC000C7028091C502803230F4E091C502F0E094
:101DD000EB55FD4F10826091C50270E0E091A302C7
:101DE000F091A40285EA92E009951092C50236C0EE
:101DF00084E08093C7021092A2021092A102E091A7
:101E00009F02F091A00209958091A102811105C065
:101E100081E08093A10210927F02E091A20281E012
:101E20008E0F8093A202F0E0E158FD4F80818093F5
:101E3000BB009091A2028091A102981708F479CF7B
:101E400085E88093BC000AC085EC8093BC001092AA
:101E5000C70204C01092C6020E94BF0BFF91EF910F
:101E6000BF91AF919F918F917F916F915F914F91B2
:101E70003F912F910F900FBE0F901F901895AF922A
:101E8000BF92CF92DF92EF92FF920F931F93CF9367
:101E9000DF93CDB7DEB76E970FB6F894DEBF0FBEF7
:101EA000CDBF00E011E080E3A82E82E0B82E90E5DF
:101EB000C92E92E0D92E21E2E22E24E0F22EF80182
:101EC000619171918F014AE0CE0149960E94582498
:101ED000F501619171915F014AE0CE0143960E9444
:101EE0005824F601619171916F014AE0CE010D967F
:101EF0000E945824B701CE0107960E94902465ECF9
:101F000071E0CE0101960E94AA24BE01695F7F4F55
:101F1000CE0101960E941F246DEC71E00E94062400
:101F2000BE01635F7F4F0E941F2463ED71E00E943A
:101F30000624BE016D5E7F4F0E941F2469ED71E093
:101F40000E940624BE01675E7F4F0E941F240E94EC
:101F5000D424CE0101960E945324CE0107960E94FC
:101F60005324CE010D960E945324CE0143960E9425
:101F70005324CE0149960E945324F6E0EF0EF11C43
:101F800081E00032180709F09ACF6E960FB6F894E8
:101F9000DEBF0FBECDBFDF91CF911F910F91FF909C
:101FA000EF90DF90CF90BF90AF9008958F929F9267
:101FB000AF92BF92CF92DF92EF92FF920F931F9357
:101FC000CF93DF935C016B01FC018480958031E24B
:101FD000E32E34E0F32E00E010E0CFEFDFEFF70167
:101FE000848195818815990539F4B501C7010E944E
:101FF000D623892B09F4E8010F5F1F4FF6E0EF0E9F
:10200000F11C0031110559F782E0C816D10461F0C6
:10201000E3E0CE16D10469F0CA94CD2889F4CC0F40
:10202000DD1FC05BDD4F09C0CC0FDD1FC05DDD4F84
:1020300004C0CC0FDD1FC050DF4F8881998101C0E3
:10204000CE01DF91CF911F910F91FF90EF90DF9024
:10205000CF90BF90AF909F908F9008955F926F92B6
:102060007F928F929F92AF92BF92CF92DF92EF9228
:10207000FF920F931F93CF93DF938C015B016A0153
:102080007901FC0184809580612C712CCFEFDFEF0A
:1020900046E0542E569CC001579C900D11248F5D34
:1020A0009B4FFC01248135812815390549F4B8017D
:1020B0000E94D623892B21F4E30130E1632E712C99
:1020C000FFEF6F1A7F0A80E1681671041CF3CE01DE
:1020D000880F991FFC01E05BFD4FB182A082FC01DB
:1020E000E05DFD4FD182C082FC01E050FF4FF182E4
:1020F000E082DF91CF911F910F91FF90EF90DF90E1
:10210000CF90BF90AF909F908F907F906F905F9097
:1021100008950F931F93CF93DF93EC018EE091E02E
:102120000E942C1BCE0168E671E00E94A333EC01F3
:10213000C25FDE4FCE010E942C1BC83681E0D8075B
:1021400014F0C856D140CE010E942C1BCE01DF9165
:10215000CF911F910F910895AF92BF92CF92DF92CE
:10216000EF92FF920F931F93CF93DF9300D000D095
:10217000CDB7DEB78C015B01BA01550F880B990B07
:102180000E9498302BED3FE049E450E40E94D330A8
:1021900020E030E044E353E40E946B320E9452336B
:1021A0009B01AC01B801110F880B990B29833A836D
:1021B0004B835C830E9498306B017C01B501BB0CA2
:1021C000880B990B0E94983029813A814B815C8160
:1021D0000E94D3309B01AC01C701B6010E94FA31C5
:1021E0000E94DD32CB010F900F900F900F90DF9186
:1021F000CF911F910F91FF90EF90DF90CF90BF9004
:10220000AF900895AF92BF92CF92DF92EF92FF927C
:102210000F931F93CF93DF9300D000D0CDB7DEB7DD
:102220008C015B01BA01550F880B990B0E94983005
:102230002BED3FE049E450E40E94D33020E030E051
:1022400044E353E40E946B320E9466329B01AC016E
:10225000B801110F880B990B29833A834B835C8358
:102260000E9498306B017C01B501BB0C880B990B67
:102270000E94983029813A814B815C810E94D33041
:102280009B01AC01C701B6010E94FA310E94DD3208
:10229000CB010F900F900F900F90DF91CF911F9176
:1022A0000F91FF90EF90DF90CF90BF90AF90089587
:1022B0004F925F926F927F928F929F92AF92BF9256
:1022C000CF92DF92EF92FF920F931F93CF93DF9302
:1022D00000D000D000D0CDB7DEB73C0120918B04F8
:1022E00030918C04C901859797FD03969595879544
:1022F0009595879590932F0280932E0210929604C5
:1023000010929504109294041092930431E2A32E3B
:1023100034E0B32E812C912C4EE0C42ED12C59E008
:10232000452E512C20912E0230912F0268147904F1
:1023300029F498E1E92E96ECF92E04C08FEEE82EF0
:102340008BE7F82E04E110E046E050E0B60183E8A8
:1023500094E00E945A21B501CE0101960E9490247A
:1023600021E030E046E050E0B601CE0101960E9447
:102370002E10CE0101960E945324C601029690931E
:10238000900480938F045092920440929104F5013E
:10239000448155816081718183E894E00E94AF227D
:1023A00080919B0490919C04892B49F08091910429
:1023B00090919204069790939204809391041092C6
:1023C0009C0410929B04FFEF8F1A9F0A84E08816EA
:1023D000910469F080912E0290912F02C80ED91EAF
:1023E00083E0C80ED11CE6E0AE0EB11C9BCF269652
:1023F0000FB6F894DEBF0FBECDBFDF91CF911F9116
:102400000F91FF90EF90DF90CF90BF90AF909F9093
:102410008F907F906F905F904F9008952F923F9292
:102420004F925F926F927F928F929F92AF92BF92E4
:10243000CF92DF92EF92FF920F931F93CF93DF9390
:102440004C016B015A01E901270160901F04709053
:102450002004AC01B501C3010E9402111C01E090EF
:102460001B04F0901C04A401B501C7010E94AC102C
:102470005C01A601BE01C3010E9402114C01A6012C
:10248000BE01C7010E94AC10800F911FA501400F33
:10249000511F72018C019401B10183E894E00E9404
:1024A0007609DF91CF911F910F91FF90EF90DF9010
:1024B000CF90BF90AF909F908F907F906F905F90E4
:1024C0004F903F902F9008958F929F92AF92BF921E
:1024D000CF92DF92EF92FF920F931F93CF93DF93F0
:1024E000C1E08091700290917102029709F4C0E0FE
:1024F000D0E04E01880C991CA12CB12CF501E80DFF
:10250000F91DE65DFE4F60817181072E000C880B7E
:10251000990B0E94983020E030E048E455E40E9496
:102520006B3220E030E044EB53E40E94D3300E9451
:10253000DD32CB010E9489106C0180E1E82E84E835
:10254000F82E04E010E025E530E04CE350E0B60161
:10255000C6010E940E120CEF1FEF25E530E04CE3A0
:1025600050E0B601C6010E940E12219682E0A80E2C
:10257000B11CC730D10514F2DF91CF911F910F919B
:10258000FF90EF90DF90CF90BF90AF909F908F9093
:10259000089560911B0470911C0420E134E84CE321
:1025A00050E080911F04909120040E94701A609165
:1025B0001B0470911C0420E030E048E350E080915F
:1025C0001F04909120040C94701AFC01918D828D4F
:1025D000981761F0828DDF01A80FB11D5D968C9177
:1025E000928D9F5F9F73928F90E008958FEF9FEF82
:1025F0000895FC01918D828D981731F0828DE80F3E
:10260000F11D858D90E008958FEF9FEF0895FC01F7
:10261000918D228D892F90E0805C9F4F821B9109C4
:102620008F739927089588EF92E00E94071321E0A5
:10263000892B09F420E0822F0895FC01848DDF01AD
:10264000A80FB11DA35ABF4F2C91848D90E0019625
:102650008F739927848FA689B7892C93A089B18914
:102660008C9180648C93938D848D981306C002881E
:10267000F389E02D80818F7D80830895EF92FF9212
:102680000F931F93CF93DF93EC0181E0888F9B8D95
:102690008C8D981305C0E889F989808185FD24C057
:1026A000F62E0B8D10E00F5F1F4F0F731127E02EDA
:1026B0008C8DE8120CC00FB607FCFACFE889F989B7
:1026C000808185FFF5CFCE010E941D13F1CF8B8D48
:1026D000FE01E80FF11DE35AFF4FF0820B8FEA89EC
:1026E000FB898081806207C0EE89FF896083E88969
:1026F000F98980818064808381E090E0DF91CF91CF
:102700001F910F91FF90EF900895CF93DF93EC010D
:10271000888D8823C9F0EA89FB89808185FD05C001
:10272000A889B9898C9186FD0FC00FB607FCF5CF3B
:10273000808185FFF2CFA889B9898C9185FFEDCF83
:10274000CE010E941D13E7CFDF91CF91089580E065
:1027500090E0892B29F00E94131381110C94000042
:1027600008953FB7F8948091F4029091F502A091FA
:10277000F602B091F70226B5A89B05C02F3F19F0CD
:102780000196A11DB11D3FBFBA2FA92F982F8827F1
:10279000820F911DA11DB11DBC01CD0142E0660F4C
:1027A000771F881F991F4A95D1F708950895FC0156
:1027B000A58DB68D9C9180A589238C938BB1962F86
:1027C0009C7F8370892B8BB985B163708C7F682B5C
:1027D00065B9A78DB0A19C9181A589238C93A78D04
:1027E000B0A19C9185A1892B8C93A58DB68D9C91D0
:1027F00084A1892B8C938BB1942F9C7F8370892B20
:102800008BB985B143708C7F482B45B9A78DB0A19A
:102810009C9181A589238C93A78DB0A19C9185A1C2
:10282000892B8C9308950E94D7351F920F920FB673
:102830000F9211242F933F934F935F936F937F9346
:102840008F939F93AF93BF93EF93FF9388EF92E0A3
:102850000E941D13FF91EF91BF91AF919F918F91B6
:102860007F916F915F914F913F912F910F900FBE8C
:102870000F901F9018951F920F920FB60F92112470
:102880002F938F939F93EF93FF93E0910803F09121
:1028900009038081E0910E03F0910F0382FD12C0C5
:1028A0009081809111038F5F8F73209112038217A3
:1028B00051F0E0911103F0E0E850FD4F958F8093C7
:1028C000110301C08081FF91EF919F918F912F9112
:1028D0000F900FBE0F901F901895833081F028F451
:1028E000813099F08230A1F008958730A9F08830C6
:1028F000B9F08430D1F4809180008F7D03C0809145
:1029000080008F7780938000089584B58F7702C010
:1029100084B58F7D84BD08958091B0008F7703C00A
:102920008091B0008F7D8093B00008951F93CF9366
:10293000DF93282F30E0F901E057FE4E8491F90132
:10294000EC55FE4ED491F901EE53FE4EC491CC23CA
:10295000C9F0162F81110E946D14EC2FF0E0EE0FDC
:10296000FF1FE854FE4EA591B4918FB7F894111152
:1029700005C09C91ED2FE095E92302C0EC91ED2B71
:10298000EC938FBFDF91CF911F910895CF93DF9389
:1029900090E0FC01EC55FE4E2491FC01EE53FE4EFE
:1029A0008491882361F190E0880F991FFC01E4581D
:1029B000FE4EC591D491FC01E854FE4EA591B49110
:1029C000611109C09FB7F89488812095822388837C
:1029D000EC912E230BC0623061F49FB7F8943881DC
:1029E000822F809583238883EC912E2B2C939FBF7D
:1029F00006C08FB7F894E8812E2B28838FBFDF9114
:102A0000CF9108958E3008F08E5087708064809347
:102A10007C0080917A00806480937A0080917A00B3
:102A200086FDFCCF809178002091790090E0922B78
:102A300008958F929F92AF92BF92CF92DF92EF92C2
:102A4000FF926B017C010E94B1134B015C01C11428
:102A5000D104E104F104F1F00E94B113DC01CB01D7
:102A600088199909AA09BB09883E9340A105B105B7
:102A700070F321E0C21AD108E108F10888EE880E4F
:102A800083E0981EA11CB11CC114D104E104F1041F
:102A900019F7DDCFFF90EF90DF90CF90BF90AF9010
:102AA0009F908F9008952FB7F8946091F0027091E5
:102AB000F1028091F2029091F3022FBF08951F92CC
:102AC0000F920FB60F9211242F933F938F939F93E2
:102AD000AF93BF938091F0029091F102A091F20226
:102AE000B091F3023091EF0223E0230F2D3720F451
:102AF0000196A11DB11D05C026E8230F0296A11D58
:102B0000B11D2093EF028093F0029093F102A09305
:102B1000F202B093F3028091F4029091F502A09139
:102B2000F602B091F7020196A11DB11D8093F40247
:102B30009093F502A093F602B093F702BF91AF9184
:102B40009F918F913F912F910F900FBE0F901F90EB
:102B500018951F920F920FB60F9211242F933F9347
:102B60004F935F936F937F938F939F93AF93BF9395
:102B7000EF93FF93E0912201F09123010995FF91DA
:102B8000EF91BF91AF919F918F917F916F915F91E5
:102B90004F913F912F910F900FBE0F901F9018955E
:102BA0001F920F920FB60F9211242F933F934F93C2
:102BB0005F936F937F938F939F93AF93BF93EF93A5
:102BC000FF93E0912001F09121010995FF91EF9190
:102BD000BF91AF919F918F917F916F915F914F9135
:102BE0003F912F910F900FBE0F901F901895CF928D
:102BF000DF92EF92FF92FC01A38DB48D9C9187A18F
:102C000089238C93A58DB68D9C9180A589238C9367
:102C10008BB1962F9C7F8370892B8BB985B16370A4
:102C20008C7F682B65B9A78DB0A19C9181A5892364
:102C30008C93A78DB0A19C9185A1892B8C93A58D98
:102C4000B68D9C9184A1892B8C9383E290E0DC016A
:102C50001197F1F77BB1C52EDD24EE24FF246C2DF6
:102C60006C7F7370762B7BB965B17C2D73706C7F34
:102C7000672B65B9A78DB0A17C9161A567236C9383
:102C8000A78DB0A17C9165A1672B6C93DC01119796
:102C9000F1F77BB16A01EE24FF246C2D6C7F737019
:102CA000762B7BB965B17C2D73706C7F672B65B912
:102CB000A78DB0A17C9161A567236C93A78DB0A16E
:102CC0007C9165A1672B6C93DC011197F1F77BB1C7
:102CD000C32ED42EE52EFF246C2D6C7F7370762BC3
:102CE0007BB965B17C2D73706C7F672B65B9A78D3F
:102CF000B0A17C9161A567236C93A78DB0A17C9155
:102D000065A1672B6C930197F1F78BB1922F9C7F94
:102D10008370892B8BB985B123708C7F282B25B9C3
:102D2000A78DB0A19C9181A589238C93A78DB0A17B
:102D30009C9185A1892B8C93A38DB48D9C9183A1AB
:102D4000892B8C93FF90EF90DF90CF900895FC013A
:102D5000A58DB68D9C9180A589238C938BB1962FE0
:102D60009C7F8370892B8BB985B163708C7F682BB6
:102D700065B9A78DB0A19C9181A589238C93A78D5E
:102D8000B0A19C9185A1892B8C93A58DB68D9C912A
:102D900084A1892B8C938BB1932F9C7F8370892B7B
:102DA0008BB985B133708C7F382B35B9A78DB0A125
:102DB0009C9181A589238C93A78DB0A19C9185A11D
:102DC000892B8C93A58DB68D9C9180A589238C939E
:102DD0008BB1942F9C7F8370892B8BB985B1437005
:102DE0008C7F482B45B9A78DB0A19C9181A58923E3
:102DF0008C93A78DB0A19C9185A1892B8C93A58DD7
:102E0000B68D9C9184A1892B8C938BB1922F9C7F42
:102E10008370892B8BB985B123708C7F282B25B9C2
:102E2000A78DB0A19C9181A589238C93A78DB0A17A
:102E30009C9185A1892B8C930895FC01A58DB68D5D
:102E40009C9180A589238C938BB1972F9C7F837055
:102E5000892B8BB985B173708C7F782B75B9A78D51
:102E6000B0A19C9181A589238C93A78DB0A19C9141
:102E700085A1892B8C938BB1962F9C7F8370892B96
:102E80008BB985B163708C7F682B65B9A78DB0A1B4
:102E90009C9181A589238C93A78DB0A19C9185A13C
:102EA000892B8C93A58DB68D9C9184A1892B8C93B5
:102EB0008BB1952F9C7F8370892B8BB985B1537013
:102EC0008C7F582B55B9A78DB0A19C9181A58923E2
:102ED0008C93A78DB0A19C9185A1892B8C938BB1EC
:102EE000942F9C7F8370892B8BB985B143708C7F25
:102EF000482B45B9A78DB0A19C9181A589238C93BE
:102F0000A78DB0A19C9185A1892B8C930895EF92F8
:102F1000FF920F931F93CF93DF93EC010E94671DE5
:102F2000EB8DFC8D90818FA1892380838A8D811107
:102F300022C0ED89E150E33040F4F0E0EE0FFF1FD6
:102F4000E95BFE4F4081518102C040E350E163E004
:102F500070E0CE010E941D170A851B8501501109E2
:102F6000288539852150310940E050E060E070E06B
:102F7000CE010E948A208A8D813089F4ED89E1504A
:102F8000E33028F4F0E0EC5BFE4F408101C040E00C
:102F900066E1CE010E94D713CE010E9466208A8D81
:102FA000823039F58D89813071F050F0823029F00E
:102FB000833059F458E2E52E08C068E4E62E05C0D7
:102FC00048E8E42E02C038EEE32E4E2D66E3CE0133
:102FD0000E94D7130A851B85015011092885398560
:102FE0002150310940E050E060E070E0CE010E94E5
:102FF0008A208A8D833031F58D89813069F048F0DF
:10300000823029F0833051F420E6F22E07C0F12CF3
:1030100005C090ECF92E02C080EAF82E4F2D66E331
:10302000CE010E94D7130A851B85015011092885FE
:1030300039852150310940E050E060E070E0CE0178
:103040000E948A20DF91CF911F910F91FF90EF9006
:103050000895AF92BF92CF92DF92EF92FF920F93BB
:103060001F93CF93DF93EC017B016A01B22EA32E55
:1030700077FD1BC157FD19C18885998568177907A8
:103080000CF013C18A859B85481759070CF00DC1B8
:10309000EB8DFC8D90818FA1892380838A8D811196
:1030A00035C08D89823059F08330B1F08130D1F450
:1030B0008FEE90E0841B950B6B017C0113C08FEEAB
:1030C00090E09C01261B370B79018FE391E09C0176
:1030D000241B350B690106C08FE391E0861B970B1B
:1030E0007A016C01A70160E270E0CE010E941D1719
:1030F000A60161E270E0CE010E941D174B2D5A2DF2
:1031000062E270E0CE010E941D17C9C0813009F053
:1031100060C0ED89E150E33028F4F0E0EF5BFE4F52
:10312000408101C040E066E1CE010E94D7139701C3
:1031300043E062E0CE010E94A716960147E066E0F8
:10314000CE010E94A716ED8DFE8D908188A5892362
:1031500080838BB1837080628BB985B18C7F8260F4
:1031600085B9EF8DF8A1908189A589238083EF8DA2
:10317000F8A190818DA1892B8083ED8DFE8D9081AA
:103180008CA1892B80838BB19A2D9C7F8370892B96
:103190008BB985B19A2D93708C7FA92EA82AA5B8DA
:1031A000EF8DF8A1908189A589238083EF8DF8A107
:1031B00090818DA1892B80838BB19B2D9C7F837007
:1031C000892B8BB985B19B2D93708C7FB92EB82A32
:1031D00059C08250823008F062C00A851B850150B8
:1031E00011092885398521503109CE010E948A2094
:1031F000EB8DFC8D90818FA189238083ED8DFE8DD9
:10320000908188A5892380838BB183708C628BB970
:1032100085B18C7F85B9EF8DF8A1908189A589232F
:103220008083EF8DF8A190818DA1892B8083ED8D16
:10323000FE8D90818CA1892B80838BB19A2D9C7FF0
:103240008370892B8BB995B18A2D83709C7FA82EB2
:10325000A92AA5B8EF8DF8A1908189A5892380833B
:10326000EF8DF8A190818DA1892B80838BB19B2D4F
:103270009C7F8370892B8BB995B18B2D83709C7F3C
:10328000B82EB92AB5B8EF8DF8A1908189A5892308
:103290008083EF8DF8A190818DA1892B8083EB8DA8
:1032A000FC8D90818BA1892B8083DF91CF911F9121
:1032B0000F91FF90EF90DF90CF90BF90AF90089567
:1032C000EF92FF920F931F93CF93DF93EC017B015B
:1032D0008A8D811129C02D892150233078F430E066
:1032E000F901E25CFE4F8081482F50E0220F331F2E
:1032F000F901E85CFE4F0081118104C000E010E09C
:1033000040E050E0EB8DFC8D30812FA12323208302
:1033100060E270E0CE010E941D17A80161E270E03A
:10332000CE010E941D1712C08150833078F40A85A7
:103330001B8501501109288539852150310940E04C
:1033400050E060E070E0CE010E948A2020E03CE284
:1033500041E050E0B701CE01DF91CF911F910F9175
:10336000FF90EF900C94531E2F923F924F925F92DA
:103370006F927F928F929F92AF92BF92CF92DF9285
:10338000EF92FF920F931F93CF93DF9300D000D063
:1033900000D0CDB7DEB75C014B015E834D832801C1
:1033A00081E090E03C01641A750ACA01919581950B
:1033B0009109AC01440F551F5A8349831801CC244D
:1033C000C394D12C522F51705B8322702C83C60181
:1033D00001972D813E81821793070CF068C077FC1E
:1033E0000CC08D819E8101979E838D83E981FA8136
:1033F0003296FA83E9836E0E7F1EC601880F991FED
:103400000196680E791EFB81FF2319F12D813E8103
:10341000220F331F2F5F3F4F240D351D8701A4015D
:103420008D819E81481B590BB6016A0D7B1D83E877
:1034300094E00E94010B91012D5F3F4FA4014C19B4
:103440005D096D817E816A0D7B1D83E894E00E9499
:10345000010B9C81992321F12D813E81220F331F85
:103460002F5F3F4F240D351D8701A401ED81FE81A3
:103470004E1B5F0BB5016C197D0983E894E00E9437
:10348000010B91012D5F3F4FA4014C195D09B5015E
:103490008D819E81681B790B83E894E00E94010B6B
:1034A0009FEFC91AD90AE2E02E0E311C90CF269662
:1034B0000FB6F894DEBF0FBECDBFDF91CF911F9145
:1034C0000F91FF90EF90DF90CF90BF90AF909F90C3
:1034D0008F907F906F905F904F903F902F900895C6
:1034E000AF92BF92CF92DF92EF92FF920F931F9312
:1034F000CF93DF936C015B01EA0179019A01220FFE
:10350000331F2F5F3F4FAB014C1B5D0B8701B60193
:1035100083E894E00E94010B00E010E023E0AE019C
:10352000B501C6010E94B419DF91CF911F910F918F
:10353000FF90EF90DF90CF90BF90AF9008952F92C3
:103540003F924F925F926F927F928F929F92AF9233
:10355000BF92CF92DF92EF92FF920F931F93CF9380
:10356000DF9300D000D0CDB7DEB72C015B011A018C
:103570003901680188279927801B910B9C01220F34
:10358000331F3C832B83C201800F911F9A83898351
:10359000240F351F8301AB01BC0183E894E00E9436
:1035A000E50AEB81FC816E0E7F1EF1E06F1A710857
:1035B000AC0CBD1C420C531CC2018C199D0983012B
:1035C00021E0A601B50101970E94B41922E0A601ED
:1035D000B50189819A810E94B4190F900F900F90C4
:1035E0000F90DF91CF911F910F91FF90EF90DF909F
:1035F000CF90BF90AF909F908F907F906F905F9093
:103600004F903F902F900895EF92FF920F931F934A
:10361000CF93DF93EC017B01AC0160E370E080911C
:103620001F04909120040E9402118C01AE0160E3FE
:1036300070E080911B0490911C040E94AC109701D3
:1036400042E050E0BC01C801DF91CF911F910F9182
:10365000FF90EF900C94701ACF92DF92EF92FF924E
:10366000CF93DF936C01990FEE08FF08F7FE1CC0A3
:10367000E091F802F091F9020190F081E02D6DE205
:1036800088EF92E00995EC0144275527BA014C19BF
:103690005D096E097F092AE088EF92E00E94EB2421
:1036A0007C01EC0EFD1E08C02AE0B701A60188EFE0
:1036B00092E00E94EB247C0169E172E088EF92E0E5
:1036C0000E94BF248E0D9F1DDF91CF91FF90EF9040
:1036D000DF90CF9008952F923F924F925F926F921A
:1036E0007F928F929F92AF92BF92CF92DF92EF9292
:1036F000FF920F931F93CF93DF9300D000D000D0A1
:10370000CDB7DEB77C016B015E834D83890181E01B
:1037100090E03C01641A750ACA019195819591095E
:103720009C01220F331F3A832983460F571F9801AC
:10373000B70183E894E00E940D0BA6018D819E8164
:10374000481B590B9801B70183E894E00E940D0BC8
:103750006D817E816E0D7F1D9801A60183E894E046
:103760000E940D0BB701ED81FE816E1B7F0B98014E
:10377000A60183E894E00E940D0BA12CB12C21E05E
:1037800030E03C832B832D813E81A216B3060CF0E2
:1037900070C077FC0CC08D819E8101979E838D83C4
:1037A000E981FA813296FA83E9836E0E7F1EFFEF7C
:1037B000AF1ABF0A2B813C812E5F3F4F3C832B8386
:1037C000620E731E25014E0C5F1C98018D809E8039
:1037D0008C0C9D1CA401B20183E894E00E940D0BA7
:1037E00017012A183B089801A401B10183E894E06D
:1037F0000E940D0B980146018D819E81881A990ABD
:10380000A401B20183E894E00E940D0B9801A40189
:10381000B10183E894E00E940D0B45018C0C9D1CC6
:103820009801A4014D805E804E0C5F1CB20183E8BC
:1038300094E00E940D0B9801A4011701ED81FE8117
:103840002E1A3F0AB10183E894E00E940D0B460155
:103850008A189B089801A401B20183E894E00E94B1
:103860000D0B9801A401B10183E894E00E940D0BB7
:103870008ACF26960FB6F894DEBF0FBECDBFDF917C
:10388000CF911F910F91FF90EF90DF90CF90BF905D
:10389000AF909F908F907F906F905F904F903F90F0
:1038A0002F9008950F931F9381111CC00E945315F0
:1038B00000919703109198032091990330919A03F6
:1038C000DC01CB01801B910BA20BB30B843691055D
:1038D000A105B10538F463E070E080E090E00E945B
:1038E0001915E4CF0E9453156093970370939803C2
:1038F0008093990390939A0381E01F910F9108950B
:10390000CF939091AB03992309F465C0C82F8091A0
:10391000D7039091D803DC01ED91FC910480F581EF
:10392000E02D0995811117C085E656C08091D70317
:103930009091D803DC01ED91FC910680F781E02D98
:103940000995883609F447C0A0F0813709F443C0CF
:10395000863709F441C08091D7039091D803DC01E8
:10396000ED91FC910480F581E02D09958111DECF68
:10397000DBCF883571F1833671F70E945315609360
:103980009703709398038093990390939A036CE044
:1039900072E08091D7039091D8030E94BF244C2FEE
:1039A00050E060E070E02AE08091D7039091D80366
:1039B0000E94EB2463E172E08091D7039091D803D9
:1039C0000E94BF2462E370E080E090E00E9419153D
:1039D00002C01092AB0383E6CF910895CF93DF939B
:1039E000C091D703D091D8036CE172E0CE010E9460
:1039F000BF2469E172E0CE01DF91CF910C94BF2426
:103A0000BF92CF92DF92EF92FF920F931F93CF93CB
:103A1000DF93B82E0E9453156B017C0105E913E07A
:103A2000C7EDD3E063E272E0888199810E94BF24F0
:103A30004B2D50E060E070E02AE0888199810E947F
:103A4000EB246AE272E0888199810E94BF242AE017
:103A5000B701A601888199810E94EB246CE272E093
:103A6000888199810E94BF24F80186819781A08571
:103A7000B185B701A601481B590B6A0B7B0B2AE0E5
:103A8000888199810E94EB246CE272E0888199819F
:103A90000E94BF24F8014681578160857185828527
:103AA0009385A485B585481B590B6A0B7B0B2AE0CF
:103AB00088819981DF91CF911F910F91FF90EF90B5
:103AC000DF90CF90BF900C94EB2408950895FC01F3
:103AD0006370658B8481958126813781613039F0EF
:103AE000633029F091878087338722870895318753
:103AF0002087938782870895AF92BF92CF92EF92EB
:103B0000FF920F931F93CF93DF93EC01262F888DA5
:103B1000998D009709F042C06A3069F42C898E852E
:103B20009F8538E0239F800D911D11249F878E87EC
:103B30001D861C86ACC06D3009F4A9C08E8988230F
:103B4000C1F03C898C859D8546E0349F800D911D98
:103B5000112448855985841795075CF01D861C86BD
:103B60008E859F85E8E03E9F800D911D11249F87E3
:103B70008E87EA88FB88088919894E855F856C8560
:103B80007D85CC88CE010E94240C2C898C859D8556
:103B9000F6E02F9F800D911D112441C06A3079F409
:103BA0001D861C862C89FC013696E4918E859F85A6
:103BB0002E9F800D911D11249F878E8768C06D30C8
:103BC00009F465C0AC014C5F5F4FFA013491631793
:103BD00008F45DC03196E491E61708F458C0FA0184
:103BE0004491362F341BFC013296A590B490F7E037
:103BF0003F9FA00CB11C1124F501329634913196EF
:103C0000E491332311F0E1110DC0F5013496E491F4
:103C10002C898C859D85E29F800D911D11249D87A7
:103C20008C8735C0F501359644915E89552311F195
:103C30006C89E32FF0E0E40FF11D47FDFA956E9FCC
:103C4000D0016F9FB00D11244C855D854A0F5B1F1D
:103C5000E885F9854E175F076CF01D861C86FC0110
:103C60003696E4918E859F856E9F800D911D11245F
:103C70009F878E87EA88FB88088919894E855F852A
:103C80006C857D85CC88CE010E94240CBECF81E05E
:103C900090E0DF91CF911F910F91FF90EF90CF9027
:103CA000BF90AF900895AF92BF92CF92DF92EF9204
:103CB000FF920F931F93CF93DF93FC01A38DB48DDD
:103CC0009C9187A189238C93A58DB68D9C9180A50D
:103CD00089238C93828D8230B9F0811113C08BB10E
:103CE00083708BB985B18C7F85B9A78DB0A19C916C
:103CF00081A589238C93A78DB0A19C9185A1892B47
:103D00008C9309C0833039F48BB183708C628BB98A
:103D100085B18C7F07C08BB1837080628BB985B110
:103D20008C7F826085B9A78DB0A19C9181A58923E4
:103D30008C93A78DB0A19C9185A1892B8C93A58D87
:103D4000B68D9C9184A1892B8C938BB1972F9C7FEE
:103D5000B92E8370892B8BB985B1A72FA370AA2E9A
:103D60008C7F8A2B85B9C78DD0A1988181A58923A5
:103D70008883C78DD0A1988185A1892B88838BB139
:103D8000C62FCC7F83708C2B8BB985B1D62FD37087
:103D90008C7F8D2B85B9078D10A1D8019C9181A5B1
:103DA00089238C93078D10A1D8019C9185A1892B23
:103DB0008C93215031094109510969017A0186E04A
:103DC000F694E794D794C7948A95D1F7C6017613F1
:103DD00048C1019708F465C060E1A78DB0A1CC91FE
:103DE00071A57C237C93A78DB0A1CC9175A17C2B70
:103DF0007C93A78DB0A1CC9171A57C237C93A78DDA
:103E0000B0A1CC9175A17C2B7C93A78DB0A1CC9156
:103E100071A57C237C93A78DB0A1CC9175A17C2B3F
:103E20007C93A78DB0A1CC9171A57C237C93A78DA9
:103E3000B0A1CC9175A17C2B7C93A78DB0A1CC9126
:103E400071A57C237C93A78DB0A1CC9175A17C2B0F
:103E50007C93A78DB0A1CC9171A57C237C93A78D79
:103E6000B0A1CC9175A17C2B7C93A78DB0A1CC91F6
:103E700071A57C237C93A78DB0A1CC9175A17C2BDF
:103E80007C93A78DB0A1CC9171A57C237C93A78D49
:103E9000B0A1CC9175A17C2B7C93615009F09DCF92
:103EA00098CF2F732150C8F0A78DB0A19C9181A508
:103EB00089238C93A78DB0A19C9185A1892B8C938C
:103EC000A78DB0A19C9181A589238C93A78DB0A1CA
:103ED0009C9185A1892B8C93E5CFA38DB48D9C916A
:103EE00083A1892B8C93DF91CF911F910F91FF902C
:103EF000EF90DF90CF90BF90AF9008956BB163705B
:103F00006B296BB965B16C7F6A2965B9078D10A102
:103F1000D801FC9061A56F216C93078D10A1D80189
:103F2000FC9065A16F296C936BB163706C2B6BB9BE
:103F300065B16C7F6D2B65B9078D10A1D801FC9020
:103F400061A56F216C93078D10A1D801FC9065A12C
:103F50006F296C936BB163706B296BB965B16C7F22
:103F60006A2965B9078D10A1D801FC9061A56F2160
:103F70006C93078D10A1D801FC9065A16F296C93FB
:103F80006BB163706C2B6BB965B16C7F6D2B65B9D0
:103F9000078D10A1D801FC9061A56F216C93078D4E
:103FA00010A1D801FC9065A16F296C936BB163706F
:103FB0006B296BB965B16C7F6A2965B9078D10A152
:103FC000D801FC9061A56F216C93078D10A1D801D9
:103FD000FC9065A16F296C936BB163706C2B6BB90E
:103FE00065B16C7F6D2B65B9078D10A1D801FC9070
:103FF00061A56F216C93078D10A1D801FC9065A17C
:104000006F296C936BB163706B296BB965B16C7F71
:104010006A2965B9078D10A1D801FC9061A56F21AF
:104020006C93078D10A1D801FC9065A16F296C934A
:104030006BB163706C2B6BB965B16C7F6D2B65B91F
:10404000078D10A1D801FC9061A56F216C93078D9D
:1040500010A1D801FC9065A16F296C93715009F0F3
:104060004DCF019710F070E149CF2F73215008F424
:1040700034CF8BB183708B298BB985B18C7F8A2922
:1040800085B9478D50A1DA019C9181A589238C9334
:10409000478D50A1DA019C9185A1892B8C938BB11E
:1040A00083708C2B8BB985B18C7F8D2B85B9478D17
:1040B00050A1DA019C9181A589238C93478D50A151
:1040C000DA019C9185A1892B8C93D0CFCF93DF937C
:1040D000EC01EB8DFC8D90818FA189238083288555
:1040E00039852150310945E064E0CE010E94A716D0
:1040F0002A853B852150310949E068E0CE010E94C4
:10410000A716EB8DFC8D90818BA1892B8083DF918D
:10411000CF9108958F929F92AF92BF92CF92DF92EC
:10412000EF92FF920F931F93CF93DF93EC017A01ED
:104130006901EB8DFC8D30812FA1232320832A8DF3
:1041400021115EC02D89223089F0233021F12130E8
:1041500081F52FEE30E0A901401B510B5B014901B5
:104160008E189F08860164017B0113C02FEE30E09A
:10417000A9014C195D096901C61AD70A8FE391E0BC
:104180009C01201B310B8C010E191F09580146019F
:104190007901BA0110C02FE331E0A9014C195D0982
:1041A0005901A61AB70A470168018501B7017A01CA
:1041B00002C05A014B01AB0160E570E0CE010E94E4
:1041C0001D17A60161E570E0CE010E941D17A70131
:1041D00062E570E0CE010E941D17A80163E570E062
:1041E000CE010E941D17A40160E270E0CE010E9482
:1041F0001D17A50161E270E0CE010E941D1747C0A6
:104200002130C1F49B0143E062E00E94A7169701B0
:1042100047E066E0CE010E94A716960145E064E003
:10422000CE010E94A716980149E068E0CE010E94E5
:10423000A7162DC02250223050F5CB01770FAA0BC4
:10424000BB0BDC0199278827A601DD0C660B770BD9
:104250009A01AB01282B392B4A2B5B2B6AE2CE014A
:104260000E94F715C701FF0CAA0BBB0BDC019927B5
:104270008827A801110F660B770B9A01AB01282B39
:10428000392B4A2B5B2B6BE2CE010E94F715EB8D8D
:10429000FC8D90818BA1892B8083DF91CF911F9121
:1042A0000F91FF90EF90DF90CF90BF90AF909F90D5
:1042B0008F9008958F929F92AF92BF92CF92DF928C
:1042C000EF92FF920F931F93CF93DF93EC0147017F
:1042D000121613060CF06BC0101611060CF067C016
:1042E000A885B9856A177B070CF061C0CA84DB8496
:1042F0004C155D050CF05BC05B01A20EB31EC50141
:10430000019797FD54C07A01E00EF11EF701319735
:10431000F7FD4DC077FF49C060E070E057FD02C077
:10432000780102C040E050E08A179B072CF0CD01D5
:1043300001975D01A61AB70AEC15FD052CF0F601F0
:1043400031977601E41AF50A8F019C01CE010E9493
:104350008A209701D5010E94B7339B01AC01B401BB
:10436000CE010E94531E8A8D811110C00A851B85C3
:1043700001501109288539852150310940E050E06C
:1043800060E070E0CE010E948A2011C0CE01DF9172
:10439000CF911F910F91FF90EF90DF90CF90BF9042
:1043A000AF909F908F900C9466205901B7CFDF910A
:1043B000CF911F910F91FF90EF90DF90CF90BF9022
:1043C000AF909F908F900895CF92DF92EF92FF92DF
:1043D0000F931F93CF93DF93EC016801121613061E
:1043E0000CF04FC077FD4DC0888599856817790717
:1043F0000CF047C0EA85FB854E175F070CF041C003
:104400007A01E20EF31E87010150110917FD39C030
:1044100057FF35C040E050E00E171F0734F08F0102
:10442000015011097F01E41AF50A9B01CE010E9497
:104430008A209701FF0C440B550BB601CE010E9458
:10444000531E8A8D811110C00A851B8501501109E8
:10445000288539852150310940E050E060E070E066
:10446000CE010E948A200DC0CE01DF91CF911F9115
:104470000F91FF90EF90DF90CF900C946620790120
:10448000CBCFDF91CF911F910F91FF90EF90DF90F5
:10449000CF900895CF92DF92EF92FF920F931F93E8
:1044A000CF93DF93EC016801121613060CF04EC097
:1044B00057FD4CC08A859B85481759070CF046C0AC
:1044C000E885F9856E177F070CF040C07B01E20E8E
:1044D000F31EC701019797FD39C077FF35C060E033
:1044E00070E08E179F072CF0CF0101977F01E61A2D
:1044F000F70A8A019C01CE010E948A209701FF0CD5
:10450000440B550BB601CE010E94531E8A8D8111BA
:1045100010C00A851B850150110928853985215055
:10452000310940E050E060E070E0CE010E948A2056
:104530000DC0CE01DF91CF911F910F91FF90EF90B1
:10454000DF90CF900C9466207901CBCFDF91CF9193
:104550001F910F91FF90EF90DF90CF900895CF9231
:10456000DF92EF92FF920F931F93CF93DF936C0133
:104570007A018B01C0E0D0E0CE15DF0589F0D801CB
:104580006D918D01D601ED91FC910190F081E02DAE
:10459000C6010995892B11F47E0102C02196ECCF4A
:1045A000C701DF91CF911F910F91FF90EF90DF90A6
:1045B000CF9008950F931F93CF93DF93EC018881E1
:1045C0009981009729F02A813B812617370788F4C3
:1045D0008B016F5F7F4F0E940D35009761F09983CB
:1045E00088831B830A832C813D81232B11F4FC01DA
:1045F000108281E001C080E0DF91CF911F910F9187
:104600000895EF92FF920F931F93CF93DF93FC01D6
:10461000248135816115710511F480E019C04115BF
:104620005105A9F07B01EC018A01020F131FB801AB
:104630000E94DA22882389F3288139818C819D8127
:10464000B701820F931F0E94EE351D830C8381E01A
:10465000DF91CF911F910F91FF90EF900895CF932D
:10466000DF93EC0188819981009711F00E947534E5
:10467000198218821D821C821B821A82DF91CF91BF
:104680000895E0919E04F0919F0490818091A6048A
:10469000892B8083E091A204F091A3049081809102
:1046A000A804892B8083E091A404F091A504908153
:1046B0008091A904892B80838091AE04882371F0B6
:1046C00060E00E94961462E070E080E090E00E945A
:1046D000191561E08091AE040E949614E0919E0449
:1046E000F0919F0490818091AA0489238083E091B6
:1046F000A004F091A10490818091AB048923808370
:104700008BB183708BB985B18C7F85B9E091A204A0
:10471000F091A30490818091AC0489238083E0917F
:10472000A204F091A30490818091A804892B808336
:1047300083E0E091A204F091A30420819091AC0465
:1047400092239083E091A204F091A30420819091A0
:10475000A804922B9083815061F7E0919E04F09120
:104760009F0490818091A604892B80830895FC0189
:1047700024813581232B31F421E061157105A1F0ED
:10478000FB0108C0FC01808191816115710531F444
:1047900021E0FC018081882339F005C00E94E535C5
:1047A00021E0892B09F020E0822F0895CF93DF9339
:1047B000DC01ED91FC91EB01A881B981309711F0FA
:1047C0001097C9F4109759F0EB012C813D81232BF0
:1047D00031F08C9190E091958195910914C03097BA
:1047E00081F0DC0114968D919C911597892B49F0ED
:1047F000808190E008C0BD01CF01DF91CF910C9482
:10480000E53580E090E0DF91CF910895CF93DF937D
:10481000EC016115710561F0FB0101900020E9F7E1
:104820003197AF01461B570B0E940123811103C032
:10483000CE010E942F23CE01DF91CF910895CF9317
:10484000DF93EC01FB0144815581608171810E94FD
:104850000123811103C0CE010E942F23CE01DF91DD
:10486000CF910895EF92FF920F931F93CF93DF9311
:10487000EC017B018A01BA010E94DA22811104C095
:10488000CE010E942F2307C01D830C83B7018881AE
:1048900099810E94EE35CE01DF91CF911F910F914A
:1048A000FF90EF900895FC01808191810C94753404
:1048B000EF92FF920F931F93CF93DF93CDB7DEB7A5
:1048C00062970FB6F894DEBF0FBECDBF8C01CB014F
:1048D000F80111821082138212821582148250E034
:1048E0009E012F5F3F4F7901B9010E945630F701B9
:1048F00001900020E9F73197AF014E195F09B70128
:10490000C8010E94322462960FB6F894DEBF0FBE33
:10491000CDBFDF91CF911F910F91FF90EF90089540
:10492000FB01DC0111961C921E9213961C921E92A2
:10493000129715961C921E9214978617970749F0A6
:10494000608171816115710521F0448155810C945C
:1049500032240895FC011182108213821282158282
:1049600014826115710551F0FB0101900020E9F7F7
:104970003197AF01461B570B0C94322408956115F3
:10498000710579F0FB0101900020E9F73197AF0143
:10499000461B570BDC01ED91FC910280F381E02D69
:1049A000099480E090E00895CF93DF93FC01448167
:1049B00055816081718188EF92E00E94AF22EC0105
:1049C00069E172E088EF92E00E94BF248C0F9D1F86
:1049D000DF91CF9108954F925F926F927F92EF9205
:1049E000FF920F931F93CF93DF93CDB7DEB7A197BD
:1049F0000FB6F894DEBF0FBECDBF7C01FA01CB012C
:104A000019A2223008F42AE08E010F5D1F4F422EBA
:104A1000512C612C712CBF01A30192010E94913194
:104A2000F901CA01015011096A3014F4605D01C036
:104A3000695CD8016C93232B242B252B61F7B801DB
:104A4000C7010E94BF24A1960FB6F894DEBF0FBE27
:104A5000CDBFDF91CF911F910F91FF90EF907F908D
:104A60006F905F904F900895CF93DF93CDB7DEB7EF
:104A7000E0970FB6F894DEBF0FBECDBF789484B533
:104A8000826084BD84B5816084BD85B5826085BD4A
:104A900085B5816085BD80916E00816080936E00D8
:104AA00010928100809181008260809381008091CA
:104AB000810081608093810080918000816080937B
:104AC00080008091B10084608093B1008091B0003B
:104AD00081608093B00080917A00846080937A0036
:104AE00080917A00826080937A0080917A00816060
:104AF00080937A0080917A00806880937A00109287
:104B0000C1001092D9031092DA031092DB031092C5
:104B1000DC0310929703109298031092990310925D
:104B20009A0368EB7BE080E090E00E94191588EF23
:104B300092E09093D8038093D703E0910803F0911B
:104B4000090382E08083E0910403F0910503108261
:104B5000E0910603F091070380E180831092100337
:104B6000E0910C03F0910D0386E08083E0910A034D
:104B7000F0910B03808180618083E0910A03F091C2
:104B80000B03808188608083E0910A03F0910B031E
:104B9000808180688083E0910A03F0910B0380811B
:104BA0008F7D80830E9453156093970370939803C1
:104BB0008093990390939A0365E971E08091D703FC
:104BC0009091D8030E94BF246AE070E080E090E0FA
:104BD0000E94191581E08093AB030E9441230E943B
:104BE000412368EC70E080E090E00E94191510927B
:104BF0009D04E0919E04F0919F0490818091AA040D
:104C00008923808309EA1BE0F80165917491F8011A
:104C10003296459154916F3F710531F4BA0180E0AD
:104C200090E00E94191504C083E894E00E941D17CB
:104C30000C5F1F4F2CE00537120731F76091980485
:104C400083E894E00E9487170FE311E02FEE30E035
:104C500040E050E060E070E083E894E00E948A2049
:104C600063E083E894E00E94871760E070E083E8E7
:104C700094E00E94601961E08DE00E94C61480E01B
:104C800090E00E94581120918D0430918E042052A2
:104C9000310940918B0450918C044C50510998E19A
:104CA000E92E96ECF92E03E010E06AE170E086E070
:104CB00090E00E949F1A20918D0430918E0426521C
:104CC000310940918B0450918C0442515109E12CDF
:104CD000F12C6DE170E089E090E00E949F1A0E9443
:104CE000C9122AE2A22E21E0B22E39E3E32E34E0EB
:104CF000F32E00E010E0D5016D917D915D01072E4E
:104D0000000C880B990B0E94983020E030E048E4BA
:104D100055E40E946B3220E030E044EB53E40E9403
:104D2000D3300E94DD32CB010E9489103C0180917A
:104D30001F049091200480901D0490901E04A301F4
:104D40000115110551F466E470E00E9402110F97FD
:104D50006C01A3016CE470E009C064E670E00E949D
:104D600002110F976C01A30164E670E0C4010E9478
:104D7000AC100F974C01B701CE0107960E9490240A
:104D8000BE01695F7F4FCE0101960E94902422E010
:104D900030E0A401B601CE0101960E942E10CE0192
:104DA00001960E94532420E23DEF43E050E0B4011D
:104DB000C6010E946B1BCE0107960E9453240F5F11
:104DC0001F4FB6E0EB0EF11C0730110509F093CF31
:104DD00020E038EF42E050E068E270E080911F048C
:104DE000909120040E946B1B20E23DEF43E050E0D5
:104DF00068E270E088E290E00E946B1B20E23DEFE9
:104E000043E050E068E270E080E590E00E946B1BB8
:104E100080918B0490918C0420E23DEF43E050E0C0
:104E200068E270E0865491090E946B1B80918B04AC
:104E300090918C0420E23DEF43E050E068E270E0A6
:104E40008E5691090E946B1B60918D0470918E04A7
:104E50006A52710980918B0490918C0420E23DEF9D
:104E600043E050E08A970E946B1B67EA71E0CE0135
:104E700001960E94AA2423E030E048E250E068E274
:104E800070E0CE0101960E942E10CE0101960E9484
:104E9000532468EA71E0CE0101960E94AA2423E01F
:104EA00030E048E250E060E570E0CE0101960E94FB
:104EB0002E10CE0101960E94532400918B04109174
:104EC0008C04065411096AEA71E0CE0101960E9431
:104ED000AA2423E030E048E250E0B801CE01019678
:104EE0000E942E10CE0101960E94532400918B0443
:104EF00010918C040E5611096BEA71E0CE010196F7
:104F00000E94AA2423E030E048E250E0B801CE013C
:104F100001960E942E10CE0101960E94532400910A
:104F20008B0410918C040E5611096BEA71E0CE01CE
:104F300001960E94AA2423E030E048E250E0B80144
:104F4000CE0101960E942E10CE0101960E9453249C
:104F5000E0908D04F0908E04EAE2EE1AF1080091E0
:104F60008B0410918C040A5211096DEA71E0CE0194
:104F700001960E94AA2423E030E0A701B801CE01E7
:104F800001960E942E10CE0101960E9453240E9489
:104F90003F0F68EB7BE080E090E00E94191561E034
:104FA0008DE00E949614A091B404B0E0FD01EE5390
:104FB000FE4EA4908091B104682F70E0FB01EE5387
:104FC000FE4E04914091B30450E0FA01EE53FE4EC0
:104FD000E4902091B20430E0F901EE53FE4E84904B
:104FE000FD01EC55FE4E7490FB01EC55FE4ED49045
:104FF000FA01EC55FE4EF490F901EC55FE4E34905A
:1050000060E00E94C61460E08091B2040E94C61461
:1050100010E0000F111F08541E4EF801A591B49125
:105020008C912D2C209482218C93912CF401EE0FE5
:10503000FF1F9F0128543E4E4901F901A591B491EB
:105040009C91832D809589238C9361E08091B40499
:105050000E94C61461E08091B3040E94C614B12C72
:10506000F501EE0FFF1FAF0148545E4E5A01FA01E1
:10507000A591B4918C9187298C93EE2DF0E0EE0FE1
:10508000FF1FE854FE4EA591B491EC91F094FE22DE
:10509000FC928091B1040E9402157C018091B104C0
:1050A0000E9402159C01C701821B930B049609976D
:1050B00038F42E0D3F1D359527956624639401C065
:1050C000612C8FEF93E07C01E21AF30A60E080919B
:1050D000B4040E94C61460E08091B3040E94C61418
:1050E000F501A591B4918C91709487218C9361E026
:1050F0008091B1040E94C614F801A591B491EC917D
:10510000DE2ADC9261E08091B2040E94C614809194
:10511000B3040E9402152C018091B3040E94021571
:105120006C01C2018C199D090496099728F4C40CDE
:10513000D51CD594C79401C0612C61E08091B40462
:105140000E94C614F501A591B491EC917E227C9247
:10515000F401A591B491EC913E2A3C92F801A591FD
:10516000B4918C9128222C9260E08091B1040E942D
:10517000C6148091B3040E9402158C018091B10481
:105180000E940215A090B504B090B604A114B10419
:1051900009F440C0BC01990F880B990B0E9498300C
:1051A0001B012C01B801110F880B990B0E9498303C
:1051B0009B01AC01C201B1010E946B3220E030E0E2
:1051C00040E85FE30E94F9311B012C01B7010F2C6D
:1051D000000C880B990B0E9498309B01AC01C20116
:1051E000B1010E94D3301B012C01B50180E090E099
:1051F0000E9496309B01AC01C201B1010E94D330E4
:1052000020E030E040E85AE30E94D3300E94DD32D3
:105210008B0104C0081B190B01501C4F611002C008
:1052200000E010E060E08DE00E94961461E080E113
:105230000E94C61461E081E10E94C614B801635364
:105240007109653B734008F0F0C3C7010F2C000CD7
:10525000AA0BBB0B8DA79EA7AFA7B8AB95EAE91623
:10526000F1048CF46DA57EA58FA598A90E949830B5
:105270002B013C0120E030E041E654E42DA33EA3A5
:105280004FA358A724C035E8E31633E0F3068CF0AB
:105290006DA57EA58FA598A90E9498306DA37EA3C9
:1052A0008FA398A7412C512C45E2642E43E4742E21
:1052B0000EC0412C512C35E2632E33E4732E80E076
:1052C00090E0A1E6B4E48DA39EA3AFA3B8A78FEFAF
:1052D00093E08C199D096C01092E000CEE08FF0863
:1052E000803A91057CF4C701B6010E9498304B01C9
:1052F0005C0120E030E843E654E429A73AA74BA735
:105300005CA720C08F3893407CF0C701B6010E9493
:10531000983069A77AA78BA79CA7812C912C20E2B3
:10532000A22E23E4B22E0EC0812C912C90E2A92E45
:1053300093E4B92E80E090E8A3E6B4E489A79AA7A5
:10534000ABA7BCA7C701B6010E949830A501940184
:105350000E94F9316B017C01A501940169A57AA530
:105360008BA59CA50E94F9319B01AC01C701B60138
:105370000E946B329B01AC0160E070E080E89FE32B
:105380000E94F9316B017C0160918B0470918C0457
:10539000072E000C880B990B0E9498309B01AC01E2
:1053A000C701B6010E94D3300E94DD326B017093B9
:1053B0007502609374026DA57EA58FA598A90E94C1
:1053C0009830A30192010E94F9314B015C01A301C5
:1053D00092016DA17EA18FA198A50E94F9319B0138
:1053E000AC01C501B4010E946B329B01AC0160E0CD
:1053F00070E080E89FE30E94F9314B015C018091ED
:105400008D0490918E04BC01990F880B990B0E941A
:1054100098309B01AC01C501B4010E94D3300E94B9
:10542000DD328B017093770260937602F0902E024A
:10543000E0902F0240E050E0A0E0B0E022242A9467
:10544000322C80E090E0BC01660F771FFB01E05B2F
:10545000FD4F20813181FB01E05DFD4FA080B180D7
:1054600060507F4FFB01608171816130710531F0C7
:1054700054F0643071050CF4DBC205C04F2D5E2D75
:10548000A4E1B0E002C0672B21F02C153D05BCF46F
:1054900005C02C153D05C4F480E190E0240F351FB4
:1054A000C216D30664F4A016B1064CF4F501EA0F57
:1054B000FB1F0E171F071CF41C0180E190E00196F2
:1054C000803191050CF4BFCF8091720290917302EC
:1054D0002816390609F4A9C2F4E02F16310408F0A1
:1054E000A0C21092710210927002C1010E94581164
:1054F00022E02216310409F490C233E0231631046D
:1055000009F48BC241E02416310409F08AC23092BA
:105510007102209270020E94C91280E090E00E9405
:1055200089106C014C015DE9851A5EEF950A2C012A
:1055300089EB480E511C360195E0690E711C56012D
:10554000AFEAAA0EB11C60E1E62E64E8F62E00E098
:1055500010E024E330E044E350E0B201C4010E94D3
:105560000E1224E330E044E350E0B501C3010E9491
:105570000E1224E330E044E350E0B301C4010E9482
:105580000E1224E330E044E350E0B501C2010E9472
:105590000E1260EE77E0C6010E94041B60E078EF17
:1055A000C601845B91090E94041B80E00E94641282
:1055B00081E00E9464120E943F0F812C912C71E1C6
:1055C000472E512CE6E06E2E712CF401E75CFB4F68
:1055D0007F01BF01CE0101960E94902461E070E03E
:1055E000CE0101960E94D60F5C01CE0101960E9469
:1055F0005324B701CE0101960E94902462E070E02E
:10560000CE0101960E94D60F6C01CE0101960E9438
:105610005324B701CE0101960E94902463E070E00C
:10562000CE0101960E94D60F8C01CE0101960E94F8
:105630005324B701CE014F960E949024BE01615EB3
:105640007F4FCE0149960E9490244AE0B801CE01D6
:1056500043960E9458244AE0B601CE010D960E945E
:1056600058244AE0B501CE0107960E94582462EB07
:1056700071E0CE0101960E94AA24BE01695F7F4FAE
:10568000CE0101960E941F2466EB71E00E94062461
:10569000BE01635F7F4F0E941F246BEB71E00E948D
:1056A0000624BE016D5E7F4F0E941F2460EC71E0F6
:1056B0000E940624BE01675E7F4F0E941F240E9445
:1056C000D424CE0101960E945324CE0107960E9455
:1056D0005324CE010D960E945324CE0143960E947E
:1056E0005324CE0149960E9453240330110519F426
:1056F00005EE1FEA02C008E116EC65EE71E0C70195
:105700000E94B723882311F000EE1FEF67EA71E0D3
:10571000C7010E94B723811107C06AEA71E0C7017F
:105720000E94B723882331F04EE0442E512C66248A
:105730006394712C68EA71E0C7010E94B72381115C
:105740007CC16BEA71E0C7010E94B723811175C16A
:1057500068C0853609F4ADC16AE070E080E090E091
:105760000E94191584E00E94801C8093AC038091F4
:10577000AC03833671F70E94531560939B037093BB
:105780009C0380939D0390939E0324EF31E040E0BF
:1057900050E02093A3033093A4034093A5035093B8
:1057A000A6031092A7031092A8031092A9031092C7
:1057B000AA0360939F037093A0038093A103909327
:1057C000A2030E94531560939B0370939C038093E4
:1057D0009D0390939E0365E070E080E090E00E945E
:1057E00019156AE070E080E090E00E94191585E6E6
:1057F0008093AC038091AC03833609F08FC10E9483
:10580000531560939B0370939C0380939D03909327
:105810009E032EE0422E512C37E0632E712C00E8BF
:105820001CE66DEA71E0C7010E94B723882381F06E
:1058300041E050E068EA71E0CE014F960E943224C8
:105840008EE0482E512C97E0692E712C00E21DEF5E
:10585000780104E010E02EE130E04EE150E0B601C6
:10586000C5010E949F1AC40CD51CA60CB71CB0928F
:105870009004A0928F04D0929204C092910410924E
:1058800096041092950410929404109293048091BF
:105890009B0490919C04892B39F436E0C30ED11CF3
:1058A000D0929204C092910485E79CE090939C046E
:1058B00080939B044BA15CA16F8D78A183E894E059
:1058C0000E94AF2284EF91E0A0E0B0E08093A303B8
:1058D0009093A403A093A503B093A6031092A703EB
:1058E0001092A8031092A9031092AA0380919B031F
:1058F00090919C03A0919D03B0919E0380939F0380
:105900009093A003A093A103B093A2030E94531508
:1059100060939B0370939C0380939D0390939E03DD
:1059200065E070E080E090E00E9419156AE070E0A8
:1059300080E090E00E94191585E68093AC03809189
:10594000AC03833609F43FC0853699F58091A703EF
:105950009091A803A091A903B091AA030196A11D5B
:10596000B11D8093A7039093A803A093A903B093BC
:10597000AA034091A3035091A4036091A5037091E1
:10598000A603452B462B472B21F4892B8A2B8B2BE7
:1059900081F480E00E94521C882329F082E00E945A
:1059A000001D0E94EE1C64EF71E080E090E00E9418
:1059B00019156AE070E080E090E00E94191582E01D
:1059C0000E94801CBACF0E94531560939B03709372
:1059D0009C0380939D0390939E0380919B049091E0
:1059E0009C04892B49F08091910490919204069730
:1059F000909392048093910410929C0410929B04C3
:105A0000CE014F960E94532496E0890E911CA8E483
:105A10008A16910409F0D9CD04C030927102209207
:105A2000700230927302209272020E94A713B7CACA
:105A30004EE150E0AEE1B0E028CD24EF31E040E0AF
:105A400050E02093A3033093A4034093A503509305
:105A5000A6031092A7031092A8031092A903109214
:105A6000AA0380919B0390919C03A0919D03B09108
:105A70009E0380939F039093A003A093A103B093F0
:105A8000A2030E94531560939B0370939C03809321
:105A90009D0390939E0365E070E080E090E00E949B
:105AA00019156AE070E080E090E00E94191585E623
:105AB0005CCE8091A7039091A803A091A903B09117
:105AC000AA030196A11DB11D8093A7039093A8037B
:105AD000A093A903B093AA034091A3035091A403F8
