:100000000C94C20A0C9474200C944D200C94F71399
:100010000C94F7130C94F7130C94EA0A0C94EA0A64
:100020000C94EA0A0C94EA0A0C94EA0A0C94EA0A80
:100030000C94EA0A0C94EA0A0C94EA0A0C94EA0A70
:100040000C9403200C94EA0A0C94C3170C949D178B
:100050000C94EA0A0C94EA0A0C94EA0A0C94EA0A50
:100060000C9401140C94EA0A084AD73B3BCE016E6B
:1000700084BCBFFDC12F3D6C74319ABD56833DDAFF
:100080003D00C77F11BED9E4BB4C3E916BAAAABE0E
:10009000000000803F05A84CCDB2D44EB93836A937
:1000A000020C50B9918688083CA6AAAA2ABE000074
:1000B00000803F0000000000003E5B4F5B3E3E6B57
:1000C0004F6B3E1C3E7C3E1C183C7E3C181C577DF2
:1000D000571C1C5E7F5E1C00183C1800FFE7C3E73E
:1000E000FF0018241800FFE7DBE7FF30483A060E50
:1000F0002629792926407F050507407F05253F5A97
:100100003CE73C5A7F3E1C1C08081C1C3E7F142206
:100110007F22145F5F005F5F06097F017F006689B1
:10012000956A606060606094A2FFA29408047E04F7
:100130000810207E201008082A1C08081C2A08081D
:100140001E101010100C1E0C1E0C30383E383006DD
:100150000E3E0E06000000000000005F00000007D9
:10016000000700147F147F14242A7F2A1223130807
:10017000646236495620500008070300001C2241E3
:10018000000041221C002A1C7F1C2A08083E080887
:100190000080703000080808080800006060002037
:1001A000100804023E5149453E00427F400072491A
:1001B0004949462141494D331814127F10274545BE
:1001C00045393C4A494931412111090736494949D4
:1001D00036464949291E0000140000004034000042
:1001E00000081422411414141414004122140802AB
:1001F000015909063E415D594E7C1211127C7F491E
:100200004949363E414141227F4141413E7F494972
:1002100049417F090909013E414151737F0808089E
:100220007F00417F41002040413F017F081422416F
:100230007F404040407F021C027F7F0408107F3EC9
:100240004141413E7F090909063E4151215E7F0936
:10025000192946264949493203017F01033F40409D
:10026000403F1F2040201F3F4038403F6314081488
:100270006303047804036159494D43007F414141C0
:100280000204081020004141417F040201020440A1
:1002900040404040000307080020545478407F2825
:1002A0004444383844444428384444287F3854541B
:1002B000541800087E090218A4A49C787F0804043E
:1002C0007800447D40002040403D007F10284400DD
:1002D00000417F40007C047804787C08040478386E
:1002E00044444438FC1824241818242418FC7C089E
:1002F000040408485454542404043F44243C40401B
:10030000207C1C2040201C3C4030403C44281028CD
:10031000444C9090907C4464544C44000836410016
:100320000000770000004136080002010204023C90
:100330002623263C1EA1A161123A4040207A38545F
:1003400054555921555579412254547842215554D8
:10035000784020545579400C1E527212395555552B
:1003600059395454545939555454580000457C4116
:100370000002457D420001457C407D1211127DF056
:10038000282528F07C545545002054547C547C0A80
:10039000097F4932494949323A4444443A324A4849
:1003A00048303A4141217A3A42402078009DA0A04D
:1003B0007D3D4242423D3D4040403D3C24FF24249F
:1003C000487E4943662B2FFC2F2BFF0929F620C0BE
:1003D000887E090320545479410000447D4130480F
:1003E000484A32384040227A007A0A0A727D0D1952
:1003F000317D2629292F28262929292630484D40B4
:1004000020380808080808080808382F10C8ACBAAF
:100410002F102834FA00007B000008142A1422222E
:10042000142A14085500550055AA55AA55AAFF5577
:10043000FF55FF000000FF00101010FF00141414FF
:10044000FF001010FF00FF1010F010F0141414FC47
:10045000001414F700FF0000FF00FF1414F404FC64
:10046000141417101F10101F101F1414141F001045
:100470001010F0000000001F101010101F101010BE
:1004800010F010000000FF101010101010101010CD
:10049000FF10000000FF140000FF00FF00001F100D
:1004A000170000FC04F414141710171414F404F4C7
:1004B0000000FF00F714141414141414F700F714B8
:1004C0001414171410101F101F141414F414101007
:1004D000F010F000001F101F0000001F14000000AB
:1004E000FC140000F010F01010FF10FF141414FFA3
:1004F000141010101F00000000F010FFFFFFFFFF9E
:10050000F0F0F0F0F0FFFFFF0000000000FFFF0F31
:100510000F0F0F0F3844443844FC4A4A4A347E02D5
:10052000020606027E027E02635549416338444456
:100530003C04407E201E2006027E020299A5E7A50B
:10054000991C2A492A1C4C7201724C304A4D4D307C
:100550003048784830BC625A463D3E494949007EA1
:100560000101017E2A2A2A2A2A44445F4444405138
:100570004A444040444A51400000FF0103E080FFEC
:10058000000008086B6B083612362436060F090F78
:1005900006000018180000001010003040FF010194
:1005A000001F01011E00191D1712003C3C3C3C00BD
:1005B00000000000000000000500010000020D0620
:1005C00002F4040005040601F407000A0C0A00F511
:1005D000160009100A01F32800100D1001F4420062
:1005E0000B0D0C01F4540002040401F45500041135
:1005F0000601F45E0004110601F467000505070119
:10060000F46B0006080B03F9710002040502007286
:100610000004010601FC73000201050100740005DD
:100620000D0500F47D00080D0A01F48A00040D0A8E
:1006300003F49100090D0A01F4A000080D0A01F469
:10064000AD00070D0A02F4B900090D0A01F4C80053
:10065000090D0A01F4D700080D0A00F4E400090DA1
:100660000A01F4F300080D0A01F40001020A050171
:10067000F70301030C0501F8080109090B01F81340
:100680000109040B01FB180109090B01F8230109F9
:100690000D0A01F4320111101201F454010C0D0C79
:1006A00000F468010B0D0C01F47A010B0D0D01F43F
:1006B0008C010B0D0D01F49E01090D0B01F4AD0130
:1006C000080D0B01F4BA010C0D0E01F4CE010B0D57
:1006D0000D01F4E001020D0502F4E401070D0A0129
:1006E000F4F0010B0D0C01F40202080D0A01F40FE5
:1006F000020D0D0F01F425020B0D0D01F437020D53
:100700000D0E01F44D020A0D0C01F45E020D0E0EE9
:1007100001F475020C0D0D01F489020A0D0C01F4AF
:100720009A02090D0B01F4A9020B0D0D01F4BB0295
:100730000B0D0C00F4CD02110D1100F4E9020C0DAB
:100740000C00F4FD020C0D0C00F411030A0D0B015A
:10075000F4220303110501F42903050D0500F43209
:100760000303110500F4390307070801F440030AE5
:10077000010A0003420304030500F44403090A0AC2
:1007800001F75003090D0A01F45F03080A0901F794
:100790006903080D0A01F47603080A0A01F78003C9
:1007A000040D0501F48703080E0A01F79503080DEF
:1007B0000A01F4A203020D0401F4A60304110400CB
:1007C000F4AF03090D0901F4BE03020D0401F4C2E4
:1007D000030D0A0F01F7D303080A0A01F7DD030826
:1007E0000A0A01F7E703090D0A01F7F603080D0AE3
:1007F00001F70304050A0601F70A04080A0901F7CC
:100800001404040C0501F51A04080A0A01F724046B
:10081000090A0900F730040D0A0D00F74104080A1F
:100820000900F74B04090E0900F75B04070A0901E8
:10083000F7640404110601F46D0402110402F47259
:100840000404110601F47B0407030901F9FFFFF812
:10085000C0DEF72009864191FF1304C320C8FF8939
:10086000826190101F14DA3D1E8340781708F47AD5
:100870003533F040203810EC20C620C640C6406C0E
:10088000803900013C0277026304630477083C0E60
:100890000660CC1981E0180F0336C2D8730631E325
:1008A000C4FE13266CCCCCC46623108C4663333351
:1008B00032664C80257EA50030C33F30C30CD6F095
:1008C000C00844211084421108003C6642C3C3C3DF
:1008D000C3C3C3C342663C113F33333333303E316D
:1008E000B07830181C1C1C1818100807F83C66C398
:1008F000C303061C0703C3C3663C0C187162C9A37B
:1009000046FE183060C07F2010080807F38C0301F2
:1009100080F06C63E01E3198780C06F38D83C1E0A3
:10092000D06C63E0FF030206040C0818181810309E
:10093000303E31B0783C1B18F8C6C1E0F06C63E083
:100940003C66C2C3C3C3673B0303C2663CC00030FE
:10095000C0000064A00081C78E0C0780700E01806B
:10096000FF80001FF000700E01C0183871C08000B9
:100970003E31B0783018183818180C000001800388
:10098000F0060E06018600661DBB31CF18C79863BE
:10099000CC31E611B399CCF7860001800070400F8E
:1009A000E00600F00F009019819810830C3FC204FC
:1009B000606606C030FF183303606C0D833FC606C7
:1009C000C0780F01E06FF81F861981A03C018030CC
:1009D0000600C0680D831861F0FF183303603C0700
:1009E00080F01E03C0780F0360CFF0FFE030180CDA
:1009F0000603FD80C06030180FF8FFC0C0C0C0C043
:100A0000FEC0C0C0C0C0C00F830E606603C00C0033
:100A1000C1FC03C0360360730F0F10C0780F01E0F4
:100A20003C0780FFFE03C0780F01E03C06FFFFFF9C
:100A3000C0060C183060C183078F1E2780C0D833D2
:100A40000C630CC1B83F0730C3186306606C0CC060
:100A5000C0C0C0C0C0C0C0C0C0C0C0FFE03F01FC3B
:100A60001FE0FD05EC6F637913CD9E6CF1478E3C62
:100A70007180E07C0FC1E83D8798F11E33C3786F29
:100A800007E07C0E0F8183180CC06C01E00F00782A
:100A900003C01B01980C60C0F800FF306C0F03C04E
:100AA000F06FF300C0300C0300C0000F8183180CFE
:100AB000C06C01E00F007803C01B01986C60C0FBA4
:100AC0000008FF8C0EC06C06C06C0CFF8C0EC06C56
:100AD00006C06C06C0703F186C0F03C01E01F00EFC
:100AE00000F03C0D863F00FF86030180C060301897
:100AF0000C06030180C0C0780F01E03C0780F01EA7
:100B000003C0780F01B061F0C06C0D8110630C61FF
:100B10000460CC1901603C070060C18130E198702D
:100B2000CC286626211330C8986C4C14340A1A0756
:100B300007030380818060630C30C1980F00E006DA
:100B400000F019019830C60E6060C0360630C30C44
:100B50001981D80F00600600600600600600FFC023
:100B600060300C060301C0603018060300FFC0FBB4
:100B70006DB6DB6DB6E0841084108410841080EDB7
:100B8000B6DB6DB6DBE03060A244D8A180FFC0C602
:100B9000307E71B0C060F3DB0D86C73DC0C06030F1
:100BA0001BCE360F0783C1E0F07C6DE03C66C3C00E
:100BB000C0C0C0C3663C0303033B67C3C3C3C3C316
:100BC000C3673B3C66C3C3FFC0C0C3663C366F66A9
:100BD000666666603B67C3C3C3C3C3C3673B0303A7
:100BE000C67CC0C0C0DEE3C3C3C3C3C3C3C3C3C3E7
:100BF000FFFFC03003333333333333E0C06030188A
:100C00004C466361F0EC6231986C30FFFFFFC0DE50
:100C1000F71CF0C7863C31E18F0C7863C31E18C007
:100C2000DEE3C3C3C3C3C3C3C3C33C66C3C3C3C33D
:100C3000C3C3663CDE71B0783C1E0F0783E36F30A0
:100C4000180C003B67C3C3C3C3C3C3673B030303A1
:100C5000DF318C6318C6003EE3C0C0E03C07C3E34D
:100C60007E66F666666667C3C3C3C3C3C3C3C3C732
:100C70007BC1A098CC4221B0D0281C0C00C61E38E5
:100C800091C4CA66D316D0A6871C38C0C60043627A
:100C9000361C181C3C266243C12198CC4261B0D05E
:100CA000381C0C0603010300FE0C30C1861820C15D
:100CB000FC3666666ECE66666630FFFFFFFFC0C616
:100CC00066666737666666C0612438000000000506
:100CD00000010000030D0602F4050007050901F4F8
:100CE0000A000A0C0A00F51900090F0A01F32A008C
:100CF000100D1000F444000C0D0D01F45800030514
:100D00000501F45A0006110601F4670006110600F9
:100D1000F4740005060701F4780007080B02F97F58
:100D20000003050401FF810005020600FB830003A8
:100D3000020401FF8400050D0500F48D00090D0A71
:100D400001F49C00050D0A02F4A500090D0A01F446
:100D5000B400080D0A01F4C100080D0A02F4CE0027
:100D6000090D0A01F4DD00090D0A01F4EC00090D7A
:100D70000A00F4FB000A0D0A00F40C01090D0A0137
:100D8000F41B0103090401F81F01030C0401F824FA
:100D90000109090B01F82F0109060B01FA360109B7
:100DA000090B01F84101090D0B01F45001100F125C
:100DB00000F46E010C0D0D00F482010B0D0D01F419
:100DC00094010C0D0D01F4A8010C0D0D01F4BC01F2
:100DD000090D0C01F4CB01090D0B01F4DA010B0D27
:100DE0000E01F4EC010B0D0D01F4FE01030D0601E3
:100DF000F40302080D0A01F410020C0D0D01F42495
:100E000002080D0B01F431020E0D1001F448020B23
:100E10000D0E01F45A020D0D0E01F470020B0D0CB3
:100E200001F482020D0E0E01F499020C0D0D01F475
:100E3000AD020B0D0C01F4BF02090D0C02F4CE0241
:100E40000B0D0D01F4E0020C0D0C00F4F402110D79
:100E50001100F410030C0D0C00F424030B0D0C0115
:100E6000F43603090D0B01F4450304110601F44E99
:100E700003050D0500F4570304110600F460030890
:100E8000080B01F468030A010A00046A030302055F
:100E900000F46B030A0A0A01F778030A0D0B01F448
:100EA0008903090A0A01F79503090D0B01F4A4034C
:100EB000090A0A01F7B003050D0601F4B903090E8A
:100EC0000B01F7C903090D0B01F4D803030D05014C
:100ED000F4DD0304110500F4E603090D0A01F4F53D
:100EE00003030D0501F4FA030E0A1001F70C0409BF
:100EF0000A0B01F718040A0A0B01F725040A0E0B66
:100F000001F73704090E0B01F74704060A0701F73A
:100F10004F04090A0A01F75B04050C0601F5630496
:100F2000090A0B01F76F040A0A0A00F77C040E0A8B
:100F30000E00F78E040A0A0A00F79B040A0E0A0044
:100F4000F7AD04080A0901F7B70404110701F4C05A
:100F50000401110502F4C30404110702F4CC0408CF
:100F6000020900FCFFFFFE487EEFDFBF74401986D8
:100F700067FDFF330CC333FEFF99866190101F1F7E
:100F8000DEFF3F83C0FC1F09FCFEF7F1E040381094
:100F90007C30C620C640C6407C80399C013E03633D
:100FA000026304630C3E081C0E01F83B83B83F014A
:100FB000E03E6776E3EE1CF3C7FE3F70FFF4186374
:100FC0001C738E38E38E1870C3060861830E387167
:100FD000C71C71C638E31840213E45283870E7FF2A
:100FE000E70E1CFC9CFFC0FC08C42310846211881F
:100FF000003E3F9DDC7E3F1F8FC7E3F1DDCFE3E086
:1010000008FFF39CE739CE73803E3FB8FC70381C74
:101010001C1C1C1C1C0FF7F83C7FE7E7070C0E0795
:1010200007E7E77E3C0E1E1E2E2E4E4E8EFFFF0E55
:101030000E0E7F3F90180DE7FB9E070381F1FFE73F
:10104000C03E3F9CFC0EE7FBDFC7E3F1DDEFE3E0D2
:10105000FFFFC0E0E0607030381C0C0E0703803FDB
:101060001FEE3F87E3CFC7FBCFE1F87F3DFE3F0098
:101070003E3FBDDC7E3F1FDEFF3B81F9CFE3C0FC7E
:101080000007E0FC0007E5E00083C7DF0C0780F8FD
:101090001F0180FFFFC0000FFFFC00703F03E0381E
:1010A0007DF1E080003E3FB8FC70381C1C1C1C0E1B
:1010B000000381C003F00FFC1E0E380270E96319B3
:1010C000C219C611C633C63263FE73DC3C001FF87A
:1010D00007F00700F00F80F81D819C19C38C3FE7D3
:1010E000FE706607E070FF9FFB83F07E0FFF3FF707
:1010F00006E0FC1F83FFEFF81F83FE78E707E00E92
:1011000000E00E00E0070778F3FE1F80FF8FFCE091
:10111000EE0EE07E07E07E07E07E0EE0EFFCFF8053
:10112000FFFFF81C0E07FBFDC0E070381FFFF8FF43
:10113000FFF81C0E07FBFDC0E070381C0E000F8787
:10114000F9E3B83E01C038FF1FE06E0DE39FD0F217
:10115000E0FC1F83F07E0FFFFFFF07E0FC1F83F022
:101160007E0EFFFFFFFFFE0707070707070707E7DA
:10117000E7E77E3CE0EE1CE38E70EE0FC0FE0F70E2
:10118000E70E38E1CE0EE0E0E0E0E0E0E0E0E0E0B5
:10119000E0E0E0FFFFF87FE1FF87FE1FEC7FB37E1A
:1011A000CDFB37ECDF9E7E79F9E7E79CE0FE1FC3BD
:1011B000FC7FCFD9FBBF37E7FC7F87F0FE0E0F81A6
:1011C000FF1E3CE0EE03F01F80FC07E03B839E3CEB
:1011D0007FC0F800FF9FFB87F07E0FC3FFF7FCE0A6
:1011E0001C0380700E000F81FF1E3CE0EE03F01F19
:1011F00080FC07E1BB8F9E3C7FE0FB8008FF8FFCFB
:10120000E0EE0EE0EE0EFFCFFCE0EE0EE0EE0EE0C4
:10121000F03F0FFBC7F07E01FC1FF03F00FC1DC735
:10122000BFE1F8FFFFC70381C0E070381C0E070361
:1012300081C0E0FC1F83F07E0FC1F83F07E0FC1F78
:10124000C7BFE1F060670E70E30C30C39C19819852
:101250001F80F00F00F0060061C3B8E19C70CE3C27
:10126000E336719B30ED98367C1B3C0F1E078F01D7
:10127000C380E18070E78E39C1F81F80F00700F06D
:101280001F819C39C70E70E0E0FC39C718C3B8361F
:1012900007C0700E01C0380700E0FFFFC0E0E0F0BB
:1012A0007070707838381FFFF8FFEEEEEEEEEEEE5D
:1012B000EFF0861086108430843080FF7777777760
:1012C00077777FF0181C3C3E366663C3FFC0CC3F87
:1012D0001FEE380E3F9EEE3B9EFF9EE0E0380E0371
:1012E000BCFFBCEE1F87E1F87F3BFEEF001F3FDC39
:1012F0007C0E070380E37F8F000381C0E777FBBF8D
:101300008FC7E3F1FDEFF3B83E3F9CDC3FFFFF8169
:10131000C37F8F003BDDFFB9CE739CE7003BBFDD91
:10132000FC7E3F1F8FEF7F9DC0FC77F1F0E07038AF
:101330001DEFFF9F8FC7E3F1F8FC7E38FC7FFFFFB6
:10134000FE770777777777777FE0E070381C7E77D6
:1013500073F1F8FE7739DC6E38FFFFFFFFFEEF7B9D
:10136000FFFE39F8E7E39F8E7E39F8E7E39F8E7042
:10137000EF7FF8FC7E3F1F8FC7E3F1C01E1FE73BE6
:1013800087E1F87E1DCE7F8780EF3FEF3B87E1F856
:101390007E1FCEFFBBCE0380E038003BBFFDFC7E4E
:1013A0003F1F8FEF7F9DC0E070381CEFFF38E38E4A
:1013B00038E3803E3FB8FC0FC3FC3FC7FF1F0073FC
:1013C000BFF739CE739E70E3F1F8FC7E3F1F8FC7E5
:1013D000FFBDC0E1986739CC330DC3E0781E07002C
:1013E000E31D9E667999E677B8D2C3CF0F3C3CF0F7
:1013F0007380739CE3F0781E0781E0FC739CE0E14E
:10140000D86739CE330EC3E0781E0300C070380EA3
:1014100000FEFE0E1C383870E0FFFF3766666EE691
:1014200066666730FFFF80CE6666677666666EC06A
:10143000718E00000100FF00320001000001020077
:101440000007030030100400000008000202090039
:1014500000000A0000000C0000000D0000000F005A
:10146000000010000000110007001200000013002F
:101470000000FF00C8001000901611002702FF00B6
:10148000320012001A00FF00320013000018290079
:101490002A00FF003200300000003100000032005E
:1014A0000000350006023600080837000700380043
:1014B0000102390000003C0000003D000000200057
:1014C000000021000000500000005100EF00520019
:1014D000000053003F01600000A7610003006A00A4
:1014E000000090001000920000009300030095009F
:1014F00000119700000098000000070033014D081C
:10150000B405207E1644434320436F6E74726F6CA3
:101510006C6564205475726E7461626C6500640F52
:10152000CB0C207E1600000000250028002B0000B8
:10153000000000240027002A0000000000230026ED
:101540000029000404040404040404020202020248
:101550000203030303030301020408102040800177
:1015600002040810200102040810200000000800F6
:10157000020100000304070000000000000000005A
:10158000912C562811241FBECFEFD8E0DEBFCDBF6F
:1015900025E0A2EFB1E001C01D92A83DB207E1F73E
:1015A00011E0A0E0B1E0EAE9FAE602C005900D9290
:1015B000A23FB107D9F71AE0C1ECDAE004C02197E5
:1015C000FE010E942533C03CD107C9F70E9465285F
:1015D0000C9440350C940000FC016370658B848191
:1015E000958126813781613039F0633029F0918708
:1015F0008087338722870895318720879387828762
:1016000008952F923F924F925F926F927F928F92A6
:101610009F92AF92BF92CF92DF92EF92FF920F9381
:101620001F93CF93DF93CDB7DEB76C970FB6F894C7
:10163000DEBF0FBECDBF9C8F8B8F1B012A01188789
:101640000F83FE82ED82CA82DC0158964D915C9137
:1016500059974115510509F0B2C018968D919C918A
:101660001997681779070CF096C11A968D919C917D
:101670001B97481659060CF08EC1AC2CB12CCB012F
:10168000B6E0CB9E800D911D1124181619060CF0A2
:1016900082C1C50133E0880F991F3A95E1F7840DA7
:1016A000951D181619060CF076C1AB8DBC8D57969A
:1016B0008C91811103C0203B08F02F5FAB8DBC8D56
:1016C000ED91FC9111970680F781E02DCD012A8FD5
:1016D00009952A8DB5E02B9F9001112461014101EC
:1016E0001B82F901E219F309FA87E9879201285F61
:1016F0003F4F3C872B873B81353049F0E985FA85A0
:10170000E80DF91DEC54FF4F4491498301C0198243
:1017100032011201598150FF13C0AB8DBC8DED9188
:10172000FC91BA81B13031F40084F185E02D2F8134
:10173000388519C00284F385E02DEF80F8841EC03F
:10174000ED81FE812F813885E217F307F1F0AB8D33
:10175000BC8DED91FC91BA81B13059F40084F185D2
:10176000E02D2D813E81A301B4018B8D9C8D0995C7
:101770000CC00284F385E02DED80FE80850195018B
:10178000A101B6018B8D9C8D0995E981E695E983D0
:10179000FFEF6F1A7F0A2A0C3B1C2B853C856216D3
:1017A000730609F0B7CF3B813F5F3B834FEF841A4D
:1017B000940ACA0CDB1C363009F09DCFCAC0FA016E
:1017C00034969491329765917491291BCB01B7E0BF
:1017D0002B9F800D911D1124FA01259134913A8B94
:1017E000298BFC0165907490FC01329634913D8305
:1017F000319644914B873296C490319614915A8118
:10180000523058F08C2C0C2C000C9908812F012E92
:10181000000C990B9C838B8304C01C821B82812C3F
:10182000912CAB8DBC8DED91FC9111970680F781C9
:10183000E02DCD010995BA81AB2EB12C8A9CC00157
:101840008B9C900D9A9C900D1124FC01E20DF31DD0
:10185000F88BEF871982912C812CEC2DCC0CFF0B8F
:1018600091012E0F3F1F3A87298761013D81C30EE9
:10187000D11CA6014E0F5F1F5F8B4E8BC201810FE3
:10188000911D17FD9A95998F888F5B85851608F0B5
:1018900060C0882D90E04B815C81480F591F4A9DA4
:1018A00090014B9D300D5A9D300D1124D901A40D8E
:1018B000B51DBE87AD87C984DA842F843888B98185
:1018C000E985BE1BBB8B288D398D280F391F3D8BB9
:1018D0002C8B8B898C0D2E893F89C216D30699F1EA
:1018E000877041F4C3010196E989FA89E60DF71D75
:1018F00094903C0197FE20C0AB8DBC8DED91FC9186
:10190000BA81B13061F40084F185E02D2F813885F2
:101910004C895D89B6018B8D9C8D09950DC0028423
:10192000F385E02DEF80F884850195014D855E8576
:10193000B1018B8D9C8D0995990CEFEFCE1ADE0AC3
:101940002A0C3B1CC6CF39814D81340F39838394D7
:101950009CCFAB8DBC8DED91FC9111970288F389E2
:10196000E02DCD016C960FB6F894DEBF0FBECDBF53
:10197000DF91CF911F910F91FF90EF90DF90CF906B
:10198000BF90AF909F908F907F906F905F904F909F
:101990003F902F9009946C960FB6F894DEBF0FBE5F
:1019A000CDBFDF91CF911F910F91FF90EF90DF900E
:1019B000CF90BF90AF909F908F907F906F905F90EF
:1019C0004F903F902F900895AF92BF92CF92EF9299
:1019D000FF920F931F93CF93DF93EC01262F888DF7
:1019E000998D009709F042C06A3069F42C898E8580
:1019F0009F8538E0239F800D911D11249F878E873E
:101A00001D861C86ACC06D3009F4A9C08E89882360
:101A1000C1F03C898C859D8546E0349F800D911DE9
:101A2000112448855985841795075CF01D861C860E
:101A30008E859F85E8E03E9F800D911D11249F8734
:101A40008E87EA88FB88088919894E855F856C85B1
:101A50007D85CC88CE010E94010B2C898C859D85CB
:101A6000F6E02F9F800D911D112441C06A3079F45A
:101A70001D861C862C89FC013696E4918E859F85F7
:101A80002E9F800D911D11249F878E8768C06D3019
:101A900009F465C0AC014C5F5F4FFA0134916317E4
:101AA00008F45DC03196E491E61708F458C0FA01D5
:101AB0004491362F341BFC013296A590B490F7E088
:101AC0003F9FA00CB11C1124F50132963491319640
:101AD000E491332311F0E1110DC0F5013496E49146
:101AE0002C898C859D85E29F800D911D11249D87F9
:101AF0008C8735C0F501359644915E89552311F1E7
:101B00006C89E32FF0E0E40FF11D47FDFA956E9F1D
:101B1000D0016F9FB00D11244C855D854A0F5B1F6E
:101B2000E885F9854E175F076CF01D861C86FC0161
:101B30003696E4918E859F856E9F800D911D1124B0
:101B40009F878E87EA88FB88088919894E855F857B
:101B50006C857D85CC88CE010E94010BBECF81E0D3
:101B600090E0DF91CF911F910F91FF90EF90CF9078
:101B7000BF90AF9008956F927F928F929F92AF9295
:101B8000BF92CF92DF92EF92FF920F931F93CF936A
:101B9000DF93EC014B015A0169013801E881F981B9
:101BA0000680F781E02D0995E881F9810684F785A3
:101BB000E02D87019601A501B401CE010995E881C8
:101BC000F981A501460D571D415051090684F7853D
:101BD000E02D9601B401CE010995E881F9810484D4
:101BE000F585E02D9301A501B401CE010995E881A9
:101BF000F981C80CD91CB601615071090484F585BE
:101C0000E02D9301A501CE010995E881F9810288B3
:101C1000F389E02DCE01DF91CF911F910F91FF90BD
:101C2000EF90DF90CF90BF90AF909F908F907F907C
:101C30006F900994CF92DF92EF92FF920F931F93D0
:101C4000CF93DF9300D000D000D0CDB7DEB76C01CA
:101C5000DC01ED91FC916217730789F404171507F5
:101C60002CF4942F852FA801092F182F041B150B76
:101C700098012F5F3F4F008CF18DE02D12C040176F
:101C8000510709F5261737072CF4962F872FB9012E
:101C9000292F382F261B370B2F5F3F4F028CF38DD8
:101CA000E02D8701C601099526960FB6F894DEBF90
:101CB0000FBECDBFDF91CF911F910F91FF90EF909D
:101CC000DF90CF9008950680F781E02D2D833E832D
:101CD0004B835C8369837A830995D601ED91FC91EE
:101CE0000088F189E02D2D813E814B815C816981E5
:101CF0007A81C6010995D601ED91FC910288F3899C
:101D0000E02DC60126960FB6F894DEBF0FBECDBFFC
:101D1000DF91CF911F910F91FF90EF90DF90CF90C7
:101D20000994EF92FF920F931F93DC01ED91FC91C8
:101D300011971A960D911C911B9718962D913C9115
:101D40001997048CF58DE02D7B0140E050E060E0B8
:101D500070E009951F910F91FF90EF9008954F92B9
:101D60005F926F927F928F929F92AF92BF92CF922B
:101D7000DF92EF92FF920F931F93CF93DF9300D0E8
:101D8000CDB7DEB76C015A0139014801DC01ED9194
:101D9000FC910680F781E02D69837A83099569813A
:101DA000462E7A81572E640C751CD601ED91FC915C
:101DB000461457046CF40484F585E02D87019401E2
:101DC000A501B201C6010995BFEF4B1A5B0AEDCF21
:101DD0000288F389E02DC6010F900F90DF91CF911B
:101DE0001F910F91FF90EF90DF90CF90BF90AF9039
:101DF0009F908F907F906F905F904F900994AF92DB
:101E0000BF92CF92DF92EF92FF920F931F93CF93E7
:101E1000DF9300D000D0CDB7DEB75C016901DC01F3
:101E2000ED91FC910680F781E02D4B835C83698303
:101E30007A830995D501ED91FC9169817A819B01A5
:101E40002C0D3D1D215031090088F189E02D7801CC
:101E50004B815C818A01C5010995D501ED91FC9109
:101E60000288F389E02DC5010F900F900F900F901D
:101E7000DF91CF911F910F91FF90EF90DF90CF9066
:101E8000BF90AF900994AF92BF92CF92DF92EF9242
:101E9000FF920F931F93CF93DF9300D000D0CDB765
:101EA000DEB75C016901DC01ED91FC910680F781F0
:101EB000E02D4B835C8369837A830995D501ED918D
:101EC000FC914B815C81C40ED51EB1E0CB1AD108C8
:101ED0000088F189E02D7801860169817A819B0172
:101EE000C5010995D501ED91FC910288F389E02D9A
:101EF000C5010F900F900F900F90DF91CF911F9120
:101F00000F91FF90EF90DF90CF90BF90AF9009942A
:101F10000895EF92FF920F931F93DC01ED91FC91D6
:101F2000048CF58DE02D09951F910F91FF90EF9096
:101F300008950F931F93DC01ED91FC91028CF38DBA
:101F4000E02D09951F910F9108950F931F93DC01C8
:101F5000ED91FC91008CF18DE02D09951F910F9171
:101F60000895DC01ED91FC910480F581E02D099448
:101F700008952F923F924F925F926F927F928F922D
:101F80009F92AF92BF92CF92DF92EF92FF920F9308
:101F90001F93CF93DF9300D01F92CDB7DEB74C01D4
:101FA0007B836A836A01590117019801241B350B51
:101FB00037FF03C0319521953109C5014A815B8105
:101FC000841B950B97FF03C091958195910951E072
:101FD00059838217930714F019820BC09A2D8B2D09
:101FE0005801092F182F9A818B81DB82CA82C92E52
:101FF000D82E8A819B81A816B9065CF49C2D8D2D64
:102000006801092F182F9A818B81BB82AA82A92E81
:10201000B82E2501AA81BB814A1A5B0A38016C18C7
:102020007D0877FE03C0719461947108720157FEB8
:1020300003C0BFEFEB1AFB0AF594E794C016D10674
:102040001CF00FEF1FEF1FC001E010E01CC0D40117
:10205000ED91FC91B9810084F185E02D9101BB23C4
:10206000C1F04A815B81B601C4010995E618F70801
:10207000F7FE04C0C00ED11EE40CF51CEA81FB8102
:102080003196FB83EA834A815B81A416B506FCF690
:1020900004C0A6016A817B81E7CF0F900F900F905B
:1020A000DF91CF911F910F91FF90EF90DF90CF9034
:1020B000BF90AF909F908F907F906F905F904F9068
:1020C0003F902F900895CF93DF93EC0120E030E014
:1020D000A9016F85788989899A890E9447321816E3
:1020E0001CF4EBA1FCA102C0EDA1FEA1DF91CF91F8
:1020F0000994DC0112962C91213069F028F02230ED
:1021000089F02430B1F00895DC01ED91FC9102805A
:10211000F381E02D0994DC01ED91FC910480F581BF
:10212000E02D0DC0DC01ED91FC910680F781E02DE2
:1021300006C0DC01ED91FC910084F185E02D09944D
:1021400085ED8093BC008091BC0084FDFCCF109293
:10215000E802089540917C02262F30E0240F311DC3
:1021600021323105DCF42091E8022430C9F4FC016D
:1021700080E090E0861758F430917C022191DC01D8
:10218000A65ABD4FA30FB11D2C930196F3CF80919A
:102190007C02680F60937C0280E0089581E00895DE
:1021A00082E0089508958FEF9FEF08958FEF9FEFDE
:1021B00008958091590290E0919581959109089533
:1021C000CF92DF92EF92FF920F931F93CF93DF9303
:1021D0007C01262F972F8A018091E902882391F0B4
:1021E000C62FD72F6E01C40ED51ECC15DD0571F09C
:1021F0006991D701ED91FC910190F081E02DC7012B
:102200000995F3CF642F822F0E94AA10C801DF9195
:10221000CF911F910F91FF90EF90DF90CF90089595
:10222000CF93DF931F92CDB7DEB769832091E90288
:102230002223D1F020910B03203240F021E030E046
:10224000FC013383228380E090E015C08091EA0294
:10225000E82FF0E0E551FD4F998190838F5F8093E7
:10226000EA0280930B0305C061E0CE0101960E9453
:10227000AA1081E090E00F90DF91CF910895CF9365
:10228000DF93EC01613089F050F06230E1F06330AF
:1022900061F561E08B810E94741F60E019C061E00C
:1022A0008B810E94741F60E005C060E08B810E94FA
:1022B000741F61E08C810E94741F61E08D810E9417
:1022C000741F60E00DC060E08B810E94741F61E0AC
:1022D0008C810E94741F60E08D810E94741F61E0F8
:1022E0008E81DF91CF910C94741FDF91CF9108956F
:1022F000CF93DF93EC01613049F030F0623061F050
:102300006330A1F460E009C060E001C061E08B814E
:102310000E94741F61E005C061E08B810E94741F00
:1023200060E08C81DF91CF910C94741FDF91CF918D
:1023300008951F93CF93DF93EC0111E020E030E08C
:10234000A9016F85788989899A890E944732181670
:102350000CF010E0612F8C810E94741F61E08B8172
:102360000E94741F60E08B81DF91CF911F910C94CC
:10237000741F8F929F92AF92BF92CF92DF92EF9293
:10238000FF920F931F93CF93DF93EC018B859C8576
:10239000AD85BE850F81188529853A85BC01CD01A3
:1023A000601B710B820B930B09F4D0C08AF00E9462
:1023B000F22E9B01AC010E9456302F89388D498D39
:1023C0005A8D0E94512F0E945A326B017C011BC012
:1023D00090958095709561957F4F8F4F9F4F0E948C
:1023E000F22E9B01AC010E9456302F89388D498D09
:1023F0005A8D0E94512F0E945A326B017C01F7FACC
:10240000F094F7F8F0948F849888A988BA88A50189
:102410009401C701B6010E94473218160CF043C060
:1024200020E030E0A901C501B4010E94EB2E81112A
:102430000BC06F89788D898D9A8D9B01AC010E94AC
:1024400056300E945A321BC0A50194016F89788DC5
:10245000898D9A8D0E9439316B017C0120E030E03A
:10246000A9010E944732181624F0F7FAF094F7F801
:10247000F094A7019601C501B4010E9456307B017A
:102480008C01BB88CC88DD88CE892B2D3C2D4D2D31
:102490005C2F0E94473218160CF05DC03B2D7C2D3E
:1024A0008D2D9C2F5FC0A5019401C701B6010E942C
:1024B000EB2E87FF54C020E030E0A901C501B40134
:1024C0000E94EB2E811111C06F89788D898D9A8DB4
:1024D0009B01AC010E9456300E945A326B017C0174
:1024E000F7FAF094F7F8F0941DC0A50194016F89F4
:1024F000788D898D9A8D0E9439316B017C0120E0A5
:1025000030E0A9010E944732181624F0F7FAF0943F
:10251000F7F8F094A7019601C501B4010E94553067
:102520006B017C018B889C88AD88BE88B7FAB0941B
:10253000B7F8B094A5019401C701B6010E94EB2E33
:1025400087FF0DC0382D792DC5010CC030E070E03B
:1025500080E090E007C03E2D7F2DC80103C03C2DD8
:102560007D2DC701C32ED72E7C01C701B601DF9197
:10257000CF911F910F91FF90EF90DF90CF90BF9080
:10258000AF909F908F9008953F924F925F926F927D
:102590007F928F929F92AF92BF92CF92DF92EF92F3
:1025A000FF920F931F93CF93DF93880F991F880F8C
:1025B000991FEC012397242F267030E0359527953D
:1025C000C20FD31F4170F42E66EAC62E62E0D62EEB
:1025D00000E010E0EE24E3947AE0372E0730110596
:1025E00009F4E5C0F601819191916F01C817D907EF
:1025F00009F0DAC0F092F8011093F7010093F601A8
:10260000E092F5014091F1045091F2046091F304DD
:102610007091F4048091ED049091EE04A091EF0488
:10262000B091F004481759076A077B0709F49AC06C
:102630008FB7F8948090300390903103A0903203CC
:10264000B09033038FBF4091010550910205609116
:102650000305709104058091050590910605A091F0
:102660000705B0910805840F951FA61FB71F881591
:102670009905AA05BB0508F075C04090F504509077
:10268000F6046090F7047090F80420E030E0A901AF
:10269000C301B2010E944732181664F48091ED0420
:1026A0009091EE04A091EF04B091F0040196A11D69
:1026B000B11D14C020E030E0A901C301B2010E94A5
:1026C000EB2E87FF13C08091ED049091EE04A09152
:1026D000EF04B091F0040197A109B1098093ED04D2
:1026E0009093EE04A093EF04B093F0046091ED0496
:1026F000637086EE94E00E947910809205059092B6
:102700000605A0920705B092080586EE94E00E94A7
:10271000B9119B01AC016093F5047093F6048093AA
:10272000F7049093F80460E070E08AE794E40E9474
:1027300039314B015C0120E030E0A9010E944732B1
:1027400018161CF4C501B40103C0C501B4019058AA
:102750000E94B231609301057093020580930305D6
:10276000909304058091F501882389F0E092F201AD
:102770008091F3019091F40197FF07C00A9790931D
:10278000F4018093F301309200011092F5018091E1
:10279000F3019091F40197FF03C01092010104C06E
:1027A000892B11F0E09201010F5F1F4F17CFDF91CE
:1027B000CF911F910F91FF90EF90DF90CF90BF903E
:1027C000AF909F908F907F906F905F904F903F90D1
:1027D000089562E080910D0590910E050C94B32749
:1027E00061E080910D0590910E050C94B3271F9226
:1027F0000F920FB60F9211240F900FBE0F901F90E3
:1028000018951F920F920FB60F9211242F933F939A
:102810004F935F936F937F938F939F93AF93BF93E8
:10282000EF93FF938091B900887F803609F49CC0B4
:1028300068F5883209F45BC090F4803109F454C023
:1028400038F4882309F4F6C0883009F44DC0F6C086
:10285000883109F44CC0803209F45DC0EFC0803487
:1028600009F468C048F4803309F455C0883309F08E
:10287000E5C08093E602D8C0803509F44FC08835A2
:1028800009F45DC0883409F0D9C0D6C0883909F48C
:10289000C7C0A8F4883709F467C038F4883609F44B
:1028A00063C0803709F460C0C9C0883809F4B8C073
:1028B000803909F45FC0803809F0C0C05BC0803B3C
:1028C00009F486C038F4803A09F466C0883A09F4FD
:1028D0007FC0B4C0803C09F4A7C0883C09F4A4C000
:1028E000883B09F48AC0AAC08091C30210C09091AD
:1028F000E5028091E402981770F5E091E50281E02D
:102900008E0F8093E502F0E0EC53FD4F80818093C1
:10291000BB0085EC86C08093E6028EC0E091E502A4
:1029200081E08E0F8093E5028091BB00F0E0EC53D4
:10293000FD4F80839091E5028091E4026EC0E091AA
:10294000E50281E08E0F8093E5028091BB00F0E00C
:10295000EC53FD4F80838091E70281116DC081E0CF
:102960008093C20284EA61C083E08093E8021092FF
:10297000A002CFCF8091A002803208F051C0E09138
:10298000A00281E08E0F8093A0028091BB00F0E056
:10299000E058FD4F8083BDCF85EC8093BC00109242
:1029A000E8028091A002803230F4E091A002F0E0D1
:1029B000E058FD4F10826091A00270E0E0917E022D
:1029C000F0917F0280E892E009951092A00236C053
:1029D00084E08093E80210927D0210927C02E091E4
:1029E0007A02F0917B02099580917C02811105C0E9
:1029F00081E080937C0210925A02E0917D0281E096
:102A00008E0F80937D02F0E0E65AFD4F8081809327
:102A1000BB0090917D0280917C02981708F479CFD9
:102A200085E88093BC000AC085EC8093BC001092BE
:102A3000E80204C01092E6020E94A010FF91EF91FC
:102A4000BF91AF919F918F917F916F915F914F91C6
:102A50003F912F910F900FBE0F901F901895CF921E
:102A6000DF92EF92FF920F931F93CF93DF937C013E
:102A7000FC01C480D5800BE415E0C0E0DFEFF80175
:102A8000848195818C159D0539F4B701C8010E9498
:102A90001F27892B09F4DC2FCF5F0A5F1F4FC0313E
:102AA00071F78D2F90E0DF91CF911F910F91FF90E3
:102AB000EF90DF90CF9008956F927F928F929F92C8
:102AC000AF92BF92CF92DF92EF92FF920F931F933C
:102AD000CF93DF935C017B016A018901FC01848053
:102AE00095808BE4682E85E0782ED0E0CFEFF3015F
:102AF000848195818815990539F4B501C3010E9437
:102B00001F27892B09F4CD2FDF5FF6E06F0E711CB4
:102B1000D03169F786E0C89FF0011124E750FE4FDD
:102B2000F182E082D382C28215830483DF91CF9148
:102B30001F910F91FF90EF90DF90CF90BF90AF90DB
:102B40009F908F907F906F900895BF92CF92DF9269
:102B5000EF92FF920F931F93CF93DF9300D000D09B
:102B6000CDB7DEB78C01B62EBA01550F880B990B85
:102B70000E94F22E2BED3FE049E450E40E94512FD9
:102B800020E030E044E353E40E9439310E943431C4
:102B90009B01AC01B801110F880B990B29833A8373
:102BA0004B835C830E94F22E6B017C016B2D70E0E5
:102BB00080E090E00E94F22E29813A814B815C8175
:102BC0000E94512F9B01AC01C701B6010E945630F3
:102BD0000E94AB31CB010F900F900F900F90DF91BF
:102BE000CF911F910F91FF90EF90DF90CF90BF900A
:102BF0000895BF92CF92DF92EF92FF920F931F93AF
:102C0000CF93DF9300D000D0CDB7DEB78C01B62EC6
:102C1000BA01550F880B990B0E94F22E2BED3FE065
:102C200049E450E40E94512F20E030E044E353E4B3
:102C30000E9439310E9434319B01AC01B801110F5F
:102C4000880B990B29833A834B835C830E94F22E75
:102C50006B017C016B2D70E080E090E00E94F22E11
:102C600029813A814B815C810E94512F9B01AC01EB
:102C7000C701B6010E9456300E94AB31CB010F90C4
:102C80000F900F900F90DF91CF911F910F91FF90B8
:102C9000EF90DF90CF90BF9008955F926F927F92F8
:102CA0008F929F92AF92BF92CF92DF92EF92FF925C
:102CB0000F931F93CF93DF934C015B01542E122F80
:102CC000C090AE05D12CAC01652DC6010E94F9154E
:102CD0003C01C091AD05D0E06996A401652DCE01FF
:102CE0000E94A5154C01A501612FC6010E94F9158E
:102CF0006C01A501612FCE010E94A515402F50E067
:102D00008C01040F151F480D591D9601B30181EB6D
:102D100095E00E941A0EDF91CF911F910F91FF90C5
:102D2000EF90DF90CF90BF90AF909F908F907F906B
:102D30006F905F9008952F923F924F925F926F92A3
:102D40007F928F929F92AF92BF92CF92DF92EF923B
:102D5000FF920F93CF93DF9300D000D0CDB7DEB7B3
:102D60008A5591092C01611107C01A821982212C00
:102D7000312C1C821B820CC080E098EF9A838983DF
:102D800090EE292E97E0392EE0E1F4E8FC83EB8306
:102D9000C201865A9F4F8936914020F08EE0482E1E
:102DA0005524539442012BE9821A2EEF920A6201B4
:102DB00087EBC80ED11C320193E0690E711C5201E1
:102DC000E1EBAE0EB11CEB80FC8000E024E444E4B7
:102DD000B601C4010E944D16EB80FC8001E024E4A2
:102DE00044E4B601C4010E944D16EB80FC8000E073
:102DF00024E444E4B501C3010E944D16EB80FC803D
:102E000001E024E444E4B501C3010E944D16EB80C7
:102E1000FC8000E024E444E4B301C4010E944D16A8
:102E2000EB80FC8024E444E4B501C6010E944D1609
:102E3000A10160E470E0C20188599E4F0E9475258F
:102E400049815A8160E470E0C2018C549F4F0F9019
:102E50000F900F900F90DF91CF910F91FF90EF9017
:102E6000DF90CF90BF90AF909F908F907F906F90AA
:102E70005F904F903F902F900C947525CF92DF92EA
:102E8000EF92FF920F931F93CF93DF936C017A0120
:102E90008B01C0E0D0E0CE15DF0589F0D8016D913F
:102EA0008D01D601ED91FC910190F081E02DC601DC
:102EB0000995892B11F47E0102C02196ECCFC70140
:102EC000DF91CF911F910F91FF90EF90DF90CF9006
:102ED00008958BE394E00E94011E21E0892B09F400
:102EE00020E0822F0895FC01118210821382128249
:102EF000158214826115710551F0FB0101900020CB
:102F0000E9F73197AF01461B570B0C944F270895F3
:102F10006115710579F0FB0101900020E9F7319707
:102F2000AF01461B570BDC01ED91FC910280F38150
:102F3000E02D099480E090E008951F920F920FB663
:102F40000F9211242F933F934F935F936F937F932F
:102F50008F939F93AF93BF93EF93FF938BE394E093
:102F60000E94C11EFF91EF91BF91AF919F918F91F0
:102F70007F916F915F914F913F912F910F900FBE75
:102F80000F901F9018951F920F920FB60F92112459
:102F90002F938F939F93EF93FF93E0914B04F091C6
:102FA0004C048081E0915104F091520482FD12C0E2
:102FB0009081809154048F5F8F7320915504821704
:102FC00051F0E0915404F0E0E55CFB4F958F809365
:102FD000540401C08081FF91EF919F918F912F91B7
:102FE0000F900FBE0F901F901895089510922F0309
:102FF0008091BB028336B8F540912B0350912C038E
:1030000060912D0370912E03409327035093280362
:103010006093290370932A03843081F058F483303D
:1030200011F5409323035093240360932503709379
:10303000260319C08650833050F015C040931F03FB
:103040005093200360932103709322030CC080915E
:103050001E03882341F040931A0350931B0360938F
:103060001C0370931D031092190310921803109201
:103070001703109216031092150310921403109266
:10308000130380E880931203F8948091110388233E
:1030900079F02091B4023091B50291E080E0409146
:1030A0000F03509110034217530721F090E002C024
:1030B00090E080E090930D0380930E031092B50290
:1030C0001092B4021092100310920F037894109291
:1030D000110380E798E19093D9048093D804089570
:1030E000F8948091B4029091B50220910F03309131
:1030F00010038217930711F4789408958091B40215
:103100009091B502821B930B029748F0789486EF5A
:1031100097E19093D9048093D80487E625C0209145
:10312000B6023091B7028091B8029091B9024091F5
:10313000B4025091B5025093100340930F0378945A
:10314000B9016453710941E06D30710580F040E0D0
:103150002A553109273B364250F086EF97E190938C
:10316000D9048093D80488E68093BB0208959C011B
:10317000245331092D30310530F08A559109873BB0
:10318000964268F0EACF442361F080910D0390915C
:103190000E03019690930E0380930D03089544232C
:1031A00091F0F8948091B8029091B9029093B7028F
:1031B0008093B60281E08093BA02789410920E0355
:1031C00010920D03089580910D0390910E030A97BC
:1031D000ACF380EF98E19093D9048093D8040895DC
:1031E000F8948091B4029091B50220910F03309130
:1031F00010038217930711F4789408958091B40214
:103200009091B502821B930B029748F0789486EF59
:1032100097E19093D9048093D80487E672C04091D7
:10322000B6025091B7022091B8023091B902809154
:10323000B4029091B5029093100380930F03789499
:10324000BA016453710991E06D30710570F090E03E
:103250004A555109473B564240F086EF97E190931B
:10326000D9048093D80488E64CC081E0A901445376
:1032700051094D30510530F080E02A553109273B86
:10328000364258F79813E9CF80911203882381F0D2
:10329000992341F0E0911303F0E0EC5EFC4F908144
:1032A000982B908390E095958795809312030895CD
:1032B0008091130321E0280F2093130330E830930B
:1032C00012039923A9F091E0909311038250843066
:1032D00038F485E899E19093D9048093D80408954F
:1032E00086EF97E19093D9048093D80489E609C0CA
:1032F000263048F086EF97E19093D9048093D80464
:103300008AE68093BB02089508951F93CF93DF93BD
:1033100090911503809114038927E0911303E43001
:1033200068F0909116038927E43041F090911703DB
:103330008927E53019F0909118038927F0E0ED5EB8
:10334000FC4F9081891741F086EF97E19093D90463
:103350008093D80484E6C3C02FB7F89480913003DB
:1033600090913103A0913203B09133032FBF80932A
:103370002B0390932C03A0932D03B0932E03109254
:103380001E0390911303933009F07DC01091150333
:1033900080911403111115C08F3F49F426EF37E1D6
:1033A0003093D9042093D8049093BB02A3C0811119
:1033B00008C086EF97E19093D9048093D80484E005
:1033C0008EC0982F907C9038D1F517FF38C0C12F50
:1033D000D0E0C095D095C077DD27CC0FDD1FCC0F96
:1033E000DD1F8F73C80FD11D0E94002721E0C81771
:1033F000D90709F020E020931E03211107C0CF3325
:10340000D10521F08091A302882389F080912F03B8
:1034100081110DC0E091A402F091A502309739F01E
:10342000412F477013FB662760F9CE01099586EF9F
:1034300097E19093D9048093D80487E050C087FF28
:1034400008C086EF97E19093D9048093D80485E66D
:1034500046C0107C103441F086EF97E19093D90478
:103460008093D80486E63BC091E020913B03821311
:1034700090E090931E0386EF97E19093D904809398
:10348000D80486E02CC0943069F590911403892FFC
:10349000807C803839F580911503282F25782130DC
:1034A00009F5C82FC670D0E0DC2FCC27807724E048
:1034B000829FC00DD11D11249F73C90FD11D0E9481
:1034C000002721E0C817D90709F020E020931E0348
:1034D00086EF97E19093D9048093D80488E0809395
:1034E000BB0208C086EF97E19093D9048093D8047B
:1034F0001092BB02DF91CF911F9108950E94A41FEB
:10350000A091BA024A2F50E02091BC023091BD0236
:10351000FB01E21BF30B9F01FA01EE0FFF1FEA54C0
:10352000FD4F318320836093BC027093BD02809372
:10353000BE029093BF022091B4023091B502240FD5
:10354000351F3093B5022093B40281E08A2780931F
:10355000BA020895CF92DF92EF92FF920F931F93DA
:1035600043984298FC01828D823069F0811109C034
:103570008BB18F728BB985B1807D85B94198419AA5
:1035800009C0833039F48BB18F728BB985B1807DDE
:103590008C6206C08BB18F728BB985B1807D8262DF
:1035A00085B94198419A429A8BB1E72FE07D8F729D
:1035B0008E2B8BB985B1F72FFF72807D8F2B85B94C
:1035C0004198419A8BB1A62FA07D8F728A2B8BB91F
:1035D00085B1B62FBF72807D8B2B85B94198419AFA
:1035E00089019A0101501109210931096801790104
:1035F00086E0F694E794D794C7948A95D1F7C601EC
:1036000076137AC00197A0F060E14198419A419801
:10361000419A4198419A4198419A4198419A4198DA
:10362000419A4198419A4198419A615071F7EACF85
:10363000202F2F73215028F04198419A4198419AA8
:10364000F9CF439A1F910F91FF90EF90DF90CF90A9
:1036500008956BB16F726E2B6BB965B1607D6F2B86
:1036600065B94198419A6BB16F726A2B6BB965B1BC
:10367000607D6B2B65B94198419A6BB16F726E2B6F
:103680006BB965B1607D6F2B65B94198419A6BB19B
:103690006F726A2B6BB965B1607D6B2B65B9419810
:1036A000419A6BB16F726E2B6BB965B1607D6F2BF8
:1036B00065B94198419A6BB16F726A2B6BB965B16C
:1036C000607D6B2B65B94198419A6BB16F726E2B1F
:1036D0006BB965B1607D6F2B65B94198419A6BB14B
:1036E0006F726A2B6BB965B1607D6B2B65B94198C0
:1036F000419A715009F0ADCF019710F070E1A9CF58
:10370000202F2F73215008F49CCF8BB18F728E2BFA
:103710008BB985B1807D8F2B85B94198419A8BB14A
:103720008F728A2B8BB985B1807D8B2B85B941989F
:10373000419AE8CFCF93DF93EC01439828853985F0
:103740002150310945E064E00E9404212A853B852F
:103750002150310949E068E0CE010E940421439ADA
:10376000DF91CF9108958F929F92AF92BF92CF92A7
:10377000DF92EF92FF920F931F93CF93DF93EC01B1
:103780007A01690143982A8D21115EC02D8922306A
:1037900089F0233021F1213081F52FEE30E0A901AD
:1037A000401B510B5B0149018E189F088601640183
:1037B0007B0113C02FEE30E0A9014C195D096901AE
:1037C000C61AD70A8FE391E09C01201B310B8C01B4
:1037D0000E191F09580146017901BA0110C02FE3E3
:1037E00031E0A9014C195D095901A61AB70A470130
:1037F00068018501B7017A0102C05A014B01AB0192
:1038000060E570E0CE010E943D21A60161E570E017
:10381000CE010E943D21A70162E570E0CE010E9429
:103820003D21A80163E570E0CE010E943D21A40185
:1038300060E270E0CE010E943D21A50161E270E0EE
:10384000CE010E943D2147C02130C1F49B0143E0DD
:1038500062E00E940421970147E066E0CE010E94E9
:103860000421960145E064E0CE010E940421980104
:1038700049E068E0CE010E9404212DC02250223090
:1038800050F5CB01770FAA0BBB0BDC0199278827DA
:10389000A601DD0C660B770B9A01AB01282B392BA7
:1038A0004A2B5B2B6AE2CE010E949B20C701FF0CD2
:1038B000AA0BBB0BDC0199278827A801110F660B07
:1038C000770B9A01AB01282B392B4A2B5B2B6BE230
:1038D000CE010E949B20439ADF91CF911F910F91BF
:1038E000FF90EF90DF90CF90BF90AF909F908F9020
:1038F0000895CF92DF92EF92FF920F931F93CF9391
:10390000DF93EC016801121613060CF04FC077FD2F
:103910004DC088859985681779070CF047C0EA85FE
:10392000FB854E175F070CF041C07A01E20EF31ED3
:1039300087010150110917FD39C057FF35C040E01C
:1039400050E00E171F0734F08F01015011097F015D
:10395000E41AF50A9B01CE010E94B31B9701FF0CEC
:10396000440B550BB601CE010E94AA1A8A8D811113
:1039700010C00A851B850150110928853985215001
:10398000310940E050E060E070E0CE010E94B31BDE
:103990000DC0CE01DF91CF911F910F91FF90EF905D
:1039A000DF90CF900C949A1B7901CBCFDF91CF9110
:1039B0001F910F91FF90EF90DF90CF900895CF92DD
:1039C000DF92EF92FF920F931F93CF93DF93EC015F
:1039D0006801121613060CF04EC057FD4CC08A85C4
:1039E0009B85481759070CF046C0E885F9856E1786
:1039F0007F070CF040C07B01E20EF31EC701019768
:103A000097FD39C077FF35C060E070E08E179F07E3
:103A10002CF0CF0101977F01E61AF70A8A019C0179
:103A2000CE010E94B31B9701FF0C440B550BB6014E
:103A3000CE010E94AA1A8A8D811110C00A851B85A9
:103A400001501109288539852150310940E050E0A5
:103A500060E070E0CE010E94B31B0DC0CE01DF918B
:103A6000CF911F910F91FF90EF90DF90CF900C942A
:103A70009A1B7901CBCFDF91CF911F910F91FF90CE
:103A8000EF90DF90CF900895FF920F931F93CF9305
:103A9000DF9300D0CDB7DEB7152FF32EFC010081E8
:103AA00081E08093E90200930C031092EA021092E5
:103AB0000B03F4E06F9FB00111246A5F7F4F8AED22
:103AC00094E02A8349830E9410114981842F912F09
:103AD0000E94AE27812F90E00E94AE272A81822F7C
:103AE0009F2D0E94AE278F2D90E00E94AE278091DF
:103AF0000B03813208F046C09091E8029111FCCF8F
:103B000092E09093E80291E09093E7029FEF909308
:103B1000E6021092E5028093E402ABEEB2E024EC00
:103B200032E0F9019E2F921B981718F49D91919302
:103B3000F9CF1092C3028091C302000F802B8093B3
:103B4000C3028091C202813061F41092C20280915E
:103B5000C3028093BB008091BC0083FDF8CF85EC4D
:103B600001C085EE8093BC008091E8028230E1F3D1
:103B70008091E6028F3F31F08091E602803211F0B1
:103B80008091E6021092EA0210920B031092E90271
:103B90000F900F90DF91CF911F910F91FF9008959B
:103BA0009A01CB96211540E1340728F020E030E05F
:103BB00040E050E102C040E050E00C94441DFC01A4
:103BC000918D828D981761F0828DDF01A80FB11D54
:103BD0005D968C91928D9F5F9F73928F90E0089578
:103BE0008FEF9FEF0895FC01918D828D981731F032
:103BF000828DE80FF11D858D90E008958FEF9FEF86
:103C00000895FC01918D228D892F90E0805C9F4F5B
:103C1000821B91098F739927089580E090E0892B8A
:103C200029F00E94691781110C94000008950895ED
:103C300042988BB1962F907D8F72892B8BB985B16D
:103C40006F72807D682B65B94198419A429A8BB119
:103C5000942F907D8F72892B8BB985B14F72807DA7
:103C6000482B45B94198419A08950E9422358F9278
:103C70009F92AF92BF92CF92DF92EF92FF920F93FB
:103C80001F93CF93DF93EC014701121613060CF03C
:103C90006BC0101611060CF067C0A885B9856A17AD
:103CA0007B070CF061C0CA84DB844C155D050CF009
:103CB0005BC05B01A20EB31EC501019797FD54C006
:103CC0007A01E00EF11EF7013197F7FD4DC077FF45
:103CD00049C060E070E057FD02C0780102C040E0DA
:103CE00050E08A179B072CF0CD0101975D01A61AC1
:103CF000B70AEC15FD052CF0F60131977601E41AB0
:103D0000F50A8F019C01CE010E94B31B9701D501DA
:103D10000E9402339B01AC01B401CE010E94AA1A99
:103D20008A8D811110C00A851B85015011092885D3
:103D300039852150310940E050E060E070E0CE016B
:103D40000E94B31B11C0CE01DF91CF911F910F9143
:103D5000FF90EF90DF90CF90BF90AF909F908F90AB
:103D60000C949A1B5901B7CFDF91CF911F910F91FE
:103D7000FF90EF90DF90CF90BF90AF909F908F908B
:103D80000895FC01848DDF01A80FB11DA35ABF4F18
:103D90002C91848D90E001968F739927848FA6894A
:103DA000B7892C93A089B1898C9180648C93938D71
:103DB000848D981306C00288F389E02D80818F7D61
:103DC00080830895EF92FF920F931F93CF93DF9319
:103DD000EC0181E0888F9B8D8C8D981305C0E8895C
:103DE000F989808185FD24C0F62E0B8D10E00F5FD0
:103DF0001F4F0F731127E02E8C8DE8120CC00FB6E9
:103E000007FCFACFE889F989808185FFF5CFCE01DB
:103E10000E94C11EF1CF8B8DFE01E80FF11DE35A08
:103E2000FF4FF0820B8FEA89FB898081806207C097
:103E3000EE89FF896083E889F989808180648083C5
:103E400081E090E0DF91CF911F910F91FF90EF9073
:103E50000895CF93DF93EC01888D8823C9F0EA8918
:103E6000FB89808185FD05C0A889B9898C9186FD73
:103E70000FC00FB607FCF5CF808185FFF2CFA88970
:103E8000B9898C9185FFEDCFCE010E94C11EE7CF8D
:103E9000DF91CF910895833081F028F4813099F03B
:103EA0008230A1F008958730A9F08830B9F08430CD
:103EB000D1F4809180008F7D03C0809180008F7746
:103EC00080938000089584B58F7702C084B58F7D7C
:103ED00084BD08958091B0008F7703C08091B000B9
:103EE0008F7D8093B00008951F93CF93DF93282F89
:103EF00030E0F901E559FA4E8491F901E95AFA4E98
:103F0000D491F901ED5BFA4EC491CC23C9F0162F80
:103F100081110E944B1FEC2FF0E0EE0FFF1FEB5DB5
:103F2000FA4EA591B4918FB7F894111105C09C91E8
:103F3000ED2FE095E92302C0EC91ED2BEC938FBFC0
:103F4000DF91CF911F9108953FB7F8948091350389
:103F500090913603A0913703B091380326B5A89B02
:103F600005C02F3F19F00196A11DB11D3FBFBA2F0B
:103F7000A92F982F8827820F911DA11DB11DBC016B
:103F8000CD0142E0660F771F881F991F4A95D1F730
:103F900008958F929F92AF92BF92CF92DF92EF924D
:103FA000FF926B017C010E94A41F4B015C01C114B4
:103FB000D104E104F104F1F00E94A41FDC01CB0163
:103FC00088199909AA09BB09883E9340A105B10542
:103FD00070F321E0C21AD108E108F10888EE880EDA
:103FE00083E0981EA11CB11CC114D104E104F104AA
:103FF00019F7DDCFFF90EF90DF90CF90BF90AF909B
:104000009F908F9008951F920F920FB60F921124D8
:104010002F933F938F939F93AF93BF9380913003E0
:1040200090913103A0913203B09133033091340366
:1040300023E0230F2D3720F40196A11DB11D05C0EB
:1040400026E8230F0296A11DB11D2093340380930F
:10405000300390933103A0933203B09333038091E4
:10406000350390913603A0913703B0913803019640
:10407000A11DB11D8093350390933603A0933703A0
:10408000B0933803BF91AF919F918F913F912F9142
:104090000F900FBE0F901F9018951F920F920FB6A2
:1040A0000F9211242F933F934F935F936F937F93BE
:1040B0008F939F93AF93BF93EF93FF93E09104018E
:1040C000F09105010995FF91EF91BF91AF919F91FB
:1040D0008F917F916F915F914F913F912F910F90B1
:1040E0000FBE0F901F9018951F920F920FB60F9250
:1040F00011242F933F934F935F936F937F938F93ED
:104100009F93AF93BF93EF93FF93E0910201F091E0
:1041100003010995FF91EF91BF91AF919F918F910D
:104120007F916F915F914F913F912F910F900FBEB3
:104130000F901F901895CF92DF92EF92FF924398C5
:1041400042988BB1962F907D8F72892B8BB985B158
:104150006F72807D682B65B94198419A429A83E2DB
:1041600090E0FC013197F1F77BB1C52EDD24EE2400
:10417000FF246C2D607D7F72762B7BB965B17C2D21
:104180007F72607D672B65B94198419AFC01319738
:10419000F1F77BB16A01EE24FF246C2D607D7F7204
:1041A000762B7BB965B17C2D7F72607D672B65B9FD
:1041B0004198419AFC013197F1F77BB1C32ED42E7F
:1041C000E52EFF246C2D607D7F72762B7BB965B167
:1041D0007C2D7F72607D672B65B94198419A01976C
:1041E000F1F78BB1922F907D8F72892B8BB985B1AE
:1041F0002F72807D282B25B94198419A439AFF90D0
:10420000EF90DF90CF90089542988BB1962F907DDC
:104210008F72892B8BB985B16F72807D682B65B9E0
:104220004198419A429A8BB1932F907D8F72892B3E
:104230008BB985B13F72807D382B35B94198419A51
:1042400042988BB1942F907D8F72892B8BB985B159
:104250004F72807D482B45B94198419A429A8BB163
:10426000922F907D8F72892B8BB985B12F72807DB3
:10427000282B25B94198419A089542988BB1972FE0
:10428000907D8F72892B8BB985B17F72807D782B61
:1042900075B94198419A8BB1962F907D8F72892B79
:1042A0008BB985B16F72807D682B65B94198419A51
:1042B000429A8BB1952F907D8F72892B8BB985B1E6
:1042C0005F72807D582B55B94198419A8BB1942FDC
:1042D000907D8F72892B8BB985B14F72807D482B71
:1042E00045B94198419A0895EF92FF920F931F9319
:1042F000CF93DF93EC010E94EC0A43988A8D8111E1
:1043000022C0ED89E150E33040F4F0E0EE0FFF1FF2
:10431000E55DFE4F4081518102C040E350E163E022
:1043200070E0CE010E943D210A851B8501501109D4
:10433000288539852150310940E050E060E070E087
:10434000CE010E94B31B8A8D813089F4ED89E15042
:10435000E33028F4F0E0E85DFE4F408101C040E02A
:1043600066E1CE010E94181ECE010E949A1B8A8D22
:10437000823039F58D89813071F050F0823029F02A
:10438000833059F458E2E52E08C068E4E62E05C0F3
:1043900048E8E42E02C038EEE32E4E2D66E3CE014F
:1043A0000E94181E0A851B85015011092885398530
:1043B0002150310940E050E060E070E0CE010E9401
:1043C000B31B8A8D833031F58D89813069F048F0D7
:1043D000823029F0833051F420E6F22E07C0F12C10
:1043E00005C090ECF92E02C080EAF82E4F2D66E34E
:1043F000CE010E94181E0A851B85015011092885CF
:1044000039852150310940E050E060E070E0CE0194
:104410000E94B31BDF91CF911F910F91FF90EF90FE
:104420000895AF92BF92CF92DF92EF92FF920F93D7
:104430001F93CF93DF93EC017B016A01B22EA32E71
:1044400077FDC4C057FDC2C0888599856817790774
:104450000CF0BCC08A859B85481759070CF0B6C084
:1044600043988A8D811135C08D89823059F083300F
:10447000B1F08130D1F48FEE90E0841B950B6B018D
:104480007C0113C08FEE90E09C01261B370B790155
:104490008FE391E09C01241B350B690106C08FE37B
:1044A00091E0861B970B7A016C01A70160E270E036
:1044B000CE010E943D21A60161E270E0CE010E9482
:1044C0003D214B2D5A2D62E270E0CE010E943D212C
:1044D0007CC0813009F041C0ED89E150E33028F41F
:1044E000F0E0EB5DFE4F408101C040E066E1CE01AF
:1044F0000E94181E970143E062E0CE010E94042151
:10450000960147E066E0CE010E94042142988BB1FB
:104510008F728BB985B1807D826285B94198419A4D
:10452000429A8BB19A2D907D8F72892B8BB985B170
:104530009A2D9F72807DA92EA82AA5B84198419AEC
:104540008BB19B2D907D8F72892B8BB985B19B2D63
:104550009F72807DB92EB82A35C082508230A8F56E
:104560000A851B850150110928853985215031099B
:10457000CE010E94B31B439842988BB18F728BB9C6
:1045800085B1807D8C6285B94198419A429A8BB100
:104590009A2D907D8F72892B8BB995B18A2D8F7250
:1045A000907DA82EA92AA5B84198419A8BB19B2D40
:1045B000907D8F72892B8BB995B18B2D8F72907DE9
:1045C000B82EB92AB5B84198419A439ADF91CF9154
:1045D0001F910F91FF90EF90DF90CF90BF90AF9021
:1045E0000895EF92FF920F931F93CF93DF937C0177
:1045F000EB01FC01828D811124C0258921502330DB
:1046000078F430E0F901EE5DFE4F8081482F50E0F4
:10461000220F331FF901E45EFE4F0081118104C0B7
:1046200000E010E040E050E0439860E270E0C70135
:104630000E943D21A80161E270E0C7010E943D2176
:1046400013C08150833080F4F70102851385015037
:104650001109208531852150310940E050E060E0AA
:1046600070E0C7010E94B31B20E03CE241E050E053
:10467000BE01C701DF91CF911F910F91FF90EF9085
:104680000C94AA1A8F929F92AF92BF920F931F938E
:10469000CF93DF93CDB7DEB7A1970FB6F894DEBF07
:1046A0000FBECDBF19A2423008F44AE08E010F5D63
:1046B0001F4F842E912CA12CB12CA50194010E9496
:1046C000E032E62FB901CA0101501109EA3014F4B1
:1046D000E05D01C0E95CD801EC93232B242B252B52
:1046E00061F7B8018BE394E00E948817A1960FB69A
:1046F000F894DEBF0FBECDBFDF91CF911F910F9118
:10470000BF90AF909F908F9008952F923F924F92BD
:104710005F926F927F928F929F92AF92BF92CF9251
:10472000DF92EF92FF920F931F93CF93DF9300D00E
:1047300000D000D0CDB7DEB75C014B015E834D8366
:10474000280181E090E03C01641A750ACA01919544
:1047500081959109AC01440F551F5A834983180173
:10476000CC24C394D12C522F51705B8322702C83A4
:10477000C60101972D813E81821793070CF068C016
:1047800077FC0CC08D819E8101979E838D83E9818A
:10479000FA813296FA83E9836E0E7F1EC601880F76
:1047A000991F0196680E791EFB81FF2319F12D8157
:1047B0003E81220F331F2F5F3F4F240D351D870190
:1047C000A4018D819E81481B590BB6016A0D7B1D8A
:1047D00081EB95E00E94A50F91012D5F3F4FA40151
:1047E0004C195D096D817E816A0D7B1D81EB95E021
:1047F0000E94A50F9C81992321F12D813E81220FDA
:10480000331F2F5F3F4F240D351D8701A401ED811C
:10481000FE814E1B5F0BB5016C197D0981EB95E0A4
:104820000E94A50F91012D5F3F4FA4014C195D0916
:10483000B5018D819E81681B790B81EB95E00E940B
:10484000A50F9FEFC91AD90AE2E02E0E311C90CFB6
:1048500026960FB6F894DEBF0FBECDBFDF91CF9185
:104860001F910F91FF90EF90DF90CF90BF90AF908E
:104870009F908F907F906F905F904F903F902F9080
:10488000089590E0FC01E95AFA4E2491FC01ED5B99
:10489000FA4E8491882399F090E0880F991FFC01CB
:1048A000E15DFA4EA591B491FC01EB5DFA4E859164
:1048B00094918FB7F894EC91E22BEC938FBF08950D
:1048C0004F925F926F927F928F929F92AF92BF9220
:1048D000CF92DF92EF92FF926B017C01B42E9B018D
:1048E000AC010E949E32882319F06EE971E027C066
:1048F00026013701E89477F82FEF3FEF4FE75FE7A6
:10490000C301B2010E949E3281110DC02FEF3FEF13
:104910004FE75FE7C301B2010E94EB2E18161CF4AB
:1049200062EA71E00CC02FEF3FEF4FE75FE4C70191
:10493000B6010E944732181694F466EA71E08BE3E0
:1049400094E0FF90EF90DF90CF90BF90AF909F905A
:104950008F907F906F905F904F900C9488172FEFFF
:104960003FEF4FE75FECC701B6010E94EB2E87FDDA
:10497000E4CF20E030E0A901C701B6010E94EB2E90
:1049800087FF11C0E0913B04F0913C040190F0815D
:10499000E02D6DE28BE394E009954C01F7FAF09479
:1049A000F7F8F09402C0812C912CA12C60E070E00B
:1049B00080E09FE3AB1441F020E030E040E251E4BE
:1049C0000E943931A394F6CF9B01AC01C701B60117
:1049D0000E9456302B013C010E94B2316B017C01D8
:1049E0000E94F02E9B01AC01C301B2010E94553020
:1049F0002B013C014AE0C701B6010E9442237C0121
:104A0000E80CF91CBB2069F0E0913B04F0913C04F8
:104A10000190F081E02D6EE28BE394E00995E80EC1
:104A2000F91EDB2CDD2021F120E030E040E251E4F2
:104A3000C301B2010E94512F2B013C010E94B231EF
:104A40004B01A12CB12C4AE0C501B4010E944223C4
:104A5000E80EF91EC501B4010E94F02E9B01AC01C5
:104A6000C301B2010E9455302B013C01DA94DACF28
:104A7000C701FF90EF90DF90CF90BF90AF909F90D5
:104A80008F907F906F905F904F900895AF92BF92FC
:104A9000CF92DF92EF92FF920F931F93CF93DF930A
:104AA0006C015B01EA0179019A01220F331F2F5F2C
:104AB0003F4FAB014C1B5D0B8701B60181EB95E0CD
:104AC0000E94A50F00E010E023E0AE01B501C60191
:104AD0000E948523DF91CF911F910F91FF90EF905E
:104AE000DF90CF90BF90AF900895CF92DF92EF927A
:104AF000FF920F931F93CF938C01C62F6A01809171
:104B0000AE05A80190E00E94F9157C01E091AD0589
:104B10008E2F90E0A8016C2F49960E94A515960152
:104B200042E050E0BC01C701CF911F910F91FF906F
:104B3000EF90DF90CF900C9446252091C9053091DD
:104B4000CA05009749F0232B99F42091BF053091B5
:104B5000C0052A5F3F4F08C0232B51F02091BF05AD
:104B60003091C005265031093093C0052093BF0510
:104B70009093CA058093C90508952F923F924F9252
:104B80005F926F927F928F929F92AF92BF92CF92DD
:104B9000DF92EF92FF920F931F93CF93DF937C01ED
:104BA0006B0166246394712C00E010E0C4E0D0E057
:104BB00098EF892E99249A942DEFA22EBB24BA94B3
:104BC000842F8470582E842F8270482E842F8870F2
:104BD000382E4170242E0F5F1F4F82E0680E711C2B
:104BE000A60CB71C5520C1F020E030E0A6014C0F08
:104BF0005D1FB701600F711F81EB95E00E94B10F3F
:104C000020E030E0A601400F511FB7016C0F7D1F5F
:104C100081EB95E00E94B10F4420C1F020E030E02C
:104C2000A6014C1B5D0BB701600F711F81EB95E076
:104C30000E94B10F20E030E0A601401B510BB701EC
:104C40006C0F7D1F81EB95E00E94B10F3320C1F006
:104C500020E030E0A601400F511FB7016C1B7D0B17
:104C600081EB95E00E94B10F20E030E0A6014C0FEF
:104C70005D1FB701601B710B81EB95E00E94B10FC6
:104C80002220C1F020E030E0A601401B510BB7010B
:104C90006C1B7D0B81EB95E00E94B10F20E030E0B2
:104CA000A6014C1B5D0BB701601B710B81EB95E0FE
:104CB0000E94B10F0C171D074CF4B7FC8CCF219745
:104CC00082E0880E911CA80CB91C85CFDF91CF9192
:104CD0001F910F91FF90EF90DF90CF90BF90AF901A
:104CE0009F908F907F906F905F904F903F902F900C
:104CF00008952F923F924F925F926F927F928F9280
:104D00009F92AF92BF92CF92DF92EF92FF920F935A
:104D10001F93CF93DF9300D000D0CDB7DEB72C0127
:104D20005B011A013901680188279927801B910BC3
:104D30009C01220F331F3C832B83C201800F911FE4
:104D40009A838983240F351F8301AB01BC0181EB5A
:104D500095E00E94890FEB81FC816E0E7F1EF1E0D1
:104D60006F1A7108AC0CBD1C420C531CC2018C198B
:104D70009D09830121E0A601B50101970E948523C9
:104D800022E0A601B50189819A810E9485230F90B6
:104D90000F900F900F90DF91CF911F910F91FF9087
:104DA000EF90DF90CF90BF90AF909F908F907F90CB
:104DB0006F905F904F903F902F900895439A419A43
:104DC000409A60E085E00E94741F62E070E080E03D
:104DD00090E00E94C91F61E085E00E94741F439823
:104DE00042988BB18F728BB985B1807D85B941981E
:104DF000419A83E04198419A8150E1F7439A08959E
:104E00008091570387FF0CC08091430390E09C0181
:104E100046E0220F331F4A95E1F7822B932B08952A
:104E200085FF09C080914B0390E0982F882720913F
:104E30004C03822B089580913B0390E00895CF931B
:104E4000DF93DC01ED91FC91EB01A881B9813097F2
:104E500011F01097C9F4109759F0EB012C813D81A6
:104E6000232B31F08C9190E091958195910914C09C
:104E7000309781F0DC0114968D919C911597892BC8
:104E800049F0808190E008C0BD01CF01DF91CF9152
:104E90000C94303580E090E0DF91CF910895EF924F
:104EA000FF920F931F93CF93DF93EC017B018A0155
:104EB00088819981009729F02A813B812417350741
:104EC000F8F4B8016F5F7F4F0E945834009759F093
:104ED000998388831B830A832C813D81232B81F452
:104EE000FC0110820DC088819981009711F00E9409
:104EF000C033198218821D821C821B821A8207C04D
:104F00001D830C83B701888199810E943935CE01B8
:104F1000DF91CF911F910F91FF90EF900895FC01C9
:104F2000808191810C94C033FB01DC0111961C92AD
:104F30001E9213961C921E92129715961C921E9208
:104F400014978617970749F0608171816115710583
:104F500021F0448155810C944F270895682F8AEDE4
:104F600094E00C9410111F93CF93DF93EC018C8588
:104F7000613011F48F5F01C081508C872C852F73B5
:104F8000822F90E0203148F4E1E4F1E0E81BF90BD6
:104F90004081FC01EF5CFE4F20C030EF320F30311A
:104FA00038F4FC01EF5DFE4F4081E1E5F1E013C014
:104FB00030EE320F303148F4E1E6F1E0E81BF90B56
:104FC0004081FC01EF5EFE4F08C0FC01EF5FFE4F29
:104FD0004081E1E7F1E0E81BF90B10812C8780E1CB
:104FE000489FA00111246C818D859E850E94D01D53
:104FF00080E1189FA00111246F818D859E850E94FC
:10500000D01D8C85803110F413E001C010E090EFCA
:10501000980F903108F4166090EE980F903108F4D4
:105020001C608053803108F419608D859E8520E0D6
:1050300030E010FF03C040E050E102C040E050E02B
:105040006E81CB960E94441D8D859E8520E030E0C8
:1050500011FF03C040E050E102C040E050E068852D
:10506000CB960E94441D8D859E8520E030E012FF86
:1050700003C040E050E102C040E050E06D81CB96BB
:105080000E94441D8D859E8520E030E013FF03C003
:1050900040E050E102C040E050E06985CB960E94BC
:1050A000441D8C85DF91CF911F910895CF93DF939D
:1050B000CBEAD5E02697CE010E948F2785E0CB343E
:1050C000D807C1F7DF91CF910895CF93DF93CDB784
:1050D000DEB76B970FB6F894DEBF0FBECDBF7894E6
:1050E00084B5826084BD84B5816084BD85B58260ED
:1050F00085BD85B5816085BD80916E00816080939E
:105100006E00109281008091810082608093810006
:105110008091810081608093810080918000816016
:10512000809380008091B10084608093B100809171
:10513000B00081608093B00080917A008460809399
:105140007A0080917A00826080937A0080917A0060
:10515000816080937A0080917A00806880937A00E1
:105160001092C100E0914B04F0914C0412E01083C6
:10517000E0914704F09148041082E0914904F091D5
:105180004A048FEC808310925304E0914F04F09115
:10519000500486E08083E0914D04F0914E048081BC
:1051A00080618083E0914D04F0914E04808188609D
:1051B0008083E0914D04F0914E048081806880836B
:1051C000E0914D04F0914E0480818F7D808384ECCA
:1051D00092E19093A5028093A40281E08093A302C0
:1051E00088EC90E09093A7028093A60289EC90E06F
:1051F0009093A9028093A8028AEC90E09093AB026E
:105200008093AA028BEC90E09093AD028093AC0265
:105210008CEC90E09093AF028093AE028DEC90E026
:105220009093B1028093B0028EEC90E09093B30221
:105230008093B2028FEC90E09093B5028093B40219
:105240008091BC029091BD02A091BE02B091BF02BC
:10525000892B8A2B8B2B89F51092410310924203E4
:105260001092BA021092B9021092B8021092B702CC
:105270001092B6021092B5021092B4020E94A41FBE
:105280006093BC027093BD028093BE029093BF02F4
:105290008EE79AE190930301809302018091690067
:1052A0008C7F816080936900E89A86EF97E1909304
:1052B000D9048093D8041093BB020E94DE260E947A
:1052C000DE2668EC70E080E090E00E94C91F10923A
:1052D000CB05439802E314E1F80165917491F8015C
:1052E0003296459154916F3F710531F4BA0180E0D7
:1052F00090E00E94C91F04C081EB95E00E943D210F
:105300000C5F1F4F24E10E3F120731F76091C60575
:1053100081EB95E00E9474210FE311E02FEE30E065
:1053200040E050E060E070E081EB95E00E94B31B4C
:1053300063E081EB95E00E94742160E070E081EB16
:1053400095E00E94F1228DE00E94412485E090E0EA
:105350009093BE058093BD058FE090E09093C005CB
:105360008093BF058FEF9FEF9093C4058093C30593
:105370009093C2058093C10581E08093C5058EE1BD
:1053800095E10E949D258091AD0590E02EE130E0F1
:105390003093BE052093BD059093C0058093BF0553
:1053A00005E015E1F8016491611134C06BE971E029
:1053B00081EB95E00E94881780E090E00E949D2597
:1053C00068EE73E080E090E00E94C91F60E070E04A
:1053D00081EB95E00E94F1222091B9053091BA0548
:1053E000C901859797FD039695958795959587951E
:1053F000582E492EABE48A2EA5E09A2EB12CA12C72
:10540000B3E03B2E380ECE0101966C0119E0612EFF
:10541000712C10C0E091B105F091B2050190F081BE
:10542000E02D81EB95E009950F5F1F4F892B09F067
:10543000B9CFBCCFAA2009F461C2B30C6B2D70E0C8
:10544000EFEEEE2EEBE7FE2E04E110E0252D342DDD
:1054500046E050E081EB95E00E94371E0B2D10E0F6
:10546000B401C6010E94942721E030E046E050E0FC
:10547000B801C6010E945C15C6010E948F278EEFFD
:1054800094E10E949D250E5F1F4F1093BE0500936F
:10549000BD057092C0056092BF05F401448155813D
:1054A0006081718181EB95E00E943E1780E090E081
:1054B0000E949D25A394F6E08F0E911C24E0A21279
:1054C000B9CF2091BB053091BC05205231094091E4
:1054D000B9055091BA054C50510968E1E62E66ECC9
:1054E000F62E03E010E06AE170E086E090E00E94B2
:1054F00079262091BB053091BC0526523109409197
:10550000B9055091BA0542515109E12CF12C6DE1D8
:1055100070E089E090E00E9479266091AD0570E02E
:105520008091AE0520E130E04BE450E090E00E9435
:1055300046256091AD0570E08091AE0520E030E039
:1055400047E450E090E00E944625198A188A1B8A99
:105550001A8A1D8A1C8A4AE0B60181E090E00E9406
:10556000C12EF60101900020E9F73197AF014C19E7
:105570005D09B601CE0140960E944F2741E050E000
:1055800060EB71E0CE0140960E944F278DE091E0E4
:105590009F8B8E8BEE89FF8961917191FF8BEE8BD2
:1055A000072E000C880B990B0E94F22E20E030E0B1
:1055B00048E455E40E94393120E030E044EB53E404
:1055C0000E94512F9B01AC0160E070E084EB92E4FB
:1055D0000E9455304B015C0142E00E9460246BE95F
:1055E00071E08BE394E00E948817C501B4010E942A
:1055F000AB312B013C0128E6222E33243394261AAA
:10560000370A30E1E32E34E8F32E0DEF29E64BE4C0
:10561000B101C1010E944D1603E029E64BE4B1013E
:10562000C1010E944D16BE01605F7F4FCE010A96F8
:105630000E94942742E0C501B4010E9460246BE9F6
:1056400071E08BE394E00E948817BE01665F7F4F94
:10565000C6010E94942768E5C6010E942F155C01CF
:10566000C6010E948F27BE01665F7F4FC6010E9460
:10567000942769E5C6010E942F154C01C6010E94BE
:105680008F27A114B10419F08114910401F58091C0
:10569000AE05A20169E690E00E94F9155C018091D7
:1056A000AD05A20169E690E00E94A5154C01BE017E
:1056B000665F7F4FC6010E94942722E030E0A4017C
:1056C000B501C6010E945C15C6010E948F2780911A
:1056D000AD05B401681B7109072E000C880B990BEE
:1056E0000E94F22E9B01AC018091AE05B501681BB2
:1056F0007109072E000C880B990B288F398F4A8F60
:105700005B8F0E94F22E288D398D4A8D5B8D0E9411
:10571000D53020EE3EE245E652E40E94512F0E9431
:10572000AB319B0177FF02C028593E4FC9016DE2A2
:1057300070E00E94CC32611102C082EE01C081EFA4
:105740002401481A5108E12CF12C04E010E02EE16C
:1057500030E04EE150E0B201C501815F91090E9445
:1057600079267501FFEEEF1AF108A20142505109A6
:1057700000E010E024E130E0B70181EB95E00E9409
:10578000990FA201475E5F4F24E130E0B70181EB42
:1057900095E00E94990F320122E0620E711CB50162
:1057A000635F710924E130E0A30181EB95E00E9481
:1057B000A50FB501685D710924E130E0A30181EB1B
:1057C00095E00E94A50F41E0B301C7010E94BD25ED
:1057D00085010C5D110942E0B301C8010E94BD259D
:1057E00045E1440E511C44E0B201C8010E94BD25B0
:1057F00048E0B201C7010E94BD258AE0A80EB11C95
:10580000B092BE05A092BD059AE0890E911C9092BF
:10581000C0058092BF058EE195E10E949D25109202
:10582000C4051092C3051092C2051092C1054E85A1
:105830005F856A857B8581EB95E00E943E1780E05D
:1058400090E00E949D25CE010A960E948F27EE8946
:10585000FF89EB51F14009F09DCECE0140960E94A8
:105860008F2768EB7BE080E090E00E94C91F809169
:10587000C0029091C1029C012F5F3F4F3093C10243
:105880002093C002203335473CF060E070E081EBAC
:1058900095E00E94F12228C002969093C102809365
:1058A000C00222C06AE070E080E090E00E94C91F60
:1058B00060E0C80101970E949B1661E0C8010E9448
:1058C0009B1664E670E080E090E00E94C91F0F5FC5
:1058D0001F4F0A35110531F760E070E081EB95E06C
:1058E0000E94F1221092060180910601882319F08E
:1058F00000E010E0D7CF0E940D1EB9CF88E1E82E5E
:1059000086ECF82E04E110E0252D342D46E050E021
:105910006EE070E081EB95E00E94371E9EE0B92EAC
:105920009DCDDF92EF92FF920F931F93CF93DF9362
:1059300010923E0410923D0488EE93E0A0E0B0E0A7
:1059400080933F0490934004A0934104B093420499
:1059500026E431E030933C0420933B0425EC30E016
:10596000309348042093470424EC30E030934A04F9
:105970002093490420EC30E030934C0420934B04F6
:1059800021EC30E030934E0420934D0422EC30E0C3
:105990003093500420934F0426EC30E030935204AF
:1059A00020935104109254041092550410925604FE
:1059B0001092570425EF37E13093D9042093D8048F
:1059C0001092DD041092DC048093DE049093DF04D7
:1059D000A093E004B093E10486E591E09093DB04AA
:1059E0008093DA0481E18093CE0580E18093D00535
:1059F00089E08093CF0588E08093D1058CE291E027
:105A00009093D3058093D2058AE090E09093CD05E2
:105A10008093CC051092B4051092B30500EF10E00E
:105A20001093B6050093B505C0E4D1E0D093B80556
:105A3000C093B7051093BA050093B905D093BC0580
:105A4000C093BB051092C6051092BE051092BD050D
:105A50001092C0051092BF05DD24D394D092C505E5
:105A6000EE24EA94FE2CF092C405E092C305F09275
:105A7000C205E092C105D092C7051092C8051092E8
:105A8000CA051092C90586E791E09093B20580930C
:105A9000B105439A419A409A429A61E085E00E949A
:105AA000741F81E10E94412480E10E9441248FE023
:105AB0000E9441248EE00E94412485E00E944124FE
:105AC0008AB1806D8AB984B18F6284B91092C6059B
:105AD0001092BE051092BD051092C0051092BF0530
